{
  "contractName": "Campaign",
  "abi": [
    {
      "inputs": [
        {
          "components": [
            {
              "internalType": "string",
              "name": "title",
              "type": "string"
            },
            {
              "internalType": "string",
              "name": "description",
              "type": "string"
            },
            {
              "internalType": "uint256",
              "name": "fundingGoal",
              "type": "uint256"
            },
            {
              "internalType": "uint256",
              "name": "deadlineDate",
              "type": "uint256"
            }
          ],
          "internalType": "struct ICampaign.Info",
          "name": "infoData",
          "type": "tuple"
        },
        {
          "components": [
            {
              "internalType": "string",
              "name": "title",
              "type": "string"
            },
            {
              "internalType": "string",
              "name": "description",
              "type": "string"
            },
            {
              "internalType": "uint256",
              "name": "minimumContribution",
              "type": "uint256"
            },
            {
              "internalType": "uint256",
              "name": "amount",
              "type": "uint256"
            },
            {
              "internalType": "uint256",
              "name": "stockLimit",
              "type": "uint256"
            },
            {
              "internalType": "uint256",
              "name": "nbContributors",
              "type": "uint256"
            },
            {
              "internalType": "bool",
              "name": "isStockLimited",
              "type": "bool"
            }
          ],
          "internalType": "struct ICampaign.Rewards[]",
          "name": "rewardsData",
          "type": "tuple[]"
        },
        {
          "internalType": "address",
          "name": "_manager",
          "type": "address"
        }
      ],
      "stateMutability": "nonpayable",
      "type": "constructor"
    },
    {
      "anonymous": false,
      "inputs": [],
      "name": "CampaignDisabled",
      "type": "event"
    },
    {
      "anonymous": false,
      "inputs": [],
      "name": "CampaignInfoUpdated",
      "type": "event"
    },
    {
      "anonymous": false,
      "inputs": [
        {
          "indexed": false,
          "internalType": "uint256",
          "name": "rewardsCounter",
          "type": "uint256"
        }
      ],
      "name": "CampaignNewRewardsAdded",
      "type": "event"
    },
    {
      "anonymous": false,
      "inputs": [],
      "name": "CampaignRewardDeleted",
      "type": "event"
    },
    {
      "anonymous": false,
      "inputs": [],
      "name": "CampaignRewardsUpdated",
      "type": "event"
    },
    {
      "anonymous": false,
      "inputs": [
        {
          "indexed": false,
          "internalType": "enum ICampaign.WorkflowStatus",
          "name": "previousStatus",
          "type": "uint8"
        },
        {
          "indexed": false,
          "internalType": "enum ICampaign.WorkflowStatus",
          "name": "newStatus",
          "type": "uint8"
        }
      ],
      "name": "WorkflowStatusChange",
      "type": "event"
    },
    {
      "inputs": [],
      "name": "createAt",
      "outputs": [
        {
          "internalType": "uint256",
          "name": "",
          "type": "uint256"
        }
      ],
      "stateMutability": "view",
      "type": "function"
    },
    {
      "inputs": [],
      "name": "factory",
      "outputs": [
        {
          "internalType": "address",
          "name": "",
          "type": "address"
        }
      ],
      "stateMutability": "view",
      "type": "function"
    },
    {
      "inputs": [],
      "name": "isDisabled",
      "outputs": [
        {
          "internalType": "bool",
          "name": "",
          "type": "bool"
        }
      ],
      "stateMutability": "view",
      "type": "function"
    },
    {
      "inputs": [],
      "name": "manager",
      "outputs": [
        {
          "internalType": "address",
          "name": "",
          "type": "address"
        }
      ],
      "stateMutability": "view",
      "type": "function"
    },
    {
      "inputs": [],
      "name": "rewardsCounter",
      "outputs": [
        {
          "internalType": "uint8",
          "name": "",
          "type": "uint8"
        }
      ],
      "stateMutability": "view",
      "type": "function"
    },
    {
      "inputs": [
        {
          "internalType": "uint256",
          "name": "",
          "type": "uint256"
        }
      ],
      "name": "rewardsList",
      "outputs": [
        {
          "internalType": "string",
          "name": "title",
          "type": "string"
        },
        {
          "internalType": "string",
          "name": "description",
          "type": "string"
        },
        {
          "internalType": "uint256",
          "name": "minimumContribution",
          "type": "uint256"
        },
        {
          "internalType": "uint256",
          "name": "amount",
          "type": "uint256"
        },
        {
          "internalType": "uint256",
          "name": "stockLimit",
          "type": "uint256"
        },
        {
          "internalType": "uint256",
          "name": "nbContributors",
          "type": "uint256"
        },
        {
          "internalType": "bool",
          "name": "isStockLimited",
          "type": "bool"
        }
      ],
      "stateMutability": "view",
      "type": "function"
    },
    {
      "inputs": [],
      "name": "status",
      "outputs": [
        {
          "internalType": "enum ICampaign.WorkflowStatus",
          "name": "",
          "type": "uint8"
        }
      ],
      "stateMutability": "view",
      "type": "function"
    },
    {
      "inputs": [],
      "name": "getCampaignInfo",
      "outputs": [
        {
          "components": [
            {
              "internalType": "string",
              "name": "title",
              "type": "string"
            },
            {
              "internalType": "string",
              "name": "description",
              "type": "string"
            },
            {
              "internalType": "uint256",
              "name": "fundingGoal",
              "type": "uint256"
            },
            {
              "internalType": "uint256",
              "name": "deadlineDate",
              "type": "uint256"
            }
          ],
          "internalType": "struct ICampaign.Info",
          "name": "",
          "type": "tuple"
        },
        {
          "internalType": "uint256",
          "name": "",
          "type": "uint256"
        },
        {
          "internalType": "address",
          "name": "",
          "type": "address"
        },
        {
          "internalType": "enum ICampaign.WorkflowStatus",
          "name": "",
          "type": "uint8"
        }
      ],
      "stateMutability": "view",
      "type": "function"
    },
    {
      "inputs": [
        {
          "components": [
            {
              "internalType": "string",
              "name": "title",
              "type": "string"
            },
            {
              "internalType": "string",
              "name": "description",
              "type": "string"
            },
            {
              "internalType": "uint256",
              "name": "fundingGoal",
              "type": "uint256"
            },
            {
              "internalType": "uint256",
              "name": "deadlineDate",
              "type": "uint256"
            }
          ],
          "internalType": "struct ICampaign.Info",
          "name": "newInfo",
          "type": "tuple"
        }
      ],
      "name": "updateCampaign",
      "outputs": [],
      "stateMutability": "nonpayable",
      "type": "function"
    },
    {
      "inputs": [
        {
          "components": [
            {
              "internalType": "string",
              "name": "title",
              "type": "string"
            },
            {
              "internalType": "string",
              "name": "description",
              "type": "string"
            },
            {
              "internalType": "uint256",
              "name": "minimumContribution",
              "type": "uint256"
            },
            {
              "internalType": "uint256",
              "name": "amount",
              "type": "uint256"
            },
            {
              "internalType": "uint256",
              "name": "stockLimit",
              "type": "uint256"
            },
            {
              "internalType": "uint256",
              "name": "nbContributors",
              "type": "uint256"
            },
            {
              "internalType": "bool",
              "name": "isStockLimited",
              "type": "bool"
            }
          ],
          "internalType": "struct ICampaign.Rewards",
          "name": "newRewardData",
          "type": "tuple"
        }
      ],
      "name": "addReward",
      "outputs": [],
      "stateMutability": "nonpayable",
      "type": "function"
    },
    {
      "inputs": [
        {
          "components": [
            {
              "internalType": "string",
              "name": "title",
              "type": "string"
            },
            {
              "internalType": "string",
              "name": "description",
              "type": "string"
            },
            {
              "internalType": "uint256",
              "name": "minimumContribution",
              "type": "uint256"
            },
            {
              "internalType": "uint256",
              "name": "amount",
              "type": "uint256"
            },
            {
              "internalType": "uint256",
              "name": "stockLimit",
              "type": "uint256"
            },
            {
              "internalType": "uint256",
              "name": "nbContributors",
              "type": "uint256"
            },
            {
              "internalType": "bool",
              "name": "isStockLimited",
              "type": "bool"
            }
          ],
          "internalType": "struct ICampaign.Rewards",
          "name": "newRewardData",
          "type": "tuple"
        },
        {
          "internalType": "uint256",
          "name": "rewardIndex",
          "type": "uint256"
        }
      ],
      "name": "updateReward",
      "outputs": [],
      "stateMutability": "nonpayable",
      "type": "function"
    },
    {
      "inputs": [],
      "name": "deleteCampaign",
      "outputs": [],
      "stateMutability": "nonpayable",
      "type": "function"
    },
    {
      "inputs": [
        {
          "internalType": "uint256",
          "name": "rewardIndex",
          "type": "uint256"
        }
      ],
      "name": "deleteReward",
      "outputs": [],
      "stateMutability": "nonpayable",
      "type": "function"
    },
    {
      "inputs": [
        {
          "internalType": "address",
          "name": "newManager",
          "type": "address"
        }
      ],
      "name": "updateManager",
      "outputs": [],
      "stateMutability": "nonpayable",
      "type": "function"
    },
    {
      "inputs": [],
      "name": "publishCampaign",
      "outputs": [],
      "stateMutability": "nonpayable",
      "type": "function"
    }
  ],
  "bytecode": "0x60806040523480156200001157600080fd5b5060405162003a0538038062003a0583398181016040528101906200003791906200098f565b60008251116200007e576040517f08c379a0000000000000000000000000000000000000000000000000000000008152600401620000759062000b79565b60405180910390fd5b600a82511115620000c6576040517f08c379a0000000000000000000000000000000000000000000000000000000008152600401620000bd9062000b13565b60405180910390fd5b80600260006101000a81548173ffffffffffffffffffffffffffffffffffffffff021916908373ffffffffffffffffffffffffffffffffffffffff16021790555033600360006101000a81548173ffffffffffffffffffffffffffffffffffffffff021916908373ffffffffffffffffffffffffffffffffffffffff160217905550426001819055506000600360146101000a81548160ff0219169083600581111562000178576200017762000e32565b5b02179055506200018e836200020f60201b60201c565b60005b82518160ff161015620001e957620001d38160ff16848360ff1681518110620001bf57620001be62000e90565b5b6020026020010151620003ac60201b60201c565b8080620001e09062000dd4565b91505062000191565b8251600060016101000a81548160ff021916908360ff1602179055505050505062001066565b6000816000015151116200025a576040517f08c379a0000000000000000000000000000000000000000000000000000000008152600401620002519062000bbd565b60405180910390fd5b600081602001515111620002a5576040517f08c379a00000000000000000000000000000000000000000000000000000000081526004016200029c9062000b9b565b60405180910390fd5b61271081604001511015620002f1576040517f08c379a0000000000000000000000000000000000000000000000000000000008152600401620002e89062000b57565b60405180910390fd5b806060015162093a8060015462000309919062000c7e565b11156200034d576040517f08c379a0000000000000000000000000000000000000000000000000000000008152600401620003449062000b35565b60405180910390fd5b8060000151600460000190805190602001906200036c92919062000546565b508060200151600460010190805190602001906200038c92919062000546565b508060400151600460020181905550806060015160046003018190555050565b600081600001515111620003f7576040517f08c379a0000000000000000000000000000000000000000000000000000000008152600401620003ee9062000bbd565b60405180910390fd5b60008160200151511162000442576040517f08c379a0000000000000000000000000000000000000000000000000000000008152600401620004399062000b9b565b60405180910390fd5b6200044c620005d7565b8160000151816000018190525081602001518160200181905250816040015181604001818152505081608001518160800181815250508160a001518160a00181815250508160c001518160c001901515908115158152505080600860008581526020019081526020016000206000820151816000019080519060200190620004d692919062000546565b506020820151816001019080519060200190620004f592919062000546565b5060408201518160020155606082015181600301556080820151816004015560a0820151816005015560c08201518160060160006101000a81548160ff021916908315150217905550905050505050565b828054620005549062000d68565b90600052602060002090601f016020900481019282620005785760008555620005c4565b82601f106200059357805160ff1916838001178555620005c4565b82800160010185558215620005c4579182015b82811115620005c3578251825591602001919060010190620005a6565b5b509050620005d3919062000616565b5090565b6040518060e001604052806060815260200160608152602001600081526020016000815260200160008152602001600081526020016000151581525090565b5b808211156200063157600081600090555060010162000617565b5090565b60006200064c620006468462000c08565b62000bdf565b9050808382526020820190508285602086028201111562000672576200067162000efd565b5b60005b85811015620006c757815167ffffffffffffffff8111156200069c576200069b62000eee565b5b808601620006ab898262000873565b8552602085019450602084019350505060018101905062000675565b5050509392505050565b6000620006e8620006e28462000c37565b62000bdf565b90508281526020810184848401111562000707576200070662000f02565b5b6200071484828562000d32565b509392505050565b6000815190506200072d8162001018565b92915050565b600082601f8301126200074b576200074a62000eee565b5b81516200075d84826020860162000635565b91505092915050565b600081519050620007778162001032565b92915050565b600082601f83011262000795576200079462000eee565b5b8151620007a7848260208601620006d1565b91505092915050565b600060808284031215620007c957620007c862000ef3565b5b620007d5608062000bdf565b9050600082015167ffffffffffffffff811115620007f857620007f762000ef8565b5b62000806848285016200077d565b600083015250602082015167ffffffffffffffff8111156200082d576200082c62000ef8565b5b6200083b848285016200077d565b6020830152506040620008518482850162000978565b6040830152506060620008678482850162000978565b60608301525092915050565b600060e082840312156200088c576200088b62000ef3565b5b6200089860e062000bdf565b9050600082015167ffffffffffffffff811115620008bb57620008ba62000ef8565b5b620008c9848285016200077d565b600083015250602082015167ffffffffffffffff811115620008f057620008ef62000ef8565b5b620008fe848285016200077d565b6020830152506040620009148482850162000978565b60408301525060606200092a8482850162000978565b6060830152506080620009408482850162000978565b60808301525060a0620009568482850162000978565b60a08301525060c06200096c8482850162000766565b60c08301525092915050565b60008151905062000989816200104c565b92915050565b600080600060608486031215620009ab57620009aa62000f0c565b5b600084015167ffffffffffffffff811115620009cc57620009cb62000f07565b5b620009da86828701620007b0565b935050602084015167ffffffffffffffff811115620009fe57620009fd62000f07565b5b62000a0c8682870162000733565b925050604062000a1f868287016200071c565b9150509250925092565b600062000a3860168362000c6d565b915062000a458262000f22565b602082019050919050565b600062000a5f601b8362000c6d565b915062000a6c8262000f4b565b602082019050919050565b600062000a86601d8362000c6d565b915062000a938262000f74565b602082019050919050565b600062000aad60138362000c6d565b915062000aba8262000f9d565b602082019050919050565b600062000ad460178362000c6d565b915062000ae18262000fc6565b602082019050919050565b600062000afb60118362000c6d565b915062000b088262000fef565b602082019050919050565b6000602082019050818103600083015262000b2e8162000a29565b9050919050565b6000602082019050818103600083015262000b508162000a50565b9050919050565b6000602082019050818103600083015262000b728162000a77565b9050919050565b6000602082019050818103600083015262000b948162000a9e565b9050919050565b6000602082019050818103600083015262000bb68162000ac5565b9050919050565b6000602082019050818103600083015262000bd88162000aec565b9050919050565b600062000beb62000bfe565b905062000bf9828262000d9e565b919050565b6000604051905090565b600067ffffffffffffffff82111562000c265762000c2562000ebf565b5b602082029050602081019050919050565b600067ffffffffffffffff82111562000c555762000c5462000ebf565b5b62000c608262000f11565b9050602081019050919050565b600082825260208201905092915050565b600062000c8b8262000d1b565b915062000c988362000d1b565b9250827fffffffffffffffffffffffffffffffffffffffffffffffffffffffffffffffff0382111562000cd05762000ccf62000e03565b5b828201905092915050565b600062000ce88262000cfb565b9050919050565b60008115159050919050565b600073ffffffffffffffffffffffffffffffffffffffff82169050919050565b6000819050919050565b600060ff82169050919050565b60005b8381101562000d5257808201518184015260208101905062000d35565b8381111562000d62576000848401525b50505050565b6000600282049050600182168062000d8157607f821691505b6020821081141562000d985762000d9762000e61565b5b50919050565b62000da98262000f11565b810181811067ffffffffffffffff8211171562000dcb5762000dca62000ebf565b5b80604052505050565b600062000de18262000d25565b915060ff82141562000df85762000df762000e03565b5b600182019050919050565b7f4e487b7100000000000000000000000000000000000000000000000000000000600052601160045260246000fd5b7f4e487b7100000000000000000000000000000000000000000000000000000000600052602160045260246000fd5b7f4e487b7100000000000000000000000000000000000000000000000000000000600052602260045260246000fd5b7f4e487b7100000000000000000000000000000000000000000000000000000000600052603260045260246000fd5b7f4e487b7100000000000000000000000000000000000000000000000000000000600052604160045260246000fd5b600080fd5b600080fd5b600080fd5b600080fd5b600080fd5b600080fd5b600080fd5b6000601f19601f8301169050919050565b7f214572723a20546f6f206d756368205265776172647300000000000000000000600082015250565b7f214572723a20646561646c696e654461746520746f2073686f72740000000000600082015250565b7f214572723a2046756e64696e6720476f616c206e6f7420656e6f756768000000600082015250565b7f214572723a205265776172647320656d70747900000000000000000000000000600082015250565b7f214572723a204465736372697074696f6e20656d707479000000000000000000600082015250565b7f214572723a205469746c6520656d707479000000000000000000000000000000600082015250565b620010238162000cdb565b81146200102f57600080fd5b50565b6200103d8162000cef565b81146200104957600080fd5b50565b620010578162000d1b565b81146200106357600080fd5b50565b61298f80620010766000396000f3fe608060405234801561001057600080fd5b50600436106100f55760003560e01c80636c57f5a911610097578063c45a015511610066578063c45a01551461022e578063d355f0061461024c578063d6290cd714610268578063e7cf1ab714610289576100f5565b80636c57f5a9146101b25780637ef59f84146101d0578063bd39e015146101da578063bf1d4cad14610210576100f5565b806337acecce116100d357806337acecce14610140578063481c6a751461015c57806356212d591461017a57806358aba00f14610196576100f5565b8063200d2ed2146100fa578063205b091414610118578063244c3c2c14610136575b600080fd5b6101026102a5565b60405161010f91906121a9565b60405180910390f35b6101206102b8565b60405161012d91906123ec565b60405180910390f35b61013e6102cb565b005b61015a60048036038101906101559190611dfb565b6105bf565b005b610164610777565b6040516101719190612173565b60405180910390f35b610194600480360381019061018f9190611e8d565b61079d565b005b6101b060048036038101906101ab9190611da1565b6109ac565b005b6101ba610a80565b6040516101c7919061218e565b60405180910390f35b6101d8610a91565b005b6101f460048036038101906101ef9190611ee9565b610cd5565b60405161020797969594939291906121ed565b60405180910390f35b610218610e34565b60405161022591906123b6565b60405180910390f35b610236610e3a565b6040516102439190612173565b60405180910390f35b61026660048036038101906102619190611e44565b610e60565b005b61027061107d565b604051610280949392919061236a565b60405180910390f35b6102a3600480360381019061029e9190611ee9565b61128c565b005b600360149054906101000a900460ff1681565b600060019054906101000a900460ff1681565b6005808111156102de576102dd6126fc565b5b600360149054906101000a900460ff166005811115610300576102ff6126fc565b5b1415610341576040517f08c379a00000000000000000000000000000000000000000000000000000000081526004016103389061232a565b60405180910390fd5b600260009054906101000a900473ffffffffffffffffffffffffffffffffffffffff1673ffffffffffffffffffffffffffffffffffffffff163373ffffffffffffffffffffffffffffffffffffffff16146103d1576040517f08c379a00000000000000000000000000000000000000000000000000000000081526004016103c89061228a565b60405180910390fd5b600060058111156103e5576103e46126fc565b5b600360149054906101000a900460ff166005811115610407576104066126fc565b5b1480610446575060036005811115610422576104216126fc565b5b600360149054906101000a900460ff166005811115610444576104436126fc565b5b145b806104845750600460058111156104605761045f6126fc565b5b600360149054906101000a900460ff166005811115610482576104816126fc565b5b145b6104c3576040517f08c379a00000000000000000000000000000000000000000000000000000000081526004016104ba906122aa565b60405180910390fd5b6005600360146101000a81548160ff021916908360058111156104e9576104e86126fc565b5b0217905550600360009054906101000a900473ffffffffffffffffffffffffffffffffffffffff1673ffffffffffffffffffffffffffffffffffffffff1663244c3c2c6040518163ffffffff1660e01b8152600401602060405180830381600087803b15801561055857600080fd5b505af115801561056c573d6000803e3d6000fd5b505050506040513d601f19601f820116820180604052508101906105909190611dce565b507ffeb7af4852eca96c1bfc4abd1bf2029a80272acdbf1f1d1d97c47dd6388fc66960405160405180910390a1565b6005808111156105d2576105d16126fc565b5b600360149054906101000a900460ff1660058111156105f4576105f36126fc565b5b1415610635576040517f08c379a000000000000000000000000000000000000000000000000000000000815260040161062c9061232a565b60405180910390fd5b600260009054906101000a900473ffffffffffffffffffffffffffffffffffffffff1673ffffffffffffffffffffffffffffffffffffffff163373ffffffffffffffffffffffffffffffffffffffff16146106c5576040517f08c379a00000000000000000000000000000000000000000000000000000000081526004016106bc9061228a565b60405180910390fd5b600360149054906101000a900460ff1660008060058111156106ea576106e96126fc565b5b8260058111156106fd576106fc6126fc565b5b1461073d576040517f08c379a0000000000000000000000000000000000000000000000000000000008152600401610734906122aa565b60405180910390fd5b61074683611651565b7f811e66beac215e4afafaadcb6fa0f561430b1690fe0869f16abb767f166378a160405160405180910390a1505050565b600260009054906101000a900473ffffffffffffffffffffffffffffffffffffffff1681565b6005808111156107b0576107af6126fc565b5b600360149054906101000a900460ff1660058111156107d2576107d16126fc565b5b1415610813576040517f08c379a000000000000000000000000000000000000000000000000000000000815260040161080a9061232a565b60405180910390fd5b600260009054906101000a900473ffffffffffffffffffffffffffffffffffffffff1673ffffffffffffffffffffffffffffffffffffffff163373ffffffffffffffffffffffffffffffffffffffff16146108a3576040517f08c379a000000000000000000000000000000000000000000000000000000000815260040161089a9061228a565b60405180910390fd5b600360149054906101000a900460ff1660008060058111156108c8576108c76126fc565b5b8260058111156108db576108da6126fc565b5b1461091b576040517f08c379a0000000000000000000000000000000000000000000000000000000008152600401610912906122aa565b60405180910390fd5b600060019054906101000a900460ff1660ff16831115610970576040517f08c379a0000000000000000000000000000000000000000000000000000000008152600401610967906122ea565b60405180910390fd5b61097a83856117dc565b7fecf60f602773eab1fd9d40cefaf4b9841fb542d201e68a21f94d04c4febd468160405160405180910390a150505050565b600260009054906101000a900473ffffffffffffffffffffffffffffffffffffffff1673ffffffffffffffffffffffffffffffffffffffff163373ffffffffffffffffffffffffffffffffffffffff1614610a3c576040517f08c379a0000000000000000000000000000000000000000000000000000000008152600401610a339061228a565b60405180910390fd5b80600260006101000a81548173ffffffffffffffffffffffffffffffffffffffff021916908373ffffffffffffffffffffffffffffffffffffffff16021790555050565b60008054906101000a900460ff1681565b600580811115610aa457610aa36126fc565b5b600360149054906101000a900460ff166005811115610ac657610ac56126fc565b5b1415610b07576040517f08c379a0000000000000000000000000000000000000000000000000000000008152600401610afe9061232a565b60405180910390fd5b600260009054906101000a900473ffffffffffffffffffffffffffffffffffffffff1673ffffffffffffffffffffffffffffffffffffffff163373ffffffffffffffffffffffffffffffffffffffff1614610b97576040517f08c379a0000000000000000000000000000000000000000000000000000000008152600401610b8e9061228a565b60405180910390fd5b600360149054906101000a900460ff166000806005811115610bbc57610bbb6126fc565b5b826005811115610bcf57610bce6126fc565b5b14610c0f576040517f08c379a0000000000000000000000000000000000000000000000000000000008152600401610c06906122aa565b60405180910390fd5b600062093a80600460030154610c2591906124e0565b905042811015610c6a576040517f08c379a0000000000000000000000000000000000000000000000000000000008152600401610c619061226a565b60405180910390fd5b6001600360146101000a81548160ff02191690836005811115610c9057610c8f6126fc565b5b02179055507f0a97a4ee45751e2abf3e4fc8946939630b11b371ea8ae39ccdc3056e98f5cc3f60006001604051610cc89291906121c4565b60405180910390a1505050565b6008602052806000526040600020600091509050806000018054610cf890612640565b80601f0160208091040260200160405190810160405280929190818152602001828054610d2490612640565b8015610d715780601f10610d4657610100808354040283529160200191610d71565b820191906000526020600020905b815481529060010190602001808311610d5457829003601f168201915b505050505090806001018054610d8690612640565b80601f0160208091040260200160405190810160405280929190818152602001828054610db290612640565b8015610dff5780601f10610dd457610100808354040283529160200191610dff565b820191906000526020600020905b815481529060010190602001808311610de257829003601f168201915b5050505050908060020154908060030154908060040154908060050154908060060160009054906101000a900460ff16905087565b60015481565b600360009054906101000a900473ffffffffffffffffffffffffffffffffffffffff1681565b600580811115610e7357610e726126fc565b5b600360149054906101000a900460ff166005811115610e9557610e946126fc565b5b1415610ed6576040517f08c379a0000000000000000000000000000000000000000000000000000000008152600401610ecd9061232a565b60405180910390fd5b600260009054906101000a900473ffffffffffffffffffffffffffffffffffffffff1673ffffffffffffffffffffffffffffffffffffffff163373ffffffffffffffffffffffffffffffffffffffff1614610f66576040517f08c379a0000000000000000000000000000000000000000000000000000000008152600401610f5d9061228a565b60405180910390fd5b600360149054906101000a900460ff166000806005811115610f8b57610f8a6126fc565b5b826005811115610f9e57610f9d6126fc565b5b14610fde576040517f08c379a0000000000000000000000000000000000000000000000000000000008152600401610fd5906122aa565b60405180910390fd5b610ffa600060019054906101000a900460ff1660ff16846117dc565b6000600181819054906101000a900460ff1680929190611019906126a3565b91906101000a81548160ff021916908360ff160217905550507fb2b3a6cae014e777a38588687036f49746e93cd5787e86f03d667e6634a1d373600060019054906101000a900460ff1660405161107091906123d1565b60405180910390a1505050565b61108561196a565b600080600060058081111561109d5761109c6126fc565b5b600360149054906101000a900460ff1660058111156110bf576110be6126fc565b5b1415611100576040517f08c379a00000000000000000000000000000000000000000000000000000000081526004016110f79061232a565b60405180910390fd5b6004600154600260009054906101000a900473ffffffffffffffffffffffffffffffffffffffff16600360149054906101000a900460ff168360405180608001604052908160008201805461115490612640565b80601f016020809104026020016040519081016040528092919081815260200182805461118090612640565b80156111cd5780601f106111a2576101008083540402835291602001916111cd565b820191906000526020600020905b8154815290600101906020018083116111b057829003601f168201915b505050505081526020016001820180546111e690612640565b80601f016020809104026020016040519081016040528092919081815260200182805461121290612640565b801561125f5780601f106112345761010080835404028352916020019161125f565b820191906000526020600020905b81548152906001019060200180831161124257829003601f168201915b50505050508152602001600282015481526020016003820154815250509350935093509350935090919293565b60058081111561129f5761129e6126fc565b5b600360149054906101000a900460ff1660058111156112c1576112c06126fc565b5b1415611302576040517f08c379a00000000000000000000000000000000000000000000000000000000081526004016112f99061232a565b60405180910390fd5b600260009054906101000a900473ffffffffffffffffffffffffffffffffffffffff1673ffffffffffffffffffffffffffffffffffffffff163373ffffffffffffffffffffffffffffffffffffffff1614611392576040517f08c379a00000000000000000000000000000000000000000000000000000000081526004016113899061228a565b60405180910390fd5b600360149054906101000a900460ff1660008060058111156113b7576113b66126fc565b5b8260058111156113ca576113c96126fc565b5b1461140a576040517f08c379a0000000000000000000000000000000000000000000000000000000008152600401611401906122aa565b60405180910390fd5b600060019054906101000a900460ff1660ff16831061145e576040517f08c379a0000000000000000000000000000000000000000000000000000000008152600401611455906122ea565b60405180910390fd5b826001600060019054906101000a900460ff1661147b9190612514565b60ff161461156057600860006001600060019054906101000a900460ff166114a39190612514565b60ff1681526020019081526020016000206008600085815260200190815260200160002060008201816000019080546114db90612640565b6114e6929190611992565b5060018201816001019080546114fb90612640565b611506929190611992565b50600282015481600201556003820154816003015560048201548160040155600582015481600501556006820160009054906101000a900460ff168160060160006101000a81548160ff0219169083151502179055509050505b600860006001600060019054906101000a900460ff166115809190612514565b60ff168152602001908152602001600020600080820160006115a29190611a1f565b6001820160006115b29190611a1f565b60028201600090556003820160009055600482016000905560058201600090556006820160006101000a81549060ff021916905550506000600181819054906101000a900460ff168092919061160790612616565b91906101000a81548160ff021916908360ff160217905550507f0827f1eff1e08734db2dd5d48026bbd6a3c6d84959a04390246cf09f83c8138260405160405180910390a1505050565b600081600001515111611699576040517f08c379a00000000000000000000000000000000000000000000000000000000081526004016116909061234a565b60405180910390fd5b6000816020015151116116e1576040517f08c379a00000000000000000000000000000000000000000000000000000000081526004016116d89061230a565b60405180910390fd5b6127108160400151101561172a576040517f08c379a0000000000000000000000000000000000000000000000000000000008152600401611721906122ca565b60405180910390fd5b806060015162093a80600154611740919061248a565b1115611781576040517f08c379a00000000000000000000000000000000000000000000000000000000081526004016117789061226a565b60405180910390fd5b80600001516004600001908051906020019061179e929190611a5f565b508060200151600460010190805190602001906117bc929190611a5f565b508060400151600460020181905550806060015160046003018190555050565b600081600001515111611824576040517f08c379a000000000000000000000000000000000000000000000000000000000815260040161181b9061234a565b60405180910390fd5b60008160200151511161186c576040517f08c379a00000000000000000000000000000000000000000000000000000000081526004016118639061230a565b60405180910390fd5b611874611ae5565b8160000151816000018190525081602001518160200181905250816040015181604001818152505081608001518160800181815250508160a001518160a00181815250508160c001518160c0019015159081151581525050806008600085815260200190815260200160002060008201518160000190805190602001906118fc929190611a5f565b506020820151816001019080519060200190611919929190611a5f565b5060408201518160020155606082015181600301556080820151816004015560a0820151816005015560c08201518160060160006101000a81548160ff021916908315150217905550905050505050565b6040518060800160405280606081526020016060815260200160008152602001600081525090565b82805461199e90612640565b90600052602060002090601f0160209004810192826119c05760008555611a0e565b82601f106119d15780548555611a0e565b82800160010185558215611a0e57600052602060002091601f016020900482015b82811115611a0d5782548255916001019190600101906119f2565b5b509050611a1b9190611b24565b5090565b508054611a2b90612640565b6000825580601f10611a3d5750611a5c565b601f016020900490600052602060002090810190611a5b9190611b24565b5b50565b828054611a6b90612640565b90600052602060002090601f016020900481019282611a8d5760008555611ad4565b82601f10611aa657805160ff1916838001178555611ad4565b82800160010185558215611ad4579182015b82811115611ad3578251825591602001919060010190611ab8565b5b509050611ae19190611b24565b5090565b6040518060e001604052806060815260200160608152602001600081526020016000815260200160008152602001600081526020016000151581525090565b5b80821115611b3d576000816000905550600101611b25565b5090565b6000611b54611b4f8461242c565b612407565b905082815260208101848484011115611b7057611b6f612798565b5b611b7b8482856125d4565b509392505050565b600081359050611b9281612914565b92915050565b600081359050611ba78161292b565b92915050565b600081519050611bbc8161292b565b92915050565b600082601f830112611bd757611bd6612789565b5b8135611be7848260208601611b41565b91505092915050565b600060808284031215611c0657611c0561278e565b5b611c106080612407565b9050600082013567ffffffffffffffff811115611c3057611c2f612793565b5b611c3c84828501611bc2565b600083015250602082013567ffffffffffffffff811115611c6057611c5f612793565b5b611c6c84828501611bc2565b6020830152506040611c8084828501611d8c565b6040830152506060611c9484828501611d8c565b60608301525092915050565b600060e08284031215611cb657611cb561278e565b5b611cc060e0612407565b9050600082013567ffffffffffffffff811115611ce057611cdf612793565b5b611cec84828501611bc2565b600083015250602082013567ffffffffffffffff811115611d1057611d0f612793565b5b611d1c84828501611bc2565b6020830152506040611d3084828501611d8c565b6040830152506060611d4484828501611d8c565b6060830152506080611d5884828501611d8c565b60808301525060a0611d6c84828501611d8c565b60a08301525060c0611d8084828501611b98565b60c08301525092915050565b600081359050611d9b81612942565b92915050565b600060208284031215611db757611db66127a2565b5b6000611dc584828501611b83565b91505092915050565b600060208284031215611de457611de36127a2565b5b6000611df284828501611bad565b91505092915050565b600060208284031215611e1157611e106127a2565b5b600082013567ffffffffffffffff811115611e2f57611e2e61279d565b5b611e3b84828501611bf0565b91505092915050565b600060208284031215611e5a57611e596127a2565b5b600082013567ffffffffffffffff811115611e7857611e7761279d565b5b611e8484828501611ca0565b91505092915050565b60008060408385031215611ea457611ea36127a2565b5b600083013567ffffffffffffffff811115611ec257611ec161279d565b5b611ece85828601611ca0565b9250506020611edf85828601611d8c565b9150509250929050565b600060208284031215611eff57611efe6127a2565b5b6000611f0d84828501611d8c565b91505092915050565b611f1f81612548565b82525050565b611f2e8161255a565b82525050565b611f3d816125b0565b82525050565b6000611f4e8261245d565b611f588185612468565b9350611f688185602086016125e3565b611f71816127a7565b840191505092915050565b6000611f878261245d565b611f918185612479565b9350611fa18185602086016125e3565b611faa816127a7565b840191505092915050565b6000611fc2601b83612479565b9150611fcd826127b8565b602082019050919050565b6000611fe5600f83612479565b9150611ff0826127e1565b602082019050919050565b6000612008601c83612479565b91506120138261280a565b602082019050919050565b600061202b601d83612479565b915061203682612833565b602082019050919050565b600061204e601583612479565b91506120598261285c565b602082019050919050565b6000612071601783612479565b915061207c82612885565b602082019050919050565b6000612094601683612479565b915061209f826128ae565b602082019050919050565b60006120b7601183612479565b91506120c2826128d7565b602082019050919050565b600060808301600083015184820360008601526120ea8282611f43565b915050602083015184820360208601526121048282611f43565b91505060408301516121196040860182612137565b50606083015161212c6060860182612137565b508091505092915050565b61214081612599565b82525050565b61214f81612599565b82525050565b61215e816125c2565b82525050565b61216d816125a3565b82525050565b60006020820190506121886000830184611f16565b92915050565b60006020820190506121a36000830184611f25565b92915050565b60006020820190506121be6000830184611f34565b92915050565b60006040820190506121d96000830185611f34565b6121e66020830184611f34565b9392505050565b600060e0820190508181036000830152612207818a611f7c565b9050818103602083015261221b8189611f7c565b905061222a6040830188612146565b6122376060830187612146565b6122446080830186612146565b61225160a0830185612146565b61225e60c0830184611f25565b98975050505050505050565b6000602082019050818103600083015261228381611fb5565b9050919050565b600060208201905081810360008301526122a381611fd8565b9050919050565b600060208201905081810360008301526122c381611ffb565b9050919050565b600060208201905081810360008301526122e38161201e565b9050919050565b6000602082019050818103600083015261230381612041565b9050919050565b6000602082019050818103600083015261232381612064565b9050919050565b6000602082019050818103600083015261234381612087565b9050919050565b60006020820190508181036000830152612363816120aa565b9050919050565b6000608082019050818103600083015261238481876120cd565b90506123936020830186612146565b6123a06040830185611f16565b6123ad6060830184611f34565b95945050505050565b60006020820190506123cb6000830184612146565b92915050565b60006020820190506123e66000830184612155565b92915050565b60006020820190506124016000830184612164565b92915050565b6000612411612422565b905061241d8282612672565b919050565b6000604051905090565b600067ffffffffffffffff8211156124475761244661275a565b5b612450826127a7565b9050602081019050919050565b600081519050919050565b600082825260208201905092915050565b600082825260208201905092915050565b600061249582612599565b91506124a083612599565b9250827fffffffffffffffffffffffffffffffffffffffffffffffffffffffffffffffff038211156124d5576124d46126cd565b5b828201905092915050565b60006124eb82612599565b91506124f683612599565b925082821015612509576125086126cd565b5b828203905092915050565b600061251f826125a3565b915061252a836125a3565b92508282101561253d5761253c6126cd565b5b828203905092915050565b600061255382612579565b9050919050565b60008115159050919050565b600081905061257482612900565b919050565b600073ffffffffffffffffffffffffffffffffffffffff82169050919050565b6000819050919050565b600060ff82169050919050565b60006125bb82612566565b9050919050565b60006125cd826125a3565b9050919050565b82818337600083830152505050565b60005b838110156126015780820151818401526020810190506125e6565b83811115612610576000848401525b50505050565b6000612621826125a3565b91506000821415612635576126346126cd565b5b600182039050919050565b6000600282049050600182168061265857607f821691505b6020821081141561266c5761266b61272b565b5b50919050565b61267b826127a7565b810181811067ffffffffffffffff8211171561269a5761269961275a565b5b80604052505050565b60006126ae826125a3565b915060ff8214156126c2576126c16126cd565b5b600182019050919050565b7f4e487b7100000000000000000000000000000000000000000000000000000000600052601160045260246000fd5b7f4e487b7100000000000000000000000000000000000000000000000000000000600052602160045260246000fd5b7f4e487b7100000000000000000000000000000000000000000000000000000000600052602260045260246000fd5b7f4e487b7100000000000000000000000000000000000000000000000000000000600052604160045260246000fd5b600080fd5b600080fd5b600080fd5b600080fd5b600080fd5b600080fd5b6000601f19601f8301169050919050565b7f214572723a20646561646c696e654461746520746f2073686f72740000000000600082015250565b7f214e6f7420417574686f72697a65640000000000000000000000000000000000600082015250565b7f21457272203a2057726f6e6720776f726b666c6f772073746174757300000000600082015250565b7f214572723a2046756e64696e6720476f616c206e6f7420656e6f756768000000600082015250565b7f214572723a20496e646578206e6f742065786973740000000000000000000000600082015250565b7f214572723a204465736372697074696f6e20656d707479000000000000000000600082015250565b7f214572723a2043616d706169676e2044656c6574656400000000000000000000600082015250565b7f214572723a205469746c6520656d707479000000000000000000000000000000600082015250565b60068110612911576129106126fc565b5b50565b61291d81612548565b811461292857600080fd5b50565b6129348161255a565b811461293f57600080fd5b50565b61294b81612599565b811461295657600080fd5b5056fea26469706673582212201e4d7766a55925d44da885934adab7da7b94b7b0eb8791ca72dcec38ea6de58964736f6c63430008060033",
  "immutableReferences": {},
  "source": "// SPDX-License-Identifier: GPL-3.0\r\npragma solidity 0.8.6;\r\n\r\nimport \"./interfaces/ICampaign.sol\";\r\nimport \"./interfaces/ICampaignFactory.sol\";\r\n\r\ncontract Campaign is ICampaign {\r\n\r\n    bool public isDisabled;\r\n    uint8 public rewardsCounter;\r\n    uint256 public createAt;\r\n    address public manager;\r\n    address public factory;\r\n    WorkflowStatus public status;\r\n\r\n    Info private campaignInfo;\r\n    mapping(uint => Rewards) public rewardsList;\r\n\r\n    //    Events\r\n    event CampaignNewRewardsAdded(uint rewardsCounter);\r\n    event CampaignInfoUpdated();\r\n    event CampaignRewardsUpdated();\r\n    event CampaignDisabled();\r\n    event CampaignRewardDeleted();\r\n    event WorkflowStatusChange(\r\n        WorkflowStatus previousStatus,\r\n        WorkflowStatus newStatus\r\n    );\r\n\r\n    //Modifiers\r\n    modifier isNotDeleted(){\r\n        require(status != WorkflowStatus.CampaignDeleted, \"!Err: Campaign Deleted\");\r\n        _;\r\n    }\r\n\r\n    modifier onlyManager(){\r\n        require(msg.sender == manager, \"!Not Authorized\");\r\n        _;\r\n    }\r\n\r\n    modifier checkStatus(\r\n        WorkflowStatus currentStatus,\r\n        WorkflowStatus requiredStatus\r\n    ) {\r\n        require(currentStatus == requiredStatus, \"!Err : Wrong workflow status\");\r\n        _;\r\n    }\r\n\r\n    constructor(Info memory infoData, Rewards[] memory rewardsData, address _manager)\r\n    {\r\n        require(rewardsData.length > 0, \"!Err: Rewards empty\");\r\n        require(rewardsData.length <= 10, \"!Err: Too much Rewards\");\r\n        manager = _manager;\r\n        factory = msg.sender;\r\n        createAt = block.timestamp;\r\n        status = WorkflowStatus.CampaignDrafted;\r\n        _setCampaignInfo(infoData);\r\n        uint8 _rewardsCounter;\r\n        for (_rewardsCounter; _rewardsCounter < rewardsData.length; _rewardsCounter++) {\r\n            _setCampaignReward(_rewardsCounter, rewardsData[_rewardsCounter]);\r\n        }\r\n        rewardsCounter = uint8(rewardsData.length) ;\r\n    }\r\n\r\n    /**\r\n     * @inheritdoc ICampaign\r\n     */\r\n    function getCampaignInfo() external view override isNotDeleted() returns(Info memory, uint, address, WorkflowStatus) {\r\n        return (campaignInfo, createAt, manager, status);\r\n    }\r\n\r\n    /**\r\n     * @inheritdoc ICampaign\r\n     */\r\n    function updateCampaign(Info memory newInfo) external override isNotDeleted() onlyManager() checkStatus(status, WorkflowStatus.CampaignDrafted) {\r\n        _setCampaignInfo(newInfo);\r\n        emit CampaignInfoUpdated();\r\n    }\r\n\r\n    /**\r\n     * @inheritdoc ICampaign\r\n     */\r\n    function addReward(Rewards memory newRewardData) external override isNotDeleted() onlyManager() checkStatus(status, WorkflowStatus.CampaignDrafted) {\r\n        _setCampaignReward(rewardsCounter, newRewardData);\r\n        rewardsCounter++;\r\n        emit CampaignNewRewardsAdded(rewardsCounter);\r\n    }\r\n\r\n    /**\r\n     * @inheritdoc ICampaign\r\n     */\r\n    function updateReward(Rewards memory newRewardData, uint rewardIndex) external override isNotDeleted() onlyManager() checkStatus(status, WorkflowStatus.CampaignDrafted) {\r\n        require(rewardIndex <= rewardsCounter, \"!Err: Index not exist\");\r\n        _setCampaignReward(rewardIndex, newRewardData);\r\n        emit CampaignRewardsUpdated();\r\n    }\r\n\r\n    /**\r\n    * @notice Internal function that set a new campaign's info and making data validation first.\r\n    * @param data Info Object that contains the Info data following the Info struct\r\n    */\r\n    function _setCampaignInfo(Info memory data) private {\r\n        require(bytes(data.title).length > 0, \"!Err: Title empty\");\r\n        require(bytes(data.description).length > 0, \"!Err: Description empty\");\r\n        require(data.fundingGoal >= 10000, \"!Err: Funding Goal not enough\");\r\n        require(createAt + 7 days <= data.deadlineDate, \"!Err: deadlineDate to short\");\r\n        campaignInfo.title = data.title;\r\n        campaignInfo.description = data.description;\r\n        campaignInfo.fundingGoal = data.fundingGoal;\r\n        campaignInfo.deadlineDate = data.deadlineDate;\r\n    }\r\n\r\n    /**\r\n     * @notice Internal function that set a new campaign's reward level and making data validation first.\r\n     * @param index uint Index of the reward to add\r\n     * @param data Rewards Object that contains the Reward data following the Rewards struct\r\n     */\r\n    function _setCampaignReward(uint index, Rewards memory data) private {\r\n        require(bytes(data.title).length > 0, \"!Err: Title empty\");\r\n        require(bytes(data.description).length > 0, \"!Err: Description empty\");\r\n        Rewards memory r;\r\n        r.title = data.title;\r\n        r.description = data.description;\r\n        r.minimumContribution = data.minimumContribution;\r\n        r.stockLimit = data.stockLimit;\r\n        r.nbContributors = data.nbContributors;\r\n        r.isStockLimited = data.isStockLimited;\r\n        rewardsList[index] = r;\r\n    }\r\n\r\n    /**\r\n     * @inheritdoc ICampaign\r\n     */\r\n    function deleteCampaign() public override isNotDeleted() onlyManager() {\r\n        require(status == WorkflowStatus.CampaignDrafted || status == WorkflowStatus.FundingFailed || status == WorkflowStatus.CampaignCompleted, \"!Err : Wrong workflow status\");\r\n        status = WorkflowStatus.CampaignDeleted;\r\n        ICampaignFactory(factory).deleteCampaign();\r\n        emit CampaignDisabled();\r\n    }\r\n\r\n    /**\r\n     * @inheritdoc ICampaign\r\n     */\r\n    function deleteReward(uint256 rewardIndex) external override isNotDeleted() onlyManager() checkStatus(status, WorkflowStatus.CampaignDrafted) {\r\n        require(rewardIndex < rewardsCounter, \"!Err: Index not exist\");\r\n        if((rewardsCounter-1)!=rewardIndex){\r\n            rewardsList[rewardIndex] = rewardsList[rewardsCounter-1];\r\n        }\r\n        delete rewardsList[rewardsCounter-1];\r\n        rewardsCounter--;\r\n        emit CampaignRewardDeleted();\r\n    }\r\n\r\n    /**\r\n     * @inheritdoc ICampaign\r\n     */\r\n    function updateManager(address newManager) external override onlyManager() {\r\n        manager = newManager;\r\n    }\r\n\r\n    /**\r\n     * @inheritdoc ICampaign\r\n     */\r\n    function publishCampaign() external override isNotDeleted() onlyManager() checkStatus(status, WorkflowStatus.CampaignDrafted) {\r\n        uint minDate = campaignInfo.deadlineDate - 7 days;\r\n        require(minDate >= block.timestamp, \"!Err: deadlineDate to short\");\r\n        status = WorkflowStatus.CampaignPublished;\r\n        emit WorkflowStatusChange(WorkflowStatus.CampaignDrafted, WorkflowStatus.CampaignPublished);\r\n    }\r\n}\r\n",
  "sourcePath": "/Users/Xutyr/Documents/Lab/SparkUp/contracts/Campaign.sol",
  "compiler": {
    "name": "solc",
    "version": "0.8.6+commit.11564f7e.Emscripten.clang"
  },
  "schemaVersion": "3.4.1",
  "updatedAt": "2021-07-28T10:29:54.511Z",
  "devdoc": {
    "kind": "dev",
    "methods": {
      "addReward((string,string,uint256,uint256,uint256,uint256,bool))": {
        "details": "Only the manager must be able to call it.",
        "params": {
          "newRewardData": "Rewards Object that contains all the needed information following the Rewards struct for the campaign"
        }
      },
      "deleteCampaign()": {
        "details": "It's the entry point for deleting a campaign. Only the manager must be able to call it"
      },
      "deleteReward(uint256)": {
        "details": "Only the manager must be able to call it.",
        "params": {
          "rewardIndex": "uint256 Index of the reward to delete"
        }
      },
      "updateCampaign((string,string,uint256,uint256))": {
        "details": "Only the manager must be able to call it.",
        "params": {
          "updatedInfoData": "Info Object that contains all the new information following the Info struct for the campaign"
        }
      },
      "updateManager(address)": {
        "details": "Only the manager must be able to call it.",
        "params": {
          "newManager": "address Address of the new manager"
        }
      },
      "updateReward((string,string,uint256,uint256,uint256,uint256,bool),uint256)": {
        "details": "Only the manager must be able to call it.",
        "params": {
          "newRewardData": "Rewards Object that contains the new data to set following the Rewards struct for the campaign",
          "rewardIndex": "uint256 Index of the reward to update"
        }
      }
    },
    "version": 1
  },
  "userdoc": {
    "kind": "user",
    "methods": {
      "addReward((string,string,uint256,uint256,uint256,uint256,bool))": {
        "notice": "Add a new reward level to the campaign."
      },
      "deleteCampaign()": {
        "notice": "Delete the campaign."
      },
      "deleteReward(uint256)": {
        "notice": "Delete a reward by its Id."
      },
      "getCampaignInfo()": {
        "notice": "Returns the campaign information in the struct Info plus de createAt and the managerAddress."
      },
      "updateCampaign((string,string,uint256,uint256))": {
        "notice": "Update the campaign information in the struct Info."
      },
      "updateManager(address)": {
        "notice": "Allow the manager to setup a new one."
      },
      "updateReward((string,string,uint256,uint256,uint256,uint256,bool),uint256)": {
        "notice": "Update the data of a specific reward regarding its id."
      }
    },
    "version": 1
  }
}