{
  "contractName": "CampaignFactory",
  "abi": [
    {
      "inputs": [
        {
          "internalType": "address",
          "name": "_usdcToken",
          "type": "address"
        },
        {
          "internalType": "address",
          "name": "_escrowContract",
          "type": "address"
        }
      ],
      "stateMutability": "nonpayable",
      "type": "constructor"
    },
    {
      "anonymous": false,
      "inputs": [
        {
          "indexed": false,
          "internalType": "address",
          "name": "campaignAddress",
          "type": "address"
        }
      ],
      "name": "newCampaign",
      "type": "event"
    },
    {
      "inputs": [
        {
          "internalType": "address",
          "name": "",
          "type": "address"
        }
      ],
      "name": "contractExist",
      "outputs": [
        {
          "internalType": "bool",
          "name": "",
          "type": "bool"
        }
      ],
      "stateMutability": "view",
      "type": "function",
      "constant": true
    },
    {
      "inputs": [
        {
          "internalType": "address",
          "name": "",
          "type": "address"
        }
      ],
      "name": "contractIndex",
      "outputs": [
        {
          "internalType": "uint256",
          "name": "",
          "type": "uint256"
        }
      ],
      "stateMutability": "view",
      "type": "function",
      "constant": true
    },
    {
      "inputs": [
        {
          "internalType": "uint256",
          "name": "",
          "type": "uint256"
        }
      ],
      "name": "deployedCampaigns",
      "outputs": [
        {
          "internalType": "contract ICampaign",
          "name": "",
          "type": "address"
        }
      ],
      "stateMutability": "view",
      "type": "function",
      "constant": true
    },
    {
      "inputs": [],
      "name": "escrowContract",
      "outputs": [
        {
          "internalType": "address",
          "name": "",
          "type": "address"
        }
      ],
      "stateMutability": "view",
      "type": "function",
      "constant": true
    },
    {
      "inputs": [],
      "name": "owner",
      "outputs": [
        {
          "internalType": "address",
          "name": "",
          "type": "address"
        }
      ],
      "stateMutability": "view",
      "type": "function",
      "constant": true
    },
    {
      "inputs": [],
      "name": "usdcToken",
      "outputs": [
        {
          "internalType": "contract IERC20",
          "name": "",
          "type": "address"
        }
      ],
      "stateMutability": "view",
      "type": "function",
      "constant": true
    },
    {
      "inputs": [
        {
          "components": [
            {
              "internalType": "string",
              "name": "title",
              "type": "string"
            },
            {
              "internalType": "string",
              "name": "description",
              "type": "string"
            },
            {
              "internalType": "uint256",
              "name": "fundingGoal",
              "type": "uint256"
            },
            {
              "internalType": "uint256",
              "name": "deadlineDate",
              "type": "uint256"
            }
          ],
          "internalType": "struct ICampaign.Info",
          "name": "infoData",
          "type": "tuple"
        },
        {
          "components": [
            {
              "internalType": "string",
              "name": "title",
              "type": "string"
            },
            {
              "internalType": "string",
              "name": "description",
              "type": "string"
            },
            {
              "internalType": "uint256",
              "name": "minimumContribution",
              "type": "uint256"
            },
            {
              "internalType": "uint256",
              "name": "amount",
              "type": "uint256"
            },
            {
              "internalType": "uint256",
              "name": "stockLimit",
              "type": "uint256"
            },
            {
              "internalType": "uint256",
              "name": "nbContributors",
              "type": "uint256"
            },
            {
              "internalType": "bool",
              "name": "isStockLimited",
              "type": "bool"
            }
          ],
          "internalType": "struct ICampaign.Rewards[]",
          "name": "rewardsData",
          "type": "tuple[]"
        }
      ],
      "name": "createCampaign",
      "outputs": [],
      "stateMutability": "nonpayable",
      "type": "function"
    },
    {
      "inputs": [],
      "name": "deleteCampaign",
      "outputs": [
        {
          "internalType": "bool",
          "name": "",
          "type": "bool"
        }
      ],
      "stateMutability": "nonpayable",
      "type": "function"
    },
    {
      "inputs": [
        {
          "internalType": "address",
          "name": "newOwner",
          "type": "address"
        }
      ],
      "name": "updateOwner",
      "outputs": [],
      "stateMutability": "nonpayable",
      "type": "function"
    },
    {
      "inputs": [],
      "name": "getDeployedCampaignsList",
      "outputs": [
        {
          "internalType": "contract ICampaign[]",
          "name": "",
          "type": "address[]"
        }
      ],
      "stateMutability": "view",
      "type": "function",
      "constant": true
    }
  ],
  "bytecode": "0x60c060405234801561001057600080fd5b50604051614e48380380614e4883398101604081905261002f9161007b565b600080546001600160a01b031916331790556001600160601b0319606092831b8116608052911b1660a0526100ae565b80516001600160a01b038116811461007657600080fd5b919050565b6000806040838503121561008e57600080fd5b6100978361005f565b91506100a56020840161005f565b90509250929050565b60805160601c60a05160601c614d626100e6600039600081816101e2015261046501526000818160b601526104440152614d626000f3fe60806040523480156200001157600080fd5b5060043610620000ab5760003560e01c80638da5cb5b116200006e5780638da5cb5b14620001725780638f3cf6da1462000186578063a6e1a41a14620001ac578063bfbaebb714620001c3578063e42a96e714620001dc57600080fd5b806311eac85514620000b0578063244c3c2c14620000f5578063339d50a514620001105780634cfb222d1462000127578063880cdc311462000159575b600080fd5b620000d87f000000000000000000000000000000000000000000000000000000000000000081565b6040516001600160a01b0390911681526020015b60405180910390f35b620000ff62000204565b6040519015158152602001620000ec565b620000d862000121366004620008ef565b620003a2565b6200014a62000138366004620007e3565b60026020526000908152604090205481565b604051908152602001620000ec565b620001706200016a366004620007e3565b620003cd565b005b600054620000d8906001600160a01b031681565b620000ff62000197366004620007e3565b60036020526000908152604090205460ff1681565b62000170620001bd36600462000815565b6200043d565b620001cd6200057d565b604051620000ec919062000959565b620000d87f000000000000000000000000000000000000000000000000000000000000000081565b3360009081526003602052604081205460ff166200025b5760405162461bcd60e51b815260206004820152600f60248201526e08515c9c8e88139bdd08195e1a5cdd608a1b60448201526064015b60405180910390fd5b3360009081526002602052604090205462000275620005e1565b81146200034257600162000288620005e1565b815481106200029b576200029b62000bbd565b600091825260209091200154600180546001600160a01b039092169183908110620002ca57620002ca62000bbd565b9060005260206000200160006101000a8154816001600160a01b0302191690836001600160a01b031602179055508060026000600162000309620005e1565b815481106200031c576200031c62000bbd565b60009182526020808320909101546001600160a01b031683528201929092526040019020555b600180548062000356576200035662000ba7565b60008281526020808220830160001990810180546001600160a01b031916905590920190925533825260028152604080832083905560039091529020805460ff19169055506001919050565b60018181548110620003b357600080fd5b6000918252602090912001546001600160a01b0316905081565b6000546001600160a01b031633146200041b5760405162461bcd60e51b815260206004820152600f60248201526e08539bdd08105d5d1a1bdc9a5e9959608a1b604482015260640162000252565b600080546001600160a01b0319166001600160a01b0392909216919091179055565b60008282337f00000000000000000000000000000000000000000000000000000000000000007f00000000000000000000000000000000000000000000000000000000000000006040516200049290620005f8565b620004a2959493929190620009a8565b604051809103906000f080158015620004bf573d6000803e3d6000fd5b506001805480820182556000919091527fb10e2d527612073b26eecdfd717e6a320cf44b4afac2b0732d9fcbe2b7fa0cf60180546001600160a01b0319166001600160a01b038316179055905062000516620005e1565b6001600160a01b0382166000818152600260209081526040808320949094556003815290839020805460ff1916600117905591519081527f09a1a4cb701177eec460d8994ed3511517fa65b744806ed07f974f87d433b679910160405180910390a1505050565b60606001805480602002602001604051908101604052809291908181526020018280548015620005d757602002820191906000526020600020905b81546001600160a01b03168152600190910190602001808311620005b8575b5050505050905090565b60018054600091620005f39162000b81565b905090565b6141438062000bea83390190565b600082601f8301126200061857600080fd5b8135602067ffffffffffffffff8083111562000638576200063862000bd3565b8260051b6200064983820162000b4d565b8481528381019087850183890186018a10156200066557600080fd5b600093505b8684101562000749578035858111156200068357600080fd5b890160e0818c03601f19018113156200069b57600080fd5b620006a562000afb565b8883013588811115620006b757600080fd5b620006c78e8b838701016200076c565b82525060408084013589811115620006de57600080fd5b620006ee8f8c838801016200076c565b8b84015250606080850135828401526080915081850135818401525060a0808501358284015260c091508185013581840152506200072e83850162000756565b9082015285525050600193909301929185019185016200066a565b5098975050505050505050565b803580151581146200076757600080fd5b919050565b600082601f8301126200077e57600080fd5b813567ffffffffffffffff8111156200079b576200079b62000bd3565b620007b0601f8201601f191660200162000b4d565b818152846020838601011115620007c657600080fd5b816020850160208301376000918101602001919091529392505050565b600060208284031215620007f657600080fd5b81356001600160a01b03811681146200080e57600080fd5b9392505050565b600080604083850312156200082957600080fd5b823567ffffffffffffffff808211156200084257600080fd5b90840190608082870312156200085757600080fd5b6200086162000b27565b8235828111156200087157600080fd5b6200087f888286016200076c565b8252506020830135828111156200089557600080fd5b620008a3888286016200076c565b6020830152506040830135604082015260608301356060820152809450506020850135915080821115620008d657600080fd5b50620008e58582860162000606565b9150509250929050565b6000602082840312156200090257600080fd5b5035919050565b6000815180845260005b81811015620009315760208185018101518683018201520162000913565b8181111562000944576000602083870101525b50601f01601f19169290920160200192915050565b6020808252825182820181905260009190848201906040850190845b818110156200099c5783516001600160a01b03168352928401929184019160010162000975565b50909695505050505050565b60a0815260008651608060a0840152620009c761012084018262000909565b905060208089015160c0609f198685030181870152620009e8848362000909565b935060409150818b015160e0818189015260609150818d015161010089015287860385890152858c518088528688019150868160051b890101878f0160005b8381101562000aac578a8303601f190185528151805187855262000a4e8886018262000909565b90508b8201518582038d87015262000a67828262000909565b838d0151878e01528a8401518b8801526080808501519088015260a08085015190880152928b01511515958b019590955250948a019492509089019060010162000a27565b50506001600160a01b038e168b880152985062000ac892505050565b6001600160a01b03891687820152505050505062000af160808301846001600160a01b03169052565b9695505050505050565b60405160e0810167ffffffffffffffff8111828210171562000b215762000b2162000bd3565b60405290565b6040516080810167ffffffffffffffff8111828210171562000b215762000b2162000bd3565b604051601f8201601f1916810167ffffffffffffffff8111828210171562000b795762000b7962000bd3565b604052919050565b60008282101562000ba257634e487b7160e01b600052601160045260246000fd5b500390565b634e487b7160e01b600052603160045260246000fd5b634e487b7160e01b600052603260045260246000fd5b634e487b7160e01b600052604160045260246000fdfe60c06040523480156200001157600080fd5b5060405162004143380380620041438339810160408190526200003491620007b0565b60008451116200008b5760405162461bcd60e51b815260206004820152601360248201527f214572723a205265776172647320656d7074790000000000000000000000000060448201526064015b60405180910390fd5b600a84511115620000df5760405162461bcd60e51b815260206004820152601660248201527f214572723a20546f6f206d756368205265776172647300000000000000000000604482015260640162000082565b600380546001600160a01b0385166001600160a01b0319918216179091556004805490911633179055426002556005805460ff60a01b191690556001600160601b0319606083811b821660805282901b1660a0526200013e85620001b8565b60005b84518160ff1610156200019757620001828160ff16868360ff16815181106200016e576200016e620009d5565b60200260200101516200035e60201b60201c565b806200018e816200099c565b91505062000141565b505091516000805460ff191660ff9092169190911790555062000a01915050565b805151620001fd5760405162461bcd60e51b8152602060048201526011602482015270214572723a205469746c6520656d70747960781b604482015260640162000082565b600081602001515111620002545760405162461bcd60e51b815260206004820152601760248201527f214572723a204465736372697074696f6e20656d707479000000000000000000604482015260640162000082565b69021e19e0c9bab240000081604001511015620002b45760405162461bcd60e51b815260206004820152601d60248201527f214572723a2046756e64696e6720476f616c206e6f7420656e6f756768000000604482015260640162000082565b6060810151600254620002cb9062093a8062000944565b11156200031b5760405162461bcd60e51b815260206004820152601b60248201527f214572723a20646561646c696e654461746520746f2073686f72740000000000604482015260640162000082565b805180516200033391600691602090910190620004f8565b5060208082015180516200034c926007920190620004f8565b50604081015160085560600151600955565b805151620003a35760405162461bcd60e51b8152602060048201526011602482015270214572723a205469746c6520656d70747960781b604482015260640162000082565b600081602001515111620003fa5760405162461bcd60e51b815260206004820152601760248201527f214572723a204465736372697074696f6e20656d707479000000000000000000604482015260640162000082565b6200043d6040518060e001604052806060815260200160608152602001600081526020016000815260200160008152602001600081526020016000151581525090565b8151815260208083015181830152604080840151818401526080808501519084015260a0808501519084015260c0808501511515908401526000858152600a83522082518051849362000495928492910190620004f8565b506020828101518051620004b09260018501920190620004f8565b5060408201516002820155606082015160038201556080820151600482015560a0820151600582015560c0909101516006909101805460ff1916911515919091179055505050565b82805462000506906200095f565b90600052602060002090601f0160209004810192826200052a576000855562000575565b82601f106200054557805160ff191683800117855562000575565b8280016001018555821562000575579182015b828111156200057557825182559160200191906001019062000558565b506200058392915062000587565b5090565b5b8082111562000583576000815560010162000588565b80516001600160a01b0381168114620005b657600080fd5b919050565b600082601f830112620005cd57600080fd5b815160206001600160401b0380831115620005ec57620005ec620009eb565b8260051b620005fd83820162000911565b8481528381019087850183890186018a10156200061957600080fd5b600093505b86841015620006fd578051858111156200063757600080fd5b890160e0818c03601f19018113156200064f57600080fd5b62000659620008c1565b88830151888111156200066b57600080fd5b6200067b8e8b838701016200071b565b825250604080840151898111156200069257600080fd5b620006a28f8c838801016200071b565b8b84015250606080850151828401526080915081850151818401525060a0808501518284015260c09150818501518184015250620006e28385016200070a565b9082015285525050600193909301929185019185016200061e565b5098975050505050505050565b80518015158114620005b657600080fd5b600082601f8301126200072d57600080fd5b81516001600160401b03811115620007495762000749620009eb565b60206200075f601f8301601f1916820162000911565b82815285828487010111156200077457600080fd5b60005b838110156200079457858101830151828201840152820162000777565b83811115620007a65760008385840101525b5095945050505050565b600080600080600060a08688031215620007c957600080fd5b85516001600160401b0380821115620007e157600080fd5b908701906080828a031215620007f657600080fd5b62000800620008ec565b8251828111156200081057600080fd5b6200081e8b8286016200071b565b8252506020830151828111156200083457600080fd5b620008428b8286016200071b565b60208301525060408301516040820152606083015160608201528097505060208801519150808211156200087557600080fd5b506200088488828901620005bb565b94505062000895604087016200059e565b9250620008a5606087016200059e565b9150620008b5608087016200059e565b90509295509295909350565b60405160e081016001600160401b0381118282101715620008e657620008e6620009eb565b60405290565b604051608081016001600160401b0381118282101715620008e657620008e6620009eb565b604051601f8201601f191681016001600160401b03811182821017156200093c576200093c620009eb565b604052919050565b600082198211156200095a576200095a620009bf565b500190565b600181811c908216806200097457607f821691505b602082108114156200099657634e487b7160e01b600052602260045260246000fd5b50919050565b600060ff821660ff811415620009b657620009b6620009bf565b60010192915050565b634e487b7160e01b600052601160045260246000fd5b634e487b7160e01b600052603260045260246000fd5b634e487b7160e01b600052604160045260246000fd5b60805160601c60a05160601c6136f362000a50600039600081816103a901526106630152600081816101a8015281816103fa015281816106a801528181610bfc015261101401526136f36000f3fe60806040523480156200001157600080fd5b5060043610620001745760003560e01c80636bdca7d511620000d3578063c5c4744c1162000086578063c5c4744c146200034e578063cc2e554a1462000358578063d355f006146200036f578063d6290cd71462000386578063e42a96e714620003a3578063e7cf1ab714620003cb57600080fd5b80636bdca7d514620002b8578063753ec10314620002e65780637ef59f8414620002fa578063bd39e0151462000304578063bf1d4cad1462000330578063c45a0155146200033a57600080fd5b8063287af432116200012c578063287af432146200023257806337acecce1462000255578063481c6a75146200026c57806356212d59146200028057806358aba00f1462000297578063590e1ae314620002ae57600080fd5b80622772c214620001795780630d4c4a2f146200019657806311eac85514620001a2578063200d2ed214620001e3578063205b09141462000207578063244c3c2c1462000228575b600080fd5b62000183620003e2565b6040519081526020015b60405180910390f35b620001a062000485565b005b620001ca7f000000000000000000000000000000000000000000000000000000000000000081565b6040516001600160a01b0390911681526020016200018d565b600554620001f890600160a01b900460ff1681565b6040516200018d919062002285565b600054620002159060ff1681565b60405160ff90911681526020016200018d565b620001a0620006d5565b620001836200024336600462002000565b600c6020526000908152604090205481565b620001a0620002663660046200203e565b62000876565b600354620001ca906001600160a01b031681565b620001a06200029136600462002132565b62000936565b620001a0620002a836600462002000565b62000a4c565b620001a062000a9b565b62000183620002c9366004620021af565b600b60209081526000928352604080842090915290825290205481565b600554620001ca906001600160a01b031681565b620001a062000c2c565b6200031b620003153660046200217b565b62000d63565b6040516200018d9796959493929190620022aa565b6200018360025481565b600454620001ca906001600160a01b031681565b6200018360015481565b620001a062000369366004620021de565b62000ec1565b620001a062000380366004620020f1565b62001145565b620003906200123e565b6040516200018d95949392919062002390565b620001ca7f000000000000000000000000000000000000000000000000000000000000000081565b620001a0620003dc3660046200217b565b6200143f565b6040516370a0823160e01b81523060048201526000907f00000000000000000000000000000000000000000000000000000000000000006001600160a01b0316906370a082319060240160206040518083038186803b1580156200044557600080fd5b505afa1580156200045a573d6000803e3d6000fd5b505050506040513d601f19601f8201168201806040525081019062000480919062002195565b905090565b6003546001600160a01b03163314620004bb5760405162461bcd60e51b8152600401620004b29062002300565b60405180910390fd5b6005808054600160a01b900460ff1690811115620004dd57620004dd620025d4565b1415620004fe5760405162461bcd60e51b8152600401620004b29062002360565b600554600160a01b900460ff16600280826005811115620005235762000523620025d4565b14620005435760405162461bcd60e51b8152600401620004b29062002329565b6005546001600160a01b03166200059d5760405162461bcd60e51b815260206004820152601f60248201527f214572723a2070726f706f73616c20616c7265616479206465706c6f796564006044820152606401620004b2565b6009544211620005fc5760405162461bcd60e51b8152602060048201526024808201527f214572723a2063616d70676169676e2064656164616c696e65206e6f742070616044820152631cdcd95960e21b6064820152608401620004b2565b6000306040516200060d9062001d17565b6001600160a01b039091168152602001604051809103906000f0801580156200063a573d6000803e3d6000fd5b50600580546001600160a01b0319166001600160a01b038316178155600154919250620006d0917f0000000000000000000000000000000000000000000000000000000000000000916200069e91606491620006979190620016ad565b90620016c4565b6001600160a01b037f0000000000000000000000000000000000000000000000000000000000000000169190620016d2565b505050565b6005808054600160a01b900460ff1690811115620006f757620006f7620025d4565b1415620007185760405162461bcd60e51b8152600401620004b29062002360565b6003546001600160a01b03163314620007455760405162461bcd60e51b8152600401620004b29062002300565b600060058054600160a01b900460ff1690811115620007685762000768620025d4565b1480620007955750600360058054600160a01b900460ff1690811115620007935762000793620025d4565b145b80620007c15750600460058054600160a01b900460ff1690811115620007bf57620007bf620025d4565b145b620007e05760405162461bcd60e51b8152600401620004b29062002329565b6005805460ff60a01b1916600560a01b17905560048054604080516309130f0b60e21b815290516001600160a01b039092169263244c3c2c9282820192602092908290030181600087803b1580156200083857600080fd5b505af11580156200084d573d6000803e3d6000fd5b505050506040513d601f19601f820116820180604052508101906200087391906200201e565b50565b6005808054600160a01b900460ff1690811115620008985762000898620025d4565b1415620008b95760405162461bcd60e51b8152600401620004b29062002360565b6003546001600160a01b03163314620008e65760405162461bcd60e51b8152600401620004b29062002300565b600554600160a01b900460ff166000808260058111156200090b576200090b620025d4565b146200092b5760405162461bcd60e51b8152600401620004b29062002329565b620006d08362001737565b6005808054600160a01b900460ff1690811115620009585762000958620025d4565b1415620009795760405162461bcd60e51b8152600401620004b29062002360565b6003546001600160a01b03163314620009a65760405162461bcd60e51b8152600401620004b29062002300565b600554600160a01b900460ff16600080826005811115620009cb57620009cb620025d4565b14620009eb5760405162461bcd60e51b8152600401620004b29062002329565b60005460ff1683111562000a3a5760405162461bcd60e51b815260206004820152601560248201527408515c9c8e88125b99195e081b9bdd08195e1a5cdd605a1b6044820152606401620004b2565b62000a468385620018d7565b50505050565b6003546001600160a01b0316331462000a795760405162461bcd60e51b8152600401620004b29062002300565b600380546001600160a01b0319166001600160a01b0392909216919091179055565b6009544211801562000ab65750600062000ab4620003e2565b115b62000b045760405162461bcd60e51b815260206004820152601860248201527f214572723a20636f6e646974696f6e73206e6f74206d657400000000000000006044820152606401620004b2565b600160058054600160a01b900460ff169081111562000b275762000b27620025d4565b148062000b545750600360058054600160a01b900460ff169081111562000b525762000b52620025d4565b145b62000ba25760405162461bcd60e51b815260206004820152601a60248201527f214572723a2077726f6e6720776f726b666c6f777374617475730000000000006044820152606401620004b2565b600160058054600160a01b900460ff169081111562000bc55762000bc5620025d4565b141562000be0576005805460ff60a01b1916600360a01b1790555b336000818152600c6020526040812080549190559062000873907f00000000000000000000000000000000000000000000000000000000000000006001600160a01b03169083620016d2565b6005808054600160a01b900460ff169081111562000c4e5762000c4e620025d4565b141562000c6f5760405162461bcd60e51b8152600401620004b29062002360565b6003546001600160a01b0316331462000c9c5760405162461bcd60e51b8152600401620004b29062002300565b600554600160a01b900460ff1660008082600581111562000cc15762000cc1620025d4565b1462000ce15760405162461bcd60e51b8152600401620004b29062002329565b60095460009062000cf79062093a8090620024cf565b90504281101562000d4b5760405162461bcd60e51b815260206004820152601b60248201527f214572723a20646561646c696e654461746520746f2073686f727400000000006044820152606401620004b2565b50506005805460ff60a01b1916600160a01b17905550565b600a6020526000908152604090208054819062000d80906200255e565b80601f016020809104026020016040519081016040528092919081815260200182805462000dae906200255e565b801562000dff5780601f1062000dd35761010080835404028352916020019162000dff565b820191906000526020600020905b81548152906001019060200180831162000de157829003601f168201915b50505050509080600101805462000e16906200255e565b80601f016020809104026020016040519081016040528092919081815260200182805462000e44906200255e565b801562000e955780601f1062000e695761010080835404028352916020019162000e95565b820191906000526020600020905b81548152906001019060200180831162000e7757829003601f168201915b505050600284015460038501546004860154600587015460069097015495969295919450925060ff1687565b6005808054600160a01b900460ff169081111562000ee35762000ee3620025d4565b141562000f045760405162461bcd60e51b8152600401620004b29062002360565b600954421062000f665760405162461bcd60e51b815260206004820152602660248201527f21457272203a2043616d706169676e20636f6e747269627574696f6e2068617360448201526508195b99195960d21b6064820152608401620004b2565b600060058054600160a01b900460ff169081111562000f895762000f89620025d4565b1415801562000fb95750600360058054600160a01b900460ff169081111562000fb65762000fb6620025d4565b14155b801562000fe75750600460058054600160a01b900460ff169081111562000fe45762000fe4620025d4565b14155b620010065760405162461bcd60e51b8152600401620004b29062002329565b6200103d6001600160a01b037f00000000000000000000000000000000000000000000000000000000000000001633308562001a6b565b336000908152600c602052604090205462001059908362001aa5565b336000818152600c602090815260408083209490945560ff85168252600b81528382209282529190915220546200109290600162001aa5565b60ff82166000818152600b60209081526040808320338452825280832094909455918152600a9091522060050154620010cd90600162001aa5565b60ff82166000908152600a60205260409020600581019190915560030154620010f7908362001aa5565b60ff82166000908152600a60205260409020600301556008546200111a620003e2565b1062001141576005805460ff60a01b1916600160a11b1790556200113d620003e2565b6001555b5050565b6005808054600160a01b900460ff1690811115620011675762001167620025d4565b1415620011885760405162461bcd60e51b8152600401620004b29062002360565b6003546001600160a01b03163314620011b55760405162461bcd60e51b8152600401620004b29062002300565b600554600160a01b900460ff16600080826005811115620011da57620011da620025d4565b14620011fa5760405162461bcd60e51b8152600401620004b29062002329565b6000546200120c9060ff1684620018d7565b6000805460ff16908062001220836200259b565b91906101000a81548160ff021916908360ff16021790555050505050565b6200126a6040518060800160405280606081526020016060815260200160008152602001600081525090565b60008080806005808054600160a01b900460ff1690811115620012915762001291620025d4565b1415620012b25760405162461bcd60e51b8152600401620004b29062002360565b6002546003546005546001546040805160808101909152600680549095946001600160a01b031693600160a01b900460ff16929190869082908290620012f8906200255e565b80601f016020809104026020016040519081016040528092919081815260200182805462001326906200255e565b8015620013775780601f106200134b5761010080835404028352916020019162001377565b820191906000526020600020905b8154815290600101906020018083116200135957829003601f168201915b5050505050815260200160018201805462001392906200255e565b80601f0160208091040260200160405190810160405280929190818152602001828054620013c0906200255e565b8015620014115780601f10620013e55761010080835404028352916020019162001411565b820191906000526020600020905b815481529060010190602001808311620013f357829003601f168201915b5050509183525050600282015460208201526003909101546040909101529a93995091975095509350915050565b6005808054600160a01b900460ff1690811115620014615762001461620025d4565b1415620014825760405162461bcd60e51b8152600401620004b29062002360565b6003546001600160a01b03163314620014af5760405162461bcd60e51b8152600401620004b29062002300565b600554600160a01b900460ff16600080826005811115620014d457620014d4620025d4565b14620014f45760405162461bcd60e51b8152600401620004b29062002329565b60005460ff168310620015425760405162461bcd60e51b815260206004820152601560248201527408515c9c8e88125b99195e081b9bdd08195e1a5cdd605a1b6044820152606401620004b2565b6000548390620015589060019060ff16620024e9565b60ff1614620016225760008054600a91906200157a9060019060ff16620024e9565b60ff16815260208082019290925260409081016000908120868252600a90935220815481908390620015ac906200255e565b620015b992919062001d25565b506001820181600101908054620015d0906200255e565b620015dd92919062001d25565b50600282810154908201556003808301549082015560048083015490820155600580830154908201556006918201549101805460ff191660ff90921615159190911790555b60008054600a91906200163b9060019060ff16620024e9565b60ff168152602001908152602001600020600080820160006200165f919062001dbb565b6200166f60018301600062001dbb565b506000600282018190556003820181905560048201819055600582018190556006909101805460ff19169055805460ff16908062001220836200253e565b6000620016bb8284620024ad565b90505b92915050565b6000620016bb82846200248a565b6040516001600160a01b038316602482015260448101829052620006d090849063a9059cbb60e01b906064015b60408051601f198184030181529190526020810180516001600160e01b03166001600160e01b03199093169290921790915262001ab3565b8051516200177c5760405162461bcd60e51b8152602060048201526011602482015270214572723a205469746c6520656d70747960781b6044820152606401620004b2565b600081602001515111620017cd5760405162461bcd60e51b8152602060048201526017602482015276214572723a204465736372697074696f6e20656d70747960481b6044820152606401620004b2565b69021e19e0c9bab2400000816040015110156200182d5760405162461bcd60e51b815260206004820152601d60248201527f214572723a2046756e64696e6720476f616c206e6f7420656e6f7567680000006044820152606401620004b2565b6060810151600254620018449062093a806200246f565b1115620018945760405162461bcd60e51b815260206004820152601b60248201527f214572723a20646561646c696e654461746520746f2073686f727400000000006044820152606401620004b2565b80518051620018ac9160069160209091019062001dfa565b506020808201518051620018c592600792019062001dfa565b50604081015160085560600151600955565b8051516200191c5760405162461bcd60e51b8152602060048201526011602482015270214572723a205469746c6520656d70747960781b6044820152606401620004b2565b6000816020015151116200196d5760405162461bcd60e51b8152602060048201526017602482015276214572723a204465736372697074696f6e20656d70747960481b6044820152606401620004b2565b620019b06040518060e001604052806060815260200160608152602001600081526020016000815260200160008152602001600081526020016000151581525090565b8151815260208083015181830152604080840151818401526080808501519084015260a0808501519084015260c0808501511515908401526000858152600a83522082518051849362001a0892849291019062001dfa565b50602082810151805162001a23926001850192019062001dfa565b5060408201516002820155606082015160038201556080820151600482015560a0820151600582015560c0909101516006909101805460ff1916911515919091179055505050565b6040516001600160a01b038085166024830152831660448201526064810182905262000a469085906323b872dd60e01b90608401620016ff565b6000620016bb82846200246f565b600062001b0a826040518060400160405280602081526020017f5361666545524332303a206c6f772d6c6576656c2063616c6c206661696c6564815250856001600160a01b031662001b8c9092919063ffffffff16565b805190915015620006d0578080602001905181019062001b2b91906200201e565b620006d05760405162461bcd60e51b815260206004820152602a60248201527f5361666545524332303a204552433230206f7065726174696f6e20646964206e6044820152691bdd081cdd58d8d9595960b21b6064820152608401620004b2565b606062001b9d848460008562001ba7565b90505b9392505050565b60608247101562001c0a5760405162461bcd60e51b815260206004820152602660248201527f416464726573733a20696e73756666696369656e742062616c616e636520666f6044820152651c8818d85b1b60d21b6064820152608401620004b2565b843b62001c5a5760405162461bcd60e51b815260206004820152601d60248201527f416464726573733a2063616c6c20746f206e6f6e2d636f6e74726163740000006044820152606401620004b2565b600080866001600160a01b0316858760405162001c78919062002267565b60006040518083038185875af1925050503d806000811462001cb7576040519150601f19603f3d011682016040523d82523d6000602084013e62001cbc565b606091505b509150915062001cce82828662001cd9565b979650505050505050565b6060831562001cea57508162001ba0565b82511562001cfb5782518084602001fd5b8160405162461bcd60e51b8152600401620004b2919062002295565b6110ae806200261083390190565b82805462001d33906200255e565b90600052602060002090601f01602090048101928262001d57576000855562001da9565b82601f1062001d6a578054855562001da9565b8280016001018555821562001da957600052602060002091601f016020900482015b8281111562001da957825482559160010191906001019062001d8c565b5062001db792915062001e77565b5090565b50805462001dc9906200255e565b6000825580601f1062001dda575050565b601f01602090049060005260206000209081019062000873919062001e77565b82805462001e08906200255e565b90600052602060002090601f01602090048101928262001e2c576000855562001da9565b82601f1062001e4757805160ff191683800117855562001da9565b8280016001018555821562001da9579182015b8281111562001da957825182559160200191906001019062001e5a565b5b8082111562001db7576000815560010162001e78565b80356001600160a01b038116811462001ea657600080fd5b919050565b803562001ea68162002600565b600082601f83011262001eca57600080fd5b813567ffffffffffffffff8082111562001ee85762001ee8620025ea565b604051601f8301601f19908116603f0116810190828211818310171562001f135762001f13620025ea565b8160405283815286602085880101111562001f2d57600080fd5b836020870160208301376000602085830101528094505050505092915050565b600060e0828403121562001f6057600080fd5b62001f6a6200241d565b9050813567ffffffffffffffff8082111562001f8557600080fd5b62001f938583860162001eb8565b8352602084013591508082111562001faa57600080fd5b5062001fb98482850162001eb8565b60208301525060408201356040820152606082013560608201526080820135608082015260a082013560a082015262001ff560c0830162001eab565b60c082015292915050565b6000602082840312156200201357600080fd5b620016bb8262001e8e565b6000602082840312156200203157600080fd5b815162001ba08162002600565b6000602082840312156200205157600080fd5b813567ffffffffffffffff808211156200206a57600080fd5b90830190608082860312156200207f57600080fd5b6200208962002449565b8235828111156200209957600080fd5b620020a78782860162001eb8565b825250602083013582811115620020bd57600080fd5b620020cb8782860162001eb8565b602083015250604083013560408201526060830135606082015280935050505092915050565b6000602082840312156200210457600080fd5b813567ffffffffffffffff8111156200211c57600080fd5b6200212a8482850162001f4d565b949350505050565b600080604083850312156200214657600080fd5b823567ffffffffffffffff8111156200215e57600080fd5b6200216c8582860162001f4d565b95602094909401359450505050565b6000602082840312156200218e57600080fd5b5035919050565b600060208284031215620021a857600080fd5b5051919050565b60008060408385031215620021c357600080fd5b82359150620021d56020840162001e8e565b90509250929050565b60008060408385031215620021f257600080fd5b82359150602083013560ff811681146200220b57600080fd5b809150509250929050565b600681106200223557634e487b7160e01b600052602160045260246000fd5b9052565b60008151808452620022538160208601602086016200250f565b601f01601f19169290920160200192915050565b600082516200227b8184602087016200250f565b9190910192915050565b60208101620016be828462002216565b602081526000620016bb602083018462002239565b60e081526000620022bf60e083018a62002239565b8281036020840152620022d3818a62002239565b604084019890985250506060810194909452608084019290925260a0830152151560c09091015292915050565b6020808252600f908201526e08539bdd08105d5d1a1bdc9a5e9959608a1b604082015260600190565b6020808252601c908201527f21457272203a2057726f6e6720776f726b666c6f772073746174757300000000604082015260600190565b60208082526016908201527508515c9c8e8810d85b5c185a59db8811195b195d195960521b604082015260600190565b60a0815260008651608060a0840152620023af61012084018262002239565b90506020880151609f198483030160c0850152620023ce828262002239565b915050604088015160e084015260608801516101008401528091505085602083015260018060a01b03851660408301526200240d606083018562002216565b8260808301529695505050505050565b60405160e0810167ffffffffffffffff81118282101715620024435762002443620025ea565b60405290565b6040516080810167ffffffffffffffff81118282101715620024435762002443620025ea565b60008219821115620024855762002485620025be565b500190565b600082620024a857634e487b7160e01b600052601260045260246000fd5b500490565b6000816000190483118215151615620024ca57620024ca620025be565b500290565b600082821015620024e457620024e4620025be565b500390565b600060ff821660ff841680821015620025065762002506620025be565b90039392505050565b60005b838110156200252c57818101518382015260200162002512565b8381111562000a465750506000910152565b600060ff821680620025545762002554620025be565b6000190192915050565b600181811c908216806200257357607f821691505b602082108114156200259557634e487b7160e01b600052602260045260246000fd5b50919050565b600060ff821660ff811415620025b557620025b5620025be565b60010192915050565b634e487b7160e01b600052601160045260246000fd5b634e487b7160e01b600052602160045260246000fd5b634e487b7160e01b600052604160045260246000fd5b80151581146200087357600080fdfe60a060405234801561001057600080fd5b506040516110ae3803806110ae83398101604081905261002f916100f3565b6001600160601b0319606082901b16608052600280546001600160a01b0319166001600160a01b0383169081179091556040805163481c6a7560e01b8152905163481c6a7591600480820192602092909190829003018186803b15801561009557600080fd5b505afa1580156100a9573d6000803e3d6000fd5b505050506040513d601f19601f820116820180604052508101906100cd91906100f3565b600080546001600160a01b0319166001600160a01b039290921691909117905550610123565b60006020828403121561010557600080fd5b81516001600160a01b038116811461011c57600080fd5b9392505050565b60805160601c610f6e6101406000396000609c0152610f6e6000f3fe608060405234801561001057600080fd5b506004361061007d5760003560e01c80638259d5531161005b5780638259d553146101005780639980a55a14610113578063bcfb9b6114610126578063fb5e76e61461013957600080fd5b80630ce0ebf41461008257806311765b271461009757806381a60c0d146100db575b600080fd5b610095610090366004610d3b565b61014c565b005b6100be7f000000000000000000000000000000000000000000000000000000000000000081565b6040516001600160a01b0390911681526020015b60405180910390f35b6100ee6100e9366004610da8565b61041a565b60405160ff90911681526020016100d2565b61009561010e366004610da8565b610506565b610095610121366004610da8565b6106eb565b610095610134366004610dda565b61079f565b6000546100be906001600160a01b031681565b6000546001600160a01b0316331461017f5760405162461bcd60e51b815260040161017690610e46565b60405180910390fd5b60015460008060008381526003602052604090206006015460ff1660048111156101ab576101ab610f0c565b146101c85760405162461bcd60e51b815260040161017690610e0f565b60066001541061022b5760405162461bcd60e51b815260206004820152602860248201527f214572723a204d6178696d756d20616d6f756e74206f662070726f706f73616c604482015267081c995858da195960c21b6064820152608401610176565b60008551116102705760405162461bcd60e51b8152602060048201526011602482015270214572723a205469746c6520656d70747960781b6044820152606401610176565b60008451116102c15760405162461bcd60e51b815260206004820152601760248201527f214572723a204465736372697074696f6e20656d7074790000000000000000006044820152606401610176565b6102c9610a74565b8311156103345760405162461bcd60e51b815260206004820152603360248201527f214572723a2050726f706f73616c20616d6f756e7420657863656564732063616044820152726d706169676e20555344432062616c616e636560681b6064820152608401610176565b61033c610b07565b60018054808352602080840189815260408086018a90526060860189905260c086018590526000938452600383529092208451815591518051859461038693908501920190610b5d565b50604082015180516103a2916002840191602090910190610b5d565b50606082015181600301556080820151816004015560a0820151816005015560c08201518160060160006101000a81548160ff021916908360048111156103eb576103eb610f0c565b021790555060e091909101516007909101556001805490600061040d83610edb565b9190505550505050505050565b60008160028060008381526003602052604090206006015460ff16600481111561044657610446610f0c565b146104635760405162461bcd60e51b815260040161017690610e0f565b60008481526003602052604090206007015442116104c35760405162461bcd60e51b815260206004820152601a60248201527f214572723a20766f74696e67207374696c6c206f6e676f696e670000000000006044820152606401610176565b600084815260036020526040902060068101805460ff19166004908117909155600582015491015411156104fa57600192506104ff565b600092505b5050919050565b6000546001600160a01b031633146105305760405162461bcd60e51b815260040161017690610e46565b8060018060008381526003602052604090206006015460ff16600481111561055a5761055a610f0c565b146105775760405162461bcd60e51b815260040161017690610e0f565b600180546105859190610e89565b8314156105e8576000838152600360205260408120818155906105ab6001830182610be1565b6105b9600283016000610be1565b50600060038201819055600482018190556005820181905560068201805460ff19169055600790910155505050565b60036000600180546105fa9190610e89565b81526020808201929092526040908101600090812086825260039093522081548155600180830180549183019161063090610ea0565b61063b929190610c1e565b50600282018160020190805461065090610ea0565b61065b929190610c1e565b50600382810154908201556004808301548183015560058084015490830155600680840154908301805460ff90921692909160ff19169060019084908111156106a6576106a6610f0c565b0217905550600791820154910155600180546003916000916106c89190610e89565b815260208101919091526040016000908120818155906105ab6001830182610be1565b6000546001600160a01b031633146107155760405162461bcd60e51b815260040161017690610e46565b8060018060008381526003602052604090206006015460ff16600481111561073f5761073f610f0c565b1461075c5760405162461bcd60e51b815260040161017690610e0f565b6000838152600360205260409020600601805460ff191660021790556107854262093a80610e71565b600093845260036020526040909320600701929092555050565b8160028060008381526003602052604090206006015460ff1660048111156107c9576107c9610f0c565b146107e65760405162461bcd60e51b815260040161017690610e0f565b600084815260036020526040902060070154849042106108485760405162461bcd60e51b815260206004820152601e60248201527f214572723a2070726f7073616c20766f74696e672068617320656e64656400006044820152606401610176565b60025460405163143d7a1960e11b81523360048201526000916001600160a01b03169063287af4329060240160206040518083038186803b15801561088c57600080fd5b505afa1580156108a0573d6000803e3d6000fd5b505050506040513d601f19601f820116820180604052508101906108c49190610dc1565b116109115760405162461bcd60e51b815260206004820152601760248201527f214572723a206e6f74206120636f6e7472696275746f720000000000000000006044820152606401610176565b3360009081526004602052604090205460ff16156109675760405162461bcd60e51b815260206004820152601360248201527208515c9c8e88105b1c9958591e481d9bdd1959606a1b6044820152606401610176565b60025460405163143d7a1960e11b81523360048201526000916001600160a01b03169063287af4329060240160206040518083038186803b1580156109ab57600080fd5b505afa1580156109bf573d6000803e3d6000fd5b505050506040513d601f19601f820116820180604052508101906109e39190610dc1565b90508415610a1e57600086815260036020526040902060040154610a079082610af4565b600087815260036020526040902060040155610a52565b84610a5257600086815260036020526040902060040154610a3f9082610af4565b6000878152600360205260409020600501555b5050336000908152600460205260409020805460ff1916600117905550505050565b600254604080516213b96160e11b815290516000926001600160a01b031691622772c2916004808301926020929190829003018186803b158015610ab757600080fd5b505afa158015610acb573d6000803e3d6000fd5b505050506040513d601f19601f82011682018060405250810190610aef9190610dc1565b905090565b6000610b008284610e71565b9392505050565b60405180610100016040528060008152602001606081526020016060815260200160008152602001600081526020016000815260200160006004811115610b5057610b50610f0c565b8152602001600081525090565b828054610b6990610ea0565b90600052602060002090601f016020900481019282610b8b5760008555610bd1565b82601f10610ba457805160ff1916838001178555610bd1565b82800160010185558215610bd1579182015b82811115610bd1578251825591602001919060010190610bb6565b50610bdd929150610c99565b5090565b508054610bed90610ea0565b6000825580601f10610bfd575050565b601f016020900490600052602060002090810190610c1b9190610c99565b50565b828054610c2a90610ea0565b90600052602060002090601f016020900481019282610c4c5760008555610bd1565b82601f10610c5d5780548555610bd1565b82800160010185558215610bd157600052602060002091601f016020900482015b82811115610bd1578254825591600101919060010190610c7e565b5b80821115610bdd5760008155600101610c9a565b600082601f830112610cbf57600080fd5b813567ffffffffffffffff80821115610cda57610cda610f22565b604051601f8301601f19908116603f01168101908282118183101715610d0257610d02610f22565b81604052838152866020858801011115610d1b57600080fd5b836020870160208301376000602085830101528094505050505092915050565b600080600060608486031215610d5057600080fd5b833567ffffffffffffffff80821115610d6857600080fd5b610d7487838801610cae565b94506020860135915080821115610d8a57600080fd5b50610d9786828701610cae565b925050604084013590509250925092565b600060208284031215610dba57600080fd5b5035919050565b600060208284031215610dd357600080fd5b5051919050565b60008060408385031215610ded57600080fd5b8235915060208301358015158114610e0457600080fd5b809150509250929050565b6020808252601c908201527f21457272203a2057726f6e6720776f726b666c6f772073746174757300000000604082015260600190565b60208082526011908201527010a2b9391d103737ba1036b0b730b3b2b960791b604082015260600190565b60008219821115610e8457610e84610ef6565b500190565b600082821015610e9b57610e9b610ef6565b500390565b600181811c90821680610eb457607f821691505b60208210811415610ed557634e487b7160e01b600052602260045260246000fd5b50919050565b6000600019821415610eef57610eef610ef6565b5060010190565b634e487b7160e01b600052601160045260246000fd5b634e487b7160e01b600052602160045260246000fd5b634e487b7160e01b600052604160045260246000fdfea2646970667358221220132581363683f64634f33bafdec710891cb61f2a3f0f11d53bc3dcca21d0539564736f6c63430008060033a2646970667358221220aaa3c6656fe5324208c5c0356cb0df1c552794011b2cff7d401c96df25366a1e64736f6c63430008060033a264697066735822122064040b373ce7c987dd0acdd6430a11bb840ce43d081887e59660a9d234839da964736f6c63430008060033",
  "immutableReferences": {
    "1813": [
      {
        "length": 32,
        "start": 182
      },
      {
        "length": 32,
        "start": 1092
      }
    ],
    "1815": [
      {
        "length": 32,
        "start": 482
      },
      {
        "length": 32,
        "start": 1125
      }
    ]
  },
  "source": "// SPDX-License-Identifier: MIT\r\npragma solidity 0.8.6;\r\n\r\nimport \"./Campaign.sol\";\r\nimport \"./interfaces/ICampaign.sol\";\r\nimport \"./interfaces/ICampaignFactory.sol\";\r\n\r\n/**\r\n* @title CampaignFactory\r\n* @notice The Campaign factory is used for the deployment of new campaign\r\n* @dev Inherit of for the CampaignFactory Interface\r\n*/\r\ncontract CampaignFactory is ICampaignFactory {\r\n\r\n    address public owner;\r\n    ICampaign[] public deployedCampaigns;\r\n    mapping(address => uint) public contractIndex;\r\n    mapping(address => bool) public contractExist;\r\n    IERC20 public immutable usdcToken;\r\n    address public immutable escrowContract;\r\n\r\n    //Events\r\n    event newCampaign(address campaignAddress);\r\n\r\n    constructor(address _usdcToken, address _escrowContract){\r\n        owner = msg.sender;\r\n        usdcToken = IERC20(_usdcToken);\r\n        escrowContract = _escrowContract;\r\n    }\r\n\r\n    /**\r\n     * @inheritdoc ICampaignFactory\r\n     */\r\n    function createCampaign(ICampaign.Info memory infoData, ICampaign.Rewards[] memory rewardsData) external override {\r\n        ICampaign _newCampaign = new Campaign(infoData, rewardsData, msg.sender, usdcToken, escrowContract);\r\n        deployedCampaigns.push(_newCampaign);\r\n        contractIndex[address(_newCampaign)] = getLastDeployedCampaignsIndex();\r\n        contractExist[address(_newCampaign)] = true;\r\n        emit newCampaign(address(_newCampaign));\r\n    }\r\n\r\n    /**\r\n     * @inheritdoc ICampaignFactory\r\n     */\r\n    function deleteCampaign() public override returns (bool){\r\n        require(contractExist[msg.sender], \"!Err: Not exist\");\r\n        uint _indexToSwap = contractIndex[msg.sender];\r\n        if (_indexToSwap != getLastDeployedCampaignsIndex()) {\r\n            deployedCampaigns[_indexToSwap] = deployedCampaigns[getLastDeployedCampaignsIndex()];\r\n            contractIndex[address(deployedCampaigns[getLastDeployedCampaignsIndex()])] = _indexToSwap;\r\n        }\r\n        deployedCampaigns.pop();\r\n        delete contractIndex[msg.sender];\r\n        delete contractExist[msg.sender];\r\n        return true;\r\n    }\r\n\r\n    /**\r\n     * @inheritdoc ICampaignFactory\r\n     */\r\n    function updateOwner(address newOwner) external override {\r\n        require(owner == msg.sender, \"!Not Authorized\");\r\n        owner = newOwner;\r\n    }\r\n\r\n    /**\r\n     * @inheritdoc ICampaignFactory\r\n     */\r\n    function getDeployedCampaignsList() external override view returns (ICampaign[] memory){\r\n        return deployedCampaigns;\r\n    }\r\n\r\n    /**\r\n     * @notice Helper to get the index of the last campaign deployed\r\n     * @return index uint index of the last elem of the deployedCampaigns array\r\n     */\r\n    function getLastDeployedCampaignsIndex() internal view returns (uint){\r\n        return deployedCampaigns.length - 1;\r\n    }\r\n}\r\n",
  "sourcePath": "/Users/Xutyr/Documents/Lab/SparkUp/contracts/CampaignFactory.sol",
  "compiler": {
    "name": "solc",
    "version": "0.8.6+commit.11564f7e.Emscripten.clang"
  },
  "schemaVersion": "3.4.1",
  "updatedAt": "2021-07-31T12:08:37.122Z",
  "networkType": "ethereum",
  "devdoc": {
    "details": "Inherit of for the CampaignFactory Interface",
    "kind": "dev",
    "methods": {
      "createCampaign((string,string,uint256,uint256),(string,string,uint256,uint256,uint256,uint256,bool)[])": {
        "params": {
          "infoData": "ICampaign.Info basic information for a campaign following the Campaign Info structure",
          "rewardsData": "ICampaign.Rewards array of rewards information for a campaign following the Campaign Info structure"
        }
      },
      "deleteCampaign()": {
        "details": "Only an contract already deployed must be able to call this function",
        "returns": {
          "_0": "success bool"
        }
      },
      "getDeployedCampaignsList()": {
        "returns": {
          "_0": "Campaigns ICampaign[] list of campaigns address deployed and still actives"
        }
      },
      "updateOwner(address)": {
        "details": "Only the actual owner must be able to call this function",
        "params": {
          "newOwner": "address The new owner address"
        }
      }
    },
    "title": "CampaignFactory",
    "version": 1
  },
  "userdoc": {
    "kind": "user",
    "methods": {
      "createCampaign((string,string,uint256,uint256),(string,string,uint256,uint256,uint256,uint256,bool)[])": {
        "notice": "Create a new Campaign contract and init it"
      },
      "deleteCampaign()": {
        "notice": "Delete a new Campaign that call this function."
      },
      "getDeployedCampaignsList()": {
        "notice": "Allow to get the all list of campaign address deployed"
      },
      "updateOwner(address)": {
        "notice": "Allow the owner to set a new owner for the factory."
      }
    },
    "notice": "The Campaign factory is used for the deployment of new campaign",
    "version": 1
  }
}