{
  "contractName": "CampaignFactory",
  "abi": [
    {
      "inputs": [],
      "stateMutability": "nonpayable",
      "type": "constructor"
    },
    {
      "inputs": [],
      "name": "campaignCounter",
      "outputs": [
        {
          "internalType": "uint128",
          "name": "",
          "type": "uint128"
        }
      ],
      "stateMutability": "view",
      "type": "function",
      "constant": true
    },
    {
      "inputs": [
        {
          "internalType": "address",
          "name": "",
          "type": "address"
        }
      ],
      "name": "campaignToId",
      "outputs": [
        {
          "internalType": "uint128",
          "name": "",
          "type": "uint128"
        }
      ],
      "stateMutability": "view",
      "type": "function",
      "constant": true
    },
    {
      "inputs": [
        {
          "internalType": "uint128",
          "name": "",
          "type": "uint128"
        }
      ],
      "name": "deployedCampaigns",
      "outputs": [
        {
          "internalType": "address",
          "name": "",
          "type": "address"
        }
      ],
      "stateMutability": "view",
      "type": "function",
      "constant": true
    },
    {
      "inputs": [],
      "name": "owner",
      "outputs": [
        {
          "internalType": "address",
          "name": "",
          "type": "address"
        }
      ],
      "stateMutability": "view",
      "type": "function",
      "constant": true
    },
    {
      "inputs": [],
      "name": "proxyContract",
      "outputs": [
        {
          "internalType": "address",
          "name": "",
          "type": "address"
        }
      ],
      "stateMutability": "view",
      "type": "function",
      "constant": true
    },
    {
      "inputs": [
        {
          "internalType": "contract ICampaign",
          "name": "_newCampaign",
          "type": "address"
        }
      ],
      "name": "addCampaign",
      "outputs": [],
      "stateMutability": "nonpayable",
      "type": "function"
    },
    {
      "inputs": [],
      "name": "deleteCampaign",
      "outputs": [],
      "stateMutability": "nonpayable",
      "type": "function"
    },
    {
      "inputs": [
        {
          "internalType": "address",
          "name": "_manager",
          "type": "address"
        }
      ],
      "name": "deployProposalContract",
      "outputs": [],
      "stateMutability": "nonpayable",
      "type": "function"
    },
    {
      "inputs": [
        {
          "internalType": "address",
          "name": "newOwner",
          "type": "address"
        }
      ],
      "name": "updateOwner",
      "outputs": [],
      "stateMutability": "nonpayable",
      "type": "function"
    },
    {
      "inputs": [
        {
          "internalType": "address",
          "name": "_proxyContract",
          "type": "address"
        }
      ],
      "name": "setProxy",
      "outputs": [],
      "stateMutability": "nonpayable",
      "type": "function"
    }
  ],
  "bytecode": "0x6080604052600080546001600160801b031916600117905534801561002357600080fd5b50600180546001600160a01b03191633179055612394806100456000396000f3fe608060405234801561001057600080fd5b506004361061009e5760003560e01c806397107d6d1161006657806397107d6d14610144578063ac9c4fd314610157578063d1f87b191461016a578063ed55044314610193578063fca604d7146101a657600080fd5b8063244c3c2c146100a3578063880cdc31146100ad5780638b89df4f146100c05780638da5cb5b146100d35780638e47fe9714610103575b600080fd5b6100ab6101b9565b005b6100ab6100bb3660046105d6565b6103c5565b6100ab6100ce3660046105d6565b610411565b6001546100e6906001600160a01b031681565b6040516001600160a01b0390911681526020015b60405180910390f35b61012c6101113660046105d6565b6004602052600090815260409020546001600160801b031681565b6040516001600160801b0390911681526020016100fa565b6100ab6101523660046105d6565b6104ea565b6100ab6101653660046105d6565b610536565b6100e66101783660046105fa565b6003602052600090815260409020546001600160a01b031681565b6002546100e6906001600160a01b031681565b60005461012c906001600160801b031681565b336000908152600460205260409020546001600160801b03166102155760405162461bcd60e51b815260206004820152600f60248201526e08515c9c8e88139bdd08195e1a5cdd608a1b60448201526064015b60405180910390fd5b3360009081526004602052604081205490546001600160801b0391821691610240916001911661064c565b6001600160801b0316816001600160801b03161461032b576000805460039190610275906001906001600160801b031661064c565b6001600160801b0390811682526020808301939093526040918201600090812054858316825260039485905292812080546001600160a01b0319166001600160a01b03909416939093179092558154849360049392909183916102db916001911661064c565b6001600160801b03908116825260208083019390935260409182016000908120546001600160a01b031685529284019490945291909101902080546001600160801b031916929091169190911790555b6000805460039190610348906001906001600160801b031661064c565b6001600160801b0390811682526020808301939093526040918201600090812080546001600160a01b0319169055338152600490935290822080546001600160801b0319169055815416908061039d83610674565b91906101000a8154816001600160801b0302191690836001600160801b031602179055505050565b6001546001600160a01b031633146103ef5760405162461bcd60e51b815260040161020c90610623565b600180546001600160a01b0319166001600160a01b0392909216919091179055565b336000908152600460205260409020546001600160801b03166104465760405162461bcd60e51b815260040161020c90610623565b60003382604051610456906105c9565b6001600160a01b03928316815291166020820152604001604051809103906000f080158015610489573d6000803e3d6000fd5b506040516372686b1760e01b81526001600160a01b038216600482015290915033906372686b1790602401600060405180830381600087803b1580156104ce57600080fd5b505af11580156104e2573d6000803e3d6000fd5b505050505050565b6001546001600160a01b031633146105145760405162461bcd60e51b815260040161020c90610623565b600280546001600160a01b0319166001600160a01b0392909216919091179055565b6002546001600160a01b031633146105605760405162461bcd60e51b815260040161020c90610623565b600080546001600160801b03908116825260036020908152604080842080546001600160a01b0387166001600160a01b0319909116811790915584549085526004909252832080546001600160801b031916918316919091179055815416908061039d83610697565b611c72806106ed83390190565b6000602082840312156105e857600080fd5b81356105f3816106d4565b9392505050565b60006020828403121561060c57600080fd5b81356001600160801b03811681146105f357600080fd5b6020808252600f908201526e08539bdd08105d5d1a1bdc9a5e9959608a1b604082015260600190565b60006001600160801b038381169083168181101561066c5761066c6106be565b039392505050565b60006001600160801b0382168061068d5761068d6106be565b6000190192915050565b60006001600160801b03808316818114156106b4576106b46106be565b6001019392505050565b634e487b7160e01b600052601160045260246000fd5b6001600160a01b03811681146106e957600080fd5b5056fe60a06040523480156200001157600080fd5b5060405162001c7238038062001c7283398101604081905262000034916200015e565b606082901b6001600160601b031916608052600480546001600160a01b038085166001600160a01b031992831617909255600380549091169183169190911790556200007f620000a8565b600080546001600160801b0319166001600160801b039290921691909117905550620001c89050565b6000600460009054906101000a90046001600160a01b03166001600160a01b0316622772c26040518163ffffffff1660e01b815260040160206040518083038186803b158015620000f857600080fd5b505afa1580156200010d573d6000803e3d6000fd5b505050506040513d601f19601f8201168201806040525081019062000133919062000196565b6001600160801b0316905090565b80516001600160a01b03811681146200015957600080fd5b919050565b600080604083850312156200017257600080fd5b6200017d8362000141565b91506200018d6020840162000141565b90509250929050565b600060208284031215620001a957600080fd5b81516001600160801b0381168114620001c157600080fd5b9392505050565b60805160601c611a8b620001e7600039600061010a0152611a8b6000f3fe608060405234801561001057600080fd5b50600436106100cf5760003560e01c806346fcff4c1161008c578063b1fa087611610066578063b1fa087614610206578063e595702314610226578063fb5e76e61461024f578063fe48e8b11461026257600080fd5b806346fcff4c146101a85780634caae8a0146101d35780635cbd4d05146101f357600080fd5b806305f86040146100d45780630c0512e9146100e957806311765b2714610105578063216869451461014457806334bdcdd714610157578063438596321461016a575b600080fd5b6100e76100e2366004611644565b610275565b005b6100f260015481565b6040519081526020015b60405180910390f35b61012c7f000000000000000000000000000000000000000000000000000000000000000081565b6040516001600160a01b0390911681526020016100fc565b6100e7610152366004611644565b61036a565b6100e7610165366004611644565b61060d565b610198610178366004611608565b600660209081526000928352604080842090915290825290205460ff1681565b60405190151581526020016100fc565b6000546101bb906001600160801b031681565b6040516001600160801b0390911681526020016100fc565b6101e66101e1366004611532565b610704565b6040516100fc9190611701565b6100e761020136600461155a565b610a34565b6100f2610214366004611532565b60026020526000908152604090205481565b6102396102343660046115ef565b610ea2565b6040516100fc9a99989796959493929190611879565b60035461012c906001600160a01b031681565b6100e761027036600461165f565b611028565b6003546001600160a01b031633146102a85760405162461bcd60e51b815260040161029f9061184e565b60405180910390fd5b60ff811660018060008381526005602081905260409091200154610100900460ff1660038111156102db576102db6119fb565b146102f85760405162461bcd60e51b815260040161029f90611817565b60ff8316600090815260056020819052604090912001805461ff0019166102001790556103284262093a80611938565b60ff9093166000908152600560205260409020600301805467ffffffffffffffff949094166101000268ffffffffffffffff0019909416939093179092555050565b60ff811660028060008381526005602081905260409091200154610100900460ff16600381111561039d5761039d6119fb565b146103ba5760405162461bcd60e51b815260040161029f90611817565b60ff8316600090815260056020526040902060030154610100900467ffffffffffffffff16421161042d5760405162461bcd60e51b815260206004820152601a60248201527f214572723a20566f74696e67207374696c6c206f6e676f696e67000000000000604482015260640161029f565b60ff83166000908152600560208190526040909120908101805461ff001916610300179055600401546001600160801b03600160801b8204811691161115610519576004805460ff851660009081526005602052604090819020600301549051630a2d00d360e01b8152600160481b9091046001600160801b0316928101929092526001600160a01b031690630a2d00d390602401600060405180830381600087803b1580156104dc57600080fd5b505af11580156104f0573d6000803e3d6000fd5b50505060ff84166000908152600560205260409020600301805460ff191660011790555061056f565b60ff8316600090815260056020526040812060030154905461054e916001600160801b03600160481b9091048116911661190d565b600080546001600160801b0319166001600160801b03929092169190911790555b60ff83166000908152600560208190526040822001805460ff19166001908117909155600291905b60028111156105a8576105a86119fb565b815260200190815260200160002060008154809291906105c7906119ca565b9091555050600080805260026020527fac33ff75c19e70fe83507db0d683fd3465c996598dc972688b7ace676c89077b80549161060383611978565b9190505550505050565b6003546001600160a01b031633146106375760405162461bcd60e51b815260040161029f9061184e565b60ff811660018060008381526005602081905260409091200154610100900460ff16600381111561066a5761066a6119fb565b146106875760405162461bcd60e51b815260040161029f90611817565b60ff831660009081526005602052604081206003015490546106bc916001600160801b03600160481b9091048116911661190d565b600080546001600160801b0319166001600160801b039290921691909117815560ff841681526005602081905260408220018054600260ff1990911681179091559081610597565b606060006002600084600281111561071e5761071e6119fb565b600281111561072f5761072f6119fb565b81526020019081526020016000205467ffffffffffffffff81111561075657610756611a27565b60405190808252806020026020018201604052801561078f57816020015b61077c6113a2565b8152602001906001900390816107745790505b5090506000805b600154811015610a2b578460028111156107b2576107b26119fb565b6000828152600560208190526040909120015460ff1660028111156107d9576107d96119fb565b1415610a19576005600082815260200190815260200160002060405180610140016040529081600082015481526020016001820180546108189061198f565b80601f01602080910402602001604051908101604052809291908181526020018280546108449061198f565b80156108915780601f1061086657610100808354040283529160200191610891565b820191906000526020600020905b81548152906001019060200180831161087457829003601f168201915b505050505081526020016002820180546108aa9061198f565b80601f01602080910402602001604051908101604052809291908181526020018280546108d69061198f565b80156109235780601f106108f857610100808354040283529160200191610923565b820191906000526020600020905b81548152906001019060200180831161090657829003601f168201915b5050509183525050600382015460ff80821615156020840152610100820467ffffffffffffffff166040840152600160481b9091046001600160801b03908116606084015260048401548082166080850152600160801b90041660a0830152600583015460c09092019116600281111561099f5761099f6119fb565b60028111156109b0576109b06119fb565b81526020016005820160019054906101000a900460ff1660038111156109d8576109d86119fb565b60038111156109e9576109e96119fb565b815250508383815181106109ff576109ff611a11565b60200260200101819052508180610a15906119ca565b9250505b80610a23816119ca565b915050610796565b50909392505050565b6003546001600160a01b03163314610a5e5760405162461bcd60e51b815260040161029f9061184e565b60015460008060008381526005602081905260409091200154610100900460ff166003811115610a9057610a906119fb565b14610aad5760405162461bcd60e51b815260040161029f90611817565b600560015410610b105760405162461bcd60e51b815260206004820152602860248201527f214572723a204d6178696d756d20616d6f756e74206f662070726f706f73616c604482015267081c995858da195960c21b606482015260840161029f565b6000855111610b555760405162461bcd60e51b8152602060048201526011602482015270214572723a205469746c6520656d70747960781b604482015260640161029f565b6000845111610ba65760405162461bcd60e51b815260206004820152601760248201527f214572723a204465736372697074696f6e20656d707479000000000000000000604482015260640161029f565b6305f5e100836001600160801b03161015610bfa5760405162461bcd60e51b8152602060048201526014602482015273214572723a20416d6f756e7420746f6f206c6f7760601b604482015260640161029f565b6000546001600160801b039081169084161115610c755760405162461bcd60e51b815260206004820152603360248201527f214572723a2050726f706f73616c20616d6f756e7420657863656564732063616044820152726d706169676e20555344432062616c616e636560681b606482015260840161029f565b610c7d6113a2565b60018054808352602080840189815260408086018a90526001600160801b03891660a0870152610120860185905260009384526005835290922084518155915180518594610cd0939085019201906113f6565b5060408201518051610cec9160028401916020909101906113f6565b506060820151600382018054608085015160a086015168ffffffffffffffffff1990921693151568ffffffffffffffff0019169390931761010067ffffffffffffffff90941684021778ffffffffffffffffffffffffffffffff0000000000000000001916600160481b6001600160801b03928316021790915560c084015160e0850151908216600160801b919092160217600483015582015160058201805460ff19166001836002811115610da457610da46119fb565b021790555061012082015160058201805461ff001916610100836003811115610dcf57610dcf6119fb565b021790555050600080805260026020527fac33ff75c19e70fe83507db0d683fd3465c996598dc972688b7ace676c89077b8054925090610e0e836119ca565b91905055507f1fc8f2a696a1eb2860eaa6ee37c3ae6f7f4998983cb8232dbecc5a3c3f3fb1d5600154604051610e4691815260200190565b60405180910390a160018054906000610e5e836119ca565b9091555050600054610e7a9085906001600160801b0316611950565b600080546001600160801b0319166001600160801b0392909216919091179055505050505050565b60056020526000908152604090208054600182018054919291610ec49061198f565b80601f0160208091040260200160405190810160405280929190818152602001828054610ef09061198f565b8015610f3d5780601f10610f1257610100808354040283529160200191610f3d565b820191906000526020600020905b815481529060010190602001808311610f2057829003601f168201915b505050505090806002018054610f529061198f565b80601f0160208091040260200160405190810160405280929190818152602001828054610f7e9061198f565b8015610fcb5780601f10610fa057610100808354040283529160200191610fcb565b820191906000526020600020905b815481529060010190602001808311610fae57829003601f168201915b5050505060038301546004840154600590940154929360ff8083169461010080850467ffffffffffffffff169550600160481b9094046001600160801b039081169481851694600160801b9004909116928083169291909104168a565b60ff821660028060008381526005602081905260409091200154610100900460ff16600381111561105b5761105b6119fb565b146110785760405162461bcd60e51b815260040161029f90611817565b60ff8416600081815260056020526040902060030154610100900467ffffffffffffffff1642106110eb5760405162461bcd60e51b815260206004820152601f60248201527f214572723a2070726f706f73616c20766f74696e672068617320656e64656400604482015260640161029f565b6004805460405163143d7a1960e11b815233928101929092526000916001600160a01b039091169063287af4329060240160206040518083038186803b15801561113457600080fd5b505afa158015611148573d6000803e3d6000fd5b505050506040513d601f19601f8201168201806040525081019061116c91906115d2565b6001600160801b0316116111c25760405162461bcd60e51b815260206004820152601760248201527f214572723a206e6f74206120636f6e7472696275746f72000000000000000000604482015260640161029f565b60ff808616600090815260066020908152604080832033845290915290205416156112255760405162461bcd60e51b815260206004820152601360248201527208515c9c8e88105b1c9958591e481d9bdd1959606a1b604482015260640161029f565b6004805460405163143d7a1960e11b815233928101929092526000916001600160a01b039091169063287af4329060240160206040518083038186803b15801561126e57600080fd5b505afa158015611282573d6000803e3d6000fd5b505050506040513d601f19601f820116820180604052508101906112a691906115d2565b905084156113105760ff86166000908152600560205260409020600401546112d89082906001600160801b031661190d565b60ff8716600090815260056020526040902060040180546001600160801b0319166001600160801b0392909216919091179055611372565b60ff8616600090815260056020526040902060040154611341908290600160801b90046001600160801b031661190d565b60ff8716600090815260056020526040902060040180546001600160801b03928316600160801b0292169190911790555b50505060ff90921660009081526006602090815260408083203384529091529020805460ff191660011790555050565b604080516101408101825260008082526060602083018190529282018390529181018290526080810182905260a0810182905260c0810182905260e081018290529061010082019081526020016000905290565b8280546114029061198f565b90600052602060002090601f016020900481019282611424576000855561146a565b82601f1061143d57805160ff191683800117855561146a565b8280016001018555821561146a579182015b8281111561146a57825182559160200191906001019061144f565b5061147692915061147a565b5090565b5b80821115611476576000815560010161147b565b600082601f8301126114a057600080fd5b813567ffffffffffffffff808211156114bb576114bb611a27565b604051601f8301601f19908116603f011681019082821181831017156114e3576114e3611a27565b816040528381528660208588010111156114fc57600080fd5b836020870160208301376000602085830101528094505050505092915050565b803560ff8116811461152d57600080fd5b919050565b60006020828403121561154457600080fd5b81356003811061155357600080fd5b9392505050565b60008060006060848603121561156f57600080fd5b833567ffffffffffffffff8082111561158757600080fd5b6115938783880161148f565b945060208601359150808211156115a957600080fd5b506115b68682870161148f565b92505060408401356115c781611a3d565b809150509250925092565b6000602082840312156115e457600080fd5b815161155381611a3d565b60006020828403121561160157600080fd5b5035919050565b6000806040838503121561161b57600080fd5b8235915060208301356001600160a01b038116811461163957600080fd5b809150509250929050565b60006020828403121561165657600080fd5b6115538261151c565b6000806040838503121561167257600080fd5b61167b8361151c565b91506020830135801515811461163957600080fd5b600381106116a0576116a06119fb565b9052565b600481106116a0576116a06119fb565b6000815180845260005b818110156116da576020818501810151868301820152016116be565b818111156116ec576000602083870101525b50601f01601f19169290920160200192915050565b60006020808301818452808551808352604092508286019150828160051b87010184880160005b8381101561180957603f1989840301855281516101408151855288820151818a870152611757828701826116b4565b915050878201518582038987015261176f82826116b4565b9150506060808301516117858288018215159052565b505060808281015167ffffffffffffffff169086015260a0808301516001600160801b039081169187019190915260c08084015182169087015260e08084015190911690860152610100808301516117df82880182611690565b505061012091820151916117f5868201846116a4565b509588019593505090860190600101611728565b509098975050505050505050565b6020808252601c908201527f21457272203a2057726f6e6720776f726b666c6f772073746174757300000000604082015260600190565b60208082526011908201527010a2b9391d103737ba1036b0b730b3b2b960791b604082015260600190565b60006101408c83528060208401526118938184018d6116b4565b905082810360408401526118a7818c6116b4565b8a1515606085015267ffffffffffffffff8a1660808501526001600160801b0389811660a086015288811660c0860152871660e085015291506118f09050610100830185611690565b6118fe6101208301846116a4565b9b9a5050505050505050505050565b60006001600160801b0380831681851680830382111561192f5761192f6119e5565b01949350505050565b6000821982111561194b5761194b6119e5565b500190565b60006001600160801b0383811690831681811015611970576119706119e5565b039392505050565b600081611987576119876119e5565b506000190190565b600181811c908216806119a357607f821691505b602082108114156119c457634e487b7160e01b600052602260045260246000fd5b50919050565b60006000198214156119de576119de6119e5565b5060010190565b634e487b7160e01b600052601160045260246000fd5b634e487b7160e01b600052602160045260246000fd5b634e487b7160e01b600052603260045260246000fd5b634e487b7160e01b600052604160045260246000fd5b6001600160801b0381168114611a5257600080fd5b5056fea26469706673582212201236d32f5f106428ed91ae5a24b177e2a868f970fe88302445e57af50bfcee1a64736f6c63430008060033a2646970667358221220b639a661e7518ee1d996edebc9634f399850ffb51638a79aa8e6b144eab985d964736f6c63430008060033",
  "immutableReferences": {},
  "source": "// SPDX-License-Identifier: MIT\r\npragma solidity 0.8.6;\r\n\r\nimport \"./Proposal.sol\";\r\nimport \"./interfaces/IProposal.sol\";\r\nimport \"./interfaces/ICampaign.sol\";\r\nimport \"./interfaces/ICampaignFactory.sol\";\r\n\r\n/**\r\n* @title CampaignFactory\r\n* @notice The Campaign factory is used for the deployment of new campaign\r\n* @dev Inherit of for the CampaignFactory Interface\r\n*/\r\ncontract CampaignFactory is ICampaignFactory {\r\n\r\n    uint128 public campaignCounter = 1;\r\n    address public owner;\r\n    address public proxyContract;\r\n\r\n    mapping(uint128 => address) public deployedCampaigns;\r\n    mapping(address => uint128) public campaignToId;\r\n\r\n    constructor(){\r\n        owner = msg.sender;\r\n    }\r\n\r\n    modifier onlyOwner() {\r\n        require(msg.sender == owner, \"!Not Authorized\");\r\n        _;\r\n    }\r\n\r\n    /**\r\n     * @inheritdoc ICampaignFactory\r\n     */\r\n    function addCampaign(ICampaign _newCampaign) external override {\r\n        require(msg.sender == proxyContract, \"!Not Authorized\");\r\n        deployedCampaigns[campaignCounter] = address(_newCampaign);\r\n        campaignToId[address(_newCampaign)] = campaignCounter;\r\n        campaignCounter++;\r\n    }\r\n\r\n    /**\r\n     * @inheritdoc ICampaignFactory\r\n     */\r\n    function deleteCampaign() public override {\r\n        require(campaignToId[msg.sender] !=0 , \"!Err: Not exist\");\r\n        uint128 _indexToSwap = campaignToId[msg.sender];\r\n        if (_indexToSwap != campaignCounter - 1) {\r\n            deployedCampaigns[_indexToSwap] = deployedCampaigns[campaignCounter - 1];\r\n            campaignToId[deployedCampaigns[campaignCounter-1]] = _indexToSwap;\r\n        }\r\n\r\n        delete deployedCampaigns[campaignCounter - 1];\r\n        delete campaignToId[msg.sender];\r\n        campaignCounter--;\r\n    }\r\n\r\n    /**\r\n     * @inheritdoc ICampaignFactory\r\n     */\r\n    function deployProposalContract(address _manager) external override {\r\n        require(campaignToId[msg.sender] != 0, \"!Not Authorized\");\r\n        IProposal _proposalContract = new Proposal(msg.sender, _manager);\r\n        ICampaign(msg.sender).setProposal(address(_proposalContract));\r\n    }\r\n\r\n    /**\r\n     * @inheritdoc ICampaignFactory\r\n     */\r\n    function updateOwner(address newOwner) external override onlyOwner() {\r\n        owner = newOwner;\r\n    }\r\n\r\n    /**\r\n     * @inheritdoc ICampaignFactory\r\n     */\r\n    function setProxy(address _proxyContract) external override onlyOwner() {\r\n        proxyContract = _proxyContract;\r\n    }\r\n}\r\n",
  "sourcePath": "/Users/Xutyr/Documents/Lab/SparkUp/contracts/CampaignFactory.sol",
  "compiler": {
    "name": "solc",
    "version": "0.8.6+commit.11564f7e.Emscripten.clang"
  },
  "schemaVersion": "3.4.1",
  "updatedAt": "2021-08-03T14:19:01.900Z",
  "networkType": "ethereum",
  "devdoc": {
    "details": "Inherit of for the CampaignFactory Interface",
    "kind": "dev",
    "methods": {
      "addCampaign(address)": {
        "params": {
          "_newCampaign": "is ICampaign of created campaign from proxy"
        }
      },
      "deleteCampaign()": {
        "details": "Only an contract already deployed must be able to call this function"
      },
      "deployProposalContract(address)": {
        "details": "Can only be called by an existing campaign contract.",
        "params": {
          "_manager": "is campaign manager."
        }
      },
      "setProxy(address)": {
        "details": "Only the actual owner must be able to call this function",
        "params": {
          "_proxyContract": "address the ProxyContract"
        }
      },
      "updateOwner(address)": {
        "details": "Only the actual owner must be able to call this function",
        "params": {
          "newOwner": "address The new owner address"
        }
      }
    },
    "title": "CampaignFactory",
    "version": 1
  },
  "userdoc": {
    "kind": "user",
    "methods": {
      "addCampaign(address)": {
        "notice": "Add campaign contract address to mapping"
      },
      "deleteCampaign()": {
        "notice": "Delete a new Campaign that call this function."
      },
      "deployProposalContract(address)": {
        "notice": "Delete a new proposal contract."
      },
      "setProxy(address)": {
        "notice": "Allow the owner to set ProxyContract address."
      },
      "updateOwner(address)": {
        "notice": "Allow the owner to set a new owner for the factory."
      }
    },
    "notice": "The Campaign factory is used for the deployment of new campaign",
    "version": 1
  }
}