{
  "contractName": "CampaignFactory",
  "abi": [
    {
      "inputs": [
        {
          "internalType": "address",
          "name": "_usdcToken",
          "type": "address"
        },
        {
          "internalType": "address",
          "name": "_escrowContract",
          "type": "address"
        }
      ],
      "stateMutability": "nonpayable",
      "type": "constructor"
    },
    {
      "anonymous": false,
      "inputs": [
        {
          "indexed": false,
          "internalType": "address",
          "name": "campaignAddress",
          "type": "address"
        }
      ],
      "name": "newCampaign",
      "type": "event"
    },
    {
      "inputs": [],
      "name": "campaignCounter",
      "outputs": [
        {
          "internalType": "uint128",
          "name": "",
          "type": "uint128"
        }
      ],
      "stateMutability": "view",
      "type": "function",
      "constant": true
    },
    {
      "inputs": [
        {
          "internalType": "address",
          "name": "",
          "type": "address"
        }
      ],
      "name": "campaignToId",
      "outputs": [
        {
          "internalType": "uint128",
          "name": "",
          "type": "uint128"
        }
      ],
      "stateMutability": "view",
      "type": "function",
      "constant": true
    },
    {
      "inputs": [
        {
          "internalType": "uint128",
          "name": "",
          "type": "uint128"
        }
      ],
      "name": "deployedCampaigns",
      "outputs": [
        {
          "internalType": "address",
          "name": "",
          "type": "address"
        }
      ],
      "stateMutability": "view",
      "type": "function",
      "constant": true
    },
    {
      "inputs": [],
      "name": "escrowContract",
      "outputs": [
        {
          "internalType": "address",
          "name": "",
          "type": "address"
        }
      ],
      "stateMutability": "view",
      "type": "function",
      "constant": true
    },
    {
      "inputs": [],
      "name": "owner",
      "outputs": [
        {
          "internalType": "address",
          "name": "",
          "type": "address"
        }
      ],
      "stateMutability": "view",
      "type": "function",
      "constant": true
    },
    {
      "inputs": [],
      "name": "usdcToken",
      "outputs": [
        {
          "internalType": "contract IERC20",
          "name": "",
          "type": "address"
        }
      ],
      "stateMutability": "view",
      "type": "function",
      "constant": true
    },
    {
      "inputs": [
        {
          "components": [
            {
              "internalType": "string",
              "name": "title",
              "type": "string"
            },
            {
              "internalType": "string",
              "name": "description",
              "type": "string"
            },
            {
              "internalType": "uint64",
              "name": "deadlineDate",
              "type": "uint64"
            },
            {
              "internalType": "uint128",
              "name": "fundingGoal",
              "type": "uint128"
            }
          ],
          "internalType": "struct ICampaign.Info",
          "name": "infoData",
          "type": "tuple"
        },
        {
          "components": [
            {
              "internalType": "string",
              "name": "title",
              "type": "string"
            },
            {
              "internalType": "string",
              "name": "description",
              "type": "string"
            },
            {
              "internalType": "bool",
              "name": "isStockLimited",
              "type": "bool"
            },
            {
              "internalType": "uint16",
              "name": "stockLimit",
              "type": "uint16"
            },
            {
              "internalType": "uint64",
              "name": "nbContributors",
              "type": "uint64"
            },
            {
              "internalType": "uint128",
              "name": "minimumContribution",
              "type": "uint128"
            },
            {
              "internalType": "uint128",
              "name": "amount",
              "type": "uint128"
            }
          ],
          "internalType": "struct ICampaign.Rewards[]",
          "name": "rewardsData",
          "type": "tuple[]"
        }
      ],
      "name": "createCampaign",
      "outputs": [],
      "stateMutability": "nonpayable",
      "type": "function"
    },
    {
      "inputs": [],
      "name": "deleteCampaign",
      "outputs": [],
      "stateMutability": "nonpayable",
      "type": "function"
    },
    {
      "inputs": [
        {
          "internalType": "address",
          "name": "newOwner",
          "type": "address"
        }
      ],
      "name": "updateOwner",
      "outputs": [],
      "stateMutability": "nonpayable",
      "type": "function"
    }
  ],
  "bytecode": "0x60c0604052600080546001600160801b031916600117905534801561002357600080fd5b506040516160a03803806160a08339810160408190526100429161008e565b600180546001600160a01b031916331790556001600160601b0319606092831b8116608052911b1660a0526100c1565b80516001600160a01b038116811461008957600080fd5b919050565b600080604083850312156100a157600080fd5b6100aa83610072565b91506100b860208401610072565b90509250929050565b60805160601c60a05160601c615fa76100f9600039600081816101ae015261042401526000818160aa01526104030152615fa76000f3fe60806040523480156200001157600080fd5b50600436106200009f5760003560e01c80638da5cb5b116200006e5780638da5cb5b14620001235780638e47fe971462000137578063d1f87b19146200017c578063e42a96e714620001a8578063fca604d714620001d057600080fd5b806311eac85514620000a4578063244c3c2c14620000e95780636046f7fa14620000f5578063880cdc31146200010c575b600080fd5b620000cc7f000000000000000000000000000000000000000000000000000000000000000081565b6040516001600160a01b0390911681526020015b60405180910390f35b620000f3620001e4565b005b620000f36200010636600462000854565b620003fc565b620000f36200011d36600462000822565b62000561565b600154620000cc906001600160a01b031681565b620001636200014836600462000822565b6003602052600090815260409020546001600160801b031681565b6040516001600160801b039091168152602001620000e0565b620000cc6200018d3660046200093e565b6002602052600090815260409020546001600160a01b031681565b620000cc7f000000000000000000000000000000000000000000000000000000000000000081565b60005462000163906001600160801b031681565b336000908152600360205260409020546001600160801b0316620002415760405162461bcd60e51b815260206004820152600f60248201526e08515c9c8e88139bdd08195e1a5cdd608a1b60448201526064015b60405180910390fd5b3360009081526003602052604081205490546001600160801b03918216916200026e916001911662000bb2565b6001600160801b0316816001600160801b0316146200035e576000805460029190620002a6906001906001600160801b031662000bb2565b6001600160801b0390811682526020808301939093526040918201600090812054858316825260029485905292812080546001600160a01b0319166001600160a01b03909416939093179092558154849360039392909183916200030e916001911662000bb2565b6001600160801b03908116825260208083019390935260409182016000908120546001600160a01b031685529284019490945291909101902080546001600160801b031916929091169190911790555b60008054600291906200037d906001906001600160801b031662000bb2565b6001600160801b0390811682526020808301939093526040918201600090812080546001600160a01b0319169055338152600390935290822080546001600160801b03191690558154169080620003d48362000bdd565b91906101000a8154816001600160801b0302191690836001600160801b031602179055505050565b60008282337f00000000000000000000000000000000000000000000000000000000000000007f00000000000000000000000000000000000000000000000000000000000000006040516200045190620005d1565b62000461959493929190620009ac565b604051809103906000f0801580156200047e573d6000803e3d6000fd5b50600080546001600160801b03908116825260026020908152604080842080546001600160a01b0387166001600160a01b0319909116811790915584549085526003909252832080546001600160801b0319169183169190911790558154929350919091169080620004f08362000c03565b91906101000a8154816001600160801b0302191690836001600160801b03160217905550507f09a1a4cb701177eec460d8994ed3511517fa65b744806ed07f974f87d433b679816040516200055491906001600160a01b0391909116815260200190565b60405180910390a1505050565b6001546001600160a01b03163314620005af5760405162461bcd60e51b815260206004820152600f60248201526e08539bdd08105d5d1a1bdc9a5e9959608a1b604482015260640162000238565b600180546001600160a01b0319166001600160a01b0392909216919091179055565b6153188062000c5a83390190565b600082601f830112620005f157600080fd5b8135602067ffffffffffffffff8083111562000611576200061162000c43565b8260051b6200062283820162000b7e565b8481528381019087850183890186018a10156200063e57600080fd5b600093505b8684101562000744578035858111156200065c57600080fd5b890160e0818c03601f19018113156200067457600080fd5b6200067e62000b2c565b88830135888111156200069057600080fd5b620006a08e8b8387010162000767565b82525060408084013589811115620006b757600080fd5b620006c78f8c8388010162000767565b8b840152506060620006db81860162000751565b8284015260809150620006f0828601620007f6565b9083015260a06200070385820162000809565b8284015260c0915062000718828601620007de565b9083015262000729848401620007de565b90820152855250506001939093019291850191850162000643565b5098975050505050505050565b803580151581146200076257600080fd5b919050565b600082601f8301126200077957600080fd5b813567ffffffffffffffff81111562000796576200079662000c43565b620007ab601f8201601f191660200162000b7e565b818152846020838601011115620007c157600080fd5b816020850160208301376000918101602001919091529392505050565b80356001600160801b03811681146200076257600080fd5b803561ffff811681146200076257600080fd5b803567ffffffffffffffff811681146200076257600080fd5b6000602082840312156200083557600080fd5b81356001600160a01b03811681146200084d57600080fd5b9392505050565b600080604083850312156200086857600080fd5b823567ffffffffffffffff808211156200088157600080fd5b90840190608082870312156200089657600080fd5b620008a062000b58565b823582811115620008b057600080fd5b620008be8882860162000767565b825250602083013582811115620008d457600080fd5b620008e28882860162000767565b602083015250620008f66040840162000809565b60408201526200090960608401620007de565b6060820152935060208501359150808211156200092557600080fd5b506200093485828601620005df565b9150509250929050565b6000602082840312156200095157600080fd5b6200084d82620007de565b6000815180845260005b81811015620009845760208185018101518683018201520162000966565b8181111562000997576000602083870101525b50601f01601f19169290920160200192915050565b600060a0808352875160808083860152620009cc6101208601836200095c565b91506020808b015160c0609f198886030181890152620009ed85836200095c565b60408e015167ffffffffffffffff90811660e08b015260608f01516001600160801b03166101008b0152898203858b01528d51808352919650848701935090600581901b870185018e860160005b8381101562000ae357601f198a84030187528151805160e0855262000a6460e08601826200095c565b9050898201518582038b87015262000a7d82826200095c565b91505060408201511515604086015261ffff6060830151166060860152868b830151168b8601528c82015162000abd8e8701826001600160801b03169052565b50908701516001600160801b031693870193909352958701959087019060010162000a3b565b50506001600160a01b038e1660408c0152985062000b02945050505050565b6001600160a01b03871660608601526001600160a01b038616858201525050509695505050505050565b60405160e0810167ffffffffffffffff8111828210171562000b525762000b5262000c43565b60405290565b6040516080810167ffffffffffffffff8111828210171562000b525762000b5262000c43565b604051601f8201601f1916810167ffffffffffffffff8111828210171562000baa5762000baa62000c43565b604052919050565b60006001600160801b038381169083168181101562000bd55762000bd562000c2d565b039392505050565b60006001600160801b0382168062000bf95762000bf962000c2d565b6000190192915050565b60006001600160801b038083168181141562000c235762000c2362000c2d565b6001019392505050565b634e487b7160e01b600052601160045260246000fd5b634e487b7160e01b600052604160045260246000fdfe60c06040523480156200001157600080fd5b5060405162005318380380620053188339810160408190526200003491620008fb565b60008451116200008b5760405162461bcd60e51b815260206004820152601360248201527f214572723a205265776172647320656d7074790000000000000000000000000060448201526064015b60405180910390fd5b600a84511115620000df5760405162461bcd60e51b815260206004820152601660248201527f214572723a20546f6f206d756368205265776172647300000000000000000000604482015260640162000082565b600180546001600160a01b0385166001600160a01b0319918216179091556002805490911633179055600080546001600160401b03421661010002610100600160481b03199091161790556003805460ff60a01b191690556001600160601b0319606083811b821660805282901b1660a0526200015c85620001d3565b60005b84518160ff161015620001b2576200019d81868360ff168151811062000189576200018962000b44565b6020026020010151620003db60201b60201c565b80620001a98162000b0b565b9150506200015f565b505091516000805460ff191660ff9092169190911790555062000b70915050565b805151620002185760405162461bcd60e51b8152602060048201526011602482015270214572723a205469746c6520656d70747960781b604482015260640162000082565b6000816020015151116200026f5760405162461bcd60e51b815260206004820152601760248201527f214572723a204465736372697074696f6e20656d707479000000000000000000604482015260640162000082565b683635c9adc5dea0000081606001516001600160801b03161015620002d75760405162461bcd60e51b815260206004820152601d60248201527f214572723a2046756e64696e6720476f616c206e6f7420656e6f756768000000604482015260640162000082565b60408101516000546001600160401b0391821691620003009161010090041662093a8062000aa0565b6001600160401b03161115620003595760405162461bcd60e51b815260206004820152601b60248201527f214572723a20646561646c696e654461746520746f2073686f72740000000000604482015260640162000082565b805180516200037191600491602090910190620005de565b5060208082015180516200038a926005920190620005de565b506060810151600680546040909301516001600160401b03166001600160401b03196001600160801b039093166801000000000000000002929092166001600160c01b031990931692909217179055565b805151620004205760405162461bcd60e51b8152602060048201526011602482015270214572723a205469746c6520656d70747960781b604482015260640162000082565b600081602001515111620004775760405162461bcd60e51b815260206004820152601760248201527f214572723a204465736372697074696f6e20656d707479000000000000000000604482015260640162000082565b6040805160e081018252606080825260208083018281526000848601818152848601828152608080880184815260a0808a0186815260c08b018790528c518b528c8901519097528b01516001600160801b03169095529589015161ffff169052938701516001600160401b031690915285850151151590925260ff86168252600781529290208151805192938493620005149284920190620005de565b5060208281015180516200052f9260018501920190620005de565b5060408201516002820180546060850151608086015160a087015162ffffff1990931694151562ffff0019169490941761010061ffff90921691909102176301000000600160d81b03191663010000006001600160401b0390941693909302600160581b600160d81b031916929092176b0100000000000000000000006001600160801b039384160217905560c090920151600390910180546001600160801b03191691909216179055505050565b828054620005ec9062000ace565b90600052602060002090601f0160209004810192826200061057600085556200065b565b82601f106200062b57805160ff19168380011785556200065b565b828001600101855582156200065b579182015b828111156200065b5782518255916020019190600101906200063e565b50620006699291506200066d565b5090565b5b808211156200066957600081556001016200066e565b80516001600160a01b03811681146200069c57600080fd5b919050565b600082601f830112620006b357600080fd5b815160206001600160401b0380831115620006d257620006d262000b5a565b8260051b620006e383820162000a6d565b8481528381019087850183890186018a1015620006ff57600080fd5b600093505b8684101562000805578051858111156200071d57600080fd5b890160e0818c03601f19018113156200073557600080fd5b6200073f62000a1d565b88830151888111156200075157600080fd5b620007618e8b8387010162000823565b825250604080840151898111156200077857600080fd5b620007888f8c8388010162000823565b8b8401525060606200079c81860162000812565b8284015260809150620007b1828601620008d0565b9083015260a0620007c4858201620008e3565b8284015260c09150620007d9828601620008b8565b90830152620007ea848401620008b8565b90820152855250506001939093019291850191850162000704565b5098975050505050505050565b805180151581146200069c57600080fd5b600082601f8301126200083557600080fd5b81516001600160401b0381111562000851576200085162000b5a565b602062000867601f8301601f1916820162000a6d565b82815285828487010111156200087c57600080fd5b60005b838110156200089c5785810183015182820184015282016200087f565b83811115620008ae5760008385840101525b5095945050505050565b80516001600160801b03811681146200069c57600080fd5b805161ffff811681146200069c57600080fd5b80516001600160401b03811681146200069c57600080fd5b600080600080600060a086880312156200091457600080fd5b85516001600160401b03808211156200092c57600080fd5b908701906080828a0312156200094157600080fd5b6200094b62000a48565b8251828111156200095b57600080fd5b620009698b82860162000823565b8252506020830151828111156200097f57600080fd5b6200098d8b82860162000823565b602083015250620009a160408401620008e3565b6040820152620009b460608401620008b8565b60608201526020890151909750915080821115620009d157600080fd5b50620009e088828901620006a1565b945050620009f16040870162000684565b925062000a016060870162000684565b915062000a116080870162000684565b90509295509295909350565b60405160e081016001600160401b038111828210171562000a425762000a4262000b5a565b60405290565b604051608081016001600160401b038111828210171562000a425762000a4262000b5a565b604051601f8201601f191681016001600160401b038111828210171562000a985762000a9862000b5a565b604052919050565b60006001600160401b0382811684821680830382111562000ac55762000ac562000b2e565b01949350505050565b600181811c9082168062000ae357607f821691505b6020821081141562000b0557634e487b7160e01b600052602260045260246000fd5b50919050565b600060ff821660ff81141562000b255762000b2562000b2e565b60010192915050565b634e487b7160e01b600052601160045260246000fd5b634e487b7160e01b600052603260045260246000fd5b634e487b7160e01b600052604160045260246000fd5b60805160601c60a05160601c61475262000bc66000396000818161044401526107290152600081816101e60152818161047e015281816105710152818161077f01528181610b8101526112f701526147526000f3fe60806040523480156200001157600080fd5b5060043610620001915760003560e01c80636d2ffd8511620000f0578063c5c4744c11620000a3578063d0a5d845116200007a578063d0a5d84514620003f2578063d6290cd71462000409578063e21641b81462000427578063e42a96e7146200043e57600080fd5b8063c5c4744c14620003a9578063c97c579414620003c4578063cd3fea1414620003db57600080fd5b80636d2ffd851462000302578063753ec10314620003195780637ef59f84146200032d57806392b4208d1462000337578063bf1d4cad1462000363578063c45a0155146200039557600080fd5b8063244c3c2c1162000149578063244c3c2c1462000266578063287af43214620002705780633489eae1146200029c578063481c6a7514620002cd57806358aba00f14620002e1578063590e1ae314620002f857600080fd5b80622772c214620001965780630a2d00d314620001bd5780630d4c4a2f14620001d657806311eac85514620001e0578063200d2ed21462000221578063205b09141462000245575b600080fd5b620001a062000466565b6040516001600160801b0390911681526020015b60405180910390f35b620001d4620001ce3660046200267e565b62000509565b005b620001d4620005a7565b620002087f000000000000000000000000000000000000000000000000000000000000000081565b6040516001600160a01b039091168152602001620001b4565b6003546200023690600160a01b900460ff1681565b604051620001b49190620027a1565b600054620002539060ff1681565b60405160ff9091168152602001620001b4565b620001d46200082c565b620001a062000281366004620024ec565b6009602052600090815260409020546001600160801b031681565b62000253620002ad36600462002703565b600860209081526000928352604080842090915290825290205460ff1681565b60015462000208906001600160a01b031681565b620001d4620002f2366004620024ec565b620009ac565b620001d4620009fb565b620001d4620003133660046200262b565b62000bb1565b60035462000208906001600160a01b031681565b620001d462000cc6565b6200034e62000348366004620026e5565b62000e10565b604051620001b49796959493929190620027cc565b6000546200037c9061010090046001600160401b031681565b6040516001600160401b039091168152602001620001b4565b60025462000208906001600160a01b031681565b600054620001a090600160481b90046001600160801b031681565b620001d4620003d5366004620025eb565b62000f8b565b620001d4620003ec3660046200252a565b62001085565b620001d4620004033660046200269c565b6200114b565b62000413620014f6565b604051620001b496959493929190620028c9565b620001d462000438366004620026e5565b6200172b565b620002087f000000000000000000000000000000000000000000000000000000000000000081565b6040516370a0823160e01b81523060048201526000907f00000000000000000000000000000000000000000000000000000000000000006001600160a01b0316906370a082319060240160206040518083038186803b158015620004c957600080fd5b505afa158015620004de573d6000803e3d6000fd5b505050506040513d601f19601f82011682018060405250810190620005049190620026cb565b905090565b6003546001600160a01b031633146200055f5760405162461bcd60e51b815260206004820152601360248201527208515c9c8e881058d8d95cdcc819195b9a5959606a1b60448201526064015b60405180910390fd5b600154620005a4906001600160a01b037f0000000000000000000000000000000000000000000000000000000000000000811691166001600160801b03841662001a28565b50565b6001546001600160a01b03163314620005d45760405162461bcd60e51b8152600401620005569062002839565b6005600354600160a01b900460ff166005811115620005f757620005f762002bd9565b1415620006185760405162461bcd60e51b8152600401620005569062002899565b600354600160a01b900460ff166002808260058111156200063d576200063d62002bd9565b146200065d5760405162461bcd60e51b8152600401620005569062002862565b6003546001600160a01b031615620006b85760405162461bcd60e51b815260206004820152601f60248201527f214572723a2070726f706f73616c20616c7265616479206465706c6f79656400604482015260640162000556565b6006546001600160401b031642116200071f5760405162461bcd60e51b815260206004820152602260248201527f214572723a2063616d706169676e20646561646c696e65206e6f742070617373604482015261195960f21b606482015260840162000556565b600054620007b0907f0000000000000000000000000000000000000000000000000000000000000000906064906200076990600160481b90046001600160801b0316600562002a91565b62000775919062002a5c565b6001600160a01b037f00000000000000000000000000000000000000000000000000000000000000001691906001600160801b031662001a28565b60015460405160009130916001600160a01b0390911690620007d29062002191565b6001600160a01b03928316815291166020820152604001604051809103906000f08015801562000806573d6000803e3d6000fd5b50600380546001600160a01b0319166001600160a01b0392909216919091179055505050565b6005600354600160a01b900460ff1660058111156200084f576200084f62002bd9565b1415620008705760405162461bcd60e51b8152600401620005569062002899565b6001546001600160a01b031633146200089d5760405162461bcd60e51b8152600401620005569062002839565b6000600354600160a01b900460ff166005811115620008c057620008c062002bd9565b1480620008ec575060038054600160a01b900460ff166005811115620008ea57620008ea62002bd9565b145b806200091857506004600354600160a01b900460ff16600581111562000916576200091662002bd9565b145b620009375760405162461bcd60e51b8152600401620005569062002862565b6003805460ff60a01b1916600560a01b179055600254604080516309130f0b60e21b815290516001600160a01b039092169163244c3c2c9160048082019260009290919082900301818387803b1580156200099157600080fd5b505af1158015620009a6573d6000803e3d6000fd5b50505050565b6001546001600160a01b03163314620009d95760405162461bcd60e51b8152600401620005569062002839565b600180546001600160a01b0319166001600160a01b0392909216919091179055565b6006546001600160401b03164211801562000a285750600062000a1d62000466565b6001600160801b0316115b62000a765760405162461bcd60e51b815260206004820152601860248201527f214572723a20636f6e646974696f6e73206e6f74206d65740000000000000000604482015260640162000556565b6001600354600160a01b900460ff16600581111562000a995762000a9962002bd9565b148062000ac5575060038054600160a01b900460ff16600581111562000ac35762000ac362002bd9565b145b62000b135760405162461bcd60e51b815260206004820152601a60248201527f214572723a2077726f6e6720776f726b666c6f77737461747573000000000000604482015260640162000556565b6001600354600160a01b900460ff16600581111562000b365762000b3662002bd9565b141562000b51576003805460ff60a01b1916600360a01b1790555b33600081815260096020526040902080546001600160801b031981169091556001600160801b031690620005a4907f00000000000000000000000000000000000000000000000000000000000000006001600160a01b0316908362001a28565b6005600354600160a01b900460ff16600581111562000bd45762000bd462002bd9565b141562000bf55760405162461bcd60e51b8152600401620005569062002899565b6001546001600160a01b0316331462000c225760405162461bcd60e51b8152600401620005569062002839565b600354600160a01b900460ff1660008082600581111562000c475762000c4762002bd9565b1462000c675760405162461bcd60e51b8152600401620005569062002862565b60005460ff908116908416111562000cba5760405162461bcd60e51b815260206004820152601560248201527408515c9c8e88125b99195e081b9bdd08195e1a5cdd605a1b604482015260640162000556565b620009a6838562001a8d565b6005600354600160a01b900460ff16600581111562000ce95762000ce962002bd9565b141562000d0a5760405162461bcd60e51b8152600401620005569062002899565b6001546001600160a01b0316331462000d375760405162461bcd60e51b8152600401620005569062002839565b600354600160a01b900460ff1660008082600581111562000d5c5762000d5c62002bd9565b1462000d7c5760405162461bcd60e51b8152600401620005569062002862565b60065460009062000d9b9062093a80906001600160401b031662002ac3565b6001600160401b031690504281101562000df85760405162461bcd60e51b815260206004820152601b60248201527f214572723a20646561646c696e654461746520746f2073686f72740000000000604482015260640162000556565b50506003805460ff60a01b1916600160a01b17905550565b60076020526000908152604090208054819062000e2d9062002b63565b80601f016020809104026020016040519081016040528092919081815260200182805462000e5b9062002b63565b801562000eac5780601f1062000e805761010080835404028352916020019162000eac565b820191906000526020600020905b81548152906001019060200180831162000e8e57829003601f168201915b50505050509080600101805462000ec39062002b63565b80601f016020809104026020016040519081016040528092919081815260200182805462000ef19062002b63565b801562000f425780601f1062000f165761010080835404028352916020019162000f42565b820191906000526020600020905b81548152906001019060200180831162000f2457829003601f168201915b5050506002840154600390940154929360ff81169361ffff61010083041693506001600160401b03630100000083041692506001600160801b03600160581b9092048216911687565b6005600354600160a01b900460ff16600581111562000fae5762000fae62002bd9565b141562000fcf5760405162461bcd60e51b8152600401620005569062002899565b6001546001600160a01b0316331462000ffc5760405162461bcd60e51b8152600401620005569062002839565b600354600160a01b900460ff1660008082600581111562001021576200102162002bd9565b14620010415760405162461bcd60e51b8152600401620005569062002862565b600054620010539060ff168462001a8d565b6000805460ff169080620010678362002ba0565b91906101000a81548160ff021916908360ff16021790555050505050565b6005600354600160a01b900460ff166005811115620010a857620010a862002bd9565b1415620010c95760405162461bcd60e51b8152600401620005569062002899565b6001546001600160a01b03163314620010f65760405162461bcd60e51b8152600401620005569062002839565b600354600160a01b900460ff166000808260058111156200111b576200111b62002bd9565b146200113b5760405162461bcd60e51b8152600401620005569062002862565b620011468362001c82565b505050565b6005600354600160a01b900460ff1660058111156200116e576200116e62002bd9565b14156200118f5760405162461bcd60e51b8152600401620005569062002899565b6006546001600160401b03164210620011fa5760405162461bcd60e51b815260206004820152602660248201527f21457272203a2043616d706169676e20636f6e747269627574696f6e2068617360448201526508195b99195960d21b606482015260840162000556565b6000600354600160a01b900460ff1660058111156200121d576200121d62002bd9565b141580156200124c575060038054600160a01b900460ff16600581111562001249576200124962002bd9565b14155b80156200127a57506004600354600160a01b900460ff16600581111562001277576200127762002bd9565b14155b620012995760405162461bcd60e51b8152600401620005569062002862565b620012a48162001e80565b620012e95760405162461bcd60e51b815260206004820152601460248201527308515c9c8e881b9bc81b5bdc99481c995dd85c9960621b604482015260640162000556565b620013296001600160a01b037f00000000000000000000000000000000000000000000000000000000000000001633306001600160801b03861662001ef3565b336000908152600960205260409020546200134f9083906001600160801b0316620029e1565b33600081815260096020908152604080832080546001600160801b0319166001600160801b03969096169590951790945560ff8581168352600882528483209383529290529190912054620013a79116600162002a34565b60ff82811660008181526008602090815260408083203384528252808320805460ff19169690951695909517909355908152600790915220600201546200140090630100000090046001600160401b0316600162002a0f565b60ff821660009081526007602052604090206002810180546001600160401b03939093166301000000026affffffffffffffff0000001990931692909217909155600301546200145b9083906001600160801b0316620029e1565b60ff8216600090815260076020526040902060030180546001600160801b0319166001600160801b03928316179055600654600160401b9004166200149f62000466565b6001600160801b031610620014f2576003805460ff60a01b1916600160a11b179055620014cb62000466565b600060096101000a8154816001600160801b0302191690836001600160801b031602179055505b5050565b6040805160808101825260608082526020820181905260009282018390528101919091526000808080806005600354600160a01b900460ff16600581111562001543576200154362002bd9565b1415620015645760405162461bcd60e51b8152600401620005569062002899565b600054600154600354604080516080810190915260048054909461010081046001600160401b0316946001600160a01b0390811694600160a01b810460ff1694600160481b9093046001600160801b03169391169190879082908290620015cb9062002b63565b80601f0160208091040260200160405190810160405280929190818152602001828054620015f99062002b63565b80156200164a5780601f106200161e576101008083540402835291602001916200164a565b820191906000526020600020905b8154815290600101906020018083116200162c57829003601f168201915b50505050508152602001600182018054620016659062002b63565b80601f0160208091040260200160405190810160405280929190818152602001828054620016939062002b63565b8015620016e45780601f10620016b857610100808354040283529160200191620016e4565b820191906000526020600020905b815481529060010190602001808311620016c657829003601f168201915b5050509183525050600291909101546001600160401b0381166020830152600160401b90046001600160801b03166040909101529c949b5092995090975095509350915050565b6005600354600160a01b900460ff1660058111156200174e576200174e62002bd9565b14156200176f5760405162461bcd60e51b8152600401620005569062002899565b6001546001600160a01b031633146200179c5760405162461bcd60e51b8152600401620005569062002839565b600354600160a01b900460ff16600080826005811115620017c157620017c162002bd9565b14620017e15760405162461bcd60e51b8152600401620005569062002862565b60005460ff90811690841610620018335760405162461bcd60e51b815260206004820152601560248201527408515c9c8e88125b99195e081b9bdd08195e1a5cdd605a1b604482015260640162000556565b60005460ff808516916200184b916001911662002aee565b60ff1614620019a55760008054600791906200186d9060019060ff1662002aee565b60ff908116825260208083019390935260409182016000908120918716815260079093529120815481908390620018a49062002b63565b620018b19291906200219f565b506001820181600101908054620018c89062002b63565b620018d59291906200219f565b5060028281018054918301805460ff909316151560ff19841681178255825461ffff61010091829004160262ffff001990911662ffffff19909416939093179290921780835581546001600160401b0363010000009182900416026affffffffffffffff0000001982168117845591546001600160801b03600160581b918290048116909102600160581b600160d81b03199093166301000000600160d81b031990921691909117919091179091556003928301549290910180546001600160801b031916929091169190911790555b6000805460079190620019be9060019060ff1662002aee565b60ff1681526020810191909152604001600090812090620019e0828262002235565b620019f060018301600062002235565b506002810180546001600160d81b031916905560030180546001600160801b03191690556000805460ff169080620010678362002b43565b6040516001600160a01b0383166024820152604481018290526200114690849063a9059cbb60e01b906064015b60408051601f198184030181529190526020810180516001600160e01b03166001600160e01b03199093169290921790915262001f2d565b80515162001ad25760405162461bcd60e51b8152602060048201526011602482015270214572723a205469746c6520656d70747960781b604482015260640162000556565b60008160200151511162001b235760405162461bcd60e51b8152602060048201526017602482015276214572723a204465736372697074696f6e20656d70747960481b604482015260640162000556565b6040805160e081018252606080825260208083018281526000848601818152848601828152608080880184815260a0808a0186815260c08b018790528c518b528c8901519097528b01516001600160801b03169095529589015161ffff169052938701516001600160401b031690915285850151151590925260ff8616825260078152929020815180519293849362001bc0928492019062002274565b50602082810151805162001bdb926001850192019062002274565b5060408201516002820180546060850151608086015160a087015162ffffff1990931694151562ffff0019169490941761010061ffff90921691909102176301000000600160d81b03191663010000006001600160401b0390941693909302600160581b600160d81b03191692909217600160581b6001600160801b039384160217905560c090920151600390910180546001600160801b03191691909216179055505050565b80515162001cc75760405162461bcd60e51b8152602060048201526011602482015270214572723a205469746c6520656d70747960781b604482015260640162000556565b60008160200151511162001d185760405162461bcd60e51b8152602060048201526017602482015276214572723a204465736372697074696f6e20656d70747960481b604482015260640162000556565b683635c9adc5dea0000081606001516001600160801b0316101562001d805760405162461bcd60e51b815260206004820152601d60248201527f214572723a2046756e64696e6720476f616c206e6f7420656e6f756768000000604482015260640162000556565b60408101516000546001600160401b039182169162001da99161010090041662093a8062002a0f565b6001600160401b0316111562001e025760405162461bcd60e51b815260206004820152601b60248201527f214572723a20646561646c696e654461746520746f2073686f72740000000000604482015260640162000556565b8051805162001e1a9160049160209091019062002274565b50602080820151805162001e3392600592019062002274565b506060810151600680546040909301516001600160401b031667ffffffffffffffff196001600160801b03909316600160401b02929092166001600160c01b031990931692909217179055565b60ff80821660009081526007602052604081206002015490911662001ea757506001919050565b60ff8216600090815260076020526040902060020154630100000081046001600160401b031661010090910461ffff16111562001ee657506001919050565b506000919050565b919050565b6040516001600160a01b0380851660248301528316604482015260648101829052620009a69085906323b872dd60e01b9060840162001a55565b600062001f84826040518060400160405280602081526020017f5361666545524332303a206c6f772d6c6576656c2063616c6c206661696c6564815250856001600160a01b0316620020069092919063ffffffff16565b80519091501562001146578080602001905181019062001fa591906200250a565b620011465760405162461bcd60e51b815260206004820152602a60248201527f5361666545524332303a204552433230206f7065726174696f6e20646964206e6044820152691bdd081cdd58d8d9595960b21b606482015260840162000556565b606062002017848460008562002021565b90505b9392505050565b606082471015620020845760405162461bcd60e51b815260206004820152602660248201527f416464726573733a20696e73756666696369656e742062616c616e636520666f6044820152651c8818d85b1b60d21b606482015260840162000556565b843b620020d45760405162461bcd60e51b815260206004820152601d60248201527f416464726573733a2063616c6c20746f206e6f6e2d636f6e7472616374000000604482015260640162000556565b600080866001600160a01b03168587604051620020f2919062002783565b60006040518083038185875af1925050503d806000811462002131576040519150601f19603f3d011682016040523d82523d6000602084013e62002136565b606091505b50915091506200214882828662002153565b979650505050505050565b60608315620021645750816200201a565b825115620021755782518084602001fd5b8160405162461bcd60e51b8152600401620005569190620027b7565b611b088062002c1583390190565b828054620021ad9062002b63565b90600052602060002090601f016020900481019282620021d1576000855562002223565b82601f10620021e4578054855562002223565b828001600101855582156200222357600052602060002091601f016020900482015b828111156200222357825482559160010191906001019062002206565b5062002231929150620022f1565b5090565b508054620022439062002b63565b6000825580601f1062002254575050565b601f016020900490600052602060002090810190620005a49190620022f1565b828054620022829062002b63565b90600052602060002090601f016020900481019282620022a6576000855562002223565b82601f10620022c157805160ff191683800117855562002223565b8280016001018555821562002223579182015b8281111562002223578251825591602001919060010190620022d4565b5b80821115620022315760008155600101620022f2565b80356001600160a01b038116811462001eee57600080fd5b803562001eee8162002c05565b600082601f8301126200233f57600080fd5b81356001600160401b03808211156200235c576200235c62002bef565b604051601f8301601f19908116603f0116810190828211818310171562002387576200238762002bef565b81604052838152866020858801011115620023a157600080fd5b836020870160208301376000602085830101528094505050505092915050565b600060e08284031215620023d457600080fd5b620023de62002991565b905081356001600160401b0380821115620023f857600080fd5b62002406858386016200232d565b835260208401359150808211156200241d57600080fd5b506200242c848285016200232d565b602083015250620024406040830162002320565b60408201526200245360608301620024af565b60608201526200246660808301620024c2565b60808201526200247960a0830162002497565b60a08201526200248c60c0830162002497565b60c082015292915050565b80356001600160801b038116811462001eee57600080fd5b803561ffff8116811462001eee57600080fd5b80356001600160401b038116811462001eee57600080fd5b803560ff8116811462001eee57600080fd5b600060208284031215620024ff57600080fd5b6200201a8262002308565b6000602082840312156200251d57600080fd5b81516200201a8162002c05565b6000602082840312156200253d57600080fd5b81356001600160401b03808211156200255557600080fd5b90830190608082860312156200256a57600080fd5b62002574620029bc565b8235828111156200258457600080fd5b62002592878286016200232d565b825250602083013582811115620025a857600080fd5b620025b6878286016200232d565b602083015250620025ca60408401620024c2565b6040820152620025dd6060840162002497565b606082015295945050505050565b600060208284031215620025fe57600080fd5b81356001600160401b038111156200261557600080fd5b6200262384828501620023c1565b949350505050565b600080604083850312156200263f57600080fd5b82356001600160401b038111156200265657600080fd5b6200266485828601620023c1565b9250506200267560208401620024da565b90509250929050565b6000602082840312156200269157600080fd5b6200201a8262002497565b60008060408385031215620026b057600080fd5b620026bb8362002497565b91506200267560208401620024da565b600060208284031215620026de57600080fd5b5051919050565b600060208284031215620026f857600080fd5b6200201a82620024da565b600080604083850312156200271757600080fd5b6200272283620024da565b9150620026756020840162002308565b600681106200275157634e487b7160e01b600052602160045260246000fd5b9052565b600081518084526200276f81602086016020860162002b14565b601f01601f19169290920160200192915050565b600082516200279781846020870162002b14565b9190910192915050565b60208101620027b1828462002732565b92915050565b6020815260006200201a602083018462002755565b60e081526000620027e160e083018a62002755565b8281036020840152620027f5818a62002755565b9715156040840152505061ffff9490941660608501526001600160401b039290921660808401526001600160801b0390811660a08401521660c09091015292915050565b6020808252600f908201526e08539bdd08105d5d1a1bdc9a5e9959608a1b604082015260600190565b6020808252601c908201527f21457272203a2057726f6e6720776f726b666c6f772073746174757300000000604082015260600190565b60208082526016908201527508515c9c8e8810d85b5c185a59db8811195b195d195960521b604082015260600190565b60c0815260008751608060c0840152620028e861014084018262002755565b9050602089015160bf198483030160e085015262002907828262002755565b60408b01516001600160401b031661010086015260608b01516001600160801b031661012086015292506200294a91505060208301886001600160401b03169052565b6001600160a01b038616604083015262002968606083018662002732565b6001600160801b03841660808301526001600160a01b03831660a0830152979650505050505050565b60405160e081016001600160401b0381118282101715620029b657620029b662002bef565b60405290565b604051608081016001600160401b0381118282101715620029b657620029b662002bef565b60006001600160801b0380831681851680830382111562002a065762002a0662002bc3565b01949350505050565b60006001600160401b0380831681851680830382111562002a065762002a0662002bc3565b600060ff821660ff84168060ff0382111562002a545762002a5462002bc3565b019392505050565b60006001600160801b038084168062002a8557634e487b7160e01b600052601260045260246000fd5b92169190910492915050565b60006001600160801b038083168185168183048111821515161562002aba5762002aba62002bc3565b02949350505050565b60006001600160401b038381169083168181101562002ae65762002ae662002bc3565b039392505050565b600060ff821660ff84168082101562002b0b5762002b0b62002bc3565b90039392505050565b60005b8381101562002b3157818101518382015260200162002b17565b83811115620009a65750506000910152565b600060ff82168062002b595762002b5962002bc3565b6000190192915050565b600181811c9082168062002b7857607f821691505b6020821081141562002b9a57634e487b7160e01b600052602260045260246000fd5b50919050565b600060ff821660ff81141562002bba5762002bba62002bc3565b60010192915050565b634e487b7160e01b600052601160045260246000fd5b634e487b7160e01b600052602160045260246000fd5b634e487b7160e01b600052604160045260246000fd5b8015158114620005a457600080fdfe60a06040523480156200001157600080fd5b5060405162001b0838038062001b08833981016040819052620000349162000157565b606082901b6001600160601b031916608052600280546001600160a01b038085166001600160a01b031992831617909255600180549091169183169190911790556200007f620000ad565b600060026101000a8154816001600160801b0302191690836001600160801b031602179055505050620001c1565b600254604080516213b96160e11b815290516000926001600160a01b031691622772c2916004808301926020929190829003018186803b158015620000f157600080fd5b505afa15801562000106573d6000803e3d6000fd5b505050506040513d601f19601f820116820180604052508101906200012c91906200018f565b6001600160801b0316905090565b80516001600160a01b03811681146200015257600080fd5b919050565b600080604083850312156200016b57600080fd5b62000176836200013a565b915062000186602084016200013a565b90509250929050565b600060208284031215620001a257600080fd5b81516001600160801b0381168114620001ba57600080fd5b9392505050565b60805160601c611929620001df600039600060ee01526119296000f3fe608060405234801561001057600080fd5b50600436106100cf5760003560e01c80635ba412561161008c578063aeb6933b11610066578063aeb6933b1461020f578063ebed467014610233578063fb5e76e614610240578063fe48e8b11461025357600080fd5b80635ba41256146101ab5780635cbd4d05146101be57806387288440146101d157600080fd5b806305f86040146100d457806311765b27146100e95780631586af741461012d578063216869451461015457806334bdcdd71461016757806346fcff4c1461017a575b600080fd5b6100e76100e23660046115c5565b610266565b005b6101107f000000000000000000000000000000000000000000000000000000000000000081565b6040516001600160a01b0390911681526020015b60405180910390f35b61014061013b3660046115c5565b610355565b6040516101249897969594939291906116a1565b6100e76101623660046115c5565b6104cb565b6100e76101753660046115c5565b610831565b600054610193906201000090046001600160801b031681565b6040516001600160801b039091168152602001610124565b6101406101b93660046115c5565b610b7f565b6100e76101cc366004611529565b610b9a565b6101ff6101df3660046115e0565b600560209081526000928352604080842090915290825290205460ff1681565b6040519015158152602001610124565b60005461022190610100900460ff1681565b60405160ff9091168152602001610124565b6000546102219060ff1681565b600154610110906001600160a01b031681565b6100e7610261366004611623565b610fc2565b6001546001600160a01b031633146102995760405162461bcd60e51b81526004016102909061176b565b60405180910390fd5b8060018060ff8084166000908152600360205260409020600490810154909116908111156102c9576102c96118b2565b146102e65760405162461bcd60e51b815260040161029090611734565b60ff83166000908152600360205260409020600401805460ff191660021790556103134262093a806117c1565b60ff9093166000908152600360205260409020600201805467ffffffffffffffff949094166101000268ffffffffffffffff0019909416939093179092555050565b60046020526000908152604090208054819061037090611841565b80601f016020809104026020016040519081016040528092919081815260200182805461039c90611841565b80156103e95780601f106103be576101008083540402835291602001916103e9565b820191906000526020600020905b8154815290600101906020018083116103cc57829003601f168201915b5050505050908060010180546103fe90611841565b80601f016020809104026020016040519081016040528092919081815260200182805461042a90611841565b80156104775780601f1061044c57610100808354040283529160200191610477565b820191906000526020600020905b81548152906001019060200180831161045a57829003601f168201915b50505060028401546003850154600490950154939460ff8083169567ffffffffffffffff61010085041695506001600160801b03600160481b9094048416945082841693600160801b909304909216911688565b8060028060ff8084166000908152600360205260409020600490810154909116908111156104fb576104fb6118b2565b146105185760405162461bcd60e51b815260040161029090611734565b60ff8316600090815260036020526040902060020154610100900467ffffffffffffffff16421161058b5760405162461bcd60e51b815260206004820152601a60248201527f214572723a20566f74696e67207374696c6c206f6e676f696e670000000000006044820152606401610290565b60ff831660009081526003602081905260409091206004808201805460ff1916909117905501546001600160801b03600160801b820481169116111561066f576002805460ff851660009081526003602052604090819020909201549151630a2d00d360e01b8152600160481b9092046001600160801b031660048301526001600160a01b031690630a2d00d390602401600060405180830381600087803b15801561063657600080fd5b505af115801561064a573d6000803e3d6000fd5b50505060ff84166000908152600360205260409020600201805460ff19166001179055505b60ff83166000908152600360209081526040808320600490925290912081548190839061069b90611841565b6106a6929190611335565b5060018201816001019080546106bb90611841565b6106c6929190611335565b5060028281018054918301805460ff938416151560ff1980831682178455845467ffffffffffffffff61010091829004160268ffffffffffffffff001990921668ffffffffffffffffff19909316929092171780835592546001600160801b03600160481b918290048116909102600160481b600160c81b0319909416939093179091556003808601805491860180546001600160801b03191692851692831781559054600160801b90819004909416909302179091556004808501548185018054919094169392169060019084908111156107a4576107a46118b2565b02179055505060008054610100900460ff16915060016107c38361187c565b82546101009290920a60ff8181021990931691831602179091558416600090815260036020526040812091506107f982826113c0565b6108076001830160006113c0565b506002810180546001600160c81b031916905560006003820155600401805460ff19169055505050565b6001546001600160a01b0316331461085b5760405162461bcd60e51b81526004016102909061176b565b8060018060ff80841660009081526003602052604090206004908101549091169081111561088b5761088b6118b2565b146108a85760405162461bcd60e51b815260040161029090611734565b60ff831660009081526003602052604081206002015490546108e3916001600160801b03600160481b90910481169162010000900416611796565b600080546001600160801b0392909216620100000271ffffffffffffffffffffffffffffffff000019831681179091556109279160019160ff908116911617611801565b60ff168360ff1614156109895760ff831660009081526003602052604081209061095182826113c0565b61095f6001830160006113c0565b506002810180546001600160c81b031916905560006003820155600401805460ff19169055610b4f565b60008054600391906109a09060019060ff16611801565b60ff9081168252602080830193909352604091820160009081209187168152600390935291208154819083906109d590611841565b6109e0929190611335565b5060018201816001019080546109f590611841565b610a00929190611335565b5060028281018054918301805460ff938416151560ff1980831682178455845467ffffffffffffffff61010091829004160268ffffffffffffffff001990921668ffffffffffffffffff19909316929092171780835592546001600160801b03600160481b918290048116909102600160481b600160c81b0319909416939093179091556003808601805491860180546001600160801b03191692851692831781559054600160801b9081900490941690930217909155600480850154818501805491909416939216906001908490811115610ade57610ade6118b2565b0217905550506000805460039250610afb9060019060ff16611801565b60ff1681526020810191909152604001600090812090610b1b82826113c0565b610b296001830160006113c0565b506002810180546001600160c81b031916905560006003820155600401805460ff191690555b6000805460ff169080610b6183611824565b91906101000a81548160ff021916908360ff16021790555050505050565b60036020526000908152604090208054819061037090611841565b6001546001600160a01b03163314610bc45760405162461bcd60e51b81526004016102909061176b565b6000805460ff90811680835260036020526040832060049081015491939283921690811115610bf557610bf56118b2565b14610c125760405162461bcd60e51b815260040161029090611734565b600054600560ff90911610610c7a5760405162461bcd60e51b815260206004820152602860248201527f214572723a204d6178696d756d20616d6f756e74206f662070726f706f73616c604482015267081c995858da195960c21b6064820152608401610290565b6000855111610cbf5760405162461bcd60e51b8152602060048201526011602482015270214572723a205469746c6520656d70747960781b6044820152606401610290565b6000845111610d105760405162461bcd60e51b815260206004820152601760248201527f214572723a204465736372697074696f6e20656d7074790000000000000000006044820152606401610290565b68056bc75e2d63100000836001600160801b03161015610d695760405162461bcd60e51b8152602060048201526014602482015273214572723a20416d6f756e7420746f6f206c6f7760601b6044820152606401610290565b6000546001600160801b036201000090910481169084161115610dea5760405162461bcd60e51b815260206004820152603360248201527f214572723a2050726f706f73616c20616d6f756e7420657863656564732063616044820152726d706169676e20555344432062616c616e636560681b6064820152608401610290565b610e2f6040805161010081018252606080825260208201819052600092820183905281018290526080810182905260a0810182905260c081018290529060e082015290565b85815260208082018690526001600160801b0385166080830152600160e08301526000805460ff1681526003825260409020825180518493610e759284929101906113fd565b506020828101518051610e8e92600185019201906113fd565b506040820151600282018054606085015160808601516001600160801b03908116600160481b02600160481b600160c81b031967ffffffffffffffff9093166101000268ffffffffffffffff00199615159690961668ffffffffffffffffff1990941693909317949094171617905560a083015160c08401518216600160801b02911617600382015560e082015160048083018054909160ff1991909116906001908490811115610f4157610f416118b2565b0217905550506000805460ff16915080610f5a8361187c565b91906101000a81548160ff021916908360ff1602179055505083600060029054906101000a90046001600160801b0316610f9491906117d9565b600060026101000a8154816001600160801b0302191690836001600160801b03160217905550505050505050565b8160028060ff808416600090815260036020526040902060049081015490911690811115610ff257610ff26118b2565b1461100f5760405162461bcd60e51b815260040161029090611734565b60ff84166000908152600360205260409020600201548490610100900467ffffffffffffffff1642106110845760405162461bcd60e51b815260206004820152601f60248201527f214572723a2070726f706f73616c20766f74696e672068617320656e646564006044820152606401610290565b60025460405163143d7a1960e11b81523360048201526000916001600160a01b03169063287af4329060240160206040518083038186803b1580156110c857600080fd5b505afa1580156110dc573d6000803e3d6000fd5b505050506040513d601f19601f8201168201806040525081019061110091906115a1565b6001600160801b0316116111565760405162461bcd60e51b815260206004820152601760248201527f214572723a206e6f74206120636f6e7472696275746f720000000000000000006044820152606401610290565b60ff808616600090815260056020908152604080832033845290915290205416156111b95760405162461bcd60e51b815260206004820152601360248201527208515c9c8e88105b1c9958591e481d9bdd1959606a1b6044820152606401610290565b60025460405163143d7a1960e11b81523360048201526000916001600160a01b03169063287af4329060240160206040518083038186803b1580156111fd57600080fd5b505afa158015611211573d6000803e3d6000fd5b505050506040513d601f19601f8201168201806040525081019061123591906115a1565b905084156112a15760ff8616600090815260036020819052604090912001546112689082906001600160801b0316611796565b60ff871660009081526003602081905260409091200180546001600160801b0319166001600160801b0392909216919091179055611305565b60ff8616600090815260036020819052604090912001546112d3908290600160801b90046001600160801b0316611796565b60ff871660009081526003602081905260409091200180546001600160801b03928316600160801b0292169190911790555b50505060ff90921660009081526005602090815260408083203384529091529020805460ff191660011790555050565b82805461134190611841565b90600052602060002090601f01602090048101928261136357600085556113b0565b82601f1061137457805485556113b0565b828001600101855582156113b057600052602060002091601f016020900482015b828111156113b0578254825591600101919060010190611395565b506113bc929150611471565b5090565b5080546113cc90611841565b6000825580601f106113dc575050565b601f0160209004906000526020600020908101906113fa9190611471565b50565b82805461140990611841565b90600052602060002090601f01602090048101928261142b57600085556113b0565b82601f1061144457805160ff19168380011785556113b0565b828001600101855582156113b0579182015b828111156113b0578251825591602001919060010190611456565b5b808211156113bc5760008155600101611472565b600082601f83011261149757600080fd5b813567ffffffffffffffff808211156114b2576114b26118c8565b604051601f8301601f19908116603f011681019082821181831017156114da576114da6118c8565b816040528381528660208588010111156114f357600080fd5b836020870160208301376000602085830101528094505050505092915050565b803560ff8116811461152457600080fd5b919050565b60008060006060848603121561153e57600080fd5b833567ffffffffffffffff8082111561155657600080fd5b61156287838801611486565b9450602086013591508082111561157857600080fd5b5061158586828701611486565b9250506040840135611596816118de565b809150509250925092565b6000602082840312156115b357600080fd5b81516115be816118de565b9392505050565b6000602082840312156115d757600080fd5b6115be82611513565b600080604083850312156115f357600080fd5b6115fc83611513565b915060208301356001600160a01b038116811461161857600080fd5b809150509250929050565b6000806040838503121561163657600080fd5b61163f83611513565b91506020830135801515811461161857600080fd5b6000815180845260005b8181101561167a5760208185018101518683018201520161165e565b8181111561168c576000602083870101525b50601f01601f19169290920160200192915050565b60006101008083526116b58184018c611654565b905082810360208401526116c9818b611654565b891515604085015267ffffffffffffffff891660608501526001600160801b03888116608086015287811660a0860152861660c08501529150506005831061172157634e487b7160e01b600052602160045260246000fd5b8260e08301529998505050505050505050565b6020808252601c908201527f21457272203a2057726f6e6720776f726b666c6f772073746174757300000000604082015260600190565b60208082526011908201527010a2b9391d103737ba1036b0b730b3b2b960791b604082015260600190565b60006001600160801b038083168185168083038211156117b8576117b861189c565b01949350505050565b600082198211156117d4576117d461189c565b500190565b60006001600160801b03838116908316818110156117f9576117f961189c565b039392505050565b600060ff821660ff84168082101561181b5761181b61189c565b90039392505050565b600060ff8216806118375761183761189c565b6000190192915050565b600181811c9082168061185557607f821691505b6020821081141561187657634e487b7160e01b600052602260045260246000fd5b50919050565b600060ff821660ff8114156118935761189361189c565b60010192915050565b634e487b7160e01b600052601160045260246000fd5b634e487b7160e01b600052602160045260246000fd5b634e487b7160e01b600052604160045260246000fd5b6001600160801b03811681146113fa57600080fdfea2646970667358221220efc9346982b6d31305acbb4432ce74abcc91a3063437ee0a5722d0ea829d0b9b64736f6c63430008060033a26469706673582212205294f058da8b0f9cd5fc90dd590b770c5d4c2bb9dffce75686854ac9895df78764736f6c63430008060033a264697066735822122019880db3abfdbfaacd82e4c268961d07a2d2aeee7290b3aefc2e864b356994b464736f6c63430008060033",
  "immutableReferences": {
    "965": [
      {
        "length": 32,
        "start": 170
      },
      {
        "length": 32,
        "start": 1027
      }
    ],
    "967": [
      {
        "length": 32,
        "start": 430
      },
      {
        "length": 32,
        "start": 1060
      }
    ]
  },
  "source": "// SPDX-License-Identifier: MIT\r\npragma solidity 0.8.6;\r\n\r\nimport \"./Campaign.sol\";\r\nimport \"./interfaces/ICampaign.sol\";\r\nimport \"./interfaces/ICampaignFactory.sol\";\r\n\r\n/**\r\n* @title CampaignFactory\r\n* @notice The Campaign factory is used for the deployment of new campaign\r\n* @dev Inherit of for the CampaignFactory Interface\r\n*/\r\ncontract CampaignFactory is ICampaignFactory {\r\n\r\n    uint128 public campaignCounter = 1;\r\n    address public owner;\r\n\r\n    mapping(uint128 => address) public deployedCampaigns;\r\n    mapping(address => uint128) public campaignToId;\r\n    IERC20 public immutable usdcToken;\r\n    address public immutable escrowContract;\r\n\r\n    //Events\r\n    event newCampaign(address campaignAddress);\r\n\r\n    constructor(address _usdcToken, address _escrowContract){\r\n        owner = msg.sender;\r\n        usdcToken = IERC20(_usdcToken);\r\n        escrowContract = _escrowContract;\r\n    }\r\n\r\n    /**\r\n     * @inheritdoc ICampaignFactory\r\n     */\r\n    function createCampaign(ICampaign.Info memory infoData, ICampaign.Rewards[] memory rewardsData) external override {\r\n        ICampaign _newCampaign = new Campaign(infoData, rewardsData, msg.sender, usdcToken, escrowContract);\r\n        deployedCampaigns[campaignCounter] = address(_newCampaign);\r\n        campaignToId[address(_newCampaign)] = campaignCounter;\r\n        campaignCounter++;\r\n        emit newCampaign(address(_newCampaign));\r\n    }\r\n\r\n    /**\r\n     * @inheritdoc ICampaignFactory\r\n     */\r\n    function deleteCampaign() public override {\r\n        require(campaignToId[msg.sender] !=0 , \"!Err: Not exist\");\r\n        uint128 _indexToSwap = campaignToId[msg.sender];\r\n        if (_indexToSwap != campaignCounter - 1) {\r\n            deployedCampaigns[_indexToSwap] = deployedCampaigns[campaignCounter - 1];\r\n            campaignToId[deployedCampaigns[campaignCounter-1]] = _indexToSwap;\r\n        }\r\n\r\n        delete deployedCampaigns[campaignCounter - 1];\r\n        delete campaignToId[msg.sender];\r\n        campaignCounter--;\r\n    }\r\n\r\n    /**\r\n     * @inheritdoc ICampaignFactory\r\n     */\r\n    function updateOwner(address newOwner) external override {\r\n        require(owner == msg.sender, \"!Not Authorized\");\r\n        owner = newOwner;\r\n    }\r\n}\r\n",
  "sourcePath": "A:/Programing/Projet_Final/SparkUp/contracts/CampaignFactory.sol",
  "compiler": {
    "name": "solc",
    "version": "0.8.6+commit.11564f7e.Emscripten.clang"
  },
  "schemaVersion": "3.4.1",
  "updatedAt": "2021-08-01T20:23:38.448Z",
  "networkType": "ethereum",
  "devdoc": {
    "details": "Inherit of for the CampaignFactory Interface",
    "kind": "dev",
    "methods": {
      "createCampaign((string,string,uint64,uint128),(string,string,bool,uint16,uint64,uint128,uint128)[])": {
        "params": {
          "infoData": "ICampaign.Info basic information for a campaign following the Campaign Info structure",
          "rewardsData": "ICampaign.Rewards array of rewards information for a campaign following the Campaign Info structure"
        }
      },
      "deleteCampaign()": {
        "details": "Only an contract already deployed must be able to call this function"
      },
      "updateOwner(address)": {
        "details": "Only the actual owner must be able to call this function",
        "params": {
          "newOwner": "address The new owner address"
        }
      }
    },
    "title": "CampaignFactory",
    "version": 1
  },
  "userdoc": {
    "kind": "user",
    "methods": {
      "createCampaign((string,string,uint64,uint128),(string,string,bool,uint16,uint64,uint128,uint128)[])": {
        "notice": "Create a new Campaign contract and init it"
      },
      "deleteCampaign()": {
        "notice": "Delete a new Campaign that call this function."
      },
      "updateOwner(address)": {
        "notice": "Allow the owner to set a new owner for the factory."
      }
    },
    "notice": "The Campaign factory is used for the deployment of new campaign",
    "version": 1
  }
}