{
  "contractName": "CampaignFactory",
  "abi": [
    {
      "inputs": [
        {
          "internalType": "address",
          "name": "_usdcToken",
          "type": "address"
        },
        {
          "internalType": "address",
          "name": "_escrowContract",
          "type": "address"
        }
      ],
      "stateMutability": "nonpayable",
      "type": "constructor"
    },
    {
      "anonymous": false,
      "inputs": [
        {
          "indexed": false,
          "internalType": "address",
          "name": "campaignAddress",
          "type": "address"
        }
      ],
      "name": "newCampaign",
      "type": "event"
    },
    {
      "inputs": [
        {
          "internalType": "address",
          "name": "",
          "type": "address"
        }
      ],
      "name": "contractExist",
      "outputs": [
        {
          "internalType": "bool",
          "name": "",
          "type": "bool"
        }
      ],
      "stateMutability": "view",
      "type": "function",
      "constant": true
    },
    {
      "inputs": [
        {
          "internalType": "address",
          "name": "",
          "type": "address"
        }
      ],
      "name": "contractIndex",
      "outputs": [
        {
          "internalType": "uint256",
          "name": "",
          "type": "uint256"
        }
      ],
      "stateMutability": "view",
      "type": "function",
      "constant": true
    },
    {
      "inputs": [
        {
          "internalType": "uint256",
          "name": "",
          "type": "uint256"
        }
      ],
      "name": "deployedCampaigns",
      "outputs": [
        {
          "internalType": "contract ICampaign",
          "name": "",
          "type": "address"
        }
      ],
      "stateMutability": "view",
      "type": "function",
      "constant": true
    },
    {
      "inputs": [],
      "name": "escrowContract",
      "outputs": [
        {
          "internalType": "address",
          "name": "",
          "type": "address"
        }
      ],
      "stateMutability": "view",
      "type": "function",
      "constant": true
    },
    {
      "inputs": [],
      "name": "owner",
      "outputs": [
        {
          "internalType": "address",
          "name": "",
          "type": "address"
        }
      ],
      "stateMutability": "view",
      "type": "function",
      "constant": true
    },
    {
      "inputs": [],
      "name": "usdcToken",
      "outputs": [
        {
          "internalType": "contract IERC20",
          "name": "",
          "type": "address"
        }
      ],
      "stateMutability": "view",
      "type": "function",
      "constant": true
    },
    {
      "inputs": [
        {
          "components": [
            {
              "internalType": "string",
              "name": "title",
              "type": "string"
            },
            {
              "internalType": "string",
              "name": "description",
              "type": "string"
            },
            {
              "internalType": "uint64",
              "name": "deadlineDate",
              "type": "uint64"
            },
            {
              "internalType": "uint128",
              "name": "fundingGoal",
              "type": "uint128"
            }
          ],
          "internalType": "struct ICampaign.Info",
          "name": "infoData",
          "type": "tuple"
        },
        {
          "components": [
            {
              "internalType": "string",
              "name": "title",
              "type": "string"
            },
            {
              "internalType": "string",
              "name": "description",
              "type": "string"
            },
            {
              "internalType": "bool",
              "name": "isStockLimited",
              "type": "bool"
            },
            {
              "internalType": "uint16",
              "name": "stockLimit",
              "type": "uint16"
            },
            {
              "internalType": "uint64",
              "name": "nbContributors",
              "type": "uint64"
            },
            {
              "internalType": "uint128",
              "name": "minimumContribution",
              "type": "uint128"
            },
            {
              "internalType": "uint128",
              "name": "amount",
              "type": "uint128"
            }
          ],
          "internalType": "struct ICampaign.Rewards[]",
          "name": "rewardsData",
          "type": "tuple[]"
        }
      ],
      "name": "createCampaign",
      "outputs": [],
      "stateMutability": "nonpayable",
      "type": "function"
    },
    {
      "inputs": [],
      "name": "deleteCampaign",
      "outputs": [
        {
          "internalType": "bool",
          "name": "",
          "type": "bool"
        }
      ],
      "stateMutability": "nonpayable",
      "type": "function"
    },
    {
      "inputs": [
        {
          "internalType": "address",
          "name": "newOwner",
          "type": "address"
        }
      ],
      "name": "updateOwner",
      "outputs": [],
      "stateMutability": "nonpayable",
      "type": "function"
    },
    {
      "inputs": [],
      "name": "getDeployedCampaignsList",
      "outputs": [
        {
          "internalType": "contract ICampaign[]",
          "name": "",
          "type": "address[]"
        }
      ],
      "stateMutability": "view",
      "type": "function",
      "constant": true
    }
  ],
  "bytecode": "0x60c060405234801561001057600080fd5b506040516160e93803806160e983398101604081905261002f9161007b565b600080546001600160a01b031916331790556001600160601b0319606092831b8116608052911b1660a0526100ae565b80516001600160a01b038116811461007657600080fd5b919050565b6000806040838503121561008e57600080fd5b6100978361005f565b91506100a56020840161005f565b90509250929050565b60805160601c60a05160601c6160036100e6600039600081816101e201526103f501526000818160b601526103d401526160036000f3fe60806040523480156200001157600080fd5b5060043610620000ab5760003560e01c8063880cdc31116200006e578063880cdc3114620001725780638da5cb5b14620001895780638f3cf6da146200019d578063bfbaebb714620001c3578063e42a96e714620001dc57600080fd5b806311eac85514620000b0578063244c3c2c14620000f5578063339d50a514620001105780634cfb222d14620001275780636046f7fa1462000159575b600080fd5b620000d87f000000000000000000000000000000000000000000000000000000000000000081565b6040516001600160a01b0390911681526020015b60405180910390f35b620000ff62000204565b6040519015158152602001620000ec565b620000d86200012136600462000965565b620003a2565b6200014a6200013836600462000849565b60026020526000908152604090205481565b604051908152602001620000ec565b620001706200016a3660046200087b565b620003cd565b005b620001706200018336600462000849565b6200050d565b600054620000d8906001600160a01b031681565b620000ff620001ae36600462000849565b60036020526000908152604090205460ff1681565b620001cd6200057d565b604051620000ec9190620009cf565b620000d87f000000000000000000000000000000000000000000000000000000000000000081565b3360009081526003602052604081205460ff166200025b5760405162461bcd60e51b815260206004820152600f60248201526e08515c9c8e88139bdd08195e1a5cdd608a1b60448201526064015b60405180910390fd5b3360009081526002602052604090205462000275620005e1565b81146200034257600162000288620005e1565b815481106200029b576200029b62000c63565b600091825260209091200154600180546001600160a01b039092169183908110620002ca57620002ca62000c63565b9060005260206000200160006101000a8154816001600160a01b0302191690836001600160a01b031602179055508060026000600162000309620005e1565b815481106200031c576200031c62000c63565b60009182526020808320909101546001600160a01b031683528201929092526040019020555b600180548062000356576200035662000c4d565b60008281526020808220830160001990810180546001600160a01b031916905590920190925533825260028152604080832083905560039091529020805460ff19169055506001919050565b60018181548110620003b357600080fd5b6000918252602090912001546001600160a01b0316905081565b60008282337f00000000000000000000000000000000000000000000000000000000000000007f00000000000000000000000000000000000000000000000000000000000000006040516200042290620005f8565b6200043295949392919062000a1e565b604051809103906000f0801580156200044f573d6000803e3d6000fd5b506001805480820182556000919091527fb10e2d527612073b26eecdfd717e6a320cf44b4afac2b0732d9fcbe2b7fa0cf60180546001600160a01b0319166001600160a01b0383161790559050620004a6620005e1565b6001600160a01b0382166000818152600260209081526040808320949094556003815290839020805460ff1916600117905591519081527f09a1a4cb701177eec460d8994ed3511517fa65b744806ed07f974f87d433b679910160405180910390a1505050565b6000546001600160a01b031633146200055b5760405162461bcd60e51b815260206004820152600f60248201526e08539bdd08105d5d1a1bdc9a5e9959608a1b604482015260640162000252565b600080546001600160a01b0319166001600160a01b0392909216919091179055565b60606001805480602002602001604051908101604052809291908181526020018280548015620005d757602002820191906000526020600020905b81546001600160a01b03168152600190910190602001808311620005b8575b5050505050905090565b60018054600091620005f39162000c27565b905090565b61533e8062000c9083390190565b600082601f8301126200061857600080fd5b8135602067ffffffffffffffff8083111562000638576200063862000c79565b8260051b6200064983820162000bf3565b8481528381019087850183890186018a10156200066557600080fd5b600093505b868410156200076b578035858111156200068357600080fd5b890160e0818c03601f19018113156200069b57600080fd5b620006a562000ba1565b8883013588811115620006b757600080fd5b620006c78e8b838701016200078e565b82525060408084013589811115620006de57600080fd5b620006ee8f8c838801016200078e565b8b8401525060606200070281860162000778565b8284015260809150620007178286016200081d565b9083015260a06200072a85820162000830565b8284015260c091506200073f82860162000805565b908301526200075084840162000805565b9082015285525050600193909301929185019185016200066a565b5098975050505050505050565b803580151581146200078957600080fd5b919050565b600082601f830112620007a057600080fd5b813567ffffffffffffffff811115620007bd57620007bd62000c79565b620007d2601f8201601f191660200162000bf3565b818152846020838601011115620007e857600080fd5b816020850160208301376000918101602001919091529392505050565b80356001600160801b03811681146200078957600080fd5b803561ffff811681146200078957600080fd5b803567ffffffffffffffff811681146200078957600080fd5b6000602082840312156200085c57600080fd5b81356001600160a01b03811681146200087457600080fd5b9392505050565b600080604083850312156200088f57600080fd5b823567ffffffffffffffff80821115620008a857600080fd5b9084019060808287031215620008bd57600080fd5b620008c762000bcd565b823582811115620008d757600080fd5b620008e5888286016200078e565b825250602083013582811115620008fb57600080fd5b62000909888286016200078e565b6020830152506200091d6040840162000830565b6040820152620009306060840162000805565b6060820152935060208501359150808211156200094c57600080fd5b506200095b8582860162000606565b9150509250929050565b6000602082840312156200097857600080fd5b5035919050565b6000815180845260005b81811015620009a75760208185018101518683018201520162000989565b81811115620009ba576000602083870101525b50601f01601f19169290920160200192915050565b6020808252825182820181905260009190848201906040850190845b8181101562000a125783516001600160a01b031683529284019291840191600101620009eb565b50909695505050505050565b60a0815260008651608060a084015262000a3d6101208401826200097f565b905060208089015160c0609f19868503018187015262000a5e84836200097f565b935060409150818b015160e067ffffffffffffffff808316828a01526001600160801b0360608f0151166101008a0152888703868a01528692508c518088528688019350868160051b890101878f0160005b8381101562000b58578a8303601f190187528151805187855262000ad7888601826200097f565b90508b8201518582038d87015262000af082826200097f565b9150508a82015115158b86015261ffff606083015116606086015286608083015116608086015260a082015162000b3260a08701826001600160801b03169052565b50908901516001600160801b031693890193909352958901959089019060010162000ab0565b50506001600160a01b038e168b880152985062000b76945050505050565b5050506001600160a01b03841660608301526001600160a01b03831660808301529695505050505050565b60405160e0810167ffffffffffffffff8111828210171562000bc75762000bc762000c79565b60405290565b6040516080810167ffffffffffffffff8111828210171562000bc75762000bc762000c79565b604051601f8201601f1916810167ffffffffffffffff8111828210171562000c1f5762000c1f62000c79565b604052919050565b60008282101562000c4857634e487b7160e01b600052601160045260246000fd5b500390565b634e487b7160e01b600052603160045260246000fd5b634e487b7160e01b600052603260045260246000fd5b634e487b7160e01b600052604160045260246000fdfe60c06040523480156200001157600080fd5b506040516200533e3803806200533e8339810160408190526200003491620008fb565b60008451116200008b5760405162461bcd60e51b815260206004820152601360248201527f214572723a205265776172647320656d7074790000000000000000000000000060448201526064015b60405180910390fd5b600a84511115620000df5760405162461bcd60e51b815260206004820152601660248201527f214572723a20546f6f206d756368205265776172647300000000000000000000604482015260640162000082565b600180546001600160a01b0385166001600160a01b0319918216179091556002805490911633179055600080546001600160401b03421661010002610100600160481b03199091161790556003805460ff60a01b191690556001600160601b0319606083811b821660805282901b1660a0526200015c85620001d3565b60005b84518160ff161015620001b2576200019d81868360ff168151811062000189576200018962000b44565b6020026020010151620003db60201b60201c565b80620001a98162000b0b565b9150506200015f565b505091516000805460ff191660ff9092169190911790555062000b70915050565b805151620002185760405162461bcd60e51b8152602060048201526011602482015270214572723a205469746c6520656d70747960781b604482015260640162000082565b6000816020015151116200026f5760405162461bcd60e51b815260206004820152601760248201527f214572723a204465736372697074696f6e20656d707479000000000000000000604482015260640162000082565b683635c9adc5dea0000081606001516001600160801b03161015620002d75760405162461bcd60e51b815260206004820152601d60248201527f214572723a2046756e64696e6720476f616c206e6f7420656e6f756768000000604482015260640162000082565b60408101516000546001600160401b0391821691620003009161010090041662093a8062000aa0565b6001600160401b03161115620003595760405162461bcd60e51b815260206004820152601b60248201527f214572723a20646561646c696e654461746520746f2073686f72740000000000604482015260640162000082565b805180516200037191600491602090910190620005de565b5060208082015180516200038a926005920190620005de565b506060810151600680546040909301516001600160401b03166001600160401b03196001600160801b039093166801000000000000000002929092166001600160c01b031990931692909217179055565b805151620004205760405162461bcd60e51b8152602060048201526011602482015270214572723a205469746c6520656d70747960781b604482015260640162000082565b600081602001515111620004775760405162461bcd60e51b815260206004820152601760248201527f214572723a204465736372697074696f6e20656d707479000000000000000000604482015260640162000082565b6040805160e081018252606080825260208083018281526000848601818152848601828152608080880184815260a0808a0186815260c08b018790528c518b528c8901519097528b01516001600160801b03169095529589015161ffff169052938701516001600160401b031690915285850151151590925260ff86168252600781529290208151805192938493620005149284920190620005de565b5060208281015180516200052f9260018501920190620005de565b5060408201516002820180546060850151608086015160a087015162ffffff1990931694151562ffff0019169490941761010061ffff90921691909102176301000000600160d81b03191663010000006001600160401b0390941693909302600160581b600160d81b031916929092176b0100000000000000000000006001600160801b039384160217905560c090920151600390910180546001600160801b03191691909216179055505050565b828054620005ec9062000ace565b90600052602060002090601f0160209004810192826200061057600085556200065b565b82601f106200062b57805160ff19168380011785556200065b565b828001600101855582156200065b579182015b828111156200065b5782518255916020019190600101906200063e565b50620006699291506200066d565b5090565b5b808211156200066957600081556001016200066e565b80516001600160a01b03811681146200069c57600080fd5b919050565b600082601f830112620006b357600080fd5b815160206001600160401b0380831115620006d257620006d262000b5a565b8260051b620006e383820162000a6d565b8481528381019087850183890186018a1015620006ff57600080fd5b600093505b8684101562000805578051858111156200071d57600080fd5b890160e0818c03601f19018113156200073557600080fd5b6200073f62000a1d565b88830151888111156200075157600080fd5b620007618e8b8387010162000823565b825250604080840151898111156200077857600080fd5b620007888f8c8388010162000823565b8b8401525060606200079c81860162000812565b8284015260809150620007b1828601620008d0565b9083015260a0620007c4858201620008e3565b8284015260c09150620007d9828601620008b8565b90830152620007ea848401620008b8565b90820152855250506001939093019291850191850162000704565b5098975050505050505050565b805180151581146200069c57600080fd5b600082601f8301126200083557600080fd5b81516001600160401b0381111562000851576200085162000b5a565b602062000867601f8301601f1916820162000a6d565b82815285828487010111156200087c57600080fd5b60005b838110156200089c5785810183015182820184015282016200087f565b83811115620008ae5760008385840101525b5095945050505050565b80516001600160801b03811681146200069c57600080fd5b805161ffff811681146200069c57600080fd5b80516001600160401b03811681146200069c57600080fd5b600080600080600060a086880312156200091457600080fd5b85516001600160401b03808211156200092c57600080fd5b908701906080828a0312156200094157600080fd5b6200094b62000a48565b8251828111156200095b57600080fd5b620009698b82860162000823565b8252506020830151828111156200097f57600080fd5b6200098d8b82860162000823565b602083015250620009a160408401620008e3565b6040820152620009b460608401620008b8565b60608201526020890151909750915080821115620009d157600080fd5b50620009e088828901620006a1565b945050620009f16040870162000684565b925062000a016060870162000684565b915062000a116080870162000684565b90509295509295909350565b60405160e081016001600160401b038111828210171562000a425762000a4262000b5a565b60405290565b604051608081016001600160401b038111828210171562000a425762000a4262000b5a565b604051601f8201601f191681016001600160401b038111828210171562000a985762000a9862000b5a565b604052919050565b60006001600160401b0382811684821680830382111562000ac55762000ac562000b2e565b01949350505050565b600181811c9082168062000ae357607f821691505b6020821081141562000b0557634e487b7160e01b600052602260045260246000fd5b50919050565b600060ff821660ff81141562000b255762000b2562000b2e565b60010192915050565b634e487b7160e01b600052601160045260246000fd5b634e487b7160e01b600052603260045260246000fd5b634e487b7160e01b600052604160045260246000fd5b60805160601c60a05160601c61477862000bc66000396000818161044401526107290152600081816101e60152818161047e015281816105710152818161077f01528181610ba2015261131e01526147786000f3fe60806040523480156200001157600080fd5b5060043610620001915760003560e01c80636d2ffd8511620000f0578063c5c4744c11620000a3578063d0a5d845116200007a578063d0a5d84514620003f2578063d6290cd71462000409578063e21641b81462000427578063e42a96e7146200043e57600080fd5b8063c5c4744c14620003a9578063c97c579414620003c4578063cd3fea1414620003db57600080fd5b80636d2ffd851462000302578063753ec10314620003195780637ef59f84146200032d57806392b4208d1462000337578063bf1d4cad1462000363578063c45a0155146200039557600080fd5b8063244c3c2c1162000149578063244c3c2c1462000266578063287af43214620002705780633489eae1146200029c578063481c6a7514620002cd57806358aba00f14620002e1578063590e1ae314620002f857600080fd5b80622772c214620001965780630a2d00d314620001bd5780630d4c4a2f14620001d657806311eac85514620001e0578063200d2ed21462000221578063205b09141462000245575b600080fd5b620001a062000466565b6040516001600160801b0390911681526020015b60405180910390f35b620001d4620001ce366004620026a5565b62000509565b005b620001d4620005a7565b620002087f000000000000000000000000000000000000000000000000000000000000000081565b6040516001600160a01b039091168152602001620001b4565b6003546200023690600160a01b900460ff1681565b604051620001b49190620027c8565b600054620002539060ff1681565b60405160ff9091168152602001620001b4565b620001d46200082c565b620001a06200028136600462002513565b6009602052600090815260409020546001600160801b031681565b62000253620002ad3660046200272a565b600860209081526000928352604080842090915290825290205460ff1681565b60015462000208906001600160a01b031681565b620001d4620002f236600462002513565b620009cd565b620001d462000a1c565b620001d46200031336600462002652565b62000bd2565b60035462000208906001600160a01b031681565b620001d462000ced565b6200034e620003483660046200270c565b62000e37565b604051620001b49796959493929190620027f3565b6000546200037c9061010090046001600160401b031681565b6040516001600160401b039091168152602001620001b4565b60025462000208906001600160a01b031681565b600054620001a090600160481b90046001600160801b031681565b620001d4620003d536600462002612565b62000fb2565b620001d4620003ec36600462002551565b620010ac565b620001d462000403366004620026c3565b62001172565b620004136200151d565b604051620001b496959493929190620028f0565b620001d4620004383660046200270c565b62001752565b620002087f000000000000000000000000000000000000000000000000000000000000000081565b6040516370a0823160e01b81523060048201526000907f00000000000000000000000000000000000000000000000000000000000000006001600160a01b0316906370a082319060240160206040518083038186803b158015620004c957600080fd5b505afa158015620004de573d6000803e3d6000fd5b505050506040513d601f19601f82011682018060405250810190620005049190620026f2565b905090565b6003546001600160a01b031633146200055f5760405162461bcd60e51b815260206004820152601360248201527208515c9c8e881058d8d95cdcc819195b9a5959606a1b60448201526064015b60405180910390fd5b600154620005a4906001600160a01b037f0000000000000000000000000000000000000000000000000000000000000000811691166001600160801b03841662001a4f565b50565b6001546001600160a01b03163314620005d45760405162461bcd60e51b8152600401620005569062002860565b6005600354600160a01b900460ff166005811115620005f757620005f762002c00565b1415620006185760405162461bcd60e51b81526004016200055690620028c0565b600354600160a01b900460ff166002808260058111156200063d576200063d62002c00565b146200065d5760405162461bcd60e51b8152600401620005569062002889565b6003546001600160a01b031615620006b85760405162461bcd60e51b815260206004820152601f60248201527f214572723a2070726f706f73616c20616c7265616479206465706c6f79656400604482015260640162000556565b6006546001600160401b031642116200071f5760405162461bcd60e51b815260206004820152602260248201527f214572723a2063616d706169676e20646561646c696e65206e6f742070617373604482015261195960f21b606482015260840162000556565b600054620007b0907f0000000000000000000000000000000000000000000000000000000000000000906064906200076990600160481b90046001600160801b0316600562002ab8565b62000775919062002a83565b6001600160a01b037f00000000000000000000000000000000000000000000000000000000000000001691906001600160801b031662001a4f565b60015460405160009130916001600160a01b0390911690620007d290620021b8565b6001600160a01b03928316815291166020820152604001604051809103906000f08015801562000806573d6000803e3d6000fd5b50600380546001600160a01b0319166001600160a01b0392909216919091179055505050565b6005600354600160a01b900460ff1660058111156200084f576200084f62002c00565b1415620008705760405162461bcd60e51b81526004016200055690620028c0565b6001546001600160a01b031633146200089d5760405162461bcd60e51b8152600401620005569062002860565b6000600354600160a01b900460ff166005811115620008c057620008c062002c00565b1480620008ec575060038054600160a01b900460ff166005811115620008ea57620008ea62002c00565b145b806200091857506004600354600160a01b900460ff16600581111562000916576200091662002c00565b145b620009375760405162461bcd60e51b8152600401620005569062002889565b6003805460ff60a01b1916600560a01b179055600254604080516309130f0b60e21b815290516001600160a01b039092169163244c3c2c916004808201926020929091908290030181600087803b1580156200099257600080fd5b505af1158015620009a7573d6000803e3d6000fd5b505050506040513d601f19601f82011682018060405250810190620005a4919062002531565b6001546001600160a01b03163314620009fa5760405162461bcd60e51b8152600401620005569062002860565b600180546001600160a01b0319166001600160a01b0392909216919091179055565b6006546001600160401b03164211801562000a495750600062000a3e62000466565b6001600160801b0316115b62000a975760405162461bcd60e51b815260206004820152601860248201527f214572723a20636f6e646974696f6e73206e6f74206d65740000000000000000604482015260640162000556565b6001600354600160a01b900460ff16600581111562000aba5762000aba62002c00565b148062000ae6575060038054600160a01b900460ff16600581111562000ae45762000ae462002c00565b145b62000b345760405162461bcd60e51b815260206004820152601a60248201527f214572723a2077726f6e6720776f726b666c6f77737461747573000000000000604482015260640162000556565b6001600354600160a01b900460ff16600581111562000b575762000b5762002c00565b141562000b72576003805460ff60a01b1916600360a01b1790555b33600081815260096020526040902080546001600160801b031981169091556001600160801b031690620005a4907f00000000000000000000000000000000000000000000000000000000000000006001600160a01b0316908362001a4f565b6005600354600160a01b900460ff16600581111562000bf55762000bf562002c00565b141562000c165760405162461bcd60e51b81526004016200055690620028c0565b6001546001600160a01b0316331462000c435760405162461bcd60e51b8152600401620005569062002860565b600354600160a01b900460ff1660008082600581111562000c685762000c6862002c00565b1462000c885760405162461bcd60e51b8152600401620005569062002889565b60005460ff908116908416111562000cdb5760405162461bcd60e51b815260206004820152601560248201527408515c9c8e88125b99195e081b9bdd08195e1a5cdd605a1b604482015260640162000556565b62000ce7838562001ab4565b50505050565b6005600354600160a01b900460ff16600581111562000d105762000d1062002c00565b141562000d315760405162461bcd60e51b81526004016200055690620028c0565b6001546001600160a01b0316331462000d5e5760405162461bcd60e51b8152600401620005569062002860565b600354600160a01b900460ff1660008082600581111562000d835762000d8362002c00565b1462000da35760405162461bcd60e51b8152600401620005569062002889565b60065460009062000dc29062093a80906001600160401b031662002aea565b6001600160401b031690504281101562000e1f5760405162461bcd60e51b815260206004820152601b60248201527f214572723a20646561646c696e654461746520746f2073686f72740000000000604482015260640162000556565b50506003805460ff60a01b1916600160a01b17905550565b60076020526000908152604090208054819062000e549062002b8a565b80601f016020809104026020016040519081016040528092919081815260200182805462000e829062002b8a565b801562000ed35780601f1062000ea75761010080835404028352916020019162000ed3565b820191906000526020600020905b81548152906001019060200180831162000eb557829003601f168201915b50505050509080600101805462000eea9062002b8a565b80601f016020809104026020016040519081016040528092919081815260200182805462000f189062002b8a565b801562000f695780601f1062000f3d5761010080835404028352916020019162000f69565b820191906000526020600020905b81548152906001019060200180831162000f4b57829003601f168201915b5050506002840154600390940154929360ff81169361ffff61010083041693506001600160401b03630100000083041692506001600160801b03600160581b9092048216911687565b6005600354600160a01b900460ff16600581111562000fd55762000fd562002c00565b141562000ff65760405162461bcd60e51b81526004016200055690620028c0565b6001546001600160a01b03163314620010235760405162461bcd60e51b8152600401620005569062002860565b600354600160a01b900460ff1660008082600581111562001048576200104862002c00565b14620010685760405162461bcd60e51b8152600401620005569062002889565b6000546200107a9060ff168462001ab4565b6000805460ff1690806200108e8362002bc7565b91906101000a81548160ff021916908360ff16021790555050505050565b6005600354600160a01b900460ff166005811115620010cf57620010cf62002c00565b1415620010f05760405162461bcd60e51b81526004016200055690620028c0565b6001546001600160a01b031633146200111d5760405162461bcd60e51b8152600401620005569062002860565b600354600160a01b900460ff1660008082600581111562001142576200114262002c00565b14620011625760405162461bcd60e51b8152600401620005569062002889565b6200116d8362001ca9565b505050565b6005600354600160a01b900460ff16600581111562001195576200119562002c00565b1415620011b65760405162461bcd60e51b81526004016200055690620028c0565b6006546001600160401b03164210620012215760405162461bcd60e51b815260206004820152602660248201527f21457272203a2043616d706169676e20636f6e747269627574696f6e2068617360448201526508195b99195960d21b606482015260840162000556565b6000600354600160a01b900460ff16600581111562001244576200124462002c00565b1415801562001273575060038054600160a01b900460ff16600581111562001270576200127062002c00565b14155b8015620012a157506004600354600160a01b900460ff1660058111156200129e576200129e62002c00565b14155b620012c05760405162461bcd60e51b8152600401620005569062002889565b620012cb8162001ea7565b620013105760405162461bcd60e51b815260206004820152601460248201527308515c9c8e881b9bc81b5bdc99481c995dd85c9960621b604482015260640162000556565b620013506001600160a01b037f00000000000000000000000000000000000000000000000000000000000000001633306001600160801b03861662001f1a565b33600090815260096020526040902054620013769083906001600160801b031662002a08565b33600081815260096020908152604080832080546001600160801b0319166001600160801b03969096169590951790945560ff8581168352600882528483209383529290529190912054620013ce9116600162002a5b565b60ff82811660008181526008602090815260408083203384528252808320805460ff19169690951695909517909355908152600790915220600201546200142790630100000090046001600160401b0316600162002a36565b60ff821660009081526007602052604090206002810180546001600160401b03939093166301000000026affffffffffffffff000000199093169290921790915560030154620014829083906001600160801b031662002a08565b60ff8216600090815260076020526040902060030180546001600160801b0319166001600160801b03928316179055600654600160401b900416620014c662000466565b6001600160801b03161062001519576003805460ff60a01b1916600160a11b179055620014f262000466565b600060096101000a8154816001600160801b0302191690836001600160801b031602179055505b5050565b6040805160808101825260608082526020820181905260009282018390528101919091526000808080806005600354600160a01b900460ff1660058111156200156a576200156a62002c00565b14156200158b5760405162461bcd60e51b81526004016200055690620028c0565b600054600154600354604080516080810190915260048054909461010081046001600160401b0316946001600160a01b0390811694600160a01b810460ff1694600160481b9093046001600160801b03169391169190879082908290620015f29062002b8a565b80601f0160208091040260200160405190810160405280929190818152602001828054620016209062002b8a565b8015620016715780601f10620016455761010080835404028352916020019162001671565b820191906000526020600020905b8154815290600101906020018083116200165357829003601f168201915b505050505081526020016001820180546200168c9062002b8a565b80601f0160208091040260200160405190810160405280929190818152602001828054620016ba9062002b8a565b80156200170b5780601f10620016df576101008083540402835291602001916200170b565b820191906000526020600020905b815481529060010190602001808311620016ed57829003601f168201915b5050509183525050600291909101546001600160401b0381166020830152600160401b90046001600160801b03166040909101529c949b5092995090975095509350915050565b6005600354600160a01b900460ff16600581111562001775576200177562002c00565b1415620017965760405162461bcd60e51b81526004016200055690620028c0565b6001546001600160a01b03163314620017c35760405162461bcd60e51b8152600401620005569062002860565b600354600160a01b900460ff16600080826005811115620017e857620017e862002c00565b14620018085760405162461bcd60e51b8152600401620005569062002889565b60005460ff908116908416106200185a5760405162461bcd60e51b815260206004820152601560248201527408515c9c8e88125b99195e081b9bdd08195e1a5cdd605a1b604482015260640162000556565b60005460ff8085169162001872916001911662002b15565b60ff1614620019cc576000805460079190620018949060019060ff1662002b15565b60ff908116825260208083019390935260409182016000908120918716815260079093529120815481908390620018cb9062002b8a565b620018d8929190620021c6565b506001820181600101908054620018ef9062002b8a565b620018fc929190620021c6565b5060028281018054918301805460ff909316151560ff19841681178255825461ffff61010091829004160262ffff001990911662ffffff19909416939093179290921780835581546001600160401b0363010000009182900416026affffffffffffffff0000001982168117845591546001600160801b03600160581b918290048116909102600160581b600160d81b03199093166301000000600160d81b031990921691909117919091179091556003928301549290910180546001600160801b031916929091169190911790555b6000805460079190620019e59060019060ff1662002b15565b60ff168152602081019190915260400160009081209062001a0782826200225c565b62001a176001830160006200225c565b506002810180546001600160d81b031916905560030180546001600160801b03191690556000805460ff1690806200108e8362002b6a565b6040516001600160a01b0383166024820152604481018290526200116d90849063a9059cbb60e01b906064015b60408051601f198184030181529190526020810180516001600160e01b03166001600160e01b03199093169290921790915262001f54565b80515162001af95760405162461bcd60e51b8152602060048201526011602482015270214572723a205469746c6520656d70747960781b604482015260640162000556565b60008160200151511162001b4a5760405162461bcd60e51b8152602060048201526017602482015276214572723a204465736372697074696f6e20656d70747960481b604482015260640162000556565b6040805160e081018252606080825260208083018281526000848601818152848601828152608080880184815260a0808a0186815260c08b018790528c518b528c8901519097528b01516001600160801b03169095529589015161ffff169052938701516001600160401b031690915285850151151590925260ff8616825260078152929020815180519293849362001be792849201906200229b565b50602082810151805162001c0292600185019201906200229b565b5060408201516002820180546060850151608086015160a087015162ffffff1990931694151562ffff0019169490941761010061ffff90921691909102176301000000600160d81b03191663010000006001600160401b0390941693909302600160581b600160d81b03191692909217600160581b6001600160801b039384160217905560c090920151600390910180546001600160801b03191691909216179055505050565b80515162001cee5760405162461bcd60e51b8152602060048201526011602482015270214572723a205469746c6520656d70747960781b604482015260640162000556565b60008160200151511162001d3f5760405162461bcd60e51b8152602060048201526017602482015276214572723a204465736372697074696f6e20656d70747960481b604482015260640162000556565b683635c9adc5dea0000081606001516001600160801b0316101562001da75760405162461bcd60e51b815260206004820152601d60248201527f214572723a2046756e64696e6720476f616c206e6f7420656e6f756768000000604482015260640162000556565b60408101516000546001600160401b039182169162001dd09161010090041662093a8062002a36565b6001600160401b0316111562001e295760405162461bcd60e51b815260206004820152601b60248201527f214572723a20646561646c696e654461746520746f2073686f72740000000000604482015260640162000556565b8051805162001e41916004916020909101906200229b565b50602080820151805162001e5a9260059201906200229b565b506060810151600680546040909301516001600160401b031667ffffffffffffffff196001600160801b03909316600160401b02929092166001600160c01b031990931692909217179055565b60ff80821660009081526007602052604081206002015490911662001ece57506001919050565b60ff8216600090815260076020526040902060020154630100000081046001600160401b031661010090910461ffff16111562001f0d57506001919050565b506000919050565b919050565b6040516001600160a01b038085166024830152831660448201526064810182905262000ce79085906323b872dd60e01b9060840162001a7c565b600062001fab826040518060400160405280602081526020017f5361666545524332303a206c6f772d6c6576656c2063616c6c206661696c6564815250856001600160a01b03166200202d9092919063ffffffff16565b8051909150156200116d578080602001905181019062001fcc919062002531565b6200116d5760405162461bcd60e51b815260206004820152602a60248201527f5361666545524332303a204552433230206f7065726174696f6e20646964206e6044820152691bdd081cdd58d8d9595960b21b606482015260840162000556565b60606200203e848460008562002048565b90505b9392505050565b606082471015620020ab5760405162461bcd60e51b815260206004820152602660248201527f416464726573733a20696e73756666696369656e742062616c616e636520666f6044820152651c8818d85b1b60d21b606482015260840162000556565b843b620020fb5760405162461bcd60e51b815260206004820152601d60248201527f416464726573733a2063616c6c20746f206e6f6e2d636f6e7472616374000000604482015260640162000556565b600080866001600160a01b03168587604051620021199190620027aa565b60006040518083038185875af1925050503d806000811462002158576040519150601f19603f3d011682016040523d82523d6000602084013e6200215d565b606091505b50915091506200216f8282866200217a565b979650505050505050565b606083156200218b57508162002041565b8251156200219c5782518084602001fd5b8160405162461bcd60e51b8152600401620005569190620027de565b611b078062002c3c83390190565b828054620021d49062002b8a565b90600052602060002090601f016020900481019282620021f857600085556200224a565b82601f106200220b57805485556200224a565b828001600101855582156200224a57600052602060002091601f016020900482015b828111156200224a5782548255916001019190600101906200222d565b506200225892915062002318565b5090565b5080546200226a9062002b8a565b6000825580601f106200227b575050565b601f016020900490600052602060002090810190620005a4919062002318565b828054620022a99062002b8a565b90600052602060002090601f016020900481019282620022cd57600085556200224a565b82601f10620022e857805160ff19168380011785556200224a565b828001600101855582156200224a579182015b828111156200224a578251825591602001919060010190620022fb565b5b8082111562002258576000815560010162002319565b80356001600160a01b038116811462001f1557600080fd5b803562001f158162002c2c565b600082601f8301126200236657600080fd5b81356001600160401b038082111562002383576200238362002c16565b604051601f8301601f19908116603f01168101908282118183101715620023ae57620023ae62002c16565b81604052838152866020858801011115620023c857600080fd5b836020870160208301376000602085830101528094505050505092915050565b600060e08284031215620023fb57600080fd5b62002405620029b8565b905081356001600160401b03808211156200241f57600080fd5b6200242d8583860162002354565b835260208401359150808211156200244457600080fd5b50620024538482850162002354565b602083015250620024676040830162002347565b60408201526200247a60608301620024d6565b60608201526200248d60808301620024e9565b6080820152620024a060a08301620024be565b60a0820152620024b360c08301620024be565b60c082015292915050565b80356001600160801b038116811462001f1557600080fd5b803561ffff8116811462001f1557600080fd5b80356001600160401b038116811462001f1557600080fd5b803560ff8116811462001f1557600080fd5b6000602082840312156200252657600080fd5b62002041826200232f565b6000602082840312156200254457600080fd5b8151620020418162002c2c565b6000602082840312156200256457600080fd5b81356001600160401b03808211156200257c57600080fd5b90830190608082860312156200259157600080fd5b6200259b620029e3565b823582811115620025ab57600080fd5b620025b98782860162002354565b825250602083013582811115620025cf57600080fd5b620025dd8782860162002354565b602083015250620025f160408401620024e9565b60408201526200260460608401620024be565b606082015295945050505050565b6000602082840312156200262557600080fd5b81356001600160401b038111156200263c57600080fd5b6200264a84828501620023e8565b949350505050565b600080604083850312156200266657600080fd5b82356001600160401b038111156200267d57600080fd5b6200268b85828601620023e8565b9250506200269c6020840162002501565b90509250929050565b600060208284031215620026b857600080fd5b6200204182620024be565b60008060408385031215620026d757600080fd5b620026e283620024be565b91506200269c6020840162002501565b6000602082840312156200270557600080fd5b5051919050565b6000602082840312156200271f57600080fd5b620020418262002501565b600080604083850312156200273e57600080fd5b620027498362002501565b91506200269c602084016200232f565b600681106200277857634e487b7160e01b600052602160045260246000fd5b9052565b600081518084526200279681602086016020860162002b3b565b601f01601f19169290920160200192915050565b60008251620027be81846020870162002b3b565b9190910192915050565b60208101620027d8828462002759565b92915050565b6020815260006200204160208301846200277c565b60e0815260006200280860e083018a6200277c565b82810360208401526200281c818a6200277c565b9715156040840152505061ffff9490941660608501526001600160401b039290921660808401526001600160801b0390811660a08401521660c09091015292915050565b6020808252600f908201526e08539bdd08105d5d1a1bdc9a5e9959608a1b604082015260600190565b6020808252601c908201527f21457272203a2057726f6e6720776f726b666c6f772073746174757300000000604082015260600190565b60208082526016908201527508515c9c8e8810d85b5c185a59db8811195b195d195960521b604082015260600190565b60c0815260008751608060c08401526200290f6101408401826200277c565b9050602089015160bf198483030160e08501526200292e82826200277c565b60408b01516001600160401b031661010086015260608b01516001600160801b031661012086015292506200297191505060208301886001600160401b03169052565b6001600160a01b03861660408301526200298f606083018662002759565b6001600160801b03841660808301526001600160a01b03831660a0830152979650505050505050565b60405160e081016001600160401b0381118282101715620029dd57620029dd62002c16565b60405290565b604051608081016001600160401b0381118282101715620029dd57620029dd62002c16565b60006001600160801b0380831681851680830382111562002a2d5762002a2d62002bea565b01949350505050565b60006001600160401b0380831681851680830382111562002a2d5762002a2d62002bea565b600060ff821660ff84168060ff0382111562002a7b5762002a7b62002bea565b019392505050565b60006001600160801b038084168062002aac57634e487b7160e01b600052601260045260246000fd5b92169190910492915050565b60006001600160801b038083168185168183048111821515161562002ae15762002ae162002bea565b02949350505050565b60006001600160401b038381169083168181101562002b0d5762002b0d62002bea565b039392505050565b600060ff821660ff84168082101562002b325762002b3262002bea565b90039392505050565b60005b8381101562002b5857818101518382015260200162002b3e565b8381111562000ce75750506000910152565b600060ff82168062002b805762002b8062002bea565b6000190192915050565b600181811c9082168062002b9f57607f821691505b6020821081141562002bc157634e487b7160e01b600052602260045260246000fd5b50919050565b600060ff821660ff81141562002be15762002be162002bea565b60010192915050565b634e487b7160e01b600052601160045260246000fd5b634e487b7160e01b600052602160045260246000fd5b634e487b7160e01b600052604160045260246000fd5b8015158114620005a457600080fdfe60a06040523480156200001157600080fd5b5060405162001b0738038062001b07833981016040819052620000349162000157565b606082901b6001600160601b031916608052600280546001600160a01b038085166001600160a01b031992831617909255600180549091169183169190911790556200007f620000ad565b600060026101000a8154816001600160801b0302191690836001600160801b031602179055505050620001c1565b600254604080516213b96160e11b815290516000926001600160a01b031691622772c2916004808301926020929190829003018186803b158015620000f157600080fd5b505afa15801562000106573d6000803e3d6000fd5b505050506040513d601f19601f820116820180604052508101906200012c91906200018f565b6001600160801b0316905090565b80516001600160a01b03811681146200015257600080fd5b919050565b600080604083850312156200016b57600080fd5b62000176836200013a565b915062000186602084016200013a565b90509250929050565b600060208284031215620001a257600080fd5b81516001600160801b0381168114620001ba57600080fd5b9392505050565b60805160601c611928620001df600039600060ee01526119286000f3fe608060405234801561001057600080fd5b50600436106100cf5760003560e01c80635ba412561161008c578063aeb6933b11610066578063aeb6933b1461020f578063ebed467014610233578063fb5e76e614610240578063fe48e8b11461025357600080fd5b80635ba41256146101ab5780635cbd4d05146101be57806387288440146101d157600080fd5b806305f86040146100d457806311765b27146100e95780631586af741461012d578063216869451461015457806334bdcdd71461016757806346fcff4c1461017a575b600080fd5b6100e76100e23660046115c4565b610266565b005b6101107f000000000000000000000000000000000000000000000000000000000000000081565b6040516001600160a01b0390911681526020015b60405180910390f35b61014061013b3660046115c4565b610355565b6040516101249897969594939291906116a0565b6100e76101623660046115c4565b6104cb565b6100e76101753660046115c4565b610831565b600054610193906201000090046001600160801b031681565b6040516001600160801b039091168152602001610124565b6101406101b93660046115c4565b610b7f565b6100e76101cc366004611528565b610b9a565b6101ff6101df3660046115df565b600560209081526000928352604080842090915290825290205460ff1681565b6040519015158152602001610124565b60005461022190610100900460ff1681565b60405160ff9091168152602001610124565b6000546102219060ff1681565b600154610110906001600160a01b031681565b6100e7610261366004611622565b610fc1565b6001546001600160a01b031633146102995760405162461bcd60e51b81526004016102909061176a565b60405180910390fd5b8060018060ff8084166000908152600360205260409020600490810154909116908111156102c9576102c96118b1565b146102e65760405162461bcd60e51b815260040161029090611733565b60ff83166000908152600360205260409020600401805460ff191660021790556103134262093a806117c0565b60ff9093166000908152600360205260409020600201805467ffffffffffffffff949094166101000268ffffffffffffffff0019909416939093179092555050565b60046020526000908152604090208054819061037090611840565b80601f016020809104026020016040519081016040528092919081815260200182805461039c90611840565b80156103e95780601f106103be576101008083540402835291602001916103e9565b820191906000526020600020905b8154815290600101906020018083116103cc57829003601f168201915b5050505050908060010180546103fe90611840565b80601f016020809104026020016040519081016040528092919081815260200182805461042a90611840565b80156104775780601f1061044c57610100808354040283529160200191610477565b820191906000526020600020905b81548152906001019060200180831161045a57829003601f168201915b50505060028401546003850154600490950154939460ff8083169567ffffffffffffffff61010085041695506001600160801b03600160481b9094048416945082841693600160801b909304909216911688565b8060028060ff8084166000908152600360205260409020600490810154909116908111156104fb576104fb6118b1565b146105185760405162461bcd60e51b815260040161029090611733565b60ff8316600090815260036020526040902060020154610100900467ffffffffffffffff16421161058b5760405162461bcd60e51b815260206004820152601a60248201527f214572723a20566f74696e67207374696c6c206f6e676f696e670000000000006044820152606401610290565b60ff831660009081526003602081905260409091206004808201805460ff1916909117905501546001600160801b03600160801b820481169116111561066f576002805460ff851660009081526003602052604090819020909201549151630a2d00d360e01b8152600160481b9092046001600160801b031660048301526001600160a01b031690630a2d00d390602401600060405180830381600087803b15801561063657600080fd5b505af115801561064a573d6000803e3d6000fd5b50505060ff84166000908152600360205260409020600201805460ff19166001179055505b60ff83166000908152600360209081526040808320600490925290912081548190839061069b90611840565b6106a6929190611334565b5060018201816001019080546106bb90611840565b6106c6929190611334565b5060028281018054918301805460ff938416151560ff1980831682178455845467ffffffffffffffff61010091829004160268ffffffffffffffff001990921668ffffffffffffffffff19909316929092171780835592546001600160801b03600160481b918290048116909102600160481b600160c81b0319909416939093179091556003808601805491860180546001600160801b03191692851692831781559054600160801b90819004909416909302179091556004808501548185018054919094169392169060019084908111156107a4576107a46118b1565b02179055505060008054610100900460ff16915060016107c38361187b565b82546101009290920a60ff8181021990931691831602179091558416600090815260036020526040812091506107f982826113bf565b6108076001830160006113bf565b506002810180546001600160c81b031916905560006003820155600401805460ff19169055505050565b6001546001600160a01b0316331461085b5760405162461bcd60e51b81526004016102909061176a565b8060018060ff80841660009081526003602052604090206004908101549091169081111561088b5761088b6118b1565b146108a85760405162461bcd60e51b815260040161029090611733565b60ff831660009081526003602052604081206002015490546108e3916001600160801b03600160481b90910481169162010000900416611795565b600080546001600160801b0392909216620100000271ffffffffffffffffffffffffffffffff000019831681179091556109279160019160ff908116911617611800565b60ff168360ff1614156109895760ff831660009081526003602052604081209061095182826113bf565b61095f6001830160006113bf565b506002810180546001600160c81b031916905560006003820155600401805460ff19169055610b4f565b60008054600391906109a09060019060ff16611800565b60ff9081168252602080830193909352604091820160009081209187168152600390935291208154819083906109d590611840565b6109e0929190611334565b5060018201816001019080546109f590611840565b610a00929190611334565b5060028281018054918301805460ff938416151560ff1980831682178455845467ffffffffffffffff61010091829004160268ffffffffffffffff001990921668ffffffffffffffffff19909316929092171780835592546001600160801b03600160481b918290048116909102600160481b600160c81b0319909416939093179091556003808601805491860180546001600160801b03191692851692831781559054600160801b9081900490941690930217909155600480850154818501805491909416939216906001908490811115610ade57610ade6118b1565b0217905550506000805460039250610afb9060019060ff16611800565b60ff1681526020810191909152604001600090812090610b1b82826113bf565b610b296001830160006113bf565b506002810180546001600160c81b031916905560006003820155600401805460ff191690555b6000805460ff169080610b6183611823565b91906101000a81548160ff021916908360ff16021790555050505050565b60036020526000908152604090208054819061037090611840565b6001546001600160a01b03163314610bc45760405162461bcd60e51b81526004016102909061176a565b6000805460ff90811680835260036020526040832060049081015491939283921690811115610bf557610bf56118b1565b14610c125760405162461bcd60e51b815260040161029090611733565b600054600560ff90911610610c7a5760405162461bcd60e51b815260206004820152602860248201527f214572723a204d6178696d756d20616d6f756e74206f662070726f706f73616c604482015267081c995858da195960c21b6064820152608401610290565b6000855111610cbf5760405162461bcd60e51b8152602060048201526011602482015270214572723a205469746c6520656d70747960781b6044820152606401610290565b6000845111610d105760405162461bcd60e51b815260206004820152601760248201527f214572723a204465736372697074696f6e20656d7074790000000000000000006044820152606401610290565b68056bc75e2d63100000836001600160801b031611610d685760405162461bcd60e51b8152602060048201526014602482015273214572723a20416d6f756e7420746f6f206c6f7760601b6044820152606401610290565b6000546001600160801b036201000090910481169084161115610de95760405162461bcd60e51b815260206004820152603360248201527f214572723a2050726f706f73616c20616d6f756e7420657863656564732063616044820152726d706169676e20555344432062616c616e636560681b6064820152608401610290565b610e2e6040805161010081018252606080825260208201819052600092820183905281018290526080810182905260a0810182905260c081018290529060e082015290565b85815260208082018690526001600160801b0385166080830152600160e08301526000805460ff1681526003825260409020825180518493610e749284929101906113fc565b506020828101518051610e8d92600185019201906113fc565b506040820151600282018054606085015160808601516001600160801b03908116600160481b02600160481b600160c81b031967ffffffffffffffff9093166101000268ffffffffffffffff00199615159690961668ffffffffffffffffff1990941693909317949094171617905560a083015160c08401518216600160801b02911617600382015560e082015160048083018054909160ff1991909116906001908490811115610f4057610f406118b1565b0217905550506000805460ff16915080610f598361187b565b91906101000a81548160ff021916908360ff1602179055505083600060029054906101000a90046001600160801b0316610f9391906117d8565b600060026101000a8154816001600160801b0302191690836001600160801b03160217905550505050505050565b8160028060ff808416600090815260036020526040902060049081015490911690811115610ff157610ff16118b1565b1461100e5760405162461bcd60e51b815260040161029090611733565b60ff84166000908152600360205260409020600201548490610100900467ffffffffffffffff1642106110835760405162461bcd60e51b815260206004820152601f60248201527f214572723a2070726f706f73616c20766f74696e672068617320656e646564006044820152606401610290565b60025460405163143d7a1960e11b81523360048201526000916001600160a01b03169063287af4329060240160206040518083038186803b1580156110c757600080fd5b505afa1580156110db573d6000803e3d6000fd5b505050506040513d601f19601f820116820180604052508101906110ff91906115a0565b6001600160801b0316116111555760405162461bcd60e51b815260206004820152601760248201527f214572723a206e6f74206120636f6e7472696275746f720000000000000000006044820152606401610290565b60ff808616600090815260056020908152604080832033845290915290205416156111b85760405162461bcd60e51b815260206004820152601360248201527208515c9c8e88105b1c9958591e481d9bdd1959606a1b6044820152606401610290565b60025460405163143d7a1960e11b81523360048201526000916001600160a01b03169063287af4329060240160206040518083038186803b1580156111fc57600080fd5b505afa158015611210573d6000803e3d6000fd5b505050506040513d601f19601f8201168201806040525081019061123491906115a0565b905084156112a05760ff8616600090815260036020819052604090912001546112679082906001600160801b0316611795565b60ff871660009081526003602081905260409091200180546001600160801b0319166001600160801b0392909216919091179055611304565b60ff8616600090815260036020819052604090912001546112d2908290600160801b90046001600160801b0316611795565b60ff871660009081526003602081905260409091200180546001600160801b03928316600160801b0292169190911790555b50505060ff90921660009081526005602090815260408083203384529091529020805460ff191660011790555050565b82805461134090611840565b90600052602060002090601f01602090048101928261136257600085556113af565b82601f1061137357805485556113af565b828001600101855582156113af57600052602060002091601f016020900482015b828111156113af578254825591600101919060010190611394565b506113bb929150611470565b5090565b5080546113cb90611840565b6000825580601f106113db575050565b601f0160209004906000526020600020908101906113f99190611470565b50565b82805461140890611840565b90600052602060002090601f01602090048101928261142a57600085556113af565b82601f1061144357805160ff19168380011785556113af565b828001600101855582156113af579182015b828111156113af578251825591602001919060010190611455565b5b808211156113bb5760008155600101611471565b600082601f83011261149657600080fd5b813567ffffffffffffffff808211156114b1576114b16118c7565b604051601f8301601f19908116603f011681019082821181831017156114d9576114d96118c7565b816040528381528660208588010111156114f257600080fd5b836020870160208301376000602085830101528094505050505092915050565b803560ff8116811461152357600080fd5b919050565b60008060006060848603121561153d57600080fd5b833567ffffffffffffffff8082111561155557600080fd5b61156187838801611485565b9450602086013591508082111561157757600080fd5b5061158486828701611485565b9250506040840135611595816118dd565b809150509250925092565b6000602082840312156115b257600080fd5b81516115bd816118dd565b9392505050565b6000602082840312156115d657600080fd5b6115bd82611512565b600080604083850312156115f257600080fd5b6115fb83611512565b915060208301356001600160a01b038116811461161757600080fd5b809150509250929050565b6000806040838503121561163557600080fd5b61163e83611512565b91506020830135801515811461161757600080fd5b6000815180845260005b818110156116795760208185018101518683018201520161165d565b8181111561168b576000602083870101525b50601f01601f19169290920160200192915050565b60006101008083526116b48184018c611653565b905082810360208401526116c8818b611653565b891515604085015267ffffffffffffffff891660608501526001600160801b03888116608086015287811660a0860152861660c08501529150506005831061172057634e487b7160e01b600052602160045260246000fd5b8260e08301529998505050505050505050565b6020808252601c908201527f21457272203a2057726f6e6720776f726b666c6f772073746174757300000000604082015260600190565b60208082526011908201527010a2b9391d103737ba1036b0b730b3b2b960791b604082015260600190565b60006001600160801b038083168185168083038211156117b7576117b761189b565b01949350505050565b600082198211156117d3576117d361189b565b500190565b60006001600160801b03838116908316818110156117f8576117f861189b565b039392505050565b600060ff821660ff84168082101561181a5761181a61189b565b90039392505050565b600060ff8216806118365761183661189b565b6000190192915050565b600181811c9082168061185457607f821691505b6020821081141561187557634e487b7160e01b600052602260045260246000fd5b50919050565b600060ff821660ff8114156118925761189261189b565b60010192915050565b634e487b7160e01b600052601160045260246000fd5b634e487b7160e01b600052602160045260246000fd5b634e487b7160e01b600052604160045260246000fd5b6001600160801b03811681146113f957600080fdfea26469706673582212206d4b7e312918bcdd89f0aa2c778c52ce639e00083c950a35ba64f595b3048d8e64736f6c63430008060033a264697066735822122023a1ec66172251eb68fbfc3227b8987b3896fa914ccba65f876ad8c6b905fe0564736f6c63430008060033a2646970667358221220be224a5dbfd7fc96b77aac2cda30bcf8346567c2d1bc82f7ba0b7e3c390ae0ab64736f6c63430008060033",
  "immutableReferences": {
    "966": [
      {
        "length": 32,
        "start": 182
      },
      {
        "length": 32,
        "start": 980
      }
    ],
    "968": [
      {
        "length": 32,
        "start": 482
      },
      {
        "length": 32,
        "start": 1013
      }
    ]
  },
  "source": "// SPDX-License-Identifier: MIT\r\npragma solidity 0.8.6;\r\n\r\nimport \"./Campaign.sol\";\r\nimport \"./interfaces/ICampaign.sol\";\r\nimport \"./interfaces/ICampaignFactory.sol\";\r\n\r\n/**\r\n* @title CampaignFactory\r\n* @notice The Campaign factory is used for the deployment of new campaign\r\n* @dev Inherit of for the CampaignFactory Interface\r\n*/\r\ncontract CampaignFactory is ICampaignFactory {\r\n\r\n    address public owner;\r\n    ICampaign[] public deployedCampaigns;\r\n    mapping(address => uint) public contractIndex;\r\n    mapping(address => bool) public contractExist;\r\n    IERC20 public immutable usdcToken;\r\n    address public immutable escrowContract;\r\n\r\n    //Events\r\n    event newCampaign(address campaignAddress);\r\n\r\n    constructor(address _usdcToken, address _escrowContract){\r\n        owner = msg.sender;\r\n        usdcToken = IERC20(_usdcToken);\r\n        escrowContract = _escrowContract;\r\n    }\r\n\r\n    /**\r\n     * @inheritdoc ICampaignFactory\r\n     */\r\n    function createCampaign(ICampaign.Info memory infoData, ICampaign.Rewards[] memory rewardsData) external override {\r\n        ICampaign _newCampaign = new Campaign(infoData, rewardsData, msg.sender, usdcToken, escrowContract);\r\n        deployedCampaigns.push(_newCampaign);\r\n        contractIndex[address(_newCampaign)] = getLastDeployedCampaignsIndex();\r\n        contractExist[address(_newCampaign)] = true;\r\n        emit newCampaign(address(_newCampaign));\r\n    }\r\n\r\n    /**\r\n     * @inheritdoc ICampaignFactory\r\n     */\r\n    function deleteCampaign() public override returns (bool){\r\n        require(contractExist[msg.sender], \"!Err: Not exist\");\r\n        uint _indexToSwap = contractIndex[msg.sender];\r\n        if (_indexToSwap != getLastDeployedCampaignsIndex()) {\r\n            deployedCampaigns[_indexToSwap] = deployedCampaigns[getLastDeployedCampaignsIndex()];\r\n            contractIndex[address(deployedCampaigns[getLastDeployedCampaignsIndex()])] = _indexToSwap;\r\n        }\r\n        deployedCampaigns.pop();\r\n        delete contractIndex[msg.sender];\r\n        delete contractExist[msg.sender];\r\n        return true;\r\n    }\r\n\r\n    /**\r\n     * @inheritdoc ICampaignFactory\r\n     */\r\n    function updateOwner(address newOwner) external override {\r\n        require(owner == msg.sender, \"!Not Authorized\");\r\n        owner = newOwner;\r\n    }\r\n\r\n    /**\r\n     * @inheritdoc ICampaignFactory\r\n     */\r\n    function getDeployedCampaignsList() external override view returns (ICampaign[] memory){\r\n        return deployedCampaigns;\r\n    }\r\n\r\n    /**\r\n     * @notice Helper to get the index of the last campaign deployed\r\n     * @return index uint index of the last elem of the deployedCampaigns array\r\n     */\r\n    function getLastDeployedCampaignsIndex() internal view returns (uint){\r\n        return deployedCampaigns.length - 1;\r\n    }\r\n}\r\n",
  "sourcePath": "A:/Programing/Projet_Final/SparkUp/contracts/CampaignFactory.sol",
  "compiler": {
    "name": "solc",
    "version": "0.8.6+commit.11564f7e.Emscripten.clang"
  },
  "schemaVersion": "3.4.1",
  "updatedAt": "2021-08-01T17:43:27.745Z",
  "networkType": "ethereum",
  "devdoc": {
    "details": "Inherit of for the CampaignFactory Interface",
    "kind": "dev",
    "methods": {
      "createCampaign((string,string,uint64,uint128),(string,string,bool,uint16,uint64,uint128,uint128)[])": {
        "params": {
          "infoData": "ICampaign.Info basic information for a campaign following the Campaign Info structure",
          "rewardsData": "ICampaign.Rewards array of rewards information for a campaign following the Campaign Info structure"
        }
      },
      "deleteCampaign()": {
        "details": "Only an contract already deployed must be able to call this function",
        "returns": {
          "_0": "success bool"
        }
      },
      "getDeployedCampaignsList()": {
        "returns": {
          "_0": "Campaigns ICampaign[] list of campaigns address deployed and still actives"
        }
      },
      "updateOwner(address)": {
        "details": "Only the actual owner must be able to call this function",
        "params": {
          "newOwner": "address The new owner address"
        }
      }
    },
    "title": "CampaignFactory",
    "version": 1
  },
  "userdoc": {
    "kind": "user",
    "methods": {
      "createCampaign((string,string,uint64,uint128),(string,string,bool,uint16,uint64,uint128,uint128)[])": {
        "notice": "Create a new Campaign contract and init it"
      },
      "deleteCampaign()": {
        "notice": "Delete a new Campaign that call this function."
      },
      "getDeployedCampaignsList()": {
        "notice": "Allow to get the all list of campaign address deployed"
      },
      "updateOwner(address)": {
        "notice": "Allow the owner to set a new owner for the factory."
      }
    },
    "notice": "The Campaign factory is used for the deployment of new campaign",
    "version": 1
  }
}