{
  "contractName": "Campaign",
  "abi": [
    {
      "inputs": [
        {
          "components": [
            {
              "internalType": "string",
              "name": "title",
              "type": "string"
            },
            {
              "internalType": "string",
              "name": "description",
              "type": "string"
            },
            {
              "internalType": "uint256",
              "name": "fundingGoal",
              "type": "uint256"
            },
            {
              "internalType": "uint256",
              "name": "deadlineDate",
              "type": "uint256"
            }
          ],
          "internalType": "struct ICampaign.Info",
          "name": "infoData",
          "type": "tuple"
        },
        {
          "components": [
            {
              "internalType": "string",
              "name": "title",
              "type": "string"
            },
            {
              "internalType": "string",
              "name": "description",
              "type": "string"
            },
            {
              "internalType": "uint256",
              "name": "minimumContribution",
              "type": "uint256"
            },
            {
              "internalType": "uint256",
              "name": "amount",
              "type": "uint256"
            },
            {
              "internalType": "uint256",
              "name": "stockLimit",
              "type": "uint256"
            },
            {
              "internalType": "uint256",
              "name": "nbContributors",
              "type": "uint256"
            },
            {
              "internalType": "bool",
              "name": "isStockLimited",
              "type": "bool"
            }
          ],
          "internalType": "struct ICampaign.Rewards[]",
          "name": "rewardsData",
          "type": "tuple[]"
        },
        {
          "internalType": "address",
          "name": "_manager",
          "type": "address"
        },
        {
          "internalType": "contract IERC20",
          "name": "_usdcToken",
          "type": "address"
        },
        {
          "internalType": "address",
          "name": "_escrowContract",
          "type": "address"
        }
      ],
      "stateMutability": "nonpayable",
      "type": "constructor"
    },
    {
      "inputs": [
        {
          "internalType": "address",
          "name": "",
          "type": "address"
        }
      ],
      "name": "contributorBalances",
      "outputs": [
        {
          "internalType": "uint256",
          "name": "",
          "type": "uint256"
        }
      ],
      "stateMutability": "view",
      "type": "function"
    },
    {
      "inputs": [],
      "name": "createAt",
      "outputs": [
        {
          "internalType": "uint256",
          "name": "",
          "type": "uint256"
        }
      ],
      "stateMutability": "view",
      "type": "function"
    },
    {
      "inputs": [],
      "name": "escrowContract",
      "outputs": [
        {
          "internalType": "address",
          "name": "",
          "type": "address"
        }
      ],
      "stateMutability": "view",
      "type": "function"
    },
    {
      "inputs": [],
      "name": "factory",
      "outputs": [
        {
          "internalType": "address",
          "name": "",
          "type": "address"
        }
      ],
      "stateMutability": "view",
      "type": "function"
    },
    {
      "inputs": [],
      "name": "manager",
      "outputs": [
        {
          "internalType": "address",
          "name": "",
          "type": "address"
        }
      ],
      "stateMutability": "view",
      "type": "function"
    },
    {
      "inputs": [],
      "name": "proposal",
      "outputs": [
        {
          "internalType": "address",
          "name": "",
          "type": "address"
        }
      ],
      "stateMutability": "view",
      "type": "function"
    },
    {
      "inputs": [
        {
          "internalType": "uint256",
          "name": "",
          "type": "uint256"
        },
        {
          "internalType": "address",
          "name": "",
          "type": "address"
        }
      ],
      "name": "rewardToContributor",
      "outputs": [
        {
          "internalType": "uint256",
          "name": "",
          "type": "uint256"
        }
      ],
      "stateMutability": "view",
      "type": "function"
    },
    {
      "inputs": [],
      "name": "rewardsCounter",
      "outputs": [
        {
          "internalType": "uint8",
          "name": "",
          "type": "uint8"
        }
      ],
      "stateMutability": "view",
      "type": "function"
    },
    {
      "inputs": [
        {
          "internalType": "uint256",
          "name": "",
          "type": "uint256"
        }
      ],
      "name": "rewardsList",
      "outputs": [
        {
          "internalType": "string",
          "name": "title",
          "type": "string"
        },
        {
          "internalType": "string",
          "name": "description",
          "type": "string"
        },
        {
          "internalType": "uint256",
          "name": "minimumContribution",
          "type": "uint256"
        },
        {
          "internalType": "uint256",
          "name": "amount",
          "type": "uint256"
        },
        {
          "internalType": "uint256",
          "name": "stockLimit",
          "type": "uint256"
        },
        {
          "internalType": "uint256",
          "name": "nbContributors",
          "type": "uint256"
        },
        {
          "internalType": "bool",
          "name": "isStockLimited",
          "type": "bool"
        }
      ],
      "stateMutability": "view",
      "type": "function"
    },
    {
      "inputs": [],
      "name": "status",
      "outputs": [
        {
          "internalType": "enum ICampaign.WorkflowStatus",
          "name": "",
          "type": "uint8"
        }
      ],
      "stateMutability": "view",
      "type": "function"
    },
    {
      "inputs": [],
      "name": "totalRaised",
      "outputs": [
        {
          "internalType": "uint256",
          "name": "",
          "type": "uint256"
        }
      ],
      "stateMutability": "view",
      "type": "function"
    },
    {
      "inputs": [],
      "name": "usdcToken",
      "outputs": [
        {
          "internalType": "contract IERC20",
          "name": "",
          "type": "address"
        }
      ],
      "stateMutability": "view",
      "type": "function"
    },
    {
      "inputs": [],
      "name": "getCampaignInfo",
      "outputs": [
        {
          "components": [
            {
              "internalType": "string",
              "name": "title",
              "type": "string"
            },
            {
              "internalType": "string",
              "name": "description",
              "type": "string"
            },
            {
              "internalType": "uint256",
              "name": "fundingGoal",
              "type": "uint256"
            },
            {
              "internalType": "uint256",
              "name": "deadlineDate",
              "type": "uint256"
            }
          ],
          "internalType": "struct ICampaign.Info",
          "name": "",
          "type": "tuple"
        },
        {
          "internalType": "uint256",
          "name": "",
          "type": "uint256"
        },
        {
          "internalType": "address",
          "name": "",
          "type": "address"
        },
        {
          "internalType": "enum ICampaign.WorkflowStatus",
          "name": "",
          "type": "uint8"
        },
        {
          "internalType": "uint256",
          "name": "",
          "type": "uint256"
        }
      ],
      "stateMutability": "view",
      "type": "function"
    },
    {
      "inputs": [
        {
          "components": [
            {
              "internalType": "string",
              "name": "title",
              "type": "string"
            },
            {
              "internalType": "string",
              "name": "description",
              "type": "string"
            },
            {
              "internalType": "uint256",
              "name": "fundingGoal",
              "type": "uint256"
            },
            {
              "internalType": "uint256",
              "name": "deadlineDate",
              "type": "uint256"
            }
          ],
          "internalType": "struct ICampaign.Info",
          "name": "newInfo",
          "type": "tuple"
        }
      ],
      "name": "updateCampaign",
      "outputs": [],
      "stateMutability": "nonpayable",
      "type": "function"
    },
    {
      "inputs": [
        {
          "components": [
            {
              "internalType": "string",
              "name": "title",
              "type": "string"
            },
            {
              "internalType": "string",
              "name": "description",
              "type": "string"
            },
            {
              "internalType": "uint256",
              "name": "minimumContribution",
              "type": "uint256"
            },
            {
              "internalType": "uint256",
              "name": "amount",
              "type": "uint256"
            },
            {
              "internalType": "uint256",
              "name": "stockLimit",
              "type": "uint256"
            },
            {
              "internalType": "uint256",
              "name": "nbContributors",
              "type": "uint256"
            },
            {
              "internalType": "bool",
              "name": "isStockLimited",
              "type": "bool"
            }
          ],
          "internalType": "struct ICampaign.Rewards",
          "name": "newRewardData",
          "type": "tuple"
        }
      ],
      "name": "addReward",
      "outputs": [],
      "stateMutability": "nonpayable",
      "type": "function"
    },
    {
      "inputs": [
        {
          "components": [
            {
              "internalType": "string",
              "name": "title",
              "type": "string"
            },
            {
              "internalType": "string",
              "name": "description",
              "type": "string"
            },
            {
              "internalType": "uint256",
              "name": "minimumContribution",
              "type": "uint256"
            },
            {
              "internalType": "uint256",
              "name": "amount",
              "type": "uint256"
            },
            {
              "internalType": "uint256",
              "name": "stockLimit",
              "type": "uint256"
            },
            {
              "internalType": "uint256",
              "name": "nbContributors",
              "type": "uint256"
            },
            {
              "internalType": "bool",
              "name": "isStockLimited",
              "type": "bool"
            }
          ],
          "internalType": "struct ICampaign.Rewards",
          "name": "newRewardData",
          "type": "tuple"
        },
        {
          "internalType": "uint256",
          "name": "rewardIndex",
          "type": "uint256"
        }
      ],
      "name": "updateReward",
      "outputs": [],
      "stateMutability": "nonpayable",
      "type": "function"
    },
    {
      "inputs": [],
      "name": "deleteCampaign",
      "outputs": [],
      "stateMutability": "nonpayable",
      "type": "function"
    },
    {
      "inputs": [
        {
          "internalType": "uint256",
          "name": "rewardIndex",
          "type": "uint256"
        }
      ],
      "name": "deleteReward",
      "outputs": [],
      "stateMutability": "nonpayable",
      "type": "function"
    },
    {
      "inputs": [
        {
          "internalType": "address",
          "name": "newManager",
          "type": "address"
        }
      ],
      "name": "updateManager",
      "outputs": [],
      "stateMutability": "nonpayable",
      "type": "function"
    },
    {
      "inputs": [],
      "name": "publishCampaign",
      "outputs": [],
      "stateMutability": "nonpayable",
      "type": "function"
    },
    {
      "inputs": [
        {
          "internalType": "uint256",
          "name": "_amount",
          "type": "uint256"
        },
        {
          "internalType": "uint8",
          "name": "rewardIndex",
          "type": "uint8"
        }
      ],
      "name": "contribute",
      "outputs": [],
      "stateMutability": "nonpayable",
      "type": "function"
    },
    {
      "inputs": [],
      "name": "refund",
      "outputs": [],
      "stateMutability": "nonpayable",
      "type": "function"
    },
    {
      "inputs": [],
      "name": "launchProposalContract",
      "outputs": [],
      "stateMutability": "nonpayable",
      "type": "function"
    },
    {
      "inputs": [],
      "name": "getContractUSDCBalance",
      "outputs": [
        {
          "internalType": "uint256",
          "name": "",
          "type": "uint256"
        }
      ],
      "stateMutability": "view",
      "type": "function"
    },
    {
      "inputs": [
        {
          "internalType": "uint256",
          "name": "_amount",
          "type": "uint256"
        }
      ],
      "name": "realeaseProposalFunds",
      "outputs": [],
      "stateMutability": "nonpayable",
      "type": "function"
    }
  ],
  "bytecode": "0x60c06040523480156200001157600080fd5b5060405162004794380380620047948339810160408190526200003491620007af565b60008451116200008b5760405162461bcd60e51b815260206004820152601360248201527f214572723a205265776172647320656d7074790000000000000000000000000060448201526064015b60405180910390fd5b600a84511115620000df5760405162461bcd60e51b815260206004820152601660248201527f214572723a20546f6f206d756368205265776172647300000000000000000000604482015260640162000082565b600380546001600160a01b0385166001600160a01b0319918216179091556004805490911633179055426002556005805460ff60a01b191690556001600160601b0319606083811b821660a05282901b166080526200013e85620001b8565b60005b84518160ff1610156200019757620001828160ff16868360ff16815181106200016e576200016e620009d4565b60200260200101516200035d60201b60201c565b806200018e816200099b565b91505062000141565b505091516000805460ff191660ff9092169190911790555062000a00915050565b805151620001fd5760405162461bcd60e51b8152602060048201526011602482015270214572723a205469746c6520656d70747960781b604482015260640162000082565b600081602001515111620002545760405162461bcd60e51b815260206004820152601760248201527f214572723a204465736372697074696f6e20656d707479000000000000000000604482015260640162000082565b683635c9adc5dea0000081604001511015620002b35760405162461bcd60e51b815260206004820152601d60248201527f214572723a2046756e64696e6720476f616c206e6f7420656e6f756768000000604482015260640162000082565b6060810151600254620002ca9062093a8062000943565b11156200031a5760405162461bcd60e51b815260206004820152601b60248201527f214572723a20646561646c696e654461746520746f2073686f72740000000000604482015260640162000082565b805180516200033291600691602090910190620004f7565b5060208082015180516200034b926007920190620004f7565b50604081015160085560600151600955565b805151620003a25760405162461bcd60e51b8152602060048201526011602482015270214572723a205469746c6520656d70747960781b604482015260640162000082565b600081602001515111620003f95760405162461bcd60e51b815260206004820152601760248201527f214572723a204465736372697074696f6e20656d707479000000000000000000604482015260640162000082565b6200043c6040518060e001604052806060815260200160608152602001600081526020016000815260200160008152602001600081526020016000151581525090565b8151815260208083015181830152604080840151818401526080808501519084015260a0808501519084015260c0808501511515908401526000858152600a83522082518051849362000494928492910190620004f7565b506020828101518051620004af9260018501920190620004f7565b5060408201516002820155606082015160038201556080820151600482015560a0820151600582015560c0909101516006909101805460ff1916911515919091179055505050565b82805462000505906200095e565b90600052602060002090601f01602090048101928262000529576000855562000574565b82601f106200054457805160ff191683800117855562000574565b8280016001018555821562000574579182015b828111156200057457825182559160200191906001019062000557565b506200058292915062000586565b5090565b5b8082111562000582576000815560010162000587565b80516001600160a01b0381168114620005b557600080fd5b919050565b600082601f830112620005cc57600080fd5b815160206001600160401b0380831115620005eb57620005eb620009ea565b8260051b620005fc83820162000910565b8481528381019087850183890186018a10156200061857600080fd5b600093505b86841015620006fc578051858111156200063657600080fd5b890160e0818c03601f19018113156200064e57600080fd5b62000658620008c0565b88830151888111156200066a57600080fd5b6200067a8e8b838701016200071a565b825250604080840151898111156200069157600080fd5b620006a18f8c838801016200071a565b8b84015250606080850151828401526080915081850151818401525060a0808501518284015260c09150818501518184015250620006e183850162000709565b9082015285525050600193909301929185019185016200061d565b5098975050505050505050565b80518015158114620005b557600080fd5b600082601f8301126200072c57600080fd5b81516001600160401b03811115620007485762000748620009ea565b60206200075e601f8301601f1916820162000910565b82815285828487010111156200077357600080fd5b60005b838110156200079357858101830151828201840152820162000776565b83811115620007a55760008385840101525b5095945050505050565b600080600080600060a08688031215620007c857600080fd5b85516001600160401b0380821115620007e057600080fd5b908701906080828a031215620007f557600080fd5b620007ff620008eb565b8251828111156200080f57600080fd5b6200081d8b8286016200071a565b8252506020830151828111156200083357600080fd5b620008418b8286016200071a565b60208301525060408301516040820152606083015160608201528097505060208801519150808211156200087457600080fd5b506200088388828901620005ba565b94505062000894604087016200059d565b9250620008a4606087016200059d565b9150620008b4608087016200059d565b90509295509295909350565b60405160e081016001600160401b0381118282101715620008e557620008e5620009ea565b60405290565b604051608081016001600160401b0381118282101715620008e557620008e5620009ea565b604051601f8201601f191681016001600160401b03811182821017156200093b576200093b620009ea565b604052919050565b60008219821115620009595762000959620009be565b500190565b600181811c908216806200097357607f821691505b602082108114156200099557634e487b7160e01b600052602260045260246000fd5b50919050565b600060ff821660ff811415620009b557620009b5620009be565b60010192915050565b634e487b7160e01b600052601160045260246000fd5b634e487b7160e01b600052603260045260246000fd5b634e487b7160e01b600052604160045260246000fd5b60805160601c60a05160601c613d3e62000a56600039600081816101c50152818161042e015281816106f5015281816109e701528181610cd7015261113f0152600081816103dd01526106b00152613d3e6000f3fe60806040523480156200001157600080fd5b5060043610620001915760003560e01c8063590e1ae311620000f0578063c45a015511620000a3578063d355f006116200007a578063d355f00614620003a3578063d6290cd714620003ba578063e42a96e714620003d7578063e7cf1ab714620003ff57600080fd5b8063c45a0155146200036e578063c5c4744c1462000382578063cc2e554a146200038c57600080fd5b8063590e1ae314620002e25780636bdca7d514620002ec578063753ec103146200031a5780637ef59f84146200032e578063bd39e0151462000338578063bf1d4cad146200036457600080fd5b8063287af4321162000149578063287af432146200024f57806337acecce1462000272578063481c6a7514620002895780634d92f0dc146200029d57806356212d5914620002b457806358aba00f14620002cb57600080fd5b80622772c214620001965780630d4c4a2f14620001b357806311eac85514620001bf578063200d2ed21462000200578063205b09141462000224578063244c3c2c1462000245575b600080fd5b620001a062000416565b6040519081526020015b60405180910390f35b620001bd620004b9565b005b620001e77f000000000000000000000000000000000000000000000000000000000000000081565b6040516001600160a01b039091168152602001620001aa565b6005546200021590600160a01b900460ff1681565b604051620001aa91906200240a565b600054620002329060ff1681565b60405160ff9091168152602001620001aa565b620001bd62000722565b620001a06200026036600462002185565b600c6020526000908152604090205481565b620001bd62000283366004620021c3565b620008c3565b600354620001e7906001600160a01b031681565b620001bd620002ae36600462002300565b62000983565b620001bd620002c5366004620022b7565b62000a11565b620001bd620002dc36600462002185565b62000b27565b620001bd62000b76565b620001a0620002fd36600462002334565b600b60209081526000928352604080842090915290825290205481565b600554620001e7906001600160a01b031681565b620001bd62000d07565b6200034f6200034936600462002300565b62000e3e565b604051620001aa97969594939291906200242f565b620001a060025481565b600454620001e7906001600160a01b031681565b620001a060015481565b620001bd6200039d36600462002363565b62000f9c565b620001bd620003b436600462002276565b62001270565b620003c462001369565b604051620001aa95949392919062002515565b620001e77f000000000000000000000000000000000000000000000000000000000000000081565b620001bd6200041036600462002300565b6200156a565b6040516370a0823160e01b81523060048201526000907f00000000000000000000000000000000000000000000000000000000000000006001600160a01b0316906370a082319060240160206040518083038186803b1580156200047957600080fd5b505afa1580156200048e573d6000803e3d6000fd5b505050506040513d601f19601f82011682018060405250810190620004b491906200231a565b905090565b6003546001600160a01b03163314620004ef5760405162461bcd60e51b8152600401620004e69062002485565b60405180910390fd5b6005808054600160a01b900460ff169081111562000511576200051162002759565b1415620005325760405162461bcd60e51b8152600401620004e690620024e5565b600554600160a01b900460ff1660028082600581111562000557576200055762002759565b14620005775760405162461bcd60e51b8152600401620004e690620024ae565b6005546001600160a01b031615620005d25760405162461bcd60e51b815260206004820152601f60248201527f214572723a2070726f706f73616c20616c7265616479206465706c6f796564006044820152606401620004e6565b6009544211620006315760405162461bcd60e51b8152602060048201526024808201527f214572723a2063616d70676169676e2064656164616c696e65206e6f742070616044820152631cdcd95960e21b6064820152608401620004e6565b60035460405160009130916001600160a01b0390911690620006539062001ea1565b6001600160a01b03928316815291166020820152604001604051809103906000f08015801562000687573d6000803e3d6000fd5b50600580546001600160a01b0319166001600160a01b0383161781556001549192506200071d917f000000000000000000000000000000000000000000000000000000000000000091620006eb91606491620006e49190620017d8565b90620017ef565b6001600160a01b037f0000000000000000000000000000000000000000000000000000000000000000169190620017fd565b505050565b6005808054600160a01b900460ff169081111562000744576200074462002759565b1415620007655760405162461bcd60e51b8152600401620004e690620024e5565b6003546001600160a01b03163314620007925760405162461bcd60e51b8152600401620004e69062002485565b600060058054600160a01b900460ff1690811115620007b557620007b562002759565b1480620007e25750600360058054600160a01b900460ff1690811115620007e057620007e062002759565b145b806200080e5750600460058054600160a01b900460ff16908111156200080c576200080c62002759565b145b6200082d5760405162461bcd60e51b8152600401620004e690620024ae565b6005805460ff60a01b1916600560a01b17905560048054604080516309130f0b60e21b815290516001600160a01b039092169263244c3c2c9282820192602092908290030181600087803b1580156200088557600080fd5b505af11580156200089a573d6000803e3d6000fd5b505050506040513d601f19601f82011682018060405250810190620008c09190620021a3565b50565b6005808054600160a01b900460ff1690811115620008e557620008e562002759565b1415620009065760405162461bcd60e51b8152600401620004e690620024e5565b6003546001600160a01b03163314620009335760405162461bcd60e51b8152600401620004e69062002485565b600554600160a01b900460ff1660008082600581111562000958576200095862002759565b14620009785760405162461bcd60e51b8152600401620004e690620024ae565b6200071d8362001862565b6005546001600160a01b03163314620009d55760405162461bcd60e51b815260206004820152601360248201527208515c9c8e881058d8d95cdcc819195b9a5959606a1b6044820152606401620004e6565b600354620008c0906001600160a01b037f00000000000000000000000000000000000000000000000000000000000000008116911683620017fd565b6005808054600160a01b900460ff169081111562000a335762000a3362002759565b141562000a545760405162461bcd60e51b8152600401620004e690620024e5565b6003546001600160a01b0316331462000a815760405162461bcd60e51b8152600401620004e69062002485565b600554600160a01b900460ff1660008082600581111562000aa65762000aa662002759565b1462000ac65760405162461bcd60e51b8152600401620004e690620024ae565b60005460ff1683111562000b155760405162461bcd60e51b815260206004820152601560248201527408515c9c8e88125b99195e081b9bdd08195e1a5cdd605a1b6044820152606401620004e6565b62000b21838562001a01565b50505050565b6003546001600160a01b0316331462000b545760405162461bcd60e51b8152600401620004e69062002485565b600380546001600160a01b0319166001600160a01b0392909216919091179055565b6009544211801562000b915750600062000b8f62000416565b115b62000bdf5760405162461bcd60e51b815260206004820152601860248201527f214572723a20636f6e646974696f6e73206e6f74206d657400000000000000006044820152606401620004e6565b600160058054600160a01b900460ff169081111562000c025762000c0262002759565b148062000c2f5750600360058054600160a01b900460ff169081111562000c2d5762000c2d62002759565b145b62000c7d5760405162461bcd60e51b815260206004820152601a60248201527f214572723a2077726f6e6720776f726b666c6f777374617475730000000000006044820152606401620004e6565b600160058054600160a01b900460ff169081111562000ca05762000ca062002759565b141562000cbb576005805460ff60a01b1916600360a01b1790555b336000818152600c60205260408120805491905590620008c0907f00000000000000000000000000000000000000000000000000000000000000006001600160a01b03169083620017fd565b6005808054600160a01b900460ff169081111562000d295762000d2962002759565b141562000d4a5760405162461bcd60e51b8152600401620004e690620024e5565b6003546001600160a01b0316331462000d775760405162461bcd60e51b8152600401620004e69062002485565b600554600160a01b900460ff1660008082600581111562000d9c5762000d9c62002759565b1462000dbc5760405162461bcd60e51b8152600401620004e690620024ae565b60095460009062000dd29062093a809062002654565b90504281101562000e265760405162461bcd60e51b815260206004820152601b60248201527f214572723a20646561646c696e654461746520746f2073686f727400000000006044820152606401620004e6565b50506005805460ff60a01b1916600160a01b17905550565b600a6020526000908152604090208054819062000e5b90620026e3565b80601f016020809104026020016040519081016040528092919081815260200182805462000e8990620026e3565b801562000eda5780601f1062000eae5761010080835404028352916020019162000eda565b820191906000526020600020905b81548152906001019060200180831162000ebc57829003601f168201915b50505050509080600101805462000ef190620026e3565b80601f016020809104026020016040519081016040528092919081815260200182805462000f1f90620026e3565b801562000f705780601f1062000f445761010080835404028352916020019162000f70565b820191906000526020600020905b81548152906001019060200180831162000f5257829003601f168201915b505050600284015460038501546004860154600587015460069097015495969295919450925060ff1687565b6005808054600160a01b900460ff169081111562000fbe5762000fbe62002759565b141562000fdf5760405162461bcd60e51b8152600401620004e690620024e5565b6009544210620010415760405162461bcd60e51b815260206004820152602660248201527f21457272203a2043616d706169676e20636f6e747269627574696f6e2068617360448201526508195b99195960d21b6064820152608401620004e6565b600060058054600160a01b900460ff169081111562001064576200106462002759565b14158015620010945750600360058054600160a01b900460ff169081111562001091576200109162002759565b14155b8015620010c25750600460058054600160a01b900460ff1690811115620010bf57620010bf62002759565b14155b620010e15760405162461bcd60e51b8152600401620004e690620024ae565b620010ec8162001b95565b620011315760405162461bcd60e51b815260206004820152601460248201527308515c9c8e881b9bc81b5bdc99481c995dd85c9960621b6044820152606401620004e6565b620011686001600160a01b037f00000000000000000000000000000000000000000000000000000000000000001633308562001bf5565b336000908152600c602052604090205462001184908362001c2f565b336000818152600c602090815260408083209490945560ff85168252600b8152838220928252919091522054620011bd90600162001c2f565b60ff82166000818152600b60209081526040808320338452825280832094909455918152600a9091522060050154620011f890600162001c2f565b60ff82166000908152600a6020526040902060058101919091556003015462001222908362001c2f565b60ff82166000908152600a60205260409020600301556008546200124562000416565b106200126c576005805460ff60a01b1916600160a11b1790556200126862000416565b6001555b5050565b6005808054600160a01b900460ff169081111562001292576200129262002759565b1415620012b35760405162461bcd60e51b8152600401620004e690620024e5565b6003546001600160a01b03163314620012e05760405162461bcd60e51b8152600401620004e69062002485565b600554600160a01b900460ff1660008082600581111562001305576200130562002759565b14620013255760405162461bcd60e51b8152600401620004e690620024ae565b600054620013379060ff168462001a01565b6000805460ff1690806200134b8362002720565b91906101000a81548160ff021916908360ff16021790555050505050565b620013956040518060800160405280606081526020016060815260200160008152602001600081525090565b60008080806005808054600160a01b900460ff1690811115620013bc57620013bc62002759565b1415620013dd5760405162461bcd60e51b8152600401620004e690620024e5565b6002546003546005546001546040805160808101909152600680549095946001600160a01b031693600160a01b900460ff169291908690829082906200142390620026e3565b80601f01602080910402602001604051908101604052809291908181526020018280546200145190620026e3565b8015620014a25780601f106200147657610100808354040283529160200191620014a2565b820191906000526020600020905b8154815290600101906020018083116200148457829003601f168201915b50505050508152602001600182018054620014bd90620026e3565b80601f0160208091040260200160405190810160405280929190818152602001828054620014eb90620026e3565b80156200153c5780601f1062001510576101008083540402835291602001916200153c565b820191906000526020600020905b8154815290600101906020018083116200151e57829003601f168201915b5050509183525050600282015460208201526003909101546040909101529a93995091975095509350915050565b6005808054600160a01b900460ff16908111156200158c576200158c62002759565b1415620015ad5760405162461bcd60e51b8152600401620004e690620024e5565b6003546001600160a01b03163314620015da5760405162461bcd60e51b8152600401620004e69062002485565b600554600160a01b900460ff16600080826005811115620015ff57620015ff62002759565b146200161f5760405162461bcd60e51b8152600401620004e690620024ae565b60005460ff1683106200166d5760405162461bcd60e51b815260206004820152601560248201527408515c9c8e88125b99195e081b9bdd08195e1a5cdd605a1b6044820152606401620004e6565b6000548390620016839060019060ff166200266e565b60ff16146200174d5760008054600a9190620016a59060019060ff166200266e565b60ff16815260208082019290925260409081016000908120868252600a90935220815481908390620016d790620026e3565b620016e492919062001eaf565b506001820181600101908054620016fb90620026e3565b6200170892919062001eaf565b50600282810154908201556003808301549082015560048083015490820155600580830154908201556006918201549101805460ff191660ff90921615159190911790555b60008054600a9190620017669060019060ff166200266e565b60ff168152602001908152602001600020600080820160006200178a919062001f45565b6200179a60018301600062001f45565b506000600282018190556003820181905560048201819055600582018190556006909101805460ff19169055805460ff1690806200134b83620026c3565b6000620017e6828462002632565b90505b92915050565b6000620017e682846200260f565b6040516001600160a01b0383166024820152604481018290526200071d90849063a9059cbb60e01b906064015b60408051601f198184030181529190526020810180516001600160e01b03166001600160e01b03199093169290921790915262001c3d565b805151620018a75760405162461bcd60e51b8152602060048201526011602482015270214572723a205469746c6520656d70747960781b6044820152606401620004e6565b600081602001515111620018f85760405162461bcd60e51b8152602060048201526017602482015276214572723a204465736372697074696f6e20656d70747960481b6044820152606401620004e6565b683635c9adc5dea0000081604001511015620019575760405162461bcd60e51b815260206004820152601d60248201527f214572723a2046756e64696e6720476f616c206e6f7420656e6f7567680000006044820152606401620004e6565b60608101516002546200196e9062093a80620025f4565b1115620019be5760405162461bcd60e51b815260206004820152601b60248201527f214572723a20646561646c696e654461746520746f2073686f727400000000006044820152606401620004e6565b80518051620019d69160069160209091019062001f84565b506020808201518051620019ef92600792019062001f84565b50604081015160085560600151600955565b80515162001a465760405162461bcd60e51b8152602060048201526011602482015270214572723a205469746c6520656d70747960781b6044820152606401620004e6565b60008160200151511162001a975760405162461bcd60e51b8152602060048201526017602482015276214572723a204465736372697074696f6e20656d70747960481b6044820152606401620004e6565b62001ada6040518060e001604052806060815260200160608152602001600081526020016000815260200160008152602001600081526020016000151581525090565b8151815260208083015181830152604080840151818401526080808501519084015260a0808501519084015260c0808501511515908401526000858152600a83522082518051849362001b3292849291019062001f84565b50602082810151805162001b4d926001850192019062001f84565b5060408201516002820155606082015160038201556080820151600482015560a0820151600582015560c0909101516006909101805460ff1916911515919091179055505050565b60ff8082166000908152600a602052604081206006015490911662001bbc57506001919050565b60ff82166000908152600a602052604090206005810154600490910154111562001be857506001919050565b506000919050565b919050565b6040516001600160a01b038085166024830152831660448201526064810182905262000b219085906323b872dd60e01b906084016200182a565b6000620017e68284620025f4565b600062001c94826040518060400160405280602081526020017f5361666545524332303a206c6f772d6c6576656c2063616c6c206661696c6564815250856001600160a01b031662001d169092919063ffffffff16565b8051909150156200071d578080602001905181019062001cb59190620021a3565b6200071d5760405162461bcd60e51b815260206004820152602a60248201527f5361666545524332303a204552433230206f7065726174696f6e20646964206e6044820152691bdd081cdd58d8d9595960b21b6064820152608401620004e6565b606062001d27848460008562001d31565b90505b9392505050565b60608247101562001d945760405162461bcd60e51b815260206004820152602660248201527f416464726573733a20696e73756666696369656e742062616c616e636520666f6044820152651c8818d85b1b60d21b6064820152608401620004e6565b843b62001de45760405162461bcd60e51b815260206004820152601d60248201527f416464726573733a2063616c6c20746f206e6f6e2d636f6e74726163740000006044820152606401620004e6565b600080866001600160a01b0316858760405162001e029190620023ec565b60006040518083038185875af1925050503d806000811462001e41576040519150601f19603f3d011682016040523d82523d6000602084013e62001e46565b606091505b509150915062001e5882828662001e63565b979650505050505050565b6060831562001e7457508162001d2a565b82511562001e855782518084602001fd5b8160405162461bcd60e51b8152600401620004e691906200241a565b611574806200279583390190565b82805462001ebd90620026e3565b90600052602060002090601f01602090048101928262001ee1576000855562001f33565b82601f1062001ef4578054855562001f33565b8280016001018555821562001f3357600052602060002091601f016020900482015b8281111562001f3357825482559160010191906001019062001f16565b5062001f4192915062002001565b5090565b50805462001f5390620026e3565b6000825580601f1062001f64575050565b601f016020900490600052602060002090810190620008c0919062002001565b82805462001f9290620026e3565b90600052602060002090601f01602090048101928262001fb6576000855562001f33565b82601f1062001fd157805160ff191683800117855562001f33565b8280016001018555821562001f33579182015b8281111562001f3357825182559160200191906001019062001fe4565b5b8082111562001f41576000815560010162002002565b80356001600160a01b038116811462001bf057600080fd5b803562001bf08162002785565b600082601f8301126200204f57600080fd5b813567ffffffffffffffff808211156200206d576200206d6200276f565b604051601f8301601f19908116603f011681019082821181831017156200209857620020986200276f565b81604052838152866020858801011115620020b257600080fd5b836020870160208301376000602085830101528094505050505092915050565b600060e08284031215620020e557600080fd5b620020ef620025a2565b9050813567ffffffffffffffff808211156200210a57600080fd5b62002118858386016200203d565b835260208401359150808211156200212f57600080fd5b506200213e848285016200203d565b60208301525060408201356040820152606082013560608201526080820135608082015260a082013560a08201526200217a60c0830162002030565b60c082015292915050565b6000602082840312156200219857600080fd5b620017e68262002018565b600060208284031215620021b657600080fd5b815162001d2a8162002785565b600060208284031215620021d657600080fd5b813567ffffffffffffffff80821115620021ef57600080fd5b90830190608082860312156200220457600080fd5b6200220e620025ce565b8235828111156200221e57600080fd5b6200222c878286016200203d565b8252506020830135828111156200224257600080fd5b62002250878286016200203d565b602083015250604083013560408201526060830135606082015280935050505092915050565b6000602082840312156200228957600080fd5b813567ffffffffffffffff811115620022a157600080fd5b620022af84828501620020d2565b949350505050565b60008060408385031215620022cb57600080fd5b823567ffffffffffffffff811115620022e357600080fd5b620022f185828601620020d2565b95602094909401359450505050565b6000602082840312156200231357600080fd5b5035919050565b6000602082840312156200232d57600080fd5b5051919050565b600080604083850312156200234857600080fd5b823591506200235a6020840162002018565b90509250929050565b600080604083850312156200237757600080fd5b82359150602083013560ff811681146200239057600080fd5b809150509250929050565b60068110620023ba57634e487b7160e01b600052602160045260246000fd5b9052565b60008151808452620023d881602086016020860162002694565b601f01601f19169290920160200192915050565b600082516200240081846020870162002694565b9190910192915050565b60208101620017e982846200239b565b602081526000620017e66020830184620023be565b60e0815260006200244460e083018a620023be565b828103602084015262002458818a620023be565b604084019890985250506060810194909452608084019290925260a0830152151560c09091015292915050565b6020808252600f908201526e08539bdd08105d5d1a1bdc9a5e9959608a1b604082015260600190565b6020808252601c908201527f21457272203a2057726f6e6720776f726b666c6f772073746174757300000000604082015260600190565b60208082526016908201527508515c9c8e8810d85b5c185a59db8811195b195d195960521b604082015260600190565b60a0815260008651608060a084015262002534610120840182620023be565b90506020880151609f198483030160c0850152620025538282620023be565b915050604088015160e084015260608801516101008401528091505085602083015260018060a01b03851660408301526200259260608301856200239b565b8260808301529695505050505050565b60405160e0810167ffffffffffffffff81118282101715620025c857620025c86200276f565b60405290565b6040516080810167ffffffffffffffff81118282101715620025c857620025c86200276f565b600082198211156200260a576200260a62002743565b500190565b6000826200262d57634e487b7160e01b600052601260045260246000fd5b500490565b60008160001904831182151516156200264f576200264f62002743565b500290565b60008282101562002669576200266962002743565b500390565b600060ff821660ff8416808210156200268b576200268b62002743565b90039392505050565b60005b83811015620026b157818101518382015260200162002697565b8381111562000b215750506000910152565b600060ff821680620026d957620026d962002743565b6000190192915050565b600181811c90821680620026f857607f821691505b602082108114156200271a57634e487b7160e01b600052602260045260246000fd5b50919050565b600060ff821660ff8114156200273a576200273a62002743565b60010192915050565b634e487b7160e01b600052601160045260246000fd5b634e487b7160e01b600052602160045260246000fd5b634e487b7160e01b600052604160045260246000fd5b8015158114620008c057600080fdfe60a060405234801561001057600080fd5b5060405161157438038061157483398101604081905261002f9161008e565b6001600160601b0319606083901b16608052600180546001600160a01b03199081166001600160a01b0394851617909155600080549290931691161790556100c1565b80516001600160a01b038116811461008957600080fd5b919050565b600080604083850312156100a157600080fd5b6100aa83610072565b91506100b860208401610072565b90509250929050565b60805160601c6114956100df600039600061014901526114956000f3fe608060405234801561001057600080fd5b506004361061009e5760003560e01c806381a60c0d1161006657806381a60c0d146101835780638259d553146101965780639980a55a146101a9578063bcfb9b61146101bc578063fb5e76e6146101cf57600080fd5b8063013cf08b146100a357806309eef43e146100d45780630c0512e9146101075780630ce0ebf41461012f57806311765b2714610144575b600080fd5b6100b66100b13660046111cd565b6101e2565b6040516100cb999897969594939291906112e3565b60405180910390f35b6100f76100e2366004611137565b60036020526000908152604090205460ff1681565b60405190151581526020016100cb565b60005461011c90600160a01b900461ffff1681565b60405161ffff90911681526020016100cb565b61014261013d366004611160565b610340565b005b61016b7f000000000000000000000000000000000000000000000000000000000000000081565b6040516001600160a01b0390911681526020016100cb565b6101426101913660046111cd565b6106bb565b6101426101a43660046111cd565b610836565b6101426101b73660046111cd565b610ae2565b6101426101ca3660046111ff565b610b99565b60005461016b906001600160a01b031681565b60026020526000908152604090208054600182018054919291610204906113c0565b80601f0160208091040260200160405190810160405280929190818152602001828054610230906113c0565b801561027d5780601f106102525761010080835404028352916020019161027d565b820191906000526020600020905b81548152906001019060200180831161026057829003601f168201915b505050505090806002018054610292906113c0565b80601f01602080910402602001604051908101604052809291908181526020018280546102be906113c0565b801561030b5780601f106102e05761010080835404028352916020019161030b565b820191906000526020600020905b8154815290600101906020018083116102ee57829003601f168201915b505050600384015460048501546005860154600687015460079097015495969295919450925060ff8082169161010090041689565b6000546001600160a01b031633146103735760405162461bcd60e51b815260040161036a906112b8565b60405180910390fd5b60008054600160a01b900461ffff16908060008381526002602052604090206007015460ff1660048111156103aa576103aa611433565b146103c75760405162461bcd60e51b815260040161036a90611281565b6000546005600160a01b90910461ffff16106104365760405162461bcd60e51b815260206004820152602860248201527f214572723a204d6178696d756d20616d6f756e74206f662070726f706f73616c604482015267081c995858da195960c21b606482015260840161036a565b600085511161047b5760405162461bcd60e51b8152602060048201526011602482015270214572723a205469746c6520656d70747960781b604482015260640161036a565b60008451116104cc5760405162461bcd60e51b815260206004820152601760248201527f214572723a204465736372697074696f6e20656d707479000000000000000000604482015260640161036a565b68056bc75e2d63100000831161051b5760405162461bcd60e51b8152602060048201526014602482015273214572723a20416d6f756e7420746f6f206c6f7760601b604482015260640161036a565b610523610e69565b83111561058e5760405162461bcd60e51b815260206004820152603360248201527f214572723a2050726f706f73616c20616d6f756e7420657863656564732063616044820152726d706169676e20555344432062616c616e636560681b606482015260840161036a565b610596610efc565b60008054600160a01b900461ffff16808352602080840189815260408086018a905260608601899052600160e087018190529385526002835290932084518155925180518594936105ec93908501920190610f59565b5060408201518051610608916002840191602090910190610f59565b50606082015181600301556080820151816004015560a0820151816005015560c0820151816006015560e08201518160070160006101000a81548160ff0219169083600481111561065b5761065b611433565b021790555061010091820151600791909101805461ff00191691151590920217905560008054600160a01b900461ffff16906014610698836113fb565b91906101000a81548161ffff021916908361ffff16021790555050505050505050565b8060028060008381526002602052604090206007015460ff1660048111156106e5576106e5611433565b146107025760405162461bcd60e51b815260040161036a90611281565b60008381526002602052604090206006015442116107625760405162461bcd60e51b815260206004820152601a60248201527f214572723a20566f74696e67207374696c6c206f6e676f696e67000000000000604482015260640161036a565b600083815260026020526040902060078101805460ff1916600490811790915560058201549101541115610818576000838152600260205260409081902060078101805461ff0019166101001790556001546003909101549151631364bc3760e21b815260048101929092526001600160a01b031690634d92f0dc90602401600060405180830381600087803b1580156107fb57600080fd5b505af115801561080f573d6000803e3d6000fd5b50505050505050565b50506000908152600260205260409020600701805461ff0019169055565b6000546001600160a01b031633146108605760405162461bcd60e51b815260040161036a906112b8565b8060018060008381526002602052604090206007015460ff16600481111561088a5761088a611433565b146108a75760405162461bcd60e51b815260040161036a90611281565b6000546108c190600190600160a01b900461ffff1661137f565b61ffff16831415610927576000838152600260205260408120818155906108eb6001830182610fdd565b6108f9600283016000610fdd565b5060006003820181905560048201819055600582018190556006820155600701805461ffff19169055610aa7565b600080546002919061094690600190600160a01b900461ffff1661137f565b61ffff16815260208082019290925260409081016000908120868252600290935220815481556001808301805491830191610980906113c0565b61098b92919061101a565b5060028201816002019080546109a0906113c0565b6109ab92919061101a565b5060038281015490820155600480830154818301556005808401549083015560068084015490830155600780840154908301805460ff90921692909160ff1916906001908490811115610a0057610a00611433565b02179055506007918201549101805461ff0019166101009283900460ff1615159092029190911790556000805460029190610a4890600190600160a01b900461ffff1661137f565b61ffff1681526020810191909152604001600090812081815590610a6f6001830182610fdd565b610a7d600283016000610fdd565b5060006003820181905560048201819055600582018190556006820155600701805461ffff191690555b60008054600160a01b900461ffff16906014610ac2836113a2565b91906101000a81548161ffff021916908361ffff16021790555050505050565b6000546001600160a01b03163314610b0c5760405162461bcd60e51b815260040161036a906112b8565b8060018060008381526002602052604090206007015460ff166004811115610b3657610b36611433565b14610b535760405162461bcd60e51b815260040161036a90611281565b6000838152600260208190526040909120600701805460ff19169091179055610b7f4262093a80611367565b600093845260026020526040909320600601929092555050565b8160028060008381526002602052604090206007015460ff166004811115610bc357610bc3611433565b14610be05760405162461bcd60e51b815260040161036a90611281565b60008481526002602052604090206006015484904210610c425760405162461bcd60e51b815260206004820152601f60248201527f214572723a2070726f706f73616c20766f74696e672068617320656e64656400604482015260640161036a565b60015460405163143d7a1960e11b81523360048201526000916001600160a01b03169063287af4329060240160206040518083038186803b158015610c8657600080fd5b505afa158015610c9a573d6000803e3d6000fd5b505050506040513d601f19601f82011682018060405250810190610cbe91906111e6565b11610d0b5760405162461bcd60e51b815260206004820152601760248201527f214572723a206e6f74206120636f6e7472696275746f72000000000000000000604482015260640161036a565b3360009081526003602052604090205460ff1615610d615760405162461bcd60e51b815260206004820152601360248201527208515c9c8e88105b1c9958591e481d9bdd1959606a1b604482015260640161036a565b60015460405163143d7a1960e11b81523360048201526000916001600160a01b03169063287af4329060240160206040518083038186803b158015610da557600080fd5b505afa158015610db9573d6000803e3d6000fd5b505050506040513d601f19601f82011682018060405250810190610ddd91906111e6565b90508415610e1857600086815260026020526040902060040154610e019082610ee9565b600087815260026020526040902060040155610e47565b600086815260026020526040902060050154610e349082610ee9565b6000878152600260205260409020600501555b5050336000908152600360205260409020805460ff1916600117905550505050565b600154604080516213b96160e11b815290516000926001600160a01b031691622772c2916004808301926020929190829003018186803b158015610eac57600080fd5b505afa158015610ec0573d6000803e3d6000fd5b505050506040513d601f19601f82011682018060405250810190610ee491906111e6565b905090565b6000610ef58284611367565b9392505050565b6040518061012001604052806000815260200160608152602001606081526020016000815260200160008152602001600081526020016000815260200160006004811115610f4c57610f4c611433565b8152600060209091015290565b828054610f65906113c0565b90600052602060002090601f016020900481019282610f875760008555610fcd565b82601f10610fa057805160ff1916838001178555610fcd565b82800160010185558215610fcd579182015b82811115610fcd578251825591602001919060010190610fb2565b50610fd9929150611095565b5090565b508054610fe9906113c0565b6000825580601f10610ff9575050565b601f0160209004906000526020600020908101906110179190611095565b50565b828054611026906113c0565b90600052602060002090601f0160209004810192826110485760008555610fcd565b82601f106110595780548555610fcd565b82800160010185558215610fcd57600052602060002091601f016020900482015b82811115610fcd57825482559160010191906001019061107a565b5b80821115610fd95760008155600101611096565b600082601f8301126110bb57600080fd5b813567ffffffffffffffff808211156110d6576110d6611449565b604051601f8301601f19908116603f011681019082821181831017156110fe576110fe611449565b8160405283815286602085880101111561111757600080fd5b836020870160208301376000602085830101528094505050505092915050565b60006020828403121561114957600080fd5b81356001600160a01b0381168114610ef557600080fd5b60008060006060848603121561117557600080fd5b833567ffffffffffffffff8082111561118d57600080fd5b611199878388016110aa565b945060208601359150808211156111af57600080fd5b506111bc868287016110aa565b925050604084013590509250925092565b6000602082840312156111df57600080fd5b5035919050565b6000602082840312156111f857600080fd5b5051919050565b6000806040838503121561121257600080fd5b823591506020830135801515811461122957600080fd5b809150509250929050565b6000815180845260005b8181101561125a5760208185018101518683018201520161123e565b8181111561126c576000602083870101525b50601f01601f19169290920160200192915050565b6020808252601c908201527f21457272203a2057726f6e6720776f726b666c6f772073746174757300000000604082015260600190565b60208082526011908201527010a2b9391d103737ba1036b0b730b3b2b960791b604082015260600190565b60006101208b83528060208401526112fd8184018c611234565b90508281036040840152611311818b611234565b9150508760608301528660808301528560a08301528460c08301526005841061134a57634e487b7160e01b600052602160045260246000fd5b8360e08301528215156101008301529a9950505050505050505050565b6000821982111561137a5761137a61141d565b500190565b600061ffff8381169083168181101561139a5761139a61141d565b039392505050565b600061ffff8216806113b6576113b661141d565b6000190192915050565b600181811c908216806113d457607f821691505b602082108114156113f557634e487b7160e01b600052602260045260246000fd5b50919050565b600061ffff808316818114156114135761141361141d565b6001019392505050565b634e487b7160e01b600052601160045260246000fd5b634e487b7160e01b600052602160045260246000fd5b634e487b7160e01b600052604160045260246000fdfea2646970667358221220a58fb8bd6ed83ac1507bfbcb798ef43fae7afda14986ec65fff3c050d8be47e264736f6c63430008060033a2646970667358221220b51de7cba238f70ece7ef804080b45373d72b4011b045cfc771e81073e91d51d64736f6c63430008060033",
  "immutableReferences": {
    "1069": [
      {
        "length": 32,
        "start": 989
      },
      {
        "length": 32,
        "start": 1712
      }
    ],
    "1072": [
      {
        "length": 32,
        "start": 453
      },
      {
        "length": 32,
        "start": 1070
      },
      {
        "length": 32,
        "start": 1781
      },
      {
        "length": 32,
        "start": 2535
      },
      {
        "length": 32,
        "start": 3287
      },
      {
        "length": 32,
        "start": 4415
      }
    ]
  },
  "source": "// SPDX-License-Identifier: GPL-3.0\r\npragma solidity 0.8.6;\r\n\r\nimport \"./interfaces/ICampaign.sol\";\r\nimport \"./interfaces/ICampaignFactory.sol\";\r\nimport \"./interfaces/IProposal.sol\";\r\nimport \"./Proposal.sol\";\r\nimport '@openzeppelin/contracts/token/ERC20/IERC20.sol';\r\nimport \"@openzeppelin/contracts/token/ERC20/utils/SafeERC20.sol\";\r\nimport \"@openzeppelin/contracts/utils/math/SafeMath.sol\";\r\n\r\ncontract Campaign is ICampaign {\r\n    using SafeMath for uint256;\r\n    using SafeERC20 for IERC20;\r\n    \r\n    uint8 public rewardsCounter;\r\n    uint256 public totalRaised;\r\n    uint256 public createAt;\r\n    address public manager;\r\n    address public factory;\r\n    address public proposal;\r\n\r\n    WorkflowStatus public status;\r\n    address public immutable escrowContract;\r\n    IERC20 public immutable usdcToken;\r\n    Info private campaignInfo;\r\n\r\n    mapping(uint => Rewards) public rewardsList;\r\n    mapping(uint => mapping(address => uint)) public rewardToContributor;\r\n    mapping(address => uint256) public contributorBalances;\r\n\r\n    //Modifiers\r\n    modifier isNotDeleted(){\r\n        require(status != WorkflowStatus.CampaignDeleted, \"!Err: Campaign Deleted\");\r\n        _;\r\n    }\r\n\r\n    modifier onlyManager(){\r\n        require(msg.sender == manager, \"!Not Authorized\");\r\n        _;\r\n    }\r\n\r\n    modifier checkStatus(\r\n        WorkflowStatus currentStatus,\r\n        WorkflowStatus requiredStatus\r\n    ) {\r\n        require(currentStatus == requiredStatus, \"!Err : Wrong workflow status\");\r\n        _;\r\n    }\r\n    \r\n    modifier checkCampaignDeadline() {\r\n        require(block.timestamp <  campaignInfo.deadlineDate, \"!Err : Campaign contribution has ended\");\r\n        _;\r\n    }\r\n\r\n    constructor(Info memory infoData, Rewards[] memory rewardsData, address _manager, IERC20 _usdcToken, address _escrowContract)\r\n    {\r\n        require(rewardsData.length > 0, \"!Err: Rewards empty\");\r\n        require(rewardsData.length <= 10, \"!Err: Too much Rewards\");\r\n        manager = _manager;\r\n        factory = msg.sender;\r\n        createAt = block.timestamp;\r\n        status = WorkflowStatus.CampaignDrafted;\r\n        usdcToken = _usdcToken;\r\n        escrowContract = _escrowContract;\r\n        _setCampaignInfo(infoData);\r\n        uint8 _rewardsCounter;\r\n        for (_rewardsCounter; _rewardsCounter < rewardsData.length; _rewardsCounter++) {\r\n            _setCampaignReward(_rewardsCounter, rewardsData[_rewardsCounter]);\r\n        }\r\n        rewardsCounter = uint8(rewardsData.length) ;\r\n    }\r\n\r\n    /**\r\n     * @inheritdoc ICampaign\r\n     */\r\n    function getCampaignInfo() external view override isNotDeleted() returns(Info memory, uint, address, WorkflowStatus, uint256) {\r\n        return (campaignInfo, createAt, manager, status, totalRaised);\r\n    }\r\n\r\n    /**\r\n     * @inheritdoc ICampaign\r\n     */\r\n    function updateCampaign(Info memory newInfo) external override isNotDeleted() onlyManager() checkStatus(status, WorkflowStatus.CampaignDrafted) {\r\n        _setCampaignInfo(newInfo);\r\n    }\r\n\r\n    /**\r\n     * @inheritdoc ICampaign\r\n     */\r\n    function addReward(Rewards memory newRewardData) external override isNotDeleted() onlyManager() checkStatus(status, WorkflowStatus.CampaignDrafted) {\r\n        _setCampaignReward(rewardsCounter, newRewardData);\r\n        rewardsCounter++;\r\n    }\r\n\r\n    /**\r\n     * @inheritdoc ICampaign\r\n     */\r\n    function updateReward(Rewards memory newRewardData, uint rewardIndex) external override isNotDeleted() onlyManager() checkStatus(status, WorkflowStatus.CampaignDrafted) {\r\n        require(rewardIndex <= rewardsCounter, \"!Err: Index not exist\");\r\n        _setCampaignReward(rewardIndex, newRewardData);\r\n    }\r\n\r\n    /**\r\n    * @notice Internal function that set a new campaign's info and making data validation first.\r\n    * @param data Info Object that contains the Info data following the Info struct\r\n    */\r\n    function _setCampaignInfo(Info memory data) private {\r\n        require(bytes(data.title).length > 0, \"!Err: Title empty\");\r\n        require(bytes(data.description).length > 0, \"!Err: Description empty\");\r\n        require(data.fundingGoal >= 1000 ether, \"!Err: Funding Goal not enough\");\r\n        require(createAt + 7 days <= data.deadlineDate, \"!Err: deadlineDate to short\");\r\n        campaignInfo.title = data.title;\r\n        campaignInfo.description = data.description;\r\n        campaignInfo.fundingGoal = data.fundingGoal;\r\n        campaignInfo.deadlineDate = data.deadlineDate;\r\n    }\r\n\r\n    /**\r\n     * @notice Internal function that set a new campaign's reward level and making data validation first.\r\n     * @param index uint Index of the reward to add\r\n     * @param data Rewards Object that contains the Reward data following the Rewards struct\r\n     */\r\n    function _setCampaignReward(uint index, Rewards memory data) private {\r\n        require(bytes(data.title).length > 0, \"!Err: Title empty\");\r\n        require(bytes(data.description).length > 0, \"!Err: Description empty\");\r\n        Rewards memory r;\r\n        r.title = data.title;\r\n        r.description = data.description;\r\n        r.minimumContribution = data.minimumContribution;\r\n        r.stockLimit = data.stockLimit;\r\n        r.nbContributors = data.nbContributors;\r\n        r.isStockLimited = data.isStockLimited;\r\n        rewardsList[index] = r;\r\n    }\r\n\r\n    /**\r\n     * @inheritdoc ICampaign\r\n     */\r\n    function deleteCampaign() public override isNotDeleted() onlyManager() {\r\n        require(status == WorkflowStatus.CampaignDrafted || status == WorkflowStatus.FundingFailed || status == WorkflowStatus.CampaignCompleted, \"!Err : Wrong workflow status\");\r\n        status = WorkflowStatus.CampaignDeleted;\r\n        ICampaignFactory(factory).deleteCampaign();\r\n    }\r\n\r\n    /**\r\n     * @inheritdoc ICampaign\r\n     */\r\n    function deleteReward(uint256 rewardIndex) external override isNotDeleted() onlyManager() checkStatus(status, WorkflowStatus.CampaignDrafted) {\r\n        require(rewardIndex < rewardsCounter, \"!Err: Index not exist\");\r\n        if((rewardsCounter-1)!=rewardIndex){\r\n            rewardsList[rewardIndex] = rewardsList[rewardsCounter-1];\r\n        }\r\n        delete rewardsList[rewardsCounter-1];\r\n        rewardsCounter--;\r\n    }\r\n\r\n    /**\r\n     * @inheritdoc ICampaign\r\n     */\r\n    function updateManager(address newManager) external override onlyManager() {\r\n        manager = newManager;\r\n    }\r\n\r\n    /**\r\n     * @inheritdoc ICampaign\r\n     */\r\n    function publishCampaign() external override isNotDeleted() onlyManager() checkStatus(status, WorkflowStatus.CampaignDrafted) {\r\n        uint minDate = campaignInfo.deadlineDate - 7 days;\r\n        require(minDate >= block.timestamp, \"!Err: deadlineDate to short\");\r\n        status = WorkflowStatus.CampaignPublished;\r\n    }\r\n    \r\n    /**\r\n     * @inheritdoc ICampaign\r\n     */\r\n    function contribute(uint256 _amount, uint8 rewardIndex) external override isNotDeleted() checkCampaignDeadline() {\r\n        require(status != WorkflowStatus.CampaignDrafted && status != WorkflowStatus.FundingFailed && status != WorkflowStatus.CampaignCompleted, \"!Err : Wrong workflow status\");\r\n        require(checkRewardInventory(rewardIndex), \"!Err: no more reward\");\r\n        usdcToken.safeTransferFrom(msg.sender, address(this), _amount);\r\n        contributorBalances[msg.sender] = contributorBalances[msg.sender].add(_amount);\r\n        rewardToContributor[rewardIndex][msg.sender] = rewardToContributor[rewardIndex][msg.sender].add(1);\r\n        rewardsList[rewardIndex].nbContributors = rewardsList[rewardIndex].nbContributors.add(1);\r\n        rewardsList[rewardIndex].amount = rewardsList[rewardIndex].amount.add(_amount);\r\n        if(getContractUSDCBalance() >= campaignInfo.fundingGoal) {\r\n            status = WorkflowStatus.FundingComplete;\r\n            totalRaised = getContractUSDCBalance();\r\n        }\r\n    }\r\n\r\n    /**\r\n     * @inheritdoc ICampaign\r\n     */\r\n    function refund() external override {\r\n        require(block.timestamp > campaignInfo.deadlineDate && getContractUSDCBalance() > 0, \"!Err: conditions not met\");\r\n        require(status == WorkflowStatus.CampaignPublished || status == WorkflowStatus.FundingFailed, \"!Err: wrong workflowstatus\");\r\n        if (status == WorkflowStatus.CampaignPublished) {\r\n            status = WorkflowStatus.FundingFailed;\r\n        }\r\n        uint256 _balance = contributorBalances[msg.sender];\r\n        delete contributorBalances[msg.sender];\r\n        usdcToken.safeTransfer(msg.sender, _balance);\r\n    }\r\n\r\n    /**\r\n     * @inheritdoc ICampaign\r\n     */\r\n    function launchProposalContract() external override onlyManager() isNotDeleted() checkStatus(status, WorkflowStatus.FundingComplete) {\r\n        require(proposal == address(0), \"!Err: proposal already deployed\");\r\n        require(block.timestamp > campaignInfo.deadlineDate, \"!Err: campgaign deadaline not passed\");\r\n        IProposal _proposalContract = new Proposal(address(this), manager);\r\n        proposal = address(_proposalContract);\r\n        usdcToken.safeTransfer(escrowContract, totalRaised.mul(5).div(100));\r\n    }\r\n\r\n    /**\r\n     * @notice Return the amount in USDC raised by the campaign\r\n     * @dev amount uint USDC raised by the campaign in WEI\r\n     */\r\n    function getContractUSDCBalance() public view returns(uint) {\r\n        return usdcToken.balanceOf(address(this));\r\n    }\r\n\r\n    function realeaseProposalFunds(uint256 _amount) external override {\r\n        require(msg.sender == proposal, \"!Err: Access denied\");\r\n        usdcToken.safeTransfer(manager, _amount);\r\n    }\r\n\r\n    function checkRewardInventory(uint8 rewardIndex) internal view returns (bool) {\r\n        if (!rewardsList[rewardIndex].isStockLimited) {\r\n            return true;\r\n        } else if(rewardsList[rewardIndex].stockLimit > rewardsList[rewardIndex].nbContributors) {\r\n            return true;\r\n        } else {\r\n            return false;\r\n        }\r\n    }\r\n}\r\n",
  "sourcePath": "/Users/Xutyr/Documents/Lab/SparkUp/contracts/Campaign.sol",
  "compiler": {
    "name": "solc",
    "version": "0.8.6+commit.11564f7e.Emscripten.clang"
  },
  "schemaVersion": "3.4.1",
  "updatedAt": "2021-08-01T10:03:01.702Z",
  "devdoc": {
    "kind": "dev",
    "methods": {
      "addReward((string,string,uint256,uint256,uint256,uint256,bool))": {
        "details": "Only the manager must be able to call it.",
        "params": {
          "newRewardData": "Rewards Object that contains all the needed information following the Rewards struct for the campaign"
        }
      },
      "contribute(uint256,uint8)": {
        "details": "Can only be called if campaign is published, is not completed, is not deleted and is not failed."
      },
      "deleteCampaign()": {
        "details": "It's the entry point for deleting a campaign. Only the manager must be able to call it"
      },
      "deleteReward(uint256)": {
        "details": "Only the manager must be able to call it.",
        "params": {
          "rewardIndex": "uint256 Index of the reward to delete"
        }
      },
      "getContractUSDCBalance()": {
        "details": "amount uint USDC raised by the campaign in WEI"
      },
      "launchProposalContract()": {
        "details": "Can only be called by manager and if WorkflowStatus is FundingComplete."
      },
      "publishCampaign()": {
        "details": "Only the manager must be able to call it and only within acceptable deadlineDate timeframe."
      },
      "realeaseProposalFunds(uint256)": {
        "details": "Can only be called by proposal contract when proposal is accepted."
      },
      "refund()": {
        "details": "Can only be called if campiagn deadline is passed and fundingGoal not reached."
      },
      "updateCampaign((string,string,uint256,uint256))": {
        "details": "Only the manager must be able to call it.",
        "params": {
          "updatedInfoData": "Info Object that contains all the new information following the Info struct for the campaign"
        }
      },
      "updateManager(address)": {
        "details": "Only the manager must be able to call it.",
        "params": {
          "newManager": "address Address of the new manager"
        }
      },
      "updateReward((string,string,uint256,uint256,uint256,uint256,bool),uint256)": {
        "details": "Only the manager must be able to call it.",
        "params": {
          "newRewardData": "Rewards Object that contains the new data to set following the Rewards struct for the campaign",
          "rewardIndex": "uint256 Index of the reward to update"
        }
      }
    },
    "version": 1
  },
  "userdoc": {
    "kind": "user",
    "methods": {
      "addReward((string,string,uint256,uint256,uint256,uint256,bool))": {
        "notice": "Add a new reward level to the campaign."
      },
      "contribute(uint256,uint8)": {
        "notice": "Allow contributors to contribute to the campaign."
      },
      "deleteCampaign()": {
        "notice": "Delete the campaign."
      },
      "deleteReward(uint256)": {
        "notice": "Delete a reward by its Id."
      },
      "getCampaignInfo()": {
        "notice": "Returns the campaign information in the struct Info plus de createAt and the managerAddress."
      },
      "getContractUSDCBalance()": {
        "notice": "Return the amount in USDC raised by the campaign"
      },
      "launchProposalContract()": {
        "notice": "Allows manager to deploy proposal contract to start submitting proposals."
      },
      "publishCampaign()": {
        "notice": "Allow the manager to publish campaign and make it visible to potential contributors."
      },
      "realeaseProposalFunds(uint256)": {
        "notice": "Transfer unlocked funds to manager address."
      },
      "refund()": {
        "notice": "Allow contributor to get refunded."
      },
      "updateCampaign((string,string,uint256,uint256))": {
        "notice": "Update the campaign information in the struct Info."
      },
      "updateManager(address)": {
        "notice": "Allow the manager to setup a new one."
      },
      "updateReward((string,string,uint256,uint256,uint256,uint256,bool),uint256)": {
        "notice": "Update the data of a specific reward regarding its id."
      }
    },
    "version": 1
  }
}