{
  "contractName": "Campaign",
  "abi": [
    {
      "inputs": [
        {
          "components": [
            {
              "internalType": "string",
              "name": "title",
              "type": "string"
            },
            {
              "internalType": "string",
              "name": "description",
              "type": "string"
            },
            {
              "internalType": "uint256",
              "name": "fundingGoal",
              "type": "uint256"
            },
            {
              "internalType": "uint256",
              "name": "deadlineDate",
              "type": "uint256"
            }
          ],
          "internalType": "struct ICampaign.Info",
          "name": "infoData",
          "type": "tuple"
        },
        {
          "components": [
            {
              "internalType": "string",
              "name": "title",
              "type": "string"
            },
            {
              "internalType": "string",
              "name": "description",
              "type": "string"
            },
            {
              "internalType": "uint256",
              "name": "minimumContribution",
              "type": "uint256"
            },
            {
              "internalType": "uint256",
              "name": "amount",
              "type": "uint256"
            },
            {
              "internalType": "uint256",
              "name": "stockLimit",
              "type": "uint256"
            },
            {
              "internalType": "uint256",
              "name": "nbContributors",
              "type": "uint256"
            },
            {
              "internalType": "bool",
              "name": "isStockLimited",
              "type": "bool"
            }
          ],
          "internalType": "struct ICampaign.Rewards[]",
          "name": "rewardsData",
          "type": "tuple[]"
        },
        {
          "internalType": "address",
          "name": "_manager",
          "type": "address"
        },
        {
          "internalType": "contract IERC20",
          "name": "_usdcToken",
          "type": "address"
        }
      ],
      "stateMutability": "nonpayable",
      "type": "constructor"
    },
    {
      "inputs": [
        {
          "internalType": "address",
          "name": "",
          "type": "address"
        }
      ],
      "name": "contributorBalances",
      "outputs": [
        {
          "internalType": "uint256",
          "name": "",
          "type": "uint256"
        }
      ],
      "stateMutability": "view",
      "type": "function"
    },
    {
      "inputs": [],
      "name": "createAt",
      "outputs": [
        {
          "internalType": "uint256",
          "name": "",
          "type": "uint256"
        }
      ],
      "stateMutability": "view",
      "type": "function"
    },
    {
      "inputs": [],
      "name": "factory",
      "outputs": [
        {
          "internalType": "address",
          "name": "",
          "type": "address"
        }
      ],
      "stateMutability": "view",
      "type": "function"
    },
    {
      "inputs": [],
      "name": "manager",
      "outputs": [
        {
          "internalType": "address",
          "name": "",
          "type": "address"
        }
      ],
      "stateMutability": "view",
      "type": "function"
    },
    {
      "inputs": [
        {
          "internalType": "uint256",
          "name": "",
          "type": "uint256"
        },
        {
          "internalType": "address",
          "name": "",
          "type": "address"
        }
      ],
      "name": "rewardToContributor",
      "outputs": [
        {
          "internalType": "uint256",
          "name": "",
          "type": "uint256"
        }
      ],
      "stateMutability": "view",
      "type": "function"
    },
    {
      "inputs": [],
      "name": "rewardsCounter",
      "outputs": [
        {
          "internalType": "uint8",
          "name": "",
          "type": "uint8"
        }
      ],
      "stateMutability": "view",
      "type": "function"
    },
    {
      "inputs": [
        {
          "internalType": "uint256",
          "name": "",
          "type": "uint256"
        }
      ],
      "name": "rewardsList",
      "outputs": [
        {
          "internalType": "string",
          "name": "title",
          "type": "string"
        },
        {
          "internalType": "string",
          "name": "description",
          "type": "string"
        },
        {
          "internalType": "uint256",
          "name": "minimumContribution",
          "type": "uint256"
        },
        {
          "internalType": "uint256",
          "name": "amount",
          "type": "uint256"
        },
        {
          "internalType": "uint256",
          "name": "stockLimit",
          "type": "uint256"
        },
        {
          "internalType": "uint256",
          "name": "nbContributors",
          "type": "uint256"
        },
        {
          "internalType": "bool",
          "name": "isStockLimited",
          "type": "bool"
        }
      ],
      "stateMutability": "view",
      "type": "function"
    },
    {
      "inputs": [],
      "name": "status",
      "outputs": [
        {
          "internalType": "enum ICampaign.WorkflowStatus",
          "name": "",
          "type": "uint8"
        }
      ],
      "stateMutability": "view",
      "type": "function"
    },
    {
      "inputs": [],
      "name": "usdcToken",
      "outputs": [
        {
          "internalType": "contract IERC20",
          "name": "",
          "type": "address"
        }
      ],
      "stateMutability": "view",
      "type": "function"
    },
    {
      "inputs": [],
      "name": "getCampaignInfo",
      "outputs": [
        {
          "components": [
            {
              "internalType": "string",
              "name": "title",
              "type": "string"
            },
            {
              "internalType": "string",
              "name": "description",
              "type": "string"
            },
            {
              "internalType": "uint256",
              "name": "fundingGoal",
              "type": "uint256"
            },
            {
              "internalType": "uint256",
              "name": "deadlineDate",
              "type": "uint256"
            }
          ],
          "internalType": "struct ICampaign.Info",
          "name": "",
          "type": "tuple"
        },
        {
          "internalType": "uint256",
          "name": "",
          "type": "uint256"
        },
        {
          "internalType": "address",
          "name": "",
          "type": "address"
        },
        {
          "internalType": "enum ICampaign.WorkflowStatus",
          "name": "",
          "type": "uint8"
        }
      ],
      "stateMutability": "view",
      "type": "function"
    },
    {
      "inputs": [
        {
          "components": [
            {
              "internalType": "string",
              "name": "title",
              "type": "string"
            },
            {
              "internalType": "string",
              "name": "description",
              "type": "string"
            },
            {
              "internalType": "uint256",
              "name": "fundingGoal",
              "type": "uint256"
            },
            {
              "internalType": "uint256",
              "name": "deadlineDate",
              "type": "uint256"
            }
          ],
          "internalType": "struct ICampaign.Info",
          "name": "newInfo",
          "type": "tuple"
        }
      ],
      "name": "updateCampaign",
      "outputs": [],
      "stateMutability": "nonpayable",
      "type": "function"
    },
    {
      "inputs": [
        {
          "components": [
            {
              "internalType": "string",
              "name": "title",
              "type": "string"
            },
            {
              "internalType": "string",
              "name": "description",
              "type": "string"
            },
            {
              "internalType": "uint256",
              "name": "minimumContribution",
              "type": "uint256"
            },
            {
              "internalType": "uint256",
              "name": "amount",
              "type": "uint256"
            },
            {
              "internalType": "uint256",
              "name": "stockLimit",
              "type": "uint256"
            },
            {
              "internalType": "uint256",
              "name": "nbContributors",
              "type": "uint256"
            },
            {
              "internalType": "bool",
              "name": "isStockLimited",
              "type": "bool"
            }
          ],
          "internalType": "struct ICampaign.Rewards",
          "name": "newRewardData",
          "type": "tuple"
        }
      ],
      "name": "addReward",
      "outputs": [],
      "stateMutability": "nonpayable",
      "type": "function"
    },
    {
      "inputs": [
        {
          "components": [
            {
              "internalType": "string",
              "name": "title",
              "type": "string"
            },
            {
              "internalType": "string",
              "name": "description",
              "type": "string"
            },
            {
              "internalType": "uint256",
              "name": "minimumContribution",
              "type": "uint256"
            },
            {
              "internalType": "uint256",
              "name": "amount",
              "type": "uint256"
            },
            {
              "internalType": "uint256",
              "name": "stockLimit",
              "type": "uint256"
            },
            {
              "internalType": "uint256",
              "name": "nbContributors",
              "type": "uint256"
            },
            {
              "internalType": "bool",
              "name": "isStockLimited",
              "type": "bool"
            }
          ],
          "internalType": "struct ICampaign.Rewards",
          "name": "newRewardData",
          "type": "tuple"
        },
        {
          "internalType": "uint256",
          "name": "rewardIndex",
          "type": "uint256"
        }
      ],
      "name": "updateReward",
      "outputs": [],
      "stateMutability": "nonpayable",
      "type": "function"
    },
    {
      "inputs": [],
      "name": "deleteCampaign",
      "outputs": [],
      "stateMutability": "nonpayable",
      "type": "function"
    },
    {
      "inputs": [
        {
          "internalType": "uint256",
          "name": "rewardIndex",
          "type": "uint256"
        }
      ],
      "name": "deleteReward",
      "outputs": [],
      "stateMutability": "nonpayable",
      "type": "function"
    },
    {
      "inputs": [
        {
          "internalType": "address",
          "name": "newManager",
          "type": "address"
        }
      ],
      "name": "updateManager",
      "outputs": [],
      "stateMutability": "nonpayable",
      "type": "function"
    },
    {
      "inputs": [],
      "name": "publishCampaign",
      "outputs": [],
      "stateMutability": "nonpayable",
      "type": "function"
    },
    {
      "inputs": [
        {
          "internalType": "uint256",
          "name": "_amount",
          "type": "uint256"
        },
        {
          "internalType": "uint8",
          "name": "rewardIndex",
          "type": "uint8"
        }
      ],
      "name": "contribute",
      "outputs": [],
      "stateMutability": "nonpayable",
      "type": "function"
    },
    {
      "inputs": [],
      "name": "getContractUSDCBalance",
      "outputs": [
        {
          "internalType": "uint256",
          "name": "",
          "type": "uint256"
        }
      ],
      "stateMutability": "view",
      "type": "function"
    }
  ],
  "bytecode": "0x60a06040523480156200001157600080fd5b506040516200293d3803806200293d8339810160408190526200003491620007a5565b60008351116200008b5760405162461bcd60e51b815260206004820152601360248201527f214572723a205265776172647320656d7074790000000000000000000000000060448201526064015b60405180910390fd5b600a83511115620000df5760405162461bcd60e51b815260206004820152601660248201527f214572723a20546f6f206d756368205265776172647300000000000000000000604482015260640162000082565b600280546001600160a01b0319166001600160a01b03841617905560038054426001556001600160a81b0319163360ff60a01b19161790556001600160601b0319606082901b166080526200013484620001ad565b60005b83518160ff1610156200018d57620001788160ff16858360ff1681518110620001645762000164620009b7565b60200260200101516200035360201b60201c565b8062000184816200097e565b91505062000137565b505090516000805460ff191660ff90921691909117905550620009e39050565b805151620001f25760405162461bcd60e51b8152602060048201526011602482015270214572723a205469746c6520656d70747960781b604482015260640162000082565b600081602001515111620002495760405162461bcd60e51b815260206004820152601760248201527f214572723a204465736372697074696f6e20656d707479000000000000000000604482015260640162000082565b69021e19e0c9bab240000081604001511015620002a95760405162461bcd60e51b815260206004820152601d60248201527f214572723a2046756e64696e6720476f616c206e6f7420656e6f756768000000604482015260640162000082565b6060810151600154620002c09062093a8062000926565b1115620003105760405162461bcd60e51b815260206004820152601b60248201527f214572723a20646561646c696e654461746520746f2073686f72740000000000604482015260640162000082565b805180516200032891600491602090910190620004ed565b50602080820151805162000341926005920190620004ed565b50604081015160065560600151600755565b805151620003985760405162461bcd60e51b8152602060048201526011602482015270214572723a205469746c6520656d70747960781b604482015260640162000082565b600081602001515111620003ef5760405162461bcd60e51b815260206004820152601760248201527f214572723a204465736372697074696f6e20656d707479000000000000000000604482015260640162000082565b620004326040518060e001604052806060815260200160608152602001600081526020016000815260200160008152602001600081526020016000151581525090565b8151815260208083015181830152604080840151818401526080808501519084015260a0808501519084015260c080850151151590840152600085815260088352208251805184936200048a928492910190620004ed565b506020828101518051620004a59260018501920190620004ed565b5060408201516002820155606082015160038201556080820151600482015560a0820151600582015560c0909101516006909101805460ff1916911515919091179055505050565b828054620004fb9062000941565b90600052602060002090601f0160209004810192826200051f57600085556200056a565b82601f106200053a57805160ff19168380011785556200056a565b828001600101855582156200056a579182015b828111156200056a5782518255916020019190600101906200054d565b50620005789291506200057c565b5090565b5b808211156200057857600081556001016200057d565b80516001600160a01b0381168114620005ab57600080fd5b919050565b600082601f830112620005c257600080fd5b815160206001600160401b0380831115620005e157620005e1620009cd565b8260051b620005f2838201620008f3565b8481528381019087850183890186018a10156200060e57600080fd5b600093505b86841015620006f2578051858111156200062c57600080fd5b890160e0818c03601f19018113156200064457600080fd5b6200064e620008a3565b88830151888111156200066057600080fd5b620006708e8b8387010162000710565b825250604080840151898111156200068757600080fd5b620006978f8c8388010162000710565b8b84015250606080850151828401526080915081850151818401525060a0808501518284015260c09150818501518184015250620006d7838501620006ff565b90820152855250506001939093019291850191850162000613565b5098975050505050505050565b80518015158114620005ab57600080fd5b600082601f8301126200072257600080fd5b81516001600160401b038111156200073e576200073e620009cd565b602062000754601f8301601f19168201620008f3565b82815285828487010111156200076957600080fd5b60005b83811015620007895785810183015182820184015282016200076c565b838111156200079b5760008385840101525b5095945050505050565b60008060008060808587031215620007bc57600080fd5b84516001600160401b0380821115620007d457600080fd5b9086019060808289031215620007e957600080fd5b620007f3620008ce565b8251828111156200080357600080fd5b620008118a82860162000710565b8252506020830151828111156200082757600080fd5b620008358a82860162000710565b60208301525060408301516040820152606083015160608201528096505060208701519150808211156200086857600080fd5b506200087787828801620005b0565b935050620008886040860162000593565b9150620008986060860162000593565b905092959194509250565b60405160e081016001600160401b0381118282101715620008c857620008c8620009cd565b60405290565b604051608081016001600160401b0381118282101715620008c857620008c8620009cd565b604051601f8201601f191681016001600160401b03811182821017156200091e576200091e620009cd565b604052919050565b600082198211156200093c576200093c620009a1565b500190565b600181811c908216806200095657607f821691505b602082108114156200097857634e487b7160e01b600052602260045260246000fd5b50919050565b600060ff821660ff811415620009985762000998620009a1565b60010192915050565b634e487b7160e01b600052601160045260246000fd5b634e487b7160e01b600052603260045260246000fd5b634e487b7160e01b600052604160045260246000fd5b60805160601c611f2d62000a1060003960008181610145015281816103130152610ad70152611f2d6000f3fe608060405234801561001057600080fd5b50600436106101205760003560e01c806358aba00f116100ad578063c45a015511610071578063c45a015514610297578063cc2e554a146102aa578063d355f006146102bd578063d6290cd7146102d0578063e7cf1ab7146102e857600080fd5b806358aba00f146102225780636bdca7d5146102355780637ef59f8414610260578063bd39e01514610268578063bf1d4cad1461028e57600080fd5b8063244c3c2c116100f4578063244c3c2c146101bf578063287af432146101c957806337acecce146101e9578063481c6a75146101fc57806356212d591461020f57600080fd5b80622772c21461012557806311eac85514610140578063200d2ed21461017f578063205b0914146101a0575b600080fd5b61012d6102fb565b6040519081526020015b60405180910390f35b6101677f000000000000000000000000000000000000000000000000000000000000000081565b6040516001600160a01b039091168152602001610137565b60035461019390600160a01b900460ff1681565b6040516101379190611be4565b6000546101ad9060ff1681565b60405160ff9091168152602001610137565b6101c761039a565b005b61012d6101d7366004611984565b600a6020526000908152604090205481565b6101c76101f73660046119bc565b61052b565b600254610167906001600160a01b031681565b6101c761021d366004611aa1565b6105e0565b6101c7610230366004611984565b6106e4565b61012d610243366004611b18565b600960209081526000928352604080842090915290825290205481565b6101c7610730565b61027b610276366004611ae6565b610855565b6040516101379796959493929190611c05565b61012d60015481565b600354610167906001600160a01b031681565b6101c76102b8366004611b44565b6109a3565b6101c76102cb366004611a64565b610bee565b6102d8610cd5565b6040516101379493929190611ce7565b6101c76102f6366004611ae6565b610eb9565b6040516370a0823160e01b81523060048201526000907f00000000000000000000000000000000000000000000000000000000000000006001600160a01b0316906370a082319060240160206040518083038186803b15801561035d57600080fd5b505afa158015610371573d6000803e3d6000fd5b505050506040513d601f19601f820116820180604052508101906103959190611aff565b905090565b6005600354600160a01b900460ff1660058111156103ba576103ba611ebd565b14156103e15760405162461bcd60e51b81526004016103d890611cb7565b60405180910390fd5b6002546001600160a01b0316331461040b5760405162461bcd60e51b81526004016103d890611c57565b6000600354600160a01b900460ff16600581111561042b5761042b611ebd565b1480610453575060038054600160a01b900460ff16600581111561045157610451611ebd565b145b8061047b57506004600354600160a01b900460ff16600581111561047957610479611ebd565b145b6104975760405162461bcd60e51b81526004016103d890611c80565b60038054600560a01b60ff60a01b19821617909155604080516309130f0b60e21b815290516001600160a01b039092169163244c3c2c916004808201926020929091908290030181600087803b1580156104f057600080fd5b505af1158015610504573d6000803e3d6000fd5b505050506040513d601f19601f82011682018060405250810190610528919061199f565b50565b6005600354600160a01b900460ff16600581111561054b5761054b611ebd565b14156105695760405162461bcd60e51b81526004016103d890611cb7565b6002546001600160a01b031633146105935760405162461bcd60e51b81526004016103d890611c57565b600354600160a01b900460ff166000808260058111156105b5576105b5611ebd565b146105d25760405162461bcd60e51b81526004016103d890611c80565b6105db83611102565b505050565b6005600354600160a01b900460ff16600581111561060057610600611ebd565b141561061e5760405162461bcd60e51b81526004016103d890611cb7565b6002546001600160a01b031633146106485760405162461bcd60e51b81526004016103d890611c57565b600354600160a01b900460ff1660008082600581111561066a5761066a611ebd565b146106875760405162461bcd60e51b81526004016103d890611c80565b60005460ff168311156106d45760405162461bcd60e51b815260206004820152601560248201527408515c9c8e88125b99195e081b9bdd08195e1a5cdd605a1b60448201526064016103d8565b6106de8385611294565b50505050565b6002546001600160a01b0316331461070e5760405162461bcd60e51b81526004016103d890611c57565b600280546001600160a01b0319166001600160a01b0392909216919091179055565b6005600354600160a01b900460ff16600581111561075057610750611ebd565b141561076e5760405162461bcd60e51b81526004016103d890611cb7565b6002546001600160a01b031633146107985760405162461bcd60e51b81526004016103d890611c57565b600354600160a01b900460ff166000808260058111156107ba576107ba611ebd565b146107d75760405162461bcd60e51b81526004016103d890611c80565b6007546000906107eb9062093a8090611dc9565b90504281101561083d5760405162461bcd60e51b815260206004820152601b60248201527f214572723a20646561646c696e654461746520746f2073686f7274000000000060448201526064016103d8565b50506003805460ff60a01b1916600160a01b17905550565b60086020526000908152604090208054819061087090611e4c565b80601f016020809104026020016040519081016040528092919081815260200182805461089c90611e4c565b80156108e95780601f106108be576101008083540402835291602001916108e9565b820191906000526020600020905b8154815290600101906020018083116108cc57829003601f168201915b5050505050908060010180546108fe90611e4c565b80601f016020809104026020016040519081016040528092919081815260200182805461092a90611e4c565b80156109775780601f1061094c57610100808354040283529160200191610977565b820191906000526020600020905b81548152906001019060200180831161095a57829003601f168201915b505050600284015460038501546004860154600587015460069097015495969295919450925060ff1687565b6005600354600160a01b900460ff1660058111156109c3576109c3611ebd565b14156109e15760405162461bcd60e51b81526004016103d890611cb7565b6007544210610a415760405162461bcd60e51b815260206004820152602660248201527f21457272203a2043616d706169676e20636f6e747269627574696f6e2068617360448201526508195b99195960d21b60648201526084016103d8565b6000600354600160a01b900460ff166005811115610a6157610a61611ebd565b14158015610a8c575060038054600160a01b900460ff166005811115610a8957610a89611ebd565b14155b8015610ab657506004600354600160a01b900460ff166005811115610ab357610ab3611ebd565b14155b610ad25760405162461bcd60e51b81526004016103d890611c80565b610afe7f000000000000000000000000000000000000000000000000000000000000000033308561141f565b336000908152600a6020526040902054610b189083611479565b336000818152600a602090815260408083209490945560ff8516825260098152838220928252919091522054610b4f906001611479565b60ff8216600081815260096020908152604080832033845282528083209490945591815260089091522060050154610b88906001611479565b60ff82166000908152600860205260409020600581019190915560030154610bb09083611479565b60ff8216600090815260086020526040902060030155600654610bd16102fb565b10610bea576003805460ff60a01b1916600160a11b1790555b5050565b6005600354600160a01b900460ff166005811115610c0e57610c0e611ebd565b1415610c2c5760405162461bcd60e51b81526004016103d890611cb7565b6002546001600160a01b03163314610c565760405162461bcd60e51b81526004016103d890611c57565b600354600160a01b900460ff16600080826005811115610c7857610c78611ebd565b14610c955760405162461bcd60e51b81526004016103d890611c80565b600054610ca59060ff1684611294565b6000805460ff169080610cb783611e87565b91906101000a81548160ff021916908360ff16021790555050505050565b610d006040518060800160405280606081526020016060815260200160008152602001600081525090565b600080806005600354600160a01b900460ff166005811115610d2457610d24611ebd565b1415610d425760405162461bcd60e51b81526004016103d890611cb7565b6001546002546003546040805160808101909152600480549094936001600160a01b031692600160a01b900460ff169190859082908290610d8290611e4c565b80601f0160208091040260200160405190810160405280929190818152602001828054610dae90611e4c565b8015610dfb5780601f10610dd057610100808354040283529160200191610dfb565b820191906000526020600020905b815481529060010190602001808311610dde57829003601f168201915b50505050508152602001600182018054610e1490611e4c565b80601f0160208091040260200160405190810160405280929190818152602001828054610e4090611e4c565b8015610e8d5780601f10610e6257610100808354040283529160200191610e8d565b820191906000526020600020905b815481529060010190602001808311610e7057829003601f168201915b505050918352505060028201546020820152600390910154604090910152989297509095509350915050565b6005600354600160a01b900460ff166005811115610ed957610ed9611ebd565b1415610ef75760405162461bcd60e51b81526004016103d890611cb7565b6002546001600160a01b03163314610f215760405162461bcd60e51b81526004016103d890611c57565b600354600160a01b900460ff16600080826005811115610f4357610f43611ebd565b14610f605760405162461bcd60e51b81526004016103d890611c80565b60005460ff168310610fac5760405162461bcd60e51b815260206004820152601560248201527408515c9c8e88125b99195e081b9bdd08195e1a5cdd605a1b60448201526064016103d8565b6000548390610fc09060019060ff16611de0565b60ff161461107f576000805460089190610fdf9060019060ff16611de0565b60ff1681526020808201929092526040908101600090812086825260089093522081548190839061100f90611e4c565b61101a9291906116da565b50600182018160010190805461102f90611e4c565b61103a9291906116da565b50600282810154908201556003808301549082015560048083015490820155600580830154908201556006918201549101805460ff191660ff90921615159190911790555b60008054600891906110969060019060ff16611de0565b60ff168152602001908152602001600020600080820160006110b89190611765565b6110c6600183016000611765565b506000600282018190556003820181905560048201819055600582018190556006909101805460ff19169055805460ff169080610cb783611e2f565b8051516111455760405162461bcd60e51b8152602060048201526011602482015270214572723a205469746c6520656d70747960781b60448201526064016103d8565b6000816020015151116111945760405162461bcd60e51b8152602060048201526017602482015276214572723a204465736372697074696f6e20656d70747960481b60448201526064016103d8565b69021e19e0c9bab2400000816040015110156111f25760405162461bcd60e51b815260206004820152601d60248201527f214572723a2046756e64696e6720476f616c206e6f7420656e6f75676800000060448201526064016103d8565b60608101516001546112079062093a80611db1565b11156112555760405162461bcd60e51b815260206004820152601b60248201527f214572723a20646561646c696e654461746520746f2073686f7274000000000060448201526064016103d8565b8051805161126b9160049160209091019061179f565b50602080820151805161128292600592019061179f565b50604081015160065560600151600755565b8051516112d75760405162461bcd60e51b8152602060048201526011602482015270214572723a205469746c6520656d70747960781b60448201526064016103d8565b6000816020015151116113265760405162461bcd60e51b8152602060048201526017602482015276214572723a204465736372697074696f6e20656d70747960481b60448201526064016103d8565b6113686040518060e001604052806060815260200160608152602001600081526020016000815260200160008152602001600081526020016000151581525090565b8151815260208083015181830152604080840151818401526080808501519084015260a0808501519084015260c080850151151590840152600085815260088352208251805184936113be92849291019061179f565b5060208281015180516113d7926001850192019061179f565b5060408201516002820155606082015160038201556080820151600482015560a0820151600582015560c0909101516006909101805460ff1916911515919091179055505050565b604080516001600160a01b0385811660248301528416604482015260648082018490528251808303909101815260849091019091526020810180516001600160e01b03166323b872dd60e01b1790526106de90859061148e565b60006114858284611db1565b90505b92915050565b60006114e3826040518060400160405280602081526020017f5361666545524332303a206c6f772d6c6576656c2063616c6c206661696c6564815250856001600160a01b03166115609092919063ffffffff16565b8051909150156105db5780806020019051810190611501919061199f565b6105db5760405162461bcd60e51b815260206004820152602a60248201527f5361666545524332303a204552433230206f7065726174696f6e20646964206e6044820152691bdd081cdd58d8d9595960b21b60648201526084016103d8565b606061156f8484600085611579565b90505b9392505050565b6060824710156115da5760405162461bcd60e51b815260206004820152602660248201527f416464726573733a20696e73756666696369656e742062616c616e636520666f6044820152651c8818d85b1b60d21b60648201526084016103d8565b843b6116285760405162461bcd60e51b815260206004820152601d60248201527f416464726573733a2063616c6c20746f206e6f6e2d636f6e747261637400000060448201526064016103d8565b600080866001600160a01b031685876040516116449190611bc8565b60006040518083038185875af1925050503d8060008114611681576040519150601f19603f3d011682016040523d82523d6000602084013e611686565b606091505b50915091506116968282866116a1565b979650505050505050565b606083156116b0575081611572565b8251156116c05782518084602001fd5b8160405162461bcd60e51b81526004016103d89190611bf2565b8280546116e690611e4c565b90600052602060002090601f0160209004810192826117085760008555611755565b82601f106117195780548555611755565b8280016001018555821561175557600052602060002091601f016020900482015b8281111561175557825482559160010191906001019061173a565b50611761929150611813565b5090565b50805461177190611e4c565b6000825580601f10611781575050565b601f0160209004906000526020600020908101906105289190611813565b8280546117ab90611e4c565b90600052602060002090601f0160209004810192826117cd5760008555611755565b82601f106117e657805160ff1916838001178555611755565b82800160010185558215611755579182015b828111156117555782518255916020019190600101906117f8565b5b808211156117615760008155600101611814565b80356001600160a01b038116811461183f57600080fd5b919050565b803561183f81611ee9565b600082601f83011261186057600080fd5b813567ffffffffffffffff8082111561187b5761187b611ed3565b604051601f8301601f19908116603f011681019082821181831017156118a3576118a3611ed3565b816040528381528660208588010111156118bc57600080fd5b836020870160208301376000602085830101528094505050505092915050565b600060e082840312156118ee57600080fd5b6118f6611d65565b9050813567ffffffffffffffff8082111561191057600080fd5b61191c8583860161184f565b8352602084013591508082111561193257600080fd5b5061193f8482850161184f565b60208301525060408201356040820152606082013560608201526080820135608082015260a082013560a082015261197960c08301611844565b60c082015292915050565b60006020828403121561199657600080fd5b61148582611828565b6000602082840312156119b157600080fd5b815161157281611ee9565b6000602082840312156119ce57600080fd5b813567ffffffffffffffff808211156119e657600080fd5b90830190608082860312156119fa57600080fd5b611a02611d8e565b823582811115611a1157600080fd5b611a1d8782860161184f565b825250602083013582811115611a3257600080fd5b611a3e8782860161184f565b602083015250604083013560408201526060830135606082015280935050505092915050565b600060208284031215611a7657600080fd5b813567ffffffffffffffff811115611a8d57600080fd5b611a99848285016118dc565b949350505050565b60008060408385031215611ab457600080fd5b823567ffffffffffffffff811115611acb57600080fd5b611ad7858286016118dc565b95602094909401359450505050565b600060208284031215611af857600080fd5b5035919050565b600060208284031215611b1157600080fd5b5051919050565b60008060408385031215611b2b57600080fd5b82359150611b3b60208401611828565b90509250929050565b60008060408385031215611b5757600080fd5b82359150602083013560ff81168114611b6f57600080fd5b809150509250929050565b60068110611b9857634e487b7160e01b600052602160045260246000fd5b9052565b60008151808452611bb4816020860160208601611e03565b601f01601f19169290920160200192915050565b60008251611bda818460208701611e03565b9190910192915050565b602081016114888284611b7a565b6020815260006114856020830184611b9c565b60e081526000611c1860e083018a611b9c565b8281036020840152611c2a818a611b9c565b604084019890985250506060810194909452608084019290925260a0830152151560c09091015292915050565b6020808252600f908201526e08539bdd08105d5d1a1bdc9a5e9959608a1b604082015260600190565b6020808252601c908201527f21457272203a2057726f6e6720776f726b666c6f772073746174757300000000604082015260600190565b60208082526016908201527508515c9c8e8810d85b5c185a59db8811195b195d195960521b604082015260600190565b6080815260008551608080840152611d03610100840182611b9c565b90506020870151607f198483030160a0850152611d208282611b9c565b915050604087015160c0840152606087015160e08401528091505084602083015260018060a01b0384166040830152611d5c6060830184611b7a565b95945050505050565b60405160e0810167ffffffffffffffff81118282101715611d8857611d88611ed3565b60405290565b6040516080810167ffffffffffffffff81118282101715611d8857611d88611ed3565b60008219821115611dc457611dc4611ea7565b500190565b600082821015611ddb57611ddb611ea7565b500390565b600060ff821660ff841680821015611dfa57611dfa611ea7565b90039392505050565b60005b83811015611e1e578181015183820152602001611e06565b838111156106de5750506000910152565b600060ff821680611e4257611e42611ea7565b6000190192915050565b600181811c90821680611e6057607f821691505b60208210811415611e8157634e487b7160e01b600052602260045260246000fd5b50919050565b600060ff821660ff811415611e9e57611e9e611ea7565b60010192915050565b634e487b7160e01b600052601160045260246000fd5b634e487b7160e01b600052602160045260246000fd5b634e487b7160e01b600052604160045260246000fd5b801515811461052857600080fdfea264697066735822122049402478b4d849aacde88d9bc91ff37008a8a4f2beac47a17685f8f4d696090164736f6c63430008060033",
  "immutableReferences": {
    "1631": [
      {
        "length": 32,
        "start": 325
      },
      {
        "length": 32,
        "start": 787
      },
      {
        "length": 32,
        "start": 2775
      }
    ]
  },
  "source": "// SPDX-License-Identifier: GPL-3.0\r\npragma solidity 0.8.6;\r\n\r\nimport \"./interfaces/ICampaign.sol\";\r\nimport \"./interfaces/ICampaignFactory.sol\";\r\nimport '@openzeppelin/contracts/token/ERC20/IERC20.sol';\r\nimport \"@openzeppelin/contracts/token/ERC20/utils/SafeERC20.sol\";\r\nimport \"@openzeppelin/contracts/utils/math/SafeMath.sol\";\r\n\r\ncontract Campaign is ICampaign {\r\n    using SafeMath for uint256;\r\n    \r\n    uint8 public rewardsCounter;\r\n    uint256 public createAt;\r\n    address public manager;\r\n    address public factory;\r\n    WorkflowStatus public status;\r\n    IERC20 public immutable usdcToken;\r\n\r\n    Info private campaignInfo;\r\n    mapping(uint => Rewards) public rewardsList;\r\n    mapping(uint => mapping(address => uint)) public rewardToContributor;\r\n    mapping(address => uint256) public contributorBalances;\r\n\r\n    //Modifiers\r\n    modifier isNotDeleted(){\r\n        require(status != WorkflowStatus.CampaignDeleted, \"!Err: Campaign Deleted\");\r\n        _;\r\n    }\r\n\r\n    modifier onlyManager(){\r\n        require(msg.sender == manager, \"!Not Authorized\");\r\n        _;\r\n    }\r\n\r\n    modifier checkStatus(\r\n        WorkflowStatus currentStatus,\r\n        WorkflowStatus requiredStatus\r\n    ) {\r\n        require(currentStatus == requiredStatus, \"!Err : Wrong workflow status\");\r\n        _;\r\n    }\r\n    \r\n    modifier checkCampaignDeadline() {\r\n        require(block.timestamp <  campaignInfo.deadlineDate, \"!Err : Campaign contribution has ended\");\r\n        _;\r\n    }\r\n\r\n    constructor(Info memory infoData, Rewards[] memory rewardsData, address _manager, IERC20 _usdcToken)\r\n    {\r\n        require(rewardsData.length > 0, \"!Err: Rewards empty\");\r\n        require(rewardsData.length <= 10, \"!Err: Too much Rewards\");\r\n        manager = _manager;\r\n        factory = msg.sender;\r\n        createAt = block.timestamp;\r\n        status = WorkflowStatus.CampaignDrafted;\r\n        usdcToken = _usdcToken;\r\n        _setCampaignInfo(infoData);\r\n        uint8 _rewardsCounter;\r\n        for (_rewardsCounter; _rewardsCounter < rewardsData.length; _rewardsCounter++) {\r\n            _setCampaignReward(_rewardsCounter, rewardsData[_rewardsCounter]);\r\n        }\r\n        rewardsCounter = uint8(rewardsData.length) ;\r\n    }\r\n\r\n    /**\r\n     * @inheritdoc ICampaign\r\n     */\r\n    function getCampaignInfo() external view override isNotDeleted() returns(Info memory, uint, address, WorkflowStatus) {\r\n        return (campaignInfo, createAt, manager, status);\r\n    }\r\n\r\n    /**\r\n     * @inheritdoc ICampaign\r\n     */\r\n    function updateCampaign(Info memory newInfo) external override isNotDeleted() onlyManager() checkStatus(status, WorkflowStatus.CampaignDrafted) {\r\n        _setCampaignInfo(newInfo);\r\n    }\r\n\r\n    /**\r\n     * @inheritdoc ICampaign\r\n     */\r\n    function addReward(Rewards memory newRewardData) external override isNotDeleted() onlyManager() checkStatus(status, WorkflowStatus.CampaignDrafted) {\r\n        _setCampaignReward(rewardsCounter, newRewardData);\r\n        rewardsCounter++;\r\n    }\r\n\r\n    /**\r\n     * @inheritdoc ICampaign\r\n     */\r\n    function updateReward(Rewards memory newRewardData, uint rewardIndex) external override isNotDeleted() onlyManager() checkStatus(status, WorkflowStatus.CampaignDrafted) {\r\n        require(rewardIndex <= rewardsCounter, \"!Err: Index not exist\");\r\n        _setCampaignReward(rewardIndex, newRewardData);\r\n    }\r\n\r\n    /**\r\n    * @notice Internal function that set a new campaign's info and making data validation first.\r\n    * @param data Info Object that contains the Info data following the Info struct\r\n    */\r\n    function _setCampaignInfo(Info memory data) private {\r\n        require(bytes(data.title).length > 0, \"!Err: Title empty\");\r\n        require(bytes(data.description).length > 0, \"!Err: Description empty\");\r\n        require(data.fundingGoal >= 10000 ether, \"!Err: Funding Goal not enough\");\r\n        require(createAt + 7 days <= data.deadlineDate, \"!Err: deadlineDate to short\");\r\n        campaignInfo.title = data.title;\r\n        campaignInfo.description = data.description;\r\n        campaignInfo.fundingGoal = data.fundingGoal;\r\n        campaignInfo.deadlineDate = data.deadlineDate;\r\n    }\r\n\r\n    /**\r\n     * @notice Internal function that set a new campaign's reward level and making data validation first.\r\n     * @param index uint Index of the reward to add\r\n     * @param data Rewards Object that contains the Reward data following the Rewards struct\r\n     */\r\n    function _setCampaignReward(uint index, Rewards memory data) private {\r\n        require(bytes(data.title).length > 0, \"!Err: Title empty\");\r\n        require(bytes(data.description).length > 0, \"!Err: Description empty\");\r\n        Rewards memory r;\r\n        r.title = data.title;\r\n        r.description = data.description;\r\n        r.minimumContribution = data.minimumContribution;\r\n        r.stockLimit = data.stockLimit;\r\n        r.nbContributors = data.nbContributors;\r\n        r.isStockLimited = data.isStockLimited;\r\n        rewardsList[index] = r;\r\n    }\r\n\r\n    /**\r\n     * @inheritdoc ICampaign\r\n     */\r\n    function deleteCampaign() public override isNotDeleted() onlyManager() {\r\n        require(status == WorkflowStatus.CampaignDrafted || status == WorkflowStatus.FundingFailed || status == WorkflowStatus.CampaignCompleted, \"!Err : Wrong workflow status\");\r\n        status = WorkflowStatus.CampaignDeleted;\r\n        ICampaignFactory(factory).deleteCampaign();\r\n    }\r\n\r\n    /**\r\n     * @inheritdoc ICampaign\r\n     */\r\n    function deleteReward(uint256 rewardIndex) external override isNotDeleted() onlyManager() checkStatus(status, WorkflowStatus.CampaignDrafted) {\r\n        require(rewardIndex < rewardsCounter, \"!Err: Index not exist\");\r\n        if((rewardsCounter-1)!=rewardIndex){\r\n            rewardsList[rewardIndex] = rewardsList[rewardsCounter-1];\r\n        }\r\n        delete rewardsList[rewardsCounter-1];\r\n        rewardsCounter--;\r\n    }\r\n\r\n    /**\r\n     * @inheritdoc ICampaign\r\n     */\r\n    function updateManager(address newManager) external override onlyManager() {\r\n        manager = newManager;\r\n    }\r\n\r\n    /**\r\n     * @inheritdoc ICampaign\r\n     */\r\n    function publishCampaign() external override isNotDeleted() onlyManager() checkStatus(status, WorkflowStatus.CampaignDrafted) {\r\n        uint minDate = campaignInfo.deadlineDate - 7 days;\r\n        require(minDate >= block.timestamp, \"!Err: deadlineDate to short\");\r\n        status = WorkflowStatus.CampaignPublished;\r\n    }\r\n    \r\n    /**\r\n     * @inheritdoc ICampaign\r\n     */\r\n    function contribute(uint256 _amount, uint8 rewardIndex) external override isNotDeleted() checkCampaignDeadline() {\r\n        require(status != WorkflowStatus.CampaignDrafted && status != WorkflowStatus.FundingFailed && status != WorkflowStatus.CampaignCompleted, \"!Err : Wrong workflow status\");\r\n        SafeERC20.safeTransferFrom(usdcToken, msg.sender, address(this), _amount);\r\n        contributorBalances[msg.sender] = contributorBalances[msg.sender].add(_amount);\r\n        rewardToContributor[rewardIndex][msg.sender] = rewardToContributor[rewardIndex][msg.sender].add(1);\r\n        rewardsList[rewardIndex].nbContributors = rewardsList[rewardIndex].nbContributors.add(1);\r\n        rewardsList[rewardIndex].amount = rewardsList[rewardIndex].amount.add(_amount);\r\n        if(getContractUSDCBalance() >= campaignInfo.fundingGoal) {\r\n            status = WorkflowStatus.FundingComplete;\r\n        }\r\n    }\r\n    \r\n    function getContractUSDCBalance() public view returns(uint) {\r\n        return usdcToken.balanceOf(address(this));\r\n    }\r\n}\r\n",
  "sourcePath": "/Users/Xutyr/Documents/Lab/SparkUp/contracts/Campaign.sol",
  "compiler": {
    "name": "solc",
    "version": "0.8.6+commit.11564f7e.Emscripten.clang"
  },
  "schemaVersion": "3.4.1",
  "updatedAt": "2021-07-29T12:42:55.166Z",
  "devdoc": {
    "kind": "dev",
    "methods": {
      "addReward((string,string,uint256,uint256,uint256,uint256,bool))": {
        "details": "Only the manager must be able to call it.",
        "params": {
          "newRewardData": "Rewards Object that contains all the needed information following the Rewards struct for the campaign"
        }
      },
      "contribute(uint256,uint8)": {
        "details": "Can only be called if campaing is published, is not comleted, is not deleted and is not failed."
      },
      "deleteCampaign()": {
        "details": "It's the entry point for deleting a campaign. Only the manager must be able to call it"
      },
      "deleteReward(uint256)": {
        "details": "Only the manager must be able to call it.",
        "params": {
          "rewardIndex": "uint256 Index of the reward to delete"
        }
      },
      "publishCampaign()": {
        "details": "Only the manager must be able to call it and only within acceptable deadlineDate timeframe."
      },
      "updateCampaign((string,string,uint256,uint256))": {
        "details": "Only the manager must be able to call it.",
        "params": {
          "updatedInfoData": "Info Object that contains all the new information following the Info struct for the campaign"
        }
      },
      "updateManager(address)": {
        "details": "Only the manager must be able to call it.",
        "params": {
          "newManager": "address Address of the new manager"
        }
      },
      "updateReward((string,string,uint256,uint256,uint256,uint256,bool),uint256)": {
        "details": "Only the manager must be able to call it.",
        "params": {
          "newRewardData": "Rewards Object that contains the new data to set following the Rewards struct for the campaign",
          "rewardIndex": "uint256 Index of the reward to update"
        }
      }
    },
    "version": 1
  },
  "userdoc": {
    "kind": "user",
    "methods": {
      "addReward((string,string,uint256,uint256,uint256,uint256,bool))": {
        "notice": "Add a new reward level to the campaign."
      },
      "contribute(uint256,uint8)": {
        "notice": "Allow contributors to contribute to the campaign."
      },
      "deleteCampaign()": {
        "notice": "Delete the campaign."
      },
      "deleteReward(uint256)": {
        "notice": "Delete a reward by its Id."
      },
      "getCampaignInfo()": {
        "notice": "Returns the campaign information in the struct Info plus de createAt and the managerAddress."
      },
      "publishCampaign()": {
        "notice": "Allow the manager to publish campaign and make it visible to potential contributors."
      },
      "updateCampaign((string,string,uint256,uint256))": {
        "notice": "Update the campaign information in the struct Info."
      },
      "updateManager(address)": {
        "notice": "Allow the manager to setup a new one."
      },
      "updateReward((string,string,uint256,uint256,uint256,uint256,bool),uint256)": {
        "notice": "Update the data of a specific reward regarding its id."
      }
    },
    "version": 1
  }
}