{
  "contractName": "CampaignFactory",
  "abi": [
    {
      "inputs": [],
      "stateMutability": "nonpayable",
      "type": "constructor"
    },
    {
      "inputs": [],
      "name": "campaignCounter",
      "outputs": [
        {
          "internalType": "uint128",
          "name": "",
          "type": "uint128"
        }
      ],
      "stateMutability": "view",
      "type": "function",
      "constant": true
    },
    {
      "inputs": [
        {
          "internalType": "address",
          "name": "",
          "type": "address"
        }
      ],
      "name": "campaignToId",
      "outputs": [
        {
          "internalType": "uint128",
          "name": "",
          "type": "uint128"
        }
      ],
      "stateMutability": "view",
      "type": "function",
      "constant": true
    },
    {
      "inputs": [
        {
          "internalType": "uint128",
          "name": "",
          "type": "uint128"
        }
      ],
      "name": "deployedCampaigns",
      "outputs": [
        {
          "internalType": "address",
          "name": "",
          "type": "address"
        }
      ],
      "stateMutability": "view",
      "type": "function",
      "constant": true
    },
    {
      "inputs": [],
      "name": "owner",
      "outputs": [
        {
          "internalType": "address",
          "name": "",
          "type": "address"
        }
      ],
      "stateMutability": "view",
      "type": "function",
      "constant": true
    },
    {
      "inputs": [],
      "name": "proxyContract",
      "outputs": [
        {
          "internalType": "address",
          "name": "",
          "type": "address"
        }
      ],
      "stateMutability": "view",
      "type": "function",
      "constant": true
    },
    {
      "inputs": [
        {
          "internalType": "contract ICampaign",
          "name": "_newCampaign",
          "type": "address"
        }
      ],
      "name": "addCampaign",
      "outputs": [],
      "stateMutability": "nonpayable",
      "type": "function"
    },
    {
      "inputs": [],
      "name": "deleteCampaign",
      "outputs": [],
      "stateMutability": "nonpayable",
      "type": "function"
    },
    {
      "inputs": [
        {
          "internalType": "address",
          "name": "newOwner",
          "type": "address"
        }
      ],
      "name": "updateOwner",
      "outputs": [],
      "stateMutability": "nonpayable",
      "type": "function"
    },
    {
      "inputs": [
        {
          "internalType": "address",
          "name": "_proxyContract",
          "type": "address"
        }
      ],
      "name": "setProxy",
      "outputs": [],
      "stateMutability": "nonpayable",
      "type": "function"
    }
  ],
  "bytecode": "0x6080604052600080546001600160801b031916600117905534801561002357600080fd5b50600180546001600160a01b0319163317905561061e806100456000396000f3fe608060405234801561001057600080fd5b50600436106100935760003560e01c806397107d6d1161006657806397107d6d14610126578063ac9c4fd314610139578063d1f87b191461014c578063ed55044314610175578063fca604d71461018857600080fd5b8063244c3c2c14610098578063880cdc31146100a25780638da5cb5b146100b55780638e47fe97146100e5575b600080fd5b6100a061019b565b005b6100a06100b03660046104d2565b6103a7565b6001546100c8906001600160a01b031681565b6040516001600160a01b0390911681526020015b60405180910390f35b61010e6100f33660046104d2565b6004602052600090815260409020546001600160801b031681565b6040516001600160801b0390911681526020016100dc565b6100a06101343660046104d2565b6103f3565b6100a06101473660046104d2565b61043f565b6100c861015a3660046104f6565b6003602052600090815260409020546001600160a01b031681565b6002546100c8906001600160a01b031681565b60005461010e906001600160801b031681565b336000908152600460205260409020546001600160801b03166101f75760405162461bcd60e51b815260206004820152600f60248201526e08515c9c8e88139bdd08195e1a5cdd608a1b60448201526064015b60405180910390fd5b3360009081526004602052604081205490546001600160801b03918216916102229160019116610548565b6001600160801b0316816001600160801b03161461030d576000805460039190610257906001906001600160801b0316610548565b6001600160801b0390811682526020808301939093526040918201600090812054858316825260039485905292812080546001600160a01b0319166001600160a01b03909416939093179092558154849360049392909183916102bd9160019116610548565b6001600160801b03908116825260208083019390935260409182016000908120546001600160a01b031685529284019490945291909101902080546001600160801b031916929091169190911790555b600080546003919061032a906001906001600160801b0316610548565b6001600160801b0390811682526020808301939093526040918201600090812080546001600160a01b0319169055338152600490935290822080546001600160801b0319169055815416908061037f83610570565b91906101000a8154816001600160801b0302191690836001600160801b031602179055505050565b6001546001600160a01b031633146103d15760405162461bcd60e51b81526004016101ee9061051f565b600180546001600160a01b0319166001600160a01b0392909216919091179055565b6001546001600160a01b0316331461041d5760405162461bcd60e51b81526004016101ee9061051f565b600280546001600160a01b0319166001600160a01b0392909216919091179055565b6002546001600160a01b031633146104695760405162461bcd60e51b81526004016101ee9061051f565b600080546001600160801b03908116825260036020908152604080842080546001600160a01b0387166001600160a01b0319909116811790915584549085526004909252832080546001600160801b031916918316919091179055815416908061037f83610593565b6000602082840312156104e457600080fd5b81356104ef816105d0565b9392505050565b60006020828403121561050857600080fd5b81356001600160801b03811681146104ef57600080fd5b6020808252600f908201526e08539bdd08105d5d1a1bdc9a5e9959608a1b604082015260600190565b60006001600160801b0383811690831681811015610568576105686105ba565b039392505050565b60006001600160801b03821680610589576105896105ba565b6000190192915050565b60006001600160801b03808316818114156105b0576105b06105ba565b6001019392505050565b634e487b7160e01b600052601160045260246000fd5b6001600160a01b03811681146105e557600080fd5b5056fea2646970667358221220f4fdfc0766843a86e67cbab5320609fcb5d514dd9e339b8e74bb597151c6f2ce64736f6c63430008060033",
  "immutableReferences": {},
  "source": "// SPDX-License-Identifier: MIT\r\npragma solidity 0.8.6;\r\n\r\nimport \"./Campaign.sol\";\r\nimport \"./interfaces/ICampaign.sol\";\r\nimport \"./interfaces/ICampaignFactory.sol\";\r\n\r\n/**\r\n* @title CampaignFactory\r\n* @notice The Campaign factory is used for the deployment of new campaign\r\n* @dev Inherit of for the CampaignFactory Interface\r\n*/\r\ncontract CampaignFactory is ICampaignFactory {\r\n\r\n    uint128 public campaignCounter = 1;\r\n    address public owner;\r\n    address public proxyContract;\r\n\r\n    mapping(uint128 => address) public deployedCampaigns;\r\n    mapping(address => uint128) public campaignToId;\r\n\r\n    constructor(){\r\n        owner = msg.sender;\r\n    }\r\n\r\n    modifier onlyOwner() {\r\n        require(msg.sender == owner, \"!Not Authorized\");\r\n        _;\r\n    }\r\n\r\n    /**\r\n     * @inheritdoc ICampaignFactory\r\n     */\r\n    function addCampaign(ICampaign _newCampaign) external override {\r\n        require(msg.sender == proxyContract, \"!Not Authorized\");\r\n        deployedCampaigns[campaignCounter] = address(_newCampaign);\r\n        campaignToId[address(_newCampaign)] = campaignCounter;\r\n        campaignCounter++;\r\n    }\r\n\r\n    /**\r\n     * @inheritdoc ICampaignFactory\r\n     */\r\n    function deleteCampaign() public override {\r\n        require(campaignToId[msg.sender] !=0 , \"!Err: Not exist\");\r\n        uint128 _indexToSwap = campaignToId[msg.sender];\r\n        if (_indexToSwap != campaignCounter - 1) {\r\n            deployedCampaigns[_indexToSwap] = deployedCampaigns[campaignCounter - 1];\r\n            campaignToId[deployedCampaigns[campaignCounter-1]] = _indexToSwap;\r\n        }\r\n\r\n        delete deployedCampaigns[campaignCounter - 1];\r\n        delete campaignToId[msg.sender];\r\n        campaignCounter--;\r\n    }\r\n\r\n    /**\r\n     * @inheritdoc ICampaignFactory\r\n     */\r\n    function updateOwner(address newOwner) external override onlyOwner() {\r\n        owner = newOwner;\r\n    }\r\n\r\n    /**\r\n     * @inheritdoc ICampaignFactory\r\n     */\r\n    function setProxy(address _proxyContract) external override onlyOwner() {\r\n        proxyContract = _proxyContract;\r\n    }\r\n}\r\n",
  "sourcePath": "/Users/Xutyr/Documents/Lab/SparkUp/contracts/CampaignFactory.sol",
  "compiler": {
    "name": "solc",
    "version": "0.8.6+commit.11564f7e.Emscripten.clang"
  },
  "schemaVersion": "3.4.1",
  "updatedAt": "2021-08-02T07:43:51.918Z",
  "networkType": "ethereum",
  "devdoc": {
    "details": "Inherit of for the CampaignFactory Interface",
    "kind": "dev",
    "methods": {
      "addCampaign(address)": {
        "params": {
          "_newCampaign": "is ICampaign of created campaign from proxy"
        }
      },
      "deleteCampaign()": {
        "details": "Only an contract already deployed must be able to call this function"
      },
      "setProxy(address)": {
        "details": "Only the actual owner must be able to call this function",
        "params": {
          "_proxyContract": "address the ProxyContract"
        }
      },
      "updateOwner(address)": {
        "details": "Only the actual owner must be able to call this function",
        "params": {
          "newOwner": "address The new owner address"
        }
      }
    },
    "title": "CampaignFactory",
    "version": 1
  },
  "userdoc": {
    "kind": "user",
    "methods": {
      "addCampaign(address)": {
        "notice": "Add campaign contract address to mapping"
      },
      "deleteCampaign()": {
        "notice": "Delete a new Campaign that call this function."
      },
      "setProxy(address)": {
        "notice": "Allow the owner to set ProxyContract address."
      },
      "updateOwner(address)": {
        "notice": "Allow the owner to set a new owner for the factory."
      }
    },
    "notice": "The Campaign factory is used for the deployment of new campaign",
    "version": 1
  }
}