{
  "contractName": "Campaign",
  "abi": [
    {
      "inputs": [
        {
          "components": [
            {
              "internalType": "string",
              "name": "title",
              "type": "string"
            },
            {
              "internalType": "string",
              "name": "description",
              "type": "string"
            },
            {
              "internalType": "uint256",
              "name": "fundingGoal",
              "type": "uint256"
            },
            {
              "internalType": "uint256",
              "name": "deadlineDate",
              "type": "uint256"
            }
          ],
          "internalType": "struct ICampaign.Info",
          "name": "infoData",
          "type": "tuple"
        },
        {
          "components": [
            {
              "internalType": "string",
              "name": "title",
              "type": "string"
            },
            {
              "internalType": "string",
              "name": "description",
              "type": "string"
            },
            {
              "internalType": "uint256",
              "name": "minimumContribution",
              "type": "uint256"
            },
            {
              "internalType": "uint256",
              "name": "amount",
              "type": "uint256"
            },
            {
              "internalType": "uint256",
              "name": "stockLimit",
              "type": "uint256"
            },
            {
              "internalType": "uint256",
              "name": "nbContributors",
              "type": "uint256"
            },
            {
              "internalType": "bool",
              "name": "isStockLimited",
              "type": "bool"
            }
          ],
          "internalType": "struct ICampaign.Rewards[]",
          "name": "rewardsData",
          "type": "tuple[]"
        },
        {
          "internalType": "address",
          "name": "_manager",
          "type": "address"
        },
        {
          "internalType": "contract IERC20",
          "name": "_usdcToken",
          "type": "address"
        }
      ],
      "stateMutability": "nonpayable",
      "type": "constructor"
    },
    {
      "inputs": [
        {
          "internalType": "address",
          "name": "",
          "type": "address"
        }
      ],
      "name": "contributorBalances",
      "outputs": [
        {
          "internalType": "uint256",
          "name": "",
          "type": "uint256"
        }
      ],
      "stateMutability": "view",
      "type": "function"
    },
    {
      "inputs": [],
      "name": "createAt",
      "outputs": [
        {
          "internalType": "uint256",
          "name": "",
          "type": "uint256"
        }
      ],
      "stateMutability": "view",
      "type": "function"
    },
    {
      "inputs": [],
      "name": "factory",
      "outputs": [
        {
          "internalType": "address",
          "name": "",
          "type": "address"
        }
      ],
      "stateMutability": "view",
      "type": "function"
    },
    {
      "inputs": [],
      "name": "manager",
      "outputs": [
        {
          "internalType": "address",
          "name": "",
          "type": "address"
        }
      ],
      "stateMutability": "view",
      "type": "function"
    },
    {
      "inputs": [],
      "name": "proposal",
      "outputs": [
        {
          "internalType": "address",
          "name": "",
          "type": "address"
        }
      ],
      "stateMutability": "view",
      "type": "function"
    },
    {
      "inputs": [
        {
          "internalType": "uint256",
          "name": "",
          "type": "uint256"
        },
        {
          "internalType": "address",
          "name": "",
          "type": "address"
        }
      ],
      "name": "rewardToContributor",
      "outputs": [
        {
          "internalType": "uint256",
          "name": "",
          "type": "uint256"
        }
      ],
      "stateMutability": "view",
      "type": "function"
    },
    {
      "inputs": [],
      "name": "rewardsCounter",
      "outputs": [
        {
          "internalType": "uint8",
          "name": "",
          "type": "uint8"
        }
      ],
      "stateMutability": "view",
      "type": "function"
    },
    {
      "inputs": [
        {
          "internalType": "uint256",
          "name": "",
          "type": "uint256"
        }
      ],
      "name": "rewardsList",
      "outputs": [
        {
          "internalType": "string",
          "name": "title",
          "type": "string"
        },
        {
          "internalType": "string",
          "name": "description",
          "type": "string"
        },
        {
          "internalType": "uint256",
          "name": "minimumContribution",
          "type": "uint256"
        },
        {
          "internalType": "uint256",
          "name": "amount",
          "type": "uint256"
        },
        {
          "internalType": "uint256",
          "name": "stockLimit",
          "type": "uint256"
        },
        {
          "internalType": "uint256",
          "name": "nbContributors",
          "type": "uint256"
        },
        {
          "internalType": "bool",
          "name": "isStockLimited",
          "type": "bool"
        }
      ],
      "stateMutability": "view",
      "type": "function"
    },
    {
      "inputs": [],
      "name": "status",
      "outputs": [
        {
          "internalType": "enum ICampaign.WorkflowStatus",
          "name": "",
          "type": "uint8"
        }
      ],
      "stateMutability": "view",
      "type": "function"
    },
    {
      "inputs": [],
      "name": "usdcToken",
      "outputs": [
        {
          "internalType": "contract IERC20",
          "name": "",
          "type": "address"
        }
      ],
      "stateMutability": "view",
      "type": "function"
    },
    {
      "inputs": [],
      "name": "getCampaignInfo",
      "outputs": [
        {
          "components": [
            {
              "internalType": "string",
              "name": "title",
              "type": "string"
            },
            {
              "internalType": "string",
              "name": "description",
              "type": "string"
            },
            {
              "internalType": "uint256",
              "name": "fundingGoal",
              "type": "uint256"
            },
            {
              "internalType": "uint256",
              "name": "deadlineDate",
              "type": "uint256"
            }
          ],
          "internalType": "struct ICampaign.Info",
          "name": "",
          "type": "tuple"
        },
        {
          "internalType": "uint256",
          "name": "",
          "type": "uint256"
        },
        {
          "internalType": "address",
          "name": "",
          "type": "address"
        },
        {
          "internalType": "enum ICampaign.WorkflowStatus",
          "name": "",
          "type": "uint8"
        }
      ],
      "stateMutability": "view",
      "type": "function"
    },
    {
      "inputs": [
        {
          "components": [
            {
              "internalType": "string",
              "name": "title",
              "type": "string"
            },
            {
              "internalType": "string",
              "name": "description",
              "type": "string"
            },
            {
              "internalType": "uint256",
              "name": "fundingGoal",
              "type": "uint256"
            },
            {
              "internalType": "uint256",
              "name": "deadlineDate",
              "type": "uint256"
            }
          ],
          "internalType": "struct ICampaign.Info",
          "name": "newInfo",
          "type": "tuple"
        }
      ],
      "name": "updateCampaign",
      "outputs": [],
      "stateMutability": "nonpayable",
      "type": "function"
    },
    {
      "inputs": [
        {
          "components": [
            {
              "internalType": "string",
              "name": "title",
              "type": "string"
            },
            {
              "internalType": "string",
              "name": "description",
              "type": "string"
            },
            {
              "internalType": "uint256",
              "name": "minimumContribution",
              "type": "uint256"
            },
            {
              "internalType": "uint256",
              "name": "amount",
              "type": "uint256"
            },
            {
              "internalType": "uint256",
              "name": "stockLimit",
              "type": "uint256"
            },
            {
              "internalType": "uint256",
              "name": "nbContributors",
              "type": "uint256"
            },
            {
              "internalType": "bool",
              "name": "isStockLimited",
              "type": "bool"
            }
          ],
          "internalType": "struct ICampaign.Rewards",
          "name": "newRewardData",
          "type": "tuple"
        }
      ],
      "name": "addReward",
      "outputs": [],
      "stateMutability": "nonpayable",
      "type": "function"
    },
    {
      "inputs": [
        {
          "components": [
            {
              "internalType": "string",
              "name": "title",
              "type": "string"
            },
            {
              "internalType": "string",
              "name": "description",
              "type": "string"
            },
            {
              "internalType": "uint256",
              "name": "minimumContribution",
              "type": "uint256"
            },
            {
              "internalType": "uint256",
              "name": "amount",
              "type": "uint256"
            },
            {
              "internalType": "uint256",
              "name": "stockLimit",
              "type": "uint256"
            },
            {
              "internalType": "uint256",
              "name": "nbContributors",
              "type": "uint256"
            },
            {
              "internalType": "bool",
              "name": "isStockLimited",
              "type": "bool"
            }
          ],
          "internalType": "struct ICampaign.Rewards",
          "name": "newRewardData",
          "type": "tuple"
        },
        {
          "internalType": "uint256",
          "name": "rewardIndex",
          "type": "uint256"
        }
      ],
      "name": "updateReward",
      "outputs": [],
      "stateMutability": "nonpayable",
      "type": "function"
    },
    {
      "inputs": [],
      "name": "deleteCampaign",
      "outputs": [],
      "stateMutability": "nonpayable",
      "type": "function"
    },
    {
      "inputs": [
        {
          "internalType": "uint256",
          "name": "rewardIndex",
          "type": "uint256"
        }
      ],
      "name": "deleteReward",
      "outputs": [],
      "stateMutability": "nonpayable",
      "type": "function"
    },
    {
      "inputs": [
        {
          "internalType": "address",
          "name": "newManager",
          "type": "address"
        }
      ],
      "name": "updateManager",
      "outputs": [],
      "stateMutability": "nonpayable",
      "type": "function"
    },
    {
      "inputs": [],
      "name": "publishCampaign",
      "outputs": [],
      "stateMutability": "nonpayable",
      "type": "function"
    },
    {
      "inputs": [
        {
          "internalType": "uint256",
          "name": "_amount",
          "type": "uint256"
        },
        {
          "internalType": "uint8",
          "name": "rewardIndex",
          "type": "uint8"
        }
      ],
      "name": "contribute",
      "outputs": [],
      "stateMutability": "nonpayable",
      "type": "function"
    },
    {
      "inputs": [],
      "name": "failFunding",
      "outputs": [],
      "stateMutability": "nonpayable",
      "type": "function"
    },
    {
      "inputs": [],
      "name": "launchProposalContract",
      "outputs": [],
      "stateMutability": "nonpayable",
      "type": "function"
    },
    {
      "inputs": [],
      "name": "getContractUSDCBalance",
      "outputs": [
        {
          "internalType": "uint256",
          "name": "",
          "type": "uint256"
        }
      ],
      "stateMutability": "view",
      "type": "function"
    }
  ],
  "bytecode": "0x60a06040523480156200001157600080fd5b5060405162004127380380620041278339810160408190526200003491620007a7565b60008351116200008b5760405162461bcd60e51b815260206004820152601360248201527f214572723a205265776172647320656d7074790000000000000000000000000060448201526064015b60405180910390fd5b600a83511115620000df5760405162461bcd60e51b815260206004820152601660248201527f214572723a20546f6f206d756368205265776172647300000000000000000000604482015260640162000082565b600280546001600160a01b0384166001600160a01b0319918216179091556003805490911633179055426001556004805460ff60a01b191690556001600160601b0319606082901b166080526200013684620001af565b60005b83518160ff1610156200018f576200017a8160ff16858360ff1681518110620001665762000166620009b9565b60200260200101516200035560201b60201c565b80620001868162000980565b91505062000139565b505090516000805460ff191660ff90921691909117905550620009e59050565b805151620001f45760405162461bcd60e51b8152602060048201526011602482015270214572723a205469746c6520656d70747960781b604482015260640162000082565b6000816020015151116200024b5760405162461bcd60e51b815260206004820152601760248201527f214572723a204465736372697074696f6e20656d707479000000000000000000604482015260640162000082565b69021e19e0c9bab240000081604001511015620002ab5760405162461bcd60e51b815260206004820152601d60248201527f214572723a2046756e64696e6720476f616c206e6f7420656e6f756768000000604482015260640162000082565b6060810151600154620002c29062093a8062000928565b1115620003125760405162461bcd60e51b815260206004820152601b60248201527f214572723a20646561646c696e654461746520746f2073686f72740000000000604482015260640162000082565b805180516200032a91600591602090910190620004ef565b50602080820151805162000343926006920190620004ef565b50604081015160075560600151600855565b8051516200039a5760405162461bcd60e51b8152602060048201526011602482015270214572723a205469746c6520656d70747960781b604482015260640162000082565b600081602001515111620003f15760405162461bcd60e51b815260206004820152601760248201527f214572723a204465736372697074696f6e20656d707479000000000000000000604482015260640162000082565b620004346040518060e001604052806060815260200160608152602001600081526020016000815260200160008152602001600081526020016000151581525090565b8151815260208083015181830152604080840151818401526080808501519084015260a0808501519084015260c080850151151590840152600085815260098352208251805184936200048c928492910190620004ef565b506020828101518051620004a79260018501920190620004ef565b5060408201516002820155606082015160038201556080820151600482015560a0820151600582015560c0909101516006909101805460ff1916911515919091179055505050565b828054620004fd9062000943565b90600052602060002090601f0160209004810192826200052157600085556200056c565b82601f106200053c57805160ff19168380011785556200056c565b828001600101855582156200056c579182015b828111156200056c5782518255916020019190600101906200054f565b506200057a9291506200057e565b5090565b5b808211156200057a57600081556001016200057f565b80516001600160a01b0381168114620005ad57600080fd5b919050565b600082601f830112620005c457600080fd5b815160206001600160401b0380831115620005e357620005e3620009cf565b8260051b620005f4838201620008f5565b8481528381019087850183890186018a10156200061057600080fd5b600093505b86841015620006f4578051858111156200062e57600080fd5b890160e0818c03601f19018113156200064657600080fd5b62000650620008a5565b88830151888111156200066257600080fd5b620006728e8b8387010162000712565b825250604080840151898111156200068957600080fd5b620006998f8c8388010162000712565b8b84015250606080850151828401526080915081850151818401525060a0808501518284015260c09150818501518184015250620006d983850162000701565b90820152855250506001939093019291850191850162000615565b5098975050505050505050565b80518015158114620005ad57600080fd5b600082601f8301126200072457600080fd5b81516001600160401b03811115620007405762000740620009cf565b602062000756601f8301601f19168201620008f5565b82815285828487010111156200076b57600080fd5b60005b838110156200078b5785810183015182820184015282016200076e565b838111156200079d5760008385840101525b5095945050505050565b60008060008060808587031215620007be57600080fd5b84516001600160401b0380821115620007d657600080fd5b9086019060808289031215620007eb57600080fd5b620007f5620008d0565b8251828111156200080557600080fd5b620008138a82860162000712565b8252506020830151828111156200082957600080fd5b620008378a82860162000712565b60208301525060408301516040820152606083015160608201528096505060208701519150808211156200086a57600080fd5b506200087987828801620005b2565b9350506200088a6040860162000595565b91506200089a6060860162000595565b905092959194509250565b60405160e081016001600160401b0381118282101715620008ca57620008ca620009cf565b60405290565b604051608081016001600160401b0381118282101715620008ca57620008ca620009cf565b604051601f8201601f191681016001600160401b0381118282101715620009205762000920620009cf565b604052919050565b600082198211156200093e576200093e620009a3565b500190565b600181811c908216806200095857607f821691505b602082108114156200097a57634e487b7160e01b600052602260045260246000fd5b50919050565b600060ff821660ff8114156200099a576200099a620009a3565b60010192915050565b634e487b7160e01b600052601160045260246000fd5b634e487b7160e01b600052603260045260246000fd5b634e487b7160e01b600052604160045260246000fd5b60805160601c61371562000a1260003960008181610190015281816103af0152610cdd01526137156000f3fe60806040523480156200001157600080fd5b50600436106200015c5760003560e01c80636bdca7d511620000c7578063c45a01551162000086578063c45a01551462000318578063cc2e554a146200032c578063d355f0061462000343578063d6290cd7146200035a578063e7cf1ab71462000376578063e8b3b1c9146200038d57600080fd5b80636bdca7d51462000296578063753ec10314620002c45780637ef59f8414620002d8578063bd39e01514620002e2578063bf1d4cad146200030e57600080fd5b8063244c3c2c1162000120578063244c3c2c1462000210578063287af432146200021a57806337acecce146200023d578063481c6a75146200025457806356212d59146200026857806358aba00f146200027f57600080fd5b80622772c214620001615780630d4c4a2f146200017e57806311eac855146200018a578063200d2ed214620001cb578063205b091414620001ef575b600080fd5b6200016b62000397565b6040519081526020015b60405180910390f35b620001886200043a565b005b620001b27f000000000000000000000000000000000000000000000000000000000000000081565b6040516001600160a01b03909116815260200162000175565b600454620001e090600160a01b900460ff1681565b60405162000175919062001faf565b600054620001fd9060ff1681565b60405160ff909116815260200162000175565b6200018862000530565b6200016b6200022b36600462001d2a565b600b6020526000908152604090205481565b620001886200024e36600462001d68565b620006d0565b600254620001b2906001600160a01b031681565b620001886200027936600462001e5c565b62000796565b620001886200029036600462001d2a565b620008ad565b6200016b620002a736600462001ed9565b600a60209081526000928352604080842090915290825290205481565b600454620001b2906001600160a01b031681565b62000188620008fc565b620002f9620002f336600462001ea5565b62000a34565b60405162000175979695949392919062001fd4565b6200016b60015481565b600354620001b2906001600160a01b031681565b620001886200033d36600462001f08565b62000b92565b620001886200035436600462001e1b565b62000e08565b6200036462000f02565b604051620001759493929190620020ba565b620001886200038736600462001ea5565b620010fd565b620001886200136c565b6040516370a0823160e01b81523060048201526000907f00000000000000000000000000000000000000000000000000000000000000006001600160a01b0316906370a082319060240160206040518083038186803b158015620003fa57600080fd5b505afa1580156200040f573d6000803e3d6000fd5b505050506040513d601f19601f8201168201806040525081019062000435919062001ebf565b905090565b6005600454600160a01b900460ff1660058111156200045d576200045d620022b0565b1415620004875760405162461bcd60e51b81526004016200047e906200208a565b60405180910390fd5b600454600160a01b900460ff16600280826005811115620004ac57620004ac620022b0565b14620004cc5760405162461bcd60e51b81526004016200047e9062002053565b600030604051620004dd9062001a41565b6001600160a01b039091168152602001604051809103906000f0801580156200050a573d6000803e3d6000fd5b50600480546001600160a01b0319166001600160a01b0392909216919091179055505050565b6005600454600160a01b900460ff166005811115620005535762000553620022b0565b1415620005745760405162461bcd60e51b81526004016200047e906200208a565b6002546001600160a01b03163314620005a15760405162461bcd60e51b81526004016200047e906200202a565b6000600454600160a01b900460ff166005811115620005c457620005c4620022b0565b1480620005f157506003600454600160a01b900460ff166005811115620005ef57620005ef620022b0565b145b806200061c575060048054600160a01b900460ff1660058111156200061a576200061a620022b0565b145b6200063b5760405162461bcd60e51b81526004016200047e9062002053565b6004805460ff60a01b1916600560a01b178155600354604080516309130f0b60e21b815290516001600160a01b039092169263244c3c2c9282820192602092908290030181600087803b1580156200069257600080fd5b505af1158015620006a7573d6000803e3d6000fd5b505050506040513d601f19601f82011682018060405250810190620006cd919062001d48565b50565b6005600454600160a01b900460ff166005811115620006f357620006f3620022b0565b1415620007145760405162461bcd60e51b81526004016200047e906200208a565b6002546001600160a01b03163314620007415760405162461bcd60e51b81526004016200047e906200202a565b600454600160a01b900460ff16600080826005811115620007665762000766620022b0565b14620007865760405162461bcd60e51b81526004016200047e9062002053565b620007918362001436565b505050565b6005600454600160a01b900460ff166005811115620007b957620007b9620022b0565b1415620007da5760405162461bcd60e51b81526004016200047e906200208a565b6002546001600160a01b03163314620008075760405162461bcd60e51b81526004016200047e906200202a565b600454600160a01b900460ff166000808260058111156200082c576200082c620022b0565b146200084c5760405162461bcd60e51b81526004016200047e9062002053565b60005460ff168311156200089b5760405162461bcd60e51b815260206004820152601560248201527408515c9c8e88125b99195e081b9bdd08195e1a5cdd605a1b60448201526064016200047e565b620008a78385620015d6565b50505050565b6002546001600160a01b03163314620008da5760405162461bcd60e51b81526004016200047e906200202a565b600280546001600160a01b0319166001600160a01b0392909216919091179055565b6005600454600160a01b900460ff1660058111156200091f576200091f620022b0565b1415620009405760405162461bcd60e51b81526004016200047e906200208a565b6002546001600160a01b031633146200096d5760405162461bcd60e51b81526004016200047e906200202a565b600454600160a01b900460ff16600080826005811115620009925762000992620022b0565b14620009b25760405162461bcd60e51b81526004016200047e9062002053565b600854600090620009c89062093a8090620021ab565b90504281101562000a1c5760405162461bcd60e51b815260206004820152601b60248201527f214572723a20646561646c696e654461746520746f2073686f7274000000000060448201526064016200047e565b50506004805460ff60a01b1916600160a01b17905550565b60096020526000908152604090208054819062000a51906200223a565b80601f016020809104026020016040519081016040528092919081815260200182805462000a7f906200223a565b801562000ad05780601f1062000aa45761010080835404028352916020019162000ad0565b820191906000526020600020905b81548152906001019060200180831162000ab257829003601f168201915b50505050509080600101805462000ae7906200223a565b80601f016020809104026020016040519081016040528092919081815260200182805462000b15906200223a565b801562000b665780601f1062000b3a5761010080835404028352916020019162000b66565b820191906000526020600020905b81548152906001019060200180831162000b4857829003601f168201915b505050600284015460038501546004860154600587015460069097015495969295919450925060ff1687565b6005600454600160a01b900460ff16600581111562000bb55762000bb5620022b0565b141562000bd65760405162461bcd60e51b81526004016200047e906200208a565b600854421062000c385760405162461bcd60e51b815260206004820152602660248201527f21457272203a2043616d706169676e20636f6e747269627574696f6e2068617360448201526508195b99195960d21b60648201526084016200047e565b6000600454600160a01b900460ff16600581111562000c5b5762000c5b620022b0565b1415801562000c8b57506003600454600160a01b900460ff16600581111562000c885762000c88620022b0565b14155b801562000cb8575060048054600160a01b900460ff16600581111562000cb55762000cb5620022b0565b14155b62000cd75760405162461bcd60e51b81526004016200047e9062002053565b62000d057f00000000000000000000000000000000000000000000000000000000000000003330856200176a565b336000908152600b602052604090205462000d219083620017c6565b336000818152600b602090815260408083209490945560ff85168252600a815283822092825291909152205462000d5a906001620017c6565b60ff82166000818152600a602090815260408083203384528252808320949094559181526009909152206005015462000d95906001620017c6565b60ff8216600090815260096020526040902060058101919091556003015462000dbf9083620017c6565b60ff821660009081526009602052604090206003015560075462000de262000397565b1062000e0457600480546002919060ff60a01b1916600160a01b835b02179055505b5050565b6005600454600160a01b900460ff16600581111562000e2b5762000e2b620022b0565b141562000e4c5760405162461bcd60e51b81526004016200047e906200208a565b6002546001600160a01b0316331462000e795760405162461bcd60e51b81526004016200047e906200202a565b600454600160a01b900460ff1660008082600581111562000e9e5762000e9e620022b0565b1462000ebe5760405162461bcd60e51b81526004016200047e9062002053565b60005462000ed09060ff1684620015d6565b6000805460ff16908062000ee48362002277565b91906101000a81548160ff021916908360ff16021790555050505050565b62000f2e6040518060800160405280606081526020016060815260200160008152602001600081525090565b600080806005600454600160a01b900460ff16600581111562000f555762000f55620022b0565b141562000f765760405162461bcd60e51b81526004016200047e906200208a565b6001546002546004546040805160808101909152600580549094936001600160a01b031692600160a01b900460ff16919085908290829062000fb8906200223a565b80601f016020809104026020016040519081016040528092919081815260200182805462000fe6906200223a565b8015620010375780601f106200100b5761010080835404028352916020019162001037565b820191906000526020600020905b8154815290600101906020018083116200101957829003601f168201915b5050505050815260200160018201805462001052906200223a565b80601f016020809104026020016040519081016040528092919081815260200182805462001080906200223a565b8015620010d15780601f10620010a557610100808354040283529160200191620010d1565b820191906000526020600020905b815481529060010190602001808311620010b357829003601f168201915b505050918352505060028201546020820152600390910154604090910152989297509095509350915050565b6005600454600160a01b900460ff166005811115620011205762001120620022b0565b1415620011415760405162461bcd60e51b81526004016200047e906200208a565b6002546001600160a01b031633146200116e5760405162461bcd60e51b81526004016200047e906200202a565b600454600160a01b900460ff16600080826005811115620011935762001193620022b0565b14620011b35760405162461bcd60e51b81526004016200047e9062002053565b60005460ff168310620012015760405162461bcd60e51b815260206004820152601560248201527408515c9c8e88125b99195e081b9bdd08195e1a5cdd605a1b60448201526064016200047e565b6000548390620012179060019060ff16620021c5565b60ff1614620012e1576000805460099190620012399060019060ff16620021c5565b60ff168152602080820192909252604090810160009081208682526009909352208154819083906200126b906200223a565b6200127892919062001a4f565b5060018201816001019080546200128f906200223a565b6200129c92919062001a4f565b50600282810154908201556003808301549082015560048083015490820155600580830154908201556006918201549101805460ff191660ff90921615159190911790555b6000805460099190620012fa9060019060ff16620021c5565b60ff168152602001908152602001600020600080820160006200131e919062001ae5565b6200132e60018301600062001ae5565b506000600282018190556003820181905560048201819055600582018190556006909101805460ff19169055805460ff16908062000ee4836200221a565b600454600160a01b900460ff16600180826005811115620013915762001391620022b0565b14620013b15760405162461bcd60e51b81526004016200047e9062002053565b60085442118015620013cd5750600754620013cb62000397565b105b6200141b5760405162461bcd60e51b815260206004820152601860248201527f214572723a20636f6e646974696f6e73206e6f74206d6574000000000000000060448201526064016200047e565b600480546003919060ff60a01b1916600160a01b8362000dfe565b8051516200147b5760405162461bcd60e51b8152602060048201526011602482015270214572723a205469746c6520656d70747960781b60448201526064016200047e565b600081602001515111620014cc5760405162461bcd60e51b8152602060048201526017602482015276214572723a204465736372697074696f6e20656d70747960481b60448201526064016200047e565b69021e19e0c9bab2400000816040015110156200152c5760405162461bcd60e51b815260206004820152601d60248201527f214572723a2046756e64696e6720476f616c206e6f7420656e6f75676800000060448201526064016200047e565b6060810151600154620015439062093a8062002190565b1115620015935760405162461bcd60e51b815260206004820152601b60248201527f214572723a20646561646c696e654461746520746f2073686f7274000000000060448201526064016200047e565b80518051620015ab9160059160209091019062001b24565b506020808201518051620015c492600692019062001b24565b50604081015160075560600151600855565b8051516200161b5760405162461bcd60e51b8152602060048201526011602482015270214572723a205469746c6520656d70747960781b60448201526064016200047e565b6000816020015151116200166c5760405162461bcd60e51b8152602060048201526017602482015276214572723a204465736372697074696f6e20656d70747960481b60448201526064016200047e565b620016af6040518060e001604052806060815260200160608152602001600081526020016000815260200160008152602001600081526020016000151581525090565b8151815260208083015181830152604080840151818401526080808501519084015260a0808501519084015260c080850151151590840152600085815260098352208251805184936200170792849291019062001b24565b50602082810151805162001722926001850192019062001b24565b5060408201516002820155606082015160038201556080820151600482015560a0820151600582015560c0909101516006909101805460ff1916911515919091179055505050565b604080516001600160a01b0385811660248301528416604482015260648082018490528251808303909101815260849091019091526020810180516001600160e01b03166323b872dd60e01b179052620008a7908590620017dd565b6000620017d4828462002190565b90505b92915050565b600062001834826040518060400160405280602081526020017f5361666545524332303a206c6f772d6c6576656c2063616c6c206661696c6564815250856001600160a01b0316620018b69092919063ffffffff16565b80519091501562000791578080602001905181019062001855919062001d48565b620007915760405162461bcd60e51b815260206004820152602a60248201527f5361666545524332303a204552433230206f7065726174696f6e20646964206e6044820152691bdd081cdd58d8d9595960b21b60648201526084016200047e565b6060620018c78484600085620018d1565b90505b9392505050565b606082471015620019345760405162461bcd60e51b815260206004820152602660248201527f416464726573733a20696e73756666696369656e742062616c616e636520666f6044820152651c8818d85b1b60d21b60648201526084016200047e565b843b620019845760405162461bcd60e51b815260206004820152601d60248201527f416464726573733a2063616c6c20746f206e6f6e2d636f6e747261637400000060448201526064016200047e565b600080866001600160a01b03168587604051620019a2919062001f91565b60006040518083038185875af1925050503d8060008114620019e1576040519150601f19603f3d011682016040523d82523d6000602084013e620019e6565b606091505b5091509150620019f882828662001a03565b979650505050505050565b6060831562001a14575081620018ca565b82511562001a255782518084602001fd5b8160405162461bcd60e51b81526004016200047e919062001fbf565b6113f480620022ec83390190565b82805462001a5d906200223a565b90600052602060002090601f01602090048101928262001a81576000855562001ad3565b82601f1062001a94578054855562001ad3565b8280016001018555821562001ad357600052602060002091601f016020900482015b8281111562001ad357825482559160010191906001019062001ab6565b5062001ae192915062001ba1565b5090565b50805462001af3906200223a565b6000825580601f1062001b04575050565b601f016020900490600052602060002090810190620006cd919062001ba1565b82805462001b32906200223a565b90600052602060002090601f01602090048101928262001b56576000855562001ad3565b82601f1062001b7157805160ff191683800117855562001ad3565b8280016001018555821562001ad3579182015b8281111562001ad357825182559160200191906001019062001b84565b5b8082111562001ae1576000815560010162001ba2565b80356001600160a01b038116811462001bd057600080fd5b919050565b803562001bd081620022dc565b600082601f83011262001bf457600080fd5b813567ffffffffffffffff8082111562001c125762001c12620022c6565b604051601f8301601f19908116603f0116810190828211818310171562001c3d5762001c3d620022c6565b8160405283815286602085880101111562001c5757600080fd5b836020870160208301376000602085830101528094505050505092915050565b600060e0828403121562001c8a57600080fd5b62001c946200213e565b9050813567ffffffffffffffff8082111562001caf57600080fd5b62001cbd8583860162001be2565b8352602084013591508082111562001cd457600080fd5b5062001ce38482850162001be2565b60208301525060408201356040820152606082013560608201526080820135608082015260a082013560a082015262001d1f60c0830162001bd5565b60c082015292915050565b60006020828403121562001d3d57600080fd5b620017d48262001bb8565b60006020828403121562001d5b57600080fd5b8151620018ca81620022dc565b60006020828403121562001d7b57600080fd5b813567ffffffffffffffff8082111562001d9457600080fd5b908301906080828603121562001da957600080fd5b62001db36200216a565b82358281111562001dc357600080fd5b62001dd18782860162001be2565b82525060208301358281111562001de757600080fd5b62001df58782860162001be2565b602083015250604083013560408201526060830135606082015280935050505092915050565b60006020828403121562001e2e57600080fd5b813567ffffffffffffffff81111562001e4657600080fd5b62001e548482850162001c77565b949350505050565b6000806040838503121562001e7057600080fd5b823567ffffffffffffffff81111562001e8857600080fd5b62001e968582860162001c77565b95602094909401359450505050565b60006020828403121562001eb857600080fd5b5035919050565b60006020828403121562001ed257600080fd5b5051919050565b6000806040838503121562001eed57600080fd5b8235915062001eff6020840162001bb8565b90509250929050565b6000806040838503121562001f1c57600080fd5b82359150602083013560ff8116811462001f3557600080fd5b809150509250929050565b6006811062001f5f57634e487b7160e01b600052602160045260246000fd5b9052565b6000815180845262001f7d816020860160208601620021eb565b601f01601f19169290920160200192915050565b6000825162001fa5818460208701620021eb565b9190910192915050565b60208101620017d7828462001f40565b602081526000620017d4602083018462001f63565b60e08152600062001fe960e083018a62001f63565b828103602084015262001ffd818a62001f63565b604084019890985250506060810194909452608084019290925260a0830152151560c09091015292915050565b6020808252600f908201526e08539bdd08105d5d1a1bdc9a5e9959608a1b604082015260600190565b6020808252601c908201527f21457272203a2057726f6e6720776f726b666c6f772073746174757300000000604082015260600190565b60208082526016908201527508515c9c8e8810d85b5c185a59db8811195b195d195960521b604082015260600190565b6080815260008551608080840152620020d861010084018262001f63565b90506020870151607f198483030160a0850152620020f7828262001f63565b915050604087015160c0840152606087015160e08401528091505084602083015260018060a01b038416604083015262002135606083018462001f40565b95945050505050565b60405160e0810167ffffffffffffffff81118282101715620021645762002164620022c6565b60405290565b6040516080810167ffffffffffffffff81118282101715620021645762002164620022c6565b60008219821115620021a657620021a66200229a565b500190565b600082821015620021c057620021c06200229a565b500390565b600060ff821660ff841680821015620021e257620021e26200229a565b90039392505050565b60005b8381101562002208578181015183820152602001620021ee565b83811115620008a75750506000910152565b600060ff8216806200223057620022306200229a565b6000190192915050565b600181811c908216806200224f57607f821691505b602082108114156200227157634e487b7160e01b600052602260045260246000fd5b50919050565b600060ff821660ff8114156200229157620022916200229a565b60010192915050565b634e487b7160e01b600052601160045260246000fd5b634e487b7160e01b600052602160045260246000fd5b634e487b7160e01b600052604160045260246000fd5b8015158114620006cd57600080fdfe60a060405234801561001057600080fd5b506040516113f43803806113f483398101604081905261002f916100f3565b6001600160601b0319606082901b16608052600280546001600160a01b0319166001600160a01b0383169081179091556040805163481c6a7560e01b8152905163481c6a7591600480820192602092909190829003018186803b15801561009557600080fd5b505afa1580156100a9573d6000803e3d6000fd5b505050506040513d601f19601f820116820180604052508101906100cd91906100f3565b600080546001600160a01b0319166001600160a01b039290921691909117905550610123565b60006020828403121561010557600080fd5b81516001600160a01b038116811461011c57600080fd5b9392505050565b60805160601c6112b4610140600039600060a701526112b46000f3fe608060405234801561001057600080fd5b50600436106100885760003560e01c80638259d5531161005b5780638259d5531461011e5780639980a55a14610131578063c6311e3f14610144578063fb5e76e61461016b57600080fd5b80630ce0ebf41461008d57806311765b27146100a25780633dca3d34146100e657806381a60c0d146100f9575b600080fd5b6100a061009b366004610fa6565b61017e565b005b6100c97f000000000000000000000000000000000000000000000000000000000000000081565b6040516001600160a01b0390911681526020015b60405180910390f35b6100a06100f4366004611045565b6104ae565b61010c610107366004611013565b61072c565b60405160ff90911681526020016100dd565b6100a061012c366004611013565b6108a9565b6100a061013f366004611013565b610ac5565b610157610152366004611013565b610bcc565b6040516100dd98979695949392919061112a565b6000546100c9906001600160a01b031681565b6000546001600160a01b031633146101b15760405162461bcd60e51b81526004016101a8906110ff565b60405180910390fd5b600154600080600383815481106101ca576101ca611252565b600091825260209091206006600890920201015460ff1660048111156101f2576101f261123c565b1461020f5760405162461bcd60e51b81526004016101a8906110c8565b6003546006116102725760405162461bcd60e51b815260206004820152602860248201527f214572723a204d6178696d756d20616d6f756e74206f662070726f706f73616c604482015267081c995858da195960c21b60648201526084016101a8565b60008551116102b75760405162461bcd60e51b8152602060048201526011602482015270214572723a205469746c6520656d70747960781b60448201526064016101a8565b60008451116103085760405162461bcd60e51b815260206004820152601760248201527f214572723a204465736372697074696f6e20656d70747900000000000000000060448201526064016101a8565b610310610d35565b83111561037b5760405162461bcd60e51b815260206004820152603360248201527f214572723a2050726f706f73616c20616d6f756e7420657863656564732063616044820152726d706169676e20555344432062616c616e636560681b60648201526084016101a8565b60015460036001548154811061039357610393611252565b906000526020600020906008020160000181905550846003600154815481106103be576103be611252565b906000526020600020906008020160010190805190602001906103e2929190610dc8565b50836003600154815481106103f9576103f9611252565b9060005260206000209060080201600201908051906020019061041d929190610dc8565b508260036001548154811061043457610434611252565b906000526020600020906008020160030181905550600160036001548154811061046057610460611252565b60009182526020909120600660089092020101805460ff1916600183600481111561048d5761048d61123c565b0217905550600180549060006104a28361120b565b91905055505050505050565b81600280600383815481106104c5576104c5611252565b600091825260209091206006600890920201015460ff1660048111156104ed576104ed61123c565b1461050a5760405162461bcd60e51b81526004016101a8906110c8565b836003818154811061051e5761051e611252565b906000526020600020906008020160070154421061057e5760405162461bcd60e51b815260206004820152601e60248201527f214572723a2070726f7073616c20766f74696e672068617320656e646564000060448201526064016101a8565b3360009081526004602052604090205460ff16156105d45760405162461bcd60e51b815260206004820152601360248201527208515c9c8e88105b1c9958591e481d9bdd1959606a1b60448201526064016101a8565b60025460405163143d7a1960e11b81523360048201526000916001600160a01b03169063287af4329060240160206040518083038186803b15801561061857600080fd5b505afa15801561062c573d6000803e3d6000fd5b505050506040513d601f19601f82011682018060405250810190610650919061102c565b90508460ff16600114156106c257610695816003888154811061067557610675611252565b906000526020600020906008020160040154610db590919063ffffffff16565b600387815481106106a8576106a8611252565b90600052602060002090600802016004018190555061070a565b60ff851661070a576106e1816003888154811061067557610675611252565b600387815481106106f4576106f4611252565b9060005260206000209060080201600501819055505b5050336000908152600460205260409020805460ff1916600117905550505050565b6000816002806003838154811061074557610745611252565b600091825260209091206006600890920201015460ff16600481111561076d5761076d61123c565b1461078a5760405162461bcd60e51b81526004016101a8906110c8565b6003848154811061079d5761079d611252565b90600052602060002090600802016007015442116107fd5760405162461bcd60e51b815260206004820152601a60248201527f214572723a20766f74696e67207374696c6c206f6e676f696e6700000000000060448201526064016101a8565b60046003858154811061081257610812611252565b60009182526020909120600660089092020101805460ff1916600183600481111561083f5761083f61123c565b02179055506003848154811061085757610857611252565b9060005260206000209060080201600501546003858154811061087c5761087c611252565b906000526020600020906008020160040154111561089d57600192506108a2565b600092505b5050919050565b6000546001600160a01b031633146108d35760405162461bcd60e51b81526004016101a8906110ff565b80600180600383815481106108ea576108ea611252565b600091825260209091206006600890920201015460ff1660048111156109125761091261123c565b1461092f5760405162461bcd60e51b81526004016101a8906110c8565b6001805461093d91906111b9565b8314156109b4576003838154811061095757610957611252565b600091825260208220600890910201818155906109776001830182610e4c565b610985600283016000610e4c565b50600060038201819055600482018190556005820181905560068201805460ff19169055600790910155505050565b6003600180546109c491906111b9565b815481106109d4576109d4611252565b9060005260206000209060080201600384815481106109f5576109f5611252565b9060005260206000209060080201600082015481600001556001820181600101908054610a21906111d0565b610a2c929190610e89565b506002820181600201908054610a41906111d0565b610a4c929190610e89565b50600382810154908201556004808301548183015560058084015490830155600680840154908301805460ff90921692909160ff1916906001908490811115610a9757610a9761123c565b021790555060079182015491015560018054600391610ab5916111b9565b8154811061095757610957611252565b6000546001600160a01b03163314610aef5760405162461bcd60e51b81526004016101a8906110ff565b8060018060038381548110610b0657610b06611252565b600091825260209091206006600890920201015460ff166004811115610b2e57610b2e61123c565b14610b4b5760405162461bcd60e51b81526004016101a8906110c8565b600260038481548110610b6057610b60611252565b60009182526020909120600660089092020101805460ff19166001836004811115610b8d57610b8d61123c565b0217905550610b9f42620697806111a1565b60038481548110610bb257610bb2611252565b906000526020600020906008020160070181905550505050565b60038181548110610bdc57600080fd5b60009182526020909120600890910201805460018201805491935090610c01906111d0565b80601f0160208091040260200160405190810160405280929190818152602001828054610c2d906111d0565b8015610c7a5780601f10610c4f57610100808354040283529160200191610c7a565b820191906000526020600020905b815481529060010190602001808311610c5d57829003601f168201915b505050505090806002018054610c8f906111d0565b80601f0160208091040260200160405190810160405280929190818152602001828054610cbb906111d0565b8015610d085780601f10610cdd57610100808354040283529160200191610d08565b820191906000526020600020905b815481529060010190602001808311610ceb57829003601f168201915b505050506003830154600484015460058501546006860154600790960154949592949193509160ff169088565b600254604080516213b96160e11b815290516000926001600160a01b031691622772c2916004808301926020929190829003018186803b158015610d7857600080fd5b505afa158015610d8c573d6000803e3d6000fd5b505050506040513d601f19601f82011682018060405250810190610db0919061102c565b905090565b6000610dc182846111a1565b9392505050565b828054610dd4906111d0565b90600052602060002090601f016020900481019282610df65760008555610e3c565b82601f10610e0f57805160ff1916838001178555610e3c565b82800160010185558215610e3c579182015b82811115610e3c578251825591602001919060010190610e21565b50610e48929150610f04565b5090565b508054610e58906111d0565b6000825580601f10610e68575050565b601f016020900490600052602060002090810190610e869190610f04565b50565b828054610e95906111d0565b90600052602060002090601f016020900481019282610eb75760008555610e3c565b82601f10610ec85780548555610e3c565b82800160010185558215610e3c57600052602060002091601f016020900482015b82811115610e3c578254825591600101919060010190610ee9565b5b80821115610e485760008155600101610f05565b600082601f830112610f2a57600080fd5b813567ffffffffffffffff80821115610f4557610f45611268565b604051601f8301601f19908116603f01168101908282118183101715610f6d57610f6d611268565b81604052838152866020858801011115610f8657600080fd5b836020870160208301376000602085830101528094505050505092915050565b600080600060608486031215610fbb57600080fd5b833567ffffffffffffffff80821115610fd357600080fd5b610fdf87838801610f19565b94506020860135915080821115610ff557600080fd5b5061100286828701610f19565b925050604084013590509250925092565b60006020828403121561102557600080fd5b5035919050565b60006020828403121561103e57600080fd5b5051919050565b6000806040838503121561105857600080fd5b82359150602083013560ff8116811461107057600080fd5b809150509250929050565b6000815180845260005b818110156110a157602081850181015186830182015201611085565b818111156110b3576000602083870101525b50601f01601f19169290920160200192915050565b6020808252601c908201527f21457272203a2057726f6e6720776f726b666c6f772073746174757300000000604082015260600190565b60208082526011908201527010a2b9391d103737ba1036b0b730b3b2b960791b604082015260600190565b60006101008a83528060208401526111448184018b61107b565b90508281036040840152611158818a61107b565b9150508660608301528560808301528460a08301526005841061118b57634e487b7160e01b600052602160045260246000fd5b60c082019390935260e001529695505050505050565b600082198211156111b4576111b4611226565b500190565b6000828210156111cb576111cb611226565b500390565b600181811c908216806111e457607f821691505b6020821081141561120557634e487b7160e01b600052602260045260246000fd5b50919050565b600060001982141561121f5761121f611226565b5060010190565b634e487b7160e01b600052601160045260246000fd5b634e487b7160e01b600052602160045260246000fd5b634e487b7160e01b600052603260045260246000fd5b634e487b7160e01b600052604160045260246000fdfea26469706673582212208399afdba811f55cdbb40a67617ef2087b50f1336b90936d6c69eb9a48b4a12a64736f6c63430008060033a2646970667358221220b8471f2fc014072dba8f9ac6134bf95ac011f0432812a7886ad8f1d2e019cc9564736f6c63430008060033",
  "immutableReferences": {
    "29": [
      {
        "length": 32,
        "start": 400
      },
      {
        "length": 32,
        "start": 943
      },
      {
        "length": 32,
        "start": 3293
      }
    ]
  },
  "source": "// SPDX-License-Identifier: GPL-3.0\r\npragma solidity 0.8.6;\r\n\r\nimport \"./interfaces/ICampaign.sol\";\r\nimport \"./interfaces/ICampaignFactory.sol\";\r\nimport \"./interfaces/IProposal.sol\";\r\nimport \"./Proposal.sol\";\r\nimport '@openzeppelin/contracts/token/ERC20/IERC20.sol';\r\nimport \"@openzeppelin/contracts/token/ERC20/utils/SafeERC20.sol\";\r\nimport \"@openzeppelin/contracts/utils/math/SafeMath.sol\";\r\n\r\ncontract Campaign is ICampaign {\r\n    using SafeMath for uint256;\r\n    \r\n    uint8 public rewardsCounter;\r\n    uint256 public createAt;\r\n    address public manager;\r\n    address public factory;\r\n    address public proposal;\r\n\r\n    WorkflowStatus public status;\r\n\r\n    IERC20 public immutable usdcToken;\r\n    Info private campaignInfo;\r\n\r\n    mapping(uint => Rewards) public rewardsList;\r\n    mapping(uint => mapping(address => uint)) public rewardToContributor;\r\n    mapping(address => uint256) public contributorBalances;\r\n\r\n    //Modifiers\r\n    modifier isNotDeleted(){\r\n        require(status != WorkflowStatus.CampaignDeleted, \"!Err: Campaign Deleted\");\r\n        _;\r\n    }\r\n\r\n    modifier onlyManager(){\r\n        require(msg.sender == manager, \"!Not Authorized\");\r\n        _;\r\n    }\r\n\r\n    modifier checkStatus(\r\n        WorkflowStatus currentStatus,\r\n        WorkflowStatus requiredStatus\r\n    ) {\r\n        require(currentStatus == requiredStatus, \"!Err : Wrong workflow status\");\r\n        _;\r\n    }\r\n    \r\n    modifier checkCampaignDeadline() {\r\n        require(block.timestamp <  campaignInfo.deadlineDate, \"!Err : Campaign contribution has ended\");\r\n        _;\r\n    }\r\n\r\n    constructor(Info memory infoData, Rewards[] memory rewardsData, address _manager, IERC20 _usdcToken)\r\n    {\r\n        require(rewardsData.length > 0, \"!Err: Rewards empty\");\r\n        require(rewardsData.length <= 10, \"!Err: Too much Rewards\");\r\n        manager = _manager;\r\n        factory = msg.sender;\r\n        createAt = block.timestamp;\r\n        status = WorkflowStatus.CampaignDrafted;\r\n        usdcToken = _usdcToken;\r\n        _setCampaignInfo(infoData);\r\n        uint8 _rewardsCounter;\r\n        for (_rewardsCounter; _rewardsCounter < rewardsData.length; _rewardsCounter++) {\r\n            _setCampaignReward(_rewardsCounter, rewardsData[_rewardsCounter]);\r\n        }\r\n        rewardsCounter = uint8(rewardsData.length) ;\r\n    }\r\n\r\n    /**\r\n     * @inheritdoc ICampaign\r\n     */\r\n    function getCampaignInfo() external view override isNotDeleted() returns(Info memory, uint, address, WorkflowStatus) {\r\n        return (campaignInfo, createAt, manager, status);\r\n    }\r\n\r\n    /**\r\n     * @inheritdoc ICampaign\r\n     */\r\n    function updateCampaign(Info memory newInfo) external override isNotDeleted() onlyManager() checkStatus(status, WorkflowStatus.CampaignDrafted) {\r\n        _setCampaignInfo(newInfo);\r\n    }\r\n\r\n    /**\r\n     * @inheritdoc ICampaign\r\n     */\r\n    function addReward(Rewards memory newRewardData) external override isNotDeleted() onlyManager() checkStatus(status, WorkflowStatus.CampaignDrafted) {\r\n        _setCampaignReward(rewardsCounter, newRewardData);\r\n        rewardsCounter++;\r\n    }\r\n\r\n    /**\r\n     * @inheritdoc ICampaign\r\n     */\r\n    function updateReward(Rewards memory newRewardData, uint rewardIndex) external override isNotDeleted() onlyManager() checkStatus(status, WorkflowStatus.CampaignDrafted) {\r\n        require(rewardIndex <= rewardsCounter, \"!Err: Index not exist\");\r\n        _setCampaignReward(rewardIndex, newRewardData);\r\n    }\r\n\r\n    /**\r\n    * @notice Internal function that set a new campaign's info and making data validation first.\r\n    * @param data Info Object that contains the Info data following the Info struct\r\n    */\r\n    function _setCampaignInfo(Info memory data) private {\r\n        require(bytes(data.title).length > 0, \"!Err: Title empty\");\r\n        require(bytes(data.description).length > 0, \"!Err: Description empty\");\r\n        require(data.fundingGoal >= 10000 ether, \"!Err: Funding Goal not enough\");\r\n        require(createAt + 7 days <= data.deadlineDate, \"!Err: deadlineDate to short\");\r\n        campaignInfo.title = data.title;\r\n        campaignInfo.description = data.description;\r\n        campaignInfo.fundingGoal = data.fundingGoal;\r\n        campaignInfo.deadlineDate = data.deadlineDate;\r\n    }\r\n\r\n    /**\r\n     * @notice Internal function that set a new campaign's reward level and making data validation first.\r\n     * @param index uint Index of the reward to add\r\n     * @param data Rewards Object that contains the Reward data following the Rewards struct\r\n     */\r\n    function _setCampaignReward(uint index, Rewards memory data) private {\r\n        require(bytes(data.title).length > 0, \"!Err: Title empty\");\r\n        require(bytes(data.description).length > 0, \"!Err: Description empty\");\r\n        Rewards memory r;\r\n        r.title = data.title;\r\n        r.description = data.description;\r\n        r.minimumContribution = data.minimumContribution;\r\n        r.stockLimit = data.stockLimit;\r\n        r.nbContributors = data.nbContributors;\r\n        r.isStockLimited = data.isStockLimited;\r\n        rewardsList[index] = r;\r\n    }\r\n\r\n    /**\r\n     * @inheritdoc ICampaign\r\n     */\r\n    function deleteCampaign() public override isNotDeleted() onlyManager() {\r\n        require(status == WorkflowStatus.CampaignDrafted || status == WorkflowStatus.FundingFailed || status == WorkflowStatus.CampaignCompleted, \"!Err : Wrong workflow status\");\r\n        status = WorkflowStatus.CampaignDeleted;\r\n        ICampaignFactory(factory).deleteCampaign();\r\n    }\r\n\r\n    /**\r\n     * @inheritdoc ICampaign\r\n     */\r\n    function deleteReward(uint256 rewardIndex) external override isNotDeleted() onlyManager() checkStatus(status, WorkflowStatus.CampaignDrafted) {\r\n        require(rewardIndex < rewardsCounter, \"!Err: Index not exist\");\r\n        if((rewardsCounter-1)!=rewardIndex){\r\n            rewardsList[rewardIndex] = rewardsList[rewardsCounter-1];\r\n        }\r\n        delete rewardsList[rewardsCounter-1];\r\n        rewardsCounter--;\r\n    }\r\n\r\n    /**\r\n     * @inheritdoc ICampaign\r\n     */\r\n    function updateManager(address newManager) external override onlyManager() {\r\n        manager = newManager;\r\n    }\r\n\r\n    /**\r\n     * @inheritdoc ICampaign\r\n     */\r\n    function publishCampaign() external override isNotDeleted() onlyManager() checkStatus(status, WorkflowStatus.CampaignDrafted) {\r\n        uint minDate = campaignInfo.deadlineDate - 7 days;\r\n        require(minDate >= block.timestamp, \"!Err: deadlineDate to short\");\r\n        status = WorkflowStatus.CampaignPublished;\r\n    }\r\n    \r\n    /**\r\n     * @inheritdoc ICampaign\r\n     */\r\n    function contribute(uint256 _amount, uint8 rewardIndex) external override isNotDeleted() checkCampaignDeadline() {\r\n        require(status != WorkflowStatus.CampaignDrafted && status != WorkflowStatus.FundingFailed && status != WorkflowStatus.CampaignCompleted, \"!Err : Wrong workflow status\");\r\n        SafeERC20.safeTransferFrom(usdcToken, msg.sender, address(this), _amount);\r\n        contributorBalances[msg.sender] = contributorBalances[msg.sender].add(_amount);\r\n        rewardToContributor[rewardIndex][msg.sender] = rewardToContributor[rewardIndex][msg.sender].add(1);\r\n        rewardsList[rewardIndex].nbContributors = rewardsList[rewardIndex].nbContributors.add(1);\r\n        rewardsList[rewardIndex].amount = rewardsList[rewardIndex].amount.add(_amount);\r\n        if(getContractUSDCBalance() >= campaignInfo.fundingGoal) {\r\n            status = WorkflowStatus.FundingComplete;\r\n        }\r\n    }\r\n\r\n    /**\r\n     * @inheritdoc ICampaign\r\n     */\r\n    function failFunding() public override checkStatus(status, WorkflowStatus.CampaignPublished) {\r\n        require(block.timestamp > campaignInfo.deadlineDate && getContractUSDCBalance() < campaignInfo.fundingGoal, \"!Err: conditions not met\");\r\n        status = WorkflowStatus.FundingFailed;\r\n    }\r\n\r\n    /**\r\n     * @inheritdoc ICampaign\r\n     */\r\n    function launchProposalContract() external override isNotDeleted() checkStatus(status, WorkflowStatus.FundingComplete) {\r\n        IProposal _proposalContract = new Proposal(address(this));\r\n        proposal = address(_proposalContract);\r\n    }\r\n\r\n    /**\r\n     * @notice Return the amount in USDC raised by the campaign\r\n     * @dev amount uint USDC raised by the campaign in WEI\r\n     */\r\n    function getContractUSDCBalance() public view returns(uint) {\r\n        return usdcToken.balanceOf(address(this));\r\n    }\r\n}\r\n",
  "sourcePath": "A:\\Programing\\Projet_Final\\SparkUp\\contracts\\Campaign.sol",
  "compiler": {
    "name": "solc",
    "version": "0.8.6+commit.11564f7e.Emscripten.clang"
  },
  "schemaVersion": "3.4.1",
  "updatedAt": "2021-07-29T20:58:34.766Z",
  "devdoc": {
    "kind": "dev",
    "methods": {
      "addReward((string,string,uint256,uint256,uint256,uint256,bool))": {
        "details": "Only the manager must be able to call it.",
        "params": {
          "newRewardData": "Rewards Object that contains all the needed information following the Rewards struct for the campaign"
        }
      },
      "contribute(uint256,uint8)": {
        "details": "Can only be called if campaign is published, is not completed, is not deleted and is not failed."
      },
      "deleteCampaign()": {
        "details": "It's the entry point for deleting a campaign. Only the manager must be able to call it"
      },
      "deleteReward(uint256)": {
        "details": "Only the manager must be able to call it.",
        "params": {
          "rewardIndex": "uint256 Index of the reward to delete"
        }
      },
      "failFunding()": {
        "details": "Can only be called if campiagn deadline is passed and fundingGoal not reached."
      },
      "getContractUSDCBalance()": {
        "details": "amount uint USDC raised by the campaign in WEI"
      },
      "launchProposalContract()": {
        "details": "Can only be called by manager and if WorkflowStatus is FundingComplete."
      },
      "publishCampaign()": {
        "details": "Only the manager must be able to call it and only within acceptable deadlineDate timeframe."
      },
      "updateCampaign((string,string,uint256,uint256))": {
        "details": "Only the manager must be able to call it.",
        "params": {
          "updatedInfoData": "Info Object that contains all the new information following the Info struct for the campaign"
        }
      },
      "updateManager(address)": {
        "details": "Only the manager must be able to call it.",
        "params": {
          "newManager": "address Address of the new manager"
        }
      },
      "updateReward((string,string,uint256,uint256,uint256,uint256,bool),uint256)": {
        "details": "Only the manager must be able to call it.",
        "params": {
          "newRewardData": "Rewards Object that contains the new data to set following the Rewards struct for the campaign",
          "rewardIndex": "uint256 Index of the reward to update"
        }
      }
    },
    "version": 1
  },
  "userdoc": {
    "kind": "user",
    "methods": {
      "addReward((string,string,uint256,uint256,uint256,uint256,bool))": {
        "notice": "Add a new reward level to the campaign."
      },
      "contribute(uint256,uint8)": {
        "notice": "Allow contributors to contribute to the campaign."
      },
      "deleteCampaign()": {
        "notice": "Delete the campaign."
      },
      "deleteReward(uint256)": {
        "notice": "Delete a reward by its Id."
      },
      "failFunding()": {
        "notice": "Allow anyone to update WorkflowStatus to FundingFailed."
      },
      "getCampaignInfo()": {
        "notice": "Returns the campaign information in the struct Info plus de createAt and the managerAddress."
      },
      "getContractUSDCBalance()": {
        "notice": "Return the amount in USDC raised by the campaign"
      },
      "launchProposalContract()": {
        "notice": "Allows manager to deploy proposal contract to start submitting proposals."
      },
      "publishCampaign()": {
        "notice": "Allow the manager to publish campaign and make it visible to potential contributors."
      },
      "updateCampaign((string,string,uint256,uint256))": {
        "notice": "Update the campaign information in the struct Info."
      },
      "updateManager(address)": {
        "notice": "Allow the manager to setup a new one."
      },
      "updateReward((string,string,uint256,uint256,uint256,uint256,bool),uint256)": {
        "notice": "Update the data of a specific reward regarding its id."
      }
    },
    "version": 1
  }
}