{
  "contractName": "Campaign",
  "abi": [
    {
      "inputs": [
        {
          "components": [
            {
              "internalType": "string",
              "name": "title",
              "type": "string"
            },
            {
              "internalType": "string",
              "name": "description",
              "type": "string"
            },
            {
              "internalType": "uint64",
              "name": "deadlineDate",
              "type": "uint64"
            },
            {
              "internalType": "uint128",
              "name": "fundingGoal",
              "type": "uint128"
            }
          ],
          "internalType": "struct ICampaign.Info",
          "name": "infoData",
          "type": "tuple"
        },
        {
          "components": [
            {
              "internalType": "string",
              "name": "title",
              "type": "string"
            },
            {
              "internalType": "string",
              "name": "description",
              "type": "string"
            },
            {
              "internalType": "uint16",
              "name": "stockLimit",
              "type": "uint16"
            },
            {
              "internalType": "uint64",
              "name": "nbContributors",
              "type": "uint64"
            },
            {
              "internalType": "uint128",
              "name": "minimumContribution",
              "type": "uint128"
            },
            {
              "internalType": "uint128",
              "name": "amount",
              "type": "uint128"
            },
            {
              "internalType": "bool",
              "name": "isStockLimited",
              "type": "bool"
            }
          ],
          "internalType": "struct ICampaign.Rewards[]",
          "name": "rewardsData",
          "type": "tuple[]"
        },
        {
          "internalType": "address",
          "name": "_manager",
          "type": "address"
        },
        {
          "internalType": "contract IERC20",
          "name": "_usdcToken",
          "type": "address"
        },
        {
          "internalType": "address",
          "name": "_escrowContract",
          "type": "address"
        }
      ],
      "stateMutability": "nonpayable",
      "type": "constructor"
    },
    {
      "inputs": [
        {
          "internalType": "address",
          "name": "",
          "type": "address"
        }
      ],
      "name": "contributorBalances",
      "outputs": [
        {
          "internalType": "uint128",
          "name": "",
          "type": "uint128"
        }
      ],
      "stateMutability": "view",
      "type": "function"
    },
    {
      "inputs": [],
      "name": "createAt",
      "outputs": [
        {
          "internalType": "uint64",
          "name": "",
          "type": "uint64"
        }
      ],
      "stateMutability": "view",
      "type": "function"
    },
    {
      "inputs": [],
      "name": "escrowContract",
      "outputs": [
        {
          "internalType": "address",
          "name": "",
          "type": "address"
        }
      ],
      "stateMutability": "view",
      "type": "function"
    },
    {
      "inputs": [],
      "name": "factory",
      "outputs": [
        {
          "internalType": "address",
          "name": "",
          "type": "address"
        }
      ],
      "stateMutability": "view",
      "type": "function"
    },
    {
      "inputs": [],
      "name": "manager",
      "outputs": [
        {
          "internalType": "address",
          "name": "",
          "type": "address"
        }
      ],
      "stateMutability": "view",
      "type": "function"
    },
    {
      "inputs": [],
      "name": "proposal",
      "outputs": [
        {
          "internalType": "address",
          "name": "",
          "type": "address"
        }
      ],
      "stateMutability": "view",
      "type": "function"
    },
    {
      "inputs": [
        {
          "internalType": "uint8",
          "name": "",
          "type": "uint8"
        },
        {
          "internalType": "address",
          "name": "",
          "type": "address"
        }
      ],
      "name": "rewardToContributor",
      "outputs": [
        {
          "internalType": "uint8",
          "name": "",
          "type": "uint8"
        }
      ],
      "stateMutability": "view",
      "type": "function"
    },
    {
      "inputs": [],
      "name": "rewardsCounter",
      "outputs": [
        {
          "internalType": "uint8",
          "name": "",
          "type": "uint8"
        }
      ],
      "stateMutability": "view",
      "type": "function"
    },
    {
      "inputs": [
        {
          "internalType": "uint8",
          "name": "",
          "type": "uint8"
        }
      ],
      "name": "rewardsList",
      "outputs": [
        {
          "internalType": "string",
          "name": "title",
          "type": "string"
        },
        {
          "internalType": "string",
          "name": "description",
          "type": "string"
        },
        {
          "internalType": "uint16",
          "name": "stockLimit",
          "type": "uint16"
        },
        {
          "internalType": "uint64",
          "name": "nbContributors",
          "type": "uint64"
        },
        {
          "internalType": "uint128",
          "name": "minimumContribution",
          "type": "uint128"
        },
        {
          "internalType": "uint128",
          "name": "amount",
          "type": "uint128"
        },
        {
          "internalType": "bool",
          "name": "isStockLimited",
          "type": "bool"
        }
      ],
      "stateMutability": "view",
      "type": "function"
    },
    {
      "inputs": [],
      "name": "status",
      "outputs": [
        {
          "internalType": "enum ICampaign.WorkflowStatus",
          "name": "",
          "type": "uint8"
        }
      ],
      "stateMutability": "view",
      "type": "function"
    },
    {
      "inputs": [],
      "name": "totalRaised",
      "outputs": [
        {
          "internalType": "uint128",
          "name": "",
          "type": "uint128"
        }
      ],
      "stateMutability": "view",
      "type": "function"
    },
    {
      "inputs": [],
      "name": "usdcToken",
      "outputs": [
        {
          "internalType": "contract IERC20",
          "name": "",
          "type": "address"
        }
      ],
      "stateMutability": "view",
      "type": "function"
    },
    {
      "inputs": [],
      "name": "getCampaignInfo",
      "outputs": [
        {
          "components": [
            {
              "internalType": "string",
              "name": "title",
              "type": "string"
            },
            {
              "internalType": "string",
              "name": "description",
              "type": "string"
            },
            {
              "internalType": "uint64",
              "name": "deadlineDate",
              "type": "uint64"
            },
            {
              "internalType": "uint128",
              "name": "fundingGoal",
              "type": "uint128"
            }
          ],
          "internalType": "struct ICampaign.Info",
          "name": "",
          "type": "tuple"
        },
        {
          "internalType": "uint64",
          "name": "",
          "type": "uint64"
        },
        {
          "internalType": "address",
          "name": "",
          "type": "address"
        },
        {
          "internalType": "enum ICampaign.WorkflowStatus",
          "name": "",
          "type": "uint8"
        },
        {
          "internalType": "uint128",
          "name": "",
          "type": "uint128"
        },
        {
          "internalType": "address",
          "name": "",
          "type": "address"
        }
      ],
      "stateMutability": "view",
      "type": "function"
    },
    {
      "inputs": [
        {
          "components": [
            {
              "internalType": "string",
              "name": "title",
              "type": "string"
            },
            {
              "internalType": "string",
              "name": "description",
              "type": "string"
            },
            {
              "internalType": "uint64",
              "name": "deadlineDate",
              "type": "uint64"
            },
            {
              "internalType": "uint128",
              "name": "fundingGoal",
              "type": "uint128"
            }
          ],
          "internalType": "struct ICampaign.Info",
          "name": "newInfo",
          "type": "tuple"
        }
      ],
      "name": "updateCampaign",
      "outputs": [],
      "stateMutability": "nonpayable",
      "type": "function"
    },
    {
      "inputs": [
        {
          "components": [
            {
              "internalType": "string",
              "name": "title",
              "type": "string"
            },
            {
              "internalType": "string",
              "name": "description",
              "type": "string"
            },
            {
              "internalType": "uint16",
              "name": "stockLimit",
              "type": "uint16"
            },
            {
              "internalType": "uint64",
              "name": "nbContributors",
              "type": "uint64"
            },
            {
              "internalType": "uint128",
              "name": "minimumContribution",
              "type": "uint128"
            },
            {
              "internalType": "uint128",
              "name": "amount",
              "type": "uint128"
            },
            {
              "internalType": "bool",
              "name": "isStockLimited",
              "type": "bool"
            }
          ],
          "internalType": "struct ICampaign.Rewards",
          "name": "newRewardData",
          "type": "tuple"
        }
      ],
      "name": "addReward",
      "outputs": [],
      "stateMutability": "nonpayable",
      "type": "function"
    },
    {
      "inputs": [
        {
          "components": [
            {
              "internalType": "string",
              "name": "title",
              "type": "string"
            },
            {
              "internalType": "string",
              "name": "description",
              "type": "string"
            },
            {
              "internalType": "uint16",
              "name": "stockLimit",
              "type": "uint16"
            },
            {
              "internalType": "uint64",
              "name": "nbContributors",
              "type": "uint64"
            },
            {
              "internalType": "uint128",
              "name": "minimumContribution",
              "type": "uint128"
            },
            {
              "internalType": "uint128",
              "name": "amount",
              "type": "uint128"
            },
            {
              "internalType": "bool",
              "name": "isStockLimited",
              "type": "bool"
            }
          ],
          "internalType": "struct ICampaign.Rewards",
          "name": "newRewardData",
          "type": "tuple"
        },
        {
          "internalType": "uint8",
          "name": "rewardIndex",
          "type": "uint8"
        }
      ],
      "name": "updateReward",
      "outputs": [],
      "stateMutability": "nonpayable",
      "type": "function"
    },
    {
      "inputs": [],
      "name": "deleteCampaign",
      "outputs": [],
      "stateMutability": "nonpayable",
      "type": "function"
    },
    {
      "inputs": [
        {
          "internalType": "uint8",
          "name": "rewardIndex",
          "type": "uint8"
        }
      ],
      "name": "deleteReward",
      "outputs": [],
      "stateMutability": "nonpayable",
      "type": "function"
    },
    {
      "inputs": [
        {
          "internalType": "address",
          "name": "newManager",
          "type": "address"
        }
      ],
      "name": "updateManager",
      "outputs": [],
      "stateMutability": "nonpayable",
      "type": "function"
    },
    {
      "inputs": [],
      "name": "publishCampaign",
      "outputs": [],
      "stateMutability": "nonpayable",
      "type": "function"
    },
    {
      "inputs": [
        {
          "internalType": "uint128",
          "name": "_amount",
          "type": "uint128"
        },
        {
          "internalType": "uint8",
          "name": "rewardIndex",
          "type": "uint8"
        }
      ],
      "name": "contribute",
      "outputs": [],
      "stateMutability": "nonpayable",
      "type": "function"
    },
    {
      "inputs": [],
      "name": "refund",
      "outputs": [],
      "stateMutability": "nonpayable",
      "type": "function"
    },
    {
      "inputs": [],
      "name": "launchProposalContract",
      "outputs": [],
      "stateMutability": "nonpayable",
      "type": "function"
    },
    {
      "inputs": [],
      "name": "getContractUSDCBalance",
      "outputs": [
        {
          "internalType": "uint128",
          "name": "",
          "type": "uint128"
        }
      ],
      "stateMutability": "view",
      "type": "function"
    },
    {
      "inputs": [
        {
          "internalType": "uint128",
          "name": "_amount",
          "type": "uint128"
        }
      ],
      "name": "realeaseProposalFunds",
      "outputs": [],
      "stateMutability": "nonpayable",
      "type": "function"
    }
  ],
  "bytecode": "0x60c06040523480156200001157600080fd5b50604051620050d1380380620050d18339810160408190526200003491620008ee565b60008451116200008b5760405162461bcd60e51b815260206004820152601360248201527f214572723a205265776172647320656d7074790000000000000000000000000060448201526064015b60405180910390fd5b600a84511115620000df5760405162461bcd60e51b815260206004820152601660248201527f214572723a20546f6f206d756368205265776172647300000000000000000000604482015260640162000082565b600180546001600160a01b0385166001600160a01b0319918216179091556002805490911633179055600080546001600160401b03421661010002610100600160481b03199091161790556003805460ff60a01b191690556001600160601b0319606083811b821660805282901b1660a0526200015c85620001d3565b60005b84518160ff161015620001b2576200019d81868360ff168151811062000189576200018962000b37565b6020026020010151620003db60201b60201c565b80620001a98162000afe565b9150506200015f565b505091516000805460ff191660ff9092169190911790555062000b63915050565b805151620002185760405162461bcd60e51b8152602060048201526011602482015270214572723a205469746c6520656d70747960781b604482015260640162000082565b6000816020015151116200026f5760405162461bcd60e51b815260206004820152601760248201527f214572723a204465736372697074696f6e20656d707479000000000000000000604482015260640162000082565b683635c9adc5dea0000081606001516001600160801b03161015620002d75760405162461bcd60e51b815260206004820152601d60248201527f214572723a2046756e64696e6720476f616c206e6f7420656e6f756768000000604482015260640162000082565b60408101516000546001600160401b0391821691620003009161010090041662093a8062000a93565b6001600160401b03161115620003595760405162461bcd60e51b815260206004820152601b60248201527f214572723a20646561646c696e654461746520746f2073686f72740000000000604482015260640162000082565b805180516200037191600491602090910190620005d1565b5060208082015180516200038a926005920190620005d1565b506060810151600680546040909301516001600160401b03166001600160401b03196001600160801b039093166801000000000000000002929092166001600160c01b031990931692909217179055565b805151620004205760405162461bcd60e51b8152602060048201526011602482015270214572723a205469746c6520656d70747960781b604482015260640162000082565b600081602001515111620004775760405162461bcd60e51b815260206004820152601760248201527f214572723a204465736372697074696f6e20656d707479000000000000000000604482015260640162000082565b6040805160e081018252606080825260208083018281526000848601818152848601828152608080880184815260a0890185905260c0808a018681528c518b528c890151909752918b01516001600160801b031690528989015161ffff16909252948801516001600160401b0316909452928601511515905260ff86168252600781529290208151805192938493620005149284920190620005d1565b5060208281015180516200052f9260018501920190620005d1565b5060408201516002820180546060850151608086015161ffff9094166001600160501b031990921691909117620100006001600160401b039092169190910217600160501b600160d01b0319166a01000000000000000000006001600160801b039384160217905560a08301516003909201805460c090940151929091166001600160881b031990931692909217600160801b91151591909102179055505050565b828054620005df9062000ac1565b90600052602060002090601f0160209004810192826200060357600085556200064e565b82601f106200061e57805160ff19168380011785556200064e565b828001600101855582156200064e579182015b828111156200064e57825182559160200191906001019062000631565b506200065c92915062000660565b5090565b5b808211156200065c576000815560010162000661565b80516001600160a01b03811681146200068f57600080fd5b919050565b600082601f830112620006a657600080fd5b815160206001600160401b0380831115620006c557620006c562000b4d565b8260051b620006d683820162000a60565b8481528381019087850183890186018a1015620006f257600080fd5b600093505b86841015620007f8578051858111156200071057600080fd5b890160e0818c03601f19018113156200072857600080fd5b6200073262000a10565b88830151888111156200074457600080fd5b620007548e8b8387010162000816565b825250604080840151898111156200076b57600080fd5b6200077b8f8c8388010162000816565b8b8401525060606200078f818601620008c3565b8284015260809150620007a4828601620008d6565b9083015260a0620007b7858201620008ab565b8284015260c09150620007cc828601620008ab565b90830152620007dd84840162000805565b908201528552505060019390930192918501918501620006f7565b5098975050505050505050565b805180151581146200068f57600080fd5b600082601f8301126200082857600080fd5b81516001600160401b0381111562000844576200084462000b4d565b60206200085a601f8301601f1916820162000a60565b82815285828487010111156200086f57600080fd5b60005b838110156200088f57858101830151828201840152820162000872565b83811115620008a15760008385840101525b5095945050505050565b80516001600160801b03811681146200068f57600080fd5b805161ffff811681146200068f57600080fd5b80516001600160401b03811681146200068f57600080fd5b600080600080600060a086880312156200090757600080fd5b85516001600160401b03808211156200091f57600080fd5b908701906080828a0312156200093457600080fd5b6200093e62000a3b565b8251828111156200094e57600080fd5b6200095c8b82860162000816565b8252506020830151828111156200097257600080fd5b620009808b82860162000816565b6020830152506200099460408401620008d6565b6040820152620009a760608401620008ab565b60608201526020890151909750915080821115620009c457600080fd5b50620009d38882890162000694565b945050620009e46040870162000677565b9250620009f46060870162000677565b915062000a046080870162000677565b90509295509295909350565b60405160e081016001600160401b038111828210171562000a355762000a3562000b4d565b60405290565b604051608081016001600160401b038111828210171562000a355762000a3562000b4d565b604051601f8201601f191681016001600160401b038111828210171562000a8b5762000a8b62000b4d565b604052919050565b60006001600160401b0382811684821680830382111562000ab85762000ab862000b21565b01949350505050565b600181811c9082168062000ad657607f821691505b6020821081141562000af857634e487b7160e01b600052602260045260246000fd5b50919050565b600060ff821660ff81141562000b185762000b1862000b21565b60010192915050565b634e487b7160e01b600052601160045260246000fd5b634e487b7160e01b600052603260045260246000fd5b634e487b7160e01b600052604160045260246000fd5b60805160601c60a05160601c61451862000bb96000396000818161044401526106950152600081816101cf0152818161047e015281816106eb01528181610c2c01528181611083015261132801526145186000f3fe60806040523480156200001157600080fd5b5060043610620001915760003560e01c8063753ec10311620000f0578063c5c4744c11620000a3578063d0a5d845116200007a578063d0a5d84514620003f2578063d6290cd71462000409578063e21641b81462000427578063e42a96e7146200043e57600080fd5b8063c5c4744c14620003a9578063ccc760dd14620003c4578063cd3fea1414620003db57600080fd5b8063753ec10314620003025780637e1f269d14620003165780637ef59f84146200032d57806392b4208d1462000337578063bf1d4cad1462000363578063c45a0155146200039557600080fd5b8063244c3c2c1162000149578063244c3c2c1462000266578063287af43214620002705780633489eae1146200029c578063481c6a7514620002cd57806358aba00f14620002e1578063590e1ae314620002f857600080fd5b80622772c214620001965780630d4c4a2f14620001bd57806311eac85514620001c957806312ba8de8146200020a578063200d2ed21462000221578063205b09141462000245575b600080fd5b620001a062000466565b6040516001600160801b0390911681526020015b60405180910390f35b620001c762000509565b005b620001f17f000000000000000000000000000000000000000000000000000000000000000081565b6040516001600160a01b039091168152602001620001b4565b620001c76200021b36600462002642565b62000798565b6003546200023690600160a01b900460ff1681565b604051620001b49190620027b8565b600054620002539060ff1681565b60405160ff9091168152602001620001b4565b620001c7620008b3565b620001a06200028136600462002503565b6009602052600090815260409020546001600160801b031681565b62000253620002ad3660046200271a565b600860209081526000928352604080842090915290825290205460ff1681565b600154620001f1906001600160a01b031681565b620001c7620002f236600462002503565b62000a57565b620001c762000aa6565b600354620001f1906001600160a01b031681565b620001c76200032736600462002602565b62000c5c565b620001c762000d56565b6200034e62000348366004620026fc565b62000ea0565b604051620001b49796959493929190620027e3565b6000546200037c9061010090046001600160401b031681565b6040516001600160401b039091168152602001620001b4565b600254620001f1906001600160a01b031681565b600054620001a090600160481b90046001600160801b031681565b620001c7620003d536600462002695565b6200101f565b620001c7620003ec36600462002541565b620010b6565b620001c762000403366004620026b3565b6200117c565b6200041362001524565b604051620001b496959493929190620028e0565b620001c762000438366004620026fc565b62001759565b620001f17f000000000000000000000000000000000000000000000000000000000000000081565b6040516370a0823160e01b81523060048201526000907f00000000000000000000000000000000000000000000000000000000000000006001600160a01b0316906370a082319060240160206040518083038186803b158015620004c957600080fd5b505afa158015620004de573d6000803e3d6000fd5b505050506040513d601f19601f82011682018060405250810190620005049190620026e2565b905090565b6001546001600160a01b031633146200053f5760405162461bcd60e51b8152600401620005369062002850565b60405180910390fd5b6005600354600160a01b900460ff16600581111562000562576200056262002bf0565b1415620005835760405162461bcd60e51b81526004016200053690620028b0565b600354600160a01b900460ff16600280826005811115620005a857620005a862002bf0565b14620005c85760405162461bcd60e51b8152600401620005369062002879565b6003546001600160a01b031615620006235760405162461bcd60e51b815260206004820152601f60248201527f214572723a2070726f706f73616c20616c7265616479206465706c6f79656400604482015260640162000536565b6006546001600160401b031642116200068b5760405162461bcd60e51b8152602060048201526024808201527f214572723a2063616d70676169676e2064656164616c696e65206e6f742070616044820152631cdcd95960e21b606482015260840162000536565b6000546200071c907f000000000000000000000000000000000000000000000000000000000000000090606490620006d590600160481b90046001600160801b0316600562002aa8565b620006e1919062002a73565b6001600160a01b037f00000000000000000000000000000000000000000000000000000000000000001691906001600160801b031662001a45565b60015460405160009130916001600160a01b03909116906200073e90620021a8565b6001600160a01b03928316815291166020820152604001604051809103906000f08015801562000772573d6000803e3d6000fd5b50600380546001600160a01b0319166001600160a01b0392909216919091179055505050565b6005600354600160a01b900460ff166005811115620007bb57620007bb62002bf0565b1415620007dc5760405162461bcd60e51b81526004016200053690620028b0565b6001546001600160a01b03163314620008095760405162461bcd60e51b8152600401620005369062002850565b600354600160a01b900460ff166000808260058111156200082e576200082e62002bf0565b146200084e5760405162461bcd60e51b8152600401620005369062002879565b60005460ff9081169084161115620008a15760405162461bcd60e51b815260206004820152601560248201527408515c9c8e88125b99195e081b9bdd08195e1a5cdd605a1b604482015260640162000536565b620008ad838562001aaa565b50505050565b6005600354600160a01b900460ff166005811115620008d657620008d662002bf0565b1415620008f75760405162461bcd60e51b81526004016200053690620028b0565b6001546001600160a01b03163314620009245760405162461bcd60e51b8152600401620005369062002850565b6000600354600160a01b900460ff16600581111562000947576200094762002bf0565b148062000973575060038054600160a01b900460ff16600581111562000971576200097162002bf0565b145b806200099f57506004600354600160a01b900460ff1660058111156200099d576200099d62002bf0565b145b620009be5760405162461bcd60e51b8152600401620005369062002879565b6003805460ff60a01b1916600560a01b179055600254604080516309130f0b60e21b815290516001600160a01b039092169163244c3c2c916004808201926020929091908290030181600087803b15801562000a1957600080fd5b505af115801562000a2e573d6000803e3d6000fd5b505050506040513d601f19601f8201168201806040525081019062000a54919062002521565b50565b6001546001600160a01b0316331462000a845760405162461bcd60e51b8152600401620005369062002850565b600180546001600160a01b0319166001600160a01b0392909216919091179055565b6006546001600160401b03164211801562000ad35750600062000ac862000466565b6001600160801b0316115b62000b215760405162461bcd60e51b815260206004820152601860248201527f214572723a20636f6e646974696f6e73206e6f74206d65740000000000000000604482015260640162000536565b6001600354600160a01b900460ff16600581111562000b445762000b4462002bf0565b148062000b70575060038054600160a01b900460ff16600581111562000b6e5762000b6e62002bf0565b145b62000bbe5760405162461bcd60e51b815260206004820152601a60248201527f214572723a2077726f6e6720776f726b666c6f77737461747573000000000000604482015260640162000536565b6001600354600160a01b900460ff16600581111562000be15762000be162002bf0565b141562000bfc576003805460ff60a01b1916600360a01b1790555b33600081815260096020526040902080546001600160801b031981169091556001600160801b03169062000a54907f00000000000000000000000000000000000000000000000000000000000000006001600160a01b0316908362001a45565b6005600354600160a01b900460ff16600581111562000c7f5762000c7f62002bf0565b141562000ca05760405162461bcd60e51b81526004016200053690620028b0565b6001546001600160a01b0316331462000ccd5760405162461bcd60e51b8152600401620005369062002850565b600354600160a01b900460ff1660008082600581111562000cf25762000cf262002bf0565b1462000d125760405162461bcd60e51b8152600401620005369062002879565b60005462000d249060ff168462001aaa565b6000805460ff16908062000d388362002bb7565b91906101000a81548160ff021916908360ff16021790555050505050565b6005600354600160a01b900460ff16600581111562000d795762000d7962002bf0565b141562000d9a5760405162461bcd60e51b81526004016200053690620028b0565b6001546001600160a01b0316331462000dc75760405162461bcd60e51b8152600401620005369062002850565b600354600160a01b900460ff1660008082600581111562000dec5762000dec62002bf0565b1462000e0c5760405162461bcd60e51b8152600401620005369062002879565b60065460009062000e2b9062093a80906001600160401b031662002ada565b6001600160401b031690504281101562000e885760405162461bcd60e51b815260206004820152601b60248201527f214572723a20646561646c696e654461746520746f2073686f72740000000000604482015260640162000536565b50506003805460ff60a01b1916600160a01b17905550565b60076020526000908152604090208054819062000ebd9062002b7a565b80601f016020809104026020016040519081016040528092919081815260200182805462000eeb9062002b7a565b801562000f3c5780601f1062000f105761010080835404028352916020019162000f3c565b820191906000526020600020905b81548152906001019060200180831162000f1e57829003601f168201915b50505050509080600101805462000f539062002b7a565b80601f016020809104026020016040519081016040528092919081815260200182805462000f819062002b7a565b801562000fd25780601f1062000fa65761010080835404028352916020019162000fd2565b820191906000526020600020905b81548152906001019060200180831162000fb457829003601f168201915b5050506002840154600390940154929361ffff8116936001600160401b036201000083041693506001600160801b03600160501b909204821692509081169060ff600160801b9091041687565b6003546001600160a01b03163314620010715760405162461bcd60e51b815260206004820152601360248201527208515c9c8e881058d8d95cdcc819195b9a5959606a1b604482015260640162000536565b60015462000a54906001600160a01b037f0000000000000000000000000000000000000000000000000000000000000000811691166001600160801b03841662001a45565b6005600354600160a01b900460ff166005811115620010d957620010d962002bf0565b1415620010fa5760405162461bcd60e51b81526004016200053690620028b0565b6001546001600160a01b03163314620011275760405162461bcd60e51b8152600401620005369062002850565b600354600160a01b900460ff166000808260058111156200114c576200114c62002bf0565b146200116c5760405162461bcd60e51b8152600401620005369062002879565b620011778362001c96565b505050565b6005600354600160a01b900460ff1660058111156200119f576200119f62002bf0565b1415620011c05760405162461bcd60e51b81526004016200053690620028b0565b6006546001600160401b031642106200122b5760405162461bcd60e51b815260206004820152602660248201527f21457272203a2043616d706169676e20636f6e747269627574696f6e2068617360448201526508195b99195960d21b606482015260840162000536565b6000600354600160a01b900460ff1660058111156200124e576200124e62002bf0565b141580156200127d575060038054600160a01b900460ff1660058111156200127a576200127a62002bf0565b14155b8015620012ab57506004600354600160a01b900460ff166005811115620012a857620012a862002bf0565b14155b620012ca5760405162461bcd60e51b8152600401620005369062002879565b620012d58162001e94565b6200131a5760405162461bcd60e51b815260206004820152601460248201527308515c9c8e881b9bc81b5bdc99481c995dd85c9960621b604482015260640162000536565b6200135a6001600160a01b037f00000000000000000000000000000000000000000000000000000000000000001633306001600160801b03861662001f0a565b33600090815260096020526040902054620013809083906001600160801b0316620029f8565b33600081815260096020908152604080832080546001600160801b0319166001600160801b03969096169590951790945560ff8581168352600882528483209383529290529190912054620013d89116600162002a4b565b60ff82811660008181526008602090815260408083203384528252808320805460ff191696909516959095179093559081526007909152206002015462001430906201000090046001600160401b0316600162002a26565b60ff821660009081526007602052604090206002810180546001600160401b0393909316620100000269ffffffffffffffff0000199093169290921790915560030154620014899083906001600160801b0316620029f8565b60ff8216600090815260076020526040902060030180546001600160801b0319166001600160801b03928316179055600654600160401b900416620014cd62000466565b6001600160801b03161062001520576003805460ff60a01b1916600160a11b179055620014f962000466565b600060096101000a8154816001600160801b0302191690836001600160801b031602179055505b5050565b6040805160808101825260608082526020820181905260009282018390528101919091526000808080806005600354600160a01b900460ff16600581111562001571576200157162002bf0565b1415620015925760405162461bcd60e51b81526004016200053690620028b0565b600054600154600354604080516080810190915260048054909461010081046001600160401b0316946001600160a01b0390811694600160a01b810460ff1694600160481b9093046001600160801b03169391169190879082908290620015f99062002b7a565b80601f0160208091040260200160405190810160405280929190818152602001828054620016279062002b7a565b8015620016785780601f106200164c5761010080835404028352916020019162001678565b820191906000526020600020905b8154815290600101906020018083116200165a57829003601f168201915b50505050508152602001600182018054620016939062002b7a565b80601f0160208091040260200160405190810160405280929190818152602001828054620016c19062002b7a565b8015620017125780601f10620016e65761010080835404028352916020019162001712565b820191906000526020600020905b815481529060010190602001808311620016f457829003601f168201915b5050509183525050600291909101546001600160401b0381166020830152600160401b90046001600160801b03166040909101529c949b5092995090975095509350915050565b6005600354600160a01b900460ff1660058111156200177c576200177c62002bf0565b14156200179d5760405162461bcd60e51b81526004016200053690620028b0565b6001546001600160a01b03163314620017ca5760405162461bcd60e51b8152600401620005369062002850565b600354600160a01b900460ff16600080826005811115620017ef57620017ef62002bf0565b146200180f5760405162461bcd60e51b8152600401620005369062002879565b60005460ff90811690841610620018615760405162461bcd60e51b815260206004820152601560248201527408515c9c8e88125b99195e081b9bdd08195e1a5cdd605a1b604482015260640162000536565b60005460ff8085169162001879916001911662002b05565b60ff1614620019c25760008054600791906200189b9060019060ff1662002b05565b60ff908116825260208083019390935260409182016000908120918716815260079093529120815481908390620018d29062002b7a565b620018df929190620021b6565b506001820181600101908054620018f69062002b7a565b62001903929190620021b6565b5060028281018054918301805461ffff90931661ffff19841681178255825469ffffffffffffffffffff199094161762010000938490046001600160401b0316909302929092178083559054600160501b600160d01b0319909116600160501b918290046001600160801b039081169092021790915560039283018054939092018054939091166001600160801b031984168117825591546001600160881b0319909316909117600160801b9283900460ff1615159092029190911790555b6000805460079190620019db9060019060ff1662002b05565b60ff1681526020810191909152604001600090812090620019fd82826200224c565b62001a0d6001830160006200224c565b506002810180546001600160d01b031916905560030180546001600160881b03191690556000805460ff16908062000d388362002b5a565b6040516001600160a01b0383166024820152604481018290526200117790849063a9059cbb60e01b906064015b60408051601f198184030181529190526020810180516001600160e01b03166001600160e01b03199093169290921790915262001f44565b80515162001aef5760405162461bcd60e51b8152602060048201526011602482015270214572723a205469746c6520656d70747960781b604482015260640162000536565b60008160200151511162001b405760405162461bcd60e51b8152602060048201526017602482015276214572723a204465736372697074696f6e20656d70747960481b604482015260640162000536565b6040805160e081018252606080825260208083018281526000848601818152848601828152608080880184815260a0890185905260c0808a018681528c518b528c890151909752918b01516001600160801b031690528989015161ffff16909252948801516001600160401b0316909452928601511515905260ff8616825260078152929020815180519293849362001bdd92849201906200228b565b50602082810151805162001bf892600185019201906200228b565b5060408201516002820180546060850151608086015161ffff90941669ffffffffffffffffffff1990921691909117620100006001600160401b039092169190910217600160501b600160d01b031916600160501b6001600160801b039384160217905560a08301516003909201805460c090940151929091166001600160881b031990931692909217600160801b91151591909102179055505050565b80515162001cdb5760405162461bcd60e51b8152602060048201526011602482015270214572723a205469746c6520656d70747960781b604482015260640162000536565b60008160200151511162001d2c5760405162461bcd60e51b8152602060048201526017602482015276214572723a204465736372697074696f6e20656d70747960481b604482015260640162000536565b683635c9adc5dea0000081606001516001600160801b0316101562001d945760405162461bcd60e51b815260206004820152601d60248201527f214572723a2046756e64696e6720476f616c206e6f7420656e6f756768000000604482015260640162000536565b60408101516000546001600160401b039182169162001dbd9161010090041662093a8062002a26565b6001600160401b0316111562001e165760405162461bcd60e51b815260206004820152601b60248201527f214572723a20646561646c696e654461746520746f2073686f72740000000000604482015260640162000536565b8051805162001e2e916004916020909101906200228b565b50602080820151805162001e479260059201906200228b565b506060810151600680546040909301516001600160401b031667ffffffffffffffff196001600160801b03909316600160401b02929092166001600160c01b031990931692909217179055565b60ff8082166000908152600760205260408120600301549091600160801b9091041662001ec357506001919050565b60ff82166000908152600760205260409020600201546001600160401b036201000082041661ffff909116111562001efd57506001919050565b506000919050565b919050565b6040516001600160a01b0380851660248301528316604482015260648101829052620008ad9085906323b872dd60e01b9060840162001a72565b600062001f9b826040518060400160405280602081526020017f5361666545524332303a206c6f772d6c6576656c2063616c6c206661696c6564815250856001600160a01b03166200201d9092919063ffffffff16565b80519091501562001177578080602001905181019062001fbc919062002521565b620011775760405162461bcd60e51b815260206004820152602a60248201527f5361666545524332303a204552433230206f7065726174696f6e20646964206e6044820152691bdd081cdd58d8d9595960b21b606482015260840162000536565b60606200202e848460008562002038565b90505b9392505050565b6060824710156200209b5760405162461bcd60e51b815260206004820152602660248201527f416464726573733a20696e73756666696369656e742062616c616e636520666f6044820152651c8818d85b1b60d21b606482015260840162000536565b843b620020eb5760405162461bcd60e51b815260206004820152601d60248201527f416464726573733a2063616c6c20746f206e6f6e2d636f6e7472616374000000604482015260640162000536565b600080866001600160a01b031685876040516200210991906200279a565b60006040518083038185875af1925050503d806000811462002148576040519150601f19603f3d011682016040523d82523d6000602084013e6200214d565b606091505b50915091506200215f8282866200216a565b979650505050505050565b606083156200217b57508162002031565b8251156200218c5782518084602001fd5b8160405162461bcd60e51b8152600401620005369190620027ce565b6118b78062002c2c83390190565b828054620021c49062002b7a565b90600052602060002090601f016020900481019282620021e857600085556200223a565b82601f10620021fb57805485556200223a565b828001600101855582156200223a57600052602060002091601f016020900482015b828111156200223a5782548255916001019190600101906200221d565b506200224892915062002308565b5090565b5080546200225a9062002b7a565b6000825580601f106200226b575050565b601f01602090049060005260206000209081019062000a54919062002308565b828054620022999062002b7a565b90600052602060002090601f016020900481019282620022bd57600085556200223a565b82601f10620022d857805160ff19168380011785556200223a565b828001600101855582156200223a579182015b828111156200223a578251825591602001919060010190620022eb565b5b8082111562002248576000815560010162002309565b80356001600160a01b038116811462001f0557600080fd5b803562001f058162002c1c565b600082601f8301126200235657600080fd5b81356001600160401b038082111562002373576200237362002c06565b604051601f8301601f19908116603f011681019082821181831017156200239e576200239e62002c06565b81604052838152866020858801011115620023b857600080fd5b836020870160208301376000602085830101528094505050505092915050565b600060e08284031215620023eb57600080fd5b620023f5620029a8565b905081356001600160401b03808211156200240f57600080fd5b6200241d8583860162002344565b835260208401359150808211156200243457600080fd5b50620024438482850162002344565b6020830152506200245760408301620024c6565b60408201526200246a60608301620024d9565b60608201526200247d60808301620024ae565b60808201526200249060a08301620024ae565b60a0820152620024a360c0830162002337565b60c082015292915050565b80356001600160801b038116811462001f0557600080fd5b803561ffff8116811462001f0557600080fd5b80356001600160401b038116811462001f0557600080fd5b803560ff8116811462001f0557600080fd5b6000602082840312156200251657600080fd5b62002031826200231f565b6000602082840312156200253457600080fd5b8151620020318162002c1c565b6000602082840312156200255457600080fd5b81356001600160401b03808211156200256c57600080fd5b90830190608082860312156200258157600080fd5b6200258b620029d3565b8235828111156200259b57600080fd5b620025a98782860162002344565b825250602083013582811115620025bf57600080fd5b620025cd8782860162002344565b602083015250620025e160408401620024d9565b6040820152620025f460608401620024ae565b606082015295945050505050565b6000602082840312156200261557600080fd5b81356001600160401b038111156200262c57600080fd5b6200263a84828501620023d8565b949350505050565b600080604083850312156200265657600080fd5b82356001600160401b038111156200266d57600080fd5b6200267b85828601620023d8565b9250506200268c60208401620024f1565b90509250929050565b600060208284031215620026a857600080fd5b6200203182620024ae565b60008060408385031215620026c757600080fd5b620026d283620024ae565b91506200268c60208401620024f1565b600060208284031215620026f557600080fd5b5051919050565b6000602082840312156200270f57600080fd5b6200203182620024f1565b600080604083850312156200272e57600080fd5b6200273983620024f1565b91506200268c602084016200231f565b600681106200276857634e487b7160e01b600052602160045260246000fd5b9052565b600081518084526200278681602086016020860162002b2b565b601f01601f19169290920160200192915050565b60008251620027ae81846020870162002b2b565b9190910192915050565b60208101620027c8828462002749565b92915050565b6020815260006200203160208301846200276c565b60e081526000620027f860e083018a6200276c565b82810360208401526200280c818a6200276c565b61ffff98909816604084015250506001600160401b039490941660608501526001600160801b039283166080850152911660a0830152151560c09091015292915050565b6020808252600f908201526e08539bdd08105d5d1a1bdc9a5e9959608a1b604082015260600190565b6020808252601c908201527f21457272203a2057726f6e6720776f726b666c6f772073746174757300000000604082015260600190565b60208082526016908201527508515c9c8e8810d85b5c185a59db8811195b195d195960521b604082015260600190565b60c0815260008751608060c0840152620028ff6101408401826200276c565b9050602089015160bf198483030160e08501526200291e82826200276c565b60408b01516001600160401b031661010086015260608b01516001600160801b031661012086015292506200296191505060208301886001600160401b03169052565b6001600160a01b03861660408301526200297f606083018662002749565b6001600160801b03841660808301526001600160a01b03831660a0830152979650505050505050565b60405160e081016001600160401b0381118282101715620029cd57620029cd62002c06565b60405290565b604051608081016001600160401b0381118282101715620029cd57620029cd62002c06565b60006001600160801b0380831681851680830382111562002a1d5762002a1d62002bda565b01949350505050565b60006001600160401b0380831681851680830382111562002a1d5762002a1d62002bda565b600060ff821660ff84168060ff0382111562002a6b5762002a6b62002bda565b019392505050565b60006001600160801b038084168062002a9c57634e487b7160e01b600052601260045260246000fd5b92169190910492915050565b60006001600160801b038083168185168183048111821515161562002ad15762002ad162002bda565b02949350505050565b60006001600160401b038381169083168181101562002afd5762002afd62002bda565b039392505050565b600060ff821660ff84168082101562002b225762002b2262002bda565b90039392505050565b60005b8381101562002b4857818101518382015260200162002b2e565b83811115620008ad5750506000910152565b600060ff82168062002b705762002b7062002bda565b6000190192915050565b600181811c9082168062002b8f57607f821691505b6020821081141562002bb157634e487b7160e01b600052602260045260246000fd5b50919050565b600060ff821660ff81141562002bd15762002bd162002bda565b60010192915050565b634e487b7160e01b600052601160045260246000fd5b634e487b7160e01b600052602160045260246000fd5b634e487b7160e01b600052604160045260246000fd5b801515811462000a5457600080fdfe60a06040523480156200001157600080fd5b50604051620018b7380380620018b7833981016040819052620000349162000157565b606082901b6001600160601b031916608052600280546001600160a01b038085166001600160a01b031992831617909255600180549091169183169190911790556200007f620000ad565b600060016101000a8154816001600160801b0302191690836001600160801b031602179055505050620001c1565b600254604080516213b96160e11b815290516000926001600160a01b031691622772c2916004808301926020929190829003018186803b158015620000f157600080fd5b505afa15801562000106573d6000803e3d6000fd5b505050506040513d601f19601f820116820180604052508101906200012c91906200018f565b6001600160801b0316905090565b80516001600160a01b03811681146200015257600080fd5b919050565b600080604083850312156200016b57600080fd5b62000176836200013a565b915062000186602084016200013a565b90509250929050565b600060208284031215620001a257600080fd5b81516001600160801b0381168114620001ba57600080fd5b9392505050565b60805160601c6116d7620001e0600039600061011f01526116d76000f3fe608060405234801561001057600080fd5b50600436106100a95760003560e01c806334bdcdd71161007157806334bdcdd71461016c57806346fcff4c1461017f5780635cbd4d05146101af57806384acf0f5146101c2578063fb5e76e6146101e9578063fe48e8b1146101fc57600080fd5b806305f86040146100ae57806309eef43e146100c35780630c0512e9146100fb57806311765b271461011a5780632168694514610159575b600080fd5b6100c16100bc3660046113ab565b61020f565b005b6100e66100d13660046112e6565b60046020526000908152604090205460ff1681565b60405190151581526020015b60405180910390f35b6000546101089060ff1681565b60405160ff90911681526020016100f2565b6101417f000000000000000000000000000000000000000000000000000000000000000081565b6040516001600160a01b0390911681526020016100f2565b6100c16101673660046113ab565b61030f565b6100c161017a3660046113ab565b6104df565b6000546101979061010090046001600160801b031681565b6040516001600160801b0390911681526020016100f2565b6100c16101bd366004611316565b610804565b6101d56101d03660046113ab565b610c1f565b6040516100f298979695949392919061144f565b600154610141906001600160a01b031681565b6100c161020a3660046113c6565b610d94565b6001546001600160a01b031633146102425760405162461bcd60e51b815260040161023990611519565b60405180910390fd5b8060018060ff80841660009081526003602081905260409091200154600160c81b900416600481111561027757610277611660565b146102945760405162461bcd60e51b8152600401610239906114e2565b60ff8316600090815260036020819052604090912001805460ff60c81b1916600160c91b1790556102c84262093a8061156f565b60ff909316600090815260036020819052604090912001805467ffffffffffffffff94909416600160801b0267ffffffffffffffff60801b19909416939093179092555050565b8060028060ff80841660009081526003602081905260409091200154600160c81b900416600481111561034457610344611660565b146103615760405162461bcd60e51b8152600401610239906114e2565b60ff831660009081526003602081905260409091200154600160801b900467ffffffffffffffff1642116103d75760405162461bcd60e51b815260206004820152601a60248201527f214572723a20566f74696e67207374696c6c206f6e676f696e670000000000006044820152606401610239565b60ff831660009081526003602081905260409091209081018054600160ca1b60ff60c81b198216179091556002909101546001600160801b03918216600160801b90910490911611156104bb5760ff8316600090815260036020819052604091829020908101805460ff60c01b1916600160c01b17905560028054910154915163ccc760dd60e01b81526001600160801b0390921660048301526001600160a01b03169063ccc760dd90602401600060405180830381600087803b15801561049e57600080fd5b505af11580156104b2573d6000803e3d6000fd5b50505050505050565b505060ff16600090815260036020819052604090912001805460ff60c01b19169055565b6001546001600160a01b031633146105095760405162461bcd60e51b815260040161023990611519565b8060018060ff80841660009081526003602081905260409091200154600160c81b900416600481111561053e5761053e611660565b1461055b5760405162461bcd60e51b8152600401610239906114e2565b60ff8316600090815260036020526040812060020154905461058e916001600160801b0390811691610100900416611544565b600080546001600160801b03929092166101000270ffffffffffffffffffffffffffffffff0019831681179091556105d09160019160ff9081169116176115af565b60ff168360ff1614156106265760ff83166000908152600360205260408120906105fa82826110f2565b6106086001830160006110f2565b506000600282015560030180546001600160d01b03191690556107d4565b600080546003919061063d9060019060ff166115af565b60ff908116825260208083019390935260409182016000908120918716815260039093529120815481908390610672906115ef565b61067d92919061112f565b506001820181600101908054610692906115ef565b61069d92919061112f565b506002828101805491830180546001600160801b03199081166001600160801b0394851690811783559254600160801b9081900485168102909317909155600380860180549186018054938416929095169182178555805467ffffffffffffffff90859004169093026001600160c01b03199092161717808355815460ff600160c01b918290048116151590910260ff60c01b198316811785559254600160c81b90819004909116939260ff60c81b191661ffff60c01b19909216919091179083600481111561076f5761076f611660565b021790555050600080546003925061078c9060019060ff166115af565b60ff16815260208101919091526040016000908120906107ac82826110f2565b6107ba6001830160006110f2565b506000600282015560030180546001600160d01b03191690555b6000805460ff1690806107e6836115d2565b91906101000a81548160ff021916908360ff16021790555050505050565b6001546001600160a01b0316331461082e5760405162461bcd60e51b815260040161023990611519565b6000805460ff908116808352600360208190526040842001549092918291600160c81b900416600481111561086557610865611660565b146108825760405162461bcd60e51b8152600401610239906114e2565b600054600560ff909116106108ea5760405162461bcd60e51b815260206004820152602860248201527f214572723a204d6178696d756d20616d6f756e74206f662070726f706f73616c604482015267081c995858da195960c21b6064820152608401610239565b600085511161092f5760405162461bcd60e51b8152602060048201526011602482015270214572723a205469746c6520656d70747960781b6044820152606401610239565b60008451116109805760405162461bcd60e51b815260206004820152601760248201527f214572723a204465736372697074696f6e20656d7074790000000000000000006044820152606401610239565b68056bc75e2d63100000836001600160801b0316116109d85760405162461bcd60e51b8152602060048201526014602482015273214572723a20416d6f756e7420746f6f206c6f7760601b6044820152606401610239565b6000546001600160801b0361010090910481169084161115610a585760405162461bcd60e51b815260206004820152603360248201527f214572723a2050726f706f73616c20616d6f756e7420657863656564732063616044820152726d706169676e20555344432062616c616e636560681b6064820152608401610239565b610a9d6040805161010081018252606080825260208201819052600092820183905281018290526080810182905260a0810182905260c081018290529060e082015290565b85815260208082018690526001600160801b038516604080840191909152600160e08401526000805460ff1681526003835220825180518493610ae49284929101906111ba565b506020828101518051610afd92600185019201906111ba565b50604082015160608301516001600160801b03918216600160801b9183168202176002840155608084015160038401805460a087015160c0880151939095166001600160c01b03199091161767ffffffffffffffff9094169092029290921760ff60c01b198116600160c01b93151593909302928317825560e08501519261ffff60c01b1990911660ff60c81b1990911617600160c81b836004811115610ba657610ba6611660565b0217905550506000805460ff16915080610bbf8361162a565b825460ff91821661010093840a9081029202191617909155600054610bf1925086916001600160801b03910416611587565b600060016101000a8154816001600160801b0302191690836001600160801b03160217905550505050505050565b600360205260009081526040902080548190610c3a906115ef565b80601f0160208091040260200160405190810160405280929190818152602001828054610c66906115ef565b8015610cb35780601f10610c8857610100808354040283529160200191610cb3565b820191906000526020600020905b815481529060010190602001808311610c9657829003601f168201915b505050505090806001018054610cc8906115ef565b80601f0160208091040260200160405190810160405280929190818152602001828054610cf4906115ef565b8015610d415780601f10610d1657610100808354040283529160200191610d41565b820191906000526020600020905b815481529060010190602001808311610d2457829003601f168201915b50505050600283015460039093015491926001600160801b0380821693600160801b928390048216935090811691810467ffffffffffffffff1690600160c01b810460ff90811691600160c81b90041688565b8160028060ff80841660009081526003602081905260409091200154600160c81b9004166004811115610dc957610dc9611660565b14610de65760405162461bcd60e51b8152600401610239906114e2565b60ff8416600090815260036020819052604090912001548490600160801b900467ffffffffffffffff164210610e5e5760405162461bcd60e51b815260206004820152601f60248201527f214572723a2070726f706f73616c20766f74696e672068617320656e646564006044820152606401610239565b60025460405163143d7a1960e11b81523360048201526000916001600160a01b03169063287af4329060240160206040518083038186803b158015610ea257600080fd5b505afa158015610eb6573d6000803e3d6000fd5b505050506040513d601f19601f82011682018060405250810190610eda919061138e565b6001600160801b031611610f305760405162461bcd60e51b815260206004820152601760248201527f214572723a206e6f74206120636f6e7472696275746f720000000000000000006044820152606401610239565b3360009081526004602052604090205460ff1615610f865760405162461bcd60e51b815260206004820152601360248201527208515c9c8e88105b1c9958591e481d9bdd1959606a1b6044820152606401610239565b60025460405163143d7a1960e11b81523360048201526000916001600160a01b03169063287af4329060240160206040518083038186803b158015610fca57600080fd5b505afa158015610fde573d6000803e3d6000fd5b505050506040513d601f19601f82011682018060405250810190611002919061138e565b905084156110705760ff861660009081526003602052604090206002015461103b908290600160801b90046001600160801b0316611544565b60ff8716600090815260036020526040902060020180546001600160801b03928316600160801b0292169190911790556110d0565b60ff86166000908152600360208190526040909120015461109b9082906001600160801b0316611544565b60ff871660009081526003602081905260409091200180546001600160801b0319166001600160801b03929092169190911790555b5050336000908152600460205260409020805460ff1916600117905550505050565b5080546110fe906115ef565b6000825580601f1061110e575050565b601f01602090049060005260206000209081019061112c919061122e565b50565b82805461113b906115ef565b90600052602060002090601f01602090048101928261115d57600085556111aa565b82601f1061116e57805485556111aa565b828001600101855582156111aa57600052602060002091601f016020900482015b828111156111aa57825482559160010191906001019061118f565b506111b692915061122e565b5090565b8280546111c6906115ef565b90600052602060002090601f0160209004810192826111e857600085556111aa565b82601f1061120157805160ff19168380011785556111aa565b828001600101855582156111aa579182015b828111156111aa578251825591602001919060010190611213565b5b808211156111b6576000815560010161122f565b600082601f83011261125457600080fd5b813567ffffffffffffffff8082111561126f5761126f611676565b604051601f8301601f19908116603f0116810190828211818310171561129757611297611676565b816040528381528660208588010111156112b057600080fd5b836020870160208301376000602085830101528094505050505092915050565b803560ff811681146112e157600080fd5b919050565b6000602082840312156112f857600080fd5b81356001600160a01b038116811461130f57600080fd5b9392505050565b60008060006060848603121561132b57600080fd5b833567ffffffffffffffff8082111561134357600080fd5b61134f87838801611243565b9450602086013591508082111561136557600080fd5b5061137286828701611243565b92505060408401356113838161168c565b809150509250925092565b6000602082840312156113a057600080fd5b815161130f8161168c565b6000602082840312156113bd57600080fd5b61130f826112d0565b600080604083850312156113d957600080fd5b6113e2836112d0565b9150602083013580151581146113f757600080fd5b809150509250929050565b6000815180845260005b818110156114285760208185018101518683018201520161140c565b8181111561143a576000602083870101525b50601f01601f19169290920160200192915050565b60006101008083526114638184018c611402565b90508281036020840152611477818b611402565b6001600160801b038a8116604086015289811660608601528816608085015267ffffffffffffffff871660a085015285151560c0850152915050600583106114cf57634e487b7160e01b600052602160045260246000fd5b8260e08301529998505050505050505050565b6020808252601c908201527f21457272203a2057726f6e6720776f726b666c6f772073746174757300000000604082015260600190565b60208082526011908201527010a2b9391d103737ba1036b0b730b3b2b960791b604082015260600190565b60006001600160801b038083168185168083038211156115665761156661164a565b01949350505050565b600082198211156115825761158261164a565b500190565b60006001600160801b03838116908316818110156115a7576115a761164a565b039392505050565b600060ff821660ff8416808210156115c9576115c961164a565b90039392505050565b600060ff8216806115e5576115e561164a565b6000190192915050565b600181811c9082168061160357607f821691505b6020821081141561162457634e487b7160e01b600052602260045260246000fd5b50919050565b600060ff821660ff8114156116415761164161164a565b60010192915050565b634e487b7160e01b600052601160045260246000fd5b634e487b7160e01b600052602160045260246000fd5b634e487b7160e01b600052604160045260246000fd5b6001600160801b038116811461112c57600080fdfea2646970667358221220343f0bd5d616a88690e05eac79679d5c921d649d402ee3331e3cca31178a0cbf64736f6c63430008060033a26469706673582212204c240e51b871351314529fecb847a0e92094171ed4ad7b87a4b59ccdb609f69764736f6c63430008060033",
  "immutableReferences": {
    "614": [
      {
        "length": 32,
        "start": 463
      },
      {
        "length": 32,
        "start": 1150
      },
      {
        "length": 32,
        "start": 1771
      },
      {
        "length": 32,
        "start": 3116
      },
      {
        "length": 32,
        "start": 4227
      },
      {
        "length": 32,
        "start": 4904
      }
    ],
    "628": [
      {
        "length": 32,
        "start": 1092
      },
      {
        "length": 32,
        "start": 1685
      }
    ]
  },
  "source": "// SPDX-License-Identifier: GPL-3.0\r\npragma solidity 0.8.6;\r\n\r\nimport \"./interfaces/ICampaign.sol\";\r\nimport \"./interfaces/ICampaignFactory.sol\";\r\nimport \"./interfaces/IProposal.sol\";\r\nimport \"./Proposal.sol\";\r\nimport '@openzeppelin/contracts/token/ERC20/IERC20.sol';\r\nimport \"@openzeppelin/contracts/token/ERC20/utils/SafeERC20.sol\";\r\n\r\ncontract Campaign is ICampaign {\r\n    using SafeERC20 for IERC20;\r\n    \r\n    IERC20 public immutable usdcToken;\r\n\r\n    uint8 public rewardsCounter;\r\n    uint64 public createAt;\r\n    uint128 public totalRaised;\r\n\r\n    address public manager;\r\n    address public factory;\r\n    address public proposal;\r\n    address public immutable escrowContract;\r\n\r\n    WorkflowStatus public status;\r\n\r\n    Info private campaignInfo;\r\n\r\n    mapping(uint8 => Rewards) public rewardsList;\r\n    mapping(uint8 => mapping(address => uint8)) public rewardToContributor;\r\n    mapping(address => uint128) public contributorBalances;\r\n\r\n    //Modifiers\r\n    modifier isNotDeleted(){\r\n        require(status != WorkflowStatus.CampaignDeleted, \"!Err: Campaign Deleted\");\r\n        _;\r\n    }\r\n\r\n    modifier onlyManager(){\r\n        require(msg.sender == manager, \"!Not Authorized\");\r\n        _;\r\n    }\r\n\r\n    modifier checkStatus(\r\n        WorkflowStatus currentStatus,\r\n        WorkflowStatus requiredStatus\r\n    ) {\r\n        require(currentStatus == requiredStatus, \"!Err : Wrong workflow status\");\r\n        _;\r\n    }\r\n    \r\n    modifier checkCampaignDeadline() {\r\n        require(block.timestamp <  campaignInfo.deadlineDate, \"!Err : Campaign contribution has ended\");\r\n        _;\r\n    }\r\n\r\n    constructor(Info memory infoData, Rewards[] memory rewardsData, address _manager, IERC20 _usdcToken, address _escrowContract)\r\n    {\r\n        require(rewardsData.length > 0, \"!Err: Rewards empty\");\r\n        require(rewardsData.length <= 10, \"!Err: Too much Rewards\");\r\n        manager = _manager;\r\n        factory = msg.sender;\r\n        createAt = uint64(block.timestamp);\r\n        status = WorkflowStatus.CampaignDrafted;\r\n        usdcToken = _usdcToken;\r\n        escrowContract = _escrowContract;\r\n        _setCampaignInfo(infoData);\r\n        uint8 _rewardsCounter;\r\n        for (_rewardsCounter; _rewardsCounter < rewardsData.length; _rewardsCounter++) {\r\n            _setCampaignReward(_rewardsCounter, rewardsData[_rewardsCounter]);\r\n        }\r\n        rewardsCounter = uint8(rewardsData.length) ;\r\n    }\r\n\r\n    /**\r\n     * @inheritdoc ICampaign\r\n     */\r\n    function getCampaignInfo() external view override isNotDeleted() returns(Info memory, uint64, address, WorkflowStatus, uint128, address) {\r\n        return (campaignInfo, createAt, manager, status, totalRaised, proposal);\r\n    }\r\n\r\n    /**\r\n     * @inheritdoc ICampaign\r\n     */\r\n    function updateCampaign(Info memory newInfo) external override isNotDeleted() onlyManager() checkStatus(status, WorkflowStatus.CampaignDrafted) {\r\n        _setCampaignInfo(newInfo);\r\n    }\r\n\r\n    /**\r\n     * @inheritdoc ICampaign\r\n     */\r\n    function addReward(Rewards memory newRewardData) external override isNotDeleted() onlyManager() checkStatus(status, WorkflowStatus.CampaignDrafted) {\r\n        _setCampaignReward(rewardsCounter, newRewardData);\r\n        rewardsCounter++;\r\n    }\r\n\r\n    /**\r\n     * @inheritdoc ICampaign\r\n     */\r\n    function updateReward(Rewards memory newRewardData, uint8 rewardIndex) external override isNotDeleted() onlyManager() checkStatus(status, WorkflowStatus.CampaignDrafted) {\r\n        require(rewardIndex <= rewardsCounter, \"!Err: Index not exist\");\r\n        _setCampaignReward(rewardIndex, newRewardData);\r\n    }\r\n\r\n    /**\r\n    * @notice Internal function that set a new campaign's info and making data validation first.\r\n    * @param data Info Object that contains the Info data following the Info struct\r\n    */\r\n    function _setCampaignInfo(Info memory data) private {\r\n        require(bytes(data.title).length > 0, \"!Err: Title empty\");\r\n        require(bytes(data.description).length > 0, \"!Err: Description empty\");\r\n        require(data.fundingGoal >= 1000 ether, \"!Err: Funding Goal not enough\");\r\n        require(createAt + 7 days <= data.deadlineDate, \"!Err: deadlineDate to short\");\r\n        campaignInfo.title = data.title;\r\n        campaignInfo.description = data.description;\r\n        campaignInfo.fundingGoal = data.fundingGoal;\r\n        campaignInfo.deadlineDate = data.deadlineDate;\r\n    }\r\n\r\n    /**\r\n     * @notice Internal function that set a new campaign's reward level and making data validation first.\r\n     * @param index uint Index of the reward to add\r\n     * @param data Rewards Object that contains the Reward data following the Rewards struct\r\n     */\r\n    function _setCampaignReward(uint8 index, Rewards memory data) private {\r\n        require(bytes(data.title).length > 0, \"!Err: Title empty\");\r\n        require(bytes(data.description).length > 0, \"!Err: Description empty\");\r\n        Rewards memory r;\r\n        r.title = data.title;\r\n        r.description = data.description;\r\n        r.minimumContribution = data.minimumContribution;\r\n        r.stockLimit = data.stockLimit;\r\n        r.nbContributors = data.nbContributors;\r\n        r.isStockLimited = data.isStockLimited;\r\n        rewardsList[index] = r;\r\n    }\r\n\r\n    /**\r\n     * @inheritdoc ICampaign\r\n     */\r\n    function deleteCampaign() public override isNotDeleted() onlyManager() {\r\n        require(status == WorkflowStatus.CampaignDrafted || status == WorkflowStatus.FundingFailed || status == WorkflowStatus.CampaignCompleted, \"!Err : Wrong workflow status\");\r\n        status = WorkflowStatus.CampaignDeleted;\r\n        ICampaignFactory(factory).deleteCampaign();\r\n    }\r\n\r\n    /**\r\n     * @inheritdoc ICampaign\r\n     */\r\n    function deleteReward(uint8 rewardIndex) external override isNotDeleted() onlyManager() checkStatus(status, WorkflowStatus.CampaignDrafted) {\r\n        require(rewardIndex < rewardsCounter, \"!Err: Index not exist\");\r\n        if((rewardsCounter-1)!=rewardIndex){\r\n            rewardsList[rewardIndex] = rewardsList[rewardsCounter-1];\r\n        }\r\n        delete rewardsList[rewardsCounter-1];\r\n        rewardsCounter--;\r\n    }\r\n\r\n    /**\r\n     * @inheritdoc ICampaign\r\n     */\r\n    function updateManager(address newManager) external override onlyManager() {\r\n        manager = newManager;\r\n    }\r\n\r\n    /**\r\n     * @inheritdoc ICampaign\r\n     */\r\n    function publishCampaign() external override isNotDeleted() onlyManager() checkStatus(status, WorkflowStatus.CampaignDrafted) {\r\n        uint minDate = campaignInfo.deadlineDate - 7 days;\r\n        require(minDate >= block.timestamp, \"!Err: deadlineDate to short\");\r\n        status = WorkflowStatus.CampaignPublished;\r\n    }\r\n    \r\n    /**\r\n     * @inheritdoc ICampaign\r\n     */\r\n    function contribute(uint128 _amount, uint8 rewardIndex) external override isNotDeleted() checkCampaignDeadline() {\r\n        require(status != WorkflowStatus.CampaignDrafted && status != WorkflowStatus.FundingFailed && status != WorkflowStatus.CampaignCompleted, \"!Err : Wrong workflow status\");\r\n        require(checkRewardInventory(rewardIndex), \"!Err: no more reward\");\r\n        usdcToken.safeTransferFrom(msg.sender, address(this), _amount);\r\n        contributorBalances[msg.sender] = contributorBalances[msg.sender] + _amount;\r\n        rewardToContributor[rewardIndex][msg.sender] = rewardToContributor[rewardIndex][msg.sender] + 1;\r\n        rewardsList[rewardIndex].nbContributors = rewardsList[rewardIndex].nbContributors + 1;\r\n        rewardsList[rewardIndex].amount = rewardsList[rewardIndex].amount + _amount;\r\n        if(getContractUSDCBalance() >= campaignInfo.fundingGoal) {\r\n            status = WorkflowStatus.FundingComplete;\r\n            totalRaised = getContractUSDCBalance();\r\n        }\r\n    }\r\n\r\n    /**\r\n     * @inheritdoc ICampaign\r\n     */\r\n    function refund() external override {\r\n        require(block.timestamp > campaignInfo.deadlineDate && getContractUSDCBalance() > 0, \"!Err: conditions not met\");\r\n        require(status == WorkflowStatus.CampaignPublished || status == WorkflowStatus.FundingFailed, \"!Err: wrong workflowstatus\");\r\n        if (status == WorkflowStatus.CampaignPublished) {\r\n            status = WorkflowStatus.FundingFailed;\r\n        }\r\n        uint256 _balance = contributorBalances[msg.sender];\r\n        delete contributorBalances[msg.sender];\r\n        usdcToken.safeTransfer(msg.sender, _balance);\r\n    }\r\n\r\n    /**\r\n     * @inheritdoc ICampaign\r\n     */\r\n    function launchProposalContract() external override onlyManager() isNotDeleted() checkStatus(status, WorkflowStatus.FundingComplete) {\r\n        require(proposal == address(0), \"!Err: proposal already deployed\");\r\n        require(block.timestamp > campaignInfo.deadlineDate, \"!Err: campgaign deadaline not passed\");\r\n        usdcToken.safeTransfer(escrowContract, totalRaised*5/100);\r\n        IProposal _proposalContract = new Proposal(address(this), manager);\r\n        proposal = address(_proposalContract);\r\n    }\r\n\r\n    /**\r\n     * @notice Return the amount in USDC raised by the campaign\r\n     * @dev amount uint USDC raised by the campaign in WEI\r\n     */\r\n    function getContractUSDCBalance() public view returns(uint128) {\r\n        return uint128(usdcToken.balanceOf(address(this)));\r\n    }\r\n\r\n    function realeaseProposalFunds(uint128 _amount) external override {\r\n        require(msg.sender == proposal, \"!Err: Access denied\");\r\n        usdcToken.safeTransfer(manager, _amount);\r\n    }\r\n\r\n    function checkRewardInventory(uint8 rewardIndex) internal view returns (bool) {\r\n        if (!rewardsList[rewardIndex].isStockLimited) {\r\n            return true;\r\n        } else if(rewardsList[rewardIndex].stockLimit > rewardsList[rewardIndex].nbContributors) {\r\n            return true;\r\n        } else {\r\n            return false;\r\n        }\r\n    }\r\n}\r\n",
  "sourcePath": "/Users/Xutyr/Documents/Lab/SparkUp/contracts/Campaign.sol",
  "compiler": {
    "name": "solc",
    "version": "0.8.6+commit.11564f7e.Emscripten.clang"
  },
  "schemaVersion": "3.4.1",
  "updatedAt": "2021-08-01T11:44:50.244Z",
  "devdoc": {
    "kind": "dev",
    "methods": {
      "addReward((string,string,uint16,uint64,uint128,uint128,bool))": {
        "details": "Only the manager must be able to call it.",
        "params": {
          "newRewardData": "Rewards Object that contains all the needed information following the Rewards struct for the campaign"
        }
      },
      "contribute(uint128,uint8)": {
        "details": "Can only be called if campaign is published, is not completed, is not deleted and is not failed."
      },
      "deleteCampaign()": {
        "details": "It's the entry point for deleting a campaign. Only the manager must be able to call it"
      },
      "deleteReward(uint8)": {
        "details": "Only the manager must be able to call it.",
        "params": {
          "rewardIndex": "uint256 Index of the reward to delete"
        }
      },
      "getContractUSDCBalance()": {
        "details": "amount uint USDC raised by the campaign in WEI"
      },
      "launchProposalContract()": {
        "details": "Can only be called by manager and if WorkflowStatus is FundingComplete."
      },
      "publishCampaign()": {
        "details": "Only the manager must be able to call it and only within acceptable deadlineDate timeframe."
      },
      "realeaseProposalFunds(uint128)": {
        "details": "Can only be called by proposal contract when proposal is accepted."
      },
      "refund()": {
        "details": "Can only be called if campiagn deadline is passed and fundingGoal not reached."
      },
      "updateCampaign((string,string,uint64,uint128))": {
        "details": "Only the manager must be able to call it.",
        "params": {
          "updatedInfoData": "Info Object that contains all the new information following the Info struct for the campaign"
        }
      },
      "updateManager(address)": {
        "details": "Only the manager must be able to call it.",
        "params": {
          "newManager": "address Address of the new manager"
        }
      },
      "updateReward((string,string,uint16,uint64,uint128,uint128,bool),uint8)": {
        "details": "Only the manager must be able to call it.",
        "params": {
          "newRewardData": "Rewards Object that contains the new data to set following the Rewards struct for the campaign",
          "rewardIndex": "uint256 Index of the reward to update"
        }
      }
    },
    "version": 1
  },
  "userdoc": {
    "kind": "user",
    "methods": {
      "addReward((string,string,uint16,uint64,uint128,uint128,bool))": {
        "notice": "Add a new reward level to the campaign."
      },
      "contribute(uint128,uint8)": {
        "notice": "Allow contributors to contribute to the campaign."
      },
      "deleteCampaign()": {
        "notice": "Delete the campaign."
      },
      "deleteReward(uint8)": {
        "notice": "Delete a reward by its Id."
      },
      "getCampaignInfo()": {
        "notice": "Returns the campaign information in the struct Info plus de createAt and the managerAddress."
      },
      "getContractUSDCBalance()": {
        "notice": "Return the amount in USDC raised by the campaign"
      },
      "launchProposalContract()": {
        "notice": "Allows manager to deploy proposal contract to start submitting proposals."
      },
      "publishCampaign()": {
        "notice": "Allow the manager to publish campaign and make it visible to potential contributors."
      },
      "realeaseProposalFunds(uint128)": {
        "notice": "Transfer unlocked funds to manager address."
      },
      "refund()": {
        "notice": "Allow contributor to get refunded."
      },
      "updateCampaign((string,string,uint64,uint128))": {
        "notice": "Update the campaign information in the struct Info."
      },
      "updateManager(address)": {
        "notice": "Allow the manager to setup a new one."
      },
      "updateReward((string,string,uint16,uint64,uint128,uint128,bool),uint8)": {
        "notice": "Update the data of a specific reward regarding its id."
      }
    },
    "version": 1
  }
}