{
  "contractName": "CampaignFactory",
  "abi": [
    {
      "inputs": [],
      "stateMutability": "nonpayable",
      "type": "constructor"
    },
    {
      "inputs": [],
      "name": "campaignCounter",
      "outputs": [
        {
          "internalType": "uint128",
          "name": "",
          "type": "uint128"
        }
      ],
      "stateMutability": "view",
      "type": "function",
      "constant": true
    },
    {
      "inputs": [
        {
          "internalType": "address",
          "name": "",
          "type": "address"
        }
      ],
      "name": "campaignToId",
      "outputs": [
        {
          "internalType": "uint128",
          "name": "",
          "type": "uint128"
        }
      ],
      "stateMutability": "view",
      "type": "function",
      "constant": true
    },
    {
      "inputs": [
        {
          "internalType": "uint128",
          "name": "",
          "type": "uint128"
        }
      ],
      "name": "deployedCampaigns",
      "outputs": [
        {
          "internalType": "address",
          "name": "",
          "type": "address"
        }
      ],
      "stateMutability": "view",
      "type": "function",
      "constant": true
    },
    {
      "inputs": [],
      "name": "owner",
      "outputs": [
        {
          "internalType": "address",
          "name": "",
          "type": "address"
        }
      ],
      "stateMutability": "view",
      "type": "function",
      "constant": true
    },
    {
      "inputs": [],
      "name": "proxyContract",
      "outputs": [
        {
          "internalType": "address",
          "name": "",
          "type": "address"
        }
      ],
      "stateMutability": "view",
      "type": "function",
      "constant": true
    },
    {
      "inputs": [
        {
          "internalType": "contract ICampaign",
          "name": "_newCampaign",
          "type": "address"
        }
      ],
      "name": "addCampaign",
      "outputs": [],
      "stateMutability": "nonpayable",
      "type": "function"
    },
    {
      "inputs": [],
      "name": "deleteCampaign",
      "outputs": [],
      "stateMutability": "nonpayable",
      "type": "function"
    },
    {
      "inputs": [
        {
          "internalType": "address",
          "name": "_manager",
          "type": "address"
        }
      ],
      "name": "deployProposalContract",
      "outputs": [],
      "stateMutability": "nonpayable",
      "type": "function"
    },
    {
      "inputs": [
        {
          "internalType": "address",
          "name": "newOwner",
          "type": "address"
        }
      ],
      "name": "updateOwner",
      "outputs": [],
      "stateMutability": "nonpayable",
      "type": "function"
    },
    {
      "inputs": [
        {
          "internalType": "address",
          "name": "_proxyContract",
          "type": "address"
        }
      ],
      "name": "setProxy",
      "outputs": [],
      "stateMutability": "nonpayable",
      "type": "function"
    }
  ],
  "bytecode": "0x6080604052600080546001600160801b031916600117905534801561002357600080fd5b50600180546001600160a01b0319163317905561233f806100456000396000f3fe608060405234801561001057600080fd5b506004361061009e5760003560e01c806397107d6d1161006657806397107d6d14610144578063ac9c4fd314610157578063d1f87b191461016a578063ed55044314610193578063fca604d7146101a657600080fd5b8063244c3c2c146100a3578063880cdc31146100ad5780638b89df4f146100c05780638da5cb5b146100d35780638e47fe9714610103575b600080fd5b6100ab6101b9565b005b6100ab6100bb3660046105d6565b6103c5565b6100ab6100ce3660046105d6565b610411565b6001546100e6906001600160a01b031681565b6040516001600160a01b0390911681526020015b60405180910390f35b61012c6101113660046105d6565b6004602052600090815260409020546001600160801b031681565b6040516001600160801b0390911681526020016100fa565b6100ab6101523660046105d6565b6104ea565b6100ab6101653660046105d6565b610536565b6100e66101783660046105fa565b6003602052600090815260409020546001600160a01b031681565b6002546100e6906001600160a01b031681565b60005461012c906001600160801b031681565b336000908152600460205260409020546001600160801b03166102155760405162461bcd60e51b815260206004820152600f60248201526e08515c9c8e88139bdd08195e1a5cdd608a1b60448201526064015b60405180910390fd5b3360009081526004602052604081205490546001600160801b0391821691610240916001911661064c565b6001600160801b0316816001600160801b03161461032b576000805460039190610275906001906001600160801b031661064c565b6001600160801b0390811682526020808301939093526040918201600090812054858316825260039485905292812080546001600160a01b0319166001600160a01b03909416939093179092558154849360049392909183916102db916001911661064c565b6001600160801b03908116825260208083019390935260409182016000908120546001600160a01b031685529284019490945291909101902080546001600160801b031916929091169190911790555b6000805460039190610348906001906001600160801b031661064c565b6001600160801b0390811682526020808301939093526040918201600090812080546001600160a01b0319169055338152600490935290822080546001600160801b0319169055815416908061039d83610674565b91906101000a8154816001600160801b0302191690836001600160801b031602179055505050565b6001546001600160a01b031633146103ef5760405162461bcd60e51b815260040161020c90610623565b600180546001600160a01b0319166001600160a01b0392909216919091179055565b336000908152600460205260409020546001600160801b03166104465760405162461bcd60e51b815260040161020c90610623565b60003382604051610456906105c9565b6001600160a01b03928316815291166020820152604001604051809103906000f080158015610489573d6000803e3d6000fd5b506040516372686b1760e01b81526001600160a01b038216600482015290915033906372686b1790602401600060405180830381600087803b1580156104ce57600080fd5b505af11580156104e2573d6000803e3d6000fd5b505050505050565b6001546001600160a01b031633146105145760405162461bcd60e51b815260040161020c90610623565b600280546001600160a01b0319166001600160a01b0392909216919091179055565b6002546001600160a01b031633146105605760405162461bcd60e51b815260040161020c90610623565b600080546001600160801b03908116825260036020908152604080842080546001600160a01b0387166001600160a01b0319909116811790915584549085526004909252832080546001600160801b031916918316919091179055815416908061039d83610697565b611c1d806106ed83390190565b6000602082840312156105e857600080fd5b81356105f3816106d4565b9392505050565b60006020828403121561060c57600080fd5b81356001600160801b03811681146105f357600080fd5b6020808252600f908201526e08539bdd08105d5d1a1bdc9a5e9959608a1b604082015260600190565b60006001600160801b038381169083168181101561066c5761066c6106be565b039392505050565b60006001600160801b0382168061068d5761068d6106be565b6000190192915050565b60006001600160801b03808316818114156106b4576106b46106be565b6001019392505050565b634e487b7160e01b600052601160045260246000fd5b6001600160a01b03811681146106e957600080fd5b5056fe60a06040523480156200001157600080fd5b5060405162001c1d38038062001c1d83398101604081905262000034916200015e565b606082901b6001600160601b031916608052600480546001600160a01b038085166001600160a01b031992831617909255600380549091169183169190911790556200007f620000a8565b600080546001600160801b0319166001600160801b039290921691909117905550620001c89050565b6000600460009054906101000a90046001600160a01b03166001600160a01b0316622772c26040518163ffffffff1660e01b815260040160206040518083038186803b158015620000f857600080fd5b505afa1580156200010d573d6000803e3d6000fd5b505050506040513d601f19601f8201168201806040525081019062000133919062000196565b6001600160801b0316905090565b80516001600160a01b03811681146200015957600080fd5b919050565b600080604083850312156200017257600080fd5b6200017d8362000141565b91506200018d6020840162000141565b90509250929050565b600060208284031215620001a957600080fd5b81516001600160801b0381168114620001c157600080fd5b9392505050565b60805160601c611a36620001e7600039600061010a0152611a366000f3fe608060405234801561001057600080fd5b50600436106100cf5760003560e01c806346fcff4c1161008c578063b1fa087611610066578063b1fa087614610206578063e595702314610226578063fb5e76e61461024f578063fe48e8b11461026257600080fd5b806346fcff4c146101a85780634caae8a0146101d35780635cbd4d05146101f357600080fd5b806305f86040146100d45780630c0512e9146100e957806311765b2714610105578063216869451461014457806334bdcdd714610157578063438596321461016a575b600080fd5b6100e76100e23660046115ef565b610275565b005b6100f260015481565b6040519081526020015b60405180910390f35b61012c7f000000000000000000000000000000000000000000000000000000000000000081565b6040516001600160a01b0390911681526020016100fc565b6100e76101523660046115ef565b61036a565b6100e76101653660046115ef565b6105b3565b6101986101783660046115b3565b600660209081526000928352604080842090915290825290205460ff1681565b60405190151581526020016100fc565b6000546101bb906001600160801b031681565b6040516001600160801b0390911681526020016100fc565b6101e66101e13660046114dd565b6106aa565b6040516100fc91906116ac565b6100e7610201366004611505565b6109da565b6100f26102143660046114dd565b60026020526000908152604090205481565b61023961023436600461159a565b610e4d565b6040516100fc9a99989796959493929190611824565b60035461012c906001600160a01b031681565b6100e761027036600461160a565b610fd3565b6003546001600160a01b031633146102a85760405162461bcd60e51b815260040161029f906117f9565b60405180910390fd5b60ff811660018060008381526005602081905260409091200154610100900460ff1660038111156102db576102db6119a6565b146102f85760405162461bcd60e51b815260040161029f906117c2565b60ff8316600090815260056020819052604090912001805461ff0019166102001790556103284262093a806118e3565b60ff9093166000908152600560205260409020600301805467ffffffffffffffff949094166101000268ffffffffffffffff0019909416939093179092555050565b60ff811660028060008381526005602081905260409091200154610100900460ff16600381111561039d5761039d6119a6565b146103ba5760405162461bcd60e51b815260040161029f906117c2565b60ff8316600090815260056020526040902060030154610100900467ffffffffffffffff16421161042d5760405162461bcd60e51b815260206004820152601a60248201527f214572723a20566f74696e67207374696c6c206f6e676f696e67000000000000604482015260640161029f565b60ff83166000908152600560208190526040909120908101805461ff001916610300179055600401546001600160801b03600160801b8204811691161115610515576004805460ff851660009081526005602052604090819020600301549051630a2d00d360e01b8152600160481b9091046001600160801b0316928101929092526001600160a01b031690630a2d00d390602401600060405180830381600087803b1580156104dc57600080fd5b505af11580156104f0573d6000803e3d6000fd5b50505060ff84166000908152600560205260409020600301805460ff19166001179055505b60ff83166000908152600560208190526040822001805460ff19166001908117909155600291905b600281111561054e5761054e6119a6565b8152602001908152602001600020600081548092919061056d90611975565b9091555050600080805260026020527fac33ff75c19e70fe83507db0d683fd3465c996598dc972688b7ace676c89077b8054916105a983611923565b9190505550505050565b6003546001600160a01b031633146105dd5760405162461bcd60e51b815260040161029f906117f9565b60ff811660018060008381526005602081905260409091200154610100900460ff166003811115610610576106106119a6565b1461062d5760405162461bcd60e51b815260040161029f906117c2565b60ff83166000908152600560205260408120600301549054610662916001600160801b03600160481b909104811691166118b8565b600080546001600160801b0319166001600160801b039290921691909117815560ff841681526005602081905260408220018054600260ff199091168117909155908161053d565b60606000600260008460028111156106c4576106c46119a6565b60028111156106d5576106d56119a6565b81526020019081526020016000205467ffffffffffffffff8111156106fc576106fc6119d2565b60405190808252806020026020018201604052801561073557816020015b61072261134d565b81526020019060019003908161071a5790505b5090506000805b6001548110156109d157846002811115610758576107586119a6565b6000828152600560208190526040909120015460ff16600281111561077f5761077f6119a6565b14156109bf576005600082815260200190815260200160002060405180610140016040529081600082015481526020016001820180546107be9061193a565b80601f01602080910402602001604051908101604052809291908181526020018280546107ea9061193a565b80156108375780601f1061080c57610100808354040283529160200191610837565b820191906000526020600020905b81548152906001019060200180831161081a57829003601f168201915b505050505081526020016002820180546108509061193a565b80601f016020809104026020016040519081016040528092919081815260200182805461087c9061193a565b80156108c95780601f1061089e576101008083540402835291602001916108c9565b820191906000526020600020905b8154815290600101906020018083116108ac57829003601f168201915b5050509183525050600382015460ff80821615156020840152610100820467ffffffffffffffff166040840152600160481b9091046001600160801b03908116606084015260048401548082166080850152600160801b90041660a0830152600583015460c090920191166002811115610945576109456119a6565b6002811115610956576109566119a6565b81526020016005820160019054906101000a900460ff16600381111561097e5761097e6119a6565b600381111561098f5761098f6119a6565b815250508383815181106109a5576109a56119bc565b602002602001018190525081806109bb90611975565b9250505b806109c981611975565b91505061073c565b50909392505050565b6003546001600160a01b03163314610a045760405162461bcd60e51b815260040161029f906117f9565b60015460008060008381526005602081905260409091200154610100900460ff166003811115610a3657610a366119a6565b14610a535760405162461bcd60e51b815260040161029f906117c2565b600560015410610ab65760405162461bcd60e51b815260206004820152602860248201527f214572723a204d6178696d756d20616d6f756e74206f662070726f706f73616c604482015267081c995858da195960c21b606482015260840161029f565b6000855111610afb5760405162461bcd60e51b8152602060048201526011602482015270214572723a205469746c6520656d70747960781b604482015260640161029f565b6000845111610b4c5760405162461bcd60e51b815260206004820152601760248201527f214572723a204465736372697074696f6e20656d707479000000000000000000604482015260640161029f565b68056bc75e2d63100000836001600160801b03161015610ba55760405162461bcd60e51b8152602060048201526014602482015273214572723a20416d6f756e7420746f6f206c6f7760601b604482015260640161029f565b6000546001600160801b039081169084161115610c205760405162461bcd60e51b815260206004820152603360248201527f214572723a2050726f706f73616c20616d6f756e7420657863656564732063616044820152726d706169676e20555344432062616c616e636560681b606482015260840161029f565b610c2861134d565b60018054808352602080840189815260408086018a90526001600160801b03891660a0870152610120860185905260009384526005835290922084518155915180518594610c7b939085019201906113a1565b5060408201518051610c979160028401916020909101906113a1565b506060820151600382018054608085015160a086015168ffffffffffffffffff1990921693151568ffffffffffffffff0019169390931761010067ffffffffffffffff90941684021778ffffffffffffffffffffffffffffffff0000000000000000001916600160481b6001600160801b03928316021790915560c084015160e0850151908216600160801b919092160217600483015582015160058201805460ff19166001836002811115610d4f57610d4f6119a6565b021790555061012082015160058201805461ff001916610100836003811115610d7a57610d7a6119a6565b021790555050600080805260026020527fac33ff75c19e70fe83507db0d683fd3465c996598dc972688b7ace676c89077b8054925090610db983611975565b91905055507f1fc8f2a696a1eb2860eaa6ee37c3ae6f7f4998983cb8232dbecc5a3c3f3fb1d5600154604051610df191815260200190565b60405180910390a160018054906000610e0983611975565b9091555050600054610e259085906001600160801b03166118fb565b600080546001600160801b0319166001600160801b0392909216919091179055505050505050565b60056020526000908152604090208054600182018054919291610e6f9061193a565b80601f0160208091040260200160405190810160405280929190818152602001828054610e9b9061193a565b8015610ee85780601f10610ebd57610100808354040283529160200191610ee8565b820191906000526020600020905b815481529060010190602001808311610ecb57829003601f168201915b505050505090806002018054610efd9061193a565b80601f0160208091040260200160405190810160405280929190818152602001828054610f299061193a565b8015610f765780601f10610f4b57610100808354040283529160200191610f76565b820191906000526020600020905b815481529060010190602001808311610f5957829003601f168201915b5050505060038301546004840154600590940154929360ff8083169461010080850467ffffffffffffffff169550600160481b9094046001600160801b039081169481851694600160801b9004909116928083169291909104168a565b60ff821660028060008381526005602081905260409091200154610100900460ff166003811115611006576110066119a6565b146110235760405162461bcd60e51b815260040161029f906117c2565b60ff8416600081815260056020526040902060030154610100900467ffffffffffffffff1642106110965760405162461bcd60e51b815260206004820152601f60248201527f214572723a2070726f706f73616c20766f74696e672068617320656e64656400604482015260640161029f565b6004805460405163143d7a1960e11b815233928101929092526000916001600160a01b039091169063287af4329060240160206040518083038186803b1580156110df57600080fd5b505afa1580156110f3573d6000803e3d6000fd5b505050506040513d601f19601f82011682018060405250810190611117919061157d565b6001600160801b03161161116d5760405162461bcd60e51b815260206004820152601760248201527f214572723a206e6f74206120636f6e7472696275746f72000000000000000000604482015260640161029f565b60ff808616600090815260066020908152604080832033845290915290205416156111d05760405162461bcd60e51b815260206004820152601360248201527208515c9c8e88105b1c9958591e481d9bdd1959606a1b604482015260640161029f565b6004805460405163143d7a1960e11b815233928101929092526000916001600160a01b039091169063287af4329060240160206040518083038186803b15801561121957600080fd5b505afa15801561122d573d6000803e3d6000fd5b505050506040513d601f19601f82011682018060405250810190611251919061157d565b905084156112bb5760ff86166000908152600560205260409020600401546112839082906001600160801b03166118b8565b60ff8716600090815260056020526040902060040180546001600160801b0319166001600160801b039290921691909117905561131d565b60ff86166000908152600560205260409020600401546112ec908290600160801b90046001600160801b03166118b8565b60ff8716600090815260056020526040902060040180546001600160801b03928316600160801b0292169190911790555b50505060ff90921660009081526006602090815260408083203384529091529020805460ff191660011790555050565b604080516101408101825260008082526060602083018190529282018390529181018290526080810182905260a0810182905260c0810182905260e081018290529061010082019081526020016000905290565b8280546113ad9061193a565b90600052602060002090601f0160209004810192826113cf5760008555611415565b82601f106113e857805160ff1916838001178555611415565b82800160010185558215611415579182015b828111156114155782518255916020019190600101906113fa565b50611421929150611425565b5090565b5b808211156114215760008155600101611426565b600082601f83011261144b57600080fd5b813567ffffffffffffffff80821115611466576114666119d2565b604051601f8301601f19908116603f0116810190828211818310171561148e5761148e6119d2565b816040528381528660208588010111156114a757600080fd5b836020870160208301376000602085830101528094505050505092915050565b803560ff811681146114d857600080fd5b919050565b6000602082840312156114ef57600080fd5b8135600381106114fe57600080fd5b9392505050565b60008060006060848603121561151a57600080fd5b833567ffffffffffffffff8082111561153257600080fd5b61153e8783880161143a565b9450602086013591508082111561155457600080fd5b506115618682870161143a565b9250506040840135611572816119e8565b809150509250925092565b60006020828403121561158f57600080fd5b81516114fe816119e8565b6000602082840312156115ac57600080fd5b5035919050565b600080604083850312156115c657600080fd5b8235915060208301356001600160a01b03811681146115e457600080fd5b809150509250929050565b60006020828403121561160157600080fd5b6114fe826114c7565b6000806040838503121561161d57600080fd5b611626836114c7565b9150602083013580151581146115e457600080fd5b6003811061164b5761164b6119a6565b9052565b6004811061164b5761164b6119a6565b6000815180845260005b8181101561168557602081850181015186830182015201611669565b81811115611697576000602083870101525b50601f01601f19169290920160200192915050565b60006020808301818452808551808352604092508286019150828160051b87010184880160005b838110156117b457603f1989840301855281516101408151855288820151818a8701526117028287018261165f565b915050878201518582038987015261171a828261165f565b9150506060808301516117308288018215159052565b505060808281015167ffffffffffffffff169086015260a0808301516001600160801b039081169187019190915260c08084015182169087015260e080840151909116908601526101008083015161178a8288018261163b565b505061012091820151916117a08682018461164f565b5095880195935050908601906001016116d3565b509098975050505050505050565b6020808252601c908201527f21457272203a2057726f6e6720776f726b666c6f772073746174757300000000604082015260600190565b60208082526011908201527010a2b9391d103737ba1036b0b730b3b2b960791b604082015260600190565b60006101408c835280602084015261183e8184018d61165f565b90508281036040840152611852818c61165f565b8a1515606085015267ffffffffffffffff8a1660808501526001600160801b0389811660a086015288811660c0860152871660e0850152915061189b905061010083018561163b565b6118a961012083018461164f565b9b9a5050505050505050505050565b60006001600160801b038083168185168083038211156118da576118da611990565b01949350505050565b600082198211156118f6576118f6611990565b500190565b60006001600160801b038381169083168181101561191b5761191b611990565b039392505050565b60008161193257611932611990565b506000190190565b600181811c9082168061194e57607f821691505b6020821081141561196f57634e487b7160e01b600052602260045260246000fd5b50919050565b600060001982141561198957611989611990565b5060010190565b634e487b7160e01b600052601160045260246000fd5b634e487b7160e01b600052602160045260246000fd5b634e487b7160e01b600052603260045260246000fd5b634e487b7160e01b600052604160045260246000fd5b6001600160801b03811681146119fd57600080fd5b5056fea2646970667358221220db4ca091633610c32b98fb86a1627285062edbe1c6234c987a5a1674b9830cdd64736f6c63430008060033a2646970667358221220baef448a625ba4aee7fbce2a9b4569a90c0546631bc782fa57a18a21fda50b7564736f6c63430008060033",
  "immutableReferences": {},
  "source": "// SPDX-License-Identifier: MIT\r\npragma solidity 0.8.6;\r\n\r\nimport \"./Proposal.sol\";\r\nimport \"./interfaces/IProposal.sol\";\r\nimport \"./interfaces/ICampaign.sol\";\r\nimport \"./interfaces/ICampaignFactory.sol\";\r\n\r\n/**\r\n* @title CampaignFactory\r\n* @notice The Campaign factory is used for the deployment of new campaign\r\n* @dev Inherit of for the CampaignFactory Interface\r\n*/\r\ncontract CampaignFactory is ICampaignFactory {\r\n\r\n    uint128 public campaignCounter = 1;\r\n    address public owner;\r\n    address public proxyContract;\r\n\r\n    mapping(uint128 => address) public deployedCampaigns;\r\n    mapping(address => uint128) public campaignToId;\r\n\r\n    constructor(){\r\n        owner = msg.sender;\r\n    }\r\n\r\n    modifier onlyOwner() {\r\n        require(msg.sender == owner, \"!Not Authorized\");\r\n        _;\r\n    }\r\n\r\n    /**\r\n     * @inheritdoc ICampaignFactory\r\n     */\r\n    function addCampaign(ICampaign _newCampaign) external override {\r\n        require(msg.sender == proxyContract, \"!Not Authorized\");\r\n        deployedCampaigns[campaignCounter] = address(_newCampaign);\r\n        campaignToId[address(_newCampaign)] = campaignCounter;\r\n        campaignCounter++;\r\n    }\r\n\r\n    /**\r\n     * @inheritdoc ICampaignFactory\r\n     */\r\n    function deleteCampaign() public override {\r\n        require(campaignToId[msg.sender] !=0 , \"!Err: Not exist\");\r\n        uint128 _indexToSwap = campaignToId[msg.sender];\r\n        if (_indexToSwap != campaignCounter - 1) {\r\n            deployedCampaigns[_indexToSwap] = deployedCampaigns[campaignCounter - 1];\r\n            campaignToId[deployedCampaigns[campaignCounter-1]] = _indexToSwap;\r\n        }\r\n\r\n        delete deployedCampaigns[campaignCounter - 1];\r\n        delete campaignToId[msg.sender];\r\n        campaignCounter--;\r\n    }\r\n\r\n    /**\r\n     * @inheritdoc ICampaignFactory\r\n     */\r\n    function deployProposalContract(address _manager) external override {\r\n        require(campaignToId[msg.sender] != 0, \"!Not Authorized\");\r\n        IProposal _proposalContract = new Proposal(msg.sender, _manager);\r\n        ICampaign(msg.sender).setProposal(address(_proposalContract));\r\n    }\r\n\r\n    /**\r\n     * @inheritdoc ICampaignFactory\r\n     */\r\n    function updateOwner(address newOwner) external override onlyOwner() {\r\n        owner = newOwner;\r\n    }\r\n\r\n    /**\r\n     * @inheritdoc ICampaignFactory\r\n     */\r\n    function setProxy(address _proxyContract) external override onlyOwner() {\r\n        proxyContract = _proxyContract;\r\n    }\r\n}\r\n",
  "sourcePath": "/Users/Xutyr/Documents/Lab/SparkUp/contracts/CampaignFactory.sol",
  "compiler": {
    "name": "solc",
    "version": "0.8.6+commit.11564f7e.Emscripten.clang"
  },
  "schemaVersion": "3.4.1",
  "updatedAt": "2021-08-02T21:43:42.910Z",
  "networkType": "ethereum",
  "devdoc": {
    "details": "Inherit of for the CampaignFactory Interface",
    "kind": "dev",
    "methods": {
      "addCampaign(address)": {
        "params": {
          "_newCampaign": "is ICampaign of created campaign from proxy"
        }
      },
      "deleteCampaign()": {
        "details": "Only an contract already deployed must be able to call this function"
      },
      "deployProposalContract(address)": {
        "details": "Can only be called by an existing campaign contract.",
        "params": {
          "_manager": "is campaign manager."
        }
      },
      "setProxy(address)": {
        "details": "Only the actual owner must be able to call this function",
        "params": {
          "_proxyContract": "address the ProxyContract"
        }
      },
      "updateOwner(address)": {
        "details": "Only the actual owner must be able to call this function",
        "params": {
          "newOwner": "address The new owner address"
        }
      }
    },
    "title": "CampaignFactory",
    "version": 1
  },
  "userdoc": {
    "kind": "user",
    "methods": {
      "addCampaign(address)": {
        "notice": "Add campaign contract address to mapping"
      },
      "deleteCampaign()": {
        "notice": "Delete a new Campaign that call this function."
      },
      "deployProposalContract(address)": {
        "notice": "Delete a new proposal contract."
      },
      "setProxy(address)": {
        "notice": "Allow the owner to set ProxyContract address."
      },
      "updateOwner(address)": {
        "notice": "Allow the owner to set a new owner for the factory."
      }
    },
    "notice": "The Campaign factory is used for the deployment of new campaign",
    "version": 1
  }
}