{
  "contractName": "Campaign",
  "abi": [
    {
      "inputs": [
        {
          "components": [
            {
              "internalType": "string",
              "name": "title",
              "type": "string"
            },
            {
              "internalType": "string",
              "name": "description",
              "type": "string"
            },
            {
              "internalType": "uint64",
              "name": "deadlineDate",
              "type": "uint64"
            },
            {
              "internalType": "uint128",
              "name": "fundingGoal",
              "type": "uint128"
            }
          ],
          "internalType": "struct ICampaign.Info",
          "name": "infoData",
          "type": "tuple"
        },
        {
          "components": [
            {
              "internalType": "string",
              "name": "title",
              "type": "string"
            },
            {
              "internalType": "string",
              "name": "description",
              "type": "string"
            },
            {
              "internalType": "bool",
              "name": "isStockLimited",
              "type": "bool"
            },
            {
              "internalType": "uint16",
              "name": "stockLimit",
              "type": "uint16"
            },
            {
              "internalType": "uint64",
              "name": "nbContributors",
              "type": "uint64"
            },
            {
              "internalType": "uint128",
              "name": "minimumContribution",
              "type": "uint128"
            },
            {
              "internalType": "uint128",
              "name": "amount",
              "type": "uint128"
            }
          ],
          "internalType": "struct ICampaign.Rewards[]",
          "name": "rewardsData",
          "type": "tuple[]"
        },
        {
          "internalType": "address",
          "name": "_manager",
          "type": "address"
        },
        {
          "internalType": "contract IERC20",
          "name": "_usdcToken",
          "type": "address"
        },
        {
          "internalType": "address",
          "name": "_escrowContract",
          "type": "address"
        }
      ],
      "stateMutability": "nonpayable",
      "type": "constructor"
    },
    {
      "inputs": [
        {
          "internalType": "address",
          "name": "",
          "type": "address"
        }
      ],
      "name": "contributorBalances",
      "outputs": [
        {
          "internalType": "uint128",
          "name": "",
          "type": "uint128"
        }
      ],
      "stateMutability": "view",
      "type": "function"
    },
    {
      "inputs": [],
      "name": "createAt",
      "outputs": [
        {
          "internalType": "uint64",
          "name": "",
          "type": "uint64"
        }
      ],
      "stateMutability": "view",
      "type": "function"
    },
    {
      "inputs": [],
      "name": "escrowContract",
      "outputs": [
        {
          "internalType": "address",
          "name": "",
          "type": "address"
        }
      ],
      "stateMutability": "view",
      "type": "function"
    },
    {
      "inputs": [],
      "name": "factory",
      "outputs": [
        {
          "internalType": "address",
          "name": "",
          "type": "address"
        }
      ],
      "stateMutability": "view",
      "type": "function"
    },
    {
      "inputs": [],
      "name": "manager",
      "outputs": [
        {
          "internalType": "address",
          "name": "",
          "type": "address"
        }
      ],
      "stateMutability": "view",
      "type": "function"
    },
    {
      "inputs": [],
      "name": "proposal",
      "outputs": [
        {
          "internalType": "address",
          "name": "",
          "type": "address"
        }
      ],
      "stateMutability": "view",
      "type": "function"
    },
    {
      "inputs": [
        {
          "internalType": "uint8",
          "name": "",
          "type": "uint8"
        },
        {
          "internalType": "address",
          "name": "",
          "type": "address"
        }
      ],
      "name": "rewardToContributor",
      "outputs": [
        {
          "internalType": "uint8",
          "name": "",
          "type": "uint8"
        }
      ],
      "stateMutability": "view",
      "type": "function"
    },
    {
      "inputs": [],
      "name": "rewardsCounter",
      "outputs": [
        {
          "internalType": "uint8",
          "name": "",
          "type": "uint8"
        }
      ],
      "stateMutability": "view",
      "type": "function"
    },
    {
      "inputs": [
        {
          "internalType": "uint8",
          "name": "",
          "type": "uint8"
        }
      ],
      "name": "rewardsList",
      "outputs": [
        {
          "internalType": "string",
          "name": "title",
          "type": "string"
        },
        {
          "internalType": "string",
          "name": "description",
          "type": "string"
        },
        {
          "internalType": "bool",
          "name": "isStockLimited",
          "type": "bool"
        },
        {
          "internalType": "uint16",
          "name": "stockLimit",
          "type": "uint16"
        },
        {
          "internalType": "uint64",
          "name": "nbContributors",
          "type": "uint64"
        },
        {
          "internalType": "uint128",
          "name": "minimumContribution",
          "type": "uint128"
        },
        {
          "internalType": "uint128",
          "name": "amount",
          "type": "uint128"
        }
      ],
      "stateMutability": "view",
      "type": "function"
    },
    {
      "inputs": [],
      "name": "status",
      "outputs": [
        {
          "internalType": "enum ICampaign.WorkflowStatus",
          "name": "",
          "type": "uint8"
        }
      ],
      "stateMutability": "view",
      "type": "function"
    },
    {
      "inputs": [],
      "name": "totalRaised",
      "outputs": [
        {
          "internalType": "uint128",
          "name": "",
          "type": "uint128"
        }
      ],
      "stateMutability": "view",
      "type": "function"
    },
    {
      "inputs": [],
      "name": "usdcToken",
      "outputs": [
        {
          "internalType": "contract IERC20",
          "name": "",
          "type": "address"
        }
      ],
      "stateMutability": "view",
      "type": "function"
    },
    {
      "inputs": [],
      "name": "getCampaignInfo",
      "outputs": [
        {
          "components": [
            {
              "internalType": "string",
              "name": "title",
              "type": "string"
            },
            {
              "internalType": "string",
              "name": "description",
              "type": "string"
            },
            {
              "internalType": "uint64",
              "name": "deadlineDate",
              "type": "uint64"
            },
            {
              "internalType": "uint128",
              "name": "fundingGoal",
              "type": "uint128"
            }
          ],
          "internalType": "struct ICampaign.Info",
          "name": "",
          "type": "tuple"
        },
        {
          "internalType": "uint64",
          "name": "",
          "type": "uint64"
        },
        {
          "internalType": "address",
          "name": "",
          "type": "address"
        },
        {
          "internalType": "enum ICampaign.WorkflowStatus",
          "name": "",
          "type": "uint8"
        },
        {
          "internalType": "uint128",
          "name": "",
          "type": "uint128"
        },
        {
          "internalType": "address",
          "name": "",
          "type": "address"
        }
      ],
      "stateMutability": "view",
      "type": "function"
    },
    {
      "inputs": [
        {
          "components": [
            {
              "internalType": "string",
              "name": "title",
              "type": "string"
            },
            {
              "internalType": "string",
              "name": "description",
              "type": "string"
            },
            {
              "internalType": "uint64",
              "name": "deadlineDate",
              "type": "uint64"
            },
            {
              "internalType": "uint128",
              "name": "fundingGoal",
              "type": "uint128"
            }
          ],
          "internalType": "struct ICampaign.Info",
          "name": "newInfo",
          "type": "tuple"
        }
      ],
      "name": "updateCampaign",
      "outputs": [],
      "stateMutability": "nonpayable",
      "type": "function"
    },
    {
      "inputs": [
        {
          "components": [
            {
              "internalType": "string",
              "name": "title",
              "type": "string"
            },
            {
              "internalType": "string",
              "name": "description",
              "type": "string"
            },
            {
              "internalType": "bool",
              "name": "isStockLimited",
              "type": "bool"
            },
            {
              "internalType": "uint16",
              "name": "stockLimit",
              "type": "uint16"
            },
            {
              "internalType": "uint64",
              "name": "nbContributors",
              "type": "uint64"
            },
            {
              "internalType": "uint128",
              "name": "minimumContribution",
              "type": "uint128"
            },
            {
              "internalType": "uint128",
              "name": "amount",
              "type": "uint128"
            }
          ],
          "internalType": "struct ICampaign.Rewards",
          "name": "newRewardData",
          "type": "tuple"
        }
      ],
      "name": "addReward",
      "outputs": [],
      "stateMutability": "nonpayable",
      "type": "function"
    },
    {
      "inputs": [
        {
          "components": [
            {
              "internalType": "string",
              "name": "title",
              "type": "string"
            },
            {
              "internalType": "string",
              "name": "description",
              "type": "string"
            },
            {
              "internalType": "bool",
              "name": "isStockLimited",
              "type": "bool"
            },
            {
              "internalType": "uint16",
              "name": "stockLimit",
              "type": "uint16"
            },
            {
              "internalType": "uint64",
              "name": "nbContributors",
              "type": "uint64"
            },
            {
              "internalType": "uint128",
              "name": "minimumContribution",
              "type": "uint128"
            },
            {
              "internalType": "uint128",
              "name": "amount",
              "type": "uint128"
            }
          ],
          "internalType": "struct ICampaign.Rewards",
          "name": "newRewardData",
          "type": "tuple"
        },
        {
          "internalType": "uint8",
          "name": "rewardIndex",
          "type": "uint8"
        }
      ],
      "name": "updateReward",
      "outputs": [],
      "stateMutability": "nonpayable",
      "type": "function"
    },
    {
      "inputs": [],
      "name": "deleteCampaign",
      "outputs": [],
      "stateMutability": "nonpayable",
      "type": "function"
    },
    {
      "inputs": [
        {
          "internalType": "uint8",
          "name": "rewardIndex",
          "type": "uint8"
        }
      ],
      "name": "deleteReward",
      "outputs": [],
      "stateMutability": "nonpayable",
      "type": "function"
    },
    {
      "inputs": [
        {
          "internalType": "address",
          "name": "newManager",
          "type": "address"
        }
      ],
      "name": "updateManager",
      "outputs": [],
      "stateMutability": "nonpayable",
      "type": "function"
    },
    {
      "inputs": [],
      "name": "publishCampaign",
      "outputs": [],
      "stateMutability": "nonpayable",
      "type": "function"
    },
    {
      "inputs": [
        {
          "internalType": "uint128",
          "name": "_amount",
          "type": "uint128"
        },
        {
          "internalType": "uint8",
          "name": "rewardIndex",
          "type": "uint8"
        }
      ],
      "name": "contribute",
      "outputs": [],
      "stateMutability": "nonpayable",
      "type": "function"
    },
    {
      "inputs": [],
      "name": "refund",
      "outputs": [],
      "stateMutability": "nonpayable",
      "type": "function"
    },
    {
      "inputs": [],
      "name": "launchProposalContract",
      "outputs": [],
      "stateMutability": "nonpayable",
      "type": "function"
    },
    {
      "inputs": [
        {
          "internalType": "uint128",
          "name": "_amount",
          "type": "uint128"
        }
      ],
      "name": "releaseProposalFunds",
      "outputs": [],
      "stateMutability": "nonpayable",
      "type": "function"
    },
    {
      "inputs": [],
      "name": "getContractUSDCBalance",
      "outputs": [
        {
          "internalType": "uint128",
          "name": "",
          "type": "uint128"
        }
      ],
      "stateMutability": "view",
      "type": "function"
    }
  ],
  "bytecode": "0x60c06040523480156200001157600080fd5b506040516200530a3803806200530a8339810160408190526200003491620008fb565b60008451116200008b5760405162461bcd60e51b815260206004820152601360248201527f214572723a205265776172647320656d7074790000000000000000000000000060448201526064015b60405180910390fd5b600a84511115620000df5760405162461bcd60e51b815260206004820152601660248201527f214572723a20546f6f206d756368205265776172647300000000000000000000604482015260640162000082565b600180546001600160a01b0385166001600160a01b0319918216179091556002805490911633179055600080546001600160401b03421661010002610100600160481b03199091161790556003805460ff60a01b191690556001600160601b0319606083811b821660805282901b1660a0526200015c85620001d3565b60005b84518160ff161015620001b2576200019d81868360ff168151811062000189576200018962000b44565b6020026020010151620003db60201b60201c565b80620001a98162000b0b565b9150506200015f565b505091516000805460ff191660ff9092169190911790555062000b70915050565b805151620002185760405162461bcd60e51b8152602060048201526011602482015270214572723a205469746c6520656d70747960781b604482015260640162000082565b6000816020015151116200026f5760405162461bcd60e51b815260206004820152601760248201527f214572723a204465736372697074696f6e20656d707479000000000000000000604482015260640162000082565b683635c9adc5dea0000081606001516001600160801b03161015620002d75760405162461bcd60e51b815260206004820152601d60248201527f214572723a2046756e64696e6720476f616c206e6f7420656e6f756768000000604482015260640162000082565b60408101516000546001600160401b0391821691620003009161010090041662093a8062000aa0565b6001600160401b03161115620003595760405162461bcd60e51b815260206004820152601b60248201527f214572723a20646561646c696e654461746520746f2073686f72740000000000604482015260640162000082565b805180516200037191600491602090910190620005de565b5060208082015180516200038a926005920190620005de565b506060810151600680546040909301516001600160401b03166001600160401b03196001600160801b039093166801000000000000000002929092166001600160c01b031990931692909217179055565b805151620004205760405162461bcd60e51b8152602060048201526011602482015270214572723a205469746c6520656d70747960781b604482015260640162000082565b600081602001515111620004775760405162461bcd60e51b815260206004820152601760248201527f214572723a204465736372697074696f6e20656d707479000000000000000000604482015260640162000082565b6040805160e081018252606080825260208083018281526000848601818152848601828152608080880184815260a0808a0186815260c08b018790528c518b528c8901519097528b01516001600160801b03169095529589015161ffff169052938701516001600160401b031690915285850151151590925260ff86168252600781529290208151805192938493620005149284920190620005de565b5060208281015180516200052f9260018501920190620005de565b5060408201516002820180546060850151608086015160a087015162ffffff1990931694151562ffff0019169490941761010061ffff90921691909102176301000000600160d81b03191663010000006001600160401b0390941693909302600160581b600160d81b031916929092176b0100000000000000000000006001600160801b039384160217905560c090920151600390910180546001600160801b03191691909216179055505050565b828054620005ec9062000ace565b90600052602060002090601f0160209004810192826200061057600085556200065b565b82601f106200062b57805160ff19168380011785556200065b565b828001600101855582156200065b579182015b828111156200065b5782518255916020019190600101906200063e565b50620006699291506200066d565b5090565b5b808211156200066957600081556001016200066e565b80516001600160a01b03811681146200069c57600080fd5b919050565b600082601f830112620006b357600080fd5b815160206001600160401b0380831115620006d257620006d262000b5a565b8260051b620006e383820162000a6d565b8481528381019087850183890186018a1015620006ff57600080fd5b600093505b8684101562000805578051858111156200071d57600080fd5b890160e0818c03601f19018113156200073557600080fd5b6200073f62000a1d565b88830151888111156200075157600080fd5b620007618e8b8387010162000823565b825250604080840151898111156200077857600080fd5b620007888f8c8388010162000823565b8b8401525060606200079c81860162000812565b8284015260809150620007b1828601620008d0565b9083015260a0620007c4858201620008e3565b8284015260c09150620007d9828601620008b8565b90830152620007ea848401620008b8565b90820152855250506001939093019291850191850162000704565b5098975050505050505050565b805180151581146200069c57600080fd5b600082601f8301126200083557600080fd5b81516001600160401b0381111562000851576200085162000b5a565b602062000867601f8301601f1916820162000a6d565b82815285828487010111156200087c57600080fd5b60005b838110156200089c5785810183015182820184015282016200087f565b83811115620008ae5760008385840101525b5095945050505050565b80516001600160801b03811681146200069c57600080fd5b805161ffff811681146200069c57600080fd5b80516001600160401b03811681146200069c57600080fd5b600080600080600060a086880312156200091457600080fd5b85516001600160401b03808211156200092c57600080fd5b908701906080828a0312156200094157600080fd5b6200094b62000a48565b8251828111156200095b57600080fd5b620009698b82860162000823565b8252506020830151828111156200097f57600080fd5b6200098d8b82860162000823565b602083015250620009a160408401620008e3565b6040820152620009b460608401620008b8565b60608201526020890151909750915080821115620009d157600080fd5b50620009e088828901620006a1565b945050620009f16040870162000684565b925062000a016060870162000684565b915062000a116080870162000684565b90509295509295909350565b60405160e081016001600160401b038111828210171562000a425762000a4262000b5a565b60405290565b604051608081016001600160401b038111828210171562000a425762000a4262000b5a565b604051601f8201601f191681016001600160401b038111828210171562000a985762000a9862000b5a565b604052919050565b60006001600160401b0382811684821680830382111562000ac55762000ac562000b2e565b01949350505050565b600181811c9082168062000ae357607f821691505b6020821081141562000b0557634e487b7160e01b600052602260045260246000fd5b50919050565b600060ff821660ff81141562000b255762000b2562000b2e565b60010192915050565b634e487b7160e01b600052601160045260246000fd5b634e487b7160e01b600052603260045260246000fd5b634e487b7160e01b600052604160045260246000fd5b60805160601c60a05160601c61474462000bc66000396000818161044401526107290152600081816101e60152818161047e015281816105710152818161077f01528181610ba2015261131e01526147446000f3fe60806040523480156200001157600080fd5b5060043610620001915760003560e01c80636d2ffd8511620000f0578063c5c4744c11620000a3578063d0a5d845116200007a578063d0a5d84514620003f2578063d6290cd71462000409578063e21641b81462000427578063e42a96e7146200043e57600080fd5b8063c5c4744c14620003a9578063c97c579414620003c4578063cd3fea1414620003db57600080fd5b80636d2ffd851462000302578063753ec10314620003195780637ef59f84146200032d57806392b4208d1462000337578063bf1d4cad1462000363578063c45a0155146200039557600080fd5b8063244c3c2c1162000149578063244c3c2c1462000266578063287af43214620002705780633489eae1146200029c578063481c6a7514620002cd57806358aba00f14620002e1578063590e1ae314620002f857600080fd5b80622772c214620001965780630a2d00d314620001bd5780630d4c4a2f14620001d657806311eac85514620001e0578063200d2ed21462000221578063205b09141462000245575b600080fd5b620001a062000466565b6040516001600160801b0390911681526020015b60405180910390f35b620001d4620001ce366004620026a5565b62000509565b005b620001d4620005a7565b620002087f000000000000000000000000000000000000000000000000000000000000000081565b6040516001600160a01b039091168152602001620001b4565b6003546200023690600160a01b900460ff1681565b604051620001b49190620027c8565b600054620002539060ff1681565b60405160ff9091168152602001620001b4565b620001d46200082c565b620001a06200028136600462002513565b6009602052600090815260409020546001600160801b031681565b62000253620002ad3660046200272a565b600860209081526000928352604080842090915290825290205460ff1681565b60015462000208906001600160a01b031681565b620001d4620002f236600462002513565b620009cd565b620001d462000a1c565b620001d46200031336600462002652565b62000bd2565b60035462000208906001600160a01b031681565b620001d462000ced565b6200034e620003483660046200270c565b62000e37565b604051620001b49796959493929190620027f3565b6000546200037c9061010090046001600160401b031681565b6040516001600160401b039091168152602001620001b4565b60025462000208906001600160a01b031681565b600054620001a090600160481b90046001600160801b031681565b620001d4620003d536600462002612565b62000fb2565b620001d4620003ec36600462002551565b620010ac565b620001d462000403366004620026c3565b62001172565b620004136200151d565b604051620001b496959493929190620028f0565b620001d4620004383660046200270c565b62001752565b620002087f000000000000000000000000000000000000000000000000000000000000000081565b6040516370a0823160e01b81523060048201526000907f00000000000000000000000000000000000000000000000000000000000000006001600160a01b0316906370a082319060240160206040518083038186803b158015620004c957600080fd5b505afa158015620004de573d6000803e3d6000fd5b505050506040513d601f19601f82011682018060405250810190620005049190620026f2565b905090565b6003546001600160a01b031633146200055f5760405162461bcd60e51b815260206004820152601360248201527208515c9c8e881058d8d95cdcc819195b9a5959606a1b60448201526064015b60405180910390fd5b600154620005a4906001600160a01b037f0000000000000000000000000000000000000000000000000000000000000000811691166001600160801b03841662001a4f565b50565b6001546001600160a01b03163314620005d45760405162461bcd60e51b8152600401620005569062002860565b6005600354600160a01b900460ff166005811115620005f757620005f762002c00565b1415620006185760405162461bcd60e51b81526004016200055690620028c0565b600354600160a01b900460ff166002808260058111156200063d576200063d62002c00565b146200065d5760405162461bcd60e51b8152600401620005569062002889565b6003546001600160a01b031615620006b85760405162461bcd60e51b815260206004820152601f60248201527f214572723a2070726f706f73616c20616c7265616479206465706c6f79656400604482015260640162000556565b6006546001600160401b031642116200071f5760405162461bcd60e51b815260206004820152602260248201527f214572723a2063616d706169676e20646561646c696e65206e6f742070617373604482015261195960f21b606482015260840162000556565b600054620007b0907f0000000000000000000000000000000000000000000000000000000000000000906064906200076990600160481b90046001600160801b0316600562002ab8565b62000775919062002a83565b6001600160a01b037f00000000000000000000000000000000000000000000000000000000000000001691906001600160801b031662001a4f565b60015460405160009130916001600160a01b0390911690620007d290620021b8565b6001600160a01b03928316815291166020820152604001604051809103906000f08015801562000806573d6000803e3d6000fd5b50600380546001600160a01b0319166001600160a01b0392909216919091179055505050565b6005600354600160a01b900460ff1660058111156200084f576200084f62002c00565b1415620008705760405162461bcd60e51b81526004016200055690620028c0565b6001546001600160a01b031633146200089d5760405162461bcd60e51b8152600401620005569062002860565b6000600354600160a01b900460ff166005811115620008c057620008c062002c00565b1480620008ec575060038054600160a01b900460ff166005811115620008ea57620008ea62002c00565b145b806200091857506004600354600160a01b900460ff16600581111562000916576200091662002c00565b145b620009375760405162461bcd60e51b8152600401620005569062002889565b6003805460ff60a01b1916600560a01b179055600254604080516309130f0b60e21b815290516001600160a01b039092169163244c3c2c916004808201926020929091908290030181600087803b1580156200099257600080fd5b505af1158015620009a7573d6000803e3d6000fd5b505050506040513d601f19601f82011682018060405250810190620005a4919062002531565b6001546001600160a01b03163314620009fa5760405162461bcd60e51b8152600401620005569062002860565b600180546001600160a01b0319166001600160a01b0392909216919091179055565b6006546001600160401b03164211801562000a495750600062000a3e62000466565b6001600160801b0316115b62000a975760405162461bcd60e51b815260206004820152601860248201527f214572723a20636f6e646974696f6e73206e6f74206d65740000000000000000604482015260640162000556565b6001600354600160a01b900460ff16600581111562000aba5762000aba62002c00565b148062000ae6575060038054600160a01b900460ff16600581111562000ae45762000ae462002c00565b145b62000b345760405162461bcd60e51b815260206004820152601a60248201527f214572723a2077726f6e6720776f726b666c6f77737461747573000000000000604482015260640162000556565b6001600354600160a01b900460ff16600581111562000b575762000b5762002c00565b141562000b72576003805460ff60a01b1916600360a01b1790555b33600081815260096020526040902080546001600160801b031981169091556001600160801b031690620005a4907f00000000000000000000000000000000000000000000000000000000000000006001600160a01b0316908362001a4f565b6005600354600160a01b900460ff16600581111562000bf55762000bf562002c00565b141562000c165760405162461bcd60e51b81526004016200055690620028c0565b6001546001600160a01b0316331462000c435760405162461bcd60e51b8152600401620005569062002860565b600354600160a01b900460ff1660008082600581111562000c685762000c6862002c00565b1462000c885760405162461bcd60e51b8152600401620005569062002889565b60005460ff908116908416111562000cdb5760405162461bcd60e51b815260206004820152601560248201527408515c9c8e88125b99195e081b9bdd08195e1a5cdd605a1b604482015260640162000556565b62000ce7838562001ab4565b50505050565b6005600354600160a01b900460ff16600581111562000d105762000d1062002c00565b141562000d315760405162461bcd60e51b81526004016200055690620028c0565b6001546001600160a01b0316331462000d5e5760405162461bcd60e51b8152600401620005569062002860565b600354600160a01b900460ff1660008082600581111562000d835762000d8362002c00565b1462000da35760405162461bcd60e51b8152600401620005569062002889565b60065460009062000dc29062093a80906001600160401b031662002aea565b6001600160401b031690504281101562000e1f5760405162461bcd60e51b815260206004820152601b60248201527f214572723a20646561646c696e654461746520746f2073686f72740000000000604482015260640162000556565b50506003805460ff60a01b1916600160a01b17905550565b60076020526000908152604090208054819062000e549062002b8a565b80601f016020809104026020016040519081016040528092919081815260200182805462000e829062002b8a565b801562000ed35780601f1062000ea75761010080835404028352916020019162000ed3565b820191906000526020600020905b81548152906001019060200180831162000eb557829003601f168201915b50505050509080600101805462000eea9062002b8a565b80601f016020809104026020016040519081016040528092919081815260200182805462000f189062002b8a565b801562000f695780601f1062000f3d5761010080835404028352916020019162000f69565b820191906000526020600020905b81548152906001019060200180831162000f4b57829003601f168201915b5050506002840154600390940154929360ff81169361ffff61010083041693506001600160401b03630100000083041692506001600160801b03600160581b9092048216911687565b6005600354600160a01b900460ff16600581111562000fd55762000fd562002c00565b141562000ff65760405162461bcd60e51b81526004016200055690620028c0565b6001546001600160a01b03163314620010235760405162461bcd60e51b8152600401620005569062002860565b600354600160a01b900460ff1660008082600581111562001048576200104862002c00565b14620010685760405162461bcd60e51b8152600401620005569062002889565b6000546200107a9060ff168462001ab4565b6000805460ff1690806200108e8362002bc7565b91906101000a81548160ff021916908360ff16021790555050505050565b6005600354600160a01b900460ff166005811115620010cf57620010cf62002c00565b1415620010f05760405162461bcd60e51b81526004016200055690620028c0565b6001546001600160a01b031633146200111d5760405162461bcd60e51b8152600401620005569062002860565b600354600160a01b900460ff1660008082600581111562001142576200114262002c00565b14620011625760405162461bcd60e51b8152600401620005569062002889565b6200116d8362001ca9565b505050565b6005600354600160a01b900460ff16600581111562001195576200119562002c00565b1415620011b65760405162461bcd60e51b81526004016200055690620028c0565b6006546001600160401b03164210620012215760405162461bcd60e51b815260206004820152602660248201527f21457272203a2043616d706169676e20636f6e747269627574696f6e2068617360448201526508195b99195960d21b606482015260840162000556565b6000600354600160a01b900460ff16600581111562001244576200124462002c00565b1415801562001273575060038054600160a01b900460ff16600581111562001270576200127062002c00565b14155b8015620012a157506004600354600160a01b900460ff1660058111156200129e576200129e62002c00565b14155b620012c05760405162461bcd60e51b8152600401620005569062002889565b620012cb8162001ea7565b620013105760405162461bcd60e51b815260206004820152601460248201527308515c9c8e881b9bc81b5bdc99481c995dd85c9960621b604482015260640162000556565b620013506001600160a01b037f00000000000000000000000000000000000000000000000000000000000000001633306001600160801b03861662001f1a565b33600090815260096020526040902054620013769083906001600160801b031662002a08565b33600081815260096020908152604080832080546001600160801b0319166001600160801b03969096169590951790945560ff8581168352600882528483209383529290529190912054620013ce9116600162002a5b565b60ff82811660008181526008602090815260408083203384528252808320805460ff19169690951695909517909355908152600790915220600201546200142790630100000090046001600160401b0316600162002a36565b60ff821660009081526007602052604090206002810180546001600160401b03939093166301000000026affffffffffffffff000000199093169290921790915560030154620014829083906001600160801b031662002a08565b60ff8216600090815260076020526040902060030180546001600160801b0319166001600160801b03928316179055600654600160401b900416620014c662000466565b6001600160801b03161062001519576003805460ff60a01b1916600160a11b179055620014f262000466565b600060096101000a8154816001600160801b0302191690836001600160801b031602179055505b5050565b6040805160808101825260608082526020820181905260009282018390528101919091526000808080806005600354600160a01b900460ff1660058111156200156a576200156a62002c00565b14156200158b5760405162461bcd60e51b81526004016200055690620028c0565b600054600154600354604080516080810190915260048054909461010081046001600160401b0316946001600160a01b0390811694600160a01b810460ff1694600160481b9093046001600160801b03169391169190879082908290620015f29062002b8a565b80601f0160208091040260200160405190810160405280929190818152602001828054620016209062002b8a565b8015620016715780601f10620016455761010080835404028352916020019162001671565b820191906000526020600020905b8154815290600101906020018083116200165357829003601f168201915b505050505081526020016001820180546200168c9062002b8a565b80601f0160208091040260200160405190810160405280929190818152602001828054620016ba9062002b8a565b80156200170b5780601f10620016df576101008083540402835291602001916200170b565b820191906000526020600020905b815481529060010190602001808311620016ed57829003601f168201915b5050509183525050600291909101546001600160401b0381166020830152600160401b90046001600160801b03166040909101529c949b5092995090975095509350915050565b6005600354600160a01b900460ff16600581111562001775576200177562002c00565b1415620017965760405162461bcd60e51b81526004016200055690620028c0565b6001546001600160a01b03163314620017c35760405162461bcd60e51b8152600401620005569062002860565b600354600160a01b900460ff16600080826005811115620017e857620017e862002c00565b14620018085760405162461bcd60e51b8152600401620005569062002889565b60005460ff908116908416106200185a5760405162461bcd60e51b815260206004820152601560248201527408515c9c8e88125b99195e081b9bdd08195e1a5cdd605a1b604482015260640162000556565b60005460ff8085169162001872916001911662002b15565b60ff1614620019cc576000805460079190620018949060019060ff1662002b15565b60ff908116825260208083019390935260409182016000908120918716815260079093529120815481908390620018cb9062002b8a565b620018d8929190620021c6565b506001820181600101908054620018ef9062002b8a565b620018fc929190620021c6565b5060028281018054918301805460ff909316151560ff19841681178255825461ffff61010091829004160262ffff001990911662ffffff19909416939093179290921780835581546001600160401b0363010000009182900416026affffffffffffffff0000001982168117845591546001600160801b03600160581b918290048116909102600160581b600160d81b03199093166301000000600160d81b031990921691909117919091179091556003928301549290910180546001600160801b031916929091169190911790555b6000805460079190620019e59060019060ff1662002b15565b60ff168152602081019190915260400160009081209062001a0782826200225c565b62001a176001830160006200225c565b506002810180546001600160d81b031916905560030180546001600160801b03191690556000805460ff1690806200108e8362002b6a565b6040516001600160a01b0383166024820152604481018290526200116d90849063a9059cbb60e01b906064015b60408051601f198184030181529190526020810180516001600160e01b03166001600160e01b03199093169290921790915262001f54565b80515162001af95760405162461bcd60e51b8152602060048201526011602482015270214572723a205469746c6520656d70747960781b604482015260640162000556565b60008160200151511162001b4a5760405162461bcd60e51b8152602060048201526017602482015276214572723a204465736372697074696f6e20656d70747960481b604482015260640162000556565b6040805160e081018252606080825260208083018281526000848601818152848601828152608080880184815260a0808a0186815260c08b018790528c518b528c8901519097528b01516001600160801b03169095529589015161ffff169052938701516001600160401b031690915285850151151590925260ff8616825260078152929020815180519293849362001be792849201906200229b565b50602082810151805162001c0292600185019201906200229b565b5060408201516002820180546060850151608086015160a087015162ffffff1990931694151562ffff0019169490941761010061ffff90921691909102176301000000600160d81b03191663010000006001600160401b0390941693909302600160581b600160d81b03191692909217600160581b6001600160801b039384160217905560c090920151600390910180546001600160801b03191691909216179055505050565b80515162001cee5760405162461bcd60e51b8152602060048201526011602482015270214572723a205469746c6520656d70747960781b604482015260640162000556565b60008160200151511162001d3f5760405162461bcd60e51b8152602060048201526017602482015276214572723a204465736372697074696f6e20656d70747960481b604482015260640162000556565b683635c9adc5dea0000081606001516001600160801b0316101562001da75760405162461bcd60e51b815260206004820152601d60248201527f214572723a2046756e64696e6720476f616c206e6f7420656e6f756768000000604482015260640162000556565b60408101516000546001600160401b039182169162001dd09161010090041662093a8062002a36565b6001600160401b0316111562001e295760405162461bcd60e51b815260206004820152601b60248201527f214572723a20646561646c696e654461746520746f2073686f72740000000000604482015260640162000556565b8051805162001e41916004916020909101906200229b565b50602080820151805162001e5a9260059201906200229b565b506060810151600680546040909301516001600160401b031667ffffffffffffffff196001600160801b03909316600160401b02929092166001600160c01b031990931692909217179055565b60ff80821660009081526007602052604081206002015490911662001ece57506001919050565b60ff8216600090815260076020526040902060020154630100000081046001600160401b031661010090910461ffff16111562001f0d57506001919050565b506000919050565b919050565b6040516001600160a01b038085166024830152831660448201526064810182905262000ce79085906323b872dd60e01b9060840162001a7c565b600062001fab826040518060400160405280602081526020017f5361666545524332303a206c6f772d6c6576656c2063616c6c206661696c6564815250856001600160a01b03166200202d9092919063ffffffff16565b8051909150156200116d578080602001905181019062001fcc919062002531565b6200116d5760405162461bcd60e51b815260206004820152602a60248201527f5361666545524332303a204552433230206f7065726174696f6e20646964206e6044820152691bdd081cdd58d8d9595960b21b606482015260840162000556565b60606200203e848460008562002048565b90505b9392505050565b606082471015620020ab5760405162461bcd60e51b815260206004820152602660248201527f416464726573733a20696e73756666696369656e742062616c616e636520666f6044820152651c8818d85b1b60d21b606482015260840162000556565b843b620020fb5760405162461bcd60e51b815260206004820152601d60248201527f416464726573733a2063616c6c20746f206e6f6e2d636f6e7472616374000000604482015260640162000556565b600080866001600160a01b03168587604051620021199190620027aa565b60006040518083038185875af1925050503d806000811462002158576040519150601f19603f3d011682016040523d82523d6000602084013e6200215d565b606091505b50915091506200216f8282866200217a565b979650505050505050565b606083156200218b57508162002041565b8251156200219c5782518084602001fd5b8160405162461bcd60e51b8152600401620005569190620027de565b611ad38062002c3c83390190565b828054620021d49062002b8a565b90600052602060002090601f016020900481019282620021f857600085556200224a565b82601f106200220b57805485556200224a565b828001600101855582156200224a57600052602060002091601f016020900482015b828111156200224a5782548255916001019190600101906200222d565b506200225892915062002318565b5090565b5080546200226a9062002b8a565b6000825580601f106200227b575050565b601f016020900490600052602060002090810190620005a4919062002318565b828054620022a99062002b8a565b90600052602060002090601f016020900481019282620022cd57600085556200224a565b82601f10620022e857805160ff19168380011785556200224a565b828001600101855582156200224a579182015b828111156200224a578251825591602001919060010190620022fb565b5b8082111562002258576000815560010162002319565b80356001600160a01b038116811462001f1557600080fd5b803562001f158162002c2c565b600082601f8301126200236657600080fd5b81356001600160401b038082111562002383576200238362002c16565b604051601f8301601f19908116603f01168101908282118183101715620023ae57620023ae62002c16565b81604052838152866020858801011115620023c857600080fd5b836020870160208301376000602085830101528094505050505092915050565b600060e08284031215620023fb57600080fd5b62002405620029b8565b905081356001600160401b03808211156200241f57600080fd5b6200242d8583860162002354565b835260208401359150808211156200244457600080fd5b50620024538482850162002354565b602083015250620024676040830162002347565b60408201526200247a60608301620024d6565b60608201526200248d60808301620024e9565b6080820152620024a060a08301620024be565b60a0820152620024b360c08301620024be565b60c082015292915050565b80356001600160801b038116811462001f1557600080fd5b803561ffff8116811462001f1557600080fd5b80356001600160401b038116811462001f1557600080fd5b803560ff8116811462001f1557600080fd5b6000602082840312156200252657600080fd5b62002041826200232f565b6000602082840312156200254457600080fd5b8151620020418162002c2c565b6000602082840312156200256457600080fd5b81356001600160401b03808211156200257c57600080fd5b90830190608082860312156200259157600080fd5b6200259b620029e3565b823582811115620025ab57600080fd5b620025b98782860162002354565b825250602083013582811115620025cf57600080fd5b620025dd8782860162002354565b602083015250620025f160408401620024e9565b60408201526200260460608401620024be565b606082015295945050505050565b6000602082840312156200262557600080fd5b81356001600160401b038111156200263c57600080fd5b6200264a84828501620023e8565b949350505050565b600080604083850312156200266657600080fd5b82356001600160401b038111156200267d57600080fd5b6200268b85828601620023e8565b9250506200269c6020840162002501565b90509250929050565b600060208284031215620026b857600080fd5b6200204182620024be565b60008060408385031215620026d757600080fd5b620026e283620024be565b91506200269c6020840162002501565b6000602082840312156200270557600080fd5b5051919050565b6000602082840312156200271f57600080fd5b620020418262002501565b600080604083850312156200273e57600080fd5b620027498362002501565b91506200269c602084016200232f565b600681106200277857634e487b7160e01b600052602160045260246000fd5b9052565b600081518084526200279681602086016020860162002b3b565b601f01601f19169290920160200192915050565b60008251620027be81846020870162002b3b565b9190910192915050565b60208101620027d8828462002759565b92915050565b6020815260006200204160208301846200277c565b60e0815260006200280860e083018a6200277c565b82810360208401526200281c818a6200277c565b9715156040840152505061ffff9490941660608501526001600160401b039290921660808401526001600160801b0390811660a08401521660c09091015292915050565b6020808252600f908201526e08539bdd08105d5d1a1bdc9a5e9959608a1b604082015260600190565b6020808252601c908201527f21457272203a2057726f6e6720776f726b666c6f772073746174757300000000604082015260600190565b60208082526016908201527508515c9c8e8810d85b5c185a59db8811195b195d195960521b604082015260600190565b60c0815260008751608060c08401526200290f6101408401826200277c565b9050602089015160bf198483030160e08501526200292e82826200277c565b60408b01516001600160401b031661010086015260608b01516001600160801b031661012086015292506200297191505060208301886001600160401b03169052565b6001600160a01b03861660408301526200298f606083018662002759565b6001600160801b03841660808301526001600160a01b03831660a0830152979650505050505050565b60405160e081016001600160401b0381118282101715620029dd57620029dd62002c16565b60405290565b604051608081016001600160401b0381118282101715620029dd57620029dd62002c16565b60006001600160801b0380831681851680830382111562002a2d5762002a2d62002bea565b01949350505050565b60006001600160401b0380831681851680830382111562002a2d5762002a2d62002bea565b600060ff821660ff84168060ff0382111562002a7b5762002a7b62002bea565b019392505050565b60006001600160801b038084168062002aac57634e487b7160e01b600052601260045260246000fd5b92169190910492915050565b60006001600160801b038083168185168183048111821515161562002ae15762002ae162002bea565b02949350505050565b60006001600160401b038381169083168181101562002b0d5762002b0d62002bea565b039392505050565b600060ff821660ff84168082101562002b325762002b3262002bea565b90039392505050565b60005b8381101562002b5857818101518382015260200162002b3e565b8381111562000ce75750506000910152565b600060ff82168062002b805762002b8062002bea565b6000190192915050565b600181811c9082168062002b9f57607f821691505b6020821081141562002bc157634e487b7160e01b600052602260045260246000fd5b50919050565b600060ff821660ff81141562002be15762002be162002bea565b60010192915050565b634e487b7160e01b600052601160045260246000fd5b634e487b7160e01b600052602160045260246000fd5b634e487b7160e01b600052604160045260246000fd5b8015158114620005a457600080fdfe60a06040523480156200001157600080fd5b5060405162001ad338038062001ad3833981016040819052620000349162000157565b606082901b6001600160601b031916608052600280546001600160a01b038085166001600160a01b031992831617909255600180549091169183169190911790556200007f620000ad565b600060026101000a8154816001600160801b0302191690836001600160801b031602179055505050620001c1565b600254604080516213b96160e11b815290516000926001600160a01b031691622772c2916004808301926020929190829003018186803b158015620000f157600080fd5b505afa15801562000106573d6000803e3d6000fd5b505050506040513d601f19601f820116820180604052508101906200012c91906200018f565b6001600160801b0316905090565b80516001600160a01b03811681146200015257600080fd5b919050565b600080604083850312156200016b57600080fd5b62000176836200013a565b915062000186602084016200013a565b90509250929050565b600060208284031215620001a257600080fd5b81516001600160801b0381168114620001ba57600080fd5b9392505050565b60805160601c6118f3620001e0600039600061012601526118f36000f3fe608060405234801561001057600080fd5b50600436106100cf5760003560e01c806346fcff4c1161008c578063aeb6933b11610066578063aeb6933b14610204578063ebed467014610228578063fb5e76e614610235578063fe48e8b11461024857600080fd5b806346fcff4c146101ad5780635ba41256146101de5780635cbd4d05146101f157600080fd5b806305f86040146100d457806309eef43e146100e957806311765b27146101215780631586af7414610160578063216869451461018757806334bdcdd71461019a575b600080fd5b6100e76100e23660046115c7565b61025b565b005b61010c6100f7366004611502565b60056020526000908152604090205460ff1681565b60405190151581526020015b60405180910390f35b6101487f000000000000000000000000000000000000000000000000000000000000000081565b6040516001600160a01b039091168152602001610118565b61017361016e3660046115c7565b61034a565b60405161011898979695949392919061166b565b6100e76101953660046115c7565b6104c0565b6100e76101a83660046115c7565b610826565b6000546101c6906201000090046001600160801b031681565b6040516001600160801b039091168152602001610118565b6101736101ec3660046115c7565b610b74565b6100e76101ff366004611532565b610b8f565b60005461021690610100900460ff1681565b60405160ff9091168152602001610118565b6000546102169060ff1681565b600154610148906001600160a01b031681565b6100e76102563660046115e2565b610fb6565b6001546001600160a01b0316331461028e5760405162461bcd60e51b815260040161028590611735565b60405180910390fd5b8060018060ff8084166000908152600360205260409020600490810154909116908111156102be576102be61187c565b146102db5760405162461bcd60e51b8152600401610285906116fe565b60ff83166000908152600360205260409020600401805460ff191660021790556103084262093a8061178b565b60ff9093166000908152600360205260409020600201805467ffffffffffffffff949094166101000268ffffffffffffffff0019909416939093179092555050565b6004602052600090815260409020805481906103659061180b565b80601f01602080910402602001604051908101604052809291908181526020018280546103919061180b565b80156103de5780601f106103b3576101008083540402835291602001916103de565b820191906000526020600020905b8154815290600101906020018083116103c157829003601f168201915b5050505050908060010180546103f39061180b565b80601f016020809104026020016040519081016040528092919081815260200182805461041f9061180b565b801561046c5780601f106104415761010080835404028352916020019161046c565b820191906000526020600020905b81548152906001019060200180831161044f57829003601f168201915b50505060028401546003850154600490950154939460ff8083169567ffffffffffffffff61010085041695506001600160801b03600160481b9094048416945082841693600160801b909304909216911688565b8060028060ff8084166000908152600360205260409020600490810154909116908111156104f0576104f061187c565b1461050d5760405162461bcd60e51b8152600401610285906116fe565b60ff8316600090815260036020526040902060020154610100900467ffffffffffffffff1642116105805760405162461bcd60e51b815260206004820152601a60248201527f214572723a20566f74696e67207374696c6c206f6e676f696e670000000000006044820152606401610285565b60ff831660009081526003602081905260409091206004808201805460ff1916909117905501546001600160801b03600160801b8204811691161115610664576002805460ff851660009081526003602052604090819020909201549151630a2d00d360e01b8152600160481b9092046001600160801b031660048301526001600160a01b031690630a2d00d390602401600060405180830381600087803b15801561062b57600080fd5b505af115801561063f573d6000803e3d6000fd5b50505060ff84166000908152600360205260409020600201805460ff19166001179055505b60ff8316600090815260036020908152604080832060049092529091208154819083906106909061180b565b61069b92919061130e565b5060018201816001019080546106b09061180b565b6106bb92919061130e565b5060028281018054918301805460ff938416151560ff1980831682178455845467ffffffffffffffff61010091829004160268ffffffffffffffff001990921668ffffffffffffffffff19909316929092171780835592546001600160801b03600160481b918290048116909102600160481b600160c81b0319909416939093179091556003808601805491860180546001600160801b03191692851692831781559054600160801b90819004909416909302179091556004808501548185018054919094169392169060019084908111156107995761079961187c565b02179055505060008054610100900460ff16915060016107b883611846565b82546101009290920a60ff8181021990931691831602179091558416600090815260036020526040812091506107ee8282611399565b6107fc600183016000611399565b506002810180546001600160c81b031916905560006003820155600401805460ff19169055505050565b6001546001600160a01b031633146108505760405162461bcd60e51b815260040161028590611735565b8060018060ff8084166000908152600360205260409020600490810154909116908111156108805761088061187c565b1461089d5760405162461bcd60e51b8152600401610285906116fe565b60ff831660009081526003602052604081206002015490546108d8916001600160801b03600160481b90910481169162010000900416611760565b600080546001600160801b0392909216620100000271ffffffffffffffffffffffffffffffff0000198316811790915561091c9160019160ff9081169116176117cb565b60ff168360ff16141561097e5760ff83166000908152600360205260408120906109468282611399565b610954600183016000611399565b506002810180546001600160c81b031916905560006003820155600401805460ff19169055610b44565b60008054600391906109959060019060ff166117cb565b60ff9081168252602080830193909352604091820160009081209187168152600390935291208154819083906109ca9061180b565b6109d592919061130e565b5060018201816001019080546109ea9061180b565b6109f592919061130e565b5060028281018054918301805460ff938416151560ff1980831682178455845467ffffffffffffffff61010091829004160268ffffffffffffffff001990921668ffffffffffffffffff19909316929092171780835592546001600160801b03600160481b918290048116909102600160481b600160c81b0319909416939093179091556003808601805491860180546001600160801b03191692851692831781559054600160801b9081900490941690930217909155600480850154818501805491909416939216906001908490811115610ad357610ad361187c565b0217905550506000805460039250610af09060019060ff166117cb565b60ff1681526020810191909152604001600090812090610b108282611399565b610b1e600183016000611399565b506002810180546001600160c81b031916905560006003820155600401805460ff191690555b6000805460ff169080610b56836117ee565b91906101000a81548160ff021916908360ff16021790555050505050565b6003602052600090815260409020805481906103659061180b565b6001546001600160a01b03163314610bb95760405162461bcd60e51b815260040161028590611735565b6000805460ff90811680835260036020526040832060049081015491939283921690811115610bea57610bea61187c565b14610c075760405162461bcd60e51b8152600401610285906116fe565b600054600560ff90911610610c6f5760405162461bcd60e51b815260206004820152602860248201527f214572723a204d6178696d756d20616d6f756e74206f662070726f706f73616c604482015267081c995858da195960c21b6064820152608401610285565b6000855111610cb45760405162461bcd60e51b8152602060048201526011602482015270214572723a205469746c6520656d70747960781b6044820152606401610285565b6000845111610d055760405162461bcd60e51b815260206004820152601760248201527f214572723a204465736372697074696f6e20656d7074790000000000000000006044820152606401610285565b68056bc75e2d63100000836001600160801b031611610d5d5760405162461bcd60e51b8152602060048201526014602482015273214572723a20416d6f756e7420746f6f206c6f7760601b6044820152606401610285565b6000546001600160801b036201000090910481169084161115610dde5760405162461bcd60e51b815260206004820152603360248201527f214572723a2050726f706f73616c20616d6f756e7420657863656564732063616044820152726d706169676e20555344432062616c616e636560681b6064820152608401610285565b610e236040805161010081018252606080825260208201819052600092820183905281018290526080810182905260a0810182905260c081018290529060e082015290565b85815260208082018690526001600160801b0385166080830152600160e08301526000805460ff1681526003825260409020825180518493610e699284929101906113d6565b506020828101518051610e8292600185019201906113d6565b506040820151600282018054606085015160808601516001600160801b03908116600160481b02600160481b600160c81b031967ffffffffffffffff9093166101000268ffffffffffffffff00199615159690961668ffffffffffffffffff1990941693909317949094171617905560a083015160c08401518216600160801b02911617600382015560e082015160048083018054909160ff1991909116906001908490811115610f3557610f3561187c565b0217905550506000805460ff16915080610f4e83611846565b91906101000a81548160ff021916908360ff1602179055505083600060029054906101000a90046001600160801b0316610f8891906117a3565b600060026101000a8154816001600160801b0302191690836001600160801b03160217905550505050505050565b8160028060ff808416600090815260036020526040902060049081015490911690811115610fe657610fe661187c565b146110035760405162461bcd60e51b8152600401610285906116fe565b60ff84166000908152600360205260409020600201548490610100900467ffffffffffffffff1642106110785760405162461bcd60e51b815260206004820152601f60248201527f214572723a2070726f706f73616c20766f74696e672068617320656e646564006044820152606401610285565b60025460405163143d7a1960e11b81523360048201526000916001600160a01b03169063287af4329060240160206040518083038186803b1580156110bc57600080fd5b505afa1580156110d0573d6000803e3d6000fd5b505050506040513d601f19601f820116820180604052508101906110f491906115aa565b6001600160801b03161161114a5760405162461bcd60e51b815260206004820152601760248201527f214572723a206e6f74206120636f6e7472696275746f720000000000000000006044820152606401610285565b3360009081526005602052604090205460ff16156111a05760405162461bcd60e51b815260206004820152601360248201527208515c9c8e88105b1c9958591e481d9bdd1959606a1b6044820152606401610285565b60025460405163143d7a1960e11b81523360048201526000916001600160a01b03169063287af4329060240160206040518083038186803b1580156111e457600080fd5b505afa1580156111f8573d6000803e3d6000fd5b505050506040513d601f19601f8201168201806040525081019061121c91906115aa565b905084156112885760ff86166000908152600360208190526040909120015461124f9082906001600160801b0316611760565b60ff871660009081526003602081905260409091200180546001600160801b0319166001600160801b03929092169190911790556112ec565b60ff8616600090815260036020819052604090912001546112ba908290600160801b90046001600160801b0316611760565b60ff871660009081526003602081905260409091200180546001600160801b03928316600160801b0292169190911790555b5050336000908152600560205260409020805460ff1916600117905550505050565b82805461131a9061180b565b90600052602060002090601f01602090048101928261133c5760008555611389565b82601f1061134d5780548555611389565b8280016001018555821561138957600052602060002091601f016020900482015b8281111561138957825482559160010191906001019061136e565b5061139592915061144a565b5090565b5080546113a59061180b565b6000825580601f106113b5575050565b601f0160209004906000526020600020908101906113d3919061144a565b50565b8280546113e29061180b565b90600052602060002090601f0160209004810192826114045760008555611389565b82601f1061141d57805160ff1916838001178555611389565b82800160010185558215611389579182015b8281111561138957825182559160200191906001019061142f565b5b80821115611395576000815560010161144b565b600082601f83011261147057600080fd5b813567ffffffffffffffff8082111561148b5761148b611892565b604051601f8301601f19908116603f011681019082821181831017156114b3576114b3611892565b816040528381528660208588010111156114cc57600080fd5b836020870160208301376000602085830101528094505050505092915050565b803560ff811681146114fd57600080fd5b919050565b60006020828403121561151457600080fd5b81356001600160a01b038116811461152b57600080fd5b9392505050565b60008060006060848603121561154757600080fd5b833567ffffffffffffffff8082111561155f57600080fd5b61156b8783880161145f565b9450602086013591508082111561158157600080fd5b5061158e8682870161145f565b925050604084013561159f816118a8565b809150509250925092565b6000602082840312156115bc57600080fd5b815161152b816118a8565b6000602082840312156115d957600080fd5b61152b826114ec565b600080604083850312156115f557600080fd5b6115fe836114ec565b91506020830135801515811461161357600080fd5b809150509250929050565b6000815180845260005b8181101561164457602081850181015186830182015201611628565b81811115611656576000602083870101525b50601f01601f19169290920160200192915050565b600061010080835261167f8184018c61161e565b90508281036020840152611693818b61161e565b891515604085015267ffffffffffffffff891660608501526001600160801b03888116608086015287811660a0860152861660c0850152915050600583106116eb57634e487b7160e01b600052602160045260246000fd5b8260e08301529998505050505050505050565b6020808252601c908201527f21457272203a2057726f6e6720776f726b666c6f772073746174757300000000604082015260600190565b60208082526011908201527010a2b9391d103737ba1036b0b730b3b2b960791b604082015260600190565b60006001600160801b0380831681851680830382111561178257611782611866565b01949350505050565b6000821982111561179e5761179e611866565b500190565b60006001600160801b03838116908316818110156117c3576117c3611866565b039392505050565b600060ff821660ff8416808210156117e5576117e5611866565b90039392505050565b600060ff82168061180157611801611866565b6000190192915050565b600181811c9082168061181f57607f821691505b6020821081141561184057634e487b7160e01b600052602260045260246000fd5b50919050565b600060ff821660ff81141561185d5761185d611866565b60010192915050565b634e487b7160e01b600052601160045260246000fd5b634e487b7160e01b600052602160045260246000fd5b634e487b7160e01b600052604160045260246000fd5b6001600160801b03811681146113d357600080fdfea264697066735822122053cd40ae9504df3ea53d5e8a838768fa5a62de6a52ea8dd00c0080eae8a3291c64736f6c63430008060033a26469706673582212208faf730b51138efb523e5ab6853575974119e74a8318a017210ae2661eb266ba64736f6c63430008060033",
  "immutableReferences": {
    "739": [
      {
        "length": 32,
        "start": 486
      },
      {
        "length": 32,
        "start": 1150
      },
      {
        "length": 32,
        "start": 1393
      },
      {
        "length": 32,
        "start": 1919
      },
      {
        "length": 32,
        "start": 2978
      },
      {
        "length": 32,
        "start": 4894
      }
    ],
    "753": [
      {
        "length": 32,
        "start": 1092
      },
      {
        "length": 32,
        "start": 1833
      }
    ]
  },
  "source": "// SPDX-License-Identifier: GPL-3.0\r\npragma solidity 0.8.6;\r\n\r\nimport \"./interfaces/ICampaign.sol\";\r\nimport \"./interfaces/ICampaignFactory.sol\";\r\nimport \"./interfaces/IProposal.sol\";\r\nimport \"./Proposal.sol\";\r\nimport '@openzeppelin/contracts/token/ERC20/IERC20.sol';\r\nimport \"@openzeppelin/contracts/token/ERC20/utils/SafeERC20.sol\";\r\n\r\ncontract Campaign is ICampaign {\r\n    using SafeERC20 for IERC20;\r\n\r\n    IERC20 public immutable usdcToken;\r\n\r\n    uint8 public rewardsCounter;\r\n    uint64 public createAt;\r\n    uint128 public totalRaised;\r\n\r\n    address public manager;\r\n    address public factory;\r\n    address public proposal;\r\n    address public immutable escrowContract;\r\n\r\n    WorkflowStatus public status;\r\n\r\n    Info private campaignInfo;\r\n\r\n    mapping(uint8 => Rewards) public rewardsList;\r\n    mapping(uint8 => mapping(address => uint8)) public rewardToContributor;\r\n    mapping(address => uint128) public contributorBalances;\r\n\r\n    //Modifiers\r\n    modifier isNotDeleted(){\r\n        require(status != WorkflowStatus.CampaignDeleted, \"!Err: Campaign Deleted\");\r\n        _;\r\n    }\r\n\r\n    modifier onlyManager(){\r\n        require(msg.sender == manager, \"!Not Authorized\");\r\n        _;\r\n    }\r\n\r\n    modifier checkStatus(\r\n        WorkflowStatus currentStatus,\r\n        WorkflowStatus requiredStatus\r\n    ) {\r\n        require(currentStatus == requiredStatus, \"!Err : Wrong workflow status\");\r\n        _;\r\n    }\r\n\r\n    modifier checkCampaignDeadline() {\r\n        require(block.timestamp <  campaignInfo.deadlineDate, \"!Err : Campaign contribution has ended\");\r\n        _;\r\n    }\r\n\r\n    constructor(Info memory infoData, Rewards[] memory rewardsData, address _manager, IERC20 _usdcToken, address _escrowContract)\r\n    {\r\n        require(rewardsData.length > 0, \"!Err: Rewards empty\");\r\n        require(rewardsData.length <= 10, \"!Err: Too much Rewards\");\r\n        manager = _manager;\r\n        factory = msg.sender;\r\n        createAt = uint64(block.timestamp);\r\n        status = WorkflowStatus.CampaignDrafted;\r\n        usdcToken = _usdcToken;\r\n        escrowContract = _escrowContract;\r\n        _setCampaignInfo(infoData);\r\n        uint8 _rewardsCounter;\r\n        for (_rewardsCounter; _rewardsCounter < rewardsData.length; _rewardsCounter++) {\r\n            _setCampaignReward(_rewardsCounter, rewardsData[_rewardsCounter]);\r\n        }\r\n        rewardsCounter = uint8(rewardsData.length) ;\r\n    }\r\n\r\n    /**\r\n     * @inheritdoc ICampaign\r\n     */\r\n    function getCampaignInfo() external view override isNotDeleted() returns(Info memory, uint64, address, WorkflowStatus, uint128, address) {\r\n        return (campaignInfo, createAt, manager, status, totalRaised, proposal);\r\n    }\r\n\r\n    /**\r\n     * @inheritdoc ICampaign\r\n     */\r\n    function updateCampaign(Info memory newInfo) external override isNotDeleted() onlyManager() checkStatus(status, WorkflowStatus.CampaignDrafted) {\r\n        _setCampaignInfo(newInfo);\r\n    }\r\n\r\n    /**\r\n     * @inheritdoc ICampaign\r\n     */\r\n    function addReward(Rewards memory newRewardData) external override isNotDeleted() onlyManager() checkStatus(status, WorkflowStatus.CampaignDrafted) {\r\n        _setCampaignReward(rewardsCounter, newRewardData);\r\n        rewardsCounter++;\r\n    }\r\n\r\n    /**\r\n     * @inheritdoc ICampaign\r\n     */\r\n    function updateReward(Rewards memory newRewardData, uint8 rewardIndex) external override isNotDeleted() onlyManager() checkStatus(status, WorkflowStatus.CampaignDrafted) {\r\n        require(rewardIndex <= rewardsCounter, \"!Err: Index not exist\");\r\n        _setCampaignReward(rewardIndex, newRewardData);\r\n    }\r\n\r\n    /**\r\n    * @notice Internal function that set a new campaign's info and making data validation first.\r\n    * @param data Info Object that contains the Info data following the Info struct\r\n    */\r\n    function _setCampaignInfo(Info memory data) private {\r\n        require(bytes(data.title).length > 0, \"!Err: Title empty\");\r\n        require(bytes(data.description).length > 0, \"!Err: Description empty\");\r\n        require(data.fundingGoal >= 1000 ether, \"!Err: Funding Goal not enough\");\r\n        require(createAt + 7 days <= data.deadlineDate, \"!Err: deadlineDate to short\");\r\n        campaignInfo.title = data.title;\r\n        campaignInfo.description = data.description;\r\n        campaignInfo.fundingGoal = data.fundingGoal;\r\n        campaignInfo.deadlineDate = data.deadlineDate;\r\n    }\r\n\r\n    /**\r\n     * @notice Internal function that set a new campaign's reward level and making data validation first.\r\n     * @param index uint Index of the reward to add\r\n     * @param data Rewards Object that contains the Reward data following the Rewards struct\r\n     */\r\n    function _setCampaignReward(uint8 index, Rewards memory data) private {\r\n        require(bytes(data.title).length > 0, \"!Err: Title empty\");\r\n        require(bytes(data.description).length > 0, \"!Err: Description empty\");\r\n        Rewards memory r;\r\n        r.title = data.title;\r\n        r.description = data.description;\r\n        r.minimumContribution = data.minimumContribution;\r\n        r.stockLimit = data.stockLimit;\r\n        r.nbContributors = data.nbContributors;\r\n        r.isStockLimited = data.isStockLimited;\r\n        rewardsList[index] = r;\r\n    }\r\n\r\n    /**\r\n     * @inheritdoc ICampaign\r\n     */\r\n    function deleteCampaign() public override isNotDeleted() onlyManager() {\r\n        require(status == WorkflowStatus.CampaignDrafted || status == WorkflowStatus.FundingFailed || status == WorkflowStatus.CampaignCompleted, \"!Err : Wrong workflow status\");\r\n        status = WorkflowStatus.CampaignDeleted;\r\n        ICampaignFactory(factory).deleteCampaign();\r\n    }\r\n\r\n    /**\r\n     * @inheritdoc ICampaign\r\n     */\r\n    function deleteReward(uint8 rewardIndex) external override isNotDeleted() onlyManager() checkStatus(status, WorkflowStatus.CampaignDrafted) {\r\n        require(rewardIndex < rewardsCounter, \"!Err: Index not exist\");\r\n        if((rewardsCounter-1)!=rewardIndex){\r\n            rewardsList[rewardIndex] = rewardsList[rewardsCounter-1];\r\n        }\r\n        delete rewardsList[rewardsCounter-1];\r\n        rewardsCounter--;\r\n    }\r\n\r\n    /**\r\n     * @inheritdoc ICampaign\r\n     */\r\n    function updateManager(address newManager) external override onlyManager() {\r\n        manager = newManager;\r\n    }\r\n\r\n    /**\r\n     * @inheritdoc ICampaign\r\n     */\r\n    function publishCampaign() external override isNotDeleted() onlyManager() checkStatus(status, WorkflowStatus.CampaignDrafted) {\r\n        uint minDate = campaignInfo.deadlineDate - 7 days;\r\n        require(minDate >= block.timestamp, \"!Err: deadlineDate to short\");\r\n        status = WorkflowStatus.CampaignPublished;\r\n    }\r\n\r\n    /**\r\n     * @inheritdoc ICampaign\r\n     */\r\n    function contribute(uint128 _amount, uint8 rewardIndex) external override isNotDeleted() checkCampaignDeadline() {\r\n        require(status != WorkflowStatus.CampaignDrafted && status != WorkflowStatus.FundingFailed && status != WorkflowStatus.CampaignCompleted, \"!Err : Wrong workflow status\");\r\n        require(checkRewardInventory(rewardIndex), \"!Err: no more reward\");\r\n        usdcToken.safeTransferFrom(msg.sender, address(this), _amount);\r\n        contributorBalances[msg.sender] = contributorBalances[msg.sender] + _amount;\r\n        rewardToContributor[rewardIndex][msg.sender] = rewardToContributor[rewardIndex][msg.sender] + 1;\r\n        rewardsList[rewardIndex].nbContributors = rewardsList[rewardIndex].nbContributors + 1;\r\n        rewardsList[rewardIndex].amount = rewardsList[rewardIndex].amount + _amount;\r\n        if(getContractUSDCBalance() >= campaignInfo.fundingGoal) {\r\n            status = WorkflowStatus.FundingComplete;\r\n            totalRaised = getContractUSDCBalance();\r\n        }\r\n    }\r\n\r\n    /**\r\n     * @inheritdoc ICampaign\r\n     */\r\n    function refund() external override {\r\n        require(block.timestamp > campaignInfo.deadlineDate && getContractUSDCBalance() > 0, \"!Err: conditions not met\");\r\n        require(status == WorkflowStatus.CampaignPublished || status == WorkflowStatus.FundingFailed, \"!Err: wrong workflowstatus\");\r\n        if (status == WorkflowStatus.CampaignPublished) {\r\n            status = WorkflowStatus.FundingFailed;\r\n        }\r\n        uint128 _balance = contributorBalances[msg.sender];\r\n        delete contributorBalances[msg.sender];\r\n        usdcToken.safeTransfer(msg.sender, _balance);\r\n    }\r\n\r\n    /**\r\n     * @inheritdoc ICampaign\r\n     */\r\n    function launchProposalContract() external override onlyManager() isNotDeleted() checkStatus(status, WorkflowStatus.FundingComplete) {\r\n        require(proposal == address(0), \"!Err: proposal already deployed\");\r\n        require(block.timestamp > campaignInfo.deadlineDate, \"!Err: campaign deadline not passed\");\r\n        usdcToken.safeTransfer(escrowContract, totalRaised*5/100);\r\n        IProposal _proposalContract = new Proposal(address(this), manager);\r\n        proposal = address(_proposalContract);\r\n    }\r\n\r\n    /**\r\n     * @inheritdoc ICampaign\r\n     */\r\n    function releaseProposalFunds(uint128 _amount) external override {\r\n        require(msg.sender == proposal, \"!Err: Access denied\");\r\n        usdcToken.safeTransfer(manager, _amount);\r\n    }\r\n\r\n    /**\r\n     * @notice Return the amount in USDC raised by the campaign\r\n     * @dev amount uint USDC raised by the campaign in WEI\r\n     */\r\n    function getContractUSDCBalance() public view returns(uint128) {\r\n        return uint128(usdcToken.balanceOf(address(this)));\r\n    }\r\n\r\n\r\n    function checkRewardInventory(uint8 rewardIndex) internal view returns (bool) {\r\n        if (!rewardsList[rewardIndex].isStockLimited) {\r\n            return true;\r\n        } else if(rewardsList[rewardIndex].stockLimit > rewardsList[rewardIndex].nbContributors) {\r\n            return true;\r\n        } else {\r\n            return false;\r\n        }\r\n    }\r\n}\r\n",
  "sourcePath": "/Users/Xutyr/Documents/Lab/SparkUp/contracts/Campaign.sol",
  "compiler": {
    "name": "solc",
    "version": "0.8.6+commit.11564f7e.Emscripten.clang"
  },
  "schemaVersion": "3.4.1",
  "updatedAt": "2021-08-01T14:40:08.087Z",
  "devdoc": {
    "kind": "dev",
    "methods": {
      "addReward((string,string,bool,uint16,uint64,uint128,uint128))": {
        "details": "Only the manager must be able to call it.",
        "params": {
          "newRewardData": "Rewards Object that contains all the needed information following the Rewards struct for the campaign"
        }
      },
      "contribute(uint128,uint8)": {
        "details": "Can only be called if campaign is published, is not completed, is not deleted and is not failed."
      },
      "deleteCampaign()": {
        "details": "It's the entry point for deleting a campaign. Only the manager must be able to call it"
      },
      "deleteReward(uint8)": {
        "details": "Only the manager must be able to call it.",
        "params": {
          "rewardIndex": "uint256 Index of the reward to delete"
        }
      },
      "getContractUSDCBalance()": {
        "details": "amount uint USDC raised by the campaign in WEI"
      },
      "launchProposalContract()": {
        "details": "Can only be called by manager and if WorkflowStatus is FundingComplete."
      },
      "publishCampaign()": {
        "details": "Only the manager must be able to call it and only within acceptable deadlineDate timeframe."
      },
      "refund()": {
        "details": "Can only be called if campiagn deadline is passed and fundingGoal not reached."
      },
      "releaseProposalFunds(uint128)": {
        "details": "Can only be called by proposal contract when proposal is accepted."
      },
      "updateCampaign((string,string,uint64,uint128))": {
        "details": "Only the manager must be able to call it.",
        "params": {
          "updatedInfoData": "Info Object that contains all the new information following the Info struct for the campaign"
        }
      },
      "updateManager(address)": {
        "details": "Only the manager must be able to call it.",
        "params": {
          "newManager": "address Address of the new manager"
        }
      },
      "updateReward((string,string,bool,uint16,uint64,uint128,uint128),uint8)": {
        "details": "Only the manager must be able to call it.",
        "params": {
          "newRewardData": "Rewards Object that contains the new data to set following the Rewards struct for the campaign",
          "rewardIndex": "uint256 Index of the reward to update"
        }
      }
    },
    "version": 1
  },
  "userdoc": {
    "kind": "user",
    "methods": {
      "addReward((string,string,bool,uint16,uint64,uint128,uint128))": {
        "notice": "Add a new reward level to the campaign."
      },
      "contribute(uint128,uint8)": {
        "notice": "Allow contributors to contribute to the campaign."
      },
      "deleteCampaign()": {
        "notice": "Delete the campaign."
      },
      "deleteReward(uint8)": {
        "notice": "Delete a reward by its Id."
      },
      "getCampaignInfo()": {
        "notice": "Returns the campaign information in the struct Info plus de createAt and the managerAddress."
      },
      "getContractUSDCBalance()": {
        "notice": "Return the amount in USDC raised by the campaign"
      },
      "launchProposalContract()": {
        "notice": "Allows manager to deploy proposal contract to start submitting proposals."
      },
      "publishCampaign()": {
        "notice": "Allow the manager to publish campaign and make it visible to potential contributors."
      },
      "refund()": {
        "notice": "Allow contributor to get refunded."
      },
      "releaseProposalFunds(uint128)": {
        "notice": "Transfer unlocked funds to manager address."
      },
      "updateCampaign((string,string,uint64,uint128))": {
        "notice": "Update the campaign information in the struct Info."
      },
      "updateManager(address)": {
        "notice": "Allow the manager to setup a new one."
      },
      "updateReward((string,string,bool,uint16,uint64,uint128,uint128),uint8)": {
        "notice": "Update the data of a specific reward regarding its id."
      }
    },
    "version": 1
  }
}