{
  "contractName": "Escrow",
  "abi": [
    {
      "inputs": [
        {
          "internalType": "address",
          "name": "_usdcToken",
          "type": "address"
        }
      ],
      "stateMutability": "nonpayable",
      "type": "constructor"
    },
    {
      "anonymous": false,
      "inputs": [
        {
          "indexed": true,
          "internalType": "address",
          "name": "previousOwner",
          "type": "address"
        },
        {
          "indexed": true,
          "internalType": "address",
          "name": "newOwner",
          "type": "address"
        }
      ],
      "name": "OwnershipTransferred",
      "type": "event"
    },
    {
      "inputs": [],
      "name": "owner",
      "outputs": [
        {
          "internalType": "address",
          "name": "",
          "type": "address"
        }
      ],
      "stateMutability": "view",
      "type": "function",
      "constant": true
    },
    {
      "inputs": [],
      "name": "renounceOwnership",
      "outputs": [],
      "stateMutability": "nonpayable",
      "type": "function"
    },
    {
      "inputs": [
        {
          "internalType": "address",
          "name": "newOwner",
          "type": "address"
        }
      ],
      "name": "transferOwnership",
      "outputs": [],
      "stateMutability": "nonpayable",
      "type": "function"
    },
    {
      "inputs": [],
      "name": "usdcToken",
      "outputs": [
        {
          "internalType": "contract IERC20",
          "name": "",
          "type": "address"
        }
      ],
      "stateMutability": "view",
      "type": "function",
      "constant": true
    },
    {
      "inputs": [
        {
          "internalType": "address",
          "name": "recipient",
          "type": "address"
        },
        {
          "internalType": "uint256",
          "name": "amount",
          "type": "uint256"
        }
      ],
      "name": "transfer",
      "outputs": [],
      "stateMutability": "nonpayable",
      "type": "function"
    },
    {
      "inputs": [
        {
          "internalType": "address",
          "name": "spender",
          "type": "address"
        },
        {
          "internalType": "uint256",
          "name": "amount",
          "type": "uint256"
        }
      ],
      "name": "approve",
      "outputs": [],
      "stateMutability": "nonpayable",
      "type": "function"
    },
    {
      "inputs": [
        {
          "internalType": "address",
          "name": "owner",
          "type": "address"
        },
        {
          "internalType": "address",
          "name": "spender",
          "type": "address"
        }
      ],
      "name": "allowance",
      "outputs": [
        {
          "internalType": "uint256",
          "name": "",
          "type": "uint256"
        }
      ],
      "stateMutability": "view",
      "type": "function",
      "constant": true
    },
    {
      "inputs": [],
      "name": "getContractUSDCBalance",
      "outputs": [
        {
          "internalType": "uint256",
          "name": "",
          "type": "uint256"
        }
      ],
      "stateMutability": "view",
      "type": "function",
      "constant": true
    }
  ],
  "bytecode": "0x60a060405234801561001057600080fd5b50604051610add380380610add83398101604081905261002f9161009d565b6100383361004d565b60601b6001600160601b0319166080526100cd565b600080546001600160a01b038381166001600160a01b0319831681178455604051919092169283917f8be0079c531659141344cd1fd0a4f28419497f9722a3daafe3b4186f6b6457e09190a35050565b6000602082840312156100af57600080fd5b81516001600160a01b03811681146100c657600080fd5b9392505050565b60805160601c6109d76101066000396000818160c1015281816101650152818161022c015281816102c4015261031501526109d76000f3fe608060405234801561001057600080fd5b50600436106100875760003560e01c80638da5cb5b1161005b5780638da5cb5b14610103578063a9059cbb14610114578063dd62ed3e14610127578063f2fde38b1461013a57600080fd5b80622772c21461008c578063095ea7b3146100a757806311eac855146100bc578063715018a6146100fb575b600080fd5b61009461014d565b6040519081526020015b60405180910390f35b6100ba6100b5366004610866565b6101ec565b005b6100e37f000000000000000000000000000000000000000000000000000000000000000081565b6040516001600160a01b03909116815260200161009e565b6100ba610257565b6000546001600160a01b03166100e3565b6100ba610122366004610866565b61028d565b610094610135366004610833565b6102eb565b6100ba610148366004610818565b610398565b6040516370a0823160e01b81523060048201526000907f00000000000000000000000000000000000000000000000000000000000000006001600160a01b0316906370a082319060240160206040518083038186803b1580156101af57600080fd5b505afa1580156101c3573d6000803e3d6000fd5b505050506040513d601f19601f820116820180604052508101906101e791906108b2565b905090565b6000546001600160a01b0316331461021f5760405162461bcd60e51b81526004016102169061091a565b60405180910390fd5b6102536001600160a01b037f0000000000000000000000000000000000000000000000000000000000000000168383610433565b5050565b6000546001600160a01b031633146102815760405162461bcd60e51b81526004016102169061091a565b61028b600061052d565b565b6000546001600160a01b031633146102b75760405162461bcd60e51b81526004016102169061091a565b6102536001600160a01b037f000000000000000000000000000000000000000000000000000000000000000016838361057d565b604051636eb1769f60e11b81526001600160a01b03838116600483015282811660248301526000917f00000000000000000000000000000000000000000000000000000000000000009091169063dd62ed3e9060440160206040518083038186803b15801561035957600080fd5b505afa15801561036d573d6000803e3d6000fd5b505050506040513d601f19601f8201168201806040525081019061039191906108b2565b9392505050565b6000546001600160a01b031633146103c25760405162461bcd60e51b81526004016102169061091a565b6001600160a01b0381166104275760405162461bcd60e51b815260206004820152602660248201527f4f776e61626c653a206e6577206f776e657220697320746865207a65726f206160448201526564647265737360d01b6064820152608401610216565b6104308161052d565b50565b604051636eb1769f60e11b81523060048201526001600160a01b038381166024830152600091839186169063dd62ed3e9060440160206040518083038186803b15801561047f57600080fd5b505afa158015610493573d6000803e3d6000fd5b505050506040513d601f19601f820116820180604052508101906104b791906108b2565b6104c1919061094f565b6040516001600160a01b03851660248201526044810182905290915061052790859063095ea7b360e01b906064015b60408051601f198184030181529190526020810180516001600160e01b03166001600160e01b0319909316929092179091526105b2565b50505050565b600080546001600160a01b038381166001600160a01b0319831681178455604051919092169283917f8be0079c531659141344cd1fd0a4f28419497f9722a3daafe3b4186f6b6457e09190a35050565b6040516001600160a01b0383166024820152604481018290526105ad90849063a9059cbb60e01b906064016104f0565b505050565b6000610607826040518060400160405280602081526020017f5361666545524332303a206c6f772d6c6576656c2063616c6c206661696c6564815250856001600160a01b03166106849092919063ffffffff16565b8051909150156105ad57808060200190518101906106259190610890565b6105ad5760405162461bcd60e51b815260206004820152602a60248201527f5361666545524332303a204552433230206f7065726174696f6e20646964206e6044820152691bdd081cdd58d8d9595960b21b6064820152608401610216565b6060610693848460008561069b565b949350505050565b6060824710156106fc5760405162461bcd60e51b815260206004820152602660248201527f416464726573733a20696e73756666696369656e742062616c616e636520666f6044820152651c8818d85b1b60d21b6064820152608401610216565b843b61074a5760405162461bcd60e51b815260206004820152601d60248201527f416464726573733a2063616c6c20746f206e6f6e2d636f6e74726163740000006044820152606401610216565b600080866001600160a01b0316858760405161076691906108cb565b60006040518083038185875af1925050503d80600081146107a3576040519150601f19603f3d011682016040523d82523d6000602084013e6107a8565b606091505b50915091506107b88282866107c3565b979650505050505050565b606083156107d2575081610391565b8251156107e25782518084602001fd5b8160405162461bcd60e51b815260040161021691906108e7565b80356001600160a01b038116811461081357600080fd5b919050565b60006020828403121561082a57600080fd5b610391826107fc565b6000806040838503121561084657600080fd5b61084f836107fc565b915061085d602084016107fc565b90509250929050565b6000806040838503121561087957600080fd5b610882836107fc565b946020939093013593505050565b6000602082840312156108a257600080fd5b8151801515811461039157600080fd5b6000602082840312156108c457600080fd5b5051919050565b600082516108dd818460208701610975565b9190910192915050565b6020815260008251806020840152610906816040850160208701610975565b601f01601f19169190910160400192915050565b6020808252818101527f4f776e61626c653a2063616c6c6572206973206e6f7420746865206f776e6572604082015260600190565b6000821982111561097057634e487b7160e01b600052601160045260246000fd5b500190565b60005b83811015610990578181015183820152602001610978565b83811115610527575050600091015256fea26469706673582212200b31b859ae2904dc825c578f0c4251ed6cbdc05de592ef2c6563b1fec8cf63a264736f6c63430008060033",
  "immutableReferences": {
    "2477": [
      {
        "length": 32,
        "start": 193
      },
      {
        "length": 32,
        "start": 357
      },
      {
        "length": 32,
        "start": 556
      },
      {
        "length": 32,
        "start": 708
      },
      {
        "length": 32,
        "start": 789
      }
    ]
  },
  "source": "// SPDX-License-Identifier: MIT\r\npragma solidity 0.8.6;\r\n\r\nimport '@openzeppelin/contracts/token/ERC20/IERC20.sol';\r\nimport \"@openzeppelin/contracts/token/ERC20/utils/SafeERC20.sol\";\r\nimport \"@openzeppelin/contracts/access/Ownable.sol\";\r\n/**\r\n* @title CampaignFactory\r\n* @notice The Campaign factory is used for the deployment of new campaign\r\n* @dev Inherit of for the CampaignFactory Interface\r\n*/\r\ncontract Escrow is Ownable {\r\n\r\n    using SafeERC20 for IERC20;\r\n    \r\n    IERC20 public immutable usdcToken;\r\n\r\n    constructor(address _usdcToken){\r\n        usdcToken = IERC20(_usdcToken);\r\n    }\r\n\r\n    function transfer(address recipient, uint256 amount) external onlyOwner() {\r\n        usdcToken.safeTransfer(recipient, amount);\r\n    }\r\n\r\n    function approve(address spender, uint256 amount) external onlyOwner() {\r\n        usdcToken.safeIncreaseAllowance(spender, amount);\r\n    }\r\n    \r\n    function allowance(address owner, address spender) external view returns (uint256) {\r\n        return usdcToken.allowance(owner, spender);\r\n    }\r\n\r\n    function getContractUSDCBalance() external view returns(uint) {\r\n        return usdcToken.balanceOf(address(this));\r\n    }\r\n}\r\n",
  "sourcePath": "/Users/Xutyr/Documents/Lab/SparkUp/contracts/Escrow.sol",
  "compiler": {
    "name": "solc",
    "version": "0.8.6+commit.11564f7e.Emscripten.clang"
  },
  "schemaVersion": "3.4.1",
  "updatedAt": "2021-08-03T14:19:01.955Z",
  "networkType": "ethereum",
  "devdoc": {
    "details": "Inherit of for the CampaignFactory Interface",
    "kind": "dev",
    "methods": {
      "owner()": {
        "details": "Returns the address of the current owner."
      },
      "renounceOwnership()": {
        "details": "Leaves the contract without owner. It will not be possible to call `onlyOwner` functions anymore. Can only be called by the current owner. NOTE: Renouncing ownership will leave the contract without an owner, thereby removing any functionality that is only available to the owner."
      },
      "transferOwnership(address)": {
        "details": "Transfers ownership of the contract to a new account (`newOwner`). Can only be called by the current owner."
      }
    },
    "title": "CampaignFactory",
    "version": 1
  },
  "userdoc": {
    "kind": "user",
    "methods": {},
    "notice": "The Campaign factory is used for the deployment of new campaign",
    "version": 1
  }
}