{
  "contractName": "ProxyFactory",
  "abi": [
    {
      "inputs": [
        {
          "internalType": "address",
          "name": "_factoryContract",
          "type": "address"
        },
        {
          "internalType": "address",
          "name": "_escrowContract",
          "type": "address"
        },
        {
          "internalType": "address",
          "name": "_usdcToken",
          "type": "address"
        }
      ],
      "stateMutability": "nonpayable",
      "type": "constructor"
    },
    {
      "anonymous": false,
      "inputs": [
        {
          "indexed": false,
          "internalType": "address",
          "name": "campaignAddress",
          "type": "address"
        }
      ],
      "name": "newCampaign",
      "type": "event"
    },
    {
      "inputs": [],
      "name": "escrow",
      "outputs": [
        {
          "internalType": "address",
          "name": "",
          "type": "address"
        }
      ],
      "stateMutability": "view",
      "type": "function",
      "constant": true
    },
    {
      "inputs": [],
      "name": "factory",
      "outputs": [
        {
          "internalType": "address",
          "name": "",
          "type": "address"
        }
      ],
      "stateMutability": "view",
      "type": "function",
      "constant": true
    },
    {
      "inputs": [],
      "name": "usdcToken",
      "outputs": [
        {
          "internalType": "contract IERC20",
          "name": "",
          "type": "address"
        }
      ],
      "stateMutability": "view",
      "type": "function",
      "constant": true
    },
    {
      "inputs": [
        {
          "components": [
            {
              "internalType": "string",
              "name": "title",
              "type": "string"
            },
            {
              "internalType": "string",
              "name": "description",
              "type": "string"
            },
            {
              "internalType": "uint64",
              "name": "deadlineDate",
              "type": "uint64"
            },
            {
              "internalType": "uint128",
              "name": "fundingGoal",
              "type": "uint128"
            }
          ],
          "internalType": "struct ICampaign.Info",
          "name": "infoData",
          "type": "tuple"
        },
        {
          "components": [
            {
              "internalType": "string",
              "name": "title",
              "type": "string"
            },
            {
              "internalType": "string",
              "name": "description",
              "type": "string"
            },
            {
              "internalType": "bool",
              "name": "isStockLimited",
              "type": "bool"
            },
            {
              "internalType": "uint16",
              "name": "stockLimit",
              "type": "uint16"
            },
            {
              "internalType": "uint64",
              "name": "nbContributors",
              "type": "uint64"
            },
            {
              "internalType": "uint128",
              "name": "minimumContribution",
              "type": "uint128"
            },
            {
              "internalType": "uint128",
              "name": "amount",
              "type": "uint128"
            }
          ],
          "internalType": "struct ICampaign.Rewards[]",
          "name": "rewardsData",
          "type": "tuple[]"
        }
      ],
      "name": "createCampaign",
      "outputs": [],
      "stateMutability": "nonpayable",
      "type": "function"
    }
  ],
  "bytecode": "0x61010060405234801561001157600080fd5b50604051613fb5380380613fb583398101604081905261003091610078565b6001600160601b0319606093841b8116608081905260c05291831b821660a05290911b1660e0526100bb565b80516001600160a01b038116811461007357600080fd5b919050565b60008060006060848603121561008d57600080fd5b6100968461005c565b92506100a46020850161005c565b91506100b26040850161005c565b90509250925092565b60805160601c60a05160601c60c05160601c60e05160601c613ea361011260003960008181605d015261010b015260006101cb01526000818160e2015261012c01526000818160ba015261014d0152613ea36000f3fe60806040523480156200001157600080fd5b5060043610620000525760003560e01c806311eac85514620000575780636046f7fa146200009b578063c45a015514620000b4578063e2fdcc1714620000dc575b600080fd5b6200007f7f000000000000000000000000000000000000000000000000000000000000000081565b6040516001600160a01b03909116815260200160405180910390f35b620000b2620000ac366004620004be565b62000104565b005b6200007f7f000000000000000000000000000000000000000000000000000000000000000081565b6200007f7f000000000000000000000000000000000000000000000000000000000000000081565b60008282337f00000000000000000000000000000000000000000000000000000000000000007f00000000000000000000000000000000000000000000000000000000000000007f00000000000000000000000000000000000000000000000000000000000000006040516200017a906200026d565b6200018b96959493929190620006ca565b604051809103906000f080158015620001a8573d6000803e3d6000fd5b5060405163ac9c4fd360e01b81526001600160a01b0380831660048301529192507f00000000000000000000000000000000000000000000000000000000000000009091169063ac9c4fd390602401600060405180830381600087803b1580156200021257600080fd5b505af115801562000227573d6000803e3d6000fd5b50506040516001600160a01b03841681527f09a1a4cb701177eec460d8994ed3511517fa65b744806ed07f974f87d433b6799250602001905060405180910390a1505050565b613638806200083683390190565b600082601f8301126200028d57600080fd5b8135602067ffffffffffffffff80831115620002ad57620002ad6200081f565b8260051b620002be838201620007eb565b8481528381019087850183890186018a1015620002da57600080fd5b600093505b86841015620003e057803585811115620002f857600080fd5b890160e0818c03601f19018113156200031057600080fd5b6200031a62000799565b88830135888111156200032c57600080fd5b6200033c8e8b8387010162000403565b825250604080840135898111156200035357600080fd5b620003638f8c8388010162000403565b8b84015250606062000377818601620003ed565b82840152608091506200038c82860162000492565b9083015260a06200039f858201620004a5565b8284015260c09150620003b48286016200047a565b90830152620003c58484016200047a565b908201528552505060019390930192918501918501620002df565b5098975050505050505050565b80358015158114620003fe57600080fd5b919050565b600082601f8301126200041557600080fd5b813567ffffffffffffffff8111156200043257620004326200081f565b62000447601f8201601f1916602001620007eb565b8181528460208386010111156200045d57600080fd5b816020850160208301376000918101602001919091529392505050565b80356001600160801b0381168114620003fe57600080fd5b803561ffff81168114620003fe57600080fd5b803567ffffffffffffffff81168114620003fe57600080fd5b60008060408385031215620004d257600080fd5b823567ffffffffffffffff80821115620004eb57600080fd5b90840190608082870312156200050057600080fd5b6200050a620007c5565b8235828111156200051a57600080fd5b620005288882860162000403565b8252506020830135828111156200053e57600080fd5b6200054c8882860162000403565b6020830152506200056060408401620004a5565b604082015262000573606084016200047a565b6060820152935060208501359150808211156200058f57600080fd5b506200059e858286016200027b565b9150509250929050565b600081518084526020808501808196508360051b8101915082860160005b858110156200066d578284038952815160e08151818752620005eb828801826200067a565b91505086820151868203888801526200060582826200067a565b60408481015115159089015260608085015161ffff169089015260808085015167ffffffffffffffff169089015260a0808501516001600160801b03908116918a019190915260c09485015116939097019290925250509784019790840190600101620005c6565b5091979650505050505050565b6000815180845260005b81811015620006a25760208185018101518683018201520162000684565b81811115620006b5576000602083870101525b50601f01601f19169290920160200192915050565b60c0815260008751608060c0840152620006e96101408401826200067a565b9050602089015160bf198483030160e08501526200070882826200067a565b91505067ffffffffffffffff60408a0151166101008401526001600160801b0360608a0151166101208401528281036020840152620007488189620005a8565b9150506200076160408301876001600160a01b03169052565b6001600160a01b03851660608301526001600160a01b03841660808301526001600160a01b03831660a0830152979650505050505050565b60405160e0810167ffffffffffffffff81118282101715620007bf57620007bf6200081f565b60405290565b6040516080810167ffffffffffffffff81118282101715620007bf57620007bf6200081f565b604051601f8201601f1916810167ffffffffffffffff811182821017156200081757620008176200081f565b604052919050565b634e487b7160e01b600052604160045260246000fdfe60c06040523480156200001157600080fd5b506040516200363838038062003638833981016040819052620000349162000903565b60008551116200008b5760405162461bcd60e51b815260206004820152601360248201527f214572723a205265776172647320656d7074790000000000000000000000000060448201526064015b60405180910390fd5b600a85511115620000df5760405162461bcd60e51b815260206004820152601660248201527f214572723a20546f6f206d756368205265776172647300000000000000000000604482015260640162000082565b600180546001600160a01b038681166001600160a01b0319928316179092556002805492841692909116919091179055600080546001600160401b03421661010002610100600160481b03199091161790556003805460ff60a01b191690556001600160601b0319606084811b821660805283901b1660a0526200016386620001db565b60005b85518160ff161015620001b957620001a481878360ff168151811062000190576200019062000b5d565b6020026020010151620003e360201b60201c565b80620001b08162000b24565b91505062000166565b505092516000805460ff191660ff9092169190911790555062000b8992505050565b805151620002205760405162461bcd60e51b8152602060048201526011602482015270214572723a205469746c6520656d70747960781b604482015260640162000082565b600081602001515111620002775760405162461bcd60e51b815260206004820152601760248201527f214572723a204465736372697074696f6e20656d707479000000000000000000604482015260640162000082565b683635c9adc5dea0000081606001516001600160801b03161015620002df5760405162461bcd60e51b815260206004820152601d60248201527f214572723a2046756e64696e6720476f616c206e6f7420656e6f756768000000604482015260640162000082565b60408101516000546001600160401b0391821691620003089161010090041662093a8062000ab9565b6001600160401b03161115620003615760405162461bcd60e51b815260206004820152601b60248201527f214572723a20646561646c696e654461746520746f2073686f72740000000000604482015260640162000082565b805180516200037991600491602090910190620005e6565b50602080820151805162000392926005920190620005e6565b506060810151600680546040909301516001600160401b03166001600160401b03196001600160801b039093166801000000000000000002929092166001600160c01b031990931692909217179055565b805151620004285760405162461bcd60e51b8152602060048201526011602482015270214572723a205469746c6520656d70747960781b604482015260640162000082565b6000816020015151116200047f5760405162461bcd60e51b815260206004820152601760248201527f214572723a204465736372697074696f6e20656d707479000000000000000000604482015260640162000082565b6040805160e081018252606080825260208083018281526000848601818152848601828152608080880184815260a0808a0186815260c08b018790528c518b528c8901519097528b01516001600160801b03169095529589015161ffff169052938701516001600160401b031690915285850151151590925260ff861682526007815292902081518051929384936200051c9284920190620005e6565b506020828101518051620005379260018501920190620005e6565b5060408201516002820180546060850151608086015160a087015162ffffff1990931694151562ffff0019169490941761010061ffff90921691909102176301000000600160d81b03191663010000006001600160401b0390941693909302600160581b600160d81b031916929092176b0100000000000000000000006001600160801b039384160217905560c090920151600390910180546001600160801b03191691909216179055505050565b828054620005f49062000ae7565b90600052602060002090601f01602090048101928262000618576000855562000663565b82601f106200063357805160ff191683800117855562000663565b8280016001018555821562000663579182015b828111156200066357825182559160200191906001019062000646565b506200067192915062000675565b5090565b5b8082111562000671576000815560010162000676565b80516001600160a01b0381168114620006a457600080fd5b919050565b600082601f830112620006bb57600080fd5b815160206001600160401b0380831115620006da57620006da62000b73565b8260051b620006eb83820162000a86565b8481528381019087850183890186018a10156200070757600080fd5b600093505b868410156200080d578051858111156200072557600080fd5b890160e0818c03601f19018113156200073d57600080fd5b6200074762000a36565b88830151888111156200075957600080fd5b620007698e8b838701016200082b565b825250604080840151898111156200078057600080fd5b620007908f8c838801016200082b565b8b840152506060620007a48186016200081a565b8284015260809150620007b9828601620008d8565b9083015260a0620007cc858201620008eb565b8284015260c09150620007e1828601620008c0565b90830152620007f2848401620008c0565b9082015285525050600193909301929185019185016200070c565b5098975050505050505050565b80518015158114620006a457600080fd5b600082601f8301126200083d57600080fd5b81516001600160401b0381111562000859576200085962000b73565b60206200086f601f8301601f1916820162000a86565b82815285828487010111156200088457600080fd5b60005b83811015620008a457858101830151828201840152820162000887565b83811115620008b65760008385840101525b5095945050505050565b80516001600160801b0381168114620006a457600080fd5b805161ffff81168114620006a457600080fd5b80516001600160401b0381168114620006a457600080fd5b60008060008060008060c087890312156200091d57600080fd5b86516001600160401b03808211156200093557600080fd5b908801906080828b0312156200094a57600080fd5b6200095462000a61565b8251828111156200096457600080fd5b620009728c8286016200082b565b8252506020830151828111156200098857600080fd5b620009968c8286016200082b565b602083015250620009aa60408401620008eb565b6040820152620009bd60608401620008c0565b606082015260208a0151909850915080821115620009da57600080fd5b50620009e989828a01620006a9565b955050620009fa604088016200068c565b935062000a0a606088016200068c565b925062000a1a608088016200068c565b915062000a2a60a088016200068c565b90509295509295509295565b60405160e081016001600160401b038111828210171562000a5b5762000a5b62000b73565b60405290565b604051608081016001600160401b038111828210171562000a5b5762000a5b62000b73565b604051601f8201601f191681016001600160401b038111828210171562000ab15762000ab162000b73565b604052919050565b60006001600160401b0382811684821680830382111562000ade5762000ade62000b47565b01949350505050565b600181811c9082168062000afc57607f821691505b6020821081141562000b1e57634e487b7160e01b600052602260045260246000fd5b50919050565b600060ff821660ff81141562000b3e5762000b3e62000b47565b60010192915050565b634e487b7160e01b600052601160045260246000fd5b634e487b7160e01b600052603260045260246000fd5b634e487b7160e01b600052604160045260246000fd5b60805160601c60a05160601c612a5962000bdf6000396000818161040f01526106d50152600081816101d901528181610449015281816105360152818161071d01528181610b1a01526112660152612a596000f3fe608060405234801561001057600080fd5b506004361061018d5760003560e01c806372686b17116100de578063c5c4744c11610097578063d0a5d84511610071578063d0a5d845146103ca578063d6290cd7146103dd578063e21641b8146103f7578063e42a96e71461040a57600080fd5b8063c5c4744c1461038a578063c97c5794146103a4578063cd3fea14146103b757600080fd5b806372686b17146102f3578063753ec103146103065780637ef59f841461031957806392b4208d14610321578063bf1d4cad14610347578063c45a01551461037757600080fd5b8063244c3c2c1161014b578063481c6a7511610125578063481c6a75146102b257806358aba00f146102c5578063590e1ae3146102d85780636d2ffd85146102e057600080fd5b8063244c3c2c14610253578063287af4321461025b5780633489eae11461028457600080fd5b80622772c2146101925780630a2d00d3146101b75780630d4c4a2f146101cc57806311eac855146101d4578063200d2ed214610213578063205b091414610234575b600080fd5b61019a610431565b6040516001600160801b0390911681526020015b60405180910390f35b6101ca6101c53660046124d7565b6104d0565b005b6101ca61056b565b6101fb7f000000000000000000000000000000000000000000000000000000000000000081565b6040516001600160a01b0390911681526020016101ae565b60035461022790600160a01b900460ff1681565b6040516101ae91906125e4565b6000546102419060ff1681565b60405160ff90911681526020016101ae565b6101ca6107f4565b61019a610269366004612364565b6009602052600090815260409020546001600160801b031681565b610241610292366004612550565b600860209081526000928352604080842090915290825290205460ff1681565b6001546101fb906001600160a01b031681565b6101ca6102d3366004612364565b61095b565b6101ca6109a7565b6101ca6102ee36600461248a565b610b49565b6101ca610301366004612364565b610c4b565b6003546101fb906001600160a01b031681565b6101ca610c97565b61033461032f366004612535565b610dce565b6040516101ae979695949392919061260b565b60005461035f9061010090046001600160401b031681565b6040516001600160401b0390911681526020016101ae565b6002546101fb906001600160a01b031681565b60005461019a90600160481b90046001600160801b031681565b6101ca6103b236600461244e565b610f39565b6101ca6103c536600461239c565b611020565b6101ca6103d83660046124f2565b6110d5565b6103e5611429565b6040516101ae96959493929190612704565b6101ca610405366004612535565b611648565b6101fb7f000000000000000000000000000000000000000000000000000000000000000081565b6040516370a0823160e01b81523060048201526000907f00000000000000000000000000000000000000000000000000000000000000006001600160a01b0316906370a082319060240160206040518083038186803b15801561049357600080fd5b505afa1580156104a7573d6000803e3d6000fd5b505050506040513d601f19601f820116820180604052508101906104cb919061251c565b905090565b6003546001600160a01b031633146105255760405162461bcd60e51b815260206004820152601360248201527208515c9c8e881058d8d95cdcc819195b9a5959606a1b60448201526064015b60405180910390fd5b600154610568906001600160a01b037f0000000000000000000000000000000000000000000000000000000000000000811691166001600160801b03841661191f565b50565b6001546001600160a01b031633146105955760405162461bcd60e51b815260040161051c90612674565b6005600354600160a01b900460ff1660058111156105b5576105b56129e9565b14156105d35760405162461bcd60e51b815260040161051c906126d4565b600354600160a01b900460ff166002808260058111156105f5576105f56129e9565b146106125760405162461bcd60e51b815260040161051c9061269d565b6003546001600160a01b03161561066b5760405162461bcd60e51b815260206004820152601f60248201527f214572723a2070726f706f73616c20616c7265616479206465706c6f79656400604482015260640161051c565b6006546001600160401b031642116106d05760405162461bcd60e51b815260206004820152602260248201527f214572723a2063616d706169676e20646561646c696e65206e6f742070617373604482015261195960f21b606482015260840161051c565b61074d7f000000000000000000000000000000000000000000000000000000000000000060646106fe610431565b6107099060056128b5565b6107139190612881565b6001600160a01b037f00000000000000000000000000000000000000000000000000000000000000001691906001600160801b031661191f565b610755610431565b600080546001600160801b0392909216600160481b0278ffffffffffffffffffffffffffffffff00000000000000000019909216919091179055600254600154604051638b89df4f60e01b81526001600160a01b039182166004820152911690638b89df4f90602401600060405180830381600087803b1580156107d857600080fd5b505af11580156107ec573d6000803e3d6000fd5b505050505050565b6005600354600160a01b900460ff166005811115610814576108146129e9565b14156108325760405162461bcd60e51b815260040161051c906126d4565b6001546001600160a01b0316331461085c5760405162461bcd60e51b815260040161051c90612674565b6000600354600160a01b900460ff16600581111561087c5761087c6129e9565b14806108a4575060038054600160a01b900460ff1660058111156108a2576108a26129e9565b145b806108cc57506004600354600160a01b900460ff1660058111156108ca576108ca6129e9565b145b6108e85760405162461bcd60e51b815260040161051c9061269d565b6003805460ff60a01b1916600560a01b179055600254604080516309130f0b60e21b815290516001600160a01b039092169163244c3c2c9160048082019260009290919082900301818387803b15801561094157600080fd5b505af1158015610955573d6000803e3d6000fd5b50505050565b6001546001600160a01b031633146109855760405162461bcd60e51b815260040161051c90612674565b600180546001600160a01b0319166001600160a01b0392909216919091179055565b6006546001600160401b0316421180156109d1575060006109c6610431565b6001600160801b0316115b610a1d5760405162461bcd60e51b815260206004820152601860248201527f214572723a20636f6e646974696f6e73206e6f74206d65740000000000000000604482015260640161051c565b6001600354600160a01b900460ff166005811115610a3d57610a3d6129e9565b1480610a65575060038054600160a01b900460ff166005811115610a6357610a636129e9565b145b610ab15760405162461bcd60e51b815260206004820152601a60248201527f214572723a2077726f6e6720776f726b666c6f77737461747573000000000000604482015260640161051c565b6001600354600160a01b900460ff166005811115610ad157610ad16129e9565b1415610aeb576003805460ff60a01b1916600360a01b1790555b33600081815260096020526040902080546001600160801b031981169091556001600160801b031690610568907f00000000000000000000000000000000000000000000000000000000000000006001600160a01b0316908361191f565b6005600354600160a01b900460ff166005811115610b6957610b696129e9565b1415610b875760405162461bcd60e51b815260040161051c906126d4565b6001546001600160a01b03163314610bb15760405162461bcd60e51b815260040161051c90612674565b600354600160a01b900460ff16600080826005811115610bd357610bd36129e9565b14610bf05760405162461bcd60e51b815260040161051c9061269d565b60005460ff9081169084161115610c415760405162461bcd60e51b815260206004820152601560248201527408515c9c8e88125b99195e081b9bdd08195e1a5cdd605a1b604482015260640161051c565b6109558385611982565b6002546001600160a01b03163314610c755760405162461bcd60e51b815260040161051c90612674565b600380546001600160a01b0319166001600160a01b0392909216919091179055565b6005600354600160a01b900460ff166005811115610cb757610cb76129e9565b1415610cd55760405162461bcd60e51b815260040161051c906126d4565b6001546001600160a01b03163314610cff5760405162461bcd60e51b815260040161051c90612674565b600354600160a01b900460ff16600080826005811115610d2157610d216129e9565b14610d3e5760405162461bcd60e51b815260040161051c9061269d565b600654600090610d5b9062093a80906001600160401b03166128e4565b6001600160401b0316905042811015610db65760405162461bcd60e51b815260206004820152601b60248201527f214572723a20646561646c696e654461746520746f2073686f72740000000000604482015260640161051c565b50506003805460ff60a01b1916600160a01b17905550565b600760205260009081526040902080548190610de990612978565b80601f0160208091040260200160405190810160405280929190818152602001828054610e1590612978565b8015610e625780601f10610e3757610100808354040283529160200191610e62565b820191906000526020600020905b815481529060010190602001808311610e4557829003601f168201915b505050505090806001018054610e7790612978565b80601f0160208091040260200160405190810160405280929190818152602001828054610ea390612978565b8015610ef05780601f10610ec557610100808354040283529160200191610ef0565b820191906000526020600020905b815481529060010190602001808311610ed357829003601f168201915b5050506002840154600390940154929360ff81169361ffff61010083041693506001600160401b03630100000083041692506001600160801b03600160581b9092048216911687565b6005600354600160a01b900460ff166005811115610f5957610f596129e9565b1415610f775760405162461bcd60e51b815260040161051c906126d4565b6001546001600160a01b03163314610fa15760405162461bcd60e51b815260040161051c90612674565b600354600160a01b900460ff16600080826005811115610fc357610fc36129e9565b14610fe05760405162461bcd60e51b815260040161051c9061269d565b600054610ff09060ff1684611982565b6000805460ff169080611002836129b3565b91906101000a81548160ff021916908360ff16021790555050505050565b6005600354600160a01b900460ff166005811115611040576110406129e9565b141561105e5760405162461bcd60e51b815260040161051c906126d4565b6001546001600160a01b031633146110885760405162461bcd60e51b815260040161051c90612674565b600354600160a01b900460ff166000808260058111156110aa576110aa6129e9565b146110c75760405162461bcd60e51b815260040161051c9061269d565b6110d083611b6f565b505050565b6005600354600160a01b900460ff1660058111156110f5576110f56129e9565b14156111135760405162461bcd60e51b815260040161051c906126d4565b6006546001600160401b0316421061117c5760405162461bcd60e51b815260206004820152602660248201527f21457272203a2043616d706169676e20636f6e747269627574696f6e2068617360448201526508195b99195960d21b606482015260840161051c565b6000600354600160a01b900460ff16600581111561119c5761119c6129e9565b141580156111c7575060038054600160a01b900460ff1660058111156111c4576111c46129e9565b14155b80156111f157506004600354600160a01b900460ff1660058111156111ee576111ee6129e9565b14155b61120d5760405162461bcd60e51b815260040161051c9061269d565b61121681611d5f565b6112595760405162461bcd60e51b815260206004820152601460248201527308515c9c8e881b9bc81b5bdc99481c995dd85c9960621b604482015260640161051c565b6112976001600160a01b037f00000000000000000000000000000000000000000000000000000000000000001633306001600160801b038616611dd0565b336000908152600960205260409020546112bb9083906001600160801b031661280f565b33600081815260096020908152604080832080546001600160801b0319166001600160801b03969096169590951790945560ff85811683526008825284832093835292905291909120546113119116600161285c565b60ff82811660008181526008602090815260408083203384528252808320805460ff191696909516959095179093559081526007909152206002015461136890630100000090046001600160401b0316600161283a565b60ff821660009081526007602052604090206002810180546001600160401b03939093166301000000026affffffffffffffff0000001990931692909217909155600301546113c19083906001600160801b031661280f565b60ff8216600090815260076020526040902060030180546001600160801b0319166001600160801b03928316179055600654600160401b900416611403610431565b6001600160801b031610611425576003805460ff60a01b1916600160a11b1790555b5050565b6040805160808101825260608082526020820181905260009282018390528101919091526000808080806005600354600160a01b900460ff166005811115611473576114736129e9565b14156114915760405162461bcd60e51b815260040161051c906126d4565b600054600154600354604080516080810190915260048054909461010081046001600160401b0316946001600160a01b0390811694600160a01b810460ff1694600160481b9093046001600160801b031693911691908790829082906114f690612978565b80601f016020809104026020016040519081016040528092919081815260200182805461152290612978565b801561156f5780601f106115445761010080835404028352916020019161156f565b820191906000526020600020905b81548152906001019060200180831161155257829003601f168201915b5050505050815260200160018201805461158890612978565b80601f01602080910402602001604051908101604052809291908181526020018280546115b490612978565b80156116015780601f106115d657610100808354040283529160200191611601565b820191906000526020600020905b8154815290600101906020018083116115e457829003601f168201915b5050509183525050600291909101546001600160401b0381166020830152600160401b90046001600160801b03166040909101529c949b5092995090975095509350915050565b6005600354600160a01b900460ff166005811115611668576116686129e9565b14156116865760405162461bcd60e51b815260040161051c906126d4565b6001546001600160a01b031633146116b05760405162461bcd60e51b815260040161051c90612674565b600354600160a01b900460ff166000808260058111156116d2576116d26129e9565b146116ef5760405162461bcd60e51b815260040161051c9061269d565b60005460ff9081169084161061173f5760405162461bcd60e51b815260206004820152601560248201527408515c9c8e88125b99195e081b9bdd08195e1a5cdd605a1b604482015260640161051c565b60005460ff80851691611755916001911661290c565b60ff16146118a45760008054600791906117749060019060ff1661290c565b60ff9081168252602080830193909352604091820160009081209187168152600790935291208154819083906117a990612978565b6117b4929190612054565b5060018201816001019080546117c990612978565b6117d4929190612054565b5060028281018054918301805460ff909316151560ff19841681178255825461ffff61010091829004160262ffff001990911662ffffff19909416939093179290921780835581546001600160401b0363010000009182900416026affffffffffffffff0000001982168117845591546001600160801b03600160581b918290048116909102600160581b600160d81b03199093166301000000600160d81b031990921691909117919091179091556003928301549290910180546001600160801b031916929091169190911790555b60008054600791906118bb9060019060ff1661290c565b60ff16815260208101919091526040016000908120906118db82826120df565b6118e96001830160006120df565b506002810180546001600160d81b031916905560030180546001600160801b03191690556000805460ff1690806110028361295b565b6040516001600160a01b0383166024820152604481018290526110d090849063a9059cbb60e01b906064015b60408051601f198184030181529190526020810180516001600160e01b03166001600160e01b031990931692909217909152611e08565b8051516119c55760405162461bcd60e51b8152602060048201526011602482015270214572723a205469746c6520656d70747960781b604482015260640161051c565b600081602001515111611a145760405162461bcd60e51b8152602060048201526017602482015276214572723a204465736372697074696f6e20656d70747960481b604482015260640161051c565b6040805160e081018252606080825260208083018281526000848601818152848601828152608080880184815260a0808a0186815260c08b018790528c518b528c8901519097528b01516001600160801b03169095529589015161ffff169052938701516001600160401b031690915285850151151590925260ff86168252600781529290208151805192938493611aaf9284920190612119565b506020828101518051611ac89260018501920190612119565b5060408201516002820180546060850151608086015160a087015162ffffff1990931694151562ffff0019169490941761010061ffff90921691909102176301000000600160d81b03191663010000006001600160401b0390941693909302600160581b600160d81b03191692909217600160581b6001600160801b039384160217905560c090920151600390910180546001600160801b03191691909216179055505050565b805151611bb25760405162461bcd60e51b8152602060048201526011602482015270214572723a205469746c6520656d70747960781b604482015260640161051c565b600081602001515111611c015760405162461bcd60e51b8152602060048201526017602482015276214572723a204465736372697074696f6e20656d70747960481b604482015260640161051c565b683635c9adc5dea0000081606001516001600160801b03161015611c675760405162461bcd60e51b815260206004820152601d60248201527f214572723a2046756e64696e6720476f616c206e6f7420656e6f756768000000604482015260640161051c565b60408101516000546001600160401b0391821691611c8e9161010090041662093a8061283a565b6001600160401b03161115611ce55760405162461bcd60e51b815260206004820152601b60248201527f214572723a20646561646c696e654461746520746f2073686f72740000000000604482015260640161051c565b80518051611cfb91600491602090910190612119565b506020808201518051611d12926005920190612119565b506060810151600680546040909301516001600160401b031667ffffffffffffffff196001600160801b03909316600160401b02929092166001600160c01b031990931692909217179055565b60ff808216600090815260076020526040812060020154909116611d8557506001919050565b60ff8216600090815260076020526040902060020154630100000081046001600160401b031661010090910461ffff161115611dc357506001919050565b506000919050565b919050565b6040516001600160a01b03808516602483015283166044820152606481018290526109559085906323b872dd60e01b9060840161194b565b6000611e5d826040518060400160405280602081526020017f5361666545524332303a206c6f772d6c6576656c2063616c6c206661696c6564815250856001600160a01b0316611eda9092919063ffffffff16565b8051909150156110d05780806020019051810190611e7b919061237f565b6110d05760405162461bcd60e51b815260206004820152602a60248201527f5361666545524332303a204552433230206f7065726174696f6e20646964206e6044820152691bdd081cdd58d8d9595960b21b606482015260840161051c565b6060611ee98484600085611ef3565b90505b9392505050565b606082471015611f545760405162461bcd60e51b815260206004820152602660248201527f416464726573733a20696e73756666696369656e742062616c616e636520666f6044820152651c8818d85b1b60d21b606482015260840161051c565b843b611fa25760405162461bcd60e51b815260206004820152601d60248201527f416464726573733a2063616c6c20746f206e6f6e2d636f6e7472616374000000604482015260640161051c565b600080866001600160a01b03168587604051611fbe91906125c8565b60006040518083038185875af1925050503d8060008114611ffb576040519150601f19603f3d011682016040523d82523d6000602084013e612000565b606091505b509150915061201082828661201b565b979650505050505050565b6060831561202a575081611eec565b82511561203a5782518084602001fd5b8160405162461bcd60e51b815260040161051c91906125f8565b82805461206090612978565b90600052602060002090601f01602090048101928261208257600085556120cf565b82601f1061209357805485556120cf565b828001600101855582156120cf57600052602060002091601f016020900482015b828111156120cf5782548255916001019190600101906120b4565b506120db92915061218d565b5090565b5080546120eb90612978565b6000825580601f106120fb575050565b601f016020900490600052602060002090810190610568919061218d565b82805461212590612978565b90600052602060002090601f01602090048101928261214757600085556120cf565b82601f1061216057805160ff19168380011785556120cf565b828001600101855582156120cf579182015b828111156120cf578251825591602001919060010190612172565b5b808211156120db576000815560010161218e565b80356001600160a01b0381168114611dcb57600080fd5b8035611dcb81612a15565b600082601f8301126121d557600080fd5b81356001600160401b03808211156121ef576121ef6129ff565b604051601f8301601f19908116603f01168101908282118183101715612217576122176129ff565b8160405283815286602085880101111561223057600080fd5b836020870160208301376000602085830101528094505050505092915050565b600060e0828403121561226257600080fd5b61226a6127c5565b905081356001600160401b038082111561228357600080fd5b61228f858386016121c4565b835260208401359150808211156122a557600080fd5b506122b2848285016121c4565b6020830152506122c4604083016121b9565b60408201526122d56060830161232a565b60608201526122e66080830161233c565b60808201526122f760a08301612313565b60a082015261230860c08301612313565b60c082015292915050565b80356001600160801b0381168114611dcb57600080fd5b803561ffff81168114611dcb57600080fd5b80356001600160401b0381168114611dcb57600080fd5b803560ff81168114611dcb57600080fd5b60006020828403121561237657600080fd5b611eec826121a2565b60006020828403121561239157600080fd5b8151611eec81612a15565b6000602082840312156123ae57600080fd5b81356001600160401b03808211156123c557600080fd5b90830190608082860312156123d957600080fd5b6123e16127ed565b8235828111156123f057600080fd5b6123fc878286016121c4565b82525060208301358281111561241157600080fd5b61241d878286016121c4565b60208301525061242f6040840161233c565b604082015261244060608401612313565b606082015295945050505050565b60006020828403121561246057600080fd5b81356001600160401b0381111561247657600080fd5b61248284828501612250565b949350505050565b6000806040838503121561249d57600080fd5b82356001600160401b038111156124b357600080fd5b6124bf85828601612250565b9250506124ce60208401612353565b90509250929050565b6000602082840312156124e957600080fd5b611eec82612313565b6000806040838503121561250557600080fd5b61250e83612313565b91506124ce60208401612353565b60006020828403121561252e57600080fd5b5051919050565b60006020828403121561254757600080fd5b611eec82612353565b6000806040838503121561256357600080fd5b61256c83612353565b91506124ce602084016121a2565b6006811061259857634e487b7160e01b600052602160045260246000fd5b9052565b600081518084526125b481602086016020860161292f565b601f01601f19169290920160200192915050565b600082516125da81846020870161292f565b9190910192915050565b602081016125f2828461257a565b92915050565b602081526000611eec602083018461259c565b60e08152600061261e60e083018a61259c565b8281036020840152612630818a61259c565b9715156040840152505061ffff9490941660608501526001600160401b039290921660808401526001600160801b0390811660a08401521660c09091015292915050565b6020808252600f908201526e08539bdd08105d5d1a1bdc9a5e9959608a1b604082015260600190565b6020808252601c908201527f21457272203a2057726f6e6720776f726b666c6f772073746174757300000000604082015260600190565b60208082526016908201527508515c9c8e8810d85b5c185a59db8811195b195d195960521b604082015260600190565b60c0815260008751608060c084015261272161014084018261259c565b9050602089015160bf198483030160e085015261273e828261259c565b60408b01516001600160401b031661010086015260608b01516001600160801b0316610120860152925061278091505060208301886001600160401b03169052565b6001600160a01b038616604083015261279c606083018661257a565b6001600160801b03841660808301526001600160a01b03831660a0830152979650505050505050565b60405160e081016001600160401b03811182821017156127e7576127e76129ff565b60405290565b604051608081016001600160401b03811182821017156127e7576127e76129ff565b60006001600160801b03808316818516808303821115612831576128316129d3565b01949350505050565b60006001600160401b03808316818516808303821115612831576128316129d3565b600060ff821660ff84168060ff03821115612879576128796129d3565b019392505050565b60006001600160801b03808416806128a957634e487b7160e01b600052601260045260246000fd5b92169190910492915050565b60006001600160801b03808316818516818304811182151516156128db576128db6129d3565b02949350505050565b60006001600160401b0383811690831681811015612904576129046129d3565b039392505050565b600060ff821660ff841680821015612926576129266129d3565b90039392505050565b60005b8381101561294a578181015183820152602001612932565b838111156109555750506000910152565b600060ff82168061296e5761296e6129d3565b6000190192915050565b600181811c9082168061298c57607f821691505b602082108114156129ad57634e487b7160e01b600052602260045260246000fd5b50919050565b600060ff821660ff8114156129ca576129ca6129d3565b60010192915050565b634e487b7160e01b600052601160045260246000fd5b634e487b7160e01b600052602160045260246000fd5b634e487b7160e01b600052604160045260246000fd5b801515811461056857600080fdfea2646970667358221220c3ee93161ca0a39d4618b5ecde656a985e113eb7a3c9ea36be4a29c7300a653964736f6c63430008060033a2646970667358221220178664ca20e3129f9e367345e968479372c248fe61ae1a53923290fd6cced39064736f6c63430008060033",
  "immutableReferences": {
    "3124": [
      {
        "length": 32,
        "start": 186
      },
      {
        "length": 32,
        "start": 333
      }
    ],
    "3126": [
      {
        "length": 32,
        "start": 226
      },
      {
        "length": 32,
        "start": 300
      }
    ],
    "3129": [
      {
        "length": 32,
        "start": 459
      }
    ],
    "3132": [
      {
        "length": 32,
        "start": 93
      },
      {
        "length": 32,
        "start": 267
      }
    ]
  },
  "source": "// SPDX-License-Identifier: MIT\npragma solidity 0.8.6;\n\nimport \"./Campaign.sol\";\nimport \"./interfaces/ICampaign.sol\";\nimport \"./interfaces/ICampaignFactory.sol\";\n\n/**\n* @title CampaignFactory\n* @notice The Campaign factory is used for the deployment of new campaign\n* @dev Inherit of for the CampaignFactory Interface\n*/\ncontract ProxyFactory {\n    \n    address public immutable factory;\n    address public immutable escrow;\n    ICampaignFactory immutable factoryContract;\n    IERC20 public immutable usdcToken;\n\n    //Events\n    event newCampaign(address campaignAddress);\n    \n    constructor(address _factoryContract, address _escrowContract, address _usdcToken) {\n        factory = _factoryContract;\n        factoryContract = ICampaignFactory(_factoryContract);\n        escrow = _escrowContract;\n        usdcToken = IERC20(_usdcToken);\n    }\n    \n    function createCampaign(ICampaign.Info memory infoData, ICampaign.Rewards[] memory rewardsData) external {\n        ICampaign _newCampaign = new Campaign(infoData, rewardsData, msg.sender, usdcToken, escrow, factory);\n        factoryContract.addCampaign(_newCampaign);\n        emit newCampaign(address(_newCampaign));\n    }\n}\n",
  "sourcePath": "/Users/Xutyr/Documents/Lab/SparkUp/contracts/ProxyFactory.sol",
  "compiler": {
    "name": "solc",
    "version": "0.8.6+commit.11564f7e.Emscripten.clang"
  },
  "schemaVersion": "3.4.1",
  "updatedAt": "2021-08-02T21:43:42.938Z",
  "networkType": "ethereum",
  "devdoc": {
    "details": "Inherit of for the CampaignFactory Interface",
    "kind": "dev",
    "methods": {},
    "title": "CampaignFactory",
    "version": 1
  },
  "userdoc": {
    "kind": "user",
    "methods": {},
    "notice": "The Campaign factory is used for the deployment of new campaign",
    "version": 1
  }
}