{
  "contractName": "Campaign",
  "abi": [
    {
      "inputs": [
        {
          "components": [
            {
              "internalType": "string",
              "name": "title",
              "type": "string"
            },
            {
              "internalType": "string",
              "name": "description",
              "type": "string"
            },
            {
              "internalType": "uint256",
              "name": "fundingGoal",
              "type": "uint256"
            },
            {
              "internalType": "uint256",
              "name": "deadlineDate",
              "type": "uint256"
            }
          ],
          "internalType": "struct ICampaign.Info",
          "name": "infoData",
          "type": "tuple"
        },
        {
          "components": [
            {
              "internalType": "string",
              "name": "title",
              "type": "string"
            },
            {
              "internalType": "string",
              "name": "description",
              "type": "string"
            },
            {
              "internalType": "uint256",
              "name": "minimumContribution",
              "type": "uint256"
            },
            {
              "internalType": "uint256",
              "name": "amount",
              "type": "uint256"
            },
            {
              "internalType": "uint256",
              "name": "stockLimit",
              "type": "uint256"
            },
            {
              "internalType": "uint256",
              "name": "nbContributors",
              "type": "uint256"
            },
            {
              "internalType": "bool",
              "name": "isStockLimited",
              "type": "bool"
            }
          ],
          "internalType": "struct ICampaign.Rewards[]",
          "name": "rewardsData",
          "type": "tuple[]"
        },
        {
          "internalType": "address",
          "name": "_manager",
          "type": "address"
        }
      ],
      "stateMutability": "nonpayable",
      "type": "constructor"
    },
    {
      "anonymous": false,
      "inputs": [],
      "name": "CampaignDisabled",
      "type": "event"
    },
    {
      "anonymous": false,
      "inputs": [],
      "name": "CampaignInfoUpdated",
      "type": "event"
    },
    {
      "anonymous": false,
      "inputs": [
        {
          "indexed": false,
          "internalType": "uint256",
          "name": "rewardsCounter",
          "type": "uint256"
        }
      ],
      "name": "CampaignNewRewardsAdded",
      "type": "event"
    },
    {
      "anonymous": false,
      "inputs": [],
      "name": "CampaignRewardDeleted",
      "type": "event"
    },
    {
      "anonymous": false,
      "inputs": [],
      "name": "CampaignRewardsUpdated",
      "type": "event"
    },
    {
      "anonymous": false,
      "inputs": [
        {
          "indexed": false,
          "internalType": "enum ICampaign.WorkflowStatus",
          "name": "previousStatus",
          "type": "uint8"
        },
        {
          "indexed": false,
          "internalType": "enum ICampaign.WorkflowStatus",
          "name": "newStatus",
          "type": "uint8"
        }
      ],
      "name": "WorkflowStatusChange",
      "type": "event"
    },
    {
      "anonymous": false,
      "inputs": [],
      "name": "newCampaign",
      "type": "event"
    },
    {
      "inputs": [],
      "name": "createAt",
      "outputs": [
        {
          "internalType": "uint256",
          "name": "",
          "type": "uint256"
        }
      ],
      "stateMutability": "view",
      "type": "function"
    },
    {
      "inputs": [],
      "name": "factory",
      "outputs": [
        {
          "internalType": "address",
          "name": "",
          "type": "address"
        }
      ],
      "stateMutability": "view",
      "type": "function"
    },
    {
      "inputs": [],
      "name": "isDisabled",
      "outputs": [
        {
          "internalType": "bool",
          "name": "",
          "type": "bool"
        }
      ],
      "stateMutability": "view",
      "type": "function"
    },
    {
      "inputs": [],
      "name": "manager",
      "outputs": [
        {
          "internalType": "address",
          "name": "",
          "type": "address"
        }
      ],
      "stateMutability": "view",
      "type": "function"
    },
    {
      "inputs": [],
      "name": "publishDeadline",
      "outputs": [
        {
          "internalType": "uint256",
          "name": "",
          "type": "uint256"
        }
      ],
      "stateMutability": "view",
      "type": "function"
    },
    {
      "inputs": [],
      "name": "rewardsCounter",
      "outputs": [
        {
          "internalType": "uint8",
          "name": "",
          "type": "uint8"
        }
      ],
      "stateMutability": "view",
      "type": "function"
    },
    {
      "inputs": [
        {
          "internalType": "uint256",
          "name": "",
          "type": "uint256"
        }
      ],
      "name": "rewardsList",
      "outputs": [
        {
          "internalType": "string",
          "name": "title",
          "type": "string"
        },
        {
          "internalType": "string",
          "name": "description",
          "type": "string"
        },
        {
          "internalType": "uint256",
          "name": "minimumContribution",
          "type": "uint256"
        },
        {
          "internalType": "uint256",
          "name": "amount",
          "type": "uint256"
        },
        {
          "internalType": "uint256",
          "name": "stockLimit",
          "type": "uint256"
        },
        {
          "internalType": "uint256",
          "name": "nbContributors",
          "type": "uint256"
        },
        {
          "internalType": "bool",
          "name": "isStockLimited",
          "type": "bool"
        }
      ],
      "stateMutability": "view",
      "type": "function"
    },
    {
      "inputs": [],
      "name": "status",
      "outputs": [
        {
          "internalType": "enum ICampaign.WorkflowStatus",
          "name": "",
          "type": "uint8"
        }
      ],
      "stateMutability": "view",
      "type": "function"
    },
    {
      "inputs": [],
      "name": "getCampaignInfo",
      "outputs": [
        {
          "components": [
            {
              "internalType": "string",
              "name": "title",
              "type": "string"
            },
            {
              "internalType": "string",
              "name": "description",
              "type": "string"
            },
            {
              "internalType": "uint256",
              "name": "fundingGoal",
              "type": "uint256"
            },
            {
              "internalType": "uint256",
              "name": "deadlineDate",
              "type": "uint256"
            }
          ],
          "internalType": "struct ICampaign.Info",
          "name": "",
          "type": "tuple"
        },
        {
          "internalType": "uint256",
          "name": "",
          "type": "uint256"
        },
        {
          "internalType": "address",
          "name": "",
          "type": "address"
        }
      ],
      "stateMutability": "nonpayable",
      "type": "function"
    },
    {
      "inputs": [
        {
          "components": [
            {
              "internalType": "string",
              "name": "title",
              "type": "string"
            },
            {
              "internalType": "string",
              "name": "description",
              "type": "string"
            },
            {
              "internalType": "uint256",
              "name": "fundingGoal",
              "type": "uint256"
            },
            {
              "internalType": "uint256",
              "name": "deadlineDate",
              "type": "uint256"
            }
          ],
          "internalType": "struct ICampaign.Info",
          "name": "newInfo",
          "type": "tuple"
        }
      ],
      "name": "updateCampaign",
      "outputs": [],
      "stateMutability": "nonpayable",
      "type": "function"
    },
    {
      "inputs": [
        {
          "components": [
            {
              "internalType": "string",
              "name": "title",
              "type": "string"
            },
            {
              "internalType": "string",
              "name": "description",
              "type": "string"
            },
            {
              "internalType": "uint256",
              "name": "minimumContribution",
              "type": "uint256"
            },
            {
              "internalType": "uint256",
              "name": "amount",
              "type": "uint256"
            },
            {
              "internalType": "uint256",
              "name": "stockLimit",
              "type": "uint256"
            },
            {
              "internalType": "uint256",
              "name": "nbContributors",
              "type": "uint256"
            },
            {
              "internalType": "bool",
              "name": "isStockLimited",
              "type": "bool"
            }
          ],
          "internalType": "struct ICampaign.Rewards",
          "name": "newRewardData",
          "type": "tuple"
        }
      ],
      "name": "addReward",
      "outputs": [],
      "stateMutability": "nonpayable",
      "type": "function"
    },
    {
      "inputs": [
        {
          "components": [
            {
              "internalType": "string",
              "name": "title",
              "type": "string"
            },
            {
              "internalType": "string",
              "name": "description",
              "type": "string"
            },
            {
              "internalType": "uint256",
              "name": "minimumContribution",
              "type": "uint256"
            },
            {
              "internalType": "uint256",
              "name": "amount",
              "type": "uint256"
            },
            {
              "internalType": "uint256",
              "name": "stockLimit",
              "type": "uint256"
            },
            {
              "internalType": "uint256",
              "name": "nbContributors",
              "type": "uint256"
            },
            {
              "internalType": "bool",
              "name": "isStockLimited",
              "type": "bool"
            }
          ],
          "internalType": "struct ICampaign.Rewards",
          "name": "newRewardData",
          "type": "tuple"
        },
        {
          "internalType": "uint256",
          "name": "rewardIndex",
          "type": "uint256"
        }
      ],
      "name": "updateReward",
      "outputs": [],
      "stateMutability": "nonpayable",
      "type": "function"
    },
    {
      "inputs": [],
      "name": "deleteCampaign",
      "outputs": [],
      "stateMutability": "nonpayable",
      "type": "function"
    },
    {
      "inputs": [
        {
          "internalType": "uint256",
          "name": "rewardIndex",
          "type": "uint256"
        }
      ],
      "name": "deleteReward",
      "outputs": [],
      "stateMutability": "nonpayable",
      "type": "function"
    },
    {
      "inputs": [
        {
          "internalType": "address",
          "name": "newManager",
          "type": "address"
        }
      ],
      "name": "updateManager",
      "outputs": [],
      "stateMutability": "nonpayable",
      "type": "function"
    },
    {
      "inputs": [
        {
          "internalType": "address",
          "name": "newFactory",
          "type": "address"
        }
      ],
      "name": "updateFactory",
      "outputs": [],
      "stateMutability": "nonpayable",
      "type": "function"
    },
    {
      "inputs": [],
      "name": "publishCampaign",
      "outputs": [],
      "stateMutability": "nonpayable",
      "type": "function"
    }
  ],
  "bytecode": "0x60806040523480156200001157600080fd5b5060405162003b4138038062003b418339818101604052810190620000379190620009f0565b60008251116200007e576040517f08c379a0000000000000000000000000000000000000000000000000000000008152600401620000759062000bda565b60405180910390fd5b600a82511115620000c6576040517f08c379a0000000000000000000000000000000000000000000000000000000008152600401620000bd9062000b74565b60405180910390fd5b80600260006101000a81548173ffffffffffffffffffffffffffffffffffffffff021916908373ffffffffffffffffffffffffffffffffffffffff16021790555033600360006101000a81548173ffffffffffffffffffffffffffffffffffffffff021916908373ffffffffffffffffffffffffffffffffffffffff16021790555042600181905550620d2f00836060015162000164919062000cdf565b6004819055506000600560006101000a81548160ff0219169083600581111562000193576200019262000e93565b5b0217905550620001a9836200027060201b60201c565b600060019054906101000a9050505b8151600060019054906101000a900460ff1660ff161015620002675762000227600060019054906101000a900460ff1660ff1683600060019054906101000a900460ff1660ff168151811062000213576200021262000ef1565b5b60200260200101516200040d60201b60201c565b6000600181819054906101000a900460ff1680929190620002489062000e35565b91906101000a81548160ff021916908360ff16021790555050620001b8565b505050620010c7565b600081600001515111620002bb576040517f08c379a0000000000000000000000000000000000000000000000000000000008152600401620002b29062000c1e565b60405180910390fd5b60008160200151511162000306576040517f08c379a0000000000000000000000000000000000000000000000000000000008152600401620002fd9062000bfc565b60405180910390fd5b6127108160400151101562000352576040517f08c379a0000000000000000000000000000000000000000000000000000000008152600401620003499062000bb8565b60405180910390fd5b806060015162093a806001546200036a919062000cdf565b1115620003ae576040517f08c379a0000000000000000000000000000000000000000000000000000000008152600401620003a59062000b96565b60405180910390fd5b806000015160066000019080519060200190620003cd929190620005a7565b50806020015160066001019080519060200190620003ed929190620005a7565b508060400151600660020181905550806060015160066003018190555050565b60008160000151511162000458576040517f08c379a00000000000000000000000000000000000000000000000000000000081526004016200044f9062000c1e565b60405180910390fd5b600081602001515111620004a3576040517f08c379a00000000000000000000000000000000000000000000000000000000081526004016200049a9062000bfc565b60405180910390fd5b620004ad62000638565b8160000151816000018190525081602001518160200181905250816040015181604001818152505081608001518160800181815250508160a001518160a00181815250508160c001518160c001901515908115158152505080600a6000858152602001908152602001600020600082015181600001908051906020019062000537929190620005a7565b50602082015181600101908051906020019062000556929190620005a7565b5060408201518160020155606082015181600301556080820151816004015560a0820151816005015560c08201518160060160006101000a81548160ff021916908315150217905550905050505050565b828054620005b59062000dc9565b90600052602060002090601f016020900481019282620005d9576000855562000625565b82601f10620005f457805160ff191683800117855562000625565b8280016001018555821562000625579182015b828111156200062457825182559160200191906001019062000607565b5b50905062000634919062000677565b5090565b6040518060e001604052806060815260200160608152602001600081526020016000815260200160008152602001600081526020016000151581525090565b5b808211156200069257600081600090555060010162000678565b5090565b6000620006ad620006a78462000c69565b62000c40565b90508083825260208201905082856020860282011115620006d357620006d262000f5e565b5b60005b858110156200072857815167ffffffffffffffff811115620006fd57620006fc62000f4f565b5b8086016200070c8982620008d4565b85526020850194506020840193505050600181019050620006d6565b5050509392505050565b600062000749620007438462000c98565b62000c40565b90508281526020810184848401111562000768576200076762000f63565b5b6200077584828562000d93565b509392505050565b6000815190506200078e8162001079565b92915050565b600082601f830112620007ac57620007ab62000f4f565b5b8151620007be84826020860162000696565b91505092915050565b600081519050620007d88162001093565b92915050565b600082601f830112620007f657620007f562000f4f565b5b81516200080884826020860162000732565b91505092915050565b6000608082840312156200082a576200082962000f54565b5b62000836608062000c40565b9050600082015167ffffffffffffffff81111562000859576200085862000f59565b5b6200086784828501620007de565b600083015250602082015167ffffffffffffffff8111156200088e576200088d62000f59565b5b6200089c84828501620007de565b6020830152506040620008b284828501620009d9565b6040830152506060620008c884828501620009d9565b60608301525092915050565b600060e08284031215620008ed57620008ec62000f54565b5b620008f960e062000c40565b9050600082015167ffffffffffffffff8111156200091c576200091b62000f59565b5b6200092a84828501620007de565b600083015250602082015167ffffffffffffffff81111562000951576200095062000f59565b5b6200095f84828501620007de565b60208301525060406200097584828501620009d9565b60408301525060606200098b84828501620009d9565b6060830152506080620009a184828501620009d9565b60808301525060a0620009b784828501620009d9565b60a08301525060c0620009cd84828501620007c7565b60c08301525092915050565b600081519050620009ea81620010ad565b92915050565b60008060006060848603121562000a0c5762000a0b62000f6d565b5b600084015167ffffffffffffffff81111562000a2d5762000a2c62000f68565b5b62000a3b8682870162000811565b935050602084015167ffffffffffffffff81111562000a5f5762000a5e62000f68565b5b62000a6d8682870162000794565b925050604062000a80868287016200077d565b9150509250925092565b600062000a9960168362000cce565b915062000aa68262000f83565b602082019050919050565b600062000ac0601b8362000cce565b915062000acd8262000fac565b602082019050919050565b600062000ae7601d8362000cce565b915062000af48262000fd5565b602082019050919050565b600062000b0e60138362000cce565b915062000b1b8262000ffe565b602082019050919050565b600062000b3560178362000cce565b915062000b428262001027565b602082019050919050565b600062000b5c60118362000cce565b915062000b698262001050565b602082019050919050565b6000602082019050818103600083015262000b8f8162000a8a565b9050919050565b6000602082019050818103600083015262000bb18162000ab1565b9050919050565b6000602082019050818103600083015262000bd38162000ad8565b9050919050565b6000602082019050818103600083015262000bf58162000aff565b9050919050565b6000602082019050818103600083015262000c178162000b26565b9050919050565b6000602082019050818103600083015262000c398162000b4d565b9050919050565b600062000c4c62000c5f565b905062000c5a828262000dff565b919050565b6000604051905090565b600067ffffffffffffffff82111562000c875762000c8662000f20565b5b602082029050602081019050919050565b600067ffffffffffffffff82111562000cb65762000cb562000f20565b5b62000cc18262000f72565b9050602081019050919050565b600082825260208201905092915050565b600062000cec8262000d7c565b915062000cf98362000d7c565b9250827fffffffffffffffffffffffffffffffffffffffffffffffffffffffffffffffff0382111562000d315762000d3062000e64565b5b828201905092915050565b600062000d498262000d5c565b9050919050565b60008115159050919050565b600073ffffffffffffffffffffffffffffffffffffffff82169050919050565b6000819050919050565b600060ff82169050919050565b60005b8381101562000db357808201518184015260208101905062000d96565b8381111562000dc3576000848401525b50505050565b6000600282049050600182168062000de257607f821691505b6020821081141562000df95762000df862000ec2565b5b50919050565b62000e0a8262000f72565b810181811067ffffffffffffffff8211171562000e2c5762000e2b62000f20565b5b80604052505050565b600062000e428262000d86565b915060ff82141562000e595762000e5862000e64565b5b600182019050919050565b7f4e487b7100000000000000000000000000000000000000000000000000000000600052601160045260246000fd5b7f4e487b7100000000000000000000000000000000000000000000000000000000600052602160045260246000fd5b7f4e487b7100000000000000000000000000000000000000000000000000000000600052602260045260246000fd5b7f4e487b7100000000000000000000000000000000000000000000000000000000600052603260045260246000fd5b7f4e487b7100000000000000000000000000000000000000000000000000000000600052604160045260246000fd5b600080fd5b600080fd5b600080fd5b600080fd5b600080fd5b600080fd5b600080fd5b6000601f19601f8301169050919050565b7f214572723a20546f6f206d756368205265776172647300000000000000000000600082015250565b7f214572723a20646561646c696e654461746520746f2073686f72740000000000600082015250565b7f214572723a2046756e64696e6720476f616c206e6f7420656e6f756768000000600082015250565b7f214572723a205265776172647320656d70747900000000000000000000000000600082015250565b7f214572723a204465736372697074696f6e20656d707479000000000000000000600082015250565b7f214572723a205469746c6520656d707479000000000000000000000000000000600082015250565b620010848162000d3c565b81146200109057600080fd5b50565b6200109e8162000d50565b8114620010aa57600080fd5b50565b620010b88162000d7c565b8114620010c457600080fd5b50565b612a6a80620010d76000396000f3fe608060405234801561001057600080fd5b506004361061010b5760003560e01c80636c57f5a9116100a2578063c45a015511610071578063c45a015514610262578063d355f00614610280578063d6290cd71461029c578063d9f165dc146102bc578063e7cf1ab7146102d85761010b565b80636c57f5a9146101e65780637ef59f8414610204578063bd39e0151461020e578063bf1d4cad146102445761010b565b806337acecce116100de57806337acecce14610174578063481c6a751461019057806356212d59146101ae57806358aba00f146101ca5761010b565b8063200d2ed214610110578063205b09141461012e578063244c3c2c1461014c5780633126df5114610156575b600080fd5b6101186102f4565b604051610125919061228b565b60405180910390f35b610136610307565b60405161014391906124e0565b60405180910390f35b61015461031a565b005b61015e61060d565b60405161016b91906124aa565b60405180910390f35b61018e60048036038101906101899190611eba565b610613565b005b6101986107d4565b6040516101a59190612255565b60405180910390f35b6101c860048036038101906101c39190611f4c565b6107fa565b005b6101e460048036038101906101df9190611e60565b610a12565b005b6101ee610ae6565b6040516101fb9190612270565b60405180910390f35b61020c610af7565b005b61022860048036038101906102239190611fa8565b610ce8565b60405161023b97969594939291906122cf565b60405180910390f35b61024c610e47565b60405161025991906124aa565b60405180910390f35b61026a610e4d565b6040516102779190612255565b60405180910390f35b61029a60048036038101906102959190611f03565b610e73565b005b6102a4611099565b6040516102b39392919061246c565b60405180910390f35b6102d660048036038101906102d19190611e60565b611293565b005b6102f260048036038101906102ed9190611fa8565b611367565b005b600560009054906101000a900460ff1681565b600060019054906101000a900460ff1681565b60058081111561032d5761032c612788565b5b600560009054906101000a900460ff16600581111561034f5761034e612788565b5b1415610390576040517f08c379a00000000000000000000000000000000000000000000000000000000081526004016103879061240c565b60405180910390fd5b600260009054906101000a900473ffffffffffffffffffffffffffffffffffffffff1673ffffffffffffffffffffffffffffffffffffffff163373ffffffffffffffffffffffffffffffffffffffff1614610420576040517f08c379a00000000000000000000000000000000000000000000000000000000081526004016104179061236c565b60405180910390fd5b6000600581111561043457610433612788565b5b600560009054906101000a900460ff16600581111561045657610455612788565b5b148061049557506003600581111561047157610470612788565b5b600560009054906101000a900460ff16600581111561049357610492612788565b5b145b806104d35750600460058111156104af576104ae612788565b5b600560009054906101000a900460ff1660058111156104d1576104d0612788565b5b145b610512576040517f08c379a00000000000000000000000000000000000000000000000000000000081526004016105099061242c565b60405180910390fd5b60058060006101000a81548160ff0219169083600581111561053757610536612788565b5b0217905550600360009054906101000a900473ffffffffffffffffffffffffffffffffffffffff1673ffffffffffffffffffffffffffffffffffffffff1663244c3c2c6040518163ffffffff1660e01b8152600401602060405180830381600087803b1580156105a657600080fd5b505af11580156105ba573d6000803e3d6000fd5b505050506040513d601f19601f820116820180604052508101906105de9190611e8d565b507ffeb7af4852eca96c1bfc4abd1bf2029a80272acdbf1f1d1d97c47dd6388fc66960405160405180910390a1565b60045481565b60058081111561062657610625612788565b5b600560009054906101000a900460ff16600581111561064857610647612788565b5b1415610689576040517f08c379a00000000000000000000000000000000000000000000000000000000081526004016106809061240c565b60405180910390fd5b600260009054906101000a900473ffffffffffffffffffffffffffffffffffffffff1673ffffffffffffffffffffffffffffffffffffffff163373ffffffffffffffffffffffffffffffffffffffff1614610719576040517f08c379a00000000000000000000000000000000000000000000000000000000081526004016107109061236c565b60405180910390fd5b600560009054906101000a900460ff16600080600581111561073e5761073d612788565b5b82600581111561075157610750612788565b5b1461075b57600080fd5b60045442111561079a5761076d61031a565b7f0827f1eff1e08734db2dd5d48026bbd6a3c6d84959a04390246cf09f83c8138260405160405180910390a15b6107a383611710565b7f811e66beac215e4afafaadcb6fa0f561430b1690fe0869f16abb767f166378a160405160405180910390a1505050565b600260009054906101000a900473ffffffffffffffffffffffffffffffffffffffff1681565b60058081111561080d5761080c612788565b5b600560009054906101000a900460ff16600581111561082f5761082e612788565b5b1415610870576040517f08c379a00000000000000000000000000000000000000000000000000000000081526004016108679061240c565b60405180910390fd5b600260009054906101000a900473ffffffffffffffffffffffffffffffffffffffff1673ffffffffffffffffffffffffffffffffffffffff163373ffffffffffffffffffffffffffffffffffffffff1614610900576040517f08c379a00000000000000000000000000000000000000000000000000000000081526004016108f79061236c565b60405180910390fd5b600560009054906101000a900460ff16600080600581111561092557610924612788565b5b82600581111561093857610937612788565b5b1461094257600080fd5b6004544211156109815761095461031a565b7f0827f1eff1e08734db2dd5d48026bbd6a3c6d84959a04390246cf09f83c8138260405160405180910390a15b600060019054906101000a900460ff1660ff168311156109d6576040517f08c379a00000000000000000000000000000000000000000000000000000000081526004016109cd906123cc565b60405180910390fd5b6109e0838561189b565b7fecf60f602773eab1fd9d40cefaf4b9841fb542d201e68a21f94d04c4febd468160405160405180910390a150505050565b600260009054906101000a900473ffffffffffffffffffffffffffffffffffffffff1673ffffffffffffffffffffffffffffffffffffffff163373ffffffffffffffffffffffffffffffffffffffff1614610aa2576040517f08c379a0000000000000000000000000000000000000000000000000000000008152600401610a999061236c565b60405180910390fd5b80600260006101000a81548173ffffffffffffffffffffffffffffffffffffffff021916908373ffffffffffffffffffffffffffffffffffffffff16021790555050565b60008054906101000a900460ff1681565b600580811115610b0a57610b09612788565b5b600560009054906101000a900460ff166005811115610b2c57610b2b612788565b5b1415610b6d576040517f08c379a0000000000000000000000000000000000000000000000000000000008152600401610b649061240c565b60405180910390fd5b600260009054906101000a900473ffffffffffffffffffffffffffffffffffffffff1673ffffffffffffffffffffffffffffffffffffffff163373ffffffffffffffffffffffffffffffffffffffff1614610bfd576040517f08c379a0000000000000000000000000000000000000000000000000000000008152600401610bf49061236c565b60405180910390fd5b600560009054906101000a900460ff166000806005811115610c2257610c21612788565b5b826005811115610c3557610c34612788565b5b14610c3f57600080fd5b600454421115610c7e57610c5161031a565b7f0827f1eff1e08734db2dd5d48026bbd6a3c6d84959a04390246cf09f83c8138260405160405180910390a15b6001600560006101000a81548160ff02191690836005811115610ca457610ca3612788565b5b02179055507f0a97a4ee45751e2abf3e4fc8946939630b11b371ea8ae39ccdc3056e98f5cc3f60006001604051610cdc9291906122a6565b60405180910390a15050565b600a602052806000526040600020600091509050806000018054610d0b906126cc565b80601f0160208091040260200160405190810160405280929190818152602001828054610d37906126cc565b8015610d845780601f10610d5957610100808354040283529160200191610d84565b820191906000526020600020905b815481529060010190602001808311610d6757829003601f168201915b505050505090806001018054610d99906126cc565b80601f0160208091040260200160405190810160405280929190818152602001828054610dc5906126cc565b8015610e125780601f10610de757610100808354040283529160200191610e12565b820191906000526020600020905b815481529060010190602001808311610df557829003601f168201915b5050505050908060020154908060030154908060040154908060050154908060060160009054906101000a900460ff16905087565b60015481565b600360009054906101000a900473ffffffffffffffffffffffffffffffffffffffff1681565b600580811115610e8657610e85612788565b5b600560009054906101000a900460ff166005811115610ea857610ea7612788565b5b1415610ee9576040517f08c379a0000000000000000000000000000000000000000000000000000000008152600401610ee09061240c565b60405180910390fd5b600260009054906101000a900473ffffffffffffffffffffffffffffffffffffffff1673ffffffffffffffffffffffffffffffffffffffff163373ffffffffffffffffffffffffffffffffffffffff1614610f79576040517f08c379a0000000000000000000000000000000000000000000000000000000008152600401610f709061236c565b60405180910390fd5b600560009054906101000a900460ff166000806005811115610f9e57610f9d612788565b5b826005811115610fb157610fb0612788565b5b14610fbb57600080fd5b600454421115610ffa57610fcd61031a565b7f0827f1eff1e08734db2dd5d48026bbd6a3c6d84959a04390246cf09f83c8138260405160405180910390a15b6000600181819054906101000a900460ff16809291906110199061272f565b91906101000a81548160ff021916908360ff1602179055505061104e600060019054906101000a900460ff1660ff168461189b565b7fb2b3a6cae014e777a38588687036f49746e93cd5787e86f03d667e6634a1d373600060019054906101000a900460ff1660405161108c91906124c5565b60405180910390a1505050565b6110a1611a29565b6000806005808111156110b7576110b6612788565b5b600560009054906101000a900460ff1660058111156110d9576110d8612788565b5b141561111a576040517f08c379a00000000000000000000000000000000000000000000000000000000081526004016111119061240c565b60405180910390fd5b6006600154600260009054906101000a900473ffffffffffffffffffffffffffffffffffffffff168260405180608001604052908160008201805461115e906126cc565b80601f016020809104026020016040519081016040528092919081815260200182805461118a906126cc565b80156111d75780601f106111ac576101008083540402835291602001916111d7565b820191906000526020600020905b8154815290600101906020018083116111ba57829003601f168201915b505050505081526020016001820180546111f0906126cc565b80601f016020809104026020016040519081016040528092919081815260200182805461121c906126cc565b80156112695780601f1061123e57610100808354040283529160200191611269565b820191906000526020600020905b81548152906001019060200180831161124c57829003601f168201915b50505050508152602001600282015481526020016003820154815250509250925092509250909192565b3373ffffffffffffffffffffffffffffffffffffffff16600360009054906101000a900473ffffffffffffffffffffffffffffffffffffffff1673ffffffffffffffffffffffffffffffffffffffff1614611323576040517f08c379a000000000000000000000000000000000000000000000000000000000815260040161131a9061238c565b60405180910390fd5b80600360006101000a81548173ffffffffffffffffffffffffffffffffffffffff021916908373ffffffffffffffffffffffffffffffffffffffff16021790555050565b60058081111561137a57611379612788565b5b600560009054906101000a900460ff16600581111561139c5761139b612788565b5b14156113dd576040517f08c379a00000000000000000000000000000000000000000000000000000000081526004016113d49061240c565b60405180910390fd5b600260009054906101000a900473ffffffffffffffffffffffffffffffffffffffff1673ffffffffffffffffffffffffffffffffffffffff163373ffffffffffffffffffffffffffffffffffffffff161461146d576040517f08c379a00000000000000000000000000000000000000000000000000000000081526004016114649061236c565b60405180910390fd5b600560009054906101000a900460ff16600080600581111561149257611491612788565b5b8260058111156114a5576114a4612788565b5b146114af57600080fd5b6004544211156114ee576114c161031a565b7f0827f1eff1e08734db2dd5d48026bbd6a3c6d84959a04390246cf09f83c8138260405160405180910390a15b600060019054906101000a900460ff1660ff16831115611543576040517f08c379a000000000000000000000000000000000000000000000000000000000815260040161153a906123cc565b60405180910390fd5b82600060019054906101000a900460ff1660ff161461162c57600a60008060019054906101000a900460ff1660ff168152602001908152602001600020600a600085815260200190815260200160002060008201816000019080546115a7906126cc565b6115b2929190611a51565b5060018201816001019080546115c7906126cc565b6115d2929190611a51565b50600282015481600201556003820154816003015560048201548160040155600582015481600501556006820160009054906101000a900460ff168160060160006101000a81548160ff0219169083151502179055509050505b600a60008060019054906101000a900460ff1660ff168152602001908152602001600020600080820160006116619190611ade565b6001820160006116719190611ade565b60028201600090556003820160009055600482016000905560058201600090556006820160006101000a81549060ff021916905550506000600181819054906101000a900460ff16809291906116c6906126a2565b91906101000a81548160ff021916908360ff160217905550507f0827f1eff1e08734db2dd5d48026bbd6a3c6d84959a04390246cf09f83c8138260405160405180910390a1505050565b600081600001515111611758576040517f08c379a000000000000000000000000000000000000000000000000000000000815260040161174f9061244c565b60405180910390fd5b6000816020015151116117a0576040517f08c379a0000000000000000000000000000000000000000000000000000000008152600401611797906123ec565b60405180910390fd5b612710816040015110156117e9576040517f08c379a00000000000000000000000000000000000000000000000000000000081526004016117e0906123ac565b60405180910390fd5b806060015162093a806001546117ff919061257e565b1115611840576040517f08c379a00000000000000000000000000000000000000000000000000000000081526004016118379061234c565b60405180910390fd5b80600001516006600001908051906020019061185d929190611b1e565b5080602001516006600101908051906020019061187b929190611b1e565b508060400151600660020181905550806060015160066003018190555050565b6000816000015151116118e3576040517f08c379a00000000000000000000000000000000000000000000000000000000081526004016118da9061244c565b60405180910390fd5b60008160200151511161192b576040517f08c379a0000000000000000000000000000000000000000000000000000000008152600401611922906123ec565b60405180910390fd5b611933611ba4565b8160000151816000018190525081602001518160200181905250816040015181604001818152505081608001518160800181815250508160a001518160a00181815250508160c001518160c001901515908115158152505080600a600085815260200190815260200160002060008201518160000190805190602001906119bb929190611b1e565b5060208201518160010190805190602001906119d8929190611b1e565b5060408201518160020155606082015181600301556080820151816004015560a0820151816005015560c08201518160060160006101000a81548160ff021916908315150217905550905050505050565b6040518060800160405280606081526020016060815260200160008152602001600081525090565b828054611a5d906126cc565b90600052602060002090601f016020900481019282611a7f5760008555611acd565b82601f10611a905780548555611acd565b82800160010185558215611acd57600052602060002091601f016020900482015b82811115611acc578254825591600101919060010190611ab1565b5b509050611ada9190611be3565b5090565b508054611aea906126cc565b6000825580601f10611afc5750611b1b565b601f016020900490600052602060002090810190611b1a9190611be3565b5b50565b828054611b2a906126cc565b90600052602060002090601f016020900481019282611b4c5760008555611b93565b82601f10611b6557805160ff1916838001178555611b93565b82800160010185558215611b93579182015b82811115611b92578251825591602001919060010190611b77565b5b509050611ba09190611be3565b5090565b6040518060e001604052806060815260200160608152602001600081526020016000815260200160008152602001600081526020016000151581525090565b5b80821115611bfc576000816000905550600101611be4565b5090565b6000611c13611c0e84612520565b6124fb565b905082815260208101848484011115611c2f57611c2e612824565b5b611c3a848285612660565b509392505050565b600081359050611c51816129ef565b92915050565b600081359050611c6681612a06565b92915050565b600081519050611c7b81612a06565b92915050565b600082601f830112611c9657611c95612815565b5b8135611ca6848260208601611c00565b91505092915050565b600060808284031215611cc557611cc461281a565b5b611ccf60806124fb565b9050600082013567ffffffffffffffff811115611cef57611cee61281f565b5b611cfb84828501611c81565b600083015250602082013567ffffffffffffffff811115611d1f57611d1e61281f565b5b611d2b84828501611c81565b6020830152506040611d3f84828501611e4b565b6040830152506060611d5384828501611e4b565b60608301525092915050565b600060e08284031215611d7557611d7461281a565b5b611d7f60e06124fb565b9050600082013567ffffffffffffffff811115611d9f57611d9e61281f565b5b611dab84828501611c81565b600083015250602082013567ffffffffffffffff811115611dcf57611dce61281f565b5b611ddb84828501611c81565b6020830152506040611def84828501611e4b565b6040830152506060611e0384828501611e4b565b6060830152506080611e1784828501611e4b565b60808301525060a0611e2b84828501611e4b565b60a08301525060c0611e3f84828501611c57565b60c08301525092915050565b600081359050611e5a81612a1d565b92915050565b600060208284031215611e7657611e7561282e565b5b6000611e8484828501611c42565b91505092915050565b600060208284031215611ea357611ea261282e565b5b6000611eb184828501611c6c565b91505092915050565b600060208284031215611ed057611ecf61282e565b5b600082013567ffffffffffffffff811115611eee57611eed612829565b5b611efa84828501611caf565b91505092915050565b600060208284031215611f1957611f1861282e565b5b600082013567ffffffffffffffff811115611f3757611f36612829565b5b611f4384828501611d5f565b91505092915050565b60008060408385031215611f6357611f6261282e565b5b600083013567ffffffffffffffff811115611f8157611f80612829565b5b611f8d85828601611d5f565b9250506020611f9e85828601611e4b565b9150509250929050565b600060208284031215611fbe57611fbd61282e565b5b6000611fcc84828501611e4b565b91505092915050565b611fde816125d4565b82525050565b611fed816125e6565b82525050565b611ffc8161263c565b82525050565b600061200d82612551565b612017818561255c565b935061202781856020860161266f565b61203081612833565b840191505092915050565b600061204682612551565b612050818561256d565b935061206081856020860161266f565b61206981612833565b840191505092915050565b6000612081601b8361256d565b915061208c82612844565b602082019050919050565b60006120a4600f8361256d565b91506120af8261286d565b602082019050919050565b60006120c7601a8361256d565b91506120d282612896565b602082019050919050565b60006120ea601d8361256d565b91506120f5826128bf565b602082019050919050565b600061210d60158361256d565b9150612118826128e8565b602082019050919050565b600061213060178361256d565b915061213b82612911565b602082019050919050565b600061215360168361256d565b915061215e8261293a565b602082019050919050565b6000612176603a8361256d565b915061218182612963565b604082019050919050565b600061219960118361256d565b91506121a4826129b2565b602082019050919050565b600060808301600083015184820360008601526121cc8282612002565b915050602083015184820360208601526121e68282612002565b91505060408301516121fb6040860182612219565b50606083015161220e6060860182612219565b508091505092915050565b61222281612625565b82525050565b61223181612625565b82525050565b6122408161264e565b82525050565b61224f8161262f565b82525050565b600060208201905061226a6000830184611fd5565b92915050565b60006020820190506122856000830184611fe4565b92915050565b60006020820190506122a06000830184611ff3565b92915050565b60006040820190506122bb6000830185611ff3565b6122c86020830184611ff3565b9392505050565b600060e08201905081810360008301526122e9818a61203b565b905081810360208301526122fd818961203b565b905061230c6040830188612228565b6123196060830187612228565b6123266080830186612228565b61233360a0830185612228565b61234060c0830184611fe4565b98975050505050505050565b6000602082019050818103600083015261236581612074565b9050919050565b6000602082019050818103600083015261238581612097565b9050919050565b600060208201905081810360008301526123a5816120ba565b9050919050565b600060208201905081810360008301526123c5816120dd565b9050919050565b600060208201905081810360008301526123e581612100565b9050919050565b6000602082019050818103600083015261240581612123565b9050919050565b6000602082019050818103600083015261242581612146565b9050919050565b6000602082019050818103600083015261244581612169565b9050919050565b600060208201905081810360008301526124658161218c565b9050919050565b6000606082019050818103600083015261248681866121af565b90506124956020830185612228565b6124a26040830184611fd5565b949350505050565b60006020820190506124bf6000830184612228565b92915050565b60006020820190506124da6000830184612237565b92915050565b60006020820190506124f56000830184612246565b92915050565b6000612505612516565b905061251182826126fe565b919050565b6000604051905090565b600067ffffffffffffffff82111561253b5761253a6127e6565b5b61254482612833565b9050602081019050919050565b600081519050919050565b600082825260208201905092915050565b600082825260208201905092915050565b600061258982612625565b915061259483612625565b9250827fffffffffffffffffffffffffffffffffffffffffffffffffffffffffffffffff038211156125c9576125c8612759565b5b828201905092915050565b60006125df82612605565b9050919050565b60008115159050919050565b6000819050612600826129db565b919050565b600073ffffffffffffffffffffffffffffffffffffffff82169050919050565b6000819050919050565b600060ff82169050919050565b6000612647826125f2565b9050919050565b60006126598261262f565b9050919050565b82818337600083830152505050565b60005b8381101561268d578082015181840152602081019050612672565b8381111561269c576000848401525b50505050565b60006126ad8261262f565b915060008214156126c1576126c0612759565b5b600182039050919050565b600060028204905060018216806126e457607f821691505b602082108114156126f8576126f76127b7565b5b50919050565b61270782612833565b810181811067ffffffffffffffff82111715612726576127256127e6565b5b80604052505050565b600061273a8261262f565b915060ff82141561274e5761274d612759565b5b600182019050919050565b7f4e487b7100000000000000000000000000000000000000000000000000000000600052601160045260246000fd5b7f4e487b7100000000000000000000000000000000000000000000000000000000600052602160045260246000fd5b7f4e487b7100000000000000000000000000000000000000000000000000000000600052602260045260246000fd5b7f4e487b7100000000000000000000000000000000000000000000000000000000600052604160045260246000fd5b600080fd5b600080fd5b600080fd5b600080fd5b600080fd5b600080fd5b6000601f19601f8301169050919050565b7f214572723a20646561646c696e654461746520746f2073686f72740000000000600082015250565b7f214e6f7420417574686f72697a65640000000000000000000000000000000000600082015250565b7f214572723a204e6f7420466163746f727920436f6e7472616374000000000000600082015250565b7f214572723a2046756e64696e6720476f616c206e6f7420656e6f756768000000600082015250565b7f214572723a20496e646578206e6f742065786973740000000000000000000000600082015250565b7f214572723a204465736372697074696f6e20656d707479000000000000000000600082015250565b7f214572723a2043616d706169676e2044656c6574656400000000000000000000600082015250565b7f214572723a2043616e6e6f742064656c6574652043616d706169676e2061742060008201527f74686973207374616765206f662074686520776f726b666c6f77000000000000602082015250565b7f214572723a205469746c6520656d707479000000000000000000000000000000600082015250565b600681106129ec576129eb612788565b5b50565b6129f8816125d4565b8114612a0357600080fd5b50565b612a0f816125e6565b8114612a1a57600080fd5b50565b612a2681612625565b8114612a3157600080fd5b5056fea2646970667358221220ec959f8f7b078e7defd2265935679a7f0bec8c5fa083c4411aec31e1ffc902c664736f6c63430008060033",
  "immutableReferences": {},
  "source": "// SPDX-License-Identifier: GPL-3.0\r\npragma solidity 0.8.6;\r\n\r\nimport \"./interfaces/ICampaign.sol\";\r\nimport \"./interfaces/ICampaignFactory.sol\";\r\n\r\ncontract Campaign is ICampaign {\r\n\r\n    bool public isDisabled;\r\n    uint8 public rewardsCounter;\r\n    uint256 public createAt;\r\n    address public manager;\r\n    address public factory;\r\n    uint256 public publishDeadline;\r\n    WorkflowStatus public status;\r\n\r\n    Info private campaignInfo;\r\n    mapping(uint => Rewards) public rewardsList;\r\n\r\n    //    Events\r\n    event newCampaign();\r\n    event CampaignNewRewardsAdded(uint rewardsCounter);\r\n    event CampaignInfoUpdated();\r\n    event CampaignRewardsUpdated();\r\n    event CampaignDisabled();\r\n    event CampaignRewardDeleted();\r\n    event WorkflowStatusChange(\r\n        WorkflowStatus previousStatus,\r\n        WorkflowStatus newStatus\r\n    );\r\n\r\n    //Modifiers\r\n    modifier isNotDeleted(){\r\n        require(status != WorkflowStatus.CampaignDeleted, \"!Err: Campaign Deleted\");\r\n        _;\r\n    }\r\n\r\n    modifier onlyManager(){\r\n        require(msg.sender == manager, \"!Not Authorized\");\r\n        _;\r\n    }\r\n\r\n    modifier checkStatus(\r\n        WorkflowStatus currentStatus,\r\n        WorkflowStatus requiredStatus\r\n    ) {\r\n        require(currentStatus == requiredStatus);\r\n        _;\r\n    }\r\n\r\n    modifier checkPublishDeadline() {\r\n        if (block.timestamp > publishDeadline) {\r\n            deleteCampaign();\r\n            emit CampaignRewardDeleted();\r\n        }\r\n        _;\r\n    }\r\n\r\n    constructor(Info memory infoData, Rewards[] memory rewardsData, address _manager)\r\n    {\r\n        require(rewardsData.length > 0, \"!Err: Rewards empty\");\r\n        require(rewardsData.length <= 10, \"!Err: Too much Rewards\");\r\n        manager = _manager;\r\n        factory = msg.sender;\r\n        createAt = block.timestamp;\r\n        publishDeadline = infoData.deadlineDate + 10 days;\r\n        status = WorkflowStatus.CampaignDrafted;\r\n        _setCampaignInfo(infoData);\r\n        for (rewardsCounter; rewardsCounter < rewardsData.length; rewardsCounter++) {\r\n            _setCampaignReward(rewardsCounter, rewardsData[rewardsCounter]);\r\n        }\r\n    }\r\n\r\n    /**\r\n     * @inheritdoc ICampaign\r\n     */\r\n    function getCampaignInfo() external override isNotDeleted() returns(Info memory, uint, address) {\r\n        return (campaignInfo, createAt, manager);\r\n    }\r\n\r\n    /**\r\n     * @inheritdoc ICampaign\r\n     */\r\n    function updateCampaign(Info memory newInfo) external override isNotDeleted() onlyManager() checkStatus(status, WorkflowStatus.CampaignDrafted) checkPublishDeadline() {\r\n        _setCampaignInfo(newInfo);\r\n        emit CampaignInfoUpdated();\r\n    }\r\n\r\n    /**\r\n     * @inheritdoc ICampaign\r\n     */\r\n    function addReward(Rewards memory newRewardData) external override isNotDeleted() onlyManager() checkStatus(status, WorkflowStatus.CampaignDrafted) checkPublishDeadline() {\r\n        rewardsCounter++;\r\n        _setCampaignReward(rewardsCounter, newRewardData);\r\n        emit CampaignNewRewardsAdded(rewardsCounter);\r\n    }\r\n\r\n    /**\r\n     * @inheritdoc ICampaign\r\n     */\r\n    function updateReward(Rewards memory newRewardData, uint rewardIndex) external override isNotDeleted() onlyManager() checkStatus(status, WorkflowStatus.CampaignDrafted) checkPublishDeadline() {\r\n        require(rewardIndex <= rewardsCounter, \"!Err: Index not exist\");\r\n        _setCampaignReward(rewardIndex, newRewardData);\r\n        emit CampaignRewardsUpdated();\r\n    }\r\n\r\n    /**\r\n    * @notice Internal function that set a new campaign's info and making data validation first.\r\n    * @param data Info Object that contains the Info data following the Info struct\r\n    */\r\n    function _setCampaignInfo(Info memory data) private {\r\n        require(bytes(data.title).length > 0, \"!Err: Title empty\");\r\n        require(bytes(data.description).length > 0, \"!Err: Description empty\");\r\n        require(data.fundingGoal >= 10000, \"!Err: Funding Goal not enough\");\r\n        require(createAt + 7 days <= data.deadlineDate, \"!Err: deadlineDate to short\");\r\n        campaignInfo.title = data.title;\r\n        campaignInfo.description = data.description;\r\n        campaignInfo.fundingGoal = data.fundingGoal;\r\n        campaignInfo.deadlineDate = data.deadlineDate;\r\n    }\r\n\r\n    /**\r\n     * @notice Internal function that set a new campaign's reward level and making data validation first.\r\n     * @param index uint Index of the reward to add\r\n     * @param data Rewards Object that contains the Reward data following the Rewards struct\r\n     */\r\n    function _setCampaignReward(uint index, Rewards memory data) private {\r\n        require(bytes(data.title).length > 0, \"!Err: Title empty\");\r\n        require(bytes(data.description).length > 0, \"!Err: Description empty\");\r\n        Rewards memory r;\r\n        r.title = data.title;\r\n        r.description = data.description;\r\n        r.minimumContribution = data.minimumContribution;\r\n        r.stockLimit = data.stockLimit;\r\n        r.nbContributors = data.nbContributors;\r\n        r.isStockLimited = data.isStockLimited;\r\n        rewardsList[index] = r;\r\n    }\r\n\r\n    /**\r\n     * @inheritdoc ICampaign\r\n     */\r\n    function deleteCampaign() public override isNotDeleted() onlyManager() {\r\n        require(status == WorkflowStatus.CampaignDrafted || status == WorkflowStatus.FundingFailed || status == WorkflowStatus.CampaignCompleted, \"!Err: Cannot delete Campaign at this stage of the workflow\");\r\n        status = WorkflowStatus.CampaignDeleted;\r\n        ICampaignFactory(factory).deleteCampaign();\r\n        emit CampaignDisabled();\r\n    }\r\n\r\n    /**\r\n     * @inheritdoc ICampaign\r\n     */\r\n    function deleteReward(uint256 rewardIndex) external override isNotDeleted() onlyManager() checkStatus(status, WorkflowStatus.CampaignDrafted) checkPublishDeadline() {\r\n        require(rewardIndex <= rewardsCounter, \"!Err: Index not exist\");\r\n        if(rewardsCounter!=rewardIndex){\r\n            rewardsList[rewardIndex] = rewardsList[rewardsCounter];\r\n        }\r\n        delete rewardsList[rewardsCounter];\r\n        rewardsCounter--;\r\n        emit CampaignRewardDeleted();\r\n    }\r\n\r\n    /**\r\n     * @inheritdoc ICampaign\r\n     */\r\n    function updateManager(address newManager) external override onlyManager() {\r\n        manager = newManager;\r\n    }\r\n\r\n    /**\r\n     * @inheritdoc ICampaign\r\n     */\r\n    function updateFactory(address newFactory) external override {\r\n        require(factory == msg.sender, \"!Err: Not Factory Contract\");\r\n        factory = newFactory;\r\n    }\r\n\r\n    function publishCampaign() external override isNotDeleted() onlyManager() checkStatus(status, WorkflowStatus.CampaignDrafted) checkPublishDeadline() {\r\n        status = WorkflowStatus.CampaignPublished;\r\n        emit WorkflowStatusChange(WorkflowStatus.CampaignDrafted, WorkflowStatus.CampaignPublished);\r\n    }\r\n}\r\n",
  "sourcePath": "A:\\Programing\\Projet_Final\\SparkUp\\contracts\\Campaign.sol",
  "compiler": {
    "name": "solc",
    "version": "0.8.6+commit.11564f7e.Emscripten.clang"
  },
  "schemaVersion": "3.4.1",
  "updatedAt": "2021-07-24T11:54:21.975Z",
  "devdoc": {
    "kind": "dev",
    "methods": {
      "addReward((string,string,uint256,uint256,uint256,uint256,bool))": {
        "details": "Only the manager must be able to call it.",
        "params": {
          "newRewardData": "Rewards Object that contains all the needed information following the Rewards struct for the campaign"
        }
      },
      "deleteCampaign()": {
        "details": "It's the entry point for deleting a campaign. Only the manager must be able to call it"
      },
      "deleteReward(uint256)": {
        "details": "Only the manager must be able to call it.",
        "params": {
          "rewardIndex": "uint256 Index of the reward to delete"
        }
      },
      "updateCampaign((string,string,uint256,uint256))": {
        "details": "Only the manager must be able to call it.",
        "params": {
          "updatedInfoData": "Info Object that contains all the new information following the Info struct for the campaign"
        }
      },
      "updateFactory(address)": {
        "details": "Used for mainly for pointing the right factory during the deletion",
        "params": {
          "newFactory": "address Address of the new factory"
        }
      },
      "updateManager(address)": {
        "details": "Only the manager must be able to call it.",
        "params": {
          "newManager": "address Address of the new manager"
        }
      },
      "updateReward((string,string,uint256,uint256,uint256,uint256,bool),uint256)": {
        "details": "Only the manager must be able to call it.",
        "params": {
          "newRewardData": "Rewards Object that contains the new data to set following the Rewards struct for the campaign",
          "rewardIndex": "uint256 Index of the reward to update"
        }
      }
    },
    "version": 1
  },
  "userdoc": {
    "kind": "user",
    "methods": {
      "addReward((string,string,uint256,uint256,uint256,uint256,bool))": {
        "notice": "Add a new reward level to the campaign."
      },
      "deleteCampaign()": {
        "notice": "Delete the campaign."
      },
      "deleteReward(uint256)": {
        "notice": "Delete a reward by its Id."
      },
      "getCampaignInfo()": {
        "notice": "Returns the campaign information in the struct Info plus de createAt and the managerAddress."
      },
      "updateCampaign((string,string,uint256,uint256))": {
        "notice": "Update the campaign information in the struct Info."
      },
      "updateFactory(address)": {
        "notice": "Allow the factory to setup a new one in case of migration."
      },
      "updateManager(address)": {
        "notice": "Allow the manager to setup a new one."
      },
      "updateReward((string,string,uint256,uint256,uint256,uint256,bool),uint256)": {
        "notice": "Update the data of a specific reward regarding its id."
      }
    },
    "version": 1
  }
}