{
  "contractName": "Campaign",
  "abi": [
    {
      "inputs": [
        {
          "components": [
            {
              "internalType": "string",
              "name": "title",
              "type": "string"
            },
            {
              "internalType": "string",
              "name": "description",
              "type": "string"
            },
            {
              "internalType": "uint256",
              "name": "fundingGoal",
              "type": "uint256"
            },
            {
              "internalType": "uint256",
              "name": "deadlineDate",
              "type": "uint256"
            }
          ],
          "internalType": "struct ICampaign.Info",
          "name": "infoData",
          "type": "tuple"
        },
        {
          "components": [
            {
              "internalType": "string",
              "name": "title",
              "type": "string"
            },
            {
              "internalType": "string",
              "name": "description",
              "type": "string"
            },
            {
              "internalType": "uint256",
              "name": "minimumContribution",
              "type": "uint256"
            },
            {
              "internalType": "uint256",
              "name": "amount",
              "type": "uint256"
            },
            {
              "internalType": "uint256",
              "name": "stockLimit",
              "type": "uint256"
            },
            {
              "internalType": "uint256",
              "name": "nbContributors",
              "type": "uint256"
            },
            {
              "internalType": "bool",
              "name": "isStockLimited",
              "type": "bool"
            }
          ],
          "internalType": "struct ICampaign.Rewards[]",
          "name": "rewardsData",
          "type": "tuple[]"
        },
        {
          "internalType": "address",
          "name": "_manager",
          "type": "address"
        }
      ],
      "stateMutability": "nonpayable",
      "type": "constructor"
    },
    {
      "anonymous": false,
      "inputs": [],
      "name": "CampaignDisabled",
      "type": "event"
    },
    {
      "anonymous": false,
      "inputs": [],
      "name": "CampaignInfoUpdated",
      "type": "event"
    },
    {
      "anonymous": false,
      "inputs": [
        {
          "indexed": false,
          "internalType": "uint256",
          "name": "rewardsCounter",
          "type": "uint256"
        }
      ],
      "name": "CampaignNewRewardsAdded",
      "type": "event"
    },
    {
      "anonymous": false,
      "inputs": [],
      "name": "CampaignPublished",
      "type": "event"
    },
    {
      "anonymous": false,
      "inputs": [],
      "name": "CampaignRewardDeleted",
      "type": "event"
    },
    {
      "anonymous": false,
      "inputs": [],
      "name": "CampaignRewardsUpdated",
      "type": "event"
    },
    {
      "anonymous": false,
      "inputs": [
        {
          "indexed": false,
          "internalType": "enum ICampaign.WorkflowStatus",
          "name": "previousStatus",
          "type": "uint8"
        },
        {
          "indexed": false,
          "internalType": "enum ICampaign.WorkflowStatus",
          "name": "newStatus",
          "type": "uint8"
        }
      ],
      "name": "WorkflowStatusChange",
      "type": "event"
    },
    {
      "anonymous": false,
      "inputs": [],
      "name": "newCampaign",
      "type": "event"
    },
    {
      "inputs": [],
      "name": "createAt",
      "outputs": [
        {
          "internalType": "uint256",
          "name": "",
          "type": "uint256"
        }
      ],
      "stateMutability": "view",
      "type": "function"
    },
    {
      "inputs": [],
      "name": "factory",
      "outputs": [
        {
          "internalType": "address",
          "name": "",
          "type": "address"
        }
      ],
      "stateMutability": "view",
      "type": "function"
    },
    {
      "inputs": [],
      "name": "isDisabled",
      "outputs": [
        {
          "internalType": "bool",
          "name": "",
          "type": "bool"
        }
      ],
      "stateMutability": "view",
      "type": "function"
    },
    {
      "inputs": [],
      "name": "manager",
      "outputs": [
        {
          "internalType": "address",
          "name": "",
          "type": "address"
        }
      ],
      "stateMutability": "view",
      "type": "function"
    },
    {
      "inputs": [],
      "name": "publishDeadline",
      "outputs": [
        {
          "internalType": "uint256",
          "name": "",
          "type": "uint256"
        }
      ],
      "stateMutability": "view",
      "type": "function"
    },
    {
      "inputs": [],
      "name": "rewardsCounter",
      "outputs": [
        {
          "internalType": "uint8",
          "name": "",
          "type": "uint8"
        }
      ],
      "stateMutability": "view",
      "type": "function"
    },
    {
      "inputs": [
        {
          "internalType": "uint256",
          "name": "",
          "type": "uint256"
        }
      ],
      "name": "rewardsList",
      "outputs": [
        {
          "internalType": "string",
          "name": "title",
          "type": "string"
        },
        {
          "internalType": "string",
          "name": "description",
          "type": "string"
        },
        {
          "internalType": "uint256",
          "name": "minimumContribution",
          "type": "uint256"
        },
        {
          "internalType": "uint256",
          "name": "amount",
          "type": "uint256"
        },
        {
          "internalType": "uint256",
          "name": "stockLimit",
          "type": "uint256"
        },
        {
          "internalType": "uint256",
          "name": "nbContributors",
          "type": "uint256"
        },
        {
          "internalType": "bool",
          "name": "isStockLimited",
          "type": "bool"
        }
      ],
      "stateMutability": "view",
      "type": "function"
    },
    {
      "inputs": [],
      "name": "status",
      "outputs": [
        {
          "internalType": "enum ICampaign.WorkflowStatus",
          "name": "",
          "type": "uint8"
        }
      ],
      "stateMutability": "view",
      "type": "function"
    },
    {
      "inputs": [],
      "name": "getCampaignInfo",
      "outputs": [
        {
          "components": [
            {
              "internalType": "string",
              "name": "title",
              "type": "string"
            },
            {
              "internalType": "string",
              "name": "description",
              "type": "string"
            },
            {
              "internalType": "uint256",
              "name": "fundingGoal",
              "type": "uint256"
            },
            {
              "internalType": "uint256",
              "name": "deadlineDate",
              "type": "uint256"
            }
          ],
          "internalType": "struct ICampaign.Info",
          "name": "",
          "type": "tuple"
        },
        {
          "internalType": "uint256",
          "name": "",
          "type": "uint256"
        },
        {
          "internalType": "address",
          "name": "",
          "type": "address"
        }
      ],
      "stateMutability": "view",
      "type": "function"
    },
    {
      "inputs": [
        {
          "components": [
            {
              "internalType": "string",
              "name": "title",
              "type": "string"
            },
            {
              "internalType": "string",
              "name": "description",
              "type": "string"
            },
            {
              "internalType": "uint256",
              "name": "fundingGoal",
              "type": "uint256"
            },
            {
              "internalType": "uint256",
              "name": "deadlineDate",
              "type": "uint256"
            }
          ],
          "internalType": "struct ICampaign.Info",
          "name": "newInfo",
          "type": "tuple"
        }
      ],
      "name": "updateCampaign",
      "outputs": [],
      "stateMutability": "nonpayable",
      "type": "function"
    },
    {
      "inputs": [
        {
          "components": [
            {
              "internalType": "string",
              "name": "title",
              "type": "string"
            },
            {
              "internalType": "string",
              "name": "description",
              "type": "string"
            },
            {
              "internalType": "uint256",
              "name": "minimumContribution",
              "type": "uint256"
            },
            {
              "internalType": "uint256",
              "name": "amount",
              "type": "uint256"
            },
            {
              "internalType": "uint256",
              "name": "stockLimit",
              "type": "uint256"
            },
            {
              "internalType": "uint256",
              "name": "nbContributors",
              "type": "uint256"
            },
            {
              "internalType": "bool",
              "name": "isStockLimited",
              "type": "bool"
            }
          ],
          "internalType": "struct ICampaign.Rewards",
          "name": "newRewardData",
          "type": "tuple"
        }
      ],
      "name": "addReward",
      "outputs": [],
      "stateMutability": "nonpayable",
      "type": "function"
    },
    {
      "inputs": [
        {
          "components": [
            {
              "internalType": "string",
              "name": "title",
              "type": "string"
            },
            {
              "internalType": "string",
              "name": "description",
              "type": "string"
            },
            {
              "internalType": "uint256",
              "name": "minimumContribution",
              "type": "uint256"
            },
            {
              "internalType": "uint256",
              "name": "amount",
              "type": "uint256"
            },
            {
              "internalType": "uint256",
              "name": "stockLimit",
              "type": "uint256"
            },
            {
              "internalType": "uint256",
              "name": "nbContributors",
              "type": "uint256"
            },
            {
              "internalType": "bool",
              "name": "isStockLimited",
              "type": "bool"
            }
          ],
          "internalType": "struct ICampaign.Rewards",
          "name": "newRewardData",
          "type": "tuple"
        },
        {
          "internalType": "uint256",
          "name": "rewardIndex",
          "type": "uint256"
        }
      ],
      "name": "updateReward",
      "outputs": [],
      "stateMutability": "nonpayable",
      "type": "function"
    },
    {
      "inputs": [],
      "name": "deleteCampaign",
      "outputs": [],
      "stateMutability": "nonpayable",
      "type": "function"
    },
    {
      "inputs": [
        {
          "internalType": "uint256",
          "name": "rewardIndex",
          "type": "uint256"
        }
      ],
      "name": "deleteReward",
      "outputs": [],
      "stateMutability": "nonpayable",
      "type": "function"
    },
    {
      "inputs": [
        {
          "internalType": "address",
          "name": "newManager",
          "type": "address"
        }
      ],
      "name": "updateManager",
      "outputs": [],
      "stateMutability": "nonpayable",
      "type": "function"
    },
    {
      "inputs": [
        {
          "internalType": "address",
          "name": "newFactory",
          "type": "address"
        }
      ],
      "name": "updateFactory",
      "outputs": [],
      "stateMutability": "nonpayable",
      "type": "function"
    },
    {
      "inputs": [],
      "name": "publishCampaign",
      "outputs": [],
      "stateMutability": "nonpayable",
      "type": "function"
    }
  ],
  "bytecode": "0x60806040523480156200001157600080fd5b5060405162003ce738038062003ce78339818101604052810190620000379190620009f0565b60008251116200007e576040517f08c379a0000000000000000000000000000000000000000000000000000000008152600401620000759062000bda565b60405180910390fd5b600a82511115620000c6576040517f08c379a0000000000000000000000000000000000000000000000000000000008152600401620000bd9062000b74565b60405180910390fd5b80600260006101000a81548173ffffffffffffffffffffffffffffffffffffffff021916908373ffffffffffffffffffffffffffffffffffffffff16021790555033600360006101000a81548173ffffffffffffffffffffffffffffffffffffffff021916908373ffffffffffffffffffffffffffffffffffffffff16021790555042600181905550620d2f00836060015162000164919062000cdf565b6004819055506000600560006101000a81548160ff0219169083600581111562000193576200019262000e93565b5b0217905550620001a9836200027060201b60201c565b600060019054906101000a9050505b8151600060019054906101000a900460ff1660ff161015620002675762000227600060019054906101000a900460ff1660ff1683600060019054906101000a900460ff1660ff168151811062000213576200021262000ef1565b5b60200260200101516200040d60201b60201c565b6000600181819054906101000a900460ff1680929190620002489062000e35565b91906101000a81548160ff021916908360ff16021790555050620001b8565b505050620010c7565b600081600001515111620002bb576040517f08c379a0000000000000000000000000000000000000000000000000000000008152600401620002b29062000c1e565b60405180910390fd5b60008160200151511162000306576040517f08c379a0000000000000000000000000000000000000000000000000000000008152600401620002fd9062000bfc565b60405180910390fd5b6127108160400151101562000352576040517f08c379a0000000000000000000000000000000000000000000000000000000008152600401620003499062000bb8565b60405180910390fd5b806060015162093a806001546200036a919062000cdf565b1115620003ae576040517f08c379a0000000000000000000000000000000000000000000000000000000008152600401620003a59062000b96565b60405180910390fd5b806000015160066000019080519060200190620003cd929190620005a7565b50806020015160066001019080519060200190620003ed929190620005a7565b508060400151600660020181905550806060015160066003018190555050565b60008160000151511162000458576040517f08c379a00000000000000000000000000000000000000000000000000000000081526004016200044f9062000c1e565b60405180910390fd5b600081602001515111620004a3576040517f08c379a00000000000000000000000000000000000000000000000000000000081526004016200049a9062000bfc565b60405180910390fd5b620004ad62000638565b8160000151816000018190525081602001518160200181905250816040015181604001818152505081608001518160800181815250508160a001518160a00181815250508160c001518160c001901515908115158152505080600a6000858152602001908152602001600020600082015181600001908051906020019062000537929190620005a7565b50602082015181600101908051906020019062000556929190620005a7565b5060408201518160020155606082015181600301556080820151816004015560a0820151816005015560c08201518160060160006101000a81548160ff021916908315150217905550905050505050565b828054620005b59062000dc9565b90600052602060002090601f016020900481019282620005d9576000855562000625565b82601f10620005f457805160ff191683800117855562000625565b8280016001018555821562000625579182015b828111156200062457825182559160200191906001019062000607565b5b50905062000634919062000677565b5090565b6040518060e001604052806060815260200160608152602001600081526020016000815260200160008152602001600081526020016000151581525090565b5b808211156200069257600081600090555060010162000678565b5090565b6000620006ad620006a78462000c69565b62000c40565b90508083825260208201905082856020860282011115620006d357620006d262000f5e565b5b60005b858110156200072857815167ffffffffffffffff811115620006fd57620006fc62000f4f565b5b8086016200070c8982620008d4565b85526020850194506020840193505050600181019050620006d6565b5050509392505050565b600062000749620007438462000c98565b62000c40565b90508281526020810184848401111562000768576200076762000f63565b5b6200077584828562000d93565b509392505050565b6000815190506200078e8162001079565b92915050565b600082601f830112620007ac57620007ab62000f4f565b5b8151620007be84826020860162000696565b91505092915050565b600081519050620007d88162001093565b92915050565b600082601f830112620007f657620007f562000f4f565b5b81516200080884826020860162000732565b91505092915050565b6000608082840312156200082a576200082962000f54565b5b62000836608062000c40565b9050600082015167ffffffffffffffff81111562000859576200085862000f59565b5b6200086784828501620007de565b600083015250602082015167ffffffffffffffff8111156200088e576200088d62000f59565b5b6200089c84828501620007de565b6020830152506040620008b284828501620009d9565b6040830152506060620008c884828501620009d9565b60608301525092915050565b600060e08284031215620008ed57620008ec62000f54565b5b620008f960e062000c40565b9050600082015167ffffffffffffffff8111156200091c576200091b62000f59565b5b6200092a84828501620007de565b600083015250602082015167ffffffffffffffff81111562000951576200095062000f59565b5b6200095f84828501620007de565b60208301525060406200097584828501620009d9565b60408301525060606200098b84828501620009d9565b6060830152506080620009a184828501620009d9565b60808301525060a0620009b784828501620009d9565b60a08301525060c0620009cd84828501620007c7565b60c08301525092915050565b600081519050620009ea81620010ad565b92915050565b60008060006060848603121562000a0c5762000a0b62000f6d565b5b600084015167ffffffffffffffff81111562000a2d5762000a2c62000f68565b5b62000a3b8682870162000811565b935050602084015167ffffffffffffffff81111562000a5f5762000a5e62000f68565b5b62000a6d8682870162000794565b925050604062000a80868287016200077d565b9150509250925092565b600062000a9960168362000cce565b915062000aa68262000f83565b602082019050919050565b600062000ac0601b8362000cce565b915062000acd8262000fac565b602082019050919050565b600062000ae7601d8362000cce565b915062000af48262000fd5565b602082019050919050565b600062000b0e60138362000cce565b915062000b1b8262000ffe565b602082019050919050565b600062000b3560178362000cce565b915062000b428262001027565b602082019050919050565b600062000b5c60118362000cce565b915062000b698262001050565b602082019050919050565b6000602082019050818103600083015262000b8f8162000a8a565b9050919050565b6000602082019050818103600083015262000bb18162000ab1565b9050919050565b6000602082019050818103600083015262000bd38162000ad8565b9050919050565b6000602082019050818103600083015262000bf58162000aff565b9050919050565b6000602082019050818103600083015262000c178162000b26565b9050919050565b6000602082019050818103600083015262000c398162000b4d565b9050919050565b600062000c4c62000c5f565b905062000c5a828262000dff565b919050565b6000604051905090565b600067ffffffffffffffff82111562000c875762000c8662000f20565b5b602082029050602081019050919050565b600067ffffffffffffffff82111562000cb65762000cb562000f20565b5b62000cc18262000f72565b9050602081019050919050565b600082825260208201905092915050565b600062000cec8262000d7c565b915062000cf98362000d7c565b9250827fffffffffffffffffffffffffffffffffffffffffffffffffffffffffffffffff0382111562000d315762000d3062000e64565b5b828201905092915050565b600062000d498262000d5c565b9050919050565b60008115159050919050565b600073ffffffffffffffffffffffffffffffffffffffff82169050919050565b6000819050919050565b600060ff82169050919050565b60005b8381101562000db357808201518184015260208101905062000d96565b8381111562000dc3576000848401525b50505050565b6000600282049050600182168062000de257607f821691505b6020821081141562000df95762000df862000ec2565b5b50919050565b62000e0a8262000f72565b810181811067ffffffffffffffff8211171562000e2c5762000e2b62000f20565b5b80604052505050565b600062000e428262000d86565b915060ff82141562000e595762000e5862000e64565b5b600182019050919050565b7f4e487b7100000000000000000000000000000000000000000000000000000000600052601160045260246000fd5b7f4e487b7100000000000000000000000000000000000000000000000000000000600052602160045260246000fd5b7f4e487b7100000000000000000000000000000000000000000000000000000000600052602260045260246000fd5b7f4e487b7100000000000000000000000000000000000000000000000000000000600052603260045260246000fd5b7f4e487b7100000000000000000000000000000000000000000000000000000000600052604160045260246000fd5b600080fd5b600080fd5b600080fd5b600080fd5b600080fd5b600080fd5b600080fd5b6000601f19601f8301169050919050565b7f214572723a20546f6f206d756368205265776172647300000000000000000000600082015250565b7f214572723a20646561646c696e654461746520746f2073686f72740000000000600082015250565b7f214572723a2046756e64696e6720476f616c206e6f7420656e6f756768000000600082015250565b7f214572723a205265776172647320656d70747900000000000000000000000000600082015250565b7f214572723a204465736372697074696f6e20656d707479000000000000000000600082015250565b7f214572723a205469746c6520656d707479000000000000000000000000000000600082015250565b620010848162000d3c565b81146200109057600080fd5b50565b6200109e8162000d50565b8114620010aa57600080fd5b50565b620010b88162000d7c565b8114620010c457600080fd5b50565b612c1080620010d76000396000f3fe608060405234801561001057600080fd5b506004361061010b5760003560e01c80636c57f5a9116100a2578063c45a015511610071578063c45a015514610262578063d355f00614610280578063d6290cd71461029c578063d9f165dc146102bc578063e7cf1ab7146102d85761010b565b80636c57f5a9146101e65780637ef59f8414610204578063bd39e0151461020e578063bf1d4cad146102445761010b565b806337acecce116100de57806337acecce14610174578063481c6a751461019057806356212d59146101ae57806358aba00f146101ca5761010b565b8063200d2ed214610110578063205b09141461012e578063244c3c2c1461014c5780633126df5114610156575b600080fd5b6101186102f4565b60405161012591906123e8565b60405180910390f35b610136610307565b604051610143919061265d565b60405180910390f35b61015461031a565b005b61015e61060d565b60405161016b9190612627565b60405180910390f35b61018e60048036038101906101899190611ff4565b610613565b005b61019861080a565b6040516101a591906123b2565b60405180910390f35b6101c860048036038101906101c39190612086565b610830565b005b6101e460048036038101906101df9190611f9a565b610a7e565b005b6101ee610b52565b6040516101fb91906123cd565b60405180910390f35b61020c610b63565b005b610228600480360381019061022391906120e2565b610db6565b60405161023b979695949392919061242c565b60405180910390f35b61024c610f15565b6040516102599190612627565b60405180910390f35b61026a610f1b565b60405161027791906123b2565b60405180910390f35b61029a6004803603810190610295919061203d565b610f41565b005b6102a461119d565b6040516102b3939291906125e9565b60405180910390f35b6102d660048036038101906102d19190611f9a565b611397565b005b6102f260048036038101906102ed91906120e2565b61146b565b005b600560009054906101000a900460ff1681565b600060019054906101000a900460ff1681565b60058081111561032d5761032c612905565b5b600560009054906101000a900460ff16600581111561034f5761034e612905565b5b1415610390576040517f08c379a000000000000000000000000000000000000000000000000000000000815260040161038790612589565b60405180910390fd5b600260009054906101000a900473ffffffffffffffffffffffffffffffffffffffff1673ffffffffffffffffffffffffffffffffffffffff163373ffffffffffffffffffffffffffffffffffffffff1614610420576040517f08c379a0000000000000000000000000000000000000000000000000000000008152600401610417906124c9565b60405180910390fd5b6000600581111561043457610433612905565b5b600560009054906101000a900460ff16600581111561045657610455612905565b5b148061049557506003600581111561047157610470612905565b5b600560009054906101000a900460ff16600581111561049357610492612905565b5b145b806104d35750600460058111156104af576104ae612905565b5b600560009054906101000a900460ff1660058111156104d1576104d0612905565b5b145b610512576040517f08c379a0000000000000000000000000000000000000000000000000000000008152600401610509906125a9565b60405180910390fd5b60058060006101000a81548160ff0219169083600581111561053757610536612905565b5b0217905550600360009054906101000a900473ffffffffffffffffffffffffffffffffffffffff1673ffffffffffffffffffffffffffffffffffffffff1663244c3c2c6040518163ffffffff1660e01b8152600401602060405180830381600087803b1580156105a657600080fd5b505af11580156105ba573d6000803e3d6000fd5b505050506040513d601f19601f820116820180604052508101906105de9190611fc7565b507ffeb7af4852eca96c1bfc4abd1bf2029a80272acdbf1f1d1d97c47dd6388fc66960405160405180910390a1565b60045481565b60058081111561062657610625612905565b5b600560009054906101000a900460ff16600581111561064857610647612905565b5b1415610689576040517f08c379a000000000000000000000000000000000000000000000000000000000815260040161068090612589565b60405180910390fd5b600260009054906101000a900473ffffffffffffffffffffffffffffffffffffffff1673ffffffffffffffffffffffffffffffffffffffff163373ffffffffffffffffffffffffffffffffffffffff1614610719576040517f08c379a0000000000000000000000000000000000000000000000000000000008152600401610710906124c9565b60405180910390fd5b600560009054906101000a900460ff16600080600581111561073e5761073d612905565b5b82600581111561075157610750612905565b5b14610791576040517f08c379a0000000000000000000000000000000000000000000000000000000008152600401610788906124e9565b60405180910390fd5b6004544211156107d0576107a361031a565b7f0827f1eff1e08734db2dd5d48026bbd6a3c6d84959a04390246cf09f83c8138260405160405180910390a15b6107d98361184a565b7f811e66beac215e4afafaadcb6fa0f561430b1690fe0869f16abb767f166378a160405160405180910390a1505050565b600260009054906101000a900473ffffffffffffffffffffffffffffffffffffffff1681565b60058081111561084357610842612905565b5b600560009054906101000a900460ff16600581111561086557610864612905565b5b14156108a6576040517f08c379a000000000000000000000000000000000000000000000000000000000815260040161089d90612589565b60405180910390fd5b600260009054906101000a900473ffffffffffffffffffffffffffffffffffffffff1673ffffffffffffffffffffffffffffffffffffffff163373ffffffffffffffffffffffffffffffffffffffff1614610936576040517f08c379a000000000000000000000000000000000000000000000000000000000815260040161092d906124c9565b60405180910390fd5b600560009054906101000a900460ff16600080600581111561095b5761095a612905565b5b82600581111561096e5761096d612905565b5b146109ae576040517f08c379a00000000000000000000000000000000000000000000000000000000081526004016109a5906124e9565b60405180910390fd5b6004544211156109ed576109c061031a565b7f0827f1eff1e08734db2dd5d48026bbd6a3c6d84959a04390246cf09f83c8138260405160405180910390a15b600060019054906101000a900460ff1660ff16831115610a42576040517f08c379a0000000000000000000000000000000000000000000000000000000008152600401610a3990612549565b60405180910390fd5b610a4c83856119d5565b7fecf60f602773eab1fd9d40cefaf4b9841fb542d201e68a21f94d04c4febd468160405160405180910390a150505050565b600260009054906101000a900473ffffffffffffffffffffffffffffffffffffffff1673ffffffffffffffffffffffffffffffffffffffff163373ffffffffffffffffffffffffffffffffffffffff1614610b0e576040517f08c379a0000000000000000000000000000000000000000000000000000000008152600401610b05906124c9565b60405180910390fd5b80600260006101000a81548173ffffffffffffffffffffffffffffffffffffffff021916908373ffffffffffffffffffffffffffffffffffffffff16021790555050565b60008054906101000a900460ff1681565b600580811115610b7657610b75612905565b5b600560009054906101000a900460ff166005811115610b9857610b97612905565b5b1415610bd9576040517f08c379a0000000000000000000000000000000000000000000000000000000008152600401610bd090612589565b60405180910390fd5b600260009054906101000a900473ffffffffffffffffffffffffffffffffffffffff1673ffffffffffffffffffffffffffffffffffffffff163373ffffffffffffffffffffffffffffffffffffffff1614610c69576040517f08c379a0000000000000000000000000000000000000000000000000000000008152600401610c60906124c9565b60405180910390fd5b600560009054906101000a900460ff166000806005811115610c8e57610c8d612905565b5b826005811115610ca157610ca0612905565b5b14610ce1576040517f08c379a0000000000000000000000000000000000000000000000000000000008152600401610cd8906124e9565b60405180910390fd5b600454421115610d2057610cf361031a565b7f0827f1eff1e08734db2dd5d48026bbd6a3c6d84959a04390246cf09f83c8138260405160405180910390a15b6001600560006101000a81548160ff02191690836005811115610d4657610d45612905565b5b02179055507f0a97a4ee45751e2abf3e4fc8946939630b11b371ea8ae39ccdc3056e98f5cc3f60006001604051610d7e929190612403565b60405180910390a17f20ef2d2cd387cf0d96d11359a8be458897fada296539b0dea160888d0fda035960405160405180910390a15050565b600a602052806000526040600020600091509050806000018054610dd990612849565b80601f0160208091040260200160405190810160405280929190818152602001828054610e0590612849565b8015610e525780601f10610e2757610100808354040283529160200191610e52565b820191906000526020600020905b815481529060010190602001808311610e3557829003601f168201915b505050505090806001018054610e6790612849565b80601f0160208091040260200160405190810160405280929190818152602001828054610e9390612849565b8015610ee05780601f10610eb557610100808354040283529160200191610ee0565b820191906000526020600020905b815481529060010190602001808311610ec357829003601f168201915b5050505050908060020154908060030154908060040154908060050154908060060160009054906101000a900460ff16905087565b60015481565b600360009054906101000a900473ffffffffffffffffffffffffffffffffffffffff1681565b600580811115610f5457610f53612905565b5b600560009054906101000a900460ff166005811115610f7657610f75612905565b5b1415610fb7576040517f08c379a0000000000000000000000000000000000000000000000000000000008152600401610fae90612589565b60405180910390fd5b600260009054906101000a900473ffffffffffffffffffffffffffffffffffffffff1673ffffffffffffffffffffffffffffffffffffffff163373ffffffffffffffffffffffffffffffffffffffff1614611047576040517f08c379a000000000000000000000000000000000000000000000000000000000815260040161103e906124c9565b60405180910390fd5b600560009054906101000a900460ff16600080600581111561106c5761106b612905565b5b82600581111561107f5761107e612905565b5b146110bf576040517f08c379a00000000000000000000000000000000000000000000000000000000081526004016110b6906124e9565b60405180910390fd5b6004544211156110fe576110d161031a565b7f0827f1eff1e08734db2dd5d48026bbd6a3c6d84959a04390246cf09f83c8138260405160405180910390a15b6000600181819054906101000a900460ff168092919061111d906128ac565b91906101000a81548160ff021916908360ff16021790555050611152600060019054906101000a900460ff1660ff16846119d5565b7fb2b3a6cae014e777a38588687036f49746e93cd5787e86f03d667e6634a1d373600060019054906101000a900460ff166040516111909190612642565b60405180910390a1505050565b6111a5611b63565b6000806005808111156111bb576111ba612905565b5b600560009054906101000a900460ff1660058111156111dd576111dc612905565b5b141561121e576040517f08c379a000000000000000000000000000000000000000000000000000000000815260040161121590612589565b60405180910390fd5b6006600154600260009054906101000a900473ffffffffffffffffffffffffffffffffffffffff168260405180608001604052908160008201805461126290612849565b80601f016020809104026020016040519081016040528092919081815260200182805461128e90612849565b80156112db5780601f106112b0576101008083540402835291602001916112db565b820191906000526020600020905b8154815290600101906020018083116112be57829003601f168201915b505050505081526020016001820180546112f490612849565b80601f016020809104026020016040519081016040528092919081815260200182805461132090612849565b801561136d5780601f106113425761010080835404028352916020019161136d565b820191906000526020600020905b81548152906001019060200180831161135057829003601f168201915b50505050508152602001600282015481526020016003820154815250509250925092509250909192565b3373ffffffffffffffffffffffffffffffffffffffff16600360009054906101000a900473ffffffffffffffffffffffffffffffffffffffff1673ffffffffffffffffffffffffffffffffffffffff1614611427576040517f08c379a000000000000000000000000000000000000000000000000000000000815260040161141e90612509565b60405180910390fd5b80600360006101000a81548173ffffffffffffffffffffffffffffffffffffffff021916908373ffffffffffffffffffffffffffffffffffffffff16021790555050565b60058081111561147e5761147d612905565b5b600560009054906101000a900460ff1660058111156114a05761149f612905565b5b14156114e1576040517f08c379a00000000000000000000000000000000000000000000000000000000081526004016114d890612589565b60405180910390fd5b600260009054906101000a900473ffffffffffffffffffffffffffffffffffffffff1673ffffffffffffffffffffffffffffffffffffffff163373ffffffffffffffffffffffffffffffffffffffff1614611571576040517f08c379a0000000000000000000000000000000000000000000000000000000008152600401611568906124c9565b60405180910390fd5b600560009054906101000a900460ff16600080600581111561159657611595612905565b5b8260058111156115a9576115a8612905565b5b146115e9576040517f08c379a00000000000000000000000000000000000000000000000000000000081526004016115e0906124e9565b60405180910390fd5b600454421115611628576115fb61031a565b7f0827f1eff1e08734db2dd5d48026bbd6a3c6d84959a04390246cf09f83c8138260405160405180910390a15b600060019054906101000a900460ff1660ff1683111561167d576040517f08c379a000000000000000000000000000000000000000000000000000000000815260040161167490612549565b60405180910390fd5b82600060019054906101000a900460ff1660ff161461176657600a60008060019054906101000a900460ff1660ff168152602001908152602001600020600a600085815260200190815260200160002060008201816000019080546116e190612849565b6116ec929190611b8b565b50600182018160010190805461170190612849565b61170c929190611b8b565b50600282015481600201556003820154816003015560048201548160040155600582015481600501556006820160009054906101000a900460ff168160060160006101000a81548160ff0219169083151502179055509050505b600a60008060019054906101000a900460ff1660ff1681526020019081526020016000206000808201600061179b9190611c18565b6001820160006117ab9190611c18565b60028201600090556003820160009055600482016000905560058201600090556006820160006101000a81549060ff021916905550506000600181819054906101000a900460ff16809291906118009061281f565b91906101000a81548160ff021916908360ff160217905550507f0827f1eff1e08734db2dd5d48026bbd6a3c6d84959a04390246cf09f83c8138260405160405180910390a1505050565b600081600001515111611892576040517f08c379a0000000000000000000000000000000000000000000000000000000008152600401611889906125c9565b60405180910390fd5b6000816020015151116118da576040517f08c379a00000000000000000000000000000000000000000000000000000000081526004016118d190612569565b60405180910390fd5b61271081604001511015611923576040517f08c379a000000000000000000000000000000000000000000000000000000000815260040161191a90612529565b60405180910390fd5b806060015162093a8060015461193991906126fb565b111561197a576040517f08c379a0000000000000000000000000000000000000000000000000000000008152600401611971906124a9565b60405180910390fd5b806000015160066000019080519060200190611997929190611c58565b508060200151600660010190805190602001906119b5929190611c58565b508060400151600660020181905550806060015160066003018190555050565b600081600001515111611a1d576040517f08c379a0000000000000000000000000000000000000000000000000000000008152600401611a14906125c9565b60405180910390fd5b600081602001515111611a65576040517f08c379a0000000000000000000000000000000000000000000000000000000008152600401611a5c90612569565b60405180910390fd5b611a6d611cde565b8160000151816000018190525081602001518160200181905250816040015181604001818152505081608001518160800181815250508160a001518160a00181815250508160c001518160c001901515908115158152505080600a60008581526020019081526020016000206000820151816000019080519060200190611af5929190611c58565b506020820151816001019080519060200190611b12929190611c58565b5060408201518160020155606082015181600301556080820151816004015560a0820151816005015560c08201518160060160006101000a81548160ff021916908315150217905550905050505050565b6040518060800160405280606081526020016060815260200160008152602001600081525090565b828054611b9790612849565b90600052602060002090601f016020900481019282611bb95760008555611c07565b82601f10611bca5780548555611c07565b82800160010185558215611c0757600052602060002091601f016020900482015b82811115611c06578254825591600101919060010190611beb565b5b509050611c149190611d1d565b5090565b508054611c2490612849565b6000825580601f10611c365750611c55565b601f016020900490600052602060002090810190611c549190611d1d565b5b50565b828054611c6490612849565b90600052602060002090601f016020900481019282611c865760008555611ccd565b82601f10611c9f57805160ff1916838001178555611ccd565b82800160010185558215611ccd579182015b82811115611ccc578251825591602001919060010190611cb1565b5b509050611cda9190611d1d565b5090565b6040518060e001604052806060815260200160608152602001600081526020016000815260200160008152602001600081526020016000151581525090565b5b80821115611d36576000816000905550600101611d1e565b5090565b6000611d4d611d488461269d565b612678565b905082815260208101848484011115611d6957611d686129a1565b5b611d748482856127dd565b509392505050565b600081359050611d8b81612b95565b92915050565b600081359050611da081612bac565b92915050565b600081519050611db581612bac565b92915050565b600082601f830112611dd057611dcf612992565b5b8135611de0848260208601611d3a565b91505092915050565b600060808284031215611dff57611dfe612997565b5b611e096080612678565b9050600082013567ffffffffffffffff811115611e2957611e2861299c565b5b611e3584828501611dbb565b600083015250602082013567ffffffffffffffff811115611e5957611e5861299c565b5b611e6584828501611dbb565b6020830152506040611e7984828501611f85565b6040830152506060611e8d84828501611f85565b60608301525092915050565b600060e08284031215611eaf57611eae612997565b5b611eb960e0612678565b9050600082013567ffffffffffffffff811115611ed957611ed861299c565b5b611ee584828501611dbb565b600083015250602082013567ffffffffffffffff811115611f0957611f0861299c565b5b611f1584828501611dbb565b6020830152506040611f2984828501611f85565b6040830152506060611f3d84828501611f85565b6060830152506080611f5184828501611f85565b60808301525060a0611f6584828501611f85565b60a08301525060c0611f7984828501611d91565b60c08301525092915050565b600081359050611f9481612bc3565b92915050565b600060208284031215611fb057611faf6129ab565b5b6000611fbe84828501611d7c565b91505092915050565b600060208284031215611fdd57611fdc6129ab565b5b6000611feb84828501611da6565b91505092915050565b60006020828403121561200a576120096129ab565b5b600082013567ffffffffffffffff811115612028576120276129a6565b5b61203484828501611de9565b91505092915050565b600060208284031215612053576120526129ab565b5b600082013567ffffffffffffffff811115612071576120706129a6565b5b61207d84828501611e99565b91505092915050565b6000806040838503121561209d5761209c6129ab565b5b600083013567ffffffffffffffff8111156120bb576120ba6129a6565b5b6120c785828601611e99565b92505060206120d885828601611f85565b9150509250929050565b6000602082840312156120f8576120f76129ab565b5b600061210684828501611f85565b91505092915050565b61211881612751565b82525050565b61212781612763565b82525050565b612136816127b9565b82525050565b6000612147826126ce565b61215181856126d9565b93506121618185602086016127ec565b61216a816129b0565b840191505092915050565b6000612180826126ce565b61218a81856126ea565b935061219a8185602086016127ec565b6121a3816129b0565b840191505092915050565b60006121bb601b836126ea565b91506121c6826129c1565b602082019050919050565b60006121de600f836126ea565b91506121e9826129ea565b602082019050919050565b6000612201601c836126ea565b915061220c82612a13565b602082019050919050565b6000612224601a836126ea565b915061222f82612a3c565b602082019050919050565b6000612247601d836126ea565b915061225282612a65565b602082019050919050565b600061226a6015836126ea565b915061227582612a8e565b602082019050919050565b600061228d6017836126ea565b915061229882612ab7565b602082019050919050565b60006122b06016836126ea565b91506122bb82612ae0565b602082019050919050565b60006122d3603a836126ea565b91506122de82612b09565b604082019050919050565b60006122f66011836126ea565b915061230182612b58565b602082019050919050565b60006080830160008301518482036000860152612329828261213c565b91505060208301518482036020860152612343828261213c565b91505060408301516123586040860182612376565b50606083015161236b6060860182612376565b508091505092915050565b61237f816127a2565b82525050565b61238e816127a2565b82525050565b61239d816127cb565b82525050565b6123ac816127ac565b82525050565b60006020820190506123c7600083018461210f565b92915050565b60006020820190506123e2600083018461211e565b92915050565b60006020820190506123fd600083018461212d565b92915050565b6000604082019050612418600083018561212d565b612425602083018461212d565b9392505050565b600060e0820190508181036000830152612446818a612175565b9050818103602083015261245a8189612175565b90506124696040830188612385565b6124766060830187612385565b6124836080830186612385565b61249060a0830185612385565b61249d60c083018461211e565b98975050505050505050565b600060208201905081810360008301526124c2816121ae565b9050919050565b600060208201905081810360008301526124e2816121d1565b9050919050565b60006020820190508181036000830152612502816121f4565b9050919050565b6000602082019050818103600083015261252281612217565b9050919050565b600060208201905081810360008301526125428161223a565b9050919050565b600060208201905081810360008301526125628161225d565b9050919050565b6000602082019050818103600083015261258281612280565b9050919050565b600060208201905081810360008301526125a2816122a3565b9050919050565b600060208201905081810360008301526125c2816122c6565b9050919050565b600060208201905081810360008301526125e2816122e9565b9050919050565b60006060820190508181036000830152612603818661230c565b90506126126020830185612385565b61261f604083018461210f565b949350505050565b600060208201905061263c6000830184612385565b92915050565b60006020820190506126576000830184612394565b92915050565b600060208201905061267260008301846123a3565b92915050565b6000612682612693565b905061268e828261287b565b919050565b6000604051905090565b600067ffffffffffffffff8211156126b8576126b7612963565b5b6126c1826129b0565b9050602081019050919050565b600081519050919050565b600082825260208201905092915050565b600082825260208201905092915050565b6000612706826127a2565b9150612711836127a2565b9250827fffffffffffffffffffffffffffffffffffffffffffffffffffffffffffffffff03821115612746576127456128d6565b5b828201905092915050565b600061275c82612782565b9050919050565b60008115159050919050565b600081905061277d82612b81565b919050565b600073ffffffffffffffffffffffffffffffffffffffff82169050919050565b6000819050919050565b600060ff82169050919050565b60006127c48261276f565b9050919050565b60006127d6826127ac565b9050919050565b82818337600083830152505050565b60005b8381101561280a5780820151818401526020810190506127ef565b83811115612819576000848401525b50505050565b600061282a826127ac565b9150600082141561283e5761283d6128d6565b5b600182039050919050565b6000600282049050600182168061286157607f821691505b6020821081141561287557612874612934565b5b50919050565b612884826129b0565b810181811067ffffffffffffffff821117156128a3576128a2612963565b5b80604052505050565b60006128b7826127ac565b915060ff8214156128cb576128ca6128d6565b5b600182019050919050565b7f4e487b7100000000000000000000000000000000000000000000000000000000600052601160045260246000fd5b7f4e487b7100000000000000000000000000000000000000000000000000000000600052602160045260246000fd5b7f4e487b7100000000000000000000000000000000000000000000000000000000600052602260045260246000fd5b7f4e487b7100000000000000000000000000000000000000000000000000000000600052604160045260246000fd5b600080fd5b600080fd5b600080fd5b600080fd5b600080fd5b600080fd5b6000601f19601f8301169050919050565b7f214572723a20646561646c696e654461746520746f2073686f72740000000000600082015250565b7f214e6f7420417574686f72697a65640000000000000000000000000000000000600082015250565b7f21457272203a2057726f6e6720776f726b666c6f772073746174757300000000600082015250565b7f214572723a204e6f7420466163746f727920436f6e7472616374000000000000600082015250565b7f214572723a2046756e64696e6720476f616c206e6f7420656e6f756768000000600082015250565b7f214572723a20496e646578206e6f742065786973740000000000000000000000600082015250565b7f214572723a204465736372697074696f6e20656d707479000000000000000000600082015250565b7f214572723a2043616d706169676e2044656c6574656400000000000000000000600082015250565b7f214572723a2043616e6e6f742064656c6574652043616d706169676e2061742060008201527f74686973207374616765206f662074686520776f726b666c6f77000000000000602082015250565b7f214572723a205469746c6520656d707479000000000000000000000000000000600082015250565b60068110612b9257612b91612905565b5b50565b612b9e81612751565b8114612ba957600080fd5b50565b612bb581612763565b8114612bc057600080fd5b50565b612bcc816127a2565b8114612bd757600080fd5b5056fea2646970667358221220d6ce78c2d52eb3b10d51f7803bf2b03ba093afb52112cacb04198cbe44e076e364736f6c63430008060033",
  "immutableReferences": {},
  "source": "// SPDX-License-Identifier: GPL-3.0\r\npragma solidity 0.8.6;\r\n\r\nimport \"./interfaces/ICampaign.sol\";\r\nimport \"./interfaces/ICampaignFactory.sol\";\r\n\r\ncontract Campaign is ICampaign {\r\n\r\n    bool public isDisabled;\r\n    uint8 public rewardsCounter;\r\n    uint256 public createAt;\r\n    address public manager;\r\n    address public factory;\r\n    uint256 public publishDeadline;\r\n    WorkflowStatus public status;\r\n\r\n    Info private campaignInfo;\r\n    mapping(uint => Rewards) public rewardsList;\r\n\r\n    //    Events\r\n    event newCampaign();\r\n    event CampaignNewRewardsAdded(uint rewardsCounter);\r\n    event CampaignInfoUpdated();\r\n    event CampaignRewardsUpdated();\r\n    event CampaignDisabled();\r\n    event CampaignRewardDeleted();\r\n    event CampaignPublished();\r\n    event WorkflowStatusChange(\r\n        WorkflowStatus previousStatus,\r\n        WorkflowStatus newStatus\r\n    );\r\n\r\n    //Modifiers\r\n    modifier isNotDeleted(){\r\n        require(status != WorkflowStatus.CampaignDeleted, \"!Err: Campaign Deleted\");\r\n        _;\r\n    }\r\n\r\n    modifier onlyManager(){\r\n        require(msg.sender == manager, \"!Not Authorized\");\r\n        _;\r\n    }\r\n\r\n    modifier checkStatus(\r\n        WorkflowStatus currentStatus,\r\n        WorkflowStatus requiredStatus\r\n    ) {\r\n        require(currentStatus == requiredStatus, \"!Err : Wrong workflow status\");\r\n        _;\r\n    }\r\n\r\n    modifier checkPublishDeadline() {\r\n        if (block.timestamp > publishDeadline) {\r\n            deleteCampaign();\r\n            emit CampaignRewardDeleted();\r\n        }\r\n        _;\r\n    }\r\n\r\n    constructor(Info memory infoData, Rewards[] memory rewardsData, address _manager)\r\n    {\r\n        require(rewardsData.length > 0, \"!Err: Rewards empty\");\r\n        require(rewardsData.length <= 10, \"!Err: Too much Rewards\");\r\n        manager = _manager;\r\n        factory = msg.sender;\r\n        createAt = block.timestamp;\r\n        publishDeadline = infoData.deadlineDate + 10 days;\r\n        status = WorkflowStatus.CampaignDrafted;\r\n        _setCampaignInfo(infoData);\r\n        for (rewardsCounter; rewardsCounter < rewardsData.length; rewardsCounter++) {\r\n            _setCampaignReward(rewardsCounter, rewardsData[rewardsCounter]);\r\n        }\r\n    }\r\n\r\n    /**\r\n     * @inheritdoc ICampaign\r\n     */\r\n    function getCampaignInfo() external view override isNotDeleted() returns(Info memory, uint, address) {\r\n        return (campaignInfo, createAt, manager);\r\n    }\r\n\r\n    /**\r\n     * @inheritdoc ICampaign\r\n     */\r\n    function updateCampaign(Info memory newInfo) external override isNotDeleted() onlyManager() checkStatus(status, WorkflowStatus.CampaignDrafted) checkPublishDeadline() {\r\n        _setCampaignInfo(newInfo);\r\n        emit CampaignInfoUpdated();\r\n    }\r\n\r\n    /**\r\n     * @inheritdoc ICampaign\r\n     */\r\n    function addReward(Rewards memory newRewardData) external override isNotDeleted() onlyManager() checkStatus(status, WorkflowStatus.CampaignDrafted) checkPublishDeadline() {\r\n        rewardsCounter++;\r\n        _setCampaignReward(rewardsCounter, newRewardData);\r\n        emit CampaignNewRewardsAdded(rewardsCounter);\r\n    }\r\n\r\n    /**\r\n     * @inheritdoc ICampaign\r\n     */\r\n    function updateReward(Rewards memory newRewardData, uint rewardIndex) external override isNotDeleted() onlyManager() checkStatus(status, WorkflowStatus.CampaignDrafted) checkPublishDeadline() {\r\n        require(rewardIndex <= rewardsCounter, \"!Err: Index not exist\");\r\n        _setCampaignReward(rewardIndex, newRewardData);\r\n        emit CampaignRewardsUpdated();\r\n    }\r\n\r\n    /**\r\n    * @notice Internal function that set a new campaign's info and making data validation first.\r\n    * @param data Info Object that contains the Info data following the Info struct\r\n    */\r\n    function _setCampaignInfo(Info memory data) private {\r\n        require(bytes(data.title).length > 0, \"!Err: Title empty\");\r\n        require(bytes(data.description).length > 0, \"!Err: Description empty\");\r\n        require(data.fundingGoal >= 10000, \"!Err: Funding Goal not enough\");\r\n        require(createAt + 7 days <= data.deadlineDate, \"!Err: deadlineDate to short\");\r\n        campaignInfo.title = data.title;\r\n        campaignInfo.description = data.description;\r\n        campaignInfo.fundingGoal = data.fundingGoal;\r\n        campaignInfo.deadlineDate = data.deadlineDate;\r\n    }\r\n\r\n    /**\r\n     * @notice Internal function that set a new campaign's reward level and making data validation first.\r\n     * @param index uint Index of the reward to add\r\n     * @param data Rewards Object that contains the Reward data following the Rewards struct\r\n     */\r\n    function _setCampaignReward(uint index, Rewards memory data) private {\r\n        require(bytes(data.title).length > 0, \"!Err: Title empty\");\r\n        require(bytes(data.description).length > 0, \"!Err: Description empty\");\r\n        Rewards memory r;\r\n        r.title = data.title;\r\n        r.description = data.description;\r\n        r.minimumContribution = data.minimumContribution;\r\n        r.stockLimit = data.stockLimit;\r\n        r.nbContributors = data.nbContributors;\r\n        r.isStockLimited = data.isStockLimited;\r\n        rewardsList[index] = r;\r\n    }\r\n\r\n    /**\r\n     * @inheritdoc ICampaign\r\n     */\r\n    function deleteCampaign() public override isNotDeleted() onlyManager() {\r\n        require(status == WorkflowStatus.CampaignDrafted || status == WorkflowStatus.FundingFailed || status == WorkflowStatus.CampaignCompleted, \"!Err: Cannot delete Campaign at this stage of the workflow\");\r\n        status = WorkflowStatus.CampaignDeleted;\r\n        ICampaignFactory(factory).deleteCampaign();\r\n        emit CampaignDisabled();\r\n    }\r\n\r\n    /**\r\n     * @inheritdoc ICampaign\r\n     */\r\n    function deleteReward(uint256 rewardIndex) external override isNotDeleted() onlyManager() checkStatus(status, WorkflowStatus.CampaignDrafted) checkPublishDeadline() {\r\n        require(rewardIndex <= rewardsCounter, \"!Err: Index not exist\");\r\n        if(rewardsCounter!=rewardIndex){\r\n            rewardsList[rewardIndex] = rewardsList[rewardsCounter];\r\n        }\r\n        delete rewardsList[rewardsCounter];\r\n        rewardsCounter--;\r\n        emit CampaignRewardDeleted();\r\n    }\r\n\r\n    /**\r\n     * @inheritdoc ICampaign\r\n     */\r\n    function updateManager(address newManager) external override onlyManager() {\r\n        manager = newManager;\r\n    }\r\n\r\n    /**\r\n     * @inheritdoc ICampaign\r\n     */\r\n    function updateFactory(address newFactory) external override {\r\n        require(factory == msg.sender, \"!Err: Not Factory Contract\");\r\n        factory = newFactory;\r\n    }\r\n\r\n    function publishCampaign() external override isNotDeleted() onlyManager() checkStatus(status, WorkflowStatus.CampaignDrafted) checkPublishDeadline() {\r\n        status = WorkflowStatus.CampaignPublished;\r\n        emit WorkflowStatusChange(WorkflowStatus.CampaignDrafted, WorkflowStatus.CampaignPublished);\r\n        emit CampaignPublished();\r\n    }\r\n}\r\n",
  "sourcePath": "A:/Programing/Projet_Final/SparkUp/contracts/Campaign.sol",
  "compiler": {
    "name": "solc",
    "version": "0.8.6+commit.11564f7e.Emscripten.clang"
  },
  "schemaVersion": "3.4.1",
  "updatedAt": "2021-07-25T08:11:32.544Z",
  "devdoc": {
    "kind": "dev",
    "methods": {
      "addReward((string,string,uint256,uint256,uint256,uint256,bool))": {
        "details": "Only the manager must be able to call it.",
        "params": {
          "newRewardData": "Rewards Object that contains all the needed information following the Rewards struct for the campaign"
        }
      },
      "deleteCampaign()": {
        "details": "It's the entry point for deleting a campaign. Only the manager must be able to call it"
      },
      "deleteReward(uint256)": {
        "details": "Only the manager must be able to call it.",
        "params": {
          "rewardIndex": "uint256 Index of the reward to delete"
        }
      },
      "updateCampaign((string,string,uint256,uint256))": {
        "details": "Only the manager must be able to call it.",
        "params": {
          "updatedInfoData": "Info Object that contains all the new information following the Info struct for the campaign"
        }
      },
      "updateFactory(address)": {
        "details": "Used for mainly for pointing the right factory during the deletion",
        "params": {
          "newFactory": "address Address of the new factory"
        }
      },
      "updateManager(address)": {
        "details": "Only the manager must be able to call it.",
        "params": {
          "newManager": "address Address of the new manager"
        }
      },
      "updateReward((string,string,uint256,uint256,uint256,uint256,bool),uint256)": {
        "details": "Only the manager must be able to call it.",
        "params": {
          "newRewardData": "Rewards Object that contains the new data to set following the Rewards struct for the campaign",
          "rewardIndex": "uint256 Index of the reward to update"
        }
      }
    },
    "version": 1
  },
  "userdoc": {
    "kind": "user",
    "methods": {
      "addReward((string,string,uint256,uint256,uint256,uint256,bool))": {
        "notice": "Add a new reward level to the campaign."
      },
      "deleteCampaign()": {
        "notice": "Delete the campaign."
      },
      "deleteReward(uint256)": {
        "notice": "Delete a reward by its Id."
      },
      "getCampaignInfo()": {
        "notice": "Returns the campaign information in the struct Info plus de createAt and the managerAddress."
      },
      "updateCampaign((string,string,uint256,uint256))": {
        "notice": "Update the campaign information in the struct Info."
      },
      "updateFactory(address)": {
        "notice": "Allow the factory to setup a new one in case of migration."
      },
      "updateManager(address)": {
        "notice": "Allow the manager to setup a new one."
      },
      "updateReward((string,string,uint256,uint256,uint256,uint256,bool),uint256)": {
        "notice": "Update the data of a specific reward regarding its id."
      }
    },
    "version": 1
  }
}