{
  "contractName": "CampaignFactory",
  "abi": [
    {
      "inputs": [],
      "stateMutability": "nonpayable",
      "type": "constructor"
    },
    {
      "anonymous": false,
      "inputs": [
        {
          "indexed": false,
          "internalType": "address",
          "name": "campaignAddress",
          "type": "address"
        }
      ],
      "name": "newCampaign",
      "type": "event"
    },
    {
      "inputs": [
        {
          "internalType": "address",
          "name": "",
          "type": "address"
        }
      ],
      "name": "contractExist",
      "outputs": [
        {
          "internalType": "bool",
          "name": "",
          "type": "bool"
        }
      ],
      "stateMutability": "view",
      "type": "function",
      "constant": true
    },
    {
      "inputs": [
        {
          "internalType": "address",
          "name": "",
          "type": "address"
        }
      ],
      "name": "contractIndex",
      "outputs": [
        {
          "internalType": "uint256",
          "name": "",
          "type": "uint256"
        }
      ],
      "stateMutability": "view",
      "type": "function",
      "constant": true
    },
    {
      "inputs": [
        {
          "internalType": "uint256",
          "name": "",
          "type": "uint256"
        }
      ],
      "name": "deployedCampaigns",
      "outputs": [
        {
          "internalType": "contract ICampaign",
          "name": "",
          "type": "address"
        }
      ],
      "stateMutability": "view",
      "type": "function",
      "constant": true
    },
    {
      "inputs": [],
      "name": "owner",
      "outputs": [
        {
          "internalType": "address",
          "name": "",
          "type": "address"
        }
      ],
      "stateMutability": "view",
      "type": "function",
      "constant": true
    },
    {
      "inputs": [
        {
          "components": [
            {
              "internalType": "string",
              "name": "title",
              "type": "string"
            },
            {
              "internalType": "string",
              "name": "description",
              "type": "string"
            },
            {
              "internalType": "uint256",
              "name": "fundingGoal",
              "type": "uint256"
            },
            {
              "internalType": "uint256",
              "name": "durationDays",
              "type": "uint256"
            }
          ],
          "internalType": "struct ICampaign.Info",
          "name": "infoData",
          "type": "tuple"
        },
        {
          "components": [
            {
              "internalType": "string",
              "name": "title",
              "type": "string"
            },
            {
              "internalType": "string",
              "name": "description",
              "type": "string"
            },
            {
              "internalType": "uint256",
              "name": "minimumContribution",
              "type": "uint256"
            },
            {
              "internalType": "uint256",
              "name": "amount",
              "type": "uint256"
            },
            {
              "internalType": "uint256",
              "name": "stockLimit",
              "type": "uint256"
            },
            {
              "internalType": "uint256",
              "name": "nbContributors",
              "type": "uint256"
            },
            {
              "internalType": "bool",
              "name": "isStockLimited",
              "type": "bool"
            }
          ],
          "internalType": "struct ICampaign.Rewards[]",
          "name": "rewardsData",
          "type": "tuple[]"
        }
      ],
      "name": "createCampaign",
      "outputs": [],
      "stateMutability": "nonpayable",
      "type": "function"
    },
    {
      "inputs": [],
      "name": "deleteCampaign",
      "outputs": [
        {
          "internalType": "bool",
          "name": "",
          "type": "bool"
        }
      ],
      "stateMutability": "nonpayable",
      "type": "function"
    },
    {
      "inputs": [
        {
          "internalType": "address",
          "name": "newOwner",
          "type": "address"
        }
      ],
      "name": "updateOwner",
      "outputs": [],
      "stateMutability": "nonpayable",
      "type": "function"
    },
    {
      "inputs": [],
      "name": "getDeployedCampaignsList",
      "outputs": [
        {
          "internalType": "contract ICampaign[]",
          "name": "",
          "type": "address[]"
        }
      ],
      "stateMutability": "view",
      "type": "function",
      "constant": true
    }
  ],
  "bytecode": "0x608060405234801561001057600080fd5b50336000806101000a81548173ffffffffffffffffffffffffffffffffffffffff021916908373ffffffffffffffffffffffffffffffffffffffff160217905550614a3a806100606000396000f3fe60806040523480156200001157600080fd5b5060043610620000945760003560e01c80638da5cb5b11620000635780638da5cb5b14620001475780638f3cf6da1462000169578063a6e1a41a146200019f578063bfbaebb714620001bf5762000094565b8063244c3c2c1462000099578063339d50a514620000bb5780634cfb222d14620000f1578063880cdc311462000127575b600080fd5b620000a3620001e1565b604051620000b291906200105b565b60405180910390f35b620000d96004803603810190620000d3919062000ca4565b620004e4565b604051620000e8919062001078565b60405180910390f35b6200010f600480360381019062000109919062000bed565b62000524565b6040516200011e919062001124565b60405180910390f35b6200014560048036038101906200013f919062000bed565b6200053c565b005b6200015162000610565b6040516200016091906200101a565b60405180910390f35b62000187600480360381019062000181919062000bed565b62000634565b6040516200019691906200105b565b60405180910390f35b620001bd6004803603810190620001b7919062000c1f565b62000654565b005b620001c9620007db565b604051620001d8919062001037565b60405180910390f35b6000600360003373ffffffffffffffffffffffffffffffffffffffff1673ffffffffffffffffffffffffffffffffffffffff16815260200190815260200160002060009054906101000a900460ff1662000272576040517f08c379a00000000000000000000000000000000000000000000000000000000081526004016200026990620010b7565b60405180910390fd5b6000600260003373ffffffffffffffffffffffffffffffffffffffff1673ffffffffffffffffffffffffffffffffffffffff168152602001908152602001600020549050620002c06200086b565b811462000400576001620002d36200086b565b81548110620002e757620002e6620013f4565b5b9060005260206000200160009054906101000a900473ffffffffffffffffffffffffffffffffffffffff1660018281548110620003295762000328620013f4565b5b9060005260206000200160006101000a81548173ffffffffffffffffffffffffffffffffffffffff021916908373ffffffffffffffffffffffffffffffffffffffff16021790555080600260006001620003826200086b565b81548110620003965762000395620013f4565b5b9060005260206000200160009054906101000a900473ffffffffffffffffffffffffffffffffffffffff1673ffffffffffffffffffffffffffffffffffffffff1673ffffffffffffffffffffffffffffffffffffffff168152602001908152602001600020819055505b6001805480620004155762000414620013c5565b5b6001900381819060005260206000200160006101000a81549073ffffffffffffffffffffffffffffffffffffffff02191690559055600260003373ffffffffffffffffffffffffffffffffffffffff1673ffffffffffffffffffffffffffffffffffffffff16815260200190815260200160002060009055600360003373ffffffffffffffffffffffffffffffffffffffff1673ffffffffffffffffffffffffffffffffffffffff16815260200190815260200160002060006101000a81549060ff0219169055600191505090565b60018181548110620004f557600080fd5b906000526020600020016000915054906101000a900473ffffffffffffffffffffffffffffffffffffffff1681565b60026020528060005260406000206000915090505481565b3373ffffffffffffffffffffffffffffffffffffffff1660008054906101000a900473ffffffffffffffffffffffffffffffffffffffff1673ffffffffffffffffffffffffffffffffffffffff1614620005cd576040517f08c379a0000000000000000000000000000000000000000000000000000000008152600401620005c49062001095565b60405180910390fd5b806000806101000a81548173ffffffffffffffffffffffffffffffffffffffff021916908373ffffffffffffffffffffffffffffffffffffffff16021790555050565b60008054906101000a900473ffffffffffffffffffffffffffffffffffffffff1681565b60036020528060005260406000206000915054906101000a900460ff1681565b6000828233604051620006679062000885565b6200067593929190620010d9565b604051809103906000f08015801562000692573d6000803e3d6000fd5b5090506001819080600181540180825580915050600190039060005260206000200160009091909190916101000a81548173ffffffffffffffffffffffffffffffffffffffff021916908373ffffffffffffffffffffffffffffffffffffffff160217905550620007026200086b565b600260008373ffffffffffffffffffffffffffffffffffffffff1673ffffffffffffffffffffffffffffffffffffffff168152602001908152602001600020819055506001600360008373ffffffffffffffffffffffffffffffffffffffff1673ffffffffffffffffffffffffffffffffffffffff16815260200190815260200160002060006101000a81548160ff0219169083151502179055507f09a1a4cb701177eec460d8994ed3511517fa65b744806ed07f974f87d433b67981604051620007ce91906200101a565b60405180910390a1505050565b606060018054806020026020016040519081016040528092919081815260200182805480156200086157602002820191906000526020600020905b8160009054906101000a900473ffffffffffffffffffffffffffffffffffffffff1673ffffffffffffffffffffffffffffffffffffffff168152602001906001019080831162000816575b5050505050905090565b6000600180805490506200088091906200126e565b905090565b6134de806200152783390190565b6000620008aa620008a4846200116a565b62001141565b90508083825260208201905082856020860282011115620008d057620008cf62001461565b5b60005b858110156200092557813567ffffffffffffffff811115620008fa57620008f962001452565b5b80860162000909898262000ad1565b85526020850194506020840193505050600181019050620008d3565b5050509392505050565b600062000946620009408462001199565b62001141565b90508281526020810184848401111562000965576200096462001466565b5b620009728482856200131b565b509392505050565b6000813590506200098b81620014d8565b92915050565b600082601f830112620009a957620009a862001452565b5b8135620009bb84826020860162000893565b91505092915050565b600081359050620009d581620014f2565b92915050565b600082601f830112620009f357620009f262001452565b5b813562000a058482602086016200092f565b91505092915050565b60006080828403121562000a275762000a2662001457565b5b62000a33608062001141565b9050600082013567ffffffffffffffff81111562000a565762000a556200145c565b5b62000a6484828501620009db565b600083015250602082013567ffffffffffffffff81111562000a8b5762000a8a6200145c565b5b62000a9984828501620009db565b602083015250604062000aaf8482850162000bd6565b604083015250606062000ac58482850162000bd6565b60608301525092915050565b600060e0828403121562000aea5762000ae962001457565b5b62000af660e062001141565b9050600082013567ffffffffffffffff81111562000b195762000b186200145c565b5b62000b2784828501620009db565b600083015250602082013567ffffffffffffffff81111562000b4e5762000b4d6200145c565b5b62000b5c84828501620009db565b602083015250604062000b728482850162000bd6565b604083015250606062000b888482850162000bd6565b606083015250608062000b9e8482850162000bd6565b60808301525060a062000bb48482850162000bd6565b60a08301525060c062000bca84828501620009c4565b60c08301525092915050565b60008135905062000be7816200150c565b92915050565b60006020828403121562000c065762000c0562001470565b5b600062000c16848285016200097a565b91505092915050565b6000806040838503121562000c395762000c3862001470565b5b600083013567ffffffffffffffff81111562000c5a5762000c596200146b565b5b62000c688582860162000a0e565b925050602083013567ffffffffffffffff81111562000c8c5762000c8b6200146b565b5b62000c9a8582860162000991565b9150509250929050565b60006020828403121562000cbd5762000cbc62001470565b5b600062000ccd8482850162000bd6565b91505092915050565b600062000ce4838362000e24565b60208301905092915050565b600062000cfe838362000f47565b905092915050565b62000d1181620012a9565b82525050565b600062000d2482620011ef565b62000d3081856200122a565b935062000d3d83620011cf565b8060005b8381101562000d7457815162000d58888262000cd6565b975062000d658362001210565b92505060018101905062000d41565b5085935050505092915050565b600062000d8e82620011fa565b62000d9a81856200123b565b93508360208202850162000dae85620011df565b8060005b8581101562000df0578484038952815162000dce858262000cf0565b945062000ddb836200121d565b925060208a0199505060018101905062000db2565b50829750879550505050505092915050565b62000e0d81620012bd565b82525050565b62000e1e81620012bd565b82525050565b62000e2f81620012f3565b82525050565b62000e4081620012f3565b82525050565b600062000e538262001205565b62000e5f81856200124c565b935062000e718185602086016200132a565b62000e7c8162001475565b840191505092915050565b600062000e96600f836200125d565b915062000ea38262001486565b602082019050919050565b600062000ebd600f836200125d565b915062000eca82620014af565b602082019050919050565b6000608083016000830151848203600086015262000ef4828262000e46565b9150506020830151848203602086015262000f10828262000e46565b915050604083015162000f27604086018262000ff8565b50606083015162000f3c606086018262000ff8565b508091505092915050565b600060e083016000830151848203600086015262000f66828262000e46565b9150506020830151848203602086015262000f82828262000e46565b915050604083015162000f99604086018262000ff8565b50606083015162000fae606086018262000ff8565b50608083015162000fc3608086018262000ff8565b5060a083015162000fd860a086018262000ff8565b5060c083015162000fed60c086018262000e02565b508091505092915050565b6200100381620012e9565b82525050565b6200101481620012e9565b82525050565b600060208201905062001031600083018462000d06565b92915050565b6000602082019050818103600083015262001053818462000d17565b905092915050565b600060208201905062001072600083018462000e13565b92915050565b60006020820190506200108f600083018462000e35565b92915050565b60006020820190508181036000830152620010b08162000e87565b9050919050565b60006020820190508181036000830152620010d28162000eae565b9050919050565b60006060820190508181036000830152620010f5818662000ed5565b905081810360208301526200110b818562000d81565b90506200111c604083018462000d06565b949350505050565b60006020820190506200113b600083018462001009565b92915050565b60006200114d62001160565b90506200115b828262001360565b919050565b6000604051905090565b600067ffffffffffffffff82111562001188576200118762001423565b5b602082029050602081019050919050565b600067ffffffffffffffff821115620011b757620011b662001423565b5b620011c28262001475565b9050602081019050919050565b6000819050602082019050919050565b6000819050602082019050919050565b600081519050919050565b600081519050919050565b600081519050919050565b6000602082019050919050565b6000602082019050919050565b600082825260208201905092915050565b600082825260208201905092915050565b600082825260208201905092915050565b600082825260208201905092915050565b60006200127b82620012e9565b91506200128883620012e9565b9250828210156200129e576200129d62001396565b5b828203905092915050565b6000620012b682620012c9565b9050919050565b60008115159050919050565b600073ffffffffffffffffffffffffffffffffffffffff82169050919050565b6000819050919050565b6000620013008262001307565b9050919050565b60006200131482620012c9565b9050919050565b82818337600083830152505050565b60005b838110156200134a5780820151818401526020810190506200132d565b838111156200135a576000848401525b50505050565b6200136b8262001475565b810181811067ffffffffffffffff821117156200138d576200138c62001423565b5b80604052505050565b7f4e487b7100000000000000000000000000000000000000000000000000000000600052601160045260246000fd5b7f4e487b7100000000000000000000000000000000000000000000000000000000600052603160045260246000fd5b7f4e487b7100000000000000000000000000000000000000000000000000000000600052603260045260246000fd5b7f4e487b7100000000000000000000000000000000000000000000000000000000600052604160045260246000fd5b600080fd5b600080fd5b600080fd5b600080fd5b600080fd5b600080fd5b600080fd5b6000601f19601f8301169050919050565b7f214e6f7420417574686f72697a65640000000000000000000000000000000000600082015250565b7f214572723a204e6f742065786973740000000000000000000000000000000000600082015250565b620014e381620012a9565b8114620014ef57600080fd5b50565b620014fd81620012bd565b81146200150957600080fd5b50565b6200151781620012e9565b81146200152357600080fd5b5056fe60806040523480156200001157600080fd5b50604051620034de380380620034de83398181016040528101906200003791906200091e565b60008251116200007e576040517f08c379a0000000000000000000000000000000000000000000000000000000008152600401620000759062000abf565b60405180910390fd5b80600260006101000a81548173ffffffffffffffffffffffffffffffffffffffff021916908373ffffffffffffffffffffffffffffffffffffffff16021790555033600360006101000a81548173ffffffffffffffffffffffffffffffffffffffff021916908373ffffffffffffffffffffffffffffffffffffffff1602179055504260008190555062000118836200018160201b60201c565b5b81516009541015620001785762000158600954836009548151811062000144576200014362000e1a565b5b60200260200101516200033b60201b60201c565b600960008154809291906200016d9062000d6e565b919050555062000119565b50505062000fc7565b600081600001515111620001cc576040517f08c379a0000000000000000000000000000000000000000000000000000000008152600401620001c39062000b03565b60405180910390fd5b60008160200151511162000217576040517f08c379a00000000000000000000000000000000000000000000000000000000081526004016200020e9062000ae1565b60405180910390fd5b6127108160400151101562000263576040517f08c379a00000000000000000000000000000000000000000000000000000000081526004016200025a9062000a9d565b60405180910390fd5b62093a804262000274919062000bc4565b62015180826060015162000289919062000c21565b60005462000298919062000bc4565b1015620002dc576040517f08c379a0000000000000000000000000000000000000000000000000000000008152600401620002d39062000a7b565b60405180910390fd5b806000015160046000019080519060200190620002fb929190620004d5565b508060200151600460010190805190602001906200031b929190620004d5565b508060400151600460020181905550806060015160046003018190555050565b60008160000151511162000386576040517f08c379a00000000000000000000000000000000000000000000000000000000081526004016200037d9062000b03565b60405180910390fd5b600081602001515111620003d1576040517f08c379a0000000000000000000000000000000000000000000000000000000008152600401620003c89062000ae1565b60405180910390fd5b620003db62000566565b8160000151816000018190525081602001518160200181905250816040015181604001818152505081608001518160800181815250508160a001518160a00181815250508160c001518160c00190151590811515815250508060086000858152602001908152602001600020600082015181600001908051906020019062000465929190620004d5565b50602082015181600101908051906020019062000484929190620004d5565b5060408201518160020155606082015181600301556080820151816004015560a0820151816005015560c08201518160060160006101000a81548160ff021916908315150217905550905050505050565b828054620004e39062000d02565b90600052602060002090601f01602090048101928262000507576000855562000553565b82601f106200052257805160ff191683800117855562000553565b8280016001018555821562000553579182015b828111156200055257825182559160200191906001019062000535565b5b509050620005629190620005a5565b5090565b6040518060e001604052806060815260200160608152602001600081526020016000815260200160008152602001600081526020016000151581525090565b5b80821115620005c0576000816000905550600101620005a6565b5090565b6000620005db620005d58462000b4e565b62000b25565b9050808382526020820190508285602086028201111562000601576200060062000e87565b5b60005b858110156200065657815167ffffffffffffffff8111156200062b576200062a62000e78565b5b8086016200063a898262000802565b8552602085019450602084019350505060018101905062000604565b5050509392505050565b600062000677620006718462000b7d565b62000b25565b90508281526020810184848401111562000696576200069562000e8c565b5b620006a384828562000ccc565b509392505050565b600081519050620006bc8162000f79565b92915050565b600082601f830112620006da57620006d962000e78565b5b8151620006ec848260208601620005c4565b91505092915050565b600081519050620007068162000f93565b92915050565b600082601f83011262000724576200072362000e78565b5b81516200073684826020860162000660565b91505092915050565b60006080828403121562000758576200075762000e7d565b5b62000764608062000b25565b9050600082015167ffffffffffffffff81111562000787576200078662000e82565b5b62000795848285016200070c565b600083015250602082015167ffffffffffffffff811115620007bc57620007bb62000e82565b5b620007ca848285016200070c565b6020830152506040620007e08482850162000907565b6040830152506060620007f68482850162000907565b60608301525092915050565b600060e082840312156200081b576200081a62000e7d565b5b6200082760e062000b25565b9050600082015167ffffffffffffffff8111156200084a576200084962000e82565b5b62000858848285016200070c565b600083015250602082015167ffffffffffffffff8111156200087f576200087e62000e82565b5b6200088d848285016200070c565b6020830152506040620008a38482850162000907565b6040830152506060620008b98482850162000907565b6060830152506080620008cf8482850162000907565b60808301525060a0620008e58482850162000907565b60a08301525060c0620008fb84828501620006f5565b60c08301525092915050565b600081519050620009188162000fad565b92915050565b6000806000606084860312156200093a576200093962000e96565b5b600084015167ffffffffffffffff8111156200095b576200095a62000e91565b5b62000969868287016200073f565b935050602084015167ffffffffffffffff8111156200098d576200098c62000e91565b5b6200099b86828701620006c2565b9250506040620009ae86828701620006ab565b9150509250925092565b6000620009c7601b8362000bb3565b9150620009d48262000eac565b602082019050919050565b6000620009ee601d8362000bb3565b9150620009fb8262000ed5565b602082019050919050565b600062000a1560138362000bb3565b915062000a228262000efe565b602082019050919050565b600062000a3c60178362000bb3565b915062000a498262000f27565b602082019050919050565b600062000a6360118362000bb3565b915062000a708262000f50565b602082019050919050565b6000602082019050818103600083015262000a9681620009b8565b9050919050565b6000602082019050818103600083015262000ab881620009df565b9050919050565b6000602082019050818103600083015262000ada8162000a06565b9050919050565b6000602082019050818103600083015262000afc8162000a2d565b9050919050565b6000602082019050818103600083015262000b1e8162000a54565b9050919050565b600062000b3162000b44565b905062000b3f828262000d38565b919050565b6000604051905090565b600067ffffffffffffffff82111562000b6c5762000b6b62000e49565b5b602082029050602081019050919050565b600067ffffffffffffffff82111562000b9b5762000b9a62000e49565b5b62000ba68262000e9b565b9050602081019050919050565b600082825260208201905092915050565b600062000bd18262000cc2565b915062000bde8362000cc2565b9250827fffffffffffffffffffffffffffffffffffffffffffffffffffffffffffffffff0382111562000c165762000c1562000dbc565b5b828201905092915050565b600062000c2e8262000cc2565b915062000c3b8362000cc2565b9250817fffffffffffffffffffffffffffffffffffffffffffffffffffffffffffffffff048311821515161562000c775762000c7662000dbc565b5b828202905092915050565b600062000c8f8262000ca2565b9050919050565b60008115159050919050565b600073ffffffffffffffffffffffffffffffffffffffff82169050919050565b6000819050919050565b60005b8381101562000cec57808201518184015260208101905062000ccf565b8381111562000cfc576000848401525b50505050565b6000600282049050600182168062000d1b57607f821691505b6020821081141562000d325762000d3162000deb565b5b50919050565b62000d438262000e9b565b810181811067ffffffffffffffff8211171562000d655762000d6462000e49565b5b80604052505050565b600062000d7b8262000cc2565b91507fffffffffffffffffffffffffffffffffffffffffffffffffffffffffffffffff82141562000db15762000db062000dbc565b5b600182019050919050565b7f4e487b7100000000000000000000000000000000000000000000000000000000600052601160045260246000fd5b7f4e487b7100000000000000000000000000000000000000000000000000000000600052602260045260246000fd5b7f4e487b7100000000000000000000000000000000000000000000000000000000600052603260045260246000fd5b7f4e487b7100000000000000000000000000000000000000000000000000000000600052604160045260246000fd5b600080fd5b600080fd5b600080fd5b600080fd5b600080fd5b600080fd5b600080fd5b6000601f19601f8301169050919050565b7f214572723a206475726174696f6e4461797320746f2073686f72740000000000600082015250565b7f214572723a2046756e64696e6720476f616c206e6f7420656e6f756768000000600082015250565b7f214572723a205265776172647320656d70747900000000000000000000000000600082015250565b7f214572723a204465736372697074696f6e20656d707479000000000000000000600082015250565b7f214572723a205469746c6520656d707479000000000000000000000000000000600082015250565b62000f848162000c82565b811462000f9057600080fd5b50565b62000f9e8162000c96565b811462000faa57600080fd5b50565b62000fb88162000cc2565b811462000fc457600080fd5b50565b6125078062000fd76000396000f3fe608060405234801561001057600080fd5b50600436106101005760003560e01c8063ab1b498b11610097578063c45a015511610066578063c45a01551461026c578063d355f0061461028a578063d9f165dc146102a6578063e7cf1ab7146102c257610100565b8063ab1b498b146101db578063bd39e015146101f7578063bf1d4cad1461022d578063c2ea6a7f1461024b57610100565b806354aea127116100d357806354aea1271461016757806358aba00f146101855780636c57f5a9146101a157806391f43ccc146101bf57610100565b8063205b091414610105578063244c3c2c146101235780632d7576151461012d578063481c6a7514610149575b600080fd5b61010d6102de565b60405161011a9190611f62565b60405180910390f35b61012b6102e4565b005b61014760048036038101906101429190611b12565b6104b0565b005b61015161060f565b60405161015e9190611d3c565b60405180910390f35b61016f610635565b60405161017c9190611f62565b60405180910390f35b61019f600480360381019061019a91906119dd565b61063b565b005b6101a961070f565b6040516101b69190611d57565b60405180910390f35b6101d960048036038101906101d49190611a80565b610722565b005b6101f560048036038101906101f09190611a0a565b61083a565b005b610211600480360381019061020c9190611b6e565b610a71565b6040516102249796959493929190611dc5565b60405180910390f35b610235610bd0565b6040516102429190611f62565b60405180910390f35b610253610bd6565b6040516102639493929190611d72565b60405180910390f35b610274610d04565b6040516102819190611d3c565b60405180910390f35b6102a4600480360381019061029f9190611ac9565b610d2a565b005b6102c060048036038101906102bb91906119dd565b610e6a565b005b6102dc60048036038101906102d79190611b6e565b610f3e565b005b60095481565b600360149054906101000a900460ff1615610334576040517f08c379a000000000000000000000000000000000000000000000000000000000815260040161032b90611ea2565b60405180910390fd5b600260009054906101000a900473ffffffffffffffffffffffffffffffffffffffff1673ffffffffffffffffffffffffffffffffffffffff163373ffffffffffffffffffffffffffffffffffffffff16146103c4576040517f08c379a00000000000000000000000000000000000000000000000000000000081526004016103bb90611e62565b60405180910390fd5b6001600360146101000a81548160ff021916908315150217905550600360009054906101000a900473ffffffffffffffffffffffffffffffffffffffff1673ffffffffffffffffffffffffffffffffffffffff1663244c3c2c6040518163ffffffff1660e01b8152600401602060405180830381600087803b15801561044957600080fd5b505af115801561045d573d6000803e3d6000fd5b505050506040513d601f19601f820116820180604052508101906104819190611a53565b507ffeb7af4852eca96c1bfc4abd1bf2029a80272acdbf1f1d1d97c47dd6388fc66960405160405180910390a1565b600360149054906101000a900460ff1615610500576040517f08c379a00000000000000000000000000000000000000000000000000000000081526004016104f790611ea2565b60405180910390fd5b600260009054906101000a900473ffffffffffffffffffffffffffffffffffffffff1673ffffffffffffffffffffffffffffffffffffffff163373ffffffffffffffffffffffffffffffffffffffff1614610590576040517f08c379a000000000000000000000000000000000000000000000000000000000815260040161058790611e62565b60405180910390fd5b6009548111156105d5576040517f08c379a00000000000000000000000000000000000000000000000000000000081526004016105cc90611f02565b60405180910390fd5b6105df81836111e0565b7fecf60f602773eab1fd9d40cefaf4b9841fb542d201e68a21f94d04c4febd468160405160405180910390a15050565b600260009054906101000a900473ffffffffffffffffffffffffffffffffffffffff1681565b60015481565b600260009054906101000a900473ffffffffffffffffffffffffffffffffffffffff1673ffffffffffffffffffffffffffffffffffffffff163373ffffffffffffffffffffffffffffffffffffffff16146106cb576040517f08c379a00000000000000000000000000000000000000000000000000000000081526004016106c290611e62565b60405180910390fd5b80600260006101000a81548173ffffffffffffffffffffffffffffffffffffffff021916908373ffffffffffffffffffffffffffffffffffffffff16021790555050565b600360149054906101000a900460ff1681565b600360149054906101000a900460ff1615610772576040517f08c379a000000000000000000000000000000000000000000000000000000000815260040161076990611ea2565b60405180910390fd5b600260009054906101000a900473ffffffffffffffffffffffffffffffffffffffff1673ffffffffffffffffffffffffffffffffffffffff163373ffffffffffffffffffffffffffffffffffffffff1614610802576040517f08c379a00000000000000000000000000000000000000000000000000000000081526004016107f990611e62565b60405180910390fd5b61080b8161136e565b7f811e66beac215e4afafaadcb6fa0f561430b1690fe0869f16abb767f166378a160405160405180910390a150565b600360149054906101000a900460ff161561088a576040517f08c379a000000000000000000000000000000000000000000000000000000000815260040161088190611ea2565b60405180910390fd5b600260009054906101000a900473ffffffffffffffffffffffffffffffffffffffff1673ffffffffffffffffffffffffffffffffffffffff163373ffffffffffffffffffffffffffffffffffffffff161461091a576040517f08c379a000000000000000000000000000000000000000000000000000000000815260040161091190611e62565b60405180910390fd5b600081511161095e576040517f08c379a000000000000000000000000000000000000000000000000000000000815260040161095590611ee2565b60405180910390fd5b60005b6009548110156109e857600860008281526020019081526020016000206000808201600061098f9190611512565b60018201600061099f9190611512565b60028201600090556003820160009055600482016000905560058201600090556006820160006101000a81549060ff0219169055505080806109e0906121e2565b915050610961565b5060006009819055505b80516009541015610a4257610a256009548260095481518110610a1857610a17612289565b5b60200260200101516111e0565b60096000815480929190610a38906121e2565b91905055506109f2565b7fecf60f602773eab1fd9d40cefaf4b9841fb542d201e68a21f94d04c4febd468160405160405180910390a150565b6008602052806000526040600020600091509050806000018054610a949061217f565b80601f0160208091040260200160405190810160405280929190818152602001828054610ac09061217f565b8015610b0d5780601f10610ae257610100808354040283529160200191610b0d565b820191906000526020600020905b815481529060010190602001808311610af057829003601f168201915b505050505090806001018054610b229061217f565b80601f0160208091040260200160405190810160405280929190818152602001828054610b4e9061217f565b8015610b9b5780601f10610b7057610100808354040283529160200191610b9b565b820191906000526020600020905b815481529060010190602001808311610b7e57829003601f168201915b5050505050908060020154908060030154908060040154908060050154908060060160009054906101000a900460ff16905087565b60005481565b6004806000018054610be79061217f565b80601f0160208091040260200160405190810160405280929190818152602001828054610c139061217f565b8015610c605780601f10610c3557610100808354040283529160200191610c60565b820191906000526020600020905b815481529060010190602001808311610c4357829003601f168201915b505050505090806001018054610c759061217f565b80601f0160208091040260200160405190810160405280929190818152602001828054610ca19061217f565b8015610cee5780601f10610cc357610100808354040283529160200191610cee565b820191906000526020600020905b815481529060010190602001808311610cd157829003601f168201915b5050505050908060020154908060030154905084565b600360009054906101000a900473ffffffffffffffffffffffffffffffffffffffff1681565b600360149054906101000a900460ff1615610d7a576040517f08c379a0000000000000000000000000000000000000000000000000000000008152600401610d7190611ea2565b60405180910390fd5b600260009054906101000a900473ffffffffffffffffffffffffffffffffffffffff1673ffffffffffffffffffffffffffffffffffffffff163373ffffffffffffffffffffffffffffffffffffffff1614610e0a576040517f08c379a0000000000000000000000000000000000000000000000000000000008152600401610e0190611e62565b60405180910390fd5b60096000815480929190610e1d906121e2565b9190505550610e2e600954826111e0565b7fb2b3a6cae014e777a38588687036f49746e93cd5787e86f03d667e6634a1d373600954604051610e5f9190611f62565b60405180910390a150565b3373ffffffffffffffffffffffffffffffffffffffff16600360009054906101000a900473ffffffffffffffffffffffffffffffffffffffff1673ffffffffffffffffffffffffffffffffffffffff1614610efa576040517f08c379a0000000000000000000000000000000000000000000000000000000008152600401610ef190611e82565b60405180910390fd5b80600360006101000a81548173ffffffffffffffffffffffffffffffffffffffff021916908373ffffffffffffffffffffffffffffffffffffffff16021790555050565b600360149054906101000a900460ff1615610f8e576040517f08c379a0000000000000000000000000000000000000000000000000000000008152600401610f8590611ea2565b60405180910390fd5b600260009054906101000a900473ffffffffffffffffffffffffffffffffffffffff1673ffffffffffffffffffffffffffffffffffffffff163373ffffffffffffffffffffffffffffffffffffffff161461101e576040517f08c379a000000000000000000000000000000000000000000000000000000000815260040161101590611e62565b60405180910390fd5b600954811115611063576040517f08c379a000000000000000000000000000000000000000000000000000000000815260040161105a90611f02565b60405180910390fd5b806009541461112d576008600060095481526020019081526020016000206008600083815260200190815260200160002060008201816000019080546110a89061217f565b6110b3929190611552565b5060018201816001019080546110c89061217f565b6110d3929190611552565b50600282015481600201556003820154816003015560048201548160040155600582015481600501556006820160009054906101000a900460ff168160060160006101000a81548160ff0219169083151502179055509050505b600860006009548152602001908152602001600020600080820160006111539190611512565b6001820160006111639190611512565b60028201600090556003820160009055600482016000905560058201600090556006820160006101000a81549060ff02191690555050600960008154809291906111ac90612155565b91905055507f0827f1eff1e08734db2dd5d48026bbd6a3c6d84959a04390246cf09f83c8138260405160405180910390a150565b600081600001515111611228576040517f08c379a000000000000000000000000000000000000000000000000000000000815260040161121f90611f42565b60405180910390fd5b600081602001515111611270576040517f08c379a000000000000000000000000000000000000000000000000000000000815260040161126790611f22565b60405180910390fd5b6112786115df565b8160000151816000018190525081602001518160200181905250816040015181604001818152505081608001518160800181815250508160a001518160a00181815250508160c001518160c00190151590811515815250508060086000858152602001908152602001600020600082015181600001908051906020019061130092919061161e565b50602082015181600101908051906020019061131d92919061161e565b5060408201518160020155606082015181600301556080820151816004015560a0820151816005015560c08201518160060160006101000a81548160ff021916908315150217905550905050505050565b6000816000015151116113b6576040517f08c379a00000000000000000000000000000000000000000000000000000000081526004016113ad90611f42565b60405180910390fd5b6000816020015151116113fe576040517f08c379a00000000000000000000000000000000000000000000000000000000081526004016113f590611f22565b60405180910390fd5b61271081604001511015611447576040517f08c379a000000000000000000000000000000000000000000000000000000000815260040161143e90611ec2565b60405180910390fd5b62093a8042611456919061201b565b6201518082606001516114699190612071565b600054611476919061201b565b10156114b7576040517f08c379a00000000000000000000000000000000000000000000000000000000081526004016114ae90611e42565b60405180910390fd5b8060000151600460000190805190602001906114d492919061161e565b508060200151600460010190805190602001906114f292919061161e565b508060400151600460020181905550806060015160046003018190555050565b50805461151e9061217f565b6000825580601f10611530575061154f565b601f01602090049060005260206000209081019061154e91906116a4565b5b50565b82805461155e9061217f565b90600052602060002090601f01602090048101928261158057600085556115ce565b82601f1061159157805485556115ce565b828001600101855582156115ce57600052602060002091601f016020900482015b828111156115cd5782548255916001019190600101906115b2565b5b5090506115db91906116a4565b5090565b6040518060e001604052806060815260200160608152602001600081526020016000815260200160008152602001600081526020016000151581525090565b82805461162a9061217f565b90600052602060002090601f01602090048101928261164c5760008555611693565b82601f1061166557805160ff1916838001178555611693565b82800160010185558215611693579182015b82811115611692578251825591602001919060010190611677565b5b5090506116a091906116a4565b5090565b5b808211156116bd5760008160009055506001016116a5565b5090565b60006116d46116cf84611fa2565b611f7d565b905080838252602082019050828560208602820111156116f7576116f66122f6565b5b60005b8581101561174557813567ffffffffffffffff81111561171d5761171c6122e7565b5b80860161172a89826118dc565b855260208501945060208401935050506001810190506116fa565b5050509392505050565b600061176261175d84611fce565b611f7d565b90508281526020810184848401111561177e5761177d6122fb565b5b611789848285612113565b509392505050565b6000813590506117a08161248c565b92915050565b600082601f8301126117bb576117ba6122e7565b5b81356117cb8482602086016116c1565b91505092915050565b6000813590506117e3816124a3565b92915050565b6000815190506117f8816124a3565b92915050565b600082601f830112611813576118126122e7565b5b813561182384826020860161174f565b91505092915050565b600060808284031215611842576118416122ec565b5b61184c6080611f7d565b9050600082013567ffffffffffffffff81111561186c5761186b6122f1565b5b611878848285016117fe565b600083015250602082013567ffffffffffffffff81111561189c5761189b6122f1565b5b6118a8848285016117fe565b60208301525060406118bc848285016119c8565b60408301525060606118d0848285016119c8565b60608301525092915050565b600060e082840312156118f2576118f16122ec565b5b6118fc60e0611f7d565b9050600082013567ffffffffffffffff81111561191c5761191b6122f1565b5b611928848285016117fe565b600083015250602082013567ffffffffffffffff81111561194c5761194b6122f1565b5b611958848285016117fe565b602083015250604061196c848285016119c8565b6040830152506060611980848285016119c8565b6060830152506080611994848285016119c8565b60808301525060a06119a8848285016119c8565b60a08301525060c06119bc848285016117d4565b60c08301525092915050565b6000813590506119d7816124ba565b92915050565b6000602082840312156119f3576119f2612305565b5b6000611a0184828501611791565b91505092915050565b600060208284031215611a2057611a1f612305565b5b600082013567ffffffffffffffff811115611a3e57611a3d612300565b5b611a4a848285016117a6565b91505092915050565b600060208284031215611a6957611a68612305565b5b6000611a77848285016117e9565b91505092915050565b600060208284031215611a9657611a95612305565b5b600082013567ffffffffffffffff811115611ab457611ab3612300565b5b611ac08482850161182c565b91505092915050565b600060208284031215611adf57611ade612305565b5b600082013567ffffffffffffffff811115611afd57611afc612300565b5b611b09848285016118dc565b91505092915050565b60008060408385031215611b2957611b28612305565b5b600083013567ffffffffffffffff811115611b4757611b46612300565b5b611b53858286016118dc565b9250506020611b64858286016119c8565b9150509250929050565b600060208284031215611b8457611b83612305565b5b6000611b92848285016119c8565b91505092915050565b611ba4816120cb565b82525050565b611bb3816120dd565b82525050565b6000611bc482611fff565b611bce818561200a565b9350611bde818560208601612122565b611be78161230a565b840191505092915050565b6000611bff601b8361200a565b9150611c0a8261231b565b602082019050919050565b6000611c22600f8361200a565b9150611c2d82612344565b602082019050919050565b6000611c45601a8361200a565b9150611c508261236d565b602082019050919050565b6000611c68600e8361200a565b9150611c7382612396565b602082019050919050565b6000611c8b601d8361200a565b9150611c96826123bf565b602082019050919050565b6000611cae60138361200a565b9150611cb9826123e8565b602082019050919050565b6000611cd160158361200a565b9150611cdc82612411565b602082019050919050565b6000611cf460178361200a565b9150611cff8261243a565b602082019050919050565b6000611d1760118361200a565b9150611d2282612463565b602082019050919050565b611d3681612109565b82525050565b6000602082019050611d516000830184611b9b565b92915050565b6000602082019050611d6c6000830184611baa565b92915050565b60006080820190508181036000830152611d8c8187611bb9565b90508181036020830152611da08186611bb9565b9050611daf6040830185611d2d565b611dbc6060830184611d2d565b95945050505050565b600060e0820190508181036000830152611ddf818a611bb9565b90508181036020830152611df38189611bb9565b9050611e026040830188611d2d565b611e0f6060830187611d2d565b611e1c6080830186611d2d565b611e2960a0830185611d2d565b611e3660c0830184611baa565b98975050505050505050565b60006020820190508181036000830152611e5b81611bf2565b9050919050565b60006020820190508181036000830152611e7b81611c15565b9050919050565b60006020820190508181036000830152611e9b81611c38565b9050919050565b60006020820190508181036000830152611ebb81611c5b565b9050919050565b60006020820190508181036000830152611edb81611c7e565b9050919050565b60006020820190508181036000830152611efb81611ca1565b9050919050565b60006020820190508181036000830152611f1b81611cc4565b9050919050565b60006020820190508181036000830152611f3b81611ce7565b9050919050565b60006020820190508181036000830152611f5b81611d0a565b9050919050565b6000602082019050611f776000830184611d2d565b92915050565b6000611f87611f98565b9050611f9382826121b1565b919050565b6000604051905090565b600067ffffffffffffffff821115611fbd57611fbc6122b8565b5b602082029050602081019050919050565b600067ffffffffffffffff821115611fe957611fe86122b8565b5b611ff28261230a565b9050602081019050919050565b600081519050919050565b600082825260208201905092915050565b600061202682612109565b915061203183612109565b9250827fffffffffffffffffffffffffffffffffffffffffffffffffffffffffffffffff038211156120665761206561222b565b5b828201905092915050565b600061207c82612109565b915061208783612109565b9250817fffffffffffffffffffffffffffffffffffffffffffffffffffffffffffffffff04831182151516156120c0576120bf61222b565b5b828202905092915050565b60006120d6826120e9565b9050919050565b60008115159050919050565b600073ffffffffffffffffffffffffffffffffffffffff82169050919050565b6000819050919050565b82818337600083830152505050565b60005b83811015612140578082015181840152602081019050612125565b8381111561214f576000848401525b50505050565b600061216082612109565b915060008214156121745761217361222b565b5b600182039050919050565b6000600282049050600182168061219757607f821691505b602082108114156121ab576121aa61225a565b5b50919050565b6121ba8261230a565b810181811067ffffffffffffffff821117156121d9576121d86122b8565b5b80604052505050565b60006121ed82612109565b91507fffffffffffffffffffffffffffffffffffffffffffffffffffffffffffffffff8214156122205761221f61222b565b5b600182019050919050565b7f4e487b7100000000000000000000000000000000000000000000000000000000600052601160045260246000fd5b7f4e487b7100000000000000000000000000000000000000000000000000000000600052602260045260246000fd5b7f4e487b7100000000000000000000000000000000000000000000000000000000600052603260045260246000fd5b7f4e487b7100000000000000000000000000000000000000000000000000000000600052604160045260246000fd5b600080fd5b600080fd5b600080fd5b600080fd5b600080fd5b600080fd5b600080fd5b6000601f19601f8301169050919050565b7f214572723a206475726174696f6e4461797320746f2073686f72740000000000600082015250565b7f214e6f7420417574686f72697a65640000000000000000000000000000000000600082015250565b7f214572723a204e6f7420466163746f727920436f6e7472616374000000000000600082015250565b7f214572723a2044697361626c6564000000000000000000000000000000000000600082015250565b7f214572723a2046756e64696e6720476f616c206e6f7420656e6f756768000000600082015250565b7f214572723a205265776172647320656d70747900000000000000000000000000600082015250565b7f214572723a20496e646578206e6f742065786973740000000000000000000000600082015250565b7f214572723a204465736372697074696f6e20656d707479000000000000000000600082015250565b7f214572723a205469746c6520656d707479000000000000000000000000000000600082015250565b612495816120cb565b81146124a057600080fd5b50565b6124ac816120dd565b81146124b757600080fd5b50565b6124c381612109565b81146124ce57600080fd5b5056fea2646970667358221220a44aca4563d9e1117837963d5306da8bd4a048ca95b4226b51f5d604f8b0eaf064736f6c63430008060033a264697066735822122037752998c226b150b151307545d1c4aa9384ce790dbe66f4f421da1346187e5764736f6c63430008060033",
  "immutableReferences": {},
  "source": "// SPDX-License-Identifier: MIT\r\npragma solidity 0.8.6;\r\n\r\nimport \"./Campaign.sol\";\r\nimport \"./interfaces/ICampaign.sol\";\r\nimport \"./interfaces/ICampaignFactory.sol\";\r\n\r\n/**\r\n* @title CampaignFactory\r\n* @notice The Campaign factory is used for the deployment of new campaign\r\n* @dev Inherit of for the CampaignFactory Interface\r\n*/\r\ncontract CampaignFactory is ICampaignFactory {\r\n\r\n    address public owner;\r\n    ICampaign[] public deployedCampaigns;\r\n    mapping(address => uint) public contractIndex;\r\n    mapping(address => bool) public contractExist;\r\n\r\n    //Events\r\n    event newCampaign(address campaignAddress);\r\n\r\n    constructor(){\r\n        owner = msg.sender;\r\n    }\r\n\r\n    /**\r\n     * @inheritdoc ICampaignFactory\r\n     */\r\n    function createCampaign(ICampaign.Info memory infoData, ICampaign.Rewards[] memory rewardsData) external override {\r\n        ICampaign _newCampaign = new Campaign(infoData, rewardsData, msg.sender);\r\n        deployedCampaigns.push(_newCampaign);\r\n        contractIndex[address(_newCampaign)] = getLastDeployedCampaignsIndex();\r\n        contractExist[address(_newCampaign)] = true;\r\n        emit newCampaign(address(_newCampaign));\r\n    }\r\n\r\n    /**\r\n     * @inheritdoc ICampaignFactory\r\n     */\r\n    function deleteCampaign() public override returns (bool){\r\n        require(contractExist[msg.sender], \"!Err: Not exist\");\r\n        uint _indexToSwap = contractIndex[msg.sender];\r\n        if (_indexToSwap != getLastDeployedCampaignsIndex()) {\r\n            deployedCampaigns[_indexToSwap] = deployedCampaigns[getLastDeployedCampaignsIndex()];\r\n            contractIndex[address(deployedCampaigns[getLastDeployedCampaignsIndex()])] = _indexToSwap;\r\n        }\r\n        deployedCampaigns.pop();\r\n        delete contractIndex[msg.sender];\r\n        delete contractExist[msg.sender];\r\n        return true;\r\n    }\r\n\r\n    /**\r\n     * @inheritdoc ICampaignFactory\r\n     */\r\n    function updateOwner(address newOwner) external override {\r\n        require(owner == msg.sender, \"!Not Authorized\");\r\n        owner = newOwner;\r\n    }\r\n\r\n    /**\r\n     * @inheritdoc ICampaignFactory\r\n     */\r\n    function getDeployedCampaignsList() external override view returns (ICampaign[] memory){\r\n        return deployedCampaigns;\r\n    }\r\n\r\n    /**\r\n     * @notice Helper to get the index of the last campaign deployed\r\n     * @return index uint index of the last elem of the deployedCampaigns array\r\n     */\r\n    function getLastDeployedCampaignsIndex() internal view returns (uint){\r\n        return deployedCampaigns.length - 1;\r\n    }\r\n}\r\n",
  "sourcePath": "A:/Programing/Projet_Final/Sparkup/contracts/CampaignFactory.sol",
  "compiler": {
    "name": "solc",
    "version": "0.8.6+commit.11564f7e.Emscripten.clang"
  },
  "schemaVersion": "3.4.1",
  "updatedAt": "2021-07-18T20:04:19.328Z",
  "networkType": "ethereum",
  "devdoc": {
    "details": "Inherit of for the CampaignFactory Interface",
    "kind": "dev",
    "methods": {
      "createCampaign((string,string,uint256,uint256),(string,string,uint256,uint256,uint256,uint256,bool)[])": {
        "params": {
          "infoData": "ICampaign.Info basic information for a campaign following the Campaign Info structure",
          "rewardsData": "ICampaign.Rewards array of rewards information for a campaign following the Campaign Info structure"
        }
      },
      "deleteCampaign()": {
        "details": "Only an contract already deployed must be able to call this function",
        "returns": {
          "_0": "success bool"
        }
      },
      "getDeployedCampaignsList()": {
        "returns": {
          "_0": "Campaigns ICampaign[] list of campaigns address deployed and still actives"
        }
      },
      "updateOwner(address)": {
        "details": "Only the actual owner must be able to call this function",
        "params": {
          "newOwner": "address The new owner address"
        }
      }
    },
    "title": "CampaignFactory",
    "version": 1
  },
  "userdoc": {
    "kind": "user",
    "methods": {
      "createCampaign((string,string,uint256,uint256),(string,string,uint256,uint256,uint256,uint256,bool)[])": {
        "notice": "Create a new Campaign contract and init it"
      },
      "deleteCampaign()": {
        "notice": "Delete a new Campaign that call this function."
      },
      "getDeployedCampaignsList()": {
        "notice": "Allow to get the all list of campaign address deployed"
      },
      "updateOwner(address)": {
        "notice": "Allow the owner to set a new owner for the factory."
      }
    },
    "notice": "The Campaign factory is used for the deployment of new campaign",
    "version": 1
  }
}