{
  "contractName": "Campaign",
  "abi": [
    {
      "inputs": [
        {
          "components": [
            {
              "internalType": "string",
              "name": "title",
              "type": "string"
            },
            {
              "internalType": "string",
              "name": "description",
              "type": "string"
            },
            {
              "internalType": "uint256",
              "name": "fundingGoal",
              "type": "uint256"
            },
            {
              "internalType": "uint256",
              "name": "deadlineDate",
              "type": "uint256"
            }
          ],
          "internalType": "struct ICampaign.Info",
          "name": "infoData",
          "type": "tuple"
        },
        {
          "components": [
            {
              "internalType": "string",
              "name": "title",
              "type": "string"
            },
            {
              "internalType": "string",
              "name": "description",
              "type": "string"
            },
            {
              "internalType": "uint256",
              "name": "minimumContribution",
              "type": "uint256"
            },
            {
              "internalType": "uint256",
              "name": "amount",
              "type": "uint256"
            },
            {
              "internalType": "uint256",
              "name": "stockLimit",
              "type": "uint256"
            },
            {
              "internalType": "uint256",
              "name": "nbContributors",
              "type": "uint256"
            },
            {
              "internalType": "bool",
              "name": "isStockLimited",
              "type": "bool"
            }
          ],
          "internalType": "struct ICampaign.Rewards[]",
          "name": "rewardsData",
          "type": "tuple[]"
        },
        {
          "internalType": "address",
          "name": "_manager",
          "type": "address"
        }
      ],
      "stateMutability": "nonpayable",
      "type": "constructor"
    },
    {
      "anonymous": false,
      "inputs": [],
      "name": "CampaignDisabled",
      "type": "event"
    },
    {
      "anonymous": false,
      "inputs": [],
      "name": "CampaignInfoUpdated",
      "type": "event"
    },
    {
      "anonymous": false,
      "inputs": [
        {
          "indexed": false,
          "internalType": "uint256",
          "name": "rewardsCounter",
          "type": "uint256"
        }
      ],
      "name": "CampaignNewRewardsAdded",
      "type": "event"
    },
    {
      "anonymous": false,
      "inputs": [],
      "name": "CampaignRewardDeleted",
      "type": "event"
    },
    {
      "anonymous": false,
      "inputs": [],
      "name": "CampaignRewardsUpdated",
      "type": "event"
    },
    {
      "anonymous": false,
      "inputs": [],
      "name": "newCampaign",
      "type": "event"
    },
    {
      "inputs": [],
      "name": "campaignInfo",
      "outputs": [
        {
          "internalType": "string",
          "name": "title",
          "type": "string"
        },
        {
          "internalType": "string",
          "name": "description",
          "type": "string"
        },
        {
          "internalType": "uint256",
          "name": "fundingGoal",
          "type": "uint256"
        },
        {
          "internalType": "uint256",
          "name": "deadlineDate",
          "type": "uint256"
        }
      ],
      "stateMutability": "view",
      "type": "function"
    },
    {
      "inputs": [],
      "name": "createAt",
      "outputs": [
        {
          "internalType": "uint256",
          "name": "",
          "type": "uint256"
        }
      ],
      "stateMutability": "view",
      "type": "function"
    },
    {
      "inputs": [],
      "name": "factory",
      "outputs": [
        {
          "internalType": "address",
          "name": "",
          "type": "address"
        }
      ],
      "stateMutability": "view",
      "type": "function"
    },
    {
      "inputs": [],
      "name": "isDisabled",
      "outputs": [
        {
          "internalType": "bool",
          "name": "",
          "type": "bool"
        }
      ],
      "stateMutability": "view",
      "type": "function"
    },
    {
      "inputs": [],
      "name": "manager",
      "outputs": [
        {
          "internalType": "address",
          "name": "",
          "type": "address"
        }
      ],
      "stateMutability": "view",
      "type": "function"
    },
    {
      "inputs": [],
      "name": "rewardsCounter",
      "outputs": [
        {
          "internalType": "uint8",
          "name": "",
          "type": "uint8"
        }
      ],
      "stateMutability": "view",
      "type": "function"
    },
    {
      "inputs": [
        {
          "internalType": "uint256",
          "name": "",
          "type": "uint256"
        }
      ],
      "name": "rewardsList",
      "outputs": [
        {
          "internalType": "string",
          "name": "title",
          "type": "string"
        },
        {
          "internalType": "string",
          "name": "description",
          "type": "string"
        },
        {
          "internalType": "uint256",
          "name": "minimumContribution",
          "type": "uint256"
        },
        {
          "internalType": "uint256",
          "name": "amount",
          "type": "uint256"
        },
        {
          "internalType": "uint256",
          "name": "stockLimit",
          "type": "uint256"
        },
        {
          "internalType": "uint256",
          "name": "nbContributors",
          "type": "uint256"
        },
        {
          "internalType": "bool",
          "name": "isStockLimited",
          "type": "bool"
        }
      ],
      "stateMutability": "view",
      "type": "function"
    },
    {
      "inputs": [
        {
          "components": [
            {
              "internalType": "string",
              "name": "title",
              "type": "string"
            },
            {
              "internalType": "string",
              "name": "description",
              "type": "string"
            },
            {
              "internalType": "uint256",
              "name": "fundingGoal",
              "type": "uint256"
            },
            {
              "internalType": "uint256",
              "name": "deadlineDate",
              "type": "uint256"
            }
          ],
          "internalType": "struct ICampaign.Info",
          "name": "newInfo",
          "type": "tuple"
        }
      ],
      "name": "updateCampaign",
      "outputs": [],
      "stateMutability": "nonpayable",
      "type": "function"
    },
    {
      "inputs": [
        {
          "components": [
            {
              "internalType": "string",
              "name": "title",
              "type": "string"
            },
            {
              "internalType": "string",
              "name": "description",
              "type": "string"
            },
            {
              "internalType": "uint256",
              "name": "minimumContribution",
              "type": "uint256"
            },
            {
              "internalType": "uint256",
              "name": "amount",
              "type": "uint256"
            },
            {
              "internalType": "uint256",
              "name": "stockLimit",
              "type": "uint256"
            },
            {
              "internalType": "uint256",
              "name": "nbContributors",
              "type": "uint256"
            },
            {
              "internalType": "bool",
              "name": "isStockLimited",
              "type": "bool"
            }
          ],
          "internalType": "struct ICampaign.Rewards",
          "name": "newRewardData",
          "type": "tuple"
        }
      ],
      "name": "addReward",
      "outputs": [],
      "stateMutability": "nonpayable",
      "type": "function"
    },
    {
      "inputs": [
        {
          "components": [
            {
              "internalType": "string",
              "name": "title",
              "type": "string"
            },
            {
              "internalType": "string",
              "name": "description",
              "type": "string"
            },
            {
              "internalType": "uint256",
              "name": "minimumContribution",
              "type": "uint256"
            },
            {
              "internalType": "uint256",
              "name": "amount",
              "type": "uint256"
            },
            {
              "internalType": "uint256",
              "name": "stockLimit",
              "type": "uint256"
            },
            {
              "internalType": "uint256",
              "name": "nbContributors",
              "type": "uint256"
            },
            {
              "internalType": "bool",
              "name": "isStockLimited",
              "type": "bool"
            }
          ],
          "internalType": "struct ICampaign.Rewards",
          "name": "newRewardData",
          "type": "tuple"
        },
        {
          "internalType": "uint256",
          "name": "rewardIndex",
          "type": "uint256"
        }
      ],
      "name": "updateReward",
      "outputs": [],
      "stateMutability": "nonpayable",
      "type": "function"
    },
    {
      "inputs": [],
      "name": "deleteCampaign",
      "outputs": [],
      "stateMutability": "nonpayable",
      "type": "function"
    },
    {
      "inputs": [
        {
          "internalType": "uint256",
          "name": "rewardIndex",
          "type": "uint256"
        }
      ],
      "name": "deleteReward",
      "outputs": [],
      "stateMutability": "nonpayable",
      "type": "function"
    },
    {
      "inputs": [
        {
          "internalType": "address",
          "name": "newManager",
          "type": "address"
        }
      ],
      "name": "updateManager",
      "outputs": [],
      "stateMutability": "nonpayable",
      "type": "function"
    },
    {
      "inputs": [
        {
          "internalType": "address",
          "name": "newFactory",
          "type": "address"
        }
      ],
      "name": "updateFactory",
      "outputs": [],
      "stateMutability": "nonpayable",
      "type": "function"
    }
  ],
  "bytecode": "0x60806040523480156200001157600080fd5b5060405162003194380380620031948339818101604052810190620000379190620009a7565b60008251116200007e576040517f08c379a0000000000000000000000000000000000000000000000000000000008152600401620000759062000b91565b60405180910390fd5b600a82511115620000c6576040517f08c379a0000000000000000000000000000000000000000000000000000000008152600401620000bd9062000b2b565b60405180910390fd5b80600260006101000a81548173ffffffffffffffffffffffffffffffffffffffff021916908373ffffffffffffffffffffffffffffffffffffffff16021790555033600360006101000a81548173ffffffffffffffffffffffffffffffffffffffff021916908373ffffffffffffffffffffffffffffffffffffffff1602179055504260018190555062000160836200022760201b60201c565b600060019054906101000a9050505b8151600060019054906101000a900460ff1660ff1610156200021e57620001de600060019054906101000a900460ff1660ff1683600060019054906101000a900460ff1660ff1681518110620001ca57620001c962000e79565b5b6020026020010151620003c460201b60201c565b6000600181819054906101000a900460ff1680929190620001ff9062000dec565b91906101000a81548160ff021916908360ff160217905550506200016f565b5050506200104f565b60008160000151511162000272576040517f08c379a0000000000000000000000000000000000000000000000000000000008152600401620002699062000bd5565b60405180910390fd5b600081602001515111620002bd576040517f08c379a0000000000000000000000000000000000000000000000000000000008152600401620002b49062000bb3565b60405180910390fd5b6127108160400151101562000309576040517f08c379a0000000000000000000000000000000000000000000000000000000008152600401620003009062000b6f565b60405180910390fd5b806060015162093a8060015462000321919062000c96565b111562000365576040517f08c379a00000000000000000000000000000000000000000000000000000000081526004016200035c9062000b4d565b60405180910390fd5b806000015160046000019080519060200190620003849291906200055e565b50806020015160046001019080519060200190620003a49291906200055e565b508060400151600460020181905550806060015160046003018190555050565b6000816000015151116200040f576040517f08c379a0000000000000000000000000000000000000000000000000000000008152600401620004069062000bd5565b60405180910390fd5b6000816020015151116200045a576040517f08c379a0000000000000000000000000000000000000000000000000000000008152600401620004519062000bb3565b60405180910390fd5b62000464620005ef565b8160000151816000018190525081602001518160200181905250816040015181604001818152505081608001518160800181815250508160a001518160a00181815250508160c001518160c001901515908115158152505080600860008581526020019081526020016000206000820151816000019080519060200190620004ee9291906200055e565b5060208201518160010190805190602001906200050d9291906200055e565b5060408201518160020155606082015181600301556080820151816004015560a0820151816005015560c08201518160060160006101000a81548160ff021916908315150217905550905050505050565b8280546200056c9062000d80565b90600052602060002090601f016020900481019282620005905760008555620005dc565b82601f10620005ab57805160ff1916838001178555620005dc565b82800160010185558215620005dc579182015b82811115620005db578251825591602001919060010190620005be565b5b509050620005eb91906200062e565b5090565b6040518060e001604052806060815260200160608152602001600081526020016000815260200160008152602001600081526020016000151581525090565b5b80821115620006495760008160009055506001016200062f565b5090565b6000620006646200065e8462000c20565b62000bf7565b905080838252602082019050828560208602820111156200068a576200068962000ee6565b5b60005b85811015620006df57815167ffffffffffffffff811115620006b457620006b362000ed7565b5b808601620006c389826200088b565b855260208501945060208401935050506001810190506200068d565b5050509392505050565b600062000700620006fa8462000c4f565b62000bf7565b9050828152602081018484840111156200071f576200071e62000eeb565b5b6200072c84828562000d4a565b509392505050565b600081519050620007458162001001565b92915050565b600082601f83011262000763576200076262000ed7565b5b8151620007758482602086016200064d565b91505092915050565b6000815190506200078f816200101b565b92915050565b600082601f830112620007ad57620007ac62000ed7565b5b8151620007bf848260208601620006e9565b91505092915050565b600060808284031215620007e157620007e062000edc565b5b620007ed608062000bf7565b9050600082015167ffffffffffffffff81111562000810576200080f62000ee1565b5b6200081e8482850162000795565b600083015250602082015167ffffffffffffffff81111562000845576200084462000ee1565b5b620008538482850162000795565b6020830152506040620008698482850162000990565b60408301525060606200087f8482850162000990565b60608301525092915050565b600060e08284031215620008a457620008a362000edc565b5b620008b060e062000bf7565b9050600082015167ffffffffffffffff811115620008d357620008d262000ee1565b5b620008e18482850162000795565b600083015250602082015167ffffffffffffffff81111562000908576200090762000ee1565b5b620009168482850162000795565b60208301525060406200092c8482850162000990565b6040830152506060620009428482850162000990565b6060830152506080620009588482850162000990565b60808301525060a06200096e8482850162000990565b60a08301525060c062000984848285016200077e565b60c08301525092915050565b600081519050620009a18162001035565b92915050565b600080600060608486031215620009c357620009c262000ef5565b5b600084015167ffffffffffffffff811115620009e457620009e362000ef0565b5b620009f286828701620007c8565b935050602084015167ffffffffffffffff81111562000a165762000a1562000ef0565b5b62000a24868287016200074b565b925050604062000a378682870162000734565b9150509250925092565b600062000a5060168362000c85565b915062000a5d8262000f0b565b602082019050919050565b600062000a77601b8362000c85565b915062000a848262000f34565b602082019050919050565b600062000a9e601d8362000c85565b915062000aab8262000f5d565b602082019050919050565b600062000ac560138362000c85565b915062000ad28262000f86565b602082019050919050565b600062000aec60178362000c85565b915062000af98262000faf565b602082019050919050565b600062000b1360118362000c85565b915062000b208262000fd8565b602082019050919050565b6000602082019050818103600083015262000b468162000a41565b9050919050565b6000602082019050818103600083015262000b688162000a68565b9050919050565b6000602082019050818103600083015262000b8a8162000a8f565b9050919050565b6000602082019050818103600083015262000bac8162000ab6565b9050919050565b6000602082019050818103600083015262000bce8162000add565b9050919050565b6000602082019050818103600083015262000bf08162000b04565b9050919050565b600062000c0362000c16565b905062000c11828262000db6565b919050565b6000604051905090565b600067ffffffffffffffff82111562000c3e5762000c3d62000ea8565b5b602082029050602081019050919050565b600067ffffffffffffffff82111562000c6d5762000c6c62000ea8565b5b62000c788262000efa565b9050602081019050919050565b600082825260208201905092915050565b600062000ca38262000d33565b915062000cb08362000d33565b9250827fffffffffffffffffffffffffffffffffffffffffffffffffffffffffffffffff0382111562000ce85762000ce762000e1b565b5b828201905092915050565b600062000d008262000d13565b9050919050565b60008115159050919050565b600073ffffffffffffffffffffffffffffffffffffffff82169050919050565b6000819050919050565b600060ff82169050919050565b60005b8381101562000d6a57808201518184015260208101905062000d4d565b8381111562000d7a576000848401525b50505050565b6000600282049050600182168062000d9957607f821691505b6020821081141562000db05762000daf62000e4a565b5b50919050565b62000dc18262000efa565b810181811067ffffffffffffffff8211171562000de35762000de262000ea8565b5b80604052505050565b600062000df98262000d3d565b915060ff82141562000e105762000e0f62000e1b565b5b600182019050919050565b7f4e487b7100000000000000000000000000000000000000000000000000000000600052601160045260246000fd5b7f4e487b7100000000000000000000000000000000000000000000000000000000600052602260045260246000fd5b7f4e487b7100000000000000000000000000000000000000000000000000000000600052603260045260246000fd5b7f4e487b7100000000000000000000000000000000000000000000000000000000600052604160045260246000fd5b600080fd5b600080fd5b600080fd5b600080fd5b600080fd5b600080fd5b600080fd5b6000601f19601f8301169050919050565b7f214572723a20546f6f206d756368205265776172647300000000000000000000600082015250565b7f214572723a20646561646c696e654461746520746f2073686f72740000000000600082015250565b7f214572723a2046756e64696e6720476f616c206e6f7420656e6f756768000000600082015250565b7f214572723a205265776172647320656d70747900000000000000000000000000600082015250565b7f214572723a204465736372697074696f6e20656d707479000000000000000000600082015250565b7f214572723a205469746c6520656d707479000000000000000000000000000000600082015250565b6200100c8162000cf3565b81146200101857600080fd5b50565b620010268162000d07565b81146200103257600080fd5b50565b620010408162000d33565b81146200104c57600080fd5b50565b612135806200105f6000396000f3fe608060405234801561001057600080fd5b50600436106100ea5760003560e01c8063bd39e0151161008c578063c45a015511610066578063c45a01551461021c578063d355f0061461023a578063d9f165dc14610256578063e7cf1ab714610272576100ea565b8063bd39e015146101a7578063bf1d4cad146101dd578063c2ea6a7f146101fb576100ea565b8063481c6a75116100c8578063481c6a751461013357806356212d591461015157806358aba00f1461016d5780636c57f5a914610189576100ea565b8063205b0914146100ef578063244c3c2c1461010d57806337acecce14610117575b600080fd5b6100f761028e565b6040516101049190611c73565b60405180910390f35b6101156102a1565b005b610131600480360381019061012c9190611780565b61046a565b005b61013b610580565b6040516101489190611a37565b60405180910390f35b61016b60048036038101906101669190611812565b6105a6565b005b61018760048036038101906101829190611726565b610713565b005b6101916107e7565b60405161019e9190611a52565b60405180910390f35b6101c160048036038101906101bc919061186e565b6107f8565b6040516101d49796959493929190611ac0565b60405180910390f35b6101e5610957565b6040516101f29190611c3d565b60405180910390f35b61020361095d565b6040516102139493929190611a6d565b60405180910390f35b610224610a8b565b6040516102319190611a37565b60405180910390f35b610254600480360381019061024f91906117c9565b610ab1565b005b610270600480360381019061026b9190611726565b610c2c565b005b61028c6004803603810190610287919061186e565b610d00565b005b600060019054906101000a900460ff1681565b60008054906101000a900460ff16156102ef576040517f08c379a00000000000000000000000000000000000000000000000000000000081526004016102e690611b9d565b60405180910390fd5b600260009054906101000a900473ffffffffffffffffffffffffffffffffffffffff1673ffffffffffffffffffffffffffffffffffffffff163373ffffffffffffffffffffffffffffffffffffffff161461037f576040517f08c379a000000000000000000000000000000000000000000000000000000000815260040161037690611b5d565b60405180910390fd5b60016000806101000a81548160ff021916908315150217905550600360009054906101000a900473ffffffffffffffffffffffffffffffffffffffff1673ffffffffffffffffffffffffffffffffffffffff1663244c3c2c6040518163ffffffff1660e01b8152600401602060405180830381600087803b15801561040357600080fd5b505af1158015610417573d6000803e3d6000fd5b505050506040513d601f19601f8201168201806040525081019061043b9190611753565b507ffeb7af4852eca96c1bfc4abd1bf2029a80272acdbf1f1d1d97c47dd6388fc66960405160405180910390a1565b60008054906101000a900460ff16156104b8576040517f08c379a00000000000000000000000000000000000000000000000000000000081526004016104af90611b9d565b60405180910390fd5b600260009054906101000a900473ffffffffffffffffffffffffffffffffffffffff1673ffffffffffffffffffffffffffffffffffffffff163373ffffffffffffffffffffffffffffffffffffffff1614610548576040517f08c379a000000000000000000000000000000000000000000000000000000000815260040161053f90611b5d565b60405180910390fd5b61055181610ffe565b7f811e66beac215e4afafaadcb6fa0f561430b1690fe0869f16abb767f166378a160405160405180910390a150565b600260009054906101000a900473ffffffffffffffffffffffffffffffffffffffff1681565b60008054906101000a900460ff16156105f4576040517f08c379a00000000000000000000000000000000000000000000000000000000081526004016105eb90611b9d565b60405180910390fd5b600260009054906101000a900473ffffffffffffffffffffffffffffffffffffffff1673ffffffffffffffffffffffffffffffffffffffff163373ffffffffffffffffffffffffffffffffffffffff1614610684576040517f08c379a000000000000000000000000000000000000000000000000000000000815260040161067b90611b5d565b60405180910390fd5b600060019054906101000a900460ff1660ff168111156106d9576040517f08c379a00000000000000000000000000000000000000000000000000000000081526004016106d090611bdd565b60405180910390fd5b6106e38183611189565b7fecf60f602773eab1fd9d40cefaf4b9841fb542d201e68a21f94d04c4febd468160405160405180910390a15050565b600260009054906101000a900473ffffffffffffffffffffffffffffffffffffffff1673ffffffffffffffffffffffffffffffffffffffff163373ffffffffffffffffffffffffffffffffffffffff16146107a3576040517f08c379a000000000000000000000000000000000000000000000000000000000815260040161079a90611b5d565b60405180910390fd5b80600260006101000a81548173ffffffffffffffffffffffffffffffffffffffff021916908373ffffffffffffffffffffffffffffffffffffffff16021790555050565b60008054906101000a900460ff1681565b600860205280600052604060002060009150905080600001805461081b90611e29565b80601f016020809104026020016040519081016040528092919081815260200182805461084790611e29565b80156108945780601f1061086957610100808354040283529160200191610894565b820191906000526020600020905b81548152906001019060200180831161087757829003601f168201915b5050505050908060010180546108a990611e29565b80601f01602080910402602001604051908101604052809291908181526020018280546108d590611e29565b80156109225780601f106108f757610100808354040283529160200191610922565b820191906000526020600020905b81548152906001019060200180831161090557829003601f168201915b5050505050908060020154908060030154908060040154908060050154908060060160009054906101000a900460ff16905087565b60015481565b600480600001805461096e90611e29565b80601f016020809104026020016040519081016040528092919081815260200182805461099a90611e29565b80156109e75780601f106109bc576101008083540402835291602001916109e7565b820191906000526020600020905b8154815290600101906020018083116109ca57829003601f168201915b5050505050908060010180546109fc90611e29565b80601f0160208091040260200160405190810160405280929190818152602001828054610a2890611e29565b8015610a755780601f10610a4a57610100808354040283529160200191610a75565b820191906000526020600020905b815481529060010190602001808311610a5857829003601f168201915b5050505050908060020154908060030154905084565b600360009054906101000a900473ffffffffffffffffffffffffffffffffffffffff1681565b60008054906101000a900460ff1615610aff576040517f08c379a0000000000000000000000000000000000000000000000000000000008152600401610af690611b9d565b60405180910390fd5b600260009054906101000a900473ffffffffffffffffffffffffffffffffffffffff1673ffffffffffffffffffffffffffffffffffffffff163373ffffffffffffffffffffffffffffffffffffffff1614610b8f576040517f08c379a0000000000000000000000000000000000000000000000000000000008152600401610b8690611b5d565b60405180910390fd5b6000600181819054906101000a900460ff1680929190610bae90611e8c565b91906101000a81548160ff021916908360ff16021790555050610be3600060019054906101000a900460ff1660ff1682611189565b7fb2b3a6cae014e777a38588687036f49746e93cd5787e86f03d667e6634a1d373600060019054906101000a900460ff16604051610c219190611c58565b60405180910390a150565b3373ffffffffffffffffffffffffffffffffffffffff16600360009054906101000a900473ffffffffffffffffffffffffffffffffffffffff1673ffffffffffffffffffffffffffffffffffffffff1614610cbc576040517f08c379a0000000000000000000000000000000000000000000000000000000008152600401610cb390611b7d565b60405180910390fd5b80600360006101000a81548173ffffffffffffffffffffffffffffffffffffffff021916908373ffffffffffffffffffffffffffffffffffffffff16021790555050565b60008054906101000a900460ff1615610d4e576040517f08c379a0000000000000000000000000000000000000000000000000000000008152600401610d4590611b9d565b60405180910390fd5b600260009054906101000a900473ffffffffffffffffffffffffffffffffffffffff1673ffffffffffffffffffffffffffffffffffffffff163373ffffffffffffffffffffffffffffffffffffffff1614610dde576040517f08c379a0000000000000000000000000000000000000000000000000000000008152600401610dd590611b5d565b60405180910390fd5b600060019054906101000a900460ff1660ff16811115610e33576040517f08c379a0000000000000000000000000000000000000000000000000000000008152600401610e2a90611bdd565b60405180910390fd5b80600060019054906101000a900460ff1660ff1614610f1c57600860008060019054906101000a900460ff1660ff168152602001908152602001600020600860008381526020019081526020016000206000820181600001908054610e9790611e29565b610ea2929190611317565b506001820181600101908054610eb790611e29565b610ec2929190611317565b50600282015481600201556003820154816003015560048201548160040155600582015481600501556006820160009054906101000a900460ff168160060160006101000a81548160ff0219169083151502179055509050505b600860008060019054906101000a900460ff1660ff16815260200190815260200160002060008082016000610f5191906113a4565b600182016000610f6191906113a4565b60028201600090556003820160009055600482016000905560058201600090556006820160006101000a81549060ff021916905550506000600181819054906101000a900460ff1680929190610fb690611dff565b91906101000a81548160ff021916908360ff160217905550507f0827f1eff1e08734db2dd5d48026bbd6a3c6d84959a04390246cf09f83c8138260405160405180910390a150565b600081600001515111611046576040517f08c379a000000000000000000000000000000000000000000000000000000000815260040161103d90611c1d565b60405180910390fd5b60008160200151511161108e576040517f08c379a000000000000000000000000000000000000000000000000000000000815260040161108590611bfd565b60405180910390fd5b612710816040015110156110d7576040517f08c379a00000000000000000000000000000000000000000000000000000000081526004016110ce90611bbd565b60405180910390fd5b806060015162093a806001546110ed9190611d00565b111561112e576040517f08c379a000000000000000000000000000000000000000000000000000000000815260040161112590611b3d565b60405180910390fd5b80600001516004600001908051906020019061114b9291906113e4565b508060200151600460010190805190602001906111699291906113e4565b508060400151600460020181905550806060015160046003018190555050565b6000816000015151116111d1576040517f08c379a00000000000000000000000000000000000000000000000000000000081526004016111c890611c1d565b60405180910390fd5b600081602001515111611219576040517f08c379a000000000000000000000000000000000000000000000000000000000815260040161121090611bfd565b60405180910390fd5b61122161146a565b8160000151816000018190525081602001518160200181905250816040015181604001818152505081608001518160800181815250508160a001518160a00181815250508160c001518160c0019015159081151581525050806008600085815260200190815260200160002060008201518160000190805190602001906112a99291906113e4565b5060208201518160010190805190602001906112c69291906113e4565b5060408201518160020155606082015181600301556080820151816004015560a0820151816005015560c08201518160060160006101000a81548160ff021916908315150217905550905050505050565b82805461132390611e29565b90600052602060002090601f0160209004810192826113455760008555611393565b82601f106113565780548555611393565b8280016001018555821561139357600052602060002091601f016020900482015b82811115611392578254825591600101919060010190611377565b5b5090506113a091906114a9565b5090565b5080546113b090611e29565b6000825580601f106113c257506113e1565b601f0160209004906000526020600020908101906113e091906114a9565b5b50565b8280546113f090611e29565b90600052602060002090601f0160209004810192826114125760008555611459565b82601f1061142b57805160ff1916838001178555611459565b82800160010185558215611459579182015b8281111561145857825182559160200191906001019061143d565b5b50905061146691906114a9565b5090565b6040518060e001604052806060815260200160608152602001600081526020016000815260200160008152602001600081526020016000151581525090565b5b808211156114c25760008160009055506001016114aa565b5090565b60006114d96114d484611cb3565b611c8e565b9050828152602081018484840111156114f5576114f4611f52565b5b611500848285611dbd565b509392505050565b600081359050611517816120ba565b92915050565b60008135905061152c816120d1565b92915050565b600081519050611541816120d1565b92915050565b600082601f83011261155c5761155b611f43565b5b813561156c8482602086016114c6565b91505092915050565b60006080828403121561158b5761158a611f48565b5b6115956080611c8e565b9050600082013567ffffffffffffffff8111156115b5576115b4611f4d565b5b6115c184828501611547565b600083015250602082013567ffffffffffffffff8111156115e5576115e4611f4d565b5b6115f184828501611547565b602083015250604061160584828501611711565b604083015250606061161984828501611711565b60608301525092915050565b600060e0828403121561163b5761163a611f48565b5b61164560e0611c8e565b9050600082013567ffffffffffffffff81111561166557611664611f4d565b5b61167184828501611547565b600083015250602082013567ffffffffffffffff81111561169557611694611f4d565b5b6116a184828501611547565b60208301525060406116b584828501611711565b60408301525060606116c984828501611711565b60608301525060806116dd84828501611711565b60808301525060a06116f184828501611711565b60a08301525060c06117058482850161151d565b60c08301525092915050565b600081359050611720816120e8565b92915050565b60006020828403121561173c5761173b611f5c565b5b600061174a84828501611508565b91505092915050565b60006020828403121561176957611768611f5c565b5b600061177784828501611532565b91505092915050565b60006020828403121561179657611795611f5c565b5b600082013567ffffffffffffffff8111156117b4576117b3611f57565b5b6117c084828501611575565b91505092915050565b6000602082840312156117df576117de611f5c565b5b600082013567ffffffffffffffff8111156117fd576117fc611f57565b5b61180984828501611625565b91505092915050565b6000806040838503121561182957611828611f5c565b5b600083013567ffffffffffffffff81111561184757611846611f57565b5b61185385828601611625565b925050602061186485828601611711565b9150509250929050565b60006020828403121561188457611883611f5c565b5b600061189284828501611711565b91505092915050565b6118a481611d56565b82525050565b6118b381611d68565b82525050565b60006118c482611ce4565b6118ce8185611cef565b93506118de818560208601611dcc565b6118e781611f61565b840191505092915050565b60006118ff601b83611cef565b915061190a82611f72565b602082019050919050565b6000611922600f83611cef565b915061192d82611f9b565b602082019050919050565b6000611945601a83611cef565b915061195082611fc4565b602082019050919050565b6000611968600e83611cef565b915061197382611fed565b602082019050919050565b600061198b601d83611cef565b915061199682612016565b602082019050919050565b60006119ae601583611cef565b91506119b98261203f565b602082019050919050565b60006119d1601783611cef565b91506119dc82612068565b602082019050919050565b60006119f4601183611cef565b91506119ff82612091565b602082019050919050565b611a1381611d94565b82525050565b611a2281611dab565b82525050565b611a3181611d9e565b82525050565b6000602082019050611a4c600083018461189b565b92915050565b6000602082019050611a6760008301846118aa565b92915050565b60006080820190508181036000830152611a8781876118b9565b90508181036020830152611a9b81866118b9565b9050611aaa6040830185611a0a565b611ab76060830184611a0a565b95945050505050565b600060e0820190508181036000830152611ada818a6118b9565b90508181036020830152611aee81896118b9565b9050611afd6040830188611a0a565b611b0a6060830187611a0a565b611b176080830186611a0a565b611b2460a0830185611a0a565b611b3160c08301846118aa565b98975050505050505050565b60006020820190508181036000830152611b56816118f2565b9050919050565b60006020820190508181036000830152611b7681611915565b9050919050565b60006020820190508181036000830152611b9681611938565b9050919050565b60006020820190508181036000830152611bb68161195b565b9050919050565b60006020820190508181036000830152611bd68161197e565b9050919050565b60006020820190508181036000830152611bf6816119a1565b9050919050565b60006020820190508181036000830152611c16816119c4565b9050919050565b60006020820190508181036000830152611c36816119e7565b9050919050565b6000602082019050611c526000830184611a0a565b92915050565b6000602082019050611c6d6000830184611a19565b92915050565b6000602082019050611c886000830184611a28565b92915050565b6000611c98611ca9565b9050611ca48282611e5b565b919050565b6000604051905090565b600067ffffffffffffffff821115611cce57611ccd611f14565b5b611cd782611f61565b9050602081019050919050565b600081519050919050565b600082825260208201905092915050565b6000611d0b82611d94565b9150611d1683611d94565b9250827fffffffffffffffffffffffffffffffffffffffffffffffffffffffffffffffff03821115611d4b57611d4a611eb6565b5b828201905092915050565b6000611d6182611d74565b9050919050565b60008115159050919050565b600073ffffffffffffffffffffffffffffffffffffffff82169050919050565b6000819050919050565b600060ff82169050919050565b6000611db682611d9e565b9050919050565b82818337600083830152505050565b60005b83811015611dea578082015181840152602081019050611dcf565b83811115611df9576000848401525b50505050565b6000611e0a82611d9e565b91506000821415611e1e57611e1d611eb6565b5b600182039050919050565b60006002820490506001821680611e4157607f821691505b60208210811415611e5557611e54611ee5565b5b50919050565b611e6482611f61565b810181811067ffffffffffffffff82111715611e8357611e82611f14565b5b80604052505050565b6000611e9782611d9e565b915060ff821415611eab57611eaa611eb6565b5b600182019050919050565b7f4e487b7100000000000000000000000000000000000000000000000000000000600052601160045260246000fd5b7f4e487b7100000000000000000000000000000000000000000000000000000000600052602260045260246000fd5b7f4e487b7100000000000000000000000000000000000000000000000000000000600052604160045260246000fd5b600080fd5b600080fd5b600080fd5b600080fd5b600080fd5b600080fd5b6000601f19601f8301169050919050565b7f214572723a20646561646c696e654461746520746f2073686f72740000000000600082015250565b7f214e6f7420417574686f72697a65640000000000000000000000000000000000600082015250565b7f214572723a204e6f7420466163746f727920436f6e7472616374000000000000600082015250565b7f214572723a2044697361626c6564000000000000000000000000000000000000600082015250565b7f214572723a2046756e64696e6720476f616c206e6f7420656e6f756768000000600082015250565b7f214572723a20496e646578206e6f742065786973740000000000000000000000600082015250565b7f214572723a204465736372697074696f6e20656d707479000000000000000000600082015250565b7f214572723a205469746c6520656d707479000000000000000000000000000000600082015250565b6120c381611d56565b81146120ce57600080fd5b50565b6120da81611d68565b81146120e557600080fd5b50565b6120f181611d94565b81146120fc57600080fd5b5056fea2646970667358221220da9e1ba6aa62ab140ce42bf4514b7e9274d5893ec9eb86561b143e754311789d64736f6c63430008060033",
  "immutableReferences": {},
  "source": "// SPDX-License-Identifier: GPL-3.0\npragma solidity 0.8.6;\n\nimport \"./interfaces/ICampaign.sol\";\nimport \"./interfaces/ICampaignFactory.sol\";\n\ncontract Campaign is ICampaign {\n\n    bool public isDisabled;\n    uint8 public rewardsCounter;\n    uint256 public createAt;\n    address public manager;\n    address public factory;\n\n    Info public campaignInfo;\n    mapping(uint => Rewards) public rewardsList;\n\n\n    //    Events\n    event newCampaign();\n    event CampaignNewRewardsAdded(uint rewardsCounter);\n    event CampaignInfoUpdated();\n    event CampaignRewardsUpdated();\n    event CampaignDisabled();\n    event CampaignRewardDeleted();\n\n    //Modifiers\n    modifier isNotDisabled(){\n        require(!isDisabled, \"!Err: Disabled\");\n        _;\n    }\n\n    modifier onlyManager(){\n        require(msg.sender == manager, \"!Not Authorized\");\n        _;\n    }\n\n    constructor(Info memory infoData, Rewards[] memory rewardsData, address _manager)\n    {\n        require(rewardsData.length > 0, \"!Err: Rewards empty\");\n        require(rewardsData.length <= 10, \"!Err: Too much Rewards\");\n        manager = _manager;\n        factory = msg.sender;\n        createAt = block.timestamp;\n        _setCampaignInfo(infoData);\n        for (rewardsCounter; rewardsCounter < rewardsData.length; rewardsCounter++) {\n            _setCampaignReward(rewardsCounter, rewardsData[rewardsCounter]);\n        }\n    }\n\n    /**\n     * @inheritdoc ICampaign\n     */\n    function updateCampaign(Info memory newInfo) external override isNotDisabled() onlyManager() {\n        _setCampaignInfo(newInfo);\n        emit CampaignInfoUpdated();\n    }\n\n    /**\n     * @inheritdoc ICampaign\n     */\n    function addReward(Rewards memory newRewardData) external override isNotDisabled() onlyManager() {\n        rewardsCounter++;\n        _setCampaignReward(rewardsCounter, newRewardData);\n        emit CampaignNewRewardsAdded(rewardsCounter);\n    }\n\n    /**\n     * @inheritdoc ICampaign\n     */\n    function updateReward(Rewards memory newRewardData, uint rewardIndex) external override isNotDisabled() onlyManager() {\n        require(rewardIndex <= rewardsCounter, \"!Err: Index not exist\");\n        _setCampaignReward(rewardIndex, newRewardData);\n        emit CampaignRewardsUpdated();\n    }\n\n    /**\n    * @notice Internal function that set a new campaign's info and making data validation first.\n    * @param data Info Object that contains the Info data following the Info struct\n    */\n    function _setCampaignInfo(Info memory data) private {\n        require(bytes(data.title).length > 0, \"!Err: Title empty\");\n        require(bytes(data.description).length > 0, \"!Err: Description empty\");\n        require(data.fundingGoal >= 10000, \"!Err: Funding Goal not enough\");\n        require(createAt + 7 days <= data.deadlineDate, \"!Err: deadlineDate to short\");\n        campaignInfo.title = data.title;\n        campaignInfo.description = data.description;\n        campaignInfo.fundingGoal = data.fundingGoal;\n        campaignInfo.deadlineDate = data.deadlineDate;\n    }\n\n    /**\n     * @notice Internal function that set a new campaign's reward level and making data validation first.\n     * @param index uint Index of the reward to add\n     * @param data Rewards Object that contains the Reward data following the Rewards struct\n     */\n    function _setCampaignReward(uint index, Rewards memory data) private {\n        require(bytes(data.title).length > 0, \"!Err: Title empty\");\n        require(bytes(data.description).length > 0, \"!Err: Description empty\");\n        Rewards memory r;\n        r.title = data.title;\n        r.description = data.description;\n        r.minimumContribution = data.minimumContribution;\n        r.stockLimit = data.stockLimit;\n        r.nbContributors = data.nbContributors;\n        r.isStockLimited = data.isStockLimited;\n        rewardsList[index] = r;\n    }\n\n    /**\n     * @inheritdoc ICampaign\n     */\n    function deleteCampaign() external override isNotDisabled() onlyManager() {\n        isDisabled = true;\n        ICampaignFactory(factory).deleteCampaign();\n        emit CampaignDisabled();\n    }\n\n    /**\n     * @inheritdoc ICampaign\n     */\n    function deleteReward(uint256 rewardIndex) external override isNotDisabled() onlyManager() {\n        require(rewardIndex <= rewardsCounter, \"!Err: Index not exist\");\n        if(rewardsCounter!=rewardIndex){\n            rewardsList[rewardIndex] = rewardsList[rewardsCounter];\n        }\n        delete rewardsList[rewardsCounter];\n        rewardsCounter--;\n        emit CampaignRewardDeleted();\n    }\n\n    /**\n     * @inheritdoc ICampaign\n     */\n    function updateManager(address newManager) external override onlyManager() {\n        manager = newManager;\n    }\n\n    /**\n     * @inheritdoc ICampaign\n     */\n    function updateFactory(address newFactory) external override {\n        require(factory == msg.sender, \"!Err: Not Factory Contract\");\n        factory = newFactory;\n    }\n}\n",
  "sourcePath": "/Users/Xutyr/Documents/Lab/SparkUp/contracts/Campaign.sol",
  "compiler": {
    "name": "solc",
    "version": "0.8.6+commit.11564f7e.Emscripten.clang"
  },
  "schemaVersion": "3.4.1",
  "updatedAt": "2021-07-22T23:40:01.289Z",
  "devdoc": {
    "kind": "dev",
    "methods": {
      "addReward((string,string,uint256,uint256,uint256,uint256,bool))": {
        "details": "Only the manager must be able to call it.",
        "params": {
          "newRewardData": "Rewards Object that contains all the needed information following the Rewards struct for the campaign"
        }
      },
      "deleteCampaign()": {
        "details": "It's the entry point for deleting a campaign. Only the manager must be able to call it"
      },
      "deleteReward(uint256)": {
        "details": "Only the manager must be able to call it.",
        "params": {
          "rewardIndex": "uint256 Index of the reward to delete"
        }
      },
      "updateCampaign((string,string,uint256,uint256))": {
        "details": "Only the manager must be able to call it.",
        "params": {
          "updatedInfoData": "Info Object that contains all the new information following the Info struct for the campaign"
        }
      },
      "updateFactory(address)": {
        "details": "Used for mainly for pointing the right factory during the deletion",
        "params": {
          "newFactory": "address Address of the new factory"
        }
      },
      "updateManager(address)": {
        "details": "Only the manager must be able to call it.",
        "params": {
          "newManager": "address Address of the new manager"
        }
      },
      "updateReward((string,string,uint256,uint256,uint256,uint256,bool),uint256)": {
        "details": "Only the manager must be able to call it.",
        "params": {
          "newRewardData": "Rewards Object that contains the new data to set following the Rewards struct for the campaign",
          "rewardIndex": "uint256 Index of the reward to update"
        }
      }
    },
    "version": 1
  },
  "userdoc": {
    "kind": "user",
    "methods": {
      "addReward((string,string,uint256,uint256,uint256,uint256,bool))": {
        "notice": "Add a new reward level to the campaign."
      },
      "deleteCampaign()": {
        "notice": "Delete the campaign."
      },
      "deleteReward(uint256)": {
        "notice": "Delete a reward by its Id."
      },
      "updateCampaign((string,string,uint256,uint256))": {
        "notice": "Update the campaign information in the struct Info."
      },
      "updateFactory(address)": {
        "notice": "Allow the factory to setup a new one in case of migration."
      },
      "updateManager(address)": {
        "notice": "Allow the manager to setup a new one."
      },
      "updateReward((string,string,uint256,uint256,uint256,uint256,bool),uint256)": {
        "notice": "Update the data of a specific reward regarding its id."
      }
    },
    "version": 1
  }
}