{
  "contractName": "Campaign",
  "abi": [
    {
      "inputs": [
        {
          "components": [
            {
              "internalType": "string",
              "name": "title",
              "type": "string"
            },
            {
              "internalType": "string",
              "name": "description",
              "type": "string"
            },
            {
              "internalType": "uint256",
              "name": "fundingGoal",
              "type": "uint256"
            },
            {
              "internalType": "uint256",
              "name": "durationDays",
              "type": "uint256"
            }
          ],
          "internalType": "struct ICampaign.Info",
          "name": "infoData",
          "type": "tuple"
        },
        {
          "components": [
            {
              "internalType": "string",
              "name": "title",
              "type": "string"
            },
            {
              "internalType": "string",
              "name": "description",
              "type": "string"
            },
            {
              "internalType": "uint256",
              "name": "minimumContribution",
              "type": "uint256"
            },
            {
              "internalType": "uint256",
              "name": "amount",
              "type": "uint256"
            },
            {
              "internalType": "uint256",
              "name": "stockLimit",
              "type": "uint256"
            },
            {
              "internalType": "uint256",
              "name": "nbContributors",
              "type": "uint256"
            },
            {
              "internalType": "bool",
              "name": "isStockLimited",
              "type": "bool"
            }
          ],
          "internalType": "struct ICampaign.Rewards[]",
          "name": "rewardsData",
          "type": "tuple[]"
        },
        {
          "internalType": "address",
          "name": "_manager",
          "type": "address"
        }
      ],
      "stateMutability": "nonpayable",
      "type": "constructor"
    },
    {
      "anonymous": false,
      "inputs": [],
      "name": "CampaignDisabled",
      "type": "event"
    },
    {
      "anonymous": false,
      "inputs": [],
      "name": "CampaignInfoUpdated",
      "type": "event"
    },
    {
      "anonymous": false,
      "inputs": [
        {
          "indexed": false,
          "internalType": "uint256",
          "name": "rewardsCounter",
          "type": "uint256"
        }
      ],
      "name": "CampaignNewRewardsAdded",
      "type": "event"
    },
    {
      "anonymous": false,
      "inputs": [],
      "name": "CampaignRewardDeleted",
      "type": "event"
    },
    {
      "anonymous": false,
      "inputs": [],
      "name": "CampaignRewardsUpdated",
      "type": "event"
    },
    {
      "anonymous": false,
      "inputs": [],
      "name": "newCampaign",
      "type": "event"
    },
    {
      "inputs": [],
      "name": "campaignInfo",
      "outputs": [
        {
          "internalType": "string",
          "name": "title",
          "type": "string"
        },
        {
          "internalType": "string",
          "name": "description",
          "type": "string"
        },
        {
          "internalType": "uint256",
          "name": "fundingGoal",
          "type": "uint256"
        },
        {
          "internalType": "uint256",
          "name": "durationDays",
          "type": "uint256"
        }
      ],
      "stateMutability": "view",
      "type": "function"
    },
    {
      "inputs": [],
      "name": "createAt",
      "outputs": [
        {
          "internalType": "uint256",
          "name": "",
          "type": "uint256"
        }
      ],
      "stateMutability": "view",
      "type": "function"
    },
    {
      "inputs": [],
      "name": "factory",
      "outputs": [
        {
          "internalType": "address",
          "name": "",
          "type": "address"
        }
      ],
      "stateMutability": "view",
      "type": "function"
    },
    {
      "inputs": [],
      "name": "isDisabled",
      "outputs": [
        {
          "internalType": "bool",
          "name": "",
          "type": "bool"
        }
      ],
      "stateMutability": "view",
      "type": "function"
    },
    {
      "inputs": [],
      "name": "lastUpdatedAt",
      "outputs": [
        {
          "internalType": "uint256",
          "name": "",
          "type": "uint256"
        }
      ],
      "stateMutability": "view",
      "type": "function"
    },
    {
      "inputs": [],
      "name": "manager",
      "outputs": [
        {
          "internalType": "address",
          "name": "",
          "type": "address"
        }
      ],
      "stateMutability": "view",
      "type": "function"
    },
    {
      "inputs": [],
      "name": "rewardsCounter",
      "outputs": [
        {
          "internalType": "uint8",
          "name": "",
          "type": "uint8"
        }
      ],
      "stateMutability": "view",
      "type": "function"
    },
    {
      "inputs": [
        {
          "internalType": "uint256",
          "name": "",
          "type": "uint256"
        }
      ],
      "name": "rewardsList",
      "outputs": [
        {
          "internalType": "string",
          "name": "title",
          "type": "string"
        },
        {
          "internalType": "string",
          "name": "description",
          "type": "string"
        },
        {
          "internalType": "uint256",
          "name": "minimumContribution",
          "type": "uint256"
        },
        {
          "internalType": "uint256",
          "name": "amount",
          "type": "uint256"
        },
        {
          "internalType": "uint256",
          "name": "stockLimit",
          "type": "uint256"
        },
        {
          "internalType": "uint256",
          "name": "nbContributors",
          "type": "uint256"
        },
        {
          "internalType": "bool",
          "name": "isStockLimited",
          "type": "bool"
        }
      ],
      "stateMutability": "view",
      "type": "function"
    },
    {
      "inputs": [
        {
          "components": [
            {
              "internalType": "string",
              "name": "title",
              "type": "string"
            },
            {
              "internalType": "string",
              "name": "description",
              "type": "string"
            },
            {
              "internalType": "uint256",
              "name": "fundingGoal",
              "type": "uint256"
            },
            {
              "internalType": "uint256",
              "name": "durationDays",
              "type": "uint256"
            }
          ],
          "internalType": "struct ICampaign.Info",
          "name": "newInfo",
          "type": "tuple"
        }
      ],
      "name": "updateCampaign",
      "outputs": [],
      "stateMutability": "nonpayable",
      "type": "function"
    },
    {
      "inputs": [
        {
          "components": [
            {
              "internalType": "string",
              "name": "title",
              "type": "string"
            },
            {
              "internalType": "string",
              "name": "description",
              "type": "string"
            },
            {
              "internalType": "uint256",
              "name": "minimumContribution",
              "type": "uint256"
            },
            {
              "internalType": "uint256",
              "name": "amount",
              "type": "uint256"
            },
            {
              "internalType": "uint256",
              "name": "stockLimit",
              "type": "uint256"
            },
            {
              "internalType": "uint256",
              "name": "nbContributors",
              "type": "uint256"
            },
            {
              "internalType": "bool",
              "name": "isStockLimited",
              "type": "bool"
            }
          ],
          "internalType": "struct ICampaign.Rewards",
          "name": "newRewardData",
          "type": "tuple"
        }
      ],
      "name": "addReward",
      "outputs": [],
      "stateMutability": "nonpayable",
      "type": "function"
    },
    {
      "inputs": [
        {
          "components": [
            {
              "internalType": "string",
              "name": "title",
              "type": "string"
            },
            {
              "internalType": "string",
              "name": "description",
              "type": "string"
            },
            {
              "internalType": "uint256",
              "name": "minimumContribution",
              "type": "uint256"
            },
            {
              "internalType": "uint256",
              "name": "amount",
              "type": "uint256"
            },
            {
              "internalType": "uint256",
              "name": "stockLimit",
              "type": "uint256"
            },
            {
              "internalType": "uint256",
              "name": "nbContributors",
              "type": "uint256"
            },
            {
              "internalType": "bool",
              "name": "isStockLimited",
              "type": "bool"
            }
          ],
          "internalType": "struct ICampaign.Rewards",
          "name": "newRewardData",
          "type": "tuple"
        },
        {
          "internalType": "uint256",
          "name": "rewardIndex",
          "type": "uint256"
        }
      ],
      "name": "updateReward",
      "outputs": [],
      "stateMutability": "nonpayable",
      "type": "function"
    },
    {
      "inputs": [],
      "name": "deleteCampaign",
      "outputs": [],
      "stateMutability": "nonpayable",
      "type": "function"
    },
    {
      "inputs": [
        {
          "internalType": "uint256",
          "name": "rewardIndex",
          "type": "uint256"
        }
      ],
      "name": "deleteReward",
      "outputs": [],
      "stateMutability": "nonpayable",
      "type": "function"
    },
    {
      "inputs": [
        {
          "internalType": "address",
          "name": "newManager",
          "type": "address"
        }
      ],
      "name": "updateManager",
      "outputs": [],
      "stateMutability": "nonpayable",
      "type": "function"
    },
    {
      "inputs": [
        {
          "internalType": "address",
          "name": "newFactory",
          "type": "address"
        }
      ],
      "name": "updateFactory",
      "outputs": [],
      "stateMutability": "nonpayable",
      "type": "function"
    }
  ],
  "bytecode": "0x60806040523480156200001157600080fd5b50604051620032b4380380620032b48339818101604052810190620000379190620009c4565b60008251116200007e576040517f08c379a0000000000000000000000000000000000000000000000000000000008152600401620000759062000bae565b60405180910390fd5b600a82511115620000c6576040517f08c379a0000000000000000000000000000000000000000000000000000000008152600401620000bd9062000b48565b60405180910390fd5b80600360006101000a81548173ffffffffffffffffffffffffffffffffffffffff021916908373ffffffffffffffffffffffffffffffffffffffff16021790555033600460006101000a81548173ffffffffffffffffffffffffffffffffffffffff021916908373ffffffffffffffffffffffffffffffffffffffff1602179055504260018190555062000160836200022760201b60201c565b600060019054906101000a9050505b8151600060019054906101000a900460ff1660ff1610156200021e57620001de600060019054906101000a900460ff1660ff1683600060019054906101000a900460ff1660ff1681518110620001ca57620001c962000ef7565b5b6020026020010151620003e160201b60201c565b6000600181819054906101000a900460ff1680929190620001ff9062000e6a565b91906101000a81548160ff021916908360ff160217905550506200016f565b505050620010cd565b60008160000151511162000272576040517f08c379a0000000000000000000000000000000000000000000000000000000008152600401620002699062000bf2565b60405180910390fd5b600081602001515111620002bd576040517f08c379a0000000000000000000000000000000000000000000000000000000008152600401620002b49062000bd0565b60405180910390fd5b6127108160400151101562000309576040517f08c379a0000000000000000000000000000000000000000000000000000000008152600401620003009062000b8c565b60405180910390fd5b62093a80426200031a919062000cb3565b6201518082606001516200032f919062000d10565b6001546200033e919062000cb3565b101562000382576040517f08c379a0000000000000000000000000000000000000000000000000000000008152600401620003799062000b6a565b60405180910390fd5b806000015160056000019080519060200190620003a19291906200057b565b50806020015160056001019080519060200190620003c19291906200057b565b508060400151600560020181905550806060015160056003018190555050565b6000816000015151116200042c576040517f08c379a0000000000000000000000000000000000000000000000000000000008152600401620004239062000bf2565b60405180910390fd5b60008160200151511162000477576040517f08c379a00000000000000000000000000000000000000000000000000000000081526004016200046e9062000bd0565b60405180910390fd5b620004816200060c565b8160000151816000018190525081602001518160200181905250816040015181604001818152505081608001518160800181815250508160a001518160a00181815250508160c001518160c0019015159081151581525050806009600085815260200190815260200160002060008201518160000190805190602001906200050b9291906200057b565b5060208201518160010190805190602001906200052a9291906200057b565b5060408201518160020155606082015181600301556080820151816004015560a0820151816005015560c08201518160060160006101000a81548160ff021916908315150217905550905050505050565b828054620005899062000dfe565b90600052602060002090601f016020900481019282620005ad5760008555620005f9565b82601f10620005c857805160ff1916838001178555620005f9565b82800160010185558215620005f9579182015b82811115620005f8578251825591602001919060010190620005db565b5b5090506200060891906200064b565b5090565b6040518060e001604052806060815260200160608152602001600081526020016000815260200160008152602001600081526020016000151581525090565b5b80821115620006665760008160009055506001016200064c565b5090565b6000620006816200067b8462000c3d565b62000c14565b90508083825260208201905082856020860282011115620006a757620006a662000f64565b5b60005b85811015620006fc57815167ffffffffffffffff811115620006d157620006d062000f55565b5b808601620006e08982620008a8565b85526020850194506020840193505050600181019050620006aa565b5050509392505050565b60006200071d620007178462000c6c565b62000c14565b9050828152602081018484840111156200073c576200073b62000f69565b5b6200074984828562000dc8565b509392505050565b60008151905062000762816200107f565b92915050565b600082601f83011262000780576200077f62000f55565b5b8151620007928482602086016200066a565b91505092915050565b600081519050620007ac8162001099565b92915050565b600082601f830112620007ca57620007c962000f55565b5b8151620007dc84826020860162000706565b91505092915050565b600060808284031215620007fe57620007fd62000f5a565b5b6200080a608062000c14565b9050600082015167ffffffffffffffff8111156200082d576200082c62000f5f565b5b6200083b84828501620007b2565b600083015250602082015167ffffffffffffffff81111562000862576200086162000f5f565b5b6200087084828501620007b2565b60208301525060406200088684828501620009ad565b60408301525060606200089c84828501620009ad565b60608301525092915050565b600060e08284031215620008c157620008c062000f5a565b5b620008cd60e062000c14565b9050600082015167ffffffffffffffff811115620008f057620008ef62000f5f565b5b620008fe84828501620007b2565b600083015250602082015167ffffffffffffffff81111562000925576200092462000f5f565b5b6200093384828501620007b2565b60208301525060406200094984828501620009ad565b60408301525060606200095f84828501620009ad565b60608301525060806200097584828501620009ad565b60808301525060a06200098b84828501620009ad565b60a08301525060c0620009a1848285016200079b565b60c08301525092915050565b600081519050620009be81620010b3565b92915050565b600080600060608486031215620009e057620009df62000f73565b5b600084015167ffffffffffffffff81111562000a015762000a0062000f6e565b5b62000a0f86828701620007e5565b935050602084015167ffffffffffffffff81111562000a335762000a3262000f6e565b5b62000a418682870162000768565b925050604062000a548682870162000751565b9150509250925092565b600062000a6d60168362000ca2565b915062000a7a8262000f89565b602082019050919050565b600062000a94601b8362000ca2565b915062000aa18262000fb2565b602082019050919050565b600062000abb601d8362000ca2565b915062000ac88262000fdb565b602082019050919050565b600062000ae260138362000ca2565b915062000aef8262001004565b602082019050919050565b600062000b0960178362000ca2565b915062000b16826200102d565b602082019050919050565b600062000b3060118362000ca2565b915062000b3d8262001056565b602082019050919050565b6000602082019050818103600083015262000b638162000a5e565b9050919050565b6000602082019050818103600083015262000b858162000a85565b9050919050565b6000602082019050818103600083015262000ba78162000aac565b9050919050565b6000602082019050818103600083015262000bc98162000ad3565b9050919050565b6000602082019050818103600083015262000beb8162000afa565b9050919050565b6000602082019050818103600083015262000c0d8162000b21565b9050919050565b600062000c2062000c33565b905062000c2e828262000e34565b919050565b6000604051905090565b600067ffffffffffffffff82111562000c5b5762000c5a62000f26565b5b602082029050602081019050919050565b600067ffffffffffffffff82111562000c8a5762000c8962000f26565b5b62000c958262000f78565b9050602081019050919050565b600082825260208201905092915050565b600062000cc08262000db1565b915062000ccd8362000db1565b9250827fffffffffffffffffffffffffffffffffffffffffffffffffffffffffffffffff0382111562000d055762000d0462000e99565b5b828201905092915050565b600062000d1d8262000db1565b915062000d2a8362000db1565b9250817fffffffffffffffffffffffffffffffffffffffffffffffffffffffffffffffff048311821515161562000d665762000d6562000e99565b5b828202905092915050565b600062000d7e8262000d91565b9050919050565b60008115159050919050565b600073ffffffffffffffffffffffffffffffffffffffff82169050919050565b6000819050919050565b600060ff82169050919050565b60005b8381101562000de857808201518184015260208101905062000dcb565b8381111562000df8576000848401525b50505050565b6000600282049050600182168062000e1757607f821691505b6020821081141562000e2e5762000e2d62000ec8565b5b50919050565b62000e3f8262000f78565b810181811067ffffffffffffffff8211171562000e615762000e6062000f26565b5b80604052505050565b600062000e778262000dbb565b915060ff82141562000e8e5762000e8d62000e99565b5b600182019050919050565b7f4e487b7100000000000000000000000000000000000000000000000000000000600052601160045260246000fd5b7f4e487b7100000000000000000000000000000000000000000000000000000000600052602260045260246000fd5b7f4e487b7100000000000000000000000000000000000000000000000000000000600052603260045260246000fd5b7f4e487b7100000000000000000000000000000000000000000000000000000000600052604160045260246000fd5b600080fd5b600080fd5b600080fd5b600080fd5b600080fd5b600080fd5b600080fd5b6000601f19601f8301169050919050565b7f214572723a20546f6f206d756368205265776172647300000000000000000000600082015250565b7f214572723a206475726174696f6e4461797320746f2073686f72740000000000600082015250565b7f214572723a2046756e64696e6720476f616c206e6f7420656e6f756768000000600082015250565b7f214572723a205265776172647320656d70747900000000000000000000000000600082015250565b7f214572723a204465736372697074696f6e20656d707479000000000000000000600082015250565b7f214572723a205469746c6520656d707479000000000000000000000000000000600082015250565b6200108a8162000d71565b81146200109657600080fd5b50565b620010a48162000d85565b8114620010b057600080fd5b50565b620010be8162000db1565b8114620010ca57600080fd5b50565b6121d780620010dd6000396000f3fe608060405234801561001057600080fd5b50600436106100f55760003560e01c80636c57f5a911610097578063c45a015511610066578063c45a015514610245578063d355f00614610263578063d9f165dc1461027f578063e7cf1ab71461029b576100f5565b80636c57f5a9146101b2578063bd39e015146101d0578063bf1d4cad14610206578063c2ea6a7f14610224576100f5565b8063481c6a75116100d3578063481c6a751461013e57806354aea1271461015c57806356212d591461017a57806358aba00f14610196576100f5565b8063205b0914146100fa578063244c3c2c1461011857806337acecce14610122575b600080fd5b6101026102b7565b60405161010f9190611cbb565b60405180910390f35b6101206102ca565b005b61013c600480360381019061013791906117c8565b610493565b005b6101466105a9565b6040516101539190611a7f565b60405180910390f35b6101646105cf565b6040516101719190611c85565b60405180910390f35b610194600480360381019061018f919061185a565b6105d5565b005b6101b060048036038101906101ab919061176e565b610742565b005b6101ba610816565b6040516101c79190611a9a565b60405180910390f35b6101ea60048036038101906101e591906118b6565b610827565b6040516101fd9796959493929190611b08565b60405180910390f35b61020e610986565b60405161021b9190611c85565b60405180910390f35b61022c61098c565b60405161023c9493929190611ab5565b60405180910390f35b61024d610aba565b60405161025a9190611a7f565b60405180910390f35b61027d60048036038101906102789190611811565b610ae0565b005b6102996004803603810190610294919061176e565b610c5b565b005b6102b560048036038101906102b091906118b6565b610d2f565b005b600060019054906101000a900460ff1681565b60008054906101000a900460ff1615610318576040517f08c379a000000000000000000000000000000000000000000000000000000000815260040161030f90611be5565b60405180910390fd5b600360009054906101000a900473ffffffffffffffffffffffffffffffffffffffff1673ffffffffffffffffffffffffffffffffffffffff163373ffffffffffffffffffffffffffffffffffffffff16146103a8576040517f08c379a000000000000000000000000000000000000000000000000000000000815260040161039f90611ba5565b60405180910390fd5b60016000806101000a81548160ff021916908315150217905550600460009054906101000a900473ffffffffffffffffffffffffffffffffffffffff1673ffffffffffffffffffffffffffffffffffffffff1663244c3c2c6040518163ffffffff1660e01b8152600401602060405180830381600087803b15801561042c57600080fd5b505af1158015610440573d6000803e3d6000fd5b505050506040513d601f19601f82011682018060405250810190610464919061179b565b507ffeb7af4852eca96c1bfc4abd1bf2029a80272acdbf1f1d1d97c47dd6388fc66960405160405180910390a1565b60008054906101000a900460ff16156104e1576040517f08c379a00000000000000000000000000000000000000000000000000000000081526004016104d890611be5565b60405180910390fd5b600360009054906101000a900473ffffffffffffffffffffffffffffffffffffffff1673ffffffffffffffffffffffffffffffffffffffff163373ffffffffffffffffffffffffffffffffffffffff1614610571576040517f08c379a000000000000000000000000000000000000000000000000000000000815260040161056890611ba5565b60405180910390fd5b61057a8161102d565b7f811e66beac215e4afafaadcb6fa0f561430b1690fe0869f16abb767f166378a160405160405180910390a150565b600360009054906101000a900473ffffffffffffffffffffffffffffffffffffffff1681565b60025481565b60008054906101000a900460ff1615610623576040517f08c379a000000000000000000000000000000000000000000000000000000000815260040161061a90611be5565b60405180910390fd5b600360009054906101000a900473ffffffffffffffffffffffffffffffffffffffff1673ffffffffffffffffffffffffffffffffffffffff163373ffffffffffffffffffffffffffffffffffffffff16146106b3576040517f08c379a00000000000000000000000000000000000000000000000000000000081526004016106aa90611ba5565b60405180910390fd5b600060019054906101000a900460ff1660ff16811115610708576040517f08c379a00000000000000000000000000000000000000000000000000000000081526004016106ff90611c25565b60405180910390fd5b61071281836111d1565b7fecf60f602773eab1fd9d40cefaf4b9841fb542d201e68a21f94d04c4febd468160405160405180910390a15050565b600360009054906101000a900473ffffffffffffffffffffffffffffffffffffffff1673ffffffffffffffffffffffffffffffffffffffff163373ffffffffffffffffffffffffffffffffffffffff16146107d2576040517f08c379a00000000000000000000000000000000000000000000000000000000081526004016107c990611ba5565b60405180910390fd5b80600360006101000a81548173ffffffffffffffffffffffffffffffffffffffff021916908373ffffffffffffffffffffffffffffffffffffffff16021790555050565b60008054906101000a900460ff1681565b600960205280600052604060002060009150905080600001805461084a90611ecb565b80601f016020809104026020016040519081016040528092919081815260200182805461087690611ecb565b80156108c35780601f10610898576101008083540402835291602001916108c3565b820191906000526020600020905b8154815290600101906020018083116108a657829003601f168201915b5050505050908060010180546108d890611ecb565b80601f016020809104026020016040519081016040528092919081815260200182805461090490611ecb565b80156109515780601f1061092657610100808354040283529160200191610951565b820191906000526020600020905b81548152906001019060200180831161093457829003601f168201915b5050505050908060020154908060030154908060040154908060050154908060060160009054906101000a900460ff16905087565b60015481565b600580600001805461099d90611ecb565b80601f01602080910402602001604051908101604052809291908181526020018280546109c990611ecb565b8015610a165780601f106109eb57610100808354040283529160200191610a16565b820191906000526020600020905b8154815290600101906020018083116109f957829003601f168201915b505050505090806001018054610a2b90611ecb565b80601f0160208091040260200160405190810160405280929190818152602001828054610a5790611ecb565b8015610aa45780601f10610a7957610100808354040283529160200191610aa4565b820191906000526020600020905b815481529060010190602001808311610a8757829003601f168201915b5050505050908060020154908060030154905084565b600460009054906101000a900473ffffffffffffffffffffffffffffffffffffffff1681565b60008054906101000a900460ff1615610b2e576040517f08c379a0000000000000000000000000000000000000000000000000000000008152600401610b2590611be5565b60405180910390fd5b600360009054906101000a900473ffffffffffffffffffffffffffffffffffffffff1673ffffffffffffffffffffffffffffffffffffffff163373ffffffffffffffffffffffffffffffffffffffff1614610bbe576040517f08c379a0000000000000000000000000000000000000000000000000000000008152600401610bb590611ba5565b60405180910390fd5b6000600181819054906101000a900460ff1680929190610bdd90611f2e565b91906101000a81548160ff021916908360ff16021790555050610c12600060019054906101000a900460ff1660ff16826111d1565b7fb2b3a6cae014e777a38588687036f49746e93cd5787e86f03d667e6634a1d373600060019054906101000a900460ff16604051610c509190611ca0565b60405180910390a150565b3373ffffffffffffffffffffffffffffffffffffffff16600460009054906101000a900473ffffffffffffffffffffffffffffffffffffffff1673ffffffffffffffffffffffffffffffffffffffff1614610ceb576040517f08c379a0000000000000000000000000000000000000000000000000000000008152600401610ce290611bc5565b60405180910390fd5b80600460006101000a81548173ffffffffffffffffffffffffffffffffffffffff021916908373ffffffffffffffffffffffffffffffffffffffff16021790555050565b60008054906101000a900460ff1615610d7d576040517f08c379a0000000000000000000000000000000000000000000000000000000008152600401610d7490611be5565b60405180910390fd5b600360009054906101000a900473ffffffffffffffffffffffffffffffffffffffff1673ffffffffffffffffffffffffffffffffffffffff163373ffffffffffffffffffffffffffffffffffffffff1614610e0d576040517f08c379a0000000000000000000000000000000000000000000000000000000008152600401610e0490611ba5565b60405180910390fd5b600060019054906101000a900460ff1660ff16811115610e62576040517f08c379a0000000000000000000000000000000000000000000000000000000008152600401610e5990611c25565b60405180910390fd5b80600060019054906101000a900460ff1660ff1614610f4b57600960008060019054906101000a900460ff1660ff168152602001908152602001600020600960008381526020019081526020016000206000820181600001908054610ec690611ecb565b610ed192919061135f565b506001820181600101908054610ee690611ecb565b610ef192919061135f565b50600282015481600201556003820154816003015560048201548160040155600582015481600501556006820160009054906101000a900460ff168160060160006101000a81548160ff0219169083151502179055509050505b600960008060019054906101000a900460ff1660ff16815260200190815260200160002060008082016000610f8091906113ec565b600182016000610f9091906113ec565b60028201600090556003820160009055600482016000905560058201600090556006820160006101000a81549060ff021916905550506000600181819054906101000a900460ff1680929190610fe590611ea1565b91906101000a81548160ff021916908360ff160217905550507f0827f1eff1e08734db2dd5d48026bbd6a3c6d84959a04390246cf09f83c8138260405160405180910390a150565b600081600001515111611075576040517f08c379a000000000000000000000000000000000000000000000000000000000815260040161106c90611c65565b60405180910390fd5b6000816020015151116110bd576040517f08c379a00000000000000000000000000000000000000000000000000000000081526004016110b490611c45565b60405180910390fd5b61271081604001511015611106576040517f08c379a00000000000000000000000000000000000000000000000000000000081526004016110fd90611c05565b60405180910390fd5b62093a80426111159190611d48565b6201518082606001516111289190611d9e565b6001546111359190611d48565b1015611176576040517f08c379a000000000000000000000000000000000000000000000000000000000815260040161116d90611b85565b60405180910390fd5b80600001516005600001908051906020019061119392919061142c565b508060200151600560010190805190602001906111b192919061142c565b508060400151600560020181905550806060015160056003018190555050565b600081600001515111611219576040517f08c379a000000000000000000000000000000000000000000000000000000000815260040161121090611c65565b60405180910390fd5b600081602001515111611261576040517f08c379a000000000000000000000000000000000000000000000000000000000815260040161125890611c45565b60405180910390fd5b6112696114b2565b8160000151816000018190525081602001518160200181905250816040015181604001818152505081608001518160800181815250508160a001518160a00181815250508160c001518160c0019015159081151581525050806009600085815260200190815260200160002060008201518160000190805190602001906112f192919061142c565b50602082015181600101908051906020019061130e92919061142c565b5060408201518160020155606082015181600301556080820151816004015560a0820151816005015560c08201518160060160006101000a81548160ff021916908315150217905550905050505050565b82805461136b90611ecb565b90600052602060002090601f01602090048101928261138d57600085556113db565b82601f1061139e57805485556113db565b828001600101855582156113db57600052602060002091601f016020900482015b828111156113da5782548255916001019190600101906113bf565b5b5090506113e891906114f1565b5090565b5080546113f890611ecb565b6000825580601f1061140a5750611429565b601f01602090049060005260206000209081019061142891906114f1565b5b50565b82805461143890611ecb565b90600052602060002090601f01602090048101928261145a57600085556114a1565b82601f1061147357805160ff19168380011785556114a1565b828001600101855582156114a1579182015b828111156114a0578251825591602001919060010190611485565b5b5090506114ae91906114f1565b5090565b6040518060e001604052806060815260200160608152602001600081526020016000815260200160008152602001600081526020016000151581525090565b5b8082111561150a5760008160009055506001016114f2565b5090565b600061152161151c84611cfb565b611cd6565b90508281526020810184848401111561153d5761153c611ff4565b5b611548848285611e5f565b509392505050565b60008135905061155f8161215c565b92915050565b60008135905061157481612173565b92915050565b60008151905061158981612173565b92915050565b600082601f8301126115a4576115a3611fe5565b5b81356115b484826020860161150e565b91505092915050565b6000608082840312156115d3576115d2611fea565b5b6115dd6080611cd6565b9050600082013567ffffffffffffffff8111156115fd576115fc611fef565b5b6116098482850161158f565b600083015250602082013567ffffffffffffffff81111561162d5761162c611fef565b5b6116398482850161158f565b602083015250604061164d84828501611759565b604083015250606061166184828501611759565b60608301525092915050565b600060e0828403121561168357611682611fea565b5b61168d60e0611cd6565b9050600082013567ffffffffffffffff8111156116ad576116ac611fef565b5b6116b98482850161158f565b600083015250602082013567ffffffffffffffff8111156116dd576116dc611fef565b5b6116e98482850161158f565b60208301525060406116fd84828501611759565b604083015250606061171184828501611759565b606083015250608061172584828501611759565b60808301525060a061173984828501611759565b60a08301525060c061174d84828501611565565b60c08301525092915050565b6000813590506117688161218a565b92915050565b60006020828403121561178457611783611ffe565b5b600061179284828501611550565b91505092915050565b6000602082840312156117b1576117b0611ffe565b5b60006117bf8482850161157a565b91505092915050565b6000602082840312156117de576117dd611ffe565b5b600082013567ffffffffffffffff8111156117fc576117fb611ff9565b5b611808848285016115bd565b91505092915050565b60006020828403121561182757611826611ffe565b5b600082013567ffffffffffffffff81111561184557611844611ff9565b5b6118518482850161166d565b91505092915050565b6000806040838503121561187157611870611ffe565b5b600083013567ffffffffffffffff81111561188f5761188e611ff9565b5b61189b8582860161166d565b92505060206118ac85828601611759565b9150509250929050565b6000602082840312156118cc576118cb611ffe565b5b60006118da84828501611759565b91505092915050565b6118ec81611df8565b82525050565b6118fb81611e0a565b82525050565b600061190c82611d2c565b6119168185611d37565b9350611926818560208601611e6e565b61192f81612003565b840191505092915050565b6000611947601b83611d37565b915061195282612014565b602082019050919050565b600061196a600f83611d37565b91506119758261203d565b602082019050919050565b600061198d601a83611d37565b915061199882612066565b602082019050919050565b60006119b0600e83611d37565b91506119bb8261208f565b602082019050919050565b60006119d3601d83611d37565b91506119de826120b8565b602082019050919050565b60006119f6601583611d37565b9150611a01826120e1565b602082019050919050565b6000611a19601783611d37565b9150611a248261210a565b602082019050919050565b6000611a3c601183611d37565b9150611a4782612133565b602082019050919050565b611a5b81611e36565b82525050565b611a6a81611e4d565b82525050565b611a7981611e40565b82525050565b6000602082019050611a9460008301846118e3565b92915050565b6000602082019050611aaf60008301846118f2565b92915050565b60006080820190508181036000830152611acf8187611901565b90508181036020830152611ae38186611901565b9050611af26040830185611a52565b611aff6060830184611a52565b95945050505050565b600060e0820190508181036000830152611b22818a611901565b90508181036020830152611b368189611901565b9050611b456040830188611a52565b611b526060830187611a52565b611b5f6080830186611a52565b611b6c60a0830185611a52565b611b7960c08301846118f2565b98975050505050505050565b60006020820190508181036000830152611b9e8161193a565b9050919050565b60006020820190508181036000830152611bbe8161195d565b9050919050565b60006020820190508181036000830152611bde81611980565b9050919050565b60006020820190508181036000830152611bfe816119a3565b9050919050565b60006020820190508181036000830152611c1e816119c6565b9050919050565b60006020820190508181036000830152611c3e816119e9565b9050919050565b60006020820190508181036000830152611c5e81611a0c565b9050919050565b60006020820190508181036000830152611c7e81611a2f565b9050919050565b6000602082019050611c9a6000830184611a52565b92915050565b6000602082019050611cb56000830184611a61565b92915050565b6000602082019050611cd06000830184611a70565b92915050565b6000611ce0611cf1565b9050611cec8282611efd565b919050565b6000604051905090565b600067ffffffffffffffff821115611d1657611d15611fb6565b5b611d1f82612003565b9050602081019050919050565b600081519050919050565b600082825260208201905092915050565b6000611d5382611e36565b9150611d5e83611e36565b9250827fffffffffffffffffffffffffffffffffffffffffffffffffffffffffffffffff03821115611d9357611d92611f58565b5b828201905092915050565b6000611da982611e36565b9150611db483611e36565b9250817fffffffffffffffffffffffffffffffffffffffffffffffffffffffffffffffff0483118215151615611ded57611dec611f58565b5b828202905092915050565b6000611e0382611e16565b9050919050565b60008115159050919050565b600073ffffffffffffffffffffffffffffffffffffffff82169050919050565b6000819050919050565b600060ff82169050919050565b6000611e5882611e40565b9050919050565b82818337600083830152505050565b60005b83811015611e8c578082015181840152602081019050611e71565b83811115611e9b576000848401525b50505050565b6000611eac82611e40565b91506000821415611ec057611ebf611f58565b5b600182039050919050565b60006002820490506001821680611ee357607f821691505b60208210811415611ef757611ef6611f87565b5b50919050565b611f0682612003565b810181811067ffffffffffffffff82111715611f2557611f24611fb6565b5b80604052505050565b6000611f3982611e40565b915060ff821415611f4d57611f4c611f58565b5b600182019050919050565b7f4e487b7100000000000000000000000000000000000000000000000000000000600052601160045260246000fd5b7f4e487b7100000000000000000000000000000000000000000000000000000000600052602260045260246000fd5b7f4e487b7100000000000000000000000000000000000000000000000000000000600052604160045260246000fd5b600080fd5b600080fd5b600080fd5b600080fd5b600080fd5b600080fd5b6000601f19601f8301169050919050565b7f214572723a206475726174696f6e4461797320746f2073686f72740000000000600082015250565b7f214e6f7420417574686f72697a65640000000000000000000000000000000000600082015250565b7f214572723a204e6f7420466163746f727920436f6e7472616374000000000000600082015250565b7f214572723a2044697361626c6564000000000000000000000000000000000000600082015250565b7f214572723a2046756e64696e6720476f616c206e6f7420656e6f756768000000600082015250565b7f214572723a20496e646578206e6f742065786973740000000000000000000000600082015250565b7f214572723a204465736372697074696f6e20656d707479000000000000000000600082015250565b7f214572723a205469746c6520656d707479000000000000000000000000000000600082015250565b61216581611df8565b811461217057600080fd5b50565b61217c81611e0a565b811461218757600080fd5b50565b61219381611e36565b811461219e57600080fd5b5056fea2646970667358221220c7d10c28312354451ee25fd1b3fbb27c38cb8bd2bb0de7c0c9afeefcb7d94a1864736f6c63430008060033",
  "immutableReferences": {},
  "source": "// SPDX-License-Identifier: GPL-3.0\r\npragma solidity 0.8.6;\r\n\r\nimport \"./interfaces/ICampaign.sol\";\r\nimport \"./interfaces/ICampaignFactory.sol\";\r\n\r\ncontract Campaign is ICampaign {\r\n\r\n    bool public isDisabled;\r\n    uint8 public rewardsCounter;\r\n    uint256 public createAt;\r\n    uint256 public lastUpdatedAt;\r\n    address public manager;\r\n    address public factory;\r\n\r\n    Info public campaignInfo;\r\n    mapping(uint => Rewards) public rewardsList;\r\n\r\n\r\n    //    Events\r\n    event newCampaign();\r\n    event CampaignNewRewardsAdded(uint rewardsCounter);\r\n    event CampaignInfoUpdated();\r\n    event CampaignRewardsUpdated();\r\n    event CampaignDisabled();\r\n    event CampaignRewardDeleted();\r\n\r\n    //Modifiers\r\n    modifier isNotDisabled(){\r\n        require(!isDisabled, \"!Err: Disabled\");\r\n        _;\r\n    }\r\n\r\n    modifier onlyManager(){\r\n        require(msg.sender == manager, \"!Not Authorized\");\r\n        _;\r\n    }\r\n\r\n    constructor(Info memory infoData, Rewards[] memory rewardsData, address _manager)\r\n    {\r\n        require(rewardsData.length > 0, \"!Err: Rewards empty\");\r\n        require(rewardsData.length <= 10, \"!Err: Too much Rewards\");\r\n        manager = _manager;\r\n        factory = msg.sender;\r\n        createAt = block.timestamp;\r\n        _setCampaignInfo(infoData);\r\n        for (rewardsCounter; rewardsCounter < rewardsData.length; rewardsCounter++) {\r\n            _setCampaignReward(rewardsCounter, rewardsData[rewardsCounter]);\r\n        }\r\n    }\r\n\r\n    /**\r\n     * @inheritdoc ICampaign\r\n     */\r\n    function updateCampaign(Info memory newInfo) external override isNotDisabled() onlyManager() {\r\n        _setCampaignInfo(newInfo);\r\n        emit CampaignInfoUpdated();\r\n    }\r\n\r\n    /**\r\n     * @inheritdoc ICampaign\r\n     */\r\n    function addReward(Rewards memory newRewardData) external override isNotDisabled() onlyManager() {\r\n        rewardsCounter++;\r\n        _setCampaignReward(rewardsCounter, newRewardData);\r\n        emit CampaignNewRewardsAdded(rewardsCounter);\r\n    }\r\n\r\n    /**\r\n     * @inheritdoc ICampaign\r\n     */\r\n    function updateReward(Rewards memory newRewardData, uint rewardIndex) external override isNotDisabled() onlyManager() {\r\n        require(rewardIndex <= rewardsCounter, \"!Err: Index not exist\");\r\n        _setCampaignReward(rewardIndex, newRewardData);\r\n        emit CampaignRewardsUpdated();\r\n    }\r\n\r\n    /**\r\n    * @notice Internal function that set a new campaign's info and making data validation first.\r\n    * @param data Info Object that contains the Info data following the Info struct\r\n    */\r\n    function _setCampaignInfo(Info memory data) private {\r\n        require(bytes(data.title).length > 0, \"!Err: Title empty\");\r\n        require(bytes(data.description).length > 0, \"!Err: Description empty\");\r\n        require(data.fundingGoal >= 10000, \"!Err: Funding Goal not enough\");\r\n        require(createAt + data.durationDays * 1 days >= block.timestamp + 7 days, \"!Err: durationDays to short\");\r\n        campaignInfo.title = data.title;\r\n        campaignInfo.description = data.description;\r\n        campaignInfo.fundingGoal = data.fundingGoal;\r\n        campaignInfo.durationDays = data.durationDays;\r\n    }\r\n\r\n    /**\r\n     * @notice Internal function that set a new campaign's reward level and making data validation first.\r\n     * @param index uint Index of the reward to add\r\n     * @param data Rewards Object that contains the Reward data following the Rewards struct\r\n     */\r\n    function _setCampaignReward(uint index, Rewards memory data) private {\r\n        require(bytes(data.title).length > 0, \"!Err: Title empty\");\r\n        require(bytes(data.description).length > 0, \"!Err: Description empty\");\r\n        Rewards memory r;\r\n        r.title = data.title;\r\n        r.description = data.description;\r\n        r.minimumContribution = data.minimumContribution;\r\n        r.stockLimit = data.stockLimit;\r\n        r.nbContributors = data.nbContributors;\r\n        r.isStockLimited = data.isStockLimited;\r\n        rewardsList[index] = r;\r\n    }\r\n\r\n    /**\r\n     * @inheritdoc ICampaign\r\n     */\r\n    function deleteCampaign() external override isNotDisabled() onlyManager() {\r\n        isDisabled = true;\r\n        ICampaignFactory(factory).deleteCampaign();\r\n        emit CampaignDisabled();\r\n    }\r\n\r\n    /**\r\n     * @inheritdoc ICampaign\r\n     */\r\n    function deleteReward(uint256 rewardIndex) external override isNotDisabled() onlyManager() {\r\n        require(rewardIndex <= rewardsCounter, \"!Err: Index not exist\");\r\n        if(rewardsCounter!=rewardIndex){\r\n            rewardsList[rewardIndex] = rewardsList[rewardsCounter];\r\n        }\r\n        delete rewardsList[rewardsCounter];\r\n        rewardsCounter--;\r\n        emit CampaignRewardDeleted();\r\n    }\r\n\r\n    /**\r\n     * @inheritdoc ICampaign\r\n     */\r\n    function updateManager(address newManager) external override onlyManager() {\r\n        manager = newManager;\r\n    }\r\n\r\n    /**\r\n     * @inheritdoc ICampaign\r\n     */\r\n    function updateFactory(address newFactory) external override {\r\n        require(factory == msg.sender, \"!Err: Not Factory Contract\");\r\n        factory = newFactory;\r\n    }\r\n}\r\n",
  "sourcePath": "A:\\Programing\\Projet_Final\\SparkUp\\contracts\\Campaign.sol",
  "compiler": {
    "name": "solc",
    "version": "0.8.6+commit.11564f7e.Emscripten.clang"
  },
  "schemaVersion": "3.4.1",
  "updatedAt": "2021-07-22T12:36:27.250Z",
  "devdoc": {
    "kind": "dev",
    "methods": {
      "addReward((string,string,uint256,uint256,uint256,uint256,bool))": {
        "details": "Only the manager must be able to call it.",
        "params": {
          "newRewardData": "Rewards Object that contains all the needed information following the Rewards struct for the campaign"
        }
      },
      "deleteCampaign()": {
        "details": "It's the entry point for deleting a campaign. Only the manager must be able to call it"
      },
      "deleteReward(uint256)": {
        "details": "Only the manager must be able to call it.",
        "params": {
          "rewardIndex": "uint256 Index of the reward to delete"
        }
      },
      "updateCampaign((string,string,uint256,uint256))": {
        "details": "Only the manager must be able to call it.",
        "params": {
          "updatedInfoData": "Info Object that contains all the new information following the Info struct for the campaign"
        }
      },
      "updateFactory(address)": {
        "details": "Used for mainly for pointing the right factory during the deletion",
        "params": {
          "newFactory": "address Address of the new factory"
        }
      },
      "updateManager(address)": {
        "details": "Only the manager must be able to call it.",
        "params": {
          "newManager": "address Address of the new manager"
        }
      },
      "updateReward((string,string,uint256,uint256,uint256,uint256,bool),uint256)": {
        "details": "Only the manager must be able to call it.",
        "params": {
          "newRewardData": "Rewards Object that contains the new data to set following the Rewards struct for the campaign",
          "rewardIndex": "uint256 Index of the reward to update"
        }
      }
    },
    "version": 1
  },
  "userdoc": {
    "kind": "user",
    "methods": {
      "addReward((string,string,uint256,uint256,uint256,uint256,bool))": {
        "notice": "Add a new reward level to the campaign."
      },
      "deleteCampaign()": {
        "notice": "Delete the campaign."
      },
      "deleteReward(uint256)": {
        "notice": "Delete a reward by its Id."
      },
      "updateCampaign((string,string,uint256,uint256))": {
        "notice": "Update the campaign information in the struct Info."
      },
      "updateFactory(address)": {
        "notice": "Allow the factory to setup a new one in case of migration."
      },
      "updateManager(address)": {
        "notice": "Allow the manager to setup a new one."
      },
      "updateReward((string,string,uint256,uint256,uint256,uint256,bool),uint256)": {
        "notice": "Update the data of a specific reward regarding its id."
      }
    },
    "version": 1
  }
}