{
  "contractName": "Campaign",
  "abi": [
    {
      "inputs": [
        {
          "components": [
            {
              "internalType": "string",
              "name": "title",
              "type": "string"
            },
            {
              "internalType": "string",
              "name": "description",
              "type": "string"
            },
            {
              "internalType": "uint256",
              "name": "fundingGoal",
              "type": "uint256"
            },
            {
              "internalType": "uint256",
              "name": "deadlineDate",
              "type": "uint256"
            }
          ],
          "internalType": "struct ICampaign.Info",
          "name": "infoData",
          "type": "tuple"
        },
        {
          "components": [
            {
              "internalType": "string",
              "name": "title",
              "type": "string"
            },
            {
              "internalType": "string",
              "name": "description",
              "type": "string"
            },
            {
              "internalType": "uint256",
              "name": "minimumContribution",
              "type": "uint256"
            },
            {
              "internalType": "uint256",
              "name": "amount",
              "type": "uint256"
            },
            {
              "internalType": "uint256",
              "name": "stockLimit",
              "type": "uint256"
            },
            {
              "internalType": "uint256",
              "name": "nbContributors",
              "type": "uint256"
            },
            {
              "internalType": "bool",
              "name": "isStockLimited",
              "type": "bool"
            }
          ],
          "internalType": "struct ICampaign.Rewards[]",
          "name": "rewardsData",
          "type": "tuple[]"
        },
        {
          "internalType": "address",
          "name": "_manager",
          "type": "address"
        }
      ],
      "stateMutability": "nonpayable",
      "type": "constructor"
    },
    {
      "anonymous": false,
      "inputs": [],
      "name": "CampaignDisabled",
      "type": "event"
    },
    {
      "anonymous": false,
      "inputs": [],
      "name": "CampaignInfoUpdated",
      "type": "event"
    },
    {
      "anonymous": false,
      "inputs": [
        {
          "indexed": false,
          "internalType": "uint256",
          "name": "rewardsCounter",
          "type": "uint256"
        }
      ],
      "name": "CampaignNewRewardsAdded",
      "type": "event"
    },
    {
      "anonymous": false,
      "inputs": [],
      "name": "CampaignRewardDeleted",
      "type": "event"
    },
    {
      "anonymous": false,
      "inputs": [],
      "name": "CampaignRewardsUpdated",
      "type": "event"
    },
    {
      "anonymous": false,
      "inputs": [
        {
          "indexed": false,
          "internalType": "address",
          "name": "",
          "type": "address"
        },
        {
          "indexed": false,
          "internalType": "uint256",
          "name": "",
          "type": "uint256"
        }
      ],
      "name": "ContributionReceived",
      "type": "event"
    },
    {
      "anonymous": false,
      "inputs": [
        {
          "indexed": false,
          "internalType": "enum ICampaign.WorkflowStatus",
          "name": "previousStatus",
          "type": "uint8"
        },
        {
          "indexed": false,
          "internalType": "enum ICampaign.WorkflowStatus",
          "name": "newStatus",
          "type": "uint8"
        }
      ],
      "name": "WorkflowStatusChange",
      "type": "event"
    },
    {
      "inputs": [
        {
          "internalType": "address",
          "name": "",
          "type": "address"
        }
      ],
      "name": "contributions",
      "outputs": [
        {
          "internalType": "uint256",
          "name": "",
          "type": "uint256"
        }
      ],
      "stateMutability": "view",
      "type": "function"
    },
    {
      "inputs": [],
      "name": "createAt",
      "outputs": [
        {
          "internalType": "uint256",
          "name": "",
          "type": "uint256"
        }
      ],
      "stateMutability": "view",
      "type": "function"
    },
    {
      "inputs": [],
      "name": "factory",
      "outputs": [
        {
          "internalType": "address",
          "name": "",
          "type": "address"
        }
      ],
      "stateMutability": "view",
      "type": "function"
    },
    {
      "inputs": [],
      "name": "isDisabled",
      "outputs": [
        {
          "internalType": "bool",
          "name": "",
          "type": "bool"
        }
      ],
      "stateMutability": "view",
      "type": "function"
    },
    {
      "inputs": [],
      "name": "manager",
      "outputs": [
        {
          "internalType": "address",
          "name": "",
          "type": "address"
        }
      ],
      "stateMutability": "view",
      "type": "function"
    },
    {
      "inputs": [],
      "name": "rewardsCounter",
      "outputs": [
        {
          "internalType": "uint8",
          "name": "",
          "type": "uint8"
        }
      ],
      "stateMutability": "view",
      "type": "function"
    },
    {
      "inputs": [
        {
          "internalType": "uint256",
          "name": "",
          "type": "uint256"
        }
      ],
      "name": "rewardsList",
      "outputs": [
        {
          "internalType": "string",
          "name": "title",
          "type": "string"
        },
        {
          "internalType": "string",
          "name": "description",
          "type": "string"
        },
        {
          "internalType": "uint256",
          "name": "minimumContribution",
          "type": "uint256"
        },
        {
          "internalType": "uint256",
          "name": "amount",
          "type": "uint256"
        },
        {
          "internalType": "uint256",
          "name": "stockLimit",
          "type": "uint256"
        },
        {
          "internalType": "uint256",
          "name": "nbContributors",
          "type": "uint256"
        },
        {
          "internalType": "bool",
          "name": "isStockLimited",
          "type": "bool"
        }
      ],
      "stateMutability": "view",
      "type": "function"
    },
    {
      "inputs": [],
      "name": "status",
      "outputs": [
        {
          "internalType": "enum ICampaign.WorkflowStatus",
          "name": "",
          "type": "uint8"
        }
      ],
      "stateMutability": "view",
      "type": "function"
    },
    {
      "inputs": [],
      "name": "usdcToken",
      "outputs": [
        {
          "internalType": "contract IERC20",
          "name": "",
          "type": "address"
        }
      ],
      "stateMutability": "view",
      "type": "function"
    },
    {
      "inputs": [],
      "name": "getCampaignInfo",
      "outputs": [
        {
          "components": [
            {
              "internalType": "string",
              "name": "title",
              "type": "string"
            },
            {
              "internalType": "string",
              "name": "description",
              "type": "string"
            },
            {
              "internalType": "uint256",
              "name": "fundingGoal",
              "type": "uint256"
            },
            {
              "internalType": "uint256",
              "name": "deadlineDate",
              "type": "uint256"
            }
          ],
          "internalType": "struct ICampaign.Info",
          "name": "",
          "type": "tuple"
        },
        {
          "internalType": "uint256",
          "name": "",
          "type": "uint256"
        },
        {
          "internalType": "address",
          "name": "",
          "type": "address"
        },
        {
          "internalType": "enum ICampaign.WorkflowStatus",
          "name": "",
          "type": "uint8"
        }
      ],
      "stateMutability": "view",
      "type": "function"
    },
    {
      "inputs": [
        {
          "components": [
            {
              "internalType": "string",
              "name": "title",
              "type": "string"
            },
            {
              "internalType": "string",
              "name": "description",
              "type": "string"
            },
            {
              "internalType": "uint256",
              "name": "fundingGoal",
              "type": "uint256"
            },
            {
              "internalType": "uint256",
              "name": "deadlineDate",
              "type": "uint256"
            }
          ],
          "internalType": "struct ICampaign.Info",
          "name": "newInfo",
          "type": "tuple"
        }
      ],
      "name": "updateCampaign",
      "outputs": [],
      "stateMutability": "nonpayable",
      "type": "function"
    },
    {
      "inputs": [
        {
          "components": [
            {
              "internalType": "string",
              "name": "title",
              "type": "string"
            },
            {
              "internalType": "string",
              "name": "description",
              "type": "string"
            },
            {
              "internalType": "uint256",
              "name": "minimumContribution",
              "type": "uint256"
            },
            {
              "internalType": "uint256",
              "name": "amount",
              "type": "uint256"
            },
            {
              "internalType": "uint256",
              "name": "stockLimit",
              "type": "uint256"
            },
            {
              "internalType": "uint256",
              "name": "nbContributors",
              "type": "uint256"
            },
            {
              "internalType": "bool",
              "name": "isStockLimited",
              "type": "bool"
            }
          ],
          "internalType": "struct ICampaign.Rewards",
          "name": "newRewardData",
          "type": "tuple"
        }
      ],
      "name": "addReward",
      "outputs": [],
      "stateMutability": "nonpayable",
      "type": "function"
    },
    {
      "inputs": [
        {
          "components": [
            {
              "internalType": "string",
              "name": "title",
              "type": "string"
            },
            {
              "internalType": "string",
              "name": "description",
              "type": "string"
            },
            {
              "internalType": "uint256",
              "name": "minimumContribution",
              "type": "uint256"
            },
            {
              "internalType": "uint256",
              "name": "amount",
              "type": "uint256"
            },
            {
              "internalType": "uint256",
              "name": "stockLimit",
              "type": "uint256"
            },
            {
              "internalType": "uint256",
              "name": "nbContributors",
              "type": "uint256"
            },
            {
              "internalType": "bool",
              "name": "isStockLimited",
              "type": "bool"
            }
          ],
          "internalType": "struct ICampaign.Rewards",
          "name": "newRewardData",
          "type": "tuple"
        },
        {
          "internalType": "uint256",
          "name": "rewardIndex",
          "type": "uint256"
        }
      ],
      "name": "updateReward",
      "outputs": [],
      "stateMutability": "nonpayable",
      "type": "function"
    },
    {
      "inputs": [],
      "name": "deleteCampaign",
      "outputs": [],
      "stateMutability": "nonpayable",
      "type": "function"
    },
    {
      "inputs": [
        {
          "internalType": "uint256",
          "name": "rewardIndex",
          "type": "uint256"
        }
      ],
      "name": "deleteReward",
      "outputs": [],
      "stateMutability": "nonpayable",
      "type": "function"
    },
    {
      "inputs": [
        {
          "internalType": "address",
          "name": "newManager",
          "type": "address"
        }
      ],
      "name": "updateManager",
      "outputs": [],
      "stateMutability": "nonpayable",
      "type": "function"
    },
    {
      "inputs": [],
      "name": "publishCampaign",
      "outputs": [],
      "stateMutability": "nonpayable",
      "type": "function"
    },
    {
      "inputs": [
        {
          "internalType": "uint256",
          "name": "_amount",
          "type": "uint256"
        }
      ],
      "name": "contribute",
      "outputs": [],
      "stateMutability": "nonpayable",
      "type": "function"
    }
  ],
  "bytecode": "0x60a06040523480156200001157600080fd5b50604051620042d1380380620042d1833981810160405281019062000037919062000a20565b60008251116200007e576040517f08c379a0000000000000000000000000000000000000000000000000000000008152600401620000759062000c0a565b60405180910390fd5b600a82511115620000c6576040517f08c379a0000000000000000000000000000000000000000000000000000000008152600401620000bd9062000ba4565b60405180910390fd5b80600260006101000a81548173ffffffffffffffffffffffffffffffffffffffff021916908373ffffffffffffffffffffffffffffffffffffffff16021790555033600360006101000a81548173ffffffffffffffffffffffffffffffffffffffff021916908373ffffffffffffffffffffffffffffffffffffffff160217905550426001819055506000600360146101000a81548160ff0219169083600581111562000178576200017762000ec3565b5b02179055507307865c6e87b9f70255377e024ace6630c1eaa37f73ffffffffffffffffffffffffffffffffffffffff1660808173ffffffffffffffffffffffffffffffffffffffff1660601b81525050620001d983620002a060201b60201c565b600060019054906101000a9050505b8151600060019054906101000a900460ff1660ff161015620002975762000257600060019054906101000a900460ff1660ff1683600060019054906101000a900460ff1660ff168151811062000243576200024262000f21565b5b60200260200101516200043d60201b60201c565b6000600181819054906101000a900460ff1680929190620002789062000e65565b91906101000a81548160ff021916908360ff16021790555050620001e8565b505050620010f7565b600081600001515111620002eb576040517f08c379a0000000000000000000000000000000000000000000000000000000008152600401620002e29062000c4e565b60405180910390fd5b60008160200151511162000336576040517f08c379a00000000000000000000000000000000000000000000000000000000081526004016200032d9062000c2c565b60405180910390fd5b6127108160400151101562000382576040517f08c379a0000000000000000000000000000000000000000000000000000000008152600401620003799062000be8565b60405180910390fd5b806060015162093a806001546200039a919062000d0f565b1115620003de576040517f08c379a0000000000000000000000000000000000000000000000000000000008152600401620003d59062000bc6565b60405180910390fd5b806000015160046000019080519060200190620003fd929190620005d7565b508060200151600460010190805190602001906200041d929190620005d7565b508060400151600460020181905550806060015160046003018190555050565b60008160000151511162000488576040517f08c379a00000000000000000000000000000000000000000000000000000000081526004016200047f9062000c4e565b60405180910390fd5b600081602001515111620004d3576040517f08c379a0000000000000000000000000000000000000000000000000000000008152600401620004ca9062000c2c565b60405180910390fd5b620004dd62000668565b8160000151816000018190525081602001518160200181905250816040015181604001818152505081608001518160800181815250508160a001518160a00181815250508160c001518160c00190151590811515815250508060086000858152602001908152602001600020600082015181600001908051906020019062000567929190620005d7565b50602082015181600101908051906020019062000586929190620005d7565b5060408201518160020155606082015181600301556080820151816004015560a0820151816005015560c08201518160060160006101000a81548160ff021916908315150217905550905050505050565b828054620005e59062000df9565b90600052602060002090601f01602090048101928262000609576000855562000655565b82601f106200062457805160ff191683800117855562000655565b8280016001018555821562000655579182015b828111156200065457825182559160200191906001019062000637565b5b509050620006649190620006a7565b5090565b6040518060e001604052806060815260200160608152602001600081526020016000815260200160008152602001600081526020016000151581525090565b5b80821115620006c2576000816000905550600101620006a8565b5090565b6000620006dd620006d78462000c99565b62000c70565b9050808382526020820190508285602086028201111562000703576200070262000f8e565b5b60005b858110156200075857815167ffffffffffffffff8111156200072d576200072c62000f7f565b5b8086016200073c898262000904565b8552602085019450602084019350505060018101905062000706565b5050509392505050565b600062000779620007738462000cc8565b62000c70565b90508281526020810184848401111562000798576200079762000f93565b5b620007a584828562000dc3565b509392505050565b600081519050620007be81620010a9565b92915050565b600082601f830112620007dc57620007db62000f7f565b5b8151620007ee848260208601620006c6565b91505092915050565b6000815190506200080881620010c3565b92915050565b600082601f83011262000826576200082562000f7f565b5b81516200083884826020860162000762565b91505092915050565b6000608082840312156200085a576200085962000f84565b5b62000866608062000c70565b9050600082015167ffffffffffffffff81111562000889576200088862000f89565b5b62000897848285016200080e565b600083015250602082015167ffffffffffffffff811115620008be57620008bd62000f89565b5b620008cc848285016200080e565b6020830152506040620008e28482850162000a09565b6040830152506060620008f88482850162000a09565b60608301525092915050565b600060e082840312156200091d576200091c62000f84565b5b6200092960e062000c70565b9050600082015167ffffffffffffffff8111156200094c576200094b62000f89565b5b6200095a848285016200080e565b600083015250602082015167ffffffffffffffff81111562000981576200098062000f89565b5b6200098f848285016200080e565b6020830152506040620009a58482850162000a09565b6040830152506060620009bb8482850162000a09565b6060830152506080620009d18482850162000a09565b60808301525060a0620009e78482850162000a09565b60a08301525060c0620009fd84828501620007f7565b60c08301525092915050565b60008151905062000a1a81620010dd565b92915050565b60008060006060848603121562000a3c5762000a3b62000f9d565b5b600084015167ffffffffffffffff81111562000a5d5762000a5c62000f98565b5b62000a6b8682870162000841565b935050602084015167ffffffffffffffff81111562000a8f5762000a8e62000f98565b5b62000a9d86828701620007c4565b925050604062000ab086828701620007ad565b9150509250925092565b600062000ac960168362000cfe565b915062000ad68262000fb3565b602082019050919050565b600062000af0601b8362000cfe565b915062000afd8262000fdc565b602082019050919050565b600062000b17601d8362000cfe565b915062000b248262001005565b602082019050919050565b600062000b3e60138362000cfe565b915062000b4b826200102e565b602082019050919050565b600062000b6560178362000cfe565b915062000b728262001057565b602082019050919050565b600062000b8c60118362000cfe565b915062000b998262001080565b602082019050919050565b6000602082019050818103600083015262000bbf8162000aba565b9050919050565b6000602082019050818103600083015262000be18162000ae1565b9050919050565b6000602082019050818103600083015262000c038162000b08565b9050919050565b6000602082019050818103600083015262000c258162000b2f565b9050919050565b6000602082019050818103600083015262000c478162000b56565b9050919050565b6000602082019050818103600083015262000c698162000b7d565b9050919050565b600062000c7c62000c8f565b905062000c8a828262000e2f565b919050565b6000604051905090565b600067ffffffffffffffff82111562000cb75762000cb662000f50565b5b602082029050602081019050919050565b600067ffffffffffffffff82111562000ce65762000ce562000f50565b5b62000cf18262000fa2565b9050602081019050919050565b600082825260208201905092915050565b600062000d1c8262000dac565b915062000d298362000dac565b9250827fffffffffffffffffffffffffffffffffffffffffffffffffffffffffffffffff0382111562000d615762000d6062000e94565b5b828201905092915050565b600062000d798262000d8c565b9050919050565b60008115159050919050565b600073ffffffffffffffffffffffffffffffffffffffff82169050919050565b6000819050919050565b600060ff82169050919050565b60005b8381101562000de357808201518184015260208101905062000dc6565b8381111562000df3576000848401525b50505050565b6000600282049050600182168062000e1257607f821691505b6020821081141562000e295762000e2862000ef2565b5b50919050565b62000e3a8262000fa2565b810181811067ffffffffffffffff8211171562000e5c5762000e5b62000f50565b5b80604052505050565b600062000e728262000db6565b915060ff82141562000e895762000e8862000e94565b5b600182019050919050565b7f4e487b7100000000000000000000000000000000000000000000000000000000600052601160045260246000fd5b7f4e487b7100000000000000000000000000000000000000000000000000000000600052602160045260246000fd5b7f4e487b7100000000000000000000000000000000000000000000000000000000600052602260045260246000fd5b7f4e487b7100000000000000000000000000000000000000000000000000000000600052603260045260246000fd5b7f4e487b7100000000000000000000000000000000000000000000000000000000600052604160045260246000fd5b600080fd5b600080fd5b600080fd5b600080fd5b600080fd5b600080fd5b600080fd5b6000601f19601f8301169050919050565b7f214572723a20546f6f206d756368205265776172647300000000000000000000600082015250565b7f214572723a20646561646c696e654461746520746f2073686f72740000000000600082015250565b7f214572723a2046756e64696e6720476f616c206e6f7420656e6f756768000000600082015250565b7f214572723a205265776172647320656d70747900000000000000000000000000600082015250565b7f214572723a204465736372697074696f6e20656d707479000000000000000000600082015250565b7f214572723a205469746c6520656d707479000000000000000000000000000000600082015250565b620010b48162000d6c565b8114620010c057600080fd5b50565b620010ce8162000d80565b8114620010da57600080fd5b50565b620010e88162000dac565b8114620010f457600080fd5b50565b60805160601c6131b46200111d600039600081816103320152610ff401526131b46000f3fe608060405234801561001057600080fd5b50600436106101165760003560e01c80636c57f5a9116100a2578063c1cbbca711610071578063c1cbbca71461029d578063c45a0155146102b9578063d355f006146102d7578063d6290cd7146102f3578063e7cf1ab71461031457610116565b80636c57f5a9146102215780637ef59f841461023f578063bd39e01514610249578063bf1d4cad1461027f57610116565b806337acecce116100e957806337acecce1461017f57806342e94c901461019b578063481c6a75146101cb57806356212d59146101e957806358aba00f1461020557610116565b806311eac8551461011b578063200d2ed214610139578063205b091414610157578063244c3c2c14610175575b600080fd5b610123610330565b6040516101309190612864565b60405180910390f35b610141610354565b60405161014e919061287f565b60405180910390f35b61015f610367565b60405161016c9190612b44565b60405180910390f35b61017d61037a565b005b61019960048036038101906101949190612396565b61066e565b005b6101b560048036038101906101b0919061233c565b610826565b6040516101c29190612b0e565b60405180910390f35b6101d361083e565b6040516101e091906127ce565b60405180910390f35b61020360048036038101906101fe9190612428565b610864565b005b61021f600480360381019061021a919061233c565b610a73565b005b610229610b47565b6040516102369190612849565b60405180910390f35b610247610b58565b005b610263600480360381019061025e9190612484565b610d9c565b60405161027697969594939291906128e5565b60405180910390f35b610287610efb565b6040516102949190612b0e565b60405180910390f35b6102b760048036038101906102b29190612484565b610f01565b005b6102c16110ee565b6040516102ce91906127ce565b60405180910390f35b6102f160048036038101906102ec91906123df565b611114565b005b6102fb611331565b60405161030b9493929190612ac2565b60405180910390f35b61032e60048036038101906103299190612484565b611540565b005b7f000000000000000000000000000000000000000000000000000000000000000081565b600360149054906101000a900460ff1681565b600060019054906101000a900460ff1681565b60058081111561038d5761038c612e5a565b5b600360149054906101000a900460ff1660058111156103af576103ae612e5a565b5b14156103f0576040517f08c379a00000000000000000000000000000000000000000000000000000000081526004016103e790612a42565b60405180910390fd5b600260009054906101000a900473ffffffffffffffffffffffffffffffffffffffff1673ffffffffffffffffffffffffffffffffffffffff163373ffffffffffffffffffffffffffffffffffffffff1614610480576040517f08c379a000000000000000000000000000000000000000000000000000000000815260040161047790612982565b60405180910390fd5b6000600581111561049457610493612e5a565b5b600360149054906101000a900460ff1660058111156104b6576104b5612e5a565b5b14806104f55750600360058111156104d1576104d0612e5a565b5b600360149054906101000a900460ff1660058111156104f3576104f2612e5a565b5b145b8061053357506004600581111561050f5761050e612e5a565b5b600360149054906101000a900460ff16600581111561053157610530612e5a565b5b145b610572576040517f08c379a0000000000000000000000000000000000000000000000000000000008152600401610569906129a2565b60405180910390fd5b6005600360146101000a81548160ff0219169083600581111561059857610597612e5a565b5b0217905550600360009054906101000a900473ffffffffffffffffffffffffffffffffffffffff1673ffffffffffffffffffffffffffffffffffffffff1663244c3c2c6040518163ffffffff1660e01b8152600401602060405180830381600087803b15801561060757600080fd5b505af115801561061b573d6000803e3d6000fd5b505050506040513d601f19601f8201168201806040525081019061063f9190612369565b507ffeb7af4852eca96c1bfc4abd1bf2029a80272acdbf1f1d1d97c47dd6388fc66960405160405180910390a1565b60058081111561068157610680612e5a565b5b600360149054906101000a900460ff1660058111156106a3576106a2612e5a565b5b14156106e4576040517f08c379a00000000000000000000000000000000000000000000000000000000081526004016106db90612a42565b60405180910390fd5b600260009054906101000a900473ffffffffffffffffffffffffffffffffffffffff1673ffffffffffffffffffffffffffffffffffffffff163373ffffffffffffffffffffffffffffffffffffffff1614610774576040517f08c379a000000000000000000000000000000000000000000000000000000000815260040161076b90612982565b60405180910390fd5b600360149054906101000a900460ff16600080600581111561079957610798612e5a565b5b8260058111156107ac576107ab612e5a565b5b146107ec576040517f08c379a00000000000000000000000000000000000000000000000000000000081526004016107e3906129a2565b60405180910390fd5b6107f5836118e0565b7f811e66beac215e4afafaadcb6fa0f561430b1690fe0869f16abb767f166378a160405160405180910390a1505050565b60096020528060005260406000206000915090505481565b600260009054906101000a900473ffffffffffffffffffffffffffffffffffffffff1681565b60058081111561087757610876612e5a565b5b600360149054906101000a900460ff16600581111561089957610898612e5a565b5b14156108da576040517f08c379a00000000000000000000000000000000000000000000000000000000081526004016108d190612a42565b60405180910390fd5b600260009054906101000a900473ffffffffffffffffffffffffffffffffffffffff1673ffffffffffffffffffffffffffffffffffffffff163373ffffffffffffffffffffffffffffffffffffffff161461096a576040517f08c379a000000000000000000000000000000000000000000000000000000000815260040161096190612982565b60405180910390fd5b600360149054906101000a900460ff16600080600581111561098f5761098e612e5a565b5b8260058111156109a2576109a1612e5a565b5b146109e2576040517f08c379a00000000000000000000000000000000000000000000000000000000081526004016109d9906129a2565b60405180910390fd5b600060019054906101000a900460ff1660ff16831115610a37576040517f08c379a0000000000000000000000000000000000000000000000000000000008152600401610a2e90612a02565b60405180910390fd5b610a418385611a6b565b7fecf60f602773eab1fd9d40cefaf4b9841fb542d201e68a21f94d04c4febd468160405160405180910390a150505050565b600260009054906101000a900473ffffffffffffffffffffffffffffffffffffffff1673ffffffffffffffffffffffffffffffffffffffff163373ffffffffffffffffffffffffffffffffffffffff1614610b03576040517f08c379a0000000000000000000000000000000000000000000000000000000008152600401610afa90612982565b60405180910390fd5b80600260006101000a81548173ffffffffffffffffffffffffffffffffffffffff021916908373ffffffffffffffffffffffffffffffffffffffff16021790555050565b60008054906101000a900460ff1681565b600580811115610b6b57610b6a612e5a565b5b600360149054906101000a900460ff166005811115610b8d57610b8c612e5a565b5b1415610bce576040517f08c379a0000000000000000000000000000000000000000000000000000000008152600401610bc590612a42565b60405180910390fd5b600260009054906101000a900473ffffffffffffffffffffffffffffffffffffffff1673ffffffffffffffffffffffffffffffffffffffff163373ffffffffffffffffffffffffffffffffffffffff1614610c5e576040517f08c379a0000000000000000000000000000000000000000000000000000000008152600401610c5590612982565b60405180910390fd5b600360149054906101000a900460ff166000806005811115610c8357610c82612e5a565b5b826005811115610c9657610c95612e5a565b5b14610cd6576040517f08c379a0000000000000000000000000000000000000000000000000000000008152600401610ccd906129a2565b60405180910390fd5b600062093a80600460030154610cec9190612c4e565b905042811015610d31576040517f08c379a0000000000000000000000000000000000000000000000000000000008152600401610d2890612962565b60405180910390fd5b6001600360146101000a81548160ff02191690836005811115610d5757610d56612e5a565b5b02179055507f0a97a4ee45751e2abf3e4fc8946939630b11b371ea8ae39ccdc3056e98f5cc3f60006001604051610d8f92919061289a565b60405180910390a1505050565b6008602052806000526040600020600091509050806000018054610dbf90612d9e565b80601f0160208091040260200160405190810160405280929190818152602001828054610deb90612d9e565b8015610e385780601f10610e0d57610100808354040283529160200191610e38565b820191906000526020600020905b815481529060010190602001808311610e1b57829003601f168201915b505050505090806001018054610e4d90612d9e565b80601f0160208091040260200160405190810160405280929190818152602001828054610e7990612d9e565b8015610ec65780601f10610e9b57610100808354040283529160200191610ec6565b820191906000526020600020905b815481529060010190602001808311610ea957829003601f168201915b5050505050908060020154908060030154908060040154908060050154908060060160009054906101000a900460ff16905087565b60015481565b600580811115610f1457610f13612e5a565b5b600360149054906101000a900460ff166005811115610f3657610f35612e5a565b5b1415610f77576040517f08c379a0000000000000000000000000000000000000000000000000000000008152600401610f6e90612a42565b60405180910390fd5b600360149054906101000a900460ff166001806005811115610f9c57610f9b612e5a565b5b826005811115610faf57610fae612e5a565b5b14610fef576040517f08c379a0000000000000000000000000000000000000000000000000000000008152600401610fe6906129a2565b60405180910390fd5b61101b7f0000000000000000000000000000000000000000000000000000000000000000333086611bf9565b61106d83600960003373ffffffffffffffffffffffffffffffffffffffff1673ffffffffffffffffffffffffffffffffffffffff16815260200190815260200160002054611c8290919063ffffffff16565b600960003373ffffffffffffffffffffffffffffffffffffffff1673ffffffffffffffffffffffffffffffffffffffff168152602001908152602001600020819055507f1bb460ccaaf70fbacfec17a376f8acbd278c1405590ffcc8ebe4b88daf4f64ad33846040516110e1929190612820565b60405180910390a1505050565b600360009054906101000a900473ffffffffffffffffffffffffffffffffffffffff1681565b60058081111561112757611126612e5a565b5b600360149054906101000a900460ff16600581111561114957611148612e5a565b5b141561118a576040517f08c379a000000000000000000000000000000000000000000000000000000000815260040161118190612a42565b60405180910390fd5b600260009054906101000a900473ffffffffffffffffffffffffffffffffffffffff1673ffffffffffffffffffffffffffffffffffffffff163373ffffffffffffffffffffffffffffffffffffffff161461121a576040517f08c379a000000000000000000000000000000000000000000000000000000000815260040161121190612982565b60405180910390fd5b600360149054906101000a900460ff16600080600581111561123f5761123e612e5a565b5b82600581111561125257611251612e5a565b5b14611292576040517f08c379a0000000000000000000000000000000000000000000000000000000008152600401611289906129a2565b60405180910390fd5b6000600181819054906101000a900460ff16809291906112b190612e01565b91906101000a81548160ff021916908360ff160217905550506112e6600060019054906101000a900460ff1660ff1684611a6b565b7fb2b3a6cae014e777a38588687036f49746e93cd5787e86f03d667e6634a1d373600060019054906101000a900460ff166040516113249190612b29565b60405180910390a1505050565b611339611f05565b600080600060058081111561135157611350612e5a565b5b600360149054906101000a900460ff16600581111561137357611372612e5a565b5b14156113b4576040517f08c379a00000000000000000000000000000000000000000000000000000000081526004016113ab90612a42565b60405180910390fd5b6004600154600260009054906101000a900473ffffffffffffffffffffffffffffffffffffffff16600360149054906101000a900460ff168360405180608001604052908160008201805461140890612d9e565b80601f016020809104026020016040519081016040528092919081815260200182805461143490612d9e565b80156114815780601f1061145657610100808354040283529160200191611481565b820191906000526020600020905b81548152906001019060200180831161146457829003601f168201915b5050505050815260200160018201805461149a90612d9e565b80601f01602080910402602001604051908101604052809291908181526020018280546114c690612d9e565b80156115135780601f106114e857610100808354040283529160200191611513565b820191906000526020600020905b8154815290600101906020018083116114f657829003601f168201915b50505050508152602001600282015481526020016003820154815250509350935093509350935090919293565b60058081111561155357611552612e5a565b5b600360149054906101000a900460ff16600581111561157557611574612e5a565b5b14156115b6576040517f08c379a00000000000000000000000000000000000000000000000000000000081526004016115ad90612a42565b60405180910390fd5b600260009054906101000a900473ffffffffffffffffffffffffffffffffffffffff1673ffffffffffffffffffffffffffffffffffffffff163373ffffffffffffffffffffffffffffffffffffffff1614611646576040517f08c379a000000000000000000000000000000000000000000000000000000000815260040161163d90612982565b60405180910390fd5b600360149054906101000a900460ff16600080600581111561166b5761166a612e5a565b5b82600581111561167e5761167d612e5a565b5b146116be576040517f08c379a00000000000000000000000000000000000000000000000000000000081526004016116b5906129a2565b60405180910390fd5b600060019054906101000a900460ff1660ff16831115611713576040517f08c379a000000000000000000000000000000000000000000000000000000000815260040161170a90612a02565b60405180910390fd5b82600060019054906101000a900460ff1660ff16146117fc57600860008060019054906101000a900460ff1660ff16815260200190815260200160002060086000858152602001908152602001600020600082018160000190805461177790612d9e565b611782929190611f2d565b50600182018160010190805461179790612d9e565b6117a2929190611f2d565b50600282015481600201556003820154816003015560048201548160040155600582015481600501556006820160009054906101000a900460ff168160060160006101000a81548160ff0219169083151502179055509050505b600860008060019054906101000a900460ff1660ff168152602001908152602001600020600080820160006118319190611fba565b6001820160006118419190611fba565b60028201600090556003820160009055600482016000905560058201600090556006820160006101000a81549060ff021916905550506000600181819054906101000a900460ff168092919061189690612d74565b91906101000a81548160ff021916908360ff160217905550507f0827f1eff1e08734db2dd5d48026bbd6a3c6d84959a04390246cf09f83c8138260405160405180910390a1505050565b600081600001515111611928576040517f08c379a000000000000000000000000000000000000000000000000000000000815260040161191f90612aa2565b60405180910390fd5b600081602001515111611970576040517f08c379a000000000000000000000000000000000000000000000000000000000815260040161196790612a22565b60405180910390fd5b612710816040015110156119b9576040517f08c379a00000000000000000000000000000000000000000000000000000000081526004016119b0906129e2565b60405180910390fd5b806060015162093a806001546119cf9190612bf8565b1115611a10576040517f08c379a0000000000000000000000000000000000000000000000000000000008152600401611a0790612962565b60405180910390fd5b806000015160046000019080519060200190611a2d929190611ffa565b50806020015160046001019080519060200190611a4b929190611ffa565b508060400151600460020181905550806060015160046003018190555050565b600081600001515111611ab3576040517f08c379a0000000000000000000000000000000000000000000000000000000008152600401611aaa90612aa2565b60405180910390fd5b600081602001515111611afb576040517f08c379a0000000000000000000000000000000000000000000000000000000008152600401611af290612a22565b60405180910390fd5b611b03612080565b8160000151816000018190525081602001518160200181905250816040015181604001818152505081608001518160800181815250508160a001518160a00181815250508160c001518160c001901515908115158152505080600860008581526020019081526020016000206000820151816000019080519060200190611b8b929190611ffa565b506020820151816001019080519060200190611ba8929190611ffa565b5060408201518160020155606082015181600301556080820151816004015560a0820151816005015560c08201518160060160006101000a81548160ff021916908315150217905550905050505050565b611c7c846323b872dd60e01b858585604051602401611c1a939291906127e9565b604051602081830303815290604052907bffffffffffffffffffffffffffffffffffffffffffffffffffffffff19166020820180517bffffffffffffffffffffffffffffffffffffffffffffffffffffffff8381831617835250505050611c98565b50505050565b60008183611c909190612bf8565b905092915050565b6000611cfa826040518060400160405280602081526020017f5361666545524332303a206c6f772d6c6576656c2063616c6c206661696c65648152508573ffffffffffffffffffffffffffffffffffffffff16611d5f9092919063ffffffff16565b9050600081511115611d5a5780806020019051810190611d1a9190612369565b611d59576040517f08c379a0000000000000000000000000000000000000000000000000000000008152600401611d5090612a82565b60405180910390fd5b5b505050565b6060611d6e8484600085611d77565b90509392505050565b606082471015611dbc576040517f08c379a0000000000000000000000000000000000000000000000000000000008152600401611db3906129c2565b60405180910390fd5b611dc585611e8b565b611e04576040517f08c379a0000000000000000000000000000000000000000000000000000000008152600401611dfb90612a62565b60405180910390fd5b6000808673ffffffffffffffffffffffffffffffffffffffff168587604051611e2d91906127b7565b60006040518083038185875af1925050503d8060008114611e6a576040519150601f19603f3d011682016040523d82523d6000602084013e611e6f565b606091505b5091509150611e7f828286611e9e565b92505050949350505050565b600080823b905060008111915050919050565b60608315611eae57829050611efe565b600083511115611ec15782518084602001fd5b816040517f08c379a0000000000000000000000000000000000000000000000000000000008152600401611ef591906128c3565b60405180910390fd5b9392505050565b6040518060800160405280606081526020016060815260200160008152602001600081525090565b828054611f3990612d9e565b90600052602060002090601f016020900481019282611f5b5760008555611fa9565b82601f10611f6c5780548555611fa9565b82800160010185558215611fa957600052602060002091601f016020900482015b82811115611fa8578254825591600101919060010190611f8d565b5b509050611fb691906120bf565b5090565b508054611fc690612d9e565b6000825580601f10611fd85750611ff7565b601f016020900490600052602060002090810190611ff691906120bf565b5b50565b82805461200690612d9e565b90600052602060002090601f016020900481019282612028576000855561206f565b82601f1061204157805160ff191683800117855561206f565b8280016001018555821561206f579182015b8281111561206e578251825591602001919060010190612053565b5b50905061207c91906120bf565b5090565b6040518060e001604052806060815260200160608152602001600081526020016000815260200160008152602001600081526020016000151581525090565b5b808211156120d85760008160009055506001016120c0565b5090565b60006120ef6120ea84612b84565b612b5f565b90508281526020810184848401111561210b5761210a612ef6565b5b612116848285612d32565b509392505050565b60008135905061212d81613139565b92915050565b60008135905061214281613150565b92915050565b60008151905061215781613150565b92915050565b600082601f83011261217257612171612ee7565b5b81356121828482602086016120dc565b91505092915050565b6000608082840312156121a1576121a0612eec565b5b6121ab6080612b5f565b9050600082013567ffffffffffffffff8111156121cb576121ca612ef1565b5b6121d78482850161215d565b600083015250602082013567ffffffffffffffff8111156121fb576121fa612ef1565b5b6122078482850161215d565b602083015250604061221b84828501612327565b604083015250606061222f84828501612327565b60608301525092915050565b600060e0828403121561225157612250612eec565b5b61225b60e0612b5f565b9050600082013567ffffffffffffffff81111561227b5761227a612ef1565b5b6122878482850161215d565b600083015250602082013567ffffffffffffffff8111156122ab576122aa612ef1565b5b6122b78482850161215d565b60208301525060406122cb84828501612327565b60408301525060606122df84828501612327565b60608301525060806122f384828501612327565b60808301525060a061230784828501612327565b60a08301525060c061231b84828501612133565b60c08301525092915050565b60008135905061233681613167565b92915050565b60006020828403121561235257612351612f00565b5b60006123608482850161211e565b91505092915050565b60006020828403121561237f5761237e612f00565b5b600061238d84828501612148565b91505092915050565b6000602082840312156123ac576123ab612f00565b5b600082013567ffffffffffffffff8111156123ca576123c9612efb565b5b6123d68482850161218b565b91505092915050565b6000602082840312156123f5576123f4612f00565b5b600082013567ffffffffffffffff81111561241357612412612efb565b5b61241f8482850161223b565b91505092915050565b6000806040838503121561243f5761243e612f00565b5b600083013567ffffffffffffffff81111561245d5761245c612efb565b5b6124698582860161223b565b925050602061247a85828601612327565b9150509250929050565b60006020828403121561249a57612499612f00565b5b60006124a884828501612327565b91505092915050565b6124ba81612c82565b82525050565b6124c981612c94565b82525050565b60006124da82612bb5565b6124e48185612bcb565b93506124f4818560208601612d41565b80840191505092915050565b61250981612cea565b82525050565b61251881612d0e565b82525050565b600061252982612bc0565b6125338185612bd6565b9350612543818560208601612d41565b61254c81612f05565b840191505092915050565b600061256282612bc0565b61256c8185612be7565b935061257c818560208601612d41565b61258581612f05565b840191505092915050565b600061259d601b83612be7565b91506125a882612f16565b602082019050919050565b60006125c0600f83612be7565b91506125cb82612f3f565b602082019050919050565b60006125e3601c83612be7565b91506125ee82612f68565b602082019050919050565b6000612606602683612be7565b915061261182612f91565b604082019050919050565b6000612629601d83612be7565b915061263482612fe0565b602082019050919050565b600061264c601583612be7565b915061265782613009565b602082019050919050565b600061266f601783612be7565b915061267a82613032565b602082019050919050565b6000612692601683612be7565b915061269d8261305b565b602082019050919050565b60006126b5601d83612be7565b91506126c082613084565b602082019050919050565b60006126d8602a83612be7565b91506126e3826130ad565b604082019050919050565b60006126fb601183612be7565b9150612706826130fc565b602082019050919050565b6000608083016000830151848203600086015261272e828261251e565b91505060208301518482036020860152612748828261251e565b915050604083015161275d604086018261277b565b506060830151612770606086018261277b565b508091505092915050565b61278481612cd3565b82525050565b61279381612cd3565b82525050565b6127a281612d20565b82525050565b6127b181612cdd565b82525050565b60006127c382846124cf565b915081905092915050565b60006020820190506127e360008301846124b1565b92915050565b60006060820190506127fe60008301866124b1565b61280b60208301856124b1565b612818604083018461278a565b949350505050565b600060408201905061283560008301856124b1565b612842602083018461278a565b9392505050565b600060208201905061285e60008301846124c0565b92915050565b60006020820190506128796000830184612500565b92915050565b6000602082019050612894600083018461250f565b92915050565b60006040820190506128af600083018561250f565b6128bc602083018461250f565b9392505050565b600060208201905081810360008301526128dd8184612557565b905092915050565b600060e08201905081810360008301526128ff818a612557565b905081810360208301526129138189612557565b9050612922604083018861278a565b61292f606083018761278a565b61293c608083018661278a565b61294960a083018561278a565b61295660c08301846124c0565b98975050505050505050565b6000602082019050818103600083015261297b81612590565b9050919050565b6000602082019050818103600083015261299b816125b3565b9050919050565b600060208201905081810360008301526129bb816125d6565b9050919050565b600060208201905081810360008301526129db816125f9565b9050919050565b600060208201905081810360008301526129fb8161261c565b9050919050565b60006020820190508181036000830152612a1b8161263f565b9050919050565b60006020820190508181036000830152612a3b81612662565b9050919050565b60006020820190508181036000830152612a5b81612685565b9050919050565b60006020820190508181036000830152612a7b816126a8565b9050919050565b60006020820190508181036000830152612a9b816126cb565b9050919050565b60006020820190508181036000830152612abb816126ee565b9050919050565b60006080820190508181036000830152612adc8187612711565b9050612aeb602083018661278a565b612af860408301856124b1565b612b05606083018461250f565b95945050505050565b6000602082019050612b23600083018461278a565b92915050565b6000602082019050612b3e6000830184612799565b92915050565b6000602082019050612b5960008301846127a8565b92915050565b6000612b69612b7a565b9050612b758282612dd0565b919050565b6000604051905090565b600067ffffffffffffffff821115612b9f57612b9e612eb8565b5b612ba882612f05565b9050602081019050919050565b600081519050919050565b600081519050919050565b600081905092915050565b600082825260208201905092915050565b600082825260208201905092915050565b6000612c0382612cd3565b9150612c0e83612cd3565b9250827fffffffffffffffffffffffffffffffffffffffffffffffffffffffffffffffff03821115612c4357612c42612e2b565b5b828201905092915050565b6000612c5982612cd3565b9150612c6483612cd3565b925082821015612c7757612c76612e2b565b5b828203905092915050565b6000612c8d82612cb3565b9050919050565b60008115159050919050565b6000819050612cae82613125565b919050565b600073ffffffffffffffffffffffffffffffffffffffff82169050919050565b6000819050919050565b600060ff82169050919050565b6000612cf582612cfc565b9050919050565b6000612d0782612cb3565b9050919050565b6000612d1982612ca0565b9050919050565b6000612d2b82612cdd565b9050919050565b82818337600083830152505050565b60005b83811015612d5f578082015181840152602081019050612d44565b83811115612d6e576000848401525b50505050565b6000612d7f82612cdd565b91506000821415612d9357612d92612e2b565b5b600182039050919050565b60006002820490506001821680612db657607f821691505b60208210811415612dca57612dc9612e89565b5b50919050565b612dd982612f05565b810181811067ffffffffffffffff82111715612df857612df7612eb8565b5b80604052505050565b6000612e0c82612cdd565b915060ff821415612e2057612e1f612e2b565b5b600182019050919050565b7f4e487b7100000000000000000000000000000000000000000000000000000000600052601160045260246000fd5b7f4e487b7100000000000000000000000000000000000000000000000000000000600052602160045260246000fd5b7f4e487b7100000000000000000000000000000000000000000000000000000000600052602260045260246000fd5b7f4e487b7100000000000000000000000000000000000000000000000000000000600052604160045260246000fd5b600080fd5b600080fd5b600080fd5b600080fd5b600080fd5b600080fd5b6000601f19601f8301169050919050565b7f214572723a20646561646c696e654461746520746f2073686f72740000000000600082015250565b7f214e6f7420417574686f72697a65640000000000000000000000000000000000600082015250565b7f21457272203a2057726f6e6720776f726b666c6f772073746174757300000000600082015250565b7f416464726573733a20696e73756666696369656e742062616c616e636520666f60008201527f722063616c6c0000000000000000000000000000000000000000000000000000602082015250565b7f214572723a2046756e64696e6720476f616c206e6f7420656e6f756768000000600082015250565b7f214572723a20496e646578206e6f742065786973740000000000000000000000600082015250565b7f214572723a204465736372697074696f6e20656d707479000000000000000000600082015250565b7f214572723a2043616d706169676e2044656c6574656400000000000000000000600082015250565b7f416464726573733a2063616c6c20746f206e6f6e2d636f6e7472616374000000600082015250565b7f5361666545524332303a204552433230206f7065726174696f6e20646964206e60008201527f6f74207375636365656400000000000000000000000000000000000000000000602082015250565b7f214572723a205469746c6520656d707479000000000000000000000000000000600082015250565b6006811061313657613135612e5a565b5b50565b61314281612c82565b811461314d57600080fd5b50565b61315981612c94565b811461316457600080fd5b50565b61317081612cd3565b811461317b57600080fd5b5056fea2646970667358221220d5be19207e1ab6a19bd3f758f0f8c9db77fc0fcefb3d393df61058915e24b2ab64736f6c63430008060033",
  "immutableReferences": {
    "26": [
      {
        "length": 32,
        "start": 818
      },
      {
        "length": 32,
        "start": 4084
      }
    ]
  },
  "source": "// SPDX-License-Identifier: GPL-3.0\r\npragma solidity 0.8.6;\r\n\r\nimport \"./interfaces/ICampaign.sol\";\r\nimport \"./interfaces/ICampaignFactory.sol\";\r\nimport \"@openzeppelin/contracts/token/ERC20/utils/SafeERC20.sol\";\r\nimport \"@openzeppelin/contracts/utils/math/SafeMath.sol\";\r\n\r\ncontract Campaign is ICampaign {\r\n    using SafeMath for uint256;\r\n    \r\n    bool public isDisabled;\r\n    uint8 public rewardsCounter;\r\n    uint256 public createAt;\r\n    address public manager;\r\n    address public factory;\r\n    WorkflowStatus public status;\r\n    IERC20 public immutable usdcToken;\r\n\r\n    Info private campaignInfo;\r\n    mapping(uint => Rewards) public rewardsList;\r\n    mapping(address => uint256) public contributions;\r\n\r\n    //    Events\r\n    event CampaignNewRewardsAdded(uint rewardsCounter);\r\n    event CampaignInfoUpdated();\r\n    event CampaignRewardsUpdated();\r\n    event CampaignDisabled();\r\n    event CampaignRewardDeleted();\r\n    event WorkflowStatusChange(\r\n        WorkflowStatus previousStatus,\r\n        WorkflowStatus newStatus\r\n    );\r\n    event ContributionReceived(address, uint256);\r\n\r\n    //Modifiers\r\n    modifier isNotDeleted(){\r\n        require(status != WorkflowStatus.CampaignDeleted, \"!Err: Campaign Deleted\");\r\n        _;\r\n    }\r\n\r\n    modifier onlyManager(){\r\n        require(msg.sender == manager, \"!Not Authorized\");\r\n        _;\r\n    }\r\n\r\n    modifier checkStatus(\r\n        WorkflowStatus currentStatus,\r\n        WorkflowStatus requiredStatus\r\n    ) {\r\n        require(currentStatus == requiredStatus, \"!Err : Wrong workflow status\");\r\n        _;\r\n    }\r\n\r\n    constructor(Info memory infoData, Rewards[] memory rewardsData, address _manager)\r\n    {\r\n        require(rewardsData.length > 0, \"!Err: Rewards empty\");\r\n        require(rewardsData.length <= 10, \"!Err: Too much Rewards\");\r\n        manager = _manager;\r\n        factory = msg.sender;\r\n        createAt = block.timestamp;\r\n        status = WorkflowStatus.CampaignDrafted;\r\n        usdcToken = IERC20(0x07865c6E87B9F70255377e024ace6630C1Eaa37F);\r\n        _setCampaignInfo(infoData);\r\n        for (rewardsCounter; rewardsCounter < rewardsData.length; rewardsCounter++) {\r\n            _setCampaignReward(rewardsCounter, rewardsData[rewardsCounter]);\r\n        }\r\n    }\r\n\r\n    /**\r\n     * @inheritdoc ICampaign\r\n     */\r\n    function getCampaignInfo() external view override isNotDeleted() returns(Info memory, uint, address, WorkflowStatus) {\r\n        return (campaignInfo, createAt, manager, status);\r\n    }\r\n\r\n    /**\r\n     * @inheritdoc ICampaign\r\n     */\r\n    function updateCampaign(Info memory newInfo) external override isNotDeleted() onlyManager() checkStatus(status, WorkflowStatus.CampaignDrafted) {\r\n        _setCampaignInfo(newInfo);\r\n        emit CampaignInfoUpdated();\r\n    }\r\n\r\n    /**\r\n     * @inheritdoc ICampaign\r\n     */\r\n    function addReward(Rewards memory newRewardData) external override isNotDeleted() onlyManager() checkStatus(status, WorkflowStatus.CampaignDrafted) {\r\n        rewardsCounter++;\r\n        _setCampaignReward(rewardsCounter, newRewardData);\r\n        emit CampaignNewRewardsAdded(rewardsCounter);\r\n    }\r\n\r\n    /**\r\n     * @inheritdoc ICampaign\r\n     */\r\n    function updateReward(Rewards memory newRewardData, uint rewardIndex) external override isNotDeleted() onlyManager() checkStatus(status, WorkflowStatus.CampaignDrafted) {\r\n        require(rewardIndex <= rewardsCounter, \"!Err: Index not exist\");\r\n        _setCampaignReward(rewardIndex, newRewardData);\r\n        emit CampaignRewardsUpdated();\r\n    }\r\n\r\n    /**\r\n    * @notice Internal function that set a new campaign's info and making data validation first.\r\n    * @param data Info Object that contains the Info data following the Info struct\r\n    */\r\n    function _setCampaignInfo(Info memory data) private {\r\n        require(bytes(data.title).length > 0, \"!Err: Title empty\");\r\n        require(bytes(data.description).length > 0, \"!Err: Description empty\");\r\n        require(data.fundingGoal >= 10000, \"!Err: Funding Goal not enough\");\r\n        require(createAt + 7 days <= data.deadlineDate, \"!Err: deadlineDate to short\");\r\n        campaignInfo.title = data.title;\r\n        campaignInfo.description = data.description;\r\n        campaignInfo.fundingGoal = data.fundingGoal;\r\n        campaignInfo.deadlineDate = data.deadlineDate;\r\n    }\r\n\r\n    /**\r\n     * @notice Internal function that set a new campaign's reward level and making data validation first.\r\n     * @param index uint Index of the reward to add\r\n     * @param data Rewards Object that contains the Reward data following the Rewards struct\r\n     */\r\n    function _setCampaignReward(uint index, Rewards memory data) private {\r\n        require(bytes(data.title).length > 0, \"!Err: Title empty\");\r\n        require(bytes(data.description).length > 0, \"!Err: Description empty\");\r\n        Rewards memory r;\r\n        r.title = data.title;\r\n        r.description = data.description;\r\n        r.minimumContribution = data.minimumContribution;\r\n        r.stockLimit = data.stockLimit;\r\n        r.nbContributors = data.nbContributors;\r\n        r.isStockLimited = data.isStockLimited;\r\n        rewardsList[index] = r;\r\n    }\r\n\r\n    /**\r\n     * @inheritdoc ICampaign\r\n     */\r\n    function deleteCampaign() public override isNotDeleted() onlyManager() {\r\n        require(status == WorkflowStatus.CampaignDrafted || status == WorkflowStatus.FundingFailed || status == WorkflowStatus.CampaignCompleted, \"!Err : Wrong workflow status\");\r\n        status = WorkflowStatus.CampaignDeleted;\r\n        ICampaignFactory(factory).deleteCampaign();\r\n        emit CampaignDisabled();\r\n    }\r\n\r\n    /**\r\n     * @inheritdoc ICampaign\r\n     */\r\n    function deleteReward(uint256 rewardIndex) external override isNotDeleted() onlyManager() checkStatus(status, WorkflowStatus.CampaignDrafted) {\r\n        require(rewardIndex <= rewardsCounter, \"!Err: Index not exist\");\r\n        if(rewardsCounter!=rewardIndex){\r\n            rewardsList[rewardIndex] = rewardsList[rewardsCounter];\r\n        }\r\n        delete rewardsList[rewardsCounter];\r\n        rewardsCounter--;\r\n        emit CampaignRewardDeleted();\r\n    }\r\n\r\n    /**\r\n     * @inheritdoc ICampaign\r\n     */\r\n    function updateManager(address newManager) external override onlyManager() {\r\n        manager = newManager;\r\n    }\r\n\r\n    /**\r\n     * @inheritdoc ICampaign\r\n     */\r\n    function publishCampaign() external override isNotDeleted() onlyManager() checkStatus(status, WorkflowStatus.CampaignDrafted) {\r\n        uint minDate = campaignInfo.deadlineDate - 7 days;\r\n        require(minDate >= block.timestamp, \"!Err: deadlineDate to short\");\r\n        status = WorkflowStatus.CampaignPublished;\r\n        emit WorkflowStatusChange(WorkflowStatus.CampaignDrafted, WorkflowStatus.CampaignPublished);\r\n    }\r\n    \r\n    /**\r\n     * @inheritdoc ICampaign\r\n     */\r\n    function contribute(uint _amount) external override isNotDeleted() checkStatus(status, WorkflowStatus.CampaignPublished) {\r\n        SafeERC20.safeTransferFrom(usdcToken, msg.sender, address(this), _amount);\r\n        contributions[msg.sender] = contributions[msg.sender].add(_amount);\r\n        emit ContributionReceived(msg.sender, _amount);\r\n    }\r\n}\r\n",
  "sourcePath": "A:/Programing/Projet_Final/SparkUp/contracts/Campaign.sol",
  "compiler": {
    "name": "solc",
    "version": "0.8.6+commit.11564f7e.Emscripten.clang"
  },
  "schemaVersion": "3.4.1",
  "updatedAt": "2021-07-26T20:56:05.820Z",
  "devdoc": {
    "kind": "dev",
    "methods": {
      "addReward((string,string,uint256,uint256,uint256,uint256,bool))": {
        "details": "Only the manager must be able to call it.",
        "params": {
          "newRewardData": "Rewards Object that contains all the needed information following the Rewards struct for the campaign"
        }
      },
      "contribute(uint256)": {
        "details": "Can only be called if campaing is published, is not comleted, is not deleted and is not failed."
      },
      "deleteCampaign()": {
        "details": "It's the entry point for deleting a campaign. Only the manager must be able to call it"
      },
      "deleteReward(uint256)": {
        "details": "Only the manager must be able to call it.",
        "params": {
          "rewardIndex": "uint256 Index of the reward to delete"
        }
      },
      "publishCampaign()": {
        "details": "Only the manager must be able to call it and only within acceptable deadlineDate timeframe."
      },
      "updateCampaign((string,string,uint256,uint256))": {
        "details": "Only the manager must be able to call it.",
        "params": {
          "updatedInfoData": "Info Object that contains all the new information following the Info struct for the campaign"
        }
      },
      "updateManager(address)": {
        "details": "Only the manager must be able to call it.",
        "params": {
          "newManager": "address Address of the new manager"
        }
      },
      "updateReward((string,string,uint256,uint256,uint256,uint256,bool),uint256)": {
        "details": "Only the manager must be able to call it.",
        "params": {
          "newRewardData": "Rewards Object that contains the new data to set following the Rewards struct for the campaign",
          "rewardIndex": "uint256 Index of the reward to update"
        }
      }
    },
    "version": 1
  },
  "userdoc": {
    "kind": "user",
    "methods": {
      "addReward((string,string,uint256,uint256,uint256,uint256,bool))": {
        "notice": "Add a new reward level to the campaign."
      },
      "contribute(uint256)": {
        "notice": "Allow contributors to contribute to the campaign."
      },
      "deleteCampaign()": {
        "notice": "Delete the campaign."
      },
      "deleteReward(uint256)": {
        "notice": "Delete a reward by its Id."
      },
      "getCampaignInfo()": {
        "notice": "Returns the campaign information in the struct Info plus de createAt and the managerAddress."
      },
      "publishCampaign()": {
        "notice": "Allow the manager to publish campaign and make it visible to potential contributors."
      },
      "updateCampaign((string,string,uint256,uint256))": {
        "notice": "Update the campaign information in the struct Info."
      },
      "updateManager(address)": {
        "notice": "Allow the manager to setup a new one."
      },
      "updateReward((string,string,uint256,uint256,uint256,uint256,bool),uint256)": {
        "notice": "Update the data of a specific reward regarding its id."
      }
    },
    "version": 1
  }
}