{
  "contractName": "Campaign",
  "abi": [
    {
      "inputs": [
        {
          "components": [
            {
              "internalType": "string",
              "name": "title",
              "type": "string"
            },
            {
              "internalType": "string",
              "name": "description",
              "type": "string"
            },
            {
              "internalType": "uint256",
              "name": "fundingGoal",
              "type": "uint256"
            },
            {
              "internalType": "uint256",
              "name": "deadlineDate",
              "type": "uint256"
            }
          ],
          "internalType": "struct ICampaign.Info",
          "name": "infoData",
          "type": "tuple"
        },
        {
          "components": [
            {
              "internalType": "string",
              "name": "title",
              "type": "string"
            },
            {
              "internalType": "string",
              "name": "description",
              "type": "string"
            },
            {
              "internalType": "uint256",
              "name": "minimumContribution",
              "type": "uint256"
            },
            {
              "internalType": "uint256",
              "name": "amount",
              "type": "uint256"
            },
            {
              "internalType": "uint256",
              "name": "stockLimit",
              "type": "uint256"
            },
            {
              "internalType": "uint256",
              "name": "nbContributors",
              "type": "uint256"
            },
            {
              "internalType": "bool",
              "name": "isStockLimited",
              "type": "bool"
            }
          ],
          "internalType": "struct ICampaign.Rewards[]",
          "name": "rewardsData",
          "type": "tuple[]"
        },
        {
          "internalType": "address",
          "name": "_manager",
          "type": "address"
        }
      ],
      "stateMutability": "nonpayable",
      "type": "constructor"
    },
    {
      "anonymous": false,
      "inputs": [],
      "name": "CampaignDisabled",
      "type": "event"
    },
    {
      "anonymous": false,
      "inputs": [],
      "name": "CampaignInfoUpdated",
      "type": "event"
    },
    {
      "anonymous": false,
      "inputs": [
        {
          "indexed": false,
          "internalType": "uint256",
          "name": "rewardsCounter",
          "type": "uint256"
        }
      ],
      "name": "CampaignNewRewardsAdded",
      "type": "event"
    },
    {
      "anonymous": false,
      "inputs": [],
      "name": "CampaignPublished",
      "type": "event"
    },
    {
      "anonymous": false,
      "inputs": [],
      "name": "CampaignRewardDeleted",
      "type": "event"
    },
    {
      "anonymous": false,
      "inputs": [],
      "name": "CampaignRewardsUpdated",
      "type": "event"
    },
    {
      "anonymous": false,
      "inputs": [
        {
          "indexed": false,
          "internalType": "enum ICampaign.WorkflowStatus",
          "name": "previousStatus",
          "type": "uint8"
        },
        {
          "indexed": false,
          "internalType": "enum ICampaign.WorkflowStatus",
          "name": "newStatus",
          "type": "uint8"
        }
      ],
      "name": "WorkflowStatusChange",
      "type": "event"
    },
    {
      "anonymous": false,
      "inputs": [
        {
          "indexed": false,
          "internalType": "uint256",
          "name": "",
          "type": "uint256"
        },
        {
          "indexed": false,
          "internalType": "uint256",
          "name": "",
          "type": "uint256"
        }
      ],
      "name": "checkDate",
      "type": "event"
    },
    {
      "anonymous": false,
      "inputs": [],
      "name": "newCampaign",
      "type": "event"
    },
    {
      "inputs": [],
      "name": "createAt",
      "outputs": [
        {
          "internalType": "uint256",
          "name": "",
          "type": "uint256"
        }
      ],
      "stateMutability": "view",
      "type": "function"
    },
    {
      "inputs": [],
      "name": "factory",
      "outputs": [
        {
          "internalType": "address",
          "name": "",
          "type": "address"
        }
      ],
      "stateMutability": "view",
      "type": "function"
    },
    {
      "inputs": [],
      "name": "isDisabled",
      "outputs": [
        {
          "internalType": "bool",
          "name": "",
          "type": "bool"
        }
      ],
      "stateMutability": "view",
      "type": "function"
    },
    {
      "inputs": [],
      "name": "manager",
      "outputs": [
        {
          "internalType": "address",
          "name": "",
          "type": "address"
        }
      ],
      "stateMutability": "view",
      "type": "function"
    },
    {
      "inputs": [],
      "name": "rewardsCounter",
      "outputs": [
        {
          "internalType": "uint8",
          "name": "",
          "type": "uint8"
        }
      ],
      "stateMutability": "view",
      "type": "function"
    },
    {
      "inputs": [
        {
          "internalType": "uint256",
          "name": "",
          "type": "uint256"
        }
      ],
      "name": "rewardsList",
      "outputs": [
        {
          "internalType": "string",
          "name": "title",
          "type": "string"
        },
        {
          "internalType": "string",
          "name": "description",
          "type": "string"
        },
        {
          "internalType": "uint256",
          "name": "minimumContribution",
          "type": "uint256"
        },
        {
          "internalType": "uint256",
          "name": "amount",
          "type": "uint256"
        },
        {
          "internalType": "uint256",
          "name": "stockLimit",
          "type": "uint256"
        },
        {
          "internalType": "uint256",
          "name": "nbContributors",
          "type": "uint256"
        },
        {
          "internalType": "bool",
          "name": "isStockLimited",
          "type": "bool"
        }
      ],
      "stateMutability": "view",
      "type": "function"
    },
    {
      "inputs": [],
      "name": "status",
      "outputs": [
        {
          "internalType": "enum ICampaign.WorkflowStatus",
          "name": "",
          "type": "uint8"
        }
      ],
      "stateMutability": "view",
      "type": "function"
    },
    {
      "inputs": [],
      "name": "getCampaignInfo",
      "outputs": [
        {
          "components": [
            {
              "internalType": "string",
              "name": "title",
              "type": "string"
            },
            {
              "internalType": "string",
              "name": "description",
              "type": "string"
            },
            {
              "internalType": "uint256",
              "name": "fundingGoal",
              "type": "uint256"
            },
            {
              "internalType": "uint256",
              "name": "deadlineDate",
              "type": "uint256"
            }
          ],
          "internalType": "struct ICampaign.Info",
          "name": "",
          "type": "tuple"
        },
        {
          "internalType": "uint256",
          "name": "",
          "type": "uint256"
        },
        {
          "internalType": "address",
          "name": "",
          "type": "address"
        }
      ],
      "stateMutability": "view",
      "type": "function"
    },
    {
      "inputs": [
        {
          "components": [
            {
              "internalType": "string",
              "name": "title",
              "type": "string"
            },
            {
              "internalType": "string",
              "name": "description",
              "type": "string"
            },
            {
              "internalType": "uint256",
              "name": "fundingGoal",
              "type": "uint256"
            },
            {
              "internalType": "uint256",
              "name": "deadlineDate",
              "type": "uint256"
            }
          ],
          "internalType": "struct ICampaign.Info",
          "name": "newInfo",
          "type": "tuple"
        }
      ],
      "name": "updateCampaign",
      "outputs": [],
      "stateMutability": "nonpayable",
      "type": "function"
    },
    {
      "inputs": [
        {
          "components": [
            {
              "internalType": "string",
              "name": "title",
              "type": "string"
            },
            {
              "internalType": "string",
              "name": "description",
              "type": "string"
            },
            {
              "internalType": "uint256",
              "name": "minimumContribution",
              "type": "uint256"
            },
            {
              "internalType": "uint256",
              "name": "amount",
              "type": "uint256"
            },
            {
              "internalType": "uint256",
              "name": "stockLimit",
              "type": "uint256"
            },
            {
              "internalType": "uint256",
              "name": "nbContributors",
              "type": "uint256"
            },
            {
              "internalType": "bool",
              "name": "isStockLimited",
              "type": "bool"
            }
          ],
          "internalType": "struct ICampaign.Rewards",
          "name": "newRewardData",
          "type": "tuple"
        }
      ],
      "name": "addReward",
      "outputs": [],
      "stateMutability": "nonpayable",
      "type": "function"
    },
    {
      "inputs": [
        {
          "components": [
            {
              "internalType": "string",
              "name": "title",
              "type": "string"
            },
            {
              "internalType": "string",
              "name": "description",
              "type": "string"
            },
            {
              "internalType": "uint256",
              "name": "minimumContribution",
              "type": "uint256"
            },
            {
              "internalType": "uint256",
              "name": "amount",
              "type": "uint256"
            },
            {
              "internalType": "uint256",
              "name": "stockLimit",
              "type": "uint256"
            },
            {
              "internalType": "uint256",
              "name": "nbContributors",
              "type": "uint256"
            },
            {
              "internalType": "bool",
              "name": "isStockLimited",
              "type": "bool"
            }
          ],
          "internalType": "struct ICampaign.Rewards",
          "name": "newRewardData",
          "type": "tuple"
        },
        {
          "internalType": "uint256",
          "name": "rewardIndex",
          "type": "uint256"
        }
      ],
      "name": "updateReward",
      "outputs": [],
      "stateMutability": "nonpayable",
      "type": "function"
    },
    {
      "inputs": [],
      "name": "deleteCampaign",
      "outputs": [],
      "stateMutability": "nonpayable",
      "type": "function"
    },
    {
      "inputs": [
        {
          "internalType": "uint256",
          "name": "rewardIndex",
          "type": "uint256"
        }
      ],
      "name": "deleteReward",
      "outputs": [],
      "stateMutability": "nonpayable",
      "type": "function"
    },
    {
      "inputs": [
        {
          "internalType": "address",
          "name": "newManager",
          "type": "address"
        }
      ],
      "name": "updateManager",
      "outputs": [],
      "stateMutability": "nonpayable",
      "type": "function"
    },
    {
      "inputs": [],
      "name": "publishCampaign",
      "outputs": [],
      "stateMutability": "nonpayable",
      "type": "function"
    }
  ],
  "bytecode": "0x60806040523480156200001157600080fd5b5060405162003a5c38038062003a5c8339818101604052810190620000379190620009d5565b60008251116200007e576040517f08c379a0000000000000000000000000000000000000000000000000000000008152600401620000759062000bbf565b60405180910390fd5b600a82511115620000c6576040517f08c379a0000000000000000000000000000000000000000000000000000000008152600401620000bd9062000b59565b60405180910390fd5b80600260006101000a81548173ffffffffffffffffffffffffffffffffffffffff021916908373ffffffffffffffffffffffffffffffffffffffff16021790555033600360006101000a81548173ffffffffffffffffffffffffffffffffffffffff021916908373ffffffffffffffffffffffffffffffffffffffff160217905550426001819055506000600360146101000a81548160ff0219169083600581111562000178576200017762000e78565b5b02179055506200018e836200025560201b60201c565b600060019054906101000a9050505b8151600060019054906101000a900460ff1660ff1610156200024c576200020c600060019054906101000a900460ff1660ff1683600060019054906101000a900460ff1660ff1681518110620001f857620001f762000ed6565b5b6020026020010151620003f260201b60201c565b6000600181819054906101000a900460ff16809291906200022d9062000e1a565b91906101000a81548160ff021916908360ff160217905550506200019d565b505050620010ac565b600081600001515111620002a0576040517f08c379a0000000000000000000000000000000000000000000000000000000008152600401620002979062000c03565b60405180910390fd5b600081602001515111620002eb576040517f08c379a0000000000000000000000000000000000000000000000000000000008152600401620002e29062000be1565b60405180910390fd5b6127108160400151101562000337576040517f08c379a00000000000000000000000000000000000000000000000000000000081526004016200032e9062000b9d565b60405180910390fd5b806060015162093a806001546200034f919062000cc4565b111562000393576040517f08c379a00000000000000000000000000000000000000000000000000000000081526004016200038a9062000b7b565b60405180910390fd5b806000015160046000019080519060200190620003b29291906200058c565b50806020015160046001019080519060200190620003d29291906200058c565b508060400151600460020181905550806060015160046003018190555050565b6000816000015151116200043d576040517f08c379a0000000000000000000000000000000000000000000000000000000008152600401620004349062000c03565b60405180910390fd5b60008160200151511162000488576040517f08c379a00000000000000000000000000000000000000000000000000000000081526004016200047f9062000be1565b60405180910390fd5b620004926200061d565b8160000151816000018190525081602001518160200181905250816040015181604001818152505081608001518160800181815250508160a001518160a00181815250508160c001518160c0019015159081151581525050806008600085815260200190815260200160002060008201518160000190805190602001906200051c9291906200058c565b5060208201518160010190805190602001906200053b9291906200058c565b5060408201518160020155606082015181600301556080820151816004015560a0820151816005015560c08201518160060160006101000a81548160ff021916908315150217905550905050505050565b8280546200059a9062000dae565b90600052602060002090601f016020900481019282620005be57600085556200060a565b82601f10620005d957805160ff19168380011785556200060a565b828001600101855582156200060a579182015b8281111562000609578251825591602001919060010190620005ec565b5b5090506200061991906200065c565b5090565b6040518060e001604052806060815260200160608152602001600081526020016000815260200160008152602001600081526020016000151581525090565b5b80821115620006775760008160009055506001016200065d565b5090565b6000620006926200068c8462000c4e565b62000c25565b90508083825260208201905082856020860282011115620006b857620006b762000f43565b5b60005b858110156200070d57815167ffffffffffffffff811115620006e257620006e162000f34565b5b808601620006f18982620008b9565b85526020850194506020840193505050600181019050620006bb565b5050509392505050565b60006200072e620007288462000c7d565b62000c25565b9050828152602081018484840111156200074d576200074c62000f48565b5b6200075a84828562000d78565b509392505050565b60008151905062000773816200105e565b92915050565b600082601f83011262000791576200079062000f34565b5b8151620007a38482602086016200067b565b91505092915050565b600081519050620007bd8162001078565b92915050565b600082601f830112620007db57620007da62000f34565b5b8151620007ed84826020860162000717565b91505092915050565b6000608082840312156200080f576200080e62000f39565b5b6200081b608062000c25565b9050600082015167ffffffffffffffff8111156200083e576200083d62000f3e565b5b6200084c84828501620007c3565b600083015250602082015167ffffffffffffffff81111562000873576200087262000f3e565b5b6200088184828501620007c3565b60208301525060406200089784828501620009be565b6040830152506060620008ad84828501620009be565b60608301525092915050565b600060e08284031215620008d257620008d162000f39565b5b620008de60e062000c25565b9050600082015167ffffffffffffffff81111562000901576200090062000f3e565b5b6200090f84828501620007c3565b600083015250602082015167ffffffffffffffff81111562000936576200093562000f3e565b5b6200094484828501620007c3565b60208301525060406200095a84828501620009be565b60408301525060606200097084828501620009be565b60608301525060806200098684828501620009be565b60808301525060a06200099c84828501620009be565b60a08301525060c0620009b284828501620007ac565b60c08301525092915050565b600081519050620009cf8162001092565b92915050565b600080600060608486031215620009f157620009f062000f52565b5b600084015167ffffffffffffffff81111562000a125762000a1162000f4d565b5b62000a2086828701620007f6565b935050602084015167ffffffffffffffff81111562000a445762000a4362000f4d565b5b62000a528682870162000779565b925050604062000a658682870162000762565b9150509250925092565b600062000a7e60168362000cb3565b915062000a8b8262000f68565b602082019050919050565b600062000aa5601b8362000cb3565b915062000ab28262000f91565b602082019050919050565b600062000acc601d8362000cb3565b915062000ad98262000fba565b602082019050919050565b600062000af360138362000cb3565b915062000b008262000fe3565b602082019050919050565b600062000b1a60178362000cb3565b915062000b27826200100c565b602082019050919050565b600062000b4160118362000cb3565b915062000b4e8262001035565b602082019050919050565b6000602082019050818103600083015262000b748162000a6f565b9050919050565b6000602082019050818103600083015262000b968162000a96565b9050919050565b6000602082019050818103600083015262000bb88162000abd565b9050919050565b6000602082019050818103600083015262000bda8162000ae4565b9050919050565b6000602082019050818103600083015262000bfc8162000b0b565b9050919050565b6000602082019050818103600083015262000c1e8162000b32565b9050919050565b600062000c3162000c44565b905062000c3f828262000de4565b919050565b6000604051905090565b600067ffffffffffffffff82111562000c6c5762000c6b62000f05565b5b602082029050602081019050919050565b600067ffffffffffffffff82111562000c9b5762000c9a62000f05565b5b62000ca68262000f57565b9050602081019050919050565b600082825260208201905092915050565b600062000cd18262000d61565b915062000cde8362000d61565b9250827fffffffffffffffffffffffffffffffffffffffffffffffffffffffffffffffff0382111562000d165762000d1562000e49565b5b828201905092915050565b600062000d2e8262000d41565b9050919050565b60008115159050919050565b600073ffffffffffffffffffffffffffffffffffffffff82169050919050565b6000819050919050565b600060ff82169050919050565b60005b8381101562000d9857808201518184015260208101905062000d7b565b8381111562000da8576000848401525b50505050565b6000600282049050600182168062000dc757607f821691505b6020821081141562000dde5762000ddd62000ea7565b5b50919050565b62000def8262000f57565b810181811067ffffffffffffffff8211171562000e115762000e1062000f05565b5b80604052505050565b600062000e278262000d6b565b915060ff82141562000e3e5762000e3d62000e49565b5b600182019050919050565b7f4e487b7100000000000000000000000000000000000000000000000000000000600052601160045260246000fd5b7f4e487b7100000000000000000000000000000000000000000000000000000000600052602160045260246000fd5b7f4e487b7100000000000000000000000000000000000000000000000000000000600052602260045260246000fd5b7f4e487b7100000000000000000000000000000000000000000000000000000000600052603260045260246000fd5b7f4e487b7100000000000000000000000000000000000000000000000000000000600052604160045260246000fd5b600080fd5b600080fd5b600080fd5b600080fd5b600080fd5b600080fd5b600080fd5b6000601f19601f8301169050919050565b7f214572723a20546f6f206d756368205265776172647300000000000000000000600082015250565b7f214572723a20646561646c696e654461746520746f2073686f72740000000000600082015250565b7f214572723a2046756e64696e6720476f616c206e6f7420656e6f756768000000600082015250565b7f214572723a205265776172647320656d70747900000000000000000000000000600082015250565b7f214572723a204465736372697074696f6e20656d707479000000000000000000600082015250565b7f214572723a205469746c6520656d707479000000000000000000000000000000600082015250565b620010698162000d21565b81146200107557600080fd5b50565b620010838162000d35565b81146200108f57600080fd5b50565b6200109d8162000d61565b8114620010a957600080fd5b50565b6129a080620010bc6000396000f3fe608060405234801561001057600080fd5b50600436106100f55760003560e01c80636c57f5a911610097578063c45a015511610066578063c45a01551461022e578063d355f0061461024c578063d6290cd714610268578063e7cf1ab714610288576100f5565b80636c57f5a9146101b25780637ef59f84146101d0578063bd39e015146101da578063bf1d4cad14610210576100f5565b806337acecce116100d357806337acecce14610140578063481c6a751461015c57806356212d591461017a57806358aba00f14610196576100f5565b8063200d2ed2146100fa578063205b091414610118578063244c3c2c14610136575b600080fd5b6101026102a4565b60405161010f91906121d3565b60405180910390f35b6101206102b7565b60405161012d9190612431565b60405180910390f35b61013e6102ca565b005b61015a60048036038101906101559190611e25565b6105be565b005b610164610776565b604051610171919061219d565b60405180910390f35b610194600480360381019061018f9190611eb7565b61079c565b005b6101b060048036038101906101ab9190611dcb565b6109ab565b005b6101ba610a7f565b6040516101c791906121b8565b60405180910390f35b6101d8610a90565b005b6101f460048036038101906101ef9190611f13565b610d39565b6040516102079796959493929190612217565b60405180910390f35b610218610e98565b60405161022591906123d2565b60405180910390f35b610236610e9e565b604051610243919061219d565b60405180910390f35b61026660048036038101906102619190611e6e565b610ec4565b005b6102706110e1565b60405161027f93929190612394565b60405180910390f35b6102a2600480360381019061029d9190611f13565b6112db565b005b600360149054906101000a900460ff1681565b600060019054906101000a900460ff1681565b6005808111156102dd576102dc61270d565b5b600360149054906101000a900460ff1660058111156102ff576102fe61270d565b5b1415610340576040517f08c379a000000000000000000000000000000000000000000000000000000000815260040161033790612354565b60405180910390fd5b600260009054906101000a900473ffffffffffffffffffffffffffffffffffffffff1673ffffffffffffffffffffffffffffffffffffffff163373ffffffffffffffffffffffffffffffffffffffff16146103d0576040517f08c379a00000000000000000000000000000000000000000000000000000000081526004016103c7906122b4565b60405180910390fd5b600060058111156103e4576103e361270d565b5b600360149054906101000a900460ff1660058111156104065761040561270d565b5b14806104455750600360058111156104215761042061270d565b5b600360149054906101000a900460ff1660058111156104435761044261270d565b5b145b8061048357506004600581111561045f5761045e61270d565b5b600360149054906101000a900460ff1660058111156104815761048061270d565b5b145b6104c2576040517f08c379a00000000000000000000000000000000000000000000000000000000081526004016104b9906122d4565b60405180910390fd5b6005600360146101000a81548160ff021916908360058111156104e8576104e761270d565b5b0217905550600360009054906101000a900473ffffffffffffffffffffffffffffffffffffffff1673ffffffffffffffffffffffffffffffffffffffff1663244c3c2c6040518163ffffffff1660e01b8152600401602060405180830381600087803b15801561055757600080fd5b505af115801561056b573d6000803e3d6000fd5b505050506040513d601f19601f8201168201806040525081019061058f9190611df8565b507ffeb7af4852eca96c1bfc4abd1bf2029a80272acdbf1f1d1d97c47dd6388fc66960405160405180910390a1565b6005808111156105d1576105d061270d565b5b600360149054906101000a900460ff1660058111156105f3576105f261270d565b5b1415610634576040517f08c379a000000000000000000000000000000000000000000000000000000000815260040161062b90612354565b60405180910390fd5b600260009054906101000a900473ffffffffffffffffffffffffffffffffffffffff1673ffffffffffffffffffffffffffffffffffffffff163373ffffffffffffffffffffffffffffffffffffffff16146106c4576040517f08c379a00000000000000000000000000000000000000000000000000000000081526004016106bb906122b4565b60405180910390fd5b600360149054906101000a900460ff1660008060058111156106e9576106e861270d565b5b8260058111156106fc576106fb61270d565b5b1461073c576040517f08c379a0000000000000000000000000000000000000000000000000000000008152600401610733906122d4565b60405180910390fd5b6107458361167b565b7f811e66beac215e4afafaadcb6fa0f561430b1690fe0869f16abb767f166378a160405160405180910390a1505050565b600260009054906101000a900473ffffffffffffffffffffffffffffffffffffffff1681565b6005808111156107af576107ae61270d565b5b600360149054906101000a900460ff1660058111156107d1576107d061270d565b5b1415610812576040517f08c379a000000000000000000000000000000000000000000000000000000000815260040161080990612354565b60405180910390fd5b600260009054906101000a900473ffffffffffffffffffffffffffffffffffffffff1673ffffffffffffffffffffffffffffffffffffffff163373ffffffffffffffffffffffffffffffffffffffff16146108a2576040517f08c379a0000000000000000000000000000000000000000000000000000000008152600401610899906122b4565b60405180910390fd5b600360149054906101000a900460ff1660008060058111156108c7576108c661270d565b5b8260058111156108da576108d961270d565b5b1461091a576040517f08c379a0000000000000000000000000000000000000000000000000000000008152600401610911906122d4565b60405180910390fd5b600060019054906101000a900460ff1660ff1683111561096f576040517f08c379a000000000000000000000000000000000000000000000000000000000815260040161096690612314565b60405180910390fd5b6109798385611806565b7fecf60f602773eab1fd9d40cefaf4b9841fb542d201e68a21f94d04c4febd468160405160405180910390a150505050565b600260009054906101000a900473ffffffffffffffffffffffffffffffffffffffff1673ffffffffffffffffffffffffffffffffffffffff163373ffffffffffffffffffffffffffffffffffffffff1614610a3b576040517f08c379a0000000000000000000000000000000000000000000000000000000008152600401610a32906122b4565b60405180910390fd5b80600260006101000a81548173ffffffffffffffffffffffffffffffffffffffff021916908373ffffffffffffffffffffffffffffffffffffffff16021790555050565b60008054906101000a900460ff1681565b600580811115610aa357610aa261270d565b5b600360149054906101000a900460ff166005811115610ac557610ac461270d565b5b1415610b06576040517f08c379a0000000000000000000000000000000000000000000000000000000008152600401610afd90612354565b60405180910390fd5b600260009054906101000a900473ffffffffffffffffffffffffffffffffffffffff1673ffffffffffffffffffffffffffffffffffffffff163373ffffffffffffffffffffffffffffffffffffffff1614610b96576040517f08c379a0000000000000000000000000000000000000000000000000000000008152600401610b8d906122b4565b60405180910390fd5b600360149054906101000a900460ff166000806005811115610bbb57610bba61270d565b5b826005811115610bce57610bcd61270d565b5b14610c0e576040517f08c379a0000000000000000000000000000000000000000000000000000000008152600401610c05906122d4565b60405180910390fd5b600062093a80600460030154610c249190612525565b90507f84295c2d284d7ced8673e1864cbd0c29c59dfb5442e38c5151f50ecfa7ce163d8142604051610c579291906123ed565b60405180910390a142811015610ca2576040517f08c379a0000000000000000000000000000000000000000000000000000000008152600401610c9990612294565b60405180910390fd5b6001600360146101000a81548160ff02191690836005811115610cc857610cc761270d565b5b02179055507f0a97a4ee45751e2abf3e4fc8946939630b11b371ea8ae39ccdc3056e98f5cc3f60006001604051610d009291906121ee565b60405180910390a17f20ef2d2cd387cf0d96d11359a8be458897fada296539b0dea160888d0fda035960405160405180910390a1505050565b6008602052806000526040600020600091509050806000018054610d5c90612651565b80601f0160208091040260200160405190810160405280929190818152602001828054610d8890612651565b8015610dd55780601f10610daa57610100808354040283529160200191610dd5565b820191906000526020600020905b815481529060010190602001808311610db857829003601f168201915b505050505090806001018054610dea90612651565b80601f0160208091040260200160405190810160405280929190818152602001828054610e1690612651565b8015610e635780601f10610e3857610100808354040283529160200191610e63565b820191906000526020600020905b815481529060010190602001808311610e4657829003601f168201915b5050505050908060020154908060030154908060040154908060050154908060060160009054906101000a900460ff16905087565b60015481565b600360009054906101000a900473ffffffffffffffffffffffffffffffffffffffff1681565b600580811115610ed757610ed661270d565b5b600360149054906101000a900460ff166005811115610ef957610ef861270d565b5b1415610f3a576040517f08c379a0000000000000000000000000000000000000000000000000000000008152600401610f3190612354565b60405180910390fd5b600260009054906101000a900473ffffffffffffffffffffffffffffffffffffffff1673ffffffffffffffffffffffffffffffffffffffff163373ffffffffffffffffffffffffffffffffffffffff1614610fca576040517f08c379a0000000000000000000000000000000000000000000000000000000008152600401610fc1906122b4565b60405180910390fd5b600360149054906101000a900460ff166000806005811115610fef57610fee61270d565b5b8260058111156110025761100161270d565b5b14611042576040517f08c379a0000000000000000000000000000000000000000000000000000000008152600401611039906122d4565b60405180910390fd5b6000600181819054906101000a900460ff1680929190611061906126b4565b91906101000a81548160ff021916908360ff16021790555050611096600060019054906101000a900460ff1660ff1684611806565b7fb2b3a6cae014e777a38588687036f49746e93cd5787e86f03d667e6634a1d373600060019054906101000a900460ff166040516110d49190612416565b60405180910390a1505050565b6110e9611994565b6000806005808111156110ff576110fe61270d565b5b600360149054906101000a900460ff1660058111156111215761112061270d565b5b1415611162576040517f08c379a000000000000000000000000000000000000000000000000000000000815260040161115990612354565b60405180910390fd5b6004600154600260009054906101000a900473ffffffffffffffffffffffffffffffffffffffff16826040518060800160405290816000820180546111a690612651565b80601f01602080910402602001604051908101604052809291908181526020018280546111d290612651565b801561121f5780601f106111f45761010080835404028352916020019161121f565b820191906000526020600020905b81548152906001019060200180831161120257829003601f168201915b5050505050815260200160018201805461123890612651565b80601f016020809104026020016040519081016040528092919081815260200182805461126490612651565b80156112b15780601f10611286576101008083540402835291602001916112b1565b820191906000526020600020905b81548152906001019060200180831161129457829003601f168201915b50505050508152602001600282015481526020016003820154815250509250925092509250909192565b6005808111156112ee576112ed61270d565b5b600360149054906101000a900460ff1660058111156113105761130f61270d565b5b1415611351576040517f08c379a000000000000000000000000000000000000000000000000000000000815260040161134890612354565b60405180910390fd5b600260009054906101000a900473ffffffffffffffffffffffffffffffffffffffff1673ffffffffffffffffffffffffffffffffffffffff163373ffffffffffffffffffffffffffffffffffffffff16146113e1576040517f08c379a00000000000000000000000000000000000000000000000000000000081526004016113d8906122b4565b60405180910390fd5b600360149054906101000a900460ff1660008060058111156114065761140561270d565b5b8260058111156114195761141861270d565b5b14611459576040517f08c379a0000000000000000000000000000000000000000000000000000000008152600401611450906122d4565b60405180910390fd5b600060019054906101000a900460ff1660ff168311156114ae576040517f08c379a00000000000000000000000000000000000000000000000000000000081526004016114a590612314565b60405180910390fd5b82600060019054906101000a900460ff1660ff161461159757600860008060019054906101000a900460ff1660ff16815260200190815260200160002060086000858152602001908152602001600020600082018160000190805461151290612651565b61151d9291906119bc565b50600182018160010190805461153290612651565b61153d9291906119bc565b50600282015481600201556003820154816003015560048201548160040155600582015481600501556006820160009054906101000a900460ff168160060160006101000a81548160ff0219169083151502179055509050505b600860008060019054906101000a900460ff1660ff168152602001908152602001600020600080820160006115cc9190611a49565b6001820160006115dc9190611a49565b60028201600090556003820160009055600482016000905560058201600090556006820160006101000a81549060ff021916905550506000600181819054906101000a900460ff168092919061163190612627565b91906101000a81548160ff021916908360ff160217905550507f0827f1eff1e08734db2dd5d48026bbd6a3c6d84959a04390246cf09f83c8138260405160405180910390a1505050565b6000816000015151116116c3576040517f08c379a00000000000000000000000000000000000000000000000000000000081526004016116ba90612374565b60405180910390fd5b60008160200151511161170b576040517f08c379a000000000000000000000000000000000000000000000000000000000815260040161170290612334565b60405180910390fd5b61271081604001511015611754576040517f08c379a000000000000000000000000000000000000000000000000000000000815260040161174b906122f4565b60405180910390fd5b806060015162093a8060015461176a91906124cf565b11156117ab576040517f08c379a00000000000000000000000000000000000000000000000000000000081526004016117a290612294565b60405180910390fd5b8060000151600460000190805190602001906117c8929190611a89565b508060200151600460010190805190602001906117e6929190611a89565b508060400151600460020181905550806060015160046003018190555050565b60008160000151511161184e576040517f08c379a000000000000000000000000000000000000000000000000000000000815260040161184590612374565b60405180910390fd5b600081602001515111611896576040517f08c379a000000000000000000000000000000000000000000000000000000000815260040161188d90612334565b60405180910390fd5b61189e611b0f565b8160000151816000018190525081602001518160200181905250816040015181604001818152505081608001518160800181815250508160a001518160a00181815250508160c001518160c001901515908115158152505080600860008581526020019081526020016000206000820151816000019080519060200190611926929190611a89565b506020820151816001019080519060200190611943929190611a89565b5060408201518160020155606082015181600301556080820151816004015560a0820151816005015560c08201518160060160006101000a81548160ff021916908315150217905550905050505050565b6040518060800160405280606081526020016060815260200160008152602001600081525090565b8280546119c890612651565b90600052602060002090601f0160209004810192826119ea5760008555611a38565b82601f106119fb5780548555611a38565b82800160010185558215611a3857600052602060002091601f016020900482015b82811115611a37578254825591600101919060010190611a1c565b5b509050611a459190611b4e565b5090565b508054611a5590612651565b6000825580601f10611a675750611a86565b601f016020900490600052602060002090810190611a859190611b4e565b5b50565b828054611a9590612651565b90600052602060002090601f016020900481019282611ab75760008555611afe565b82601f10611ad057805160ff1916838001178555611afe565b82800160010185558215611afe579182015b82811115611afd578251825591602001919060010190611ae2565b5b509050611b0b9190611b4e565b5090565b6040518060e001604052806060815260200160608152602001600081526020016000815260200160008152602001600081526020016000151581525090565b5b80821115611b67576000816000905550600101611b4f565b5090565b6000611b7e611b7984612471565b61244c565b905082815260208101848484011115611b9a57611b996127a9565b5b611ba58482856125e5565b509392505050565b600081359050611bbc81612925565b92915050565b600081359050611bd18161293c565b92915050565b600081519050611be68161293c565b92915050565b600082601f830112611c0157611c0061279a565b5b8135611c11848260208601611b6b565b91505092915050565b600060808284031215611c3057611c2f61279f565b5b611c3a608061244c565b9050600082013567ffffffffffffffff811115611c5a57611c596127a4565b5b611c6684828501611bec565b600083015250602082013567ffffffffffffffff811115611c8a57611c896127a4565b5b611c9684828501611bec565b6020830152506040611caa84828501611db6565b6040830152506060611cbe84828501611db6565b60608301525092915050565b600060e08284031215611ce057611cdf61279f565b5b611cea60e061244c565b9050600082013567ffffffffffffffff811115611d0a57611d096127a4565b5b611d1684828501611bec565b600083015250602082013567ffffffffffffffff811115611d3a57611d396127a4565b5b611d4684828501611bec565b6020830152506040611d5a84828501611db6565b6040830152506060611d6e84828501611db6565b6060830152506080611d8284828501611db6565b60808301525060a0611d9684828501611db6565b60a08301525060c0611daa84828501611bc2565b60c08301525092915050565b600081359050611dc581612953565b92915050565b600060208284031215611de157611de06127b3565b5b6000611def84828501611bad565b91505092915050565b600060208284031215611e0e57611e0d6127b3565b5b6000611e1c84828501611bd7565b91505092915050565b600060208284031215611e3b57611e3a6127b3565b5b600082013567ffffffffffffffff811115611e5957611e586127ae565b5b611e6584828501611c1a565b91505092915050565b600060208284031215611e8457611e836127b3565b5b600082013567ffffffffffffffff811115611ea257611ea16127ae565b5b611eae84828501611cca565b91505092915050565b60008060408385031215611ece57611ecd6127b3565b5b600083013567ffffffffffffffff811115611eec57611eeb6127ae565b5b611ef885828601611cca565b9250506020611f0985828601611db6565b9150509250929050565b600060208284031215611f2957611f286127b3565b5b6000611f3784828501611db6565b91505092915050565b611f4981612559565b82525050565b611f588161256b565b82525050565b611f67816125c1565b82525050565b6000611f78826124a2565b611f8281856124ad565b9350611f928185602086016125f4565b611f9b816127b8565b840191505092915050565b6000611fb1826124a2565b611fbb81856124be565b9350611fcb8185602086016125f4565b611fd4816127b8565b840191505092915050565b6000611fec601b836124be565b9150611ff7826127c9565b602082019050919050565b600061200f600f836124be565b915061201a826127f2565b602082019050919050565b6000612032601c836124be565b915061203d8261281b565b602082019050919050565b6000612055601d836124be565b915061206082612844565b602082019050919050565b60006120786015836124be565b91506120838261286d565b602082019050919050565b600061209b6017836124be565b91506120a682612896565b602082019050919050565b60006120be6016836124be565b91506120c9826128bf565b602082019050919050565b60006120e16011836124be565b91506120ec826128e8565b602082019050919050565b600060808301600083015184820360008601526121148282611f6d565b9150506020830151848203602086015261212e8282611f6d565b91505060408301516121436040860182612161565b5060608301516121566060860182612161565b508091505092915050565b61216a816125aa565b82525050565b612179816125aa565b82525050565b612188816125d3565b82525050565b612197816125b4565b82525050565b60006020820190506121b26000830184611f40565b92915050565b60006020820190506121cd6000830184611f4f565b92915050565b60006020820190506121e86000830184611f5e565b92915050565b60006040820190506122036000830185611f5e565b6122106020830184611f5e565b9392505050565b600060e0820190508181036000830152612231818a611fa6565b905081810360208301526122458189611fa6565b90506122546040830188612170565b6122616060830187612170565b61226e6080830186612170565b61227b60a0830185612170565b61228860c0830184611f4f565b98975050505050505050565b600060208201905081810360008301526122ad81611fdf565b9050919050565b600060208201905081810360008301526122cd81612002565b9050919050565b600060208201905081810360008301526122ed81612025565b9050919050565b6000602082019050818103600083015261230d81612048565b9050919050565b6000602082019050818103600083015261232d8161206b565b9050919050565b6000602082019050818103600083015261234d8161208e565b9050919050565b6000602082019050818103600083015261236d816120b1565b9050919050565b6000602082019050818103600083015261238d816120d4565b9050919050565b600060608201905081810360008301526123ae81866120f7565b90506123bd6020830185612170565b6123ca6040830184611f40565b949350505050565b60006020820190506123e76000830184612170565b92915050565b60006040820190506124026000830185612170565b61240f6020830184612170565b9392505050565b600060208201905061242b600083018461217f565b92915050565b6000602082019050612446600083018461218e565b92915050565b6000612456612467565b90506124628282612683565b919050565b6000604051905090565b600067ffffffffffffffff82111561248c5761248b61276b565b5b612495826127b8565b9050602081019050919050565b600081519050919050565b600082825260208201905092915050565b600082825260208201905092915050565b60006124da826125aa565b91506124e5836125aa565b9250827fffffffffffffffffffffffffffffffffffffffffffffffffffffffffffffffff0382111561251a576125196126de565b5b828201905092915050565b6000612530826125aa565b915061253b836125aa565b92508282101561254e5761254d6126de565b5b828203905092915050565b60006125648261258a565b9050919050565b60008115159050919050565b600081905061258582612911565b919050565b600073ffffffffffffffffffffffffffffffffffffffff82169050919050565b6000819050919050565b600060ff82169050919050565b60006125cc82612577565b9050919050565b60006125de826125b4565b9050919050565b82818337600083830152505050565b60005b838110156126125780820151818401526020810190506125f7565b83811115612621576000848401525b50505050565b6000612632826125b4565b91506000821415612646576126456126de565b5b600182039050919050565b6000600282049050600182168061266957607f821691505b6020821081141561267d5761267c61273c565b5b50919050565b61268c826127b8565b810181811067ffffffffffffffff821117156126ab576126aa61276b565b5b80604052505050565b60006126bf826125b4565b915060ff8214156126d3576126d26126de565b5b600182019050919050565b7f4e487b7100000000000000000000000000000000000000000000000000000000600052601160045260246000fd5b7f4e487b7100000000000000000000000000000000000000000000000000000000600052602160045260246000fd5b7f4e487b7100000000000000000000000000000000000000000000000000000000600052602260045260246000fd5b7f4e487b7100000000000000000000000000000000000000000000000000000000600052604160045260246000fd5b600080fd5b600080fd5b600080fd5b600080fd5b600080fd5b600080fd5b6000601f19601f8301169050919050565b7f214572723a20646561646c696e654461746520746f2073686f72740000000000600082015250565b7f214e6f7420417574686f72697a65640000000000000000000000000000000000600082015250565b7f21457272203a2057726f6e6720776f726b666c6f772073746174757300000000600082015250565b7f214572723a2046756e64696e6720476f616c206e6f7420656e6f756768000000600082015250565b7f214572723a20496e646578206e6f742065786973740000000000000000000000600082015250565b7f214572723a204465736372697074696f6e20656d707479000000000000000000600082015250565b7f214572723a2043616d706169676e2044656c6574656400000000000000000000600082015250565b7f214572723a205469746c6520656d707479000000000000000000000000000000600082015250565b600681106129225761292161270d565b5b50565b61292e81612559565b811461293957600080fd5b50565b6129458161256b565b811461295057600080fd5b50565b61295c816125aa565b811461296757600080fd5b5056fea26469706673582212209bf583dc34944264b14c08ae481a5127ded7a8b44ec2f50c0dfdbf740b68522364736f6c63430008060033",
  "immutableReferences": {},
  "source": "// SPDX-License-Identifier: GPL-3.0\r\npragma solidity 0.8.6;\r\n\r\nimport \"./interfaces/ICampaign.sol\";\r\nimport \"./interfaces/ICampaignFactory.sol\";\r\n\r\ncontract Campaign is ICampaign {\r\n\r\n    bool public isDisabled;\r\n    uint8 public rewardsCounter;\r\n    uint256 public createAt;\r\n    address public manager;\r\n    address public factory;\r\n    WorkflowStatus public status;\r\n\r\n    Info private campaignInfo;\r\n    mapping(uint => Rewards) public rewardsList;\r\n\r\n    //    Events\r\n    event newCampaign();\r\n    event CampaignNewRewardsAdded(uint rewardsCounter);\r\n    event CampaignInfoUpdated();\r\n    event CampaignRewardsUpdated();\r\n    event CampaignDisabled();\r\n    event CampaignRewardDeleted();\r\n    event CampaignPublished();\r\n    event WorkflowStatusChange(\r\n        WorkflowStatus previousStatus,\r\n        WorkflowStatus newStatus\r\n    );\r\n    event checkDate(uint, uint);\r\n\r\n    //Modifiers\r\n    modifier isNotDeleted(){\r\n        require(status != WorkflowStatus.CampaignDeleted, \"!Err: Campaign Deleted\");\r\n        _;\r\n    }\r\n\r\n    modifier onlyManager(){\r\n        require(msg.sender == manager, \"!Not Authorized\");\r\n        _;\r\n    }\r\n\r\n    modifier checkStatus(\r\n        WorkflowStatus currentStatus,\r\n        WorkflowStatus requiredStatus\r\n    ) {\r\n        require(currentStatus == requiredStatus, \"!Err : Wrong workflow status\");\r\n        _;\r\n    }\r\n\r\n    constructor(Info memory infoData, Rewards[] memory rewardsData, address _manager)\r\n    {\r\n        require(rewardsData.length > 0, \"!Err: Rewards empty\");\r\n        require(rewardsData.length <= 10, \"!Err: Too much Rewards\");\r\n        manager = _manager;\r\n        factory = msg.sender;\r\n        createAt = block.timestamp;\r\n        status = WorkflowStatus.CampaignDrafted;\r\n        _setCampaignInfo(infoData);\r\n        for (rewardsCounter; rewardsCounter < rewardsData.length; rewardsCounter++) {\r\n            _setCampaignReward(rewardsCounter, rewardsData[rewardsCounter]);\r\n        }\r\n    }\r\n\r\n    /**\r\n     * @inheritdoc ICampaign\r\n     */\r\n    function getCampaignInfo() external view override isNotDeleted() returns(Info memory, uint, address) {\r\n        return (campaignInfo, createAt, manager);\r\n    }\r\n\r\n    /**\r\n     * @inheritdoc ICampaign\r\n     */\r\n    function updateCampaign(Info memory newInfo) external override isNotDeleted() onlyManager() checkStatus(status, WorkflowStatus.CampaignDrafted) {\r\n        _setCampaignInfo(newInfo);\r\n        emit CampaignInfoUpdated();\r\n    }\r\n\r\n    /**\r\n     * @inheritdoc ICampaign\r\n     */\r\n    function addReward(Rewards memory newRewardData) external override isNotDeleted() onlyManager() checkStatus(status, WorkflowStatus.CampaignDrafted) {\r\n        rewardsCounter++;\r\n        _setCampaignReward(rewardsCounter, newRewardData);\r\n        emit CampaignNewRewardsAdded(rewardsCounter);\r\n    }\r\n\r\n    /**\r\n     * @inheritdoc ICampaign\r\n     */\r\n    function updateReward(Rewards memory newRewardData, uint rewardIndex) external override isNotDeleted() onlyManager() checkStatus(status, WorkflowStatus.CampaignDrafted) {\r\n        require(rewardIndex <= rewardsCounter, \"!Err: Index not exist\");\r\n        _setCampaignReward(rewardIndex, newRewardData);\r\n        emit CampaignRewardsUpdated();\r\n    }\r\n\r\n    /**\r\n    * @notice Internal function that set a new campaign's info and making data validation first.\r\n    * @param data Info Object that contains the Info data following the Info struct\r\n    */\r\n    function _setCampaignInfo(Info memory data) private {\r\n        require(bytes(data.title).length > 0, \"!Err: Title empty\");\r\n        require(bytes(data.description).length > 0, \"!Err: Description empty\");\r\n        require(data.fundingGoal >= 10000, \"!Err: Funding Goal not enough\");\r\n        require(createAt + 7 days <= data.deadlineDate, \"!Err: deadlineDate to short\");\r\n        campaignInfo.title = data.title;\r\n        campaignInfo.description = data.description;\r\n        campaignInfo.fundingGoal = data.fundingGoal;\r\n        campaignInfo.deadlineDate = data.deadlineDate;\r\n    }\r\n\r\n    /**\r\n     * @notice Internal function that set a new campaign's reward level and making data validation first.\r\n     * @param index uint Index of the reward to add\r\n     * @param data Rewards Object that contains the Reward data following the Rewards struct\r\n     */\r\n    function _setCampaignReward(uint index, Rewards memory data) private {\r\n        require(bytes(data.title).length > 0, \"!Err: Title empty\");\r\n        require(bytes(data.description).length > 0, \"!Err: Description empty\");\r\n        Rewards memory r;\r\n        r.title = data.title;\r\n        r.description = data.description;\r\n        r.minimumContribution = data.minimumContribution;\r\n        r.stockLimit = data.stockLimit;\r\n        r.nbContributors = data.nbContributors;\r\n        r.isStockLimited = data.isStockLimited;\r\n        rewardsList[index] = r;\r\n    }\r\n\r\n    /**\r\n     * @inheritdoc ICampaign\r\n     */\r\n    function deleteCampaign() public override isNotDeleted() onlyManager() {\r\n        require(status == WorkflowStatus.CampaignDrafted || status == WorkflowStatus.FundingFailed || status == WorkflowStatus.CampaignCompleted, \"!Err : Wrong workflow status\");\r\n        status = WorkflowStatus.CampaignDeleted;\r\n        ICampaignFactory(factory).deleteCampaign();\r\n        emit CampaignDisabled();\r\n    }\r\n\r\n    /**\r\n     * @inheritdoc ICampaign\r\n     */\r\n    function deleteReward(uint256 rewardIndex) external override isNotDeleted() onlyManager() checkStatus(status, WorkflowStatus.CampaignDrafted) {\r\n        require(rewardIndex <= rewardsCounter, \"!Err: Index not exist\");\r\n        if(rewardsCounter!=rewardIndex){\r\n            rewardsList[rewardIndex] = rewardsList[rewardsCounter];\r\n        }\r\n        delete rewardsList[rewardsCounter];\r\n        rewardsCounter--;\r\n        emit CampaignRewardDeleted();\r\n    }\r\n\r\n    /**\r\n     * @inheritdoc ICampaign\r\n     */\r\n    function updateManager(address newManager) external override onlyManager() {\r\n        manager = newManager;\r\n    }\r\n\r\n    /**\r\n     * @inheritdoc ICampaign\r\n     */\r\n    function publishCampaign() external override isNotDeleted() onlyManager() checkStatus(status, WorkflowStatus.CampaignDrafted) {\r\n        uint minDate = campaignInfo.deadlineDate - 7 days;\r\n        emit checkDate(minDate, block.timestamp);\r\n        require(minDate >= block.timestamp, \"!Err: deadlineDate to short\");\r\n        status = WorkflowStatus.CampaignPublished;\r\n        emit WorkflowStatusChange(WorkflowStatus.CampaignDrafted, WorkflowStatus.CampaignPublished);\r\n        emit CampaignPublished();\r\n    }\r\n}\r\n",
  "sourcePath": "A:/Programing/Projet_Final/SparkUp/contracts/Campaign.sol",
  "compiler": {
    "name": "solc",
    "version": "0.8.6+commit.11564f7e.Emscripten.clang"
  },
  "schemaVersion": "3.4.1",
  "updatedAt": "2021-07-26T11:05:07.557Z",
  "devdoc": {
    "kind": "dev",
    "methods": {
      "addReward((string,string,uint256,uint256,uint256,uint256,bool))": {
        "details": "Only the manager must be able to call it.",
        "params": {
          "newRewardData": "Rewards Object that contains all the needed information following the Rewards struct for the campaign"
        }
      },
      "deleteCampaign()": {
        "details": "It's the entry point for deleting a campaign. Only the manager must be able to call it"
      },
      "deleteReward(uint256)": {
        "details": "Only the manager must be able to call it.",
        "params": {
          "rewardIndex": "uint256 Index of the reward to delete"
        }
      },
      "updateCampaign((string,string,uint256,uint256))": {
        "details": "Only the manager must be able to call it.",
        "params": {
          "updatedInfoData": "Info Object that contains all the new information following the Info struct for the campaign"
        }
      },
      "updateManager(address)": {
        "details": "Only the manager must be able to call it.",
        "params": {
          "newManager": "address Address of the new manager"
        }
      },
      "updateReward((string,string,uint256,uint256,uint256,uint256,bool),uint256)": {
        "details": "Only the manager must be able to call it.",
        "params": {
          "newRewardData": "Rewards Object that contains the new data to set following the Rewards struct for the campaign",
          "rewardIndex": "uint256 Index of the reward to update"
        }
      }
    },
    "version": 1
  },
  "userdoc": {
    "kind": "user",
    "methods": {
      "addReward((string,string,uint256,uint256,uint256,uint256,bool))": {
        "notice": "Add a new reward level to the campaign."
      },
      "deleteCampaign()": {
        "notice": "Delete the campaign."
      },
      "deleteReward(uint256)": {
        "notice": "Delete a reward by its Id."
      },
      "getCampaignInfo()": {
        "notice": "Returns the campaign information in the struct Info plus de createAt and the managerAddress."
      },
      "updateCampaign((string,string,uint256,uint256))": {
        "notice": "Update the campaign information in the struct Info."
      },
      "updateManager(address)": {
        "notice": "Allow the manager to setup a new one."
      },
      "updateReward((string,string,uint256,uint256,uint256,uint256,bool),uint256)": {
        "notice": "Update the data of a specific reward regarding its id."
      }
    },
    "version": 1
  }
}